:040000006FEF00F0AE
:10000800D9CF0BF0DACF0CF0F0BAF0A455D0F094B9
:100018008B94800EBEEC9AF0C00EBEEC9AF000EC09
:100028009BF04E6E8B844EAE33D049B030D08B945B
:10003800E00EBEEC9AF0000EBEEC9AF000EC9BF0DD
:100048000101146F00EC9BF00101156F00EC9BF0AF
:100058000101166F00EC9BF00101176F8B84020EF3
:100068001427490E145D0DE2030E036E040E026E92
:10007800010E056E180E046E14C106F007EC96F01A
:100088004980440E026E160ED6EC99F001D04984D0
:10009800036A040E026E61EC97F04C6E036A050E5B
:1000A800026E61EC97F04D6E036A070E026E61EC0A
:1000B80097F04F6E4CBA49929EB09DA005D09E9085
:1000C8004A2A4A6601D04B2A12EC9BF00CC0DAFF90
:0A00D8000BC0D9FF11006DEF95F089
:10FB48000020B2202020B22020B220B22020202085
:10FB580020B220B20D0AB220B220B220B22020205A
:10FB6800B22020B22020B220200D0AB22020B220DC
:10FB780020B220B220B22020B22020B220B20D0A3A
:10FB8800B22020B22020B220B22020B220B220B26F
:10FB98002020B20D0AB22020B22020B220B22020AC
:10FBA80020B220B2202020B20D0A202020202020C0
:10FBB800202020202020202020202020200D0AB2D4
:10FBC800B2B22020B2B2B2B20D0AB22020B220B234
:10FBD8002020200D0AB22020B220B2B2B2B20D0A03
:10FBE800B22020B220B22020200D0AB2B2B22020CA
:10FBF800B2B2B2B20D0A2020202020202020200DF1
:10FC08000A000102030405060708090A0B0C0D0E79
:10FC18000F01000800400000020010008001000AE7
:10FC2800006400E803102700070605010403020129
:10FC3800001000000100100D0A20202020202020A4
:10FC4800202020202020202020202020202032209A
:10FC5800746F20756E696361737420656E63727961
:10FC680070746564206D6573736167652E204C45FB
:10FC78004420322077696C6C000D0A202020202057
:10FC8800202020202020202020202020202020206C
:10FC9800427574746F6E203120746F2062726F61C8
:10FCA8006463617374206D6573736167652E20509A
:10FCB80075736820427574746F6E000D0A202020D9
:10FCC800202020202020202020202020202020202C
:10FCD8002020506F776572206F6E207468652062EF
:10FCE8006F61726420756E74696C204C45442031D4
:10FCF800206C6967687473207570000D0A202020D5
:10FD080020202020202020202020202020202020EB
:10FD18002020746F20696E64696361746520636F65
:10FD28006E6E656374696E672077697468207065A4
:10FD380065722E2050757368000D0A20202020203F
:10FD480020202020202020202020202020202020AB
:10FD5800626520746F67676C65642075706F6E20CC
:10FD6800726563656976696E67206D65737361672F
:10FD780065732E20000D0A5374617274696E6720D2
:10FD88004E6F64652031206F662053696D706C6515
:10FD98002044656D6F20666F72204D69576928543D
:10FDA8004D292050325020537461636B202E2E2E23
:10FDB800000D0A0D0A436F6E6E656374696F6E20DD
:10FDC80020202020506565724C6F6E674164647214
:10FDD800657373202020202050656572496E666F18
:10FDE8000D0A00206973206E6F7420737570706F30
:10FDF8007274656420696E2063757272656E742012
:10FE0800636F6E66696775726174696F6E2E0D0A2D
:10FE180000436F6E6E656374696E67205065657226
:10FE280020206F6E204368616E6E656C202564200B
:10FE38000053696D706C65205032502044656D6FB9
:10FE4800204D524632345841204E6F6465203100AF
:10FE58000D0A20202020205246205472616E7363C0
:10FE680065697665723A204D524632345841002011
:10FE7800436F6E6E656374656420506565722020FB
:10FE88006F6E204368616E6E656C202564000D0AF4
:10FE9800436F6E6E656374696E6720506565722086
:10FEA8006F6E204368616E6E656C20000D0A436FAB
:10FEB8006E6E65637465642050656572206F6E2090
:10FEC8004368616E6E656C200042726F61646361A5
:10FED8007374205061636B6574207769746820526D
:10FEE8005353492000556E696361737420506163F0
:10FEF8006B65742077697468205253534920000D4C
:10FF08000A53656C656374696F6E206F6620636859
:10FF1800616E6E656C20000D0A20202044656D6FAF
:10FF280020496E737472756374696F6E3A000D0AB6
:10FF3800556E6963617374204661696C65640D0A66
:10FF4800000D0A0D0A4D7920416464726573733A95
:10FF58002030780030313233343536373839414241
:10FF68004344454600303132333435363738396109
:10FF78006263646566005258204D657373616765F6
:10FF8800733A20253364005458204D6573736167B4
:10FF980065733A202533640020556E696361737474
:10FFA800204661696C6564002020202020202020E4
:10FFB80020202020200020204368616E6E656C3A66
:10FFC8002000202050414E49443A203078002043F8
:10FFD80068616E6E656C3A0053656375726564207E
:10FFE800000D0A50414E49443A002066726F6D2058
:08FFF800000D0A0D0A000000D3
:020000040001F9
:100000001D0E2A6EB6D33150250A09E019C0D9FF5A
:100010001AC0DAFF31C0DFFF194A1A2AAAD32C6AA4
:100020002D6A326A336A09D0328605D0328003D015
:10003000338601D032841B4A1C2A1BC0F6FF1CC029
:10004000F7FF000EF86E0800F550200AEFE0030AF3
:10005000EFE00E0AE9E01D0AEDE032B632941BC073
:10006000F6FF1CC0F7FF000EF86E0800F5508AEC92
:100070009AF032E32C6A2D6A2CC00DF02DC00EF0E0
:10008000106A0A0E0F6E25EC9AF00DC02CF00EC00F
:100090002DF0D00E1F6E20681BC0F6FF1CC0F7FFAE
:1000A000000EF86E0800F550216E226A1F502126BE
:1000B0002050222221502C2622502D221B4A1C2A5D
:1000C0001BC0F6FF1CC0F7FF000EF86E0800F550CD
:1000D0008AEC9AF016E3D0D71BC0F6FF1CC0F7FFDE
:1000E000000EF86E0800F5502A0A0BE12A50D96E6E
:1000F000DA6ADECF2CF0DDCF2DF0020E2A261B4A65
:100100001C2A1BC0F6FF1CC0F7FF000EF86E08008B
:10011000F5502E0A36E1338C1B4A1C2A1BC0F6FF11
:100120001CC0F7FF000EF86E0800F5502A0A0AE11D
:100130002A50D96EDA6ADF502B6E020E2A261B4A2D
:100140001C2A90D02B6A11D01BC0F6FF1CC0F7FFF1
:10015000000EF86E0800F5CF1FF02B500A0DF3507B
:100160001F24D00F2B6E1B4A1C2A1BC0F6FF1CC07D
:10017000F7FF000EF86E0800F5508AEC9AF072E373
:10018000E3D72B6A6FD0328C8CD0328A328E89D0F2
:100190002B500FE02BC01FF0206A1FBE20062F50EF
:1001A0001F5C3050205805E22B502F6E306A2FBE56
:1001B00030062C502F5C2D50305807E220EE2FF0E7
:1001C000DE502C5EDD502D5A02D02C6A2D6A32A6EC
:1001D00009D01CD019C0D9FF1AC0DAFF200EDF6E7B
:1001E000194A1A2A2C06D8A02D062C28D8B42D2856
:1001F0000DE0F0D72E50D96EDA6A19C0E1FF1AC0AF
:10020000E2FFDFCFE7FF2E2A194A1A2A2F06D8A0CD
:1002100030062F28D8B43028EDE132B609D0A9D263
:1002200019C0D9FF1AC0DAFF200EDF6E194A1A2A48
:100230002C06D8A02D062C28D8B42D2801E199D25F
:10024000EFD72A50D96EDA6ADF50316E020E2A26B5
:10025000310E2E6E000E306E010E2F6E99D7C00E2D
:1002600032121FD01BC0F6FF1CC0F7FF1B4A1C2A0E
:10027000000EF86E0800F5CF31F0315001E186D262
:10028000580A83E03B0ADDE0070A0BE00D0A09E0AB
:10029000060A01E178D71A0AE2E00D0A01E176D7F1
:1002A000D7D732C01FF0C00E1F1619E12A50D96EE1
:1002B000DA6ADECF2EF0DDCF2FF0020E2A262F5085
:1002C000800AF36E800EF35C000ED8B42E5C10E250
:1002D000030E32122E6C2F1ED8B02F2A09D02A50AE
:1002E000D96EDA6ADECF2EF0DDCF2FF0020E2A268D
:1002F0002B665CD02F502E1059E12B2A57D0010EBF
:10030000316E3150050A5BE03150020D250EF324A9
:10031000F66EFC0EF420F76EF86A000EF822090063
:10032000F5CF1FF00900F5CF20F01F502E5C2050B4
:100330002F5845E3312AE5D7010E316E3150040ABA
:100340003EE03150020D370EF324F66EFC0EF42021
:10035000F76EF86A000EF8220900F5CF1FF00900C9
:10036000F5CF20F01F502E5C20502F5828E3312A63
:10037000E5D7010E316E3150060A21E03150020DF1
:10038000190EF324F66EFC0EF420F76EF86A000ED8
:10039000F8220900F5CF1FF00900F5CF20F01F501B
:1003A0002E5C20502F580BE3312AE5D73250C00B7A
:1003B000A6E0400ADEE0C00ABFE0400AA0E03150FB
:1003C000800A1F6E2B50800A1F5C03E22BC031F0A5
:1003D00009D02B50800A1F6E3150800A1F5CD8A0B4
:1003E00031C02BF02D502C1008E032C01FF0030E4E
:1003F0001F1603E02C06D8A02D0633AC13D0800EB8
:100400002BBE7F0E1F6E2C502B5C2D50800A1F5868
:1004100007E22B502C5E000E2BBEFF0E2D5A02D091
:100420002C6A2D6AC40E1F6E080E206E32C021F099
:1004300033C022F01F502116205022162250080AE5
:10044000400ED8B4211807E12D502C1024E02C06C2
:10045000D8A02D0620D0C00E1F6E080E206E32C010
:1004600021F033C022F01F502116205022162250B6
:10047000080A800ED8B421180EE12D50800A800F92
:10048000030ED8B42C5C05E3FE0E2C26FF0E2D22A5
:1004900002D02C6A2D6A800E31BE7F0E1F6E2C504A
:1004A000315C2D50800A1F5807E231502C5E000E3F
:1004B00031BEFF0E2D5A02D02C6A2D6A32A44FD0C5
:1004C00032C01FF0030E1F1609E019C0D9FF1AC071
:1004D000DAFF2D0EDF6E194A1A2A31D032A006D06B
:1004E00019C0D9FF1AC0DAFF200EF4D7C00E1F6E54
:1004F000080E206E32C021F033C022F01F502116AA
:10050000205022162250080A800ED8B4211817E174
:1005100019C0D9FF1AC0DAFF300EDF6E194A1A2A45
:1005200032BA03D0246A780E02D0246A580E236EA1
:1005300019C0D9FF1AC0DAFF23C0DFFFCCD72D5076
:100540002C1001E1FCD019C0D9FF1AC0DAFF300E1F
:10055000DF6E194A1A2A2C06D8A02D06F0D72D5086
:100560002C10D8A432B60ED019C0D9FF1AC0DAFFA9
:10057000200EDF6E194A1A2A2C06D8A02D062D50FF
:100580002C10F2E132C01FF0030E1F1609E019C053
:10059000D9FF1AC0DAFF2D0EDF6E194A1A2A08D0C9
:1005A00032A006D019C0D9FF1AC0DAFF200EF4D746
:1005B000C00E1F6E080E206E32C021F033C022F034
:1005C0001F502116205022162250080A400ED8B47F
:1005D000211809E119C0D9FF1AC0DAFF300EDF6E09
:1005E000194A1A2AACD0C00E1F6E080E206E32C0F7
:1005F00021F033C022F01F50211620502216225025
:10060000080A800ED8B4211801E099D019C0D9FF8A
:100610001AC0DAFF300EDF6E194A1A2A32BA03D036
:10062000266A780E02D0266A580E256E19C0D9FFA8
:100630001AC0DAFF25C0DFFFD3D72B50020D250EDD
:10064000F324F66EFC0EF420F76EF86A000EF82222
:100650000900F5CF0FF00A00F5CF10F02EC00DF015
:100660002FC00EF088EC97F00DC014F00EC015F0FE
:10067000176A0A0E166E31EC98F014504DD02EC049
:100680000DF02FC00EF02B50020D370EF324F66E36
:10069000FC0EF420F76EF86A000EF8220900F5CF80
:1006A0000FF00A00F5CF10F088EC97F00D500F0B0B
:1006B000296E32BA04D0FF0E286E6D0E03D0FF0EE5
:1006C000286E5C0E276E295027241F6E000E2820EE
:1006D000206E1FC0F6FF20C0F7FF000EF86E080066
:1006E000F5CF31F025D02EC00DF02FC00EF02B50DD
:1006F000020D190EF324F66EFC0EF420F76EF86A64
:10070000000EF8220900F5CF0FF00A00F5CF10F027
:1007100088EC97F00D50070B300F316E09D0325036
:10072000C00B8BE0400ADFE0C00AA9E0400A85E088
:1007300019C0D9FF1AC0DAFF31C0DFFF51D72B062D
:100740002B28EDE132A615D02D50800A800F010E26
:10075000D8B42C5C0EE319C0D9FF1AC0DAFF200E02
:10076000DF6E194A1A2A2C06D8A02D062D502C10FF
:10077000F2E11BC0F6FF1CC0F7FF1B4A1C2A000E4B
:10078000F86E0800F5CF31F031663DD419C0D9FFBD
:100790001AC0DAFF000EDF6E000C020E0001D86FE7
:1007A000D76BD56B2DA402D0010E306E2DA602D0D2
:1007B0002D8E316A150E95EC99F00001D46FD4514D
:1007C0007F0B0E6E150EC1EC99F02D50030B376E9A
:1007D000370402E1030E04D02D50030B03E1010E98
:1007E0000001D56F20EE32F0DE525150DD1850C0BE
:1007F000E8FFD8B4DF1802E02DBE08D0050E0001D6
:10080000D36F2DBED58D010ED26F04D0070E00011F
:10081000D36FD26B3050020ED8B4080ED3272DAE52
:1008200005D03150020ED8B4080ED3272DBA2DB4FE
:1008300001D0D58B2D50030B030A07E1D56B070EB2
:10084000D36FD26B010E316E2D9A2DA616D0D5879F
:1008500035C017F034C016F0360E186EB9C019F056
:10086000BAC01AF0BBC01BF0BCC01CF0D5C01DF054
:100870004AEC8AF0050E0001D327020E0F6E0E6AB5
:10088000D3513624106E3AEC97F00001D74BD82B99
:10089000D7C00EF0D8C00FF0D5C010F03AEC97F0EA
:1008A0000001D74BD82B2D50030B030A16E1D7C0FC
:1008B0000EF0D8C00FF0800E106E3AEC97F00001E9
:1008C000D74BD82BD7C00EF0D8C00FF076C010F0A1
:1008D0003AEC97F00001762B85D0305019E031507A
:1008E00017E02DAE0CD0D7C00EF0D8C00FF0880E98
:1008F000106E3AEC97F00001D74BD82B3BD0D7C005
:100900000EF0D8C00FF0080E106E3AEC97F0F3D747
:1009100030500DE031660BD02DAEF1D7D7C00EF0C0
:10092000D8C00FF0C80E106E3AEC97F0E4D73066DE
:1009300016D0310414E12DAE09D0D7C00EF0D8C0C6
:100940000FF08C0E106E3AEC97F0D5D7D7C00EF0A2
:10095000D8C00FF00C0E106E3AEC97F0CCD72DAE3D
:10096000F5D7D7C00EF0D8C00FF0CC0E106E3AEC11
:1009700097F0C1D7D7C00EF0D8C00FF076C010F0F6
:100980003AEC97F00001762BD74BD82BD7C00EF05E
:10099000D8C00FF032C010F03AEC97F00001D74BFE
:1009A000D82BD7C00EF0D8C00FF033C010F03AECFF
:1009B00097F00001D74BD82B2DA417D0D7C00EF03D
:1009C000D8C00FF0FF0E10683AEC97F00001D74B3B
:1009D000D82BD7C00EF0D8C00FF0FF0E10683AEC3D
:1009E00097F022D0D74BD82B39D030501FE0D7C04A
:1009F0000EF0D8C00FF02EC0D9FF2FC0DAFFDF50A5
:100A0000106E3AEC97F00001D74BD82BD7C00EF000
:100A1000D8C00FF020EE01F02E50D9262F50DA2248
:100A2000DF50106E3AEC97F00001DCD7D66B070E62
:100A3000D66501D013D0D7C00EF0D8C00FF0D65174
:100A40002E24D96E000E2F20DA6EDF50106E3AEC95
:100A500097F00001D74BD82BD62BE9D7D26718D007
:100A60002DAE16D0D7C00EF0D8C00FF050C010F089
:100A70003AEC97F00001D74BD82BD7C00EF0D8C076
:100A80000FF051C010F03AEC97F00001D74BD82B83
:100A90002DAE2FD0315017E0D7C00EF0D8C00FF0D8
:100AA000BDC010F03AEC97F00001D74BD82BD7C05F
:100AB0000EF0D8C00FF0BEC010F03AEC97F0000175
:100AC000D74BD82B16D0D66B070ED66501D011D0D8
:100AD000D7C00EF0D8C00FF07351D625D96EDA6AA0
:100AE000DF50106E3AEC97F00001D74BD82BD62B85
:100AF000EBD72DA637D0D66B030ED66501D011D01B
:100B0000D7C00EF0D8C00FF0D651B90FD96EDA6A3F
:100B1000DF50106E3AEC97F00001D74BD82BD62B54
:100B2000EBD7B92B000EBA23BB23BC23B9670FD078
:100B3000BAC037F0030E37160AE1C7C00EF0C8C0BE
:100B40000FF0116A040E106EB90EEBEC93F0D7C0E3
:100B50000EF0D8C00FF0000E106A3AEC97F00001CA
:100B6000D74BD82BD7C00EF0D8C00FF035C011F03E
:100B700034C010F036C012F0A2EC95F0300E0E6EBC
:100B8000140EC1EC99F04D6A150E95EC99F0000128
:100B9000D46FD45180090E6E150EC1EC99F0120E6F
:100BA00095EC99F00001D46FD45188090E6E120EA5
:100BB000C1EC99F0ADEC97F00DC0CAF00EC0CBF0CF
:100BC0000FC0CCF010C0CDF028D081A6F084ADECE1
:100BD00097F00DC0CEF00EC0CFF00FC0D0F010C017
:100BE000D1F00001CA51CE5D376ECB51CF59386E6E
:100BF000CC51D059396ECD51D1593A6E0A0E375C6D
:100C00003D0E3858000E3958000E3A5806E3030ED0
:100C10000E6E120EC1EC99F0000C4DAE4DB802D024
:100C20004DA6D3D7030E0E6E120EC1EC99F04DA84F
:100C30004DB6000C010C000179A32BD0ADEC97F060
:100C40000DC0E2F00EC0E3F00FC0E4F010C0E5F01C
:100C500000016E51E25D426E6F51E359436E705177
:100C6000E459446E7151E559456EB50E425CC40EAF
:100C70004358040E4458000E45580BE3799352C074
:100C80000EF053C00FF0116A320E106E7C0EEBECBA
:100C900093F0000179B7120066EC88F00009D8B42F
:100CA00012000001606BAEA503D0426A422A01D057
:100CB000426A60514218FC0B4218606FAEA702D026
:100CC000608702D000016097AE51030B426E420470
:100CD000010ED8A4000E436E433A434660514318B8
:100CE000DF0B4318606FAEAF02D0608D02D0000101
:100CF000609DAEAF04D0B0C064F0AFC063F0B7C0C9
:100D000061F0B8C062F0B3C067F0B2C066F0B1C0C5
:100D100065F0B5C069F0B4C068F060BBB8D1CBD1A4
:100D200020EE01F06551D9266651DA22DF50C9194B
:100D300003E00DEC9BF0C0D1FE51030AFAE06129FB
:100D4000D8B4622911E020EE61F0DE52C051DD1806
:100D5000BFC0E8FFD8B4DF1807E020EE67F0020E4E
:100D6000DF6402D0F20E02D02BEC92F0E86FFE05A9
:100D700007E1E80505E0E851020A02E0F30EE86F3A
:100D80007B6B5D0E00017B25D96EDA6A010EDA22DB
:100D9000910EDF6E7B2B5D0E7B25D96EDA6A010E1C
:100DA000DA22E8C0DFFF7B2BE85102E0E8051CE116
:100DB0005D0E00017B25D96EDA6A010EDA2278C059
:100DC000DFFF7B2BE96BE951F40FD96EDA6A5D0E18
:100DD00000017B25E16EE26A010EE222DFCFE7FF30
:100DE0007B2BE92BE951EFE00DEC9BF061C03BF070
:100DF00062C03CF0000164C03EF063C03DF0010EF3
:100E00003F6E000E60B7010E406E000E94EC93F042
:100E1000E86752D177510A0D5250F3240E6E5350A9
:100E2000F4200F6E116A0A0E106E77510A0DF350FE
:100E30007C0FEBEC93F040D1020EFE6501D079D728
:100E400020EE01F06551D9266651DA22DF50C9192A
:100E500001E06FD77B6B5D0E00017B25D96EDA6AEE
:100E6000010EDA22970EDF6E7B2B5D0E7B25D96E8D
:100E7000DA6A010EDA2278C0DFFF7B2BE96BE951D9
:100E8000F40FD96EDA6A5D0E00017B25E16EE26A2D
:100E9000010EE222DFCFE7FF7B2BE92BE951EFE0E8
:100EA0000DEC9BF061C03BF062C03CF0000164C0FF
:100EB0003EF063C03DF0010E3F6E000E60B7010EC4
:100EC000406E000E94EC93F0F7D07B6B5D0E00014A
:100ED0007B25D96EDA6A010EDA22920EDF6E7B2B49
:100EE000E96BE9510A0DF350840FD96EDA6ADFAE6F
:100EF00033D064C00EF063C00DF0E9510A0DF35019
:100F00007C0F426E106A42C00FF00DEC99F00009A0
:100F100023E0E9510A0DF350840FD96EDA6ADF6AD3
:100F2000E9510A0D5250F3240E6E5350F4200F6E07
:100F3000116A0A0E106EE9510A0DF3507C0FEBECAA
:100F400093F05D0E00017B25D96EDA6A010EDA227C
:100F5000000EDF6A7B2B04D0E92B040EE965C1D7B4
:100F60000DEC9BF00001E951050A09E15D0E7B25BE
:100F7000D96EDA6A010EDA22F00EDF6E7B2B61C0C9
:100F80003BF062C03CF064C03EF063C03DF0010E37
:100F90003F6E000E60B7010E406E000E94EC93F0B1
:100FA0008BD0BF29D8B4C02916E161C0BFF062C0A0
:100FB000C0F0E669E769BF0E116EE60E97EC96F099
:100FC000C5C00EF0C6C00FF0116A020E106E00010F
:100FD000BF0EEBEC93F02BEC92F07983ADEC97F035
:100FE0000DC06EF00EC06FF00FC070F010C071F049
:100FF000A0D620EE01F06551D9266651DA22DF50E5
:10100000D0E0010ACEE095D679BB799B92D620EE4E
:1010100001F06551D9266651DA22DF5001E089D608
:10102000E96BE9510A0DF350840FD96EDA6ADFAE2D
:1010300029D064C00EF063C00DF0E9510A0DF350E1
:101040007C0F426E106A42C00FF00DEC99F000095F
:1010500019E0E9510A0DF350840FD96EDA6ADF6A9C
:10106000E9510A0D5250F3240E6E5350F4200F6EC6
:10107000116A0A0E106EE9510A0DF3507C0FEBEC69
:1010800093F057D6E92B040EE965CBD752D665C04D
:10109000D9FF66C0DAFFDF50810A01E141D6030AB9
:1010A00001E113D7050A01E1C7D6160AA2E0030A37
:1010B000AEE0050AA9E0798700016751D8A479B9A3
:1010C00002D079AB120079970DEF9BF081A6F084E6
:1010D00049A249A421D049B01FD0030E0F6E000EC3
:1010E0000E6A13EC97F0020F0101146F490E145DA4
:1010F0000DE24980030E0F6E010E0E6E010E116E91
:10110000150E106E14C112F0D5EC95F0440E0E6E53
:10111000160EC1EC99F0499449A0000C010E356EF1
:10112000010115AD356A0001AE6BB66B01011651B8
:10113000CC0B346ED7D01A2904E11B2902E100013F
:10114000AE850001AE8F355011E018C1B7F019C15E
:10115000B8F0010EB06F1C0EAF6F01011451ED0F0E
:101160000001B36F010EB26F240E8CD01CC1B7F01A
:101170001DC1B8F0010E0001B06F1E0EAF6F01016E
:101180001451EB0F0001B36F010EB26F260E7AD02F
:101190000001AE8F355011E018C1B7F019C1B8F099
:1011A000010EB06F220EAF6F01011451E70F000165
:1011B000B36F010EB26F2A0E65D022C1B7F023C102
:1011C000B8F0010E0001B06F240EAF6F0101145191
:1011D000E50F0001B36F010EB26F2C0E53D000016A
:1011E000AE85AE8F010EB66F18C1B7F019C1B8F059
:1011F000010EB06F1A0EAF6F01011451F50F00010F
:10120000B36F010EB26F1C0E3DD01A2904E11B29E9
:1012100002E10001AE850001AE8F010EB66F3566AA
:1012200011D01CC1B7F01DC1B8F0010EB06F1E0E79
:10123000AF6F01011451F10F0001B36F010EB26FD6
:10124000200E20D018C1B7F019C1B8F0010E00016E
:10125000B06F1C0EAF6F01011451F30F0001B36F9B
:10126000010EB26F1E0E0ED01A29C6E11B29C4E171
:101270000001AE85C1D71451EF0F0001B36F010E0D
:10128000B26F220E0001B16F40D0355012E018C18C
:10129000B7F019C1B8F0010E0001B06F220EAF6FA8
:1012A00001011451ED0F0001B36F010EB26F240E56
:1012B00011D022C1B7F023C1B8F0010E0001B06F08
:1012C000240EAF6F01011451EB0F0001B36F010E3B
:1012D000B26F260E0001B16F010EB66F16D00DEC85
:1012E0009BF0000C3450080ABFE0040AC4E08C0AEA
:1012F00001E175D7080A89E0040AC7E0440A01E160
:101300001AD7040A01E144D7EAD7010115A79ED0F4
:10131000C00E345CE4E3B1C0D9FFB2C0DAFFDF50E5
:10132000376E000120EE01F0B151D926B251DA2218
:10133000DF50386E20EE02F0B151D926B251DA22D8
:10134000DF50396E20EE03F0B151D926B251DA22C6
:10135000DF503A6E366A36500A0DF350840FD96E5C
:10136000DA6ADFAE10D036500A0DF3507C0F306EC3
:101370000E6A30C00DF0B0C010F0AFC00FF00DEC31
:1013800099F0000904E1362A040E3664E4D7050E0C
:10139000365C2AE23650040D0101000EF324D96EAA
:1013A000010EF420DA6EDECF30F0DECF31F0DECF8A
:1013B00032F0DECF33F03050375C31503858325095
:1013C000395833503A588BE33650040D000EF3244D
:1013D000D96E010EF420DA6E37C0DEFF38C0DEFFB2
:1013E00039C0DEFF3AC0DEFF050E0001B35FB12554
:1013F000166E000EB221176EB30E186EB0C01AF042
:10140000AFC019F037C01BF038C01CF039C01DF058
:101410003AC01EF015C11FF013EC8CF0000901E179
:101420005ED7050E0001B127000EB223AE870ED0A5
:10143000FC0E0001AE1719D00001AE51FC0B0109E2
:10144000AE6F13D0030E0001AE130FD00101155182
:10145000070B306E316A315001E041D73050F2E075
:10146000010AE6E0020AE8E03AD70101130E14256A
:10147000D96EDA6A010EDA22DF500001B56F010180
:10148000140E1425D96EDA6A010EDA22DF5000013B
:10149000B46F010C150E95EC99F02B6E2B507F0B51
:1014A0000E6E150EC1EC99F0110E95EC99F02B6EA5
:1014B0002B50F00B05090E6E110EC1EC99F0000EC9
:1014C000F0BA010E2A6EF09A8B94C00EB2EC9AF02C
:1014D000100EB2EC9AF01850D96EDA6ADF500D0F88
:1014E000B2EC9AF01D50B2EC9AF01950B2EC9AF0AE
:1014F0001A50B2EC9AF01B50B2EC9AF01C50B2ECBD
:101500009AF02C6A000173512C24D96EDA6ADF50EC
:10151000B2EC9AF02C2A070E2C64F4D72C6A0AD06D
:101520002C501624D96E000E1720DA6EDF50B2EC64
:101530009AF02C2A1850D96EDA6ADF502C5CF0E34E
:101540008B842AB002D0F09A01D0F08A000EF0BA53
:10155000010E2A6EF09A8B948A0EB2EC9AF0100E5D
:10156000B2EC9AF0340EF66EFC0EF76E000EF86ECA
:101570000800F550B2EC9AF01C50B2EC9AF01B50F7
:10158000B2EC9AF01A50B2EC9AF01950B2EC9AF010
:1015900000017351D96EDA6A070ED926DF50B2EC1A
:1015A0009AF000017351D96EDA6A060ED926DF501F
:1015B000B2EC9AF000017351D96EDA6A050ED926A1
:1015C000DF50B2EC9AF000017351D96EDA6A040E62
:1015D000D926DF50B2EC9AF000017351D96EDA6A65
:1015E000030ED926DF50B2EC9AF000017351D96E88
:1015F000DA6A020ED926DF50B2EC9AF0000173517C
:10160000D96EDA6AD92ADF50B2EC9AF00001735130
:10161000D96EDA6ADF50B2EC9AF08B842AB002D02D
:10162000F09A01D0F08A000EF0BA010E2A6EF09AFC
:101630008B94880EB2EC9AF0100EB2EC9AF02C6AF1
:101640000F0E1E6E1F6A2C501E5E000E1F5A090ED2
:101650001E24F66EFC0E1F20F76EF86A000EF822AC
:101660000800F550B2EC9AF02C2A0F0E2C64E8D743
:101670008B842AB002D0F09A01D0F08A010E0E6E4F
:101680002B0EC1EC99F00E0E0E6E2C0EC1EC99F0E3
:101690001850D96EDA6ADF500D0F0E6E2D0EC1ECA8
:1016A00099F04D6A120E95EC99F02B6E2B50200993
:1016B0000E6E120EC1EC99F0ADEC97F00DC022F059
:1016C0000EC023F00FC024F010C025F021D081A659
:1016D000F084ADEC97F00DC026F00EC027F00FC0DF
:1016E00028F010C029F02250265C1E6E2350275887
:1016F0001F6E24502858206E25502958216E6B0EDD
:101700001E5C180E1F58000E2058000E215802E2D1
:101710004D50DDE0100E95EC99F02B6E2B50FE0B2A
:101720000E6E100EC1EC99F0110E95EC99F02B6E27
:101730002B50F00B0E6E110EC1EC99F0000EF0BAAA
:10174000010E2A6EF09A8B94C10EB2EC9AF0C00E84
:10175000B2EC9AF02C6A0AD02C501624D96E000EE6
:101760001720DA6EFBEC9AF0DF6E2C2A1850D96E37
:10177000DA6ADF502C5CF0E31850D96EDA6ADF5079
:101780001E6E1E501624D96E000E1720DA6EFBEC6A
:101790009AF0DF6E1850D96EDA6ADF5016241E6E8A
:1017A000000E17201F6E1E28D96E000E1F20DA6E45
:1017B000FBEC9AF0DF6E1850D96EDA6ADF5016240F
:1017C0001E6E000E17201F6E020E1E24D96E000E14
:1017D0001F20DA6EFBEC9AF0DF6E1850D96EDA6AD1
:1017E000DF5016241E6E000E17201F6E030E1E24DF
:1017F000D96E000E1F20DA6EFBEC9AF0DF6E8B8440
:101800002AB002D0F09A01D0F08A1850D96EDA6A64
:10181000040EDF26080E0E6E010EC1EC99F00E6A62
:10182000010EC1EF99F0150E95EC99F02E6E2E5029
:101830007F0B0E6E150EC1EC99F0110E95EC99F020
:101840002E6E2E50F00B05090E6E110EC1EC99F0A4
:10185000000EF0BA010E2D6EF09A8B94E00EB2ECF1
:101860009AF0100EB2EC9AF01850D96EDA6ADF5086
:101870000F0FB2EC9AF0000EB2EC9AF0000EB2EC40
:101880009AF01F50B2EC9AF01B50B2EC9AF01C5038
:10189000B2EC9AF01D50B2EC9AF01E50B2EC9AF0F5
:1018A0002F6A2F501924D96E000E1A20DA6EDF50DD
:1018B000B2EC9AF02F2A070E2F64F3D72F6A0AD0C2
:1018C0002F501624D96E000E1720DA6EDF50B2ECBE
:1018D0009AF02F2A1850D96EDA6ADF502F5CF0E3A5
:1018E0008B842DB002D0F09A01D0F08A000EF0BAAD
:1018F000010E2D6EF09A8B948A0EB2EC9AF0100EB7
:10190000B2EC9AF0340EF66EFC0EF76E000EF86E26
:101910000800F550B2EC9AF01E50B2EC9AF01D504F
:10192000B2EC9AF01C50B2EC9AF01B50B2EC9AF068
:1019300020EE07F01950D9261A50DA22DF50B2EC07
:101940009AF020EE06F01950D9261A50DA22DF500C
:10195000B2EC9AF020EE05F01950D9261A50DA228E
:10196000DF50B2EC9AF020EE04F01950D9261A504C
:10197000DA22DF50B2EC9AF020EE03F01950D926AB
:101980001A50DA22DF50B2EC9AF020EE02F0195031
:10199000D9261A50DA22DF50B2EC9AF020EE01F08C
:1019A0001950D9261A50DA22DF50B2EC9AF019C039
:1019B000D9FF1AC0DAFFDF50B2EC9AF08B842DB059
:1019C00002D0F09A01D0F08A000EF0BA010E2D6E0E
:1019D000F09A8B94880EB2EC9AF0100EB2EC9AF05A
:1019E0002F6A0F0E206E216A2F50205E000E215AA2
:1019F000090E2024F66EFC0E2120F76EF86A000E08
:101A0000F8220800F550B2EC9AF02F2A0F0E2F643E
:101A1000E8D78B842DB002D0F09A01D0F08A030E63
:101A20000E6E2B0EC1EC99F0100E0E6E2C0EC1EC4A
:101A300099F01850D96EDA6ADF500F0F0E6E2D0E26
:101A4000C1EC99F04E6A150E95EC99F02E6E2E5061
:101A5000A0090E6E150EC1EC99F0180E95EC99F0D8
:101A60000E6A180EC1EC99F02E0E95EC99F02E6EC0
:101A70002E5010090E6E2E0EC1EC99F0ADEC97F0C1
:101A80000DC024F00EC025F00FC026F010C027F0C6
:101A90002AD081A6F084ADEC97F00DC028F00EC0DE
:101AA00029F00FC02AF010C02BF02450285C206EC3
:101AB00025502958216E26502A58226E27502B581F
:101AC000236E360E205C0C0E2158000E2258000E9C
:101AD000235809E3080E0E6E010EC1EC99F00E6A50
:101AE000010EC1EC99F04EBC02D04EAAD2D7450EE1
:101AF0000E6E180EC1EC99F0030E0F6E000E0E6AFA
:101B000013EC97F0206E20282C6E100E2F6E16D03E
:101B10002F501624206E000E1720216EF00E202468
:101B2000D96EFF0E2120DA6E000E2F240E6E0F6A82
:101B3000030E0F2213EC97F0DF6E2F2A2C502F5C30
:101B4000E7E3100E95EC99F02E6E2E50FE0B0E6E04
:101B5000100EC1EC99F0110E95EC99F02E6E2E50EE
:101B6000F00B0E6E110EC1EC99F01850D96EDA6AB6
:101B7000040EDF5E4EAA0AD0080E0E6E010EC1ECF6
:101B800099F00E6A010EC1EC99F0000C080E0E6E71
:101B9000010EC1EC99F00E6A010EC1EC99F0010C36
:101BA0008A9A020E1C6E1D6A1E6A1F6A18D0820E67
:101BB000146E060E156E166A176A1406000E155A74
:101BC000165A175A1428D8B41528D8B41628D8B4D9
:101BD0001728F3E11C06000E1D5A1E5A1F5A1F50EB
:101BE0001C101D101E10E3E18A8A140E206E216A5B
:101BF000226A236A18D0820E186E060E196E1A6AAF
:101C00001B6A1806000E195A1A5A1B5A1828D8B4FB
:101C10001928D8B41A28D8B41B28F3E12006000EDE
:101C2000215A225A235A2350201021102210E3E176
:101C3000220E0E6E080EC1EC99F0D80E0E6E090E33
:101C4000C1EC99F0E00E0E6E0A0EC1EC99F00E6A2E
:101C50000B0EC1EC99F00F6A0E685A0E106E3AEC3A
:101C600097F0040E0E6E100EC1EC99F00E6A110E74
:101C7000C1EC99F0030E0E6E120EC1EC99F00C0E31
:101C80000E6E130EC1EC99F0300E0E6E140EC1ECF8
:101C900099F0180E0E6E150EC1EC99F0440E0E6EF2
:101CA000160EC1EC99F0360E0E6E170EC1EC99F0BF
:101CB000450E0E6E180EC1EC99F0900E0E6E190EB8
:101CC000C1EC99F0530E0E6E1A0EC1EC99F0140E81
:101CD0000E6E1B0EC1EC99F0246A0001735124248E
:101CE000D96EDA6ADF500E6E24501F0FC1EC99F0E6
:101CF000242A070E2464F1D70E68270EC1EC99F050
:101D00000E68280EC1EC99F00E68290EC1EC99F00E
:101D10000E682A0EC1EC99F0260E0E6E2F0EC1EC45
:101D200099F0090E0E6E300EC1EC99F0E60E0E6EB3
:101D3000360EC1EC99F0A80E0E6E370EC1EC99F07C
:101D40000F6AB70E0E6EC00E106E3AEC97F01F0EB3
:101D50000E6E3A0EC1EC99F0200E0E6E380EC1ECEC
:101D600099F0240E0E6E3D0EC1EC99F0220E0E6E0F
:101D70003E0EC1EC99F00F6A800E0E6E870E106E4B
:101D80003AEC97F00F6A810E0E6E840E106E3AECEC
:101D900097F00F6A820E0E6E8A0E106E3AEC97F074
:101DA0000F6A830E0E6E5E0E106E3AEC97F00F6A9D
:101DB000840E0E6EA50E106E3AEC97F00F6A8A0E26
:101DC0000E6E2B0E106E3AEC97F00F6A8B0E0E6EA5
:101DD000300E106E3AEC97F00F6A8C0E0E6E300ECD
:101DE000106E3AEC97F00F6A970E0E6ED00E106ED2
:101DF0003AEC97F00F6AA30E0E6E3F0E106E3AEC9F
:101E000097F00F6AA50E0E6E1C0E106E3AEC97F04E
:101E10000F6AAA0E0E6E540E106E3AEC97F00F6A0F
:101E2000AB0E0E6EB00E106E3AEC97F0980E0E6E72
:101E3000150EC1EC99F00E6A030EC1EF99F0196E00
:101E4000050E19642BD0FF0E0F6E490E0E6E4BEC73
:101E50009AF01B6A1B500001FD08D96EDA6ADF5048
:101E600050EC98F01B2A070E1B64F4D7FF0E0F6E80
:101E7000CA0E0E6E4BEC9AF00001C05150EC98F077
:101E80000001BF5150EC98F0FF0E0F6EBE0E0E6EAB
:101E90004BEC9AF00001C951F7EC94F0050E195C77
:101EA0004FE2FD0E0F6EBB0E0E6E4BEC9AF019500A
:101EB0000A0DF3500001840FD96EDA6ADFAE12000A
:101EC000195050EC98F0FF0E0F6EB00E0E6E4BECEA
:101ED0009AF01B6A080E1B5C0EE219500A0DF350B3
:101EE0000001830F186E1B50185CD96EDA6ADF5040
:101EF00050EC98F006D0FF0E0F6EBB0E0E6E4BEC42
:101F00009AF01B2A070E1B64E5D7FF0E0F6EB90E61
:101F10000E6E4BEC9AF01B6A19500A0DF35000013B
:101F2000850F1B24D96EDA6ADF5050EC98F01B2A1B
:101F30001B50F2E0FF0E0F6EFB0E0E6E4FEF9AF08D
:101F4000FD0E0F6EB90E0E6E4BEC9AF01B6A1B5015
:101F50000A0DF3500001840FD96EDA6ADFAE40D06B
:101F60001B5050EC98F0FF0E0F6EB00E0E6E4BEC47
:101F70009AF01A6A080E1A5C0EE21B500A0DF35012
:101F80000001830F186E1A50185CD96EDA6ADF50A0
:101F900050EC98F006D0FF0E0F6EBB0E0E6E4BECA1
:101FA0009AF01A2A070E1A64E5D7FF0E0F6EB90EC3
:101FB0000E6E4BEC9AF01A6A1B500A0DF35000019A
:101FC000850F1A24D96EDA6ADF5050EC98F01A2A7D
:101FD0001A50F2E0FF0E0F6EFB0E0E6E4BEC9AF0F5
:101FE0001B2A040E1B64B3D7040C0001EF6BF06BCB
:101FF000F26BF16BECEC96F0CAEC9AF07AEC94F0A0
:102000008C9E8C9C000EBFEC90F0190E7FEC99F02A
:10201000000905E1190E5DEC9AF06FEF00F0000E7B
:10202000A5EC98F0396A190E39EC96F0466AFF0E65
:1020300087EC91F00001F36FF32906E0010E396E91
:10204000190E39EC96F009D00A0E136E000E146AC0
:10205000156A166A176A12EC9AF0FF0E1FEC8FF0E1
:102060008C8E11EC9BF0E3EC9AF000090CE02DEC67
:1020700093F0F12BF1C036F0F251E9EC9AF08C7C40
:1020800009EC9BF0F0D736EC94F00001EE6F71D0C4
:102090007B6BF36B060E0D6EEF5138EC9AF0150D5D
:1020A000490E476EFB0E486EF3504726F450482207
:1020B0000001F3514726000E482247C0F6FF48C0F2
:1020C000F7FF000EF86E5D0E7B25D96EDA6A010E01
:1020D000DA220800F5CFDFFF7B2BF32B140EF3651C
:1020E000D9D7EF2B000EA5EC9AF0F1C036F0F22B09
:1020F0000001F251E9EC9AF0B6D77B6BF36B060E58
:102100000D6EF05138EC9AF00B0DC70E476EFB0EBA
:10211000486EF3504726F45048220001F3514726F9
:10212000000E482247C0F6FF48C0F7FF000EF86EC9
:102130005D0E7B25D96EDA6A010EDA220800F5CF32
:10214000DFFF7B2BF32B0A0EF365D9D7F02B010EA3
:10215000E46F000EFFEC99F0000903E16DEC9AF0DA
:1021600001D0F22BF1C036F00001F251E9EC9AF007
:102170007AD7EE51010A8CE0030ABFE074D7296ECA
:1021800069EC96F0796B2C6A2C500A0DF350840F91
:10219000D96EDA6ADF6A2C2A040E2C64F5D7DBECE0
:1021A0009AF07B6B2C6A2C50040D000EF324D96E30
:1021B000010EF420DA6EDE6ADE6ADE6ADD6A2C2A3F
:1021C000040E2C64F0D7295049E0C3C00EF0C4C0FF
:1021D0000FF0116A010E106E0001C90EC2EC96F0EC
:1021E0001F0E0001C96501D01F0CC5C00EF0C6C08E
:1021F0000FF0116A020E106EBF0EC2EC96F0C1C055
:102200000EF0C2C00FF0116A010E106E0001FE0E3A
:10221000C2EC96F052C00EF053C00FF0116A320EAD
:10222000106E00017C0EC2EC96F0FF0E0F6EE90EF0
:102230000E6E4BEC9AF00001C05150EC98F000018A
:10224000BF5150EC98F0FF0E0F6ED60E0E6E4BEC99
:102250009AF00001C95150EC98F030D0120E0001F4
:10226000C06F340EBF6FC5C00EF0C6C00FF0116A4C
:10227000020E106EBF0EEBEC93F0C3C00EF0C4C0A4
:102280000FF0116A010E106E0001C90EEBEC93F015
:10229000C1C00EF0C2C00FF0116A010E106E000135
:1022A000FE0EEBEC93F052C00EF053C00FF0116A2B
:1022B000320E106E00017C0EEBEC93F00001F60E76
:1022C0002B6E2A822A50870B40092A6E29B002D031
:1022D0002A9401D02A842A902AC025F02BC026F007
:1022E00098EC9AF0276828680001BF0E116E270E3F
:1022F00097EC96F00001C9517FEC99F00001786BE2
:1023000078817887FE39F00B7813F08A1200FEC0CE
:10231000B6F1030E0101B76FBC6B460401E1FF0C7F
:10232000ADEC97F00DC0B8F10EC0B9F10FC0BAF125
:1023300010C0BBF1B40E0101B85FC40EB95B040E4E
:10234000BA5B000EBB5B0001FE6B79897DD0ADEC02
:1023500097F00DC0BDF10EC0BEF10FC0BFF110C0AF
:10236000C0F10101B851BD5D0001EA6F0101B95131
:10237000BE590001EB6F0101BA51BF590001EC6F6A
:102380000101BB51C0590001ED6FB50EEA5DC40EED
:10239000EB59040EEC59000EED5950E3BDC1B8F1F4
:1023A000BEC1B9F1BFC1BAF1C0C1BBF10101BC07E7
:1023B000BC294AE1010EBC6FB707B72903E1000150
:1023C0007999FF0C00017B6B5D0E7B25D96EDA6A73
:1023D000010EDA22810EDF6E7B2B5D0E7B25D96E1E
:1023E000DA6A010EDA22C9C0DFFF7B2B5D0E7B2586
:1023F000D96EDA6A010EDA2278C0DFFF7B2B010189
:10240000C16BC151F40FD96EDA6A5D0E00017B25F4
:10241000E16EE26A010EE222DFCFE7FF7B2B0101D2
:10242000C12BC151EEE0BFC03BF0C0C03CF03E6AE2
:102430003D6A010E3F6E406A94EC93F0E3EC9AF033
:102440000009D8A409EC9BF0000179B980D7B6C186
:10245000FEF077511200156A1668176A17500A0DB8
:10246000F3500001840FD96EDA6ADFAE15D064C074
:102470000EF063C00DF017500A0DF3507C0F136E71
:10248000106A13C00FF00DEC99F0000909E017C0B5
:1024900016F0010E156E08D01628D8B417C016F025
:1024A000172A040E1764DAD7162801E1F10CFE5141
:1024B00002E015501200176A17506325D96E000EFE
:1024C0006421DA6E16500A0DF3507C0F1724E16E6A
:1024D000E26ADFCFE7FF172A070E1764EDD7165021
:1024E0000A0DF350840FD96EDA6ADF8E20EE02F007
:1024F0006551D9266651DA22DF50136E010E13168C
:1025000016500A0DF350840FD96EDA6ADF50131893
:10251000FE0B1318DF6E176A17506525136E000E39
:102520006621146E030E1324D96E000E1420DA6E89
:1025300016500A0DF350850F1724E16EE26ADFCFC3
:10254000E7FF172A1750E8E01650040D000EF32499
:10255000D96E010EF420DA6EDE6ADE6ADE6ADD6AAA
:1025600016C077F000017999A4D7C40E0F6E090E3A
:10257000106E116A126A0D50136E0E50146E156AA9
:10258000166A13500F02F3CF17F0F4CF18F0196A40
:102590001A6A1002F3501826F4501922000E1A225B
:1025A00014500F02F3501826F4501922000E1A226C
:1025B00013501102F3501926F4501A22145010022D
:1025C000F3501926F4501A2215500F02F350192611
:1025D000F4501A2212501302F3501A26145011020A
:1025E000F3501A2615501002F3501A2616500F02F7
:1025F000F3501A2617C01BF018C01CF019C01DF0AC
:102600001AC01EF0560E1B26FF0E1C221D221E2273
:102610001E50800A800F08E1000E1D5C05E1000ECF
:102620001C5C02E1C40E1B5CD8A0120007D000F0B5
:10263000D90E1B26FF0E1C221D221E221E50800AB0
:10264000800F08E1000E1D5C05E1000E1C5C02E13C
:10265000010E1B5CD8A01200EAD760A706D0FF0EBF
:102660000F6EE00E0E6E4BEC9AF000016051030B02
:1026700007E0FE0E0F6ED10E0E6E4BEC9AF006D0F8
:10268000FE0E0F6EED0E0E6E4BEC9AF000016851CF
:1026900050EC98F0000160AD2FD0FF0E0F6EF20EDF
:1026A0000E6E4BEC9AF0000160AF11D020EE01F0FD
:1026B0006351D9266451DA22DF5050EC98F063C0A0
:1026C000D9FF64C0DAFFDF5050EC98F015D0136AE0
:1026D00013500001635D116E000E6459126E070EF7
:1026E0001124D96E000E1220DA6EDF5050EC98F0F3
:1026F000132A070E1364ECD7FF0E0F6EC70E0E6E73
:102700004BEC9AF0136A0AD013506525D96E000E6F
:102710006621DA6EDF50EFEC9AF0132A0001675160
:10272000135CD8B01200F0D70001DA6FDB6B000E3B
:10273000F36A3F62F32AF3CF41F0DB514118FC0BFF
:102740004118DB6FDA51010ED8A4000E416E413AF8
:102750004146DB514118DF0B4118DB6FDAB102D083
:10276000DB9502D00001DB8540B002D0DB9702D0C0
:102770000001DB87DF6B000EF36ADA63F32AF3CF25
:1027800041F04150DE6FDB9DDB51030B416E410494
:1027900002E1DB8F01D0DB9F3EC0DDF03DC0DCF00D
:1027A0003BC0E0F03CC0E1F020EEDBF010EE2DF09D
:1027B000070EDECFE6FFE82EFCD70101010E356ED5
:1027C0005D0E346E7BC036F0CDEC83F00001D96F26
:1027D0007B6BD9511200176E000EF0BA010E156E08
:1027E000F09A8996050EB2EC9AF0FBEC9AF0166E10
:1027F00089860FEC9BF016B0F4D78996060EB2ECE2
:102800009AF089860FEC9BF08996020EB2EC9AF052
:102810000FC012F012C013F0146A1350B2EC9AF009
:102820000E50B2EC9AF0166A17D01750D96EDA6AC9
:10283000DF50B2EC9AF0172A1006D8A01106162A1B
:1028400016500E24126E3F0E121606E1898616509F
:102850000E26000E0F22C5D711501010E6E1898612
:1028600015B002D0F09A01D0F08A120081B00FD0DA
:102870007A67000C010E7A6FADEC97F00DC06AF02C
:102880000EC06BF00FC06CF010C06DF0010C80BA80
:102890000FD07A67000C010E7A6FADEC97F00DC087
:1028A0006AF00EC06BF00FC06CF010C06DF0020C3F
:1028B000ADEC97F00DC01AF00EC01BF00FC01CF06D
:1028C00010C01DF000016A511A5C166E6B511B5846
:1028D000176E6C511C58186E6D511D58196E000EF4
:1028E000165C400E1758000E1858000E1958D8B034
:1028F0007A6B000CFE0E356E390E346E366A010EA0
:10290000376EF2EC97F0FD0E0F6E7D0E0E6E4BECF7
:102910009AF0FE0E0F6E580E0E6E4BEC9AF0FF0EF4
:102920000F6E1F0E0E6E4BEC9AF0FC0E0F6EC30E68
:102930000E6E4BEC9AF0FD0E0F6E030E0E6E4BEC0E
:102940009AF0FC0E0F6E810E0E6E4BEC9AF0FC0EA0
:102950000F6E3F0E0E6E4BEC9AF0FD0E0F6E410E99
:102960000E6E4BEC9AF0FF0E0F6EF90E0E6E4FEFDF
:102970009AF0800E6DEC98F0206A0101850E2024FB
:10298000D96EDA6A010EDA22DF5004E1200E89ECFA
:1029900098F009D0850E2024D96EDA6A010EDA2269
:1029A000DF5089EC98F0202A0F0E2064E6D7C00E85
:1029B0006DEC98F0100E206E0101850E2024D96E6A
:1029C000DA6A010EDA22DF5004E1200E89EC98F079
:1029D00009D0850E2024D96EDA6A010EDA22DF5082
:1029E00089EC98F0202A1F0E2064E6D71F0C176E82
:1029F000630E176411D0640E116E1750DAEC98F064
:102A0000156E166A0101A60E1524D96E010E162048
:102A1000DA6EDF50EFEC9AF0090E176415D00A0E4B
:102A2000116E640E0D6E175038EC9AF0DAEC98F0D7
:102A3000156E166A0101A60E1524D96E010E162018
:102A4000DA6EDF50EFEC9AF00A0E0D6E175038EC8C
:102A50009AF0156E166A0101A60E1524D96E010EA4
:102A60001620DA6EDF50EFEF9AF0929489840E6AA6
:102A70000A0E0D6EB5EC92F0979C8E9C0E6A0A0EB3
:102A80000D6EB5EC92F08E8C05EC9BF069EC99F034
:102A900053EC99F0000E3CEC99F00E6A0A0E0D6EA4
:102AA000B5EC92F03C0EF4EC98F00E6A0A0E0D6E46
:102AB000B5EC92F00C0EF4EC98F00E6A0A0E0D6E66
:102AC000B5EC92F0010EF4EC98F00E6A0A0E0D6E61
:102AD000B5EC92F00C0EF4EF98F001EE00F0A60EBB
:102AE000EE6AE806FDE100EE60F06A0EEE6AE806C6
:102AF000FDE100EE49F00B0EEE6AE806FDE1A60EE0
:102B0000F66E350EF76E010EF86E01EEA6F010EEC1
:102B100010F00900F5CFEEFFE550E150FAE1EA0EC2
:102B2000F66E350EF76E010EF86E00EEF4F010EE54
:102B30000BF00900F5CFEEFFE550E150FAE100019E
:102B4000F5EF8FF0000EF0BA010E166EF09A8B942E
:102B50000EC013F00FC014F0D89014321332D89076
:102B600014321332D8901432133213508009B2EC5D
:102B70009AF00E38E846E00B1009B2EC9AF0156AAC
:102B80000AD015501024D96E000E1120DA6EDF50D5
:102B9000B2EC9AF0152A1250155CF3E38B8416B050
:102BA00002D0F09A01D0F08A1200000EF0BA010EA5
:102BB000166EF09A8B940EC013F00FC014F0D890DC
:102BC00014321332D89014321332D8901432133294
:102BD00013508009B2EC9AF00E38E846E00BB2ECE4
:102BE0009AF0156A0AD015501024D96E000E1120E3
:102BF000DA6EFBEC9AF0DF6E152A1250155CF3E3E7
:102C00008B8416B002D0F09A01D0F08A1200000E28
:102C1000F0BA010E096EF09A8B9402C007F003C05F
:102C200008F0D89008320732D89008320732D8908E
:102C30000832073207508009BEEC9AF00238E846A5
:102C4000E00BBEEC9AF00A6A0AD00A500424D96E4E
:102C5000000E0520DA6E00EC9BF0DF6E0A2A0650AB
:102C60000A5CF3E38B8409B002D0F09A01D0F08AB9
:102C700012003A6E396614D0FE0E356E190E346E9F
:102C80003AC036F0010E376EF2EC97F0FE0E0F6E82
:102C9000960E0E6E4BEC9AF03A50F7EC94F013D07F
:102CA000FE0E356E770E346E3AC036F0010E376E7A
:102CB000F2EC97F0FE0E0F6EB40E0E6E4BEC9AF027
:102CC0003A50F7EC94F0FF0E0F6EFB0E0E6E4FEFC6
:102CD0009AF0010E126E0001746B756B0E6A020E93
:102CE0000D6EC50E0F6EC0EC98F012160E6A010E36
:102CF0000D6EC30E0F6EC0EC98F012160E6A010E28
:102D00000D6EC10E0F6EC0EC98F012160E6A320EE8
:102D10000D6E520E0F6EC0EC98F012160E6A040E75
:102D20000D6EC70E0F6EC0EC98F012161200126EE8
:102D30001250D96EDA6ADF50BD6F1250D96EDA6A5E
:102D4000D92ADF50BE6F1150D96EDA6ADF50506E4B
:102D50001150D96EDA6AD92ADF50516EBDC00EF01B
:102D6000270EC1EC99F0BEC00EF0280EC1EC99F010
:102D700050C00EF0290EC1EC99F051C00EF02A0E91
:102D8000C1EF99F0166E000EF0BA010E156EF09AB2
:102D90008996030EB2EC9AF00FC012F012C013F035
:102DA000146A1350B2EC9AF00E50B2EC9AF00AD0BA
:102DB0001650D96EDA6AFBEC9AF0DF6E162A10060E
:102DC000D8A0110611501010F3E1898615B002D079
:102DD000F09A01D0F08A1200700ED36EC088DF0E18
:102DE000C16EC268C098926893689468956A896A4F
:102DF0008A6A8B6A8C6A9380928A959E959C949439
:102E00008B84939A8A8A93869488949A9496C00E17
:102E1000C76E210EC66EF19692968986F28EF09458
:102E2000F08A35EF95F0000EF0BA010E136EF09AAD
:102E30008B940EC010F00FC011F0D89011321032E8
:102E4000D89011321032D8901132103210508009BF
:102E5000B2EC9AF00E38E846E00BB2EC9AF0FBECDC
:102E60009AF0126E8B8413B002D0F09A01D0F08ADF
:102E700012501200000EF0BA010E136EF09A8B94ED
:102E80000EC011F00FC012F0D89012321132D8904B
:102E900012321132D8901232113211508009B2EC34
:102EA0009AF00E38E846E00B1009B2EC9AF0105098
:102EB000B2EC9AF08B8413B002D0F09A01D0F08A71
:102EC0001200000EF0BA010E076EF09A8B9402C049
:102ED00004F003C005F0D89005320432D8900532D2
:102EE0000432D8900532043204508009BEEC9AF0C6
:102EF0000238E846E00BBEEC9AF000EC9BF0066E60
:102F00008B8407B002D0F09A01D0F08A06501200EC
:102F1000116A126A10500F101BE0010E136E04D0DC
:102F2000D8900F361036132A10AEFAD7D890113633
:102F300012360F500D5C10500E5805E30F500D5E09
:102F400010500E5A1180D89010320F32132EEED737
:102F500011C00DF012C00EF012009D90146A156A97
:102F6000116ACECF12F0CFCF13F01228D8B41328A5
:102F700004E1112A030E1164F4D79EA004D0142A90
:102F80004A28D8B4152A4A5014264B5015269D803D
:102F900012C00DF013C00EF014C00FF015C010F0E9
:102FA0001200356EEBEC99F00101010E1A6E850EE0
:102FB000196EFF0E1C6E8F0E1B6E35C01DF01E6A43
:102FC00000EC80F00101010E1A6E950E196EFF0ED5
:102FD0001C6E7E0E1B6E34C01DF01E6A00EC80F06D
:102FE000B9EF94F0EBEC99F00101010E1A6E850E29
:102FF000196E35C01CF034C01BF036C01DF01E6ABF
:1030000000EC80F0B9EC94F03750D8B41200386A74
:103010000E6AFA0E0D6EB5EC92F0382A070E38647F
:10302000F7D7070C146E0A0E1464000C1A0E146401
:1030300001D0000C1450F51913E0110E95EC99F025
:10304000136E13C012F00F0E12161450100DF35021
:10305000500F12100E6E110EC1EC99F014C0F5F065
:10306000010C1750161017E0010E186E04D0D890FE
:1030700016361736182A17AEFAD71650145C1750A2
:10308000155804E31650145E1750155AD89017328D
:103090001632182EF2D714C014F015C015F0120015
:1030A0000F6E0FC00EF00F380F0B0F6E0101A60E42
:1030B0000F24D96EDA6A010EDA22DF50EFEC9AF0B3
:1030C0000E500F0B0F6E0101A60E0F24D96EDA6A97
:1030D000010EDA22DF50EFEF9AF01F6E000E3CEC8B
:1030E00099F00E6A010E0D6EB5EC92F01F5025ECB2
:1030F00099F000F000F000F000F0400E3CEC99F088
:1031000000F000F000F000F000F000F0000E3CEFE6
:1031100099F01F6E0E6A010E0D6EB5EC92F0800EE6
:103120003CEC99F01F5025EC99F000F000F000F015
:1031300000F0C00E3CEC99F000F000F000F000F060
:1031400000F000F0000E3CEF99F0196E030E1964C8
:1031500001D0030C19C0FEF0FEC018F0183AF00EB2
:103160001816000178510F0B1810786FC1C00EF0BF
:10317000C2C00FF0116A010E106EFE0EEBEF93F05D
:1031800074C010F075C011F00D5010260E501122B1
:10319000010E105C800E115801E3000C0F50D96E27
:1031A000DA6A74C0DEFF75C0DDFF0D5074270E5063
:1031B0007523010C126E146A115014E0010E136E87
:1031C00003D0D8901136132A11AEFBD7D8901436FD
:1031D0001150125C03E31150125E1480D89011322A
:1031E000132EF4D714501200106E000E3CEC99F020
:1031F000105025EC99F000F000F000F0400E3CEC8F
:1032000099F000F000F000F000F000F000F000F0A5
:1032100000F000F0000E3CEF99F0126A12500F24FB
:10322000D96E000E1020DA6EDF50116E12500D2490
:10323000D96E000E0E20DA6EDF50111801E0000C7E
:10324000122A070E1264EAD7010C0E6E000EF0BAB5
:10325000010E0F6EF09A8994400EB2EC9AF0130EA4
:10326000B2EC9AF00E50B2EC9AF089840FB002D012
:10327000F09A01D0F08A12000E6E000EF0BA010E24
:103280000F6EF09A8994400EB2EC9AF0120EB2ECE6
:103290009AF00E50B2EC9AF089840FB002D0F09AF6
:1032A00001D0F08A1200000EF0BA010E0E6EF09AF4
:1032B0008994400EB2EC9AF0010EB2EC9AF0000E36
:1032C000B2EC9AF089840EB002D0F09A01D0F08A64
:1032D0001200000EF0BA010E0E6EF09A8994400EA4
:1032E000B2EC9AF0000EB2EC9AF0000EB2EC9AF04A
:1032F00089840EB002D0F09A01D0F08A1200186EC4
:10330000116A185012EC98F000090EE018C0C9F0CC
:10331000C3C00EF0C4C00FF0116A010E106E0001A0
:10332000C90EEBEC93F0010C000C0E6E000EF0BA1F
:10333000010E106EF09A8B940E500E24B2EC9AF09F
:10334000FBEC9AF00F6E8B8410B002D0F09A01D093
:10335000F08A0F5012000EC014F00DC013F008D008
:1033600013C0D9FF14C0DAFF0FC0DFFF134A142ABD
:103370001106D8A012061128D8B41228D8B4120009
:10338000EFD70F6E000EF0BA010E106EF09A8B940C
:10339000D8800F34B2EC9AF00E50B2EC9AF08B84D5
:1033A00010B002D0F09A01D0F08A1200036E000E25
:1033B000F0BA010E046EF09A8B94D8800334BEEC00
:1033C0009AF00250BEEC9AF08B8404B002D0F09ACE
:1033D00001D0F08A1200010EF4EC98F00E6A020E91
:1033E0000D6EB5EC92F00101010E0E6E850E0D6EA4
:1033F000106A200E0F6E126A116EABEF99F0436ED9
:1034000043500A0DF350840FD96EDA6ADFAE000C18
:10341000010EE26FE4C0E3F043500A0DF3507C0F5D
:103420007CEF9AF0186E0BD0120EC06F340EBF6F87
:1034300019681A68BF0E116E190E97EF96F01850A2
:10344000F3E0010AD8A4030A12000D500F02F3CFD3
:1034500011F0F4CF12F00D501002F35012260E505E
:103460000F02F350122611C00DF012C00EF0120020
:103470000E6E080E0F6E106AD8900E341034106E57
:10348000D8900E360D50105C02E30D50105E0F2EDA
:10349000F3D71050120003D01050EFEC9AF00EC08A
:1034A000F6FF0FC0F7FF0E4A0F2A000EF86E080055
:1034B000F5CF10F01066F0D71200186EFF0E0F6EE9
:1034C000070E0E6E4BEC9AF01850F7EC94F0FD0ED0
:1034D0000F6EEB0E0E6E4FEF9AF0FF0E0F6E360E64
:1034E0000E6E4BEC9AF0FF0E356EA00E346E366AFF
:1034F000010E376EF2EF97F0426EBFC03BF0C0C0D6
:103500003CF03E6A42C03DF0000E3F6AE3C040F02E
:1035100094EF93F00F6E0E6A3A0E0F5C05E22F0ED9
:103520000F6402D0010E0E6E0EC00DF00D301200B1
:1035300025C072F026C073F0CECF76F00B0E0001DE
:10354000F56FD0EC8DF0496A1200426EBFC03BF0BF
:10355000C0C03CF03E6A3D6A3F6A42C040F0010E86
:1035600094EF93F00D6E9E96C950C69E0DC0C9FF94
:10357000C6BEFBD79EA6FED79E961200016E9E96F3
:10358000C950C69E01C0C9FFC6BEFBD79EA6FED7C6
:103590009E961200948E949C240EAD6E900EAC6E8E
:1035A0001F0EB06E1F0C3031323334353637383998
:1035B000414243444546380ECD6E9E909D80CD805D
:1035C0004A6A4B6A12001BEC86F0000179B7010CC5
:1035D000000C376E36C034F03750D1EF97F00D6ED7
:1035E000ADA2FED70DC0AEFF1200010BFF112233BA
:1035F000445566110300000EB2EC9AF0C950120057
:10360000000EBEEC9AF0C9501200949A94969E96C1
:103610001200000179970DEF9BF04990120000F025
:063620001200120012006E
:06FFF800A0F4C5F7F8FFBC
:00000001FF
