:040000000CEF00F011
:10000800D9CF0DF0DACF0EF0F3CF0FF029ED0EF0C7
:1000180095EF11F081A0F28258A00BD0800EA85D58
:10002800000EA95904E3A86BA96B589002D0A84BFD
:10003800A92B6A68C86BC8514E0D0201000EF32443
:10004800D96E020EF420DA6EDF5003E0C8C06AF001
:1000580005D00001C82B010EC865EDD7020E6A5CF9
:1000680001E30DD2010E0001C36F6A504E0D010E5F
:10007800F324D96E020EF420DA6EDF504D6E4DACCB
:10008800C36BB06BB86B6A504E0D020EF324D96E79
:10009800020EF420DA6EDF50CC0BC26FF2D16A5038
:1000A8004E0D060EF324D96E020EF420DA6EFF0E02
:1000B800DF620DD06A504E0D070EF324D96E020E82
:1000C800F420DA6EFF0EDF6202D00001B085000175
:1000D800B08FC3512FE06A504E0D040EF324D96E31
:1000E800020EF420DA6EDF50B96F6A504E0D050E1D
:1000F800F324D96E020EF420DA6EDF50BA6F6A501C
:100108004E0D080EF324B16F020EF4200001B26FF9
:100118006A504E0D000EF324D96E020EF420DA6EEA
:10012800DF50ED0FB56F6A504E0D100EF324B36F0C
:10013800020E3FD16A504E0D080EF324D96E020EFE
:10014800F420DA6EDF500001B96F6A504E0D090EC7
:10015800F324D96E020EF420DA6EDF50BA6F6A50BB
:100168004E0D0A0EF324B16F020EF4200001B26F97
:100178006A504E0D000EF324D96E020EF420DA6E8A
:10018800DF50EB0FB56F6A504E0D120EF324B36FAC
:10019800020E0FD1B08FC3512FE06A504E0D040EDE
:1001A800F324D96E020EF420DA6EDF500001B96F25
:1001B8006A504E0D050EF324D96E020EF420DA6E45
:1001C800DF50BA6F6A504E0D0E0EF324B16F020E57
:1001D800F420B26F6A504E0D000EF324D96E020E51
:1001E800F420DA6EDF50E70FB56F6A504E0D160E29
:1001F800F324B36F020EDDD06A504E0D0E0EF324B9
:10020800D96E020EF420DA6EDF500001B96F6A5021
:100218004E0D0F0EF324D96E020EF420DA6EDF5065
:10022800BA6F6A504E0D100EF324B16F020EF4200F
:10023800B26F6A504E0D000EF324D96E020EF420F0
:10024800DA6EDF50E50FB56F6A504E0D180EF324C5
:10025800B36F020EAED0B085B08F010EB86F6A5082
:100268004E0D040EF324D96E020EF420DA6EDF5020
:100278000001B96F6A504E0D050EF324D96E020EB7
:10028800F420DA6EDF50BA6F6A504E0D060EF32472
:10029800B16F020EF420B26F6A504E0D000EF324B7
:1002A800D96E020EF420DA6EDF50F50F0001B56F3B
:1002B8006A504E0D080EF324B36F020E7AD06A50BE
:1002C8004E0D060EF324D96E020EF420DA6EFF0EE0
:1002D800DF620DD06A504E0D070EF324D96E020E60
:1002E800F420DA6EFF0EDF6202D00001B085000153
:1002F800B08F010EB86FC3672ED06A504E0D080E2E
:10030800F324D96E020EF420DA6EDF50B96F6A500A
:100318004E0D090EF324D96E020EF420DA6EDF506A
:10032800BA6F6A504E0D0A0EF324B16F020EF42014
:10033800B26F6A504E0D000EF324D96E020EF420EF
:10034800DA6EDF50F10FB56F6A504E0D0C0EF324C4
:10035800B36F020E2ED06A504E0D040EF324D96EE0
:10036800020EF420DA6EDF500001B96F6A504E0DAC
:10037800050EF324D96E020EF420DA6EDF50BA6F40
:100388006A504E0D080EF324B16F020EF420B26FBE
:100398006A504E0D000EF324D96E020EF420DA6E68
:1003A800DF50F30FB56F6A504E0D0A0EF324B36F8A
:1003B800020EF4200001B46F76D0B08F010EB86F32
:1003C800C3511CE06A504E0D040EF324D96E020E80
:1003D800F420DA6EDF500001B96F6A504E0D050E39
:1003E800F324D96E020EF420DA6EDF50BA6F6A5029
:1003F8004E0D0D0EF324B16F020E87D66A504E0DC6
:100408000D0EF324D96E020EF420DA6EDF500001CF
:10041800B96F6A504E0D0E0EF324D96E020EF420F9
:10042800DA6EDF50BA6F6A504E0D0F0EF324B16FBB
:10043800020E9BD66A504E0D060EF324D96E020E9C
:10044800F420DA6EFF0EDF620DD06A504E0D070EF3
:10045800F324D96E020EF420DA6EFF0EDF6202D0AA
:100468000001B0856A504E0D000EF324D96E020EBD
:10047800F420DA6EDF50F60F19D76FEC15F0000E86
:1004880015D1C251080AD6E0880A01E1E4D6080A63
:1004980001E115D7040A91E0440A01E100D6040AF3
:1004A80001E178D6EAD76A504E0D010EF324D96ED1
:1004B800020EF420DA6EDF504D6E4DA6A6D0C00EA7
:1004C8000001C25DDAE3B3C0D9FFB4C0DAFFDF5080
:1004D800C46F20EE01F0B351D926B451DA22DF50AF
:1004E800C56F20EE02F0B351D926B451DA22DF509D
:1004F800C66F20EE03F0B351D926B451DA22DF508B
:10050800C76FC86BC8510A0D080EF324D96E010EC7
:10051800F420DA6EDFAE11D00001C8510A0D000ECA
:10052800F324166E010EF420176EB2C019F0B1C094
:1005380018F0A1EC14F0000905E10001C82B040E25
:10054800C865E0D7050E0001C85D25E2C851040D55
:10055800F350800FD96EDA6ADECF4DF0DECF4EF061
:10056800DECF4FF0DECF50F04D50C45D4E50C55930
:100578004F50C6595050C75980E3C851040DF35025
:10058800800FD96EDA6AC4C0DEFFC5C0DEFFC6C000
:10059800DEFFC7C0DEFF050EB55FB325336E000E64
:1005A800B421346EB50E356EB2C037F0B1C036F036
:1005B800C4C038F0C5C039F0C6C03AF0C7C03BF077
:1005C8006A504E0D0201010EF324D96E020EF4207A
:1005D800DA6EDF503C6EC8EC07F0000901E14DD738
:1005E800050E0001B327000EB423B0870ED0FC0E11
:1005F8000001B01721D00001B051FC0B0109B06F08
:100608001BD0030E0001B01317D06A504E0D020123
:10061800010EF324D96E020EF420DA6EDF50070BB8
:100628004D6E4E6A4E5001E028D74D50EAE0010A5F
:10063800DEE0020AE0E021D76A504E0D000EF324F6
:10064800D96E020EF420DA6EDF504D6E6A504E0DF0
:10065800FF0E4E6E010E4F6EF3504E26F4504F2291
:100668004D504E24D96E000E4F20DA6EDF50000137
:10067800B76F6A504E0D000EF324D96E020EF420A7
:10068800DA6EDF504D6E6A504E0D000E4E6E020E41
:100698004F6EF3504E26F4504F224D504E24D96ED3
:1006A800000E4F20DA6EDF50B66F010E1200000107
:1006B800AEA32FD091EC13F016C0E6F017C0E7F008
:1006C80018C0E8F019C0E9F00001A251E65DE26F38
:1006D800A351E759E36FA451E859E46FA551E959CB
:1006E800E56F210EE25DA10EE359070EE459000EF5
:1006F800E5590FE3AE930101010E176E000E166E59
:1007080062C018F063C019F01B6A320E1A6E8FECC3
:1007180012F00001AEB73BD20EEC00F0000901E187
:1007280036D20001946BB0A503D0E26BE22B01D066
:10073800E26B9451E219FC0BE219946FB0A702D056
:10074800948702D000019497B051030BE26FE20541
:10075800010ED8A4000EE36FE33BE3479451E3197D
:10076800DF0BE319946FB0AF02D0948D02D0000173
:10077800949DB0AF04D0B2C098F0B1C097F0B9C0A2
:1007880095F0BAC096F0B5C09BF0B4C09AF0B3C06B
:1007980099F0B7C09DF0B6C09CF094BBD9D1ECD10C
:1007A80020EE01F09951D9269A51DA22DF50C11969
:1007B80003E06FEC15F0E1D1FD51030AFAE0952949
:1007C800D8B4962911E020EE95F0DE52C051DD181C
:1007D800BFC0E8FFD8B4DF1807E020EE9BF0020E98
:1007E800DF6402D0F20E03D093EC0FF00001EC6F3F
:1007F800FD0507E1EC0505E0EC51020A02E0F30E05
:10080800EC6FAF6B320E0001AF25D96EDA6A010EBC
:10081800DA22910EDF6EAF2B320EAF25D96EDA6A6F
:10082800010EDA22ECC0DFFFAF2BEC5102E0EC0541
:100838001CE1320E0001AF25D96EDA6A010EDA2208
:10084800ADC0DFFFAF2BED6BED51F40FD96EDA6A57
:10085800320E0001AF25E16EE26A010EE222DFCF1F
:10086800E7FFAF2BED2BED51EFE06FEC15F095C0E6
:10087800D3F096C0D4F0000198C0D6F097C0D5F058
:10088800010ED76F000E94B7010ED86F000E9EECC4
:1008980010F0EC6772D1AC510A0D000EF324166EFD
:1008A800010EF420176E0001AC510A0D6250F324BA
:1008B800186E6350F420196E1B6A0A0E1A6E8FECBC
:1008C80012F05BD1020EFD6501D073D720EE01F066
:1008D8009951D9269A51DA22DF50C11901E069D716
:1008E800AF6B320E0001AF25D96EDA6A010EDA223B
:1008F800970EDF6EAF2B320EAF25D96EDA6A010E76
:10090800DA22ADC0DFFFAF2BED6BED51F40FD96EDE
:10091800DA6A320E0001AF25E16EE26A010EE222C8
:10092800DFCFE7FFAF2BED2BED51EFE06FEC15F0CC
:1009380095C0D3F096C0D4F0000198C0D6F097C007
:10094800D5F0010ED76F000E94B7010ED86F000EC8
:100958009EEC10F012D1AF6B320E0001AF25D96EAC
:10096800DA6A010EDA22920EDF6EAF2BED6BED51D3
:100978000A0D080EF324D96E010EF420DA6EDFAEEC
:100988003CD0000198C017F097C016F0ED510A0D41
:100998000101000EF324186E010EF420196EA1EC6B
:1009A80014F000092AE00001ED510A0D080EF324A5
:1009B800D96E010EF420DA6EDF6AED510A0D000ED1
:1009C800F324166E010EF420176EED510A0D6250D5
:1009D800F324186E6350F420196E1B6A0A0E1A6EFF
:1009E8008FEC12F0320E0001AF25D96EDA6A010ED3
:1009F800DA22000EDF6AAF2B05D00001ED2B040EC2
:100A0800ED65B5D76FEC15F00001ED51050A09E168
:100A1800320EAF25D96EDA6A010EDA22F00EDF6ED9
:100A2800AF2B95C0D3F096C0D4F098C0D6F097C03D
:100A3800D5F0010ED76F000E94B7010ED86F000ED7
:100A48009EEC10F09AD0BF29D8B4C02918E195C0FF
:100A5800BFF096C0C0F0EA69EB69BF0E1A6EEA0EE5
:100A6800EEEC12F0176A0001BF0E166E66C018F0A1
:100A780067C019F01B6A020E1A6E8FEC12F093EC25
:100A88000FF00001AE8391EC13F016C0A2F017C06E
:100A9800A3F018C0A4F019C0A5F08BD620EE01F081
:100AA8009951D9269A51DA22DF50CDE0010ACBE0DC
:100AB80080D6AEBBAE9B7DD620EE01F09951D926EB
:100AC8009A51DA22DF5001E074D6ED6BED510A0D30
:100AD800080EF324D96E010EF420DA6EDFAE32D0A0
:100AE800000198C017F097C016F0ED510A0D0101EA
:100AF800000EF324186E010EF420196EA1EC14F008
:100B0800000920E00001ED510A0D080EF324D96E0A
:100B1800010EF420DA6EDF6AED510A0D000EF3249F
:100B2800166E010EF420176EED510A0D6250F32473
:100B3800186E6350F420196E1B6A0A0E1A6E8FEC39
:100B480012F037D60001ED2B040EED65BFD731D674
:100B580099C0D9FF9AC0DAFFDF50810A01E120D697
:100B6800030A01E1F8D6050A01E1ACD6160A96E0B7
:100B7800030AA2E0050A9DE0AE8700019B51D8A4B4
:100B8800AEB902D0AEAB03D0AE976FEC15F0120041
:100B98000001D26B4AA402D0010E4D6E4AB64E6ACD
:100BA8004A50030BC26FC20502E1030E04D04A503B
:100BB800030B02E1010ECF6F20EE4FF0DE525D50C5
:100BC800DD185CC0E8FFD8B4DF180AE15C28D8B4A7
:100BD8005D2806E0050ED06FCF8D010ECE6F03D0D5
:100BE800070ED06FCE6B4D50020ED8B4080ED0272A
:100BF8004E50020ED8B4080ED0274ABA4AB401D0D3
:100C0800CF8B4A50030B030A07E1CF6B070ED06F57
:100C1800CE6B010E4E6E4A9A4AA613D0CF8752C0A9
:100C280034F051C033F0530E356EBBC036F0BCC043
:100C380037F0BDC038F0BEC039F0CFC03AF04DEC47
:100C480009F0000E186A176AD0C019F041EC13F0C9
:100C58000001D22B4AA60CD0D2C017F0186AD05186
:100C68005324050F196E41EC13F00001D22B09D063
:100C7800D2C017F0186AD0515324196E41EC13F002
:100C8800F4D7D2C017F0186ACFC019F041EC13F0AE
:100C98000001D22B4A50030B030A12E1D2C017F00D
:100CA800186A800E196E41EC13F00001D22BD2C0E5
:100CB80017F0186A56C019F041EC13F0562A79D08B
:100CC8004D500CE04E500AE0D2C017F0186A880E5A
:100CD800196E41EC13F00001D22B20D04D500AE0E0
:100CE8004E6608D0D2C017F0186AC80E196E41ECCB
:100CF80013F0F1D74D660AD04E0408E1D2C017F0C0
:100D0800186A8C0E196E41EC13F0E5D7D2C017F0B3
:100D1800186ACC0E196E41EC13F0DDD7D2C017F06B
:100D2800186A56C019F041EC13F0562A0001D22B6C
:100D3800D2C017F0186A4FC019F041EC13F0000147
:100D4800D22BD2C017F0186A50C019F041EC13F03A
:100D58000001D22B4AA411D0D2C017F0186AFF0E96
:100D6800196841EC13F00001D22BD2C017F0186AB1
:100D7800FF0E196841EC13F01CD04D501DE0D2C095
:100D880017F0186A4BC0D9FF4CC0DAFFDF50196E54
:100D980041EC13F00001D22BD2C017F0186A20EEF4
:100DA80001F04B50D9264C50DA22DF50196E41EC35
:100DB80013F00001D22B14D0D16BD2C017F0186AEF
:100DC800D1514B24D96E000E4C20DA6EDF50196ECB
:100DD80041EC13F00001D22BD12B070ED165EDD7D2
:100DE800CE6712D0D2C017F0186A5CC019F041EC77
:100DF80013F00001D22BD2C017F0186A5DC019F0A9
:100E080041EC13F00001D22B4E5013E0D2C017F082
:100E1800186A5EC019F041EC13F00001D22BD2C061
:100E280017F0186A5FC019F041EC13F00001D22BDB
:100E380012D0D16BD2C017F0186AA751D125D96E3C
:100E4800DA6ADF50196E41EC13F00001D22BD12B76
:100E5800070ED165EFD74AA634D0D16BD2C017F0B0
:100E6800186AD151BB0FD96EDA6ADF50196E41EC9E
:100E780013F00001D22BD12B030ED165EFD7BB2B7A
:100E8800000EBC23BD23BE23BB6711D0BCC0C2F07B
:100E9800030EC2170CE1176ABB0E166E68C018F075
:100EA80069C019F01B6A040E1A6E8FEC12F000016B
:100EB800D2C017F0186A000E196A41EC13F000014D
:100EC800D22BD16B10D0D2C017F0186AD15151244F
:100ED800D96E000E5220DA6EDF50196E41EC13F015
:100EE8000001D22BD12B5350D15DEDE358804ABA83
:100EF8004AB404D0050ED16F588203D0010ED16FC9
:100F08005892D1C017F0370E14EC15F091EC13F08D
:100F180016C0C6F017C0C7F018C0C8F019C0C9F08D
:100F280081A0F28258B005D058A42CD05894000E55
:100F38002AD091EC13F016C0CAF017C0CBF018C035
:100F4800CCF019C0CDF00001C651CA5DC26FC751BF
:100F5800CB59C36FC851CC59C46FC951CD59C56F4E
:100F6800210EC25D4E0EC359000EC459000EC5595C
:100F7800D7E388EC0BF05C0E1A6E5E0EEEEC12F006
:100F88005890D5D7010E1200010E176E1B0E14ECE7
:100F980015F0040E176E730E14EC15F0186A176A24
:100FA8000D0E196E41EC13F0186A010E176E3550CC
:100FB800D96EDA6ADF500F0F196E41EC13F04B6AE5
:100FC800020E4A6E186A176E3CC019F041EC13F015
:100FD8004A4A4B2A4AC017F04BC018F038C019F0DB
:100FE80041EC13F04A4A4B2A4AC017F04BC018F09C
:100FF80039C019F041EC13F04A4A4B2A4AC017F09D
:101008004BC018F03AC019F041EC13F04A4A4B2A89
:101018004AC017F04BC018F03BC019F041EC13F070
:101028004A4A4B2A4C6A4AC017F04BC018F04C5039
:101038003624D96E000E3720DA6EDF50196E41EC77
:1010480013F04A4A4B2A4C2A070E4C64ECD74C6AD8
:1010580011D04AC017F04BC018F04C503324D96E49
:10106800000E3420DA6EDF50196E41EC13F04A4A54
:101078004B2A4C2A3550D96EDA6ADF504C5CE9E3CA
:10108800020E4B6E4C0E4A6E4C6A4AC017F04BC0AB
:1010980018F04C503624D96E000E3720DA6EDF5027
:1010A800196E41EC13F04A06D8A04B064C2A070EDD
:1010B8004C64EBD74C6A4AC017F04BC018F04C5040
:1010C800380FD96EDA6ADF50196E41EC13F04A0610
:1010D800D8A04B064C2A030E4C64EDD74AC017F033
:1010E8004BC018F0040E196E41EC13F04A06D8A054
:1010F8004B06020E4B6E800E4A6E4C6A4AC017F0C1
:101108004BC018F0710E4C24F66EF76AFC0EF722ED
:101118000800F5CF19F041EC13F04A4A4B2A4C2A43
:101128000F0E4C64EBD7800E176E6F0E14EC15F093
:10113800040E176E590E14EC15F0588C5880030ED7
:10114800176E370E14EC15F091EC13F016C041F041
:1011580017C042F018C043F019C044F02ED081A047
:10116800F28291EC13F016C045F017C046F018C093
:1011780047F019C048F04150455C3D6E4250465812
:101188003E6E435047583F6E44504858406E210EBB
:101198003D5CA10E3E58070E3F58000E40580DE327
:1011A80088EC0BF01D6A5750D6EC13F05C0E1A6EE3
:1011B8005E0EEEEC12F0000E6BD058BCD0D7600E6D
:1011C800EAEC14F0496E49AC0FD0400E176E610E70
:1011D80014EC15F0176A730E14EC15F0010E176E67
:1011E8001B0E14EC15F0E7D73550D96EDA6A186A79
:1011F800010E176E19EC13F0F30FDF6E15D0355092
:10120800D96EDA6A120E0ED03550D96EDA6A0A0E25
:1012180009D03550D96EDA6A060E04D03550D96E29
:10122800DA6A020EDF5E0FD0040E010AF7E0030A45
:10123800E6E0010AE9E0070AECE0010AE0E0030A57
:10124800E3E0010AE6E04B6A0F0E4A6E4C6A10D0E2
:101258004C503324D96E000E3420DA6E4AC017F091
:101268004BC018F019EC13F0DF6E4A4A4B2A4C2A8F
:101278003550D96EDA6ADF504C5CEAE3176A730EB0
:1012880014EC15F0010E176E1B0E14EC15F0010E80
:101298001200010E176E1B0E14EC15F0040E176EDB
:1012A800730E14EC15F0186A176A0D0E196E41ECDE
:1012B80013F0186A010E176E3550D96EDA6ADF50CE
:1012C8000D0F196E41EC13F0486A020E476E186A4A
:1012D800176E3AC019F041EC13F0474A482A47C044
:1012E80017F048C018F036C019F041EC13F0474A1F
:1012F800482A47C017F048C018F037C019F041EC29
:1013080013F0474A482A47C017F048C018F038C0B9
:1013180019F041EC13F0474A482A47C017F048C073
:1013280018F039C019F041EC13F0474A482A496AC5
:1013380047C017F048C018F00001A7514924D96EDA
:10134800DA6ADF50196E41EC13F0474A482A492AF5
:10135800070E4964EDD7496A11D047C017F048C055
:1013680018F049503324D96E000E3420DA6EDF505D
:10137800196E41EC13F0474A482A492A3550D96E6C
:10138800DA6ADF50495CE9E3020E486E4C0E476E9C
:10139800496A47C017F048C018F00001A75149240E
:1013A800D96EDA6ADF50196E41EC13F04706D8A0FF
:1013B8004806492A070E4964ECD7496A47C017F01E
:1013C80048C018F04950360FD96EDA6ADF50196EE6
:1013D80041EC13F04706D8A04806492A030E496491
:1013E800EDD747C017F048C018F0040E196E41EC4D
:1013F80013F04706D8A04806020E486E800E476EC6
:10140800496A47C017F048C018F0710E4924F66EB3
:10141800F76AFC0EF7220800F5CF19F041EC13F03B
:10142800474A482A492A0F0E4964EBD7400E176EDF
:101438006F0E14EC15F0040E176E590E14EC15F01F
:10144800588C030E176E370E14EC15F091EC13F050
:1014580016C03FF017C040F018C041F019C042F064
:1014680029D081A0F28291EC13F016C043F017C086
:1014780044F018C045F019C046F03F50435C3B6E3D
:10148800405044583C6E415045583D6E4250465875
:101498003E6E210E3B5CA10E3C58070E3D58000ED7
:1014A8003E5808E388EC0BF05C0E1A6E5E0EEEEC0C
:1014B80012F030D058BCD5D73550D96EDA6A186AD0
:1014C800010E176E19EC13F0F30FDF6E486A0F0E5A
:1014D800476E496A10D049503324D96E000E342023
:1014E800DA6E47C017F048C018F019EC13F0DF6E39
:1014F800474A482A492A3550D96EDA6ADF50495C8A
:10150800EAE3176A730E14EC15F0010E176E1B0E42
:1015180014EC15F01200236E050E23642BD0FF0E79
:10152800186E8D0E176E5FEC15F0256A25500001B8
:10153800FC08D96EDA6ADF5033EC14F0252A070E5E
:101548002564F4D7FF0E186ECA0E176E5FEC15F0FF
:101558000001C05133EC14F00001BF5133EC14F01A
:10156800FF0E186EBE0E176E5FEC15F00001C1512C
:101578001AEC12F0050E235C61E2FD0E186EFD0EEA
:10158800176E5FEC15F023500A0D0101080EF324C5
:10159800D96E010EF420DA6EDFAEB5D0235033ECED
:1015A80014F0FF0E186EB00E176E5FEC15F0256A7A
:1015B800080E255C15E223500A0D070E216E010E58
:1015C800226EF3502126F45022222550215CD96E38
:1015D8002250D8A02204DA6EDF5033EC14F006D083
:1015E800FF0E186EBB0E176E5FEC15F0252A070E5E
:1015F8002564DED7FF0E186EB90E176E5FEC15F076
:10160800256A23500A0D090E216E010E226EF35031
:101618002126F450222225502124D96E000E2220A2
:10162800DA6EDF5033EC14F0252A2550EAE0FF0E7D
:10163800186EFB0E176E5FEC15F065D0FD0E186E78
:10164800FB0E176E5FEC15F0256A25500A0D010197
:10165800080EF324D96E010EF420DA6EDFAE4FD0F7
:10166800255033EC14F0FF0E186EB00E176E5FECB9
:1016780015F0246A080E245C15E225500A0D070EA1
:10168800216E010E226EF3502126F450222224509E
:10169800215CD96E2250D8A02204DA6EDF5033ECD8
:1016A80014F006D0FF0E186EBB0E176E5FEC15F027
:1016B800242A070E2464DED7FF0E186EB90E176EA3
:1016C8005FEC15F0246A25500A0D090E216E010EF3
:1016D800226EF3502126F450222224502124D96E60
:1016E800000E2220DA6EDF5033EC14F0242A245046
:1016F800EAE0FF0E186EFB0E176E5FEC15F0252A58
:10170800040E2564A2D712008B94030E286E296A52
:101718002A6A2B6A18D09A0E206E020E216E226A4F
:10172800236A2006000E215A225A235A2028D8B4A8
:101738002128D8B42228D8B42328F3E12806000E9B
:10174800295A2A5A2B5A2B50281029102A10E3E11B
:101758008B840A0E2C6E2D6A2E6A2F6A18D09A0E68
:10176800246E020E256E266A276A2406000E255A64
:10177800265A275A2428D8B42528D8B42628D8B4D5
:101788002728F3E12C06000E2D5A2E5A2F5A2F50D7
:101798002C102D102E10E3E1070E176E550E14ECC9
:1017A80015F0540EEAEC14F0326E32C01FF0070E3A
:1017B8001F16F7E1306A316A304A312AE80E305C88
:1017C800030E3158F9E3010E176E1B0E14EC15F0D9
:1017D8001768070E14EC15F01768090E14EC15F0CD
:1017E8001768030E14EC15F01768050E14EC15F0C5
:1017F800326A0001A7513224D96EDA6ADF50176EB7
:101808003250020DF3500B0F14EC15F0322A070E6C
:101818003264EFD7020E186E176E800E196E41EC07
:1018280013F0020E186E030E176E000E196A41ECC3
:1018380013F0020E186E060E176E900E196E41EC1C
:1018480013F0020E186E070E176E800E196E41EC1B
:1018580013F0020E186E080E176E100E196E41EC7A
:1018680013F0020E186E200E176E210E196E41EC41
:1018780013F0800E176E750E14EC15F0400E176EEF
:101888007D0E14EC15F0600E176E7F0E14EC15F03B
:10189800980E176E310E14EC15F0950E176E5D0E3E
:1018A80014EC15F0020E186E0F0E176E19EC13F0EB
:1018B800326E32C01FF0A00E1F161F50A00AF2E1B0
:1018C800E60E176E650E14EC15F0020E186E176A08
:1018D800030E196E41EC13F0020E186E010E176E0E
:1018E800020E196E41EC13F01D6A5750D6EF13F033
:1018F800386EC0EC12F0AE6B3B6A3B500A0D01012A
:10190800080EF324D96E010EF420DA6EDF6A3B2A42
:10191800040E3B64F2D7D0EC15F00001AF6B3B6AC4
:101928003B50040DF350800FD96EDA6ADE6ADE6A26
:10193800DE6ADD6A3B2A040E3B64F2D7385051E078
:10194800176AC10E166E64C018F065C019F01B6ADC
:10195800010E1A6EB5EC13F01F0E0001C16501D01F
:10196800A0D0176ABF0E166E66C018F067C019F0CF
:101978001B6A020E1A6EB5EC13F0176A0001FD0E11
:10198800166E60C018F061C019F01B6A010E1A6E5D
:10199800B5EC13F00101010E176E000E166E62C051
:1019A80018F063C019F01B6A320E1A6EB5EC13F00A
:1019B800FF0E186EE90E176E5FEC15F00001C051AE
:1019C80033EC14F00001BF5133EC14F0FF0E186E25
:1019D800D60E176E5FEC15F00001C15133EC14F010
:1019E80038D0120EC06F340EBF6F176ABF0E166E56
:1019F80066C018F067C019F01B6A020E1A6E8FECE9
:101A080012F0176A0001C10E166E64C018F065C0A6
:101A180019F01B6A010E1A6E8FEC12F0176A00019A
:101A2800FD0E166E60C018F061C019F01B6A010E39
:101A38001A6E8FEC12F00101010E176E000E166E71
:101A480062C018F063C019F01B6A320E1A6E8FEC70
:101A580012F00001F50E3A6E39823950870B4009B1
:101A6800396E38B002D0399401D03984399039C0F0
:101A780033F03AC034F0F9EC10F0366837680001FA
:101A8800BF0E1A6E360EEEEC12F00001C15187EC53
:101A980014F00001AD6BAD81AD87FD39F00BAD13CE
:101AA800F28812000101676B686B6A6B696B6CECFA
:101AB80014F0BFEC15F0DBEC11F089908992000E60
:101AC8007CEC0CF0190E87EC14F0000905E1190EF6
:101AD8004FEC15F00CEF00F0000E15EC14F0216A35
:101AE800190E58EC12F0556AFF0EEDEC0EF00101DC
:101AF8006B6F6B2906E0010E216E190E58EC12F07F
:101B080009D00A0E1C6E000E1D6A1E6A1F6A206A22
:101B1800D5EC14F0FF0E8FEC0AF0898001EC16F07A
:101B2800D8EC15F000090DE037EC10F00101692B35
:101B380069C117F06A51DFEC15F08972FAEC15F0FB
:101B4800EFD74EEC11F00101666F79D00001AF6B51
:101B580001016B6B060E166E67513CEC15F0150D06
:101B6800B10E0001F26FFB0EF36FF350F227F45041
:101B7800F32301016B510001F227000EF323F2C099
:101B8800F6FFF3C0F7FF320EAF25D96EDA6A010E01
:101B9800DA220800F5CFDFFFAF2B01016B2B140E03
:101BA8006B65D8D7672B000E9BEC15F069C117F051
:101BB80001016A2B6A51DFEC15F0B2D70001AF6B57
:101BC80001016B6B060E166E68513CEC15F00B0D9F
:101BD8002F0E0001F26FFC0EF36FF350F227F45052
:101BE800F32301016B510001F227000EF323F2C029
:101BF800F6FFF3C0F7FF320EAF25D96EDA6A010E91
:101C0800DA220800F5CFDFFFAF2B01016B2B0A0E9C
:101C18006B65D8D7682B010E0001E66F000EF7EC54
:101C280013F0000903E17EEC15F002D001016A2BE4
:101C380069C117F001016A51DFEC15F071D76651DF
:101C4800010A84E0030ABAE06BD70600F4CF10F06B
:101C5800F2B8F2A2ABD0F292620EFFEC14F0126E60
:101C680012A00FD0589058BC589C0001A86BA96BC3
:101C780058A207D0480EFFEC14F0116E11B058842A
:101C8800589212A68CD01468156A15504E0D020190
:101C9800000EF324D96E020EF420DA6EDF5003E151
:101CA80015C014F004D0152A010E1564EED7020EE3
:101CB800145C6EE2040E026E730E28EC15F01450DC
:101CC8004E0D0201000EF324D96E020EF420DA6ED6
:101CD800030E036E000E026A69EC13F0020FDF6E4A
:101CE80014504E0D0201000EF324D96E020EF4209A
:101CF800DA6EDF50086E4D0E085C40E2588A010E1D
:101D0800156E1AD014504E0D000E086E020E096E94
:101D1800F3500826F450092215500824D96E000EF5
:101D28000920DA6E000E1524026E036A030E0322E0
:101D380069EC13F0DF6E152A1550086E096A145005
:101D48004E0D0201000EF324D96E020EF420DA6E55
:101D5800DF500A6E0B6A020E0A26000E0B220B5089
:101D6800800A0C6E08500A5C0950800A0C58CAE2B6
:101D7800010E026E1B0E28EC15F005D0010E026E46
:101D88001B0E28EC15F0026A730E28EC15F007D02C
:101D9800010E026E1B0E28EC15F05896589812A8E2
:101DA80005D0800E026E590E28EC15F09EB09DA04D
:101DB80005D09E905A2A5A6601D05B2A03EC16F089
:101DC80010C0F4FF0FC0F3FF0EC0DAFF0DC0D9FF3B
:101DD8001100FDC05AF1030E01015B6F606B5504E1
:101DE80002E1FF0E9BD091EC13F016C05CF117C016
:101DF8005DF118C05EF119C05FF1200E01015C5F52
:101E0800A10E5D5B070E5E5B000E5F5B0001FD6B64
:101E1800AE897ED091EC13F016C061F117C062F163
:101E280018C063F119C064F101015C51615D0001E2
:101E3800EE6F01015D5162590001EF6F01015E51C2
:101E480063590001F06F01015F5164590001F16F9E
:101E5800210EEE5DA10EEF59070EF059000EF15953
:101E680051E361C15CF162C15DF163C15EF164C1BE
:101E78005FF10101600760294BE1010E606F5B07AC
:101E88005B2903E10001AE99ACD70001AF6B320EBC
:101E9800AF25D96EDA6A010EDA22810EDF6EAF2B1A
:101EA800320EAF25D96EDA6A010EDA22C1C0DFFF21
:101EB800AF2B320EAF25D96EDA6A010EDA22ADC029
:101EC800DFFFAF2B0101656B6551F40FD96EDA6A3C
:101ED800320E0001AF25E16EE26A010EE222DFCF89
:101EE800E7FFAF2B0101652B6551EEE0BFC0D3F0D2
:101EF800C0C0D4F00001D66BD56B010ED76FD86B7C
:101F08009EEC10F0D8EC15F00009D8A4FAEC15F006
:101F18000001AEB97FD75AC1FDF0AC511200206A5A
:101F28002168226A22500A0D0101080EF324D96E95
:101F3800010EF420DA6EDFAE15D098C017F097C006
:101F480016F022500A0D000EF324186E010EF4202C
:101F5800196EA1EC14F0000909E022C021F0010E6D
:101F6800206E08D02128D8B422C021F0222A040EDD
:101F78002264D8D7212802E1F10E74D00001FD5166
:101F880002E020506FD0226A22509725D96E000EA9
:101F98009821DA6E21500A0D000E1C6E010E1D6E7E
:101FA800F3501C26F4501D2222501C24E16E000E12
:101FB8001D20E26EDFCFE7FF222A070E2264E4D756
:101FC80021500A0D080EF324D96E010EF420DA6EA2
:101FD800DF8E000120EE02F09951D9269A51DA22BB
:101FE800DF501C6E010E1C1621500A0D080EF3243A
:101FF800D96E010EF420DA6EDF501C18FE0B1C1887
:10200800DF6E226A2250000199251C6E000E9A216B
:102018001D6E030E1C24D96E000E1D20DA6E215091
:102028000A0D090E1E6E010E1F6EF3501E26F45087
:102038001F2222501E24E16E000E1F20E26EDFCF09
:10204800E7FF222A2250DEE02150040DF350800FD2
:10205800D96EDA6ADE6ADE6ADE6ADD6A21C0ACF051
:10206800AE998FD7120094A706D0FF0E186EE00E17
:10207800176E5FEC15F000019451030B07E0FF0E9B
:10208800186E150E176E5FEC15F006D0FF0E186E61
:10209800310E176E5FEC15F000019C5133EC14F013
:1020A800000194AD2FD0FF0E186EF20E176E5FEC84
:1020B80015F0000194AF11D020EE01F09751D92608
:1020C8009851DA22DF5033EC14F097C0D9FF98C04A
:1020D800DAFFDF5033EC14F015D01C6A1C500001F5
:1020E800975D1A6E000E98591B6E070E1A24D96E4A
:1020F800000E1B20DA6EDF5033EC14F01C2A070E9A
:102108001C64ECD7FF0E186EC70E176E5FEC15F047
:102118001C6A0AD01C509925D96E000E9A21DA6ED5
:10212800DF50E5EC15F01C2A00019B511C5CD8B06F
:102138001200F0D7DA6FDB6B000EF36AD763F32A6D
:10214800F3CF54F0DB515418FC0B5418DB6FDA5101
:10215800010ED8A4000E546E543A5446DB5154185C
:10216800DF0B5418DB6FDAB102D0DB9502D0000127
:10217800DB85D8B102D0DB9702D00001DB87DF6BAB
:10218800000EF36ADA63F32AF3CF54F05450DE6F8B
:10219800DA51010ED8A4000E546E543A54465446EF
:1021A800DB515418BF0B5418DB6FDB8FD6C0DDF042
:1021B800D5C0DCF0D3C0E0F0D4C0E1F020EEDBF015
:1021C80010EE4AF0070EDECFE6FFE82EFCD701013D
:1021D800010E526E320E516EAFC053F0CCEC05F0CA
:1021E8000001D96FAF6BD951120033C0A6F034C0CB
:1021F800A7F0D6CF56F00B0E576E88EC0BF0586A46
:10220800356A35504E0D000EF324D96E020EF420B7
:10221800DA6EDF6A352A010E3564F3D733A421D08C
:10222800176A0001BB0E166E68C018F069C019F075
:102238001B6A040E1A6EB5EC13F00001D890040E58
:10224800BC27000EBD23BE23176ABB0E166E68C0DE
:1022580018F069C019F01B6A040E1A6E8FEC12F0A0
:1022680018D00001BB6BBC6BBD6BBE6B176ABB0E95
:10227800166E68C018F069C019F01B6A040E1A6E51
:102288008FEC12F0010E0001BB6F000EBC6FBD6F2A
:10229800BE6F120081BA10D0596641D0010E596E36
:1022A80091EC13F016C09EF017C09FF018C0A0F074
:1022B80019C0A1F0010E34D081B810D059662FD0C2
:1022C800010E596E91EC13F016C09EF017C09FF0E6
:1022D80018C0A0F019C0A1F0020E22D091EC13F0A2
:1022E80016C023F017C024F018C025F019C026F036
:1022F80000019E51235C1F6E9F512458206EA051EF
:102308002558216EA1512658226E000E1F5C400EE2
:102318002058000E2158000E2258D8B0596A000ED5
:10232800120002EE00F09C0EEE6AE806FDE101EEF6
:1023380000F05A0EEE6AE806FDE100EE80F0420E6B
:10234800EE6AE806FDE100EE56F0140EEE6AE806C5
:10235800FDE1900EF66E2B0EF76E000EF86E01EE94
:102368006CF010EE10F00900F5CFEEFFE550E150EB
:10237800FAE1D60EF66E2B0EF76E000EF86E00EE32
:10238800F4F010EE0AF00900F5CFEEFFE550E15049
:10239800FAE1080EF66E2C0EF76E000EF86E0900C4
:1023A800F5CF6AF0000EF86E000156EF0DF0FE0E44
:1023B800176E9B0E166E186A010E196E02EC16F057
:1023C800FD0E186EBF0E176E5FEC15F0FE0E186E40
:1023D8007B0E176E5FEC15F0FF0E186E630E176E0E
:1023E8005FEC15F0FD0E186E050E176E5FEC15F01C
:1023F800FD0E186E450E176E5FEC15F0FC0E186E8C
:10240800C30E176E5FEC15F0FC0E186E810E176E7A
:102418005FEC15F0FD0E186E830E176E5FEC15F06D
:10242800FF0E186EF90E176E63EF15F0206E630E2F
:10243800206411D0640E1A6E2050BBEC14F01E6E8E
:102448001F6A01016C0E1E24D96E010E1F20DA6E60
:10245800DF50E5EC15F0090E206415D00A0E1A6E4F
:10246800640E166E20503CEC15F0BBEC14F01E6E9A
:102478001F6A01016C0E1E24D96E010E1F20DA6E30
:10248800DF50E5EC15F00A0E166E20503CEC15F006
:102498001E6E1F6A01016C0E1E24D96E010E1F20CC
:1024A800DA6EDF50E5EF15F0226E21661AD0FE0EC7
:1024B800176E5B0E166E22C018F0010E196E02EC34
:1024C80016F0FE0E186EDA0E176E5FEC15F022503D
:1024D8001AEC12F0FF0E186EFB0E176E5FEC15F07B
:1024E80019D0FE0E176EBB0E166E22C018F0010E24
:1024F800196E02EC16F0FE0E186EF80E176E5FECF1
:1025080015F022501AEC12F0FF0E186EFB0E176E23
:102518005FEC15F012002BD019C01CF01CC01DF088
:102528001E6A1D50AA6E18C0A9FF16C0D9FF17C091
:10253800DAFFDF50A86E164A172AA69EA69CA68424
:10254800000EF2BE010E1F6EF29E550EA76EAA0E69
:10255800A76EA6821FB002D0F29E01D0F28EA6B25C
:10256800FED7A6941A06D8A01B06184A192A1B508B
:102578001A10D8B41200D0D7010E1B6E0001AA6B36
:10258800AB6B176A020E166E660E186E50EC14F0DE
:102598001B16176A010E166E640E186E50EC14F0B6
:1025A8001B16176A010E166E600E186E50EC14F0AA
:1025B8001B16176A320E166E620E186E50EC14F067
:1025C8001B16176A040E166E680E186E50EC14F07F
:1025D8001B1612001B6E1B50D96EDA6ADF505E6E36
:1025E8001B50D96EDA6AD92ADF505F6E1A50D96E3D
:1025F800DA6ADF505C6E1A50D96EDA6AD92ADF506F
:102608005D6E5EC017F0070E14EC15F05FC017F092
:10261800090E14EC15F05CC017F0030E14EC15F05D
:102628005DC017F0050E14EF15F0000EF2B8010E9C
:102638001C6EF2988B9017C019F018C01AF0D89039
:102648001A321932D8901A321932D8901A321932ED
:1026580019507F0B8009A9EC15F01738E846E00BF4
:10266800A9EC15F0F0EC15F01B6E8B801CB002D0B5
:10267800F29801D0F2881B501200000EF2B8010E39
:102688001C6EF2988B9017C01AF018C01BF0D890E7
:102698001B321A32D8901B321A32D8901B321A3297
:1026A8001A507F0B8009A9EC15F01738E846E00BA3
:1026B8001009A9EC15F01950A9EC15F08B801CB085
:1026C80002D0F29801D0F2881200000EF2B8010E82
:1026D800076EF2988B9002C004F003C005F0D89002
:1026E80005320432D89005320432D89005320432CB
:1026F80004507F0B8009B4EC15F00238E846E00B73
:10270800B4EC15F0F5EC15F0066E8B8007B002D02E
:10271800F29801D0F288065012009D901D6A1E6A38
:102728001A6ACECF1BF0CFCF1CF01B28D8B41C28B8
:1027380004E11A2A030E1A64F4D79EA004D01D2AB5
:102748005A28D8B41E2A5A501D265B501E269D8032
:102758001BC016F01CC017F01DC018F01EC019F0E1
:1027680012001BD019C01CF01CC01DF01E6A1D50A1
:10277800AA6E18C0A9FFA69EA69CA680FEEC15F01E
:1027880016C0D9FF17C0DAFFA8CFDFFF164A172AED
:102798001A06D8A01B06184A192A1B501A10D8B4B2
:1027A8001200E0D71E6E0A0E1E6403D01A0E1E64B5
:1027B80002D0000E17D01EC057F0020E186E176A0E
:1027C8001E50100DF350500F0309196E41EC13F011
:1027D800040E176E6D0E14EC15F0176A6D0E14ECDE
:1027E80015F0010E1200556E55500A0D0101080E24
:1027F800F324D96E010EF420DA6EDFAE10D05550F6
:102808000A0D000EF3240001E26F010EF420E36FBD
:10281800010EE46FE6C0E5F08DEC15F001D0000E76
:102828001200216E030E216401D018D021C0FDF0E2
:10283800FDC020F0203AF00E20160001AD510F0B1C
:102848002010AD6F176AFD0E166E60C018F061C0DB
:1028580019F01B6A010E1A6E8FEC12F01200186E36
:1028680018C017F018380F0B186E01016C0E1824D9
:10287800D96EDA6A010EDA22DF50E5EC15F017504E
:102888000F0B186E01016C0E1824D96EDA6A010E4E
:10289800DA22DF50E5EF15F0AAC019F0ABC01AF044
:1028A8001650192617501A22010E195C040E1A58D0
:1028B80002E3000E0CD01850D96EDA6AAAC0DEFF07
:1028C800ABC0DDFF1650AA271750AB23010E12002C
:1028D800D190F26AF16AF06A9368FD0E8B6ED00EA1
:1028E800946EC00EC76E200EC66E0F0EC16E040E1B
:1028F800896EF80E926E8B809490F292D08EF19C35
:10290800F28EF28CF80C206E1D6A2050D6EC13F073
:10291800000911E020C0C1F0176A0001C10E166E4F
:1029280064C018F065C019F01B6A010E1A6E8FECAE
:1029380012F0010E01D0000E12001B6A1B50182461
:10294800D96E000E1920DA6EDF501A6E1B5016244D
:10295800D96E000E1720DA6EDF501A1802E0000E4A
:1029680005D01B2A070E1B64E9D7010E12001B6E47
:102978001D6A1A5014E0010E1C6E03D0D8901A3646
:102988001C2A1AAEFBD7D8901D361A501B5C03E3DD
:102998001A501B5E1D80D8901A321C2EF4D71D5079
:1029A8001200216E0DD0120E0001C06F340EBF6FE1
:1029B80022682368BF0E1A6E220EEEEC12F005D0C4
:1029C8002150F1E0010AD8A4030A1200176E000E84
:1029D800F2B8010E196EF2988B901750A9EC15F009
:1029E800F0EC15F0186E8B8019B002D0F29801D077
:1029F800F28818501200026E000EF2B8010E046E32
:102A0800F2988B900250B4EC15F0F5EC15F0036ECB
:102A18008B8004B002D0F29801D0F28803501200E3
:102A2800186E000EF2B8010E196EF2988B901850BD
:102A3800A9EC15F01750A9EC15F08B8019B002D04D
:102A4800F29801D0F2881200036E000EF2B8010E5F
:102A5800046EF2988B900350B4EC15F00250B4EC6D
:102A680015F08B8004B002D0F29801D0F2881200E1
:102A7800176E080E186E196AD89017341934196E23
:102A8800D89017361650195C02E31650195E182EA6
:102A9800F3D719501200216EFF0E186E4B0E176EE9
:102AA8005FEC15F021501AEC12F0FE0E186E2D0E88
:102AB800176E63EF15F003D01950E5EC15F017C049
:102AC800F6FF18C0F7FF174A182A0800F5CF19F0C3
:102AD8001966F2D71200020E6A5C0BE26A504E0DBC
:102AE8000201000EF324D96E020EF420DA6E000EF5
:102AF800DF6E1200FF0E186E7A0E176E5FEC15F07F
:102B0800FF0E176EA00E166E186A010E196E02EFF0
:102B180016F0BFC0D3F0C0C0D4F0E3C0D6F0E2C016
:102B2800D5F0000ED76BE5C0D8F09EEF10F0556ECB
:102B3800BFC0D3F0C0C0D4F00001D66BD56BD76B43
:102B480055C0D8F0010E9EEF10F0166E9E96C95033
:102B5800C69E16C0C9FFC6BEFBD79EB61200FDD7DB
:102B6800016E9E96C950C69E01C0C9FFC6BEFBD75E
:102B78009EB61200FDD7948E949C240EAC6E900ED7
:102B8800AB6E330EAF6E330C3031323334353637EB
:102B98003839414243444546050ECD6E9E909D808E
:102BA800CD805A6A5B6A12005BEC03F00001010EEB
:102BB800AEA7000E1200186E17C016F0185000EFDE
:102BC80016F0166EACA2FED716C0ADFF120001FFBC
:102BD8001122334455661103000EA9EC15F0C950B3
:102BE8001200000EB4EC15F0C95012000001AE97A7
:102BF8006FEF15F000F01200120012001200120020
:022C0800FF00CB
:10FBB0000020B2202020B22020B220B2202020201D
:10FBC00020B220B20D0AB220B220B220B2202020F2
:10FBD000B22020B22020B220200D0AB22020B22074
:10FBE00020B220B220B22020B22020B220B20D0AD2
:10FBF000B22020B22020B220B22020B220B220B207
:10FC00002020B20D0AB22020B22020B220B2202043
:10FC100020B220B2202020B20D0A20202020202057
:10FC2000202020202020202020202020200D0AB26B
:10FC3000B2B22020B2B2B2B20D0AB22020B220B2CB
:10FC40002020200D0AB22020B220B2B2B2B20D0A9A
:10FC5000B22020B220B22020200D0AB2B2B2202061
:10FC6000B2B2B2B20D0A2020202020202020200D88
:10FC70000A000102030405060708090A0B0C0D0E11
:10FC80000F0D0A20202020202020202020202020AE
:10FC900020202020202020203220746F20756E69C3
:10FCA0006361737420656E63727970746564206D2E
:10FCB0006573736167652E204C4544203220776957
:10FCC0006C6C000D0A2020202020202020202020E5
:10FCD00020202020202020202020427574746F6E68
:10FCE000203120746F2062726F61646361737420CD
:10FCF0006D6573736167652E20507573682042755A
:10FD000074746F6E000D0A202020202020202020F7
:10FD1000202020202020202020202020506F7765C8
:10FD200072206F6E2074686520626F617264207546
:10FD30006E74696C204C45442031206C696768748E
:10FD400073207570000D0A20202020202020202004
:10FD5000202020202020202020202020746F2069B7
:10FD60006E64696361746520636F6E6E6563746948
:10FD70006E67207769746820706565722E205075F3
:10FD80007368000D0A202020202020202020202021
:10FD900020202020202020202020626520746F67F2
:10FDA000676C65642075706F6E2072656365697637
:10FDB000696E67206D657373616765732E20000D32
:10FDC0000A5374617274696E67204E6F64652031E6
:10FDD000206F662053696D706C652044656D6F20DF
:10FDE000666F72204D69576928544D292050325052
:10FDF00020537461636B202E2E2E000D0A0D0A43D2
:10FE00006F6E6E656374696F6E20202020205065D0
:10FE100065724C6F6E674164647265737320202055
:10FE2000202050656572496E666F0D0A0020697367
:10FE3000206E6F7420737570706F727465642069C2
:10FE40006E2063757272656E7420636F6E6669678B
:10FE500075726174696F6E2E0D0A00436F6E6E6568
:10FE60006374696E67205065657220206F6E204351
:10FE700068616E6E656C20256420000D0A202020CC
:10FE800020205246205472616E73636569766572F4
:10FE90003A204D524632344A34300053696D706C0A
:10FEA00065205032502044656D6F204D52463234EB
:10FEB0004A3430204E6F646520310020436F6E6EEF
:10FEC0006563746564205065657220206F6E204301
:10FED00068616E6E656C202564000D0A436F6E6E5E
:10FEE000656374696E672050656572206F6E20438C
:10FEF00068616E6E656C20000D0A436F6E6E6563FF
:10FF00007465642050656572206F6E204368616E71
:10FF10006E656C200042726F61646361737420507F
:10FF200061636B657420776974682052535349206C
:10FF300000556E6963617374205061636B65742052
:10FF400077697468205253534920000D0A53656C39
:10FF5000656374696F6E206F66206368616E6E659D
:10FF60006C20000D0A20202044656D6F20496E73BF
:10FF70007472756374696F6E3A000D0A556E696329
:10FF8000617374204661696C65640D0A000D0A0D89
:10FF90000A4D7920416464726573733A20307800A9
:10FFA00020556E6963617374204661696C656400F5
:10FFB0002020202020202020202020202000202061
:10FFC0004368616E6E656C3A2000202050414E49B6
:10FFD000443A20307800204368616E6E656C3A00C8
:10FFE0005365637572656420000D0A50414E4944A3
:10FFF0003A002066726F6D20000D0A0D0A000000A5
:020000040020DA
:08000000FFFFFFFFFFFFFFFF00
:020000040030CA
:0E000000FF061F10FF8081FF0FC00FE00F40B2
:00000001FF
