:04000000D2EF00F04B
:10000800D9CF18F0DACF19F0F3CF1AF0F4CF1BF0EC
:10001800F0B6F0A0B0D0F090620E4CEC1BF01D6E64
:100028001DA012D00001E091E0BDE09DDC6BDD6B0E
:10003800E0A30AD0480E4CEC1BF01C6E1CA002D0AA
:100048000001E0850001E0931DA68ED01F68206A9C
:1000580020504E0D0201000EF324D96E020EF4203A
:10006800DA6EDF5003E120C01FF004D0202A010E11
:100078002064EED7020E1F5C6FE2040E026E730E50
:1000880075EC1BF01F504E0D0201000EF324D96EC3
:10009800020EF420DA6E030E036E000E026A51ECB3
:1000A80019F0020FDF6E1F504E0D0201000EF324EF
:1000B800D96E020EF420DA6EDF50136E4D0E135C0B
:1000C80041E20001E08B010E206E1AD01F504E0D48
:1000D800000E136E020E146EF3501326F450142201
:1000E80020501324D96E000E1420DA6E000E20243E
:1000F800026E036A030E032251EC19F0DF6E202A08
:100108002050136E146A1F504E0D0201000EF32486
:10011800D96E020EF420DA6EDF50156E166A020EE2
:100128001526000E16221650800A176E1350155CFD
:100138001450800A1758CAE2010E026E1B0E75ECA5
:100148001BF005D0010E026E1B0E75EC1BF0026A47
:10015800730E75EC1BF008D0010E026E1B0E75ECC9
:100168001BF00001E097E0991DA805D0800E026EF3
:10017800590E75EC1BF09EB09DA005D09E90362AB6
:10018800366601D0372A72EC1CF01BC0F4FF1AC087
:10019800F3FF19C0DAFF18C0D9FF110006EF18F0F5
:1001A8006F0E7C6F96D38351250A09E06BC0D9FF87
:1001B8006CC0DAFF83C0DFFF6B4B6C2B8AD37E6B7E
:1001C8007F6B846B856B09D0848705D0848103D0CD
:1001D800858701D084856D4B6E2B6DC0F6FF6EC090
:1001E800F7FF0800F550200AF1E0030AF1E00E0AD3
:1001F800EBE01D0AEFE084B784956DC0F6FF6EC092
:10020800F7FF0800F55020EC1CF02EE37E6B7F6BA7
:100218007EC060F07FC061F0636B0A0E626FAFEC66
:100228001BF060C07EF061C07FF0D00E716F726904
:100238006DC0F6FF6EC0F7FF0800F550736F746B62
:10024800715173277251742373517E2774517F2320
:100258006D4B6E2B6DC0F6FF6EC0F7FF0800F550B2
:1002680020EC1CF014E3D4D76DC0F6FF6EC0F7FF86
:100278000800F5502A0A0BE17C51D96EDA6ADECF04
:100288007EF0DDCF7FF0020E7C276D4B6E2B6DC0AC
:10029800F6FF6EC0F7FF0800F5502E0A30E1858D95
:1002A8006D4B6E2B6DC0F6FF6EC0F7FF0800F55062
:1002B8002A0A0AE17C51D96EDA6ADF507D6F020E94
:1002C8007C276D4B6E2B8FD07D6B0FD06DC0F6FFEA
:1002D8006EC0F7FF0800F5CF71F07D510A0DF3509D
:1002E8007125D00F7D6F6D4B6E2B6DC0F6FF6EC004
:1002F800F7FF0800F55020EC1CF075E3E7D77D6B9D
:1003080072D0848D8ED0848B848F8BD07D510FE0FA
:100318007DC071F0726B71BF72078151715D82513E
:10032800725905E27D51816F826B81BF82077E51D0
:10033800815D7F51825907E220EE81F0DE507E5FB9
:10034800DD507F5B02D07E6B7F6B84A709D01DD008
:100358006BC0D9FF6CC0DAFF200EDF6E6B4B6C2BC5
:100368007E07D8A07F0700017E29D8B47F290DE039
:10037800EFD78051D96EDA6A6BC0E1FF6CC0E2FF3B
:10038800DFCFE7FF802B6B4B6C2B8107D8A0820750
:1003980000018129D8B48229ECE184B709D099D227
:1003A8006BC0D9FF6CC0DAFF200EDF6E6B4B6C2B75
:1003B8007E07D8A07F0700017E29D8B47F2901E1F4
:1003C80088D2EED77C51D96EDA6ADF50836F020E7D
:1003D8007C27830E806F000E826F010E816F96D787
:1003E800C00E84131ED06DC0F6FF6EC0F7FF6D4BB4
:1003F8006E2B0800F5CF83F00001835101E175D21F
:10040800580A81E03B0ADEE0070A0BE00D0A09E022
:10041800060A01E176D71A0AE3E00D0A01E174D76A
:10042800D8D784C071F0C00E711719E17C51D96E0C
:10043800DA6ADECF80F0DDCF81F0020E7C278151B1
:10044800800AF36E800EF35C000ED8B4805D10E273
:10045800030E8413806D811FD8B0812B09D07C5185
:10046800D96EDA6ADECF80F0DDCF81F0020E7C270C
:100478007D6753D08151801150E17D2B4ED0010E04
:10048800836F8351050A52E08351020D6B0EF324EA
:10049800F66EFB0EF420F76E0900F5CF71F0090037
:1004A800F5CF72F07151805D725181593FE3832B12
:1004B800E8D7010E836F8351040A38E08351020D97
:1004C800750EF324F66EFB0EF420F76E0900F5CFD7
:1004D80071F00900F5CF72F07151805D7251815948
:1004E80025E3832BE8D7010E836F8351060A1EE0AC
:1004F8008351020D5F0EF324F66EFB0EF420F76EA7
:100508000900F5CF71F00900F5CF72F07151805DE7
:10051800725181590BE3832BE8D78451C00BAFE0AC
:10052800400AE1E0C00AC5E0400AA9E08351800A18
:10053800716F7D51800A715D03E27DC083F009D03F
:100548007D51800A716F8351800A715DD8A083C084
:100558007DF07F517E1108E084C071F0030E7117A1
:1005680003E07E07D8A07F0785AD13D0800E7DBF3E
:100578007F0E716F7E517D5D7F51800A715907E250
:100588007D517E5F000E7DBFFF0E7F5B02D07E6BCC
:100598007F6BC40E716F080E726F84C073F085C0D4
:1005A80074F071517317725174177451080A400E20
:1005B800D8B4731907E17F517E1124E07E07D8A0D3
:1005C8007F0720D0C00E716F080E726F84C073F061
:1005D80085C074F071517317725174177451080AF9
:1005E800800ED8B473190EE17F51800A800F030E74
:1005F800D8B47E5D05E3FE0E7E27FF0E7F2302D072
:100608007E6B7F6B800E83BF7F0E716F7E51835D23
:100618007F51800A715907E283517E5F000E83BFC4
:10062800FF0E7F5B02D07E6B7F6B84A550D084C0A9
:1006380071F0030E711709E06BC0D9FF6CC0DAFFC7
:100648002D0EDF6E6B4B6C2B31D084A106D06BC0A6
:10065800D9FF6CC0DAFF200EF4D7C00E716F080EF8
:10066800726F84C073F085C074F071517317725142
:1006780074177451080A800ED8B4731917E16BC047
:10068800D9FF6CC0DAFF300EDF6E6B4B6C2B84BB6E
:1006980003D0776B780E02D0776B580E766F6BC0ED
:1006A800D9FF6CC0DAFF76C0DFFFCCD77F517E114F
:1006B80001E1F3D06BC0D9FF6CC0DAFF300EDF6EFA
:1006C8006B4B6C2B7E07D8A07F070001EFD77F51BB
:1006D8007E11D8A484B70FD06BC0D9FF6CC0DAFFE5
:1006E800200EDF6E6B4B6C2B7E07D8A07F070001B6
:1006F8007F517E11F1E184C071F0030E711709E09A
:100708006BC0D9FF6CC0DAFF2D0EDF6E6B4B6C2B04
:1007180008D084A106D06BC0D9FF6CC0DAFF200EC8
:10072800F4D7C00E716F080E726F84C073F085C065
:1007380074F071517317725174177451080A400E8E
:10074800D8B4731909E16BC0D9FF6CC0DAFF300E59
:10075800DF6E6B4B6C2BA1D0C00E716F080E726FE1
:1007680084C073F085C074F0715173177251741797
:100778007451080A800ED8B4731901E08ED06BC08A
:10078800D9FF6CC0DAFF300EDF6E6B4B6C2B84BB6D
:1007980003D0796B780E02D0796B580E786F6BC0E6
:1007A800D9FF6CC0DAFF78C0DFFFD3D77D51020DC7
:1007B8006B0EF324F66EFB0EF420F76E0900F5CFEE
:1007C80062F00A00F5CF63F080C060F081C061F08C
:1007D8009FEC19F060C067F061C068F06A6B0A0EA0
:1007E800696F63EC1AF0675145D080C060F081C032
:1007F80061F07D51020D750EF324F66EFB0EF420A8
:10080800F76E0900F5CF62F00A00F5CF63F09FECB0
:1008180019F060510F0B756F84BB04D0FF0E7B6F0E
:10082800650E03D0FF0E7B6F540E7A6F75517A25D3
:10083800716F000E7B21726F71C0F6FF72C0F7FFF7
:100848000800F5CF83F022D080C060F081C061F04D
:100858007D51020D5F0EF324F66EFB0EF420F76E49
:100868000900F5CF62F00A00F5CF63F09FEC19F0AC
:100878006051070B300F836F09D08451C00B96E08D
:10088800400AE2E0C00AB1E0400A90E06BC0D9FF3C
:100898006CC0DAFF83C0DFFF5CD77D0700017D29CC
:1008A800ECE184A716D07F51800A800F010ED8B4DE
:1008B8007E5D0FE36BC0D9FF6CC0DAFF200EDF6EE0
:1008C8006B4B6C2B7E07D8A07F0700017F517E11F0
:1008D800F1E16DC0F6FF6EC0F7FF6D4B6E2B08009F
:1008E800F5CF83F0000183675ED46BC0D9FF6CC07D
:1008F800DAFF000EDF6E000C81A2F080E0A10BD0C1
:10090800400EDC5D000EDD5904E3DC6BDD6BE0912D
:1009180002D0DC4BDD2BFD699F6B9F514E0D000E05
:10092800F324D96E020EF420DA6EDF5003E09FC084
:10093800FDF005D000019F2B010E9F65EED7020E3A
:100948000001FD5D01E30DD2010E9A6FFD514E0DC0
:10095800010EF324D96E020EF420DA6EDF50956F83
:1009680095AD9A6BE46BEC6BFD514E0D020EF324C2
:10097800D96E020EF420DA6EDF50CC0B996FF2D1EB
:10098800FD514E0D060EF324D96E020EF420DA6ED8
:10099800FF0EDF620DD00001FD514E0D070EF3244E
:1009A800D96E020EF420DA6EFF0EDF6201D0E48504
:1009B8000001E48F9A512FE0FD514E0D040EF324EF
:1009C800D96E020EF420DA6EDF50ED6FFD514E0D38
:1009D800050EF324D96E020EF420DA6EDF50EE6FA6
:1009E800FD514E0D080EF324E56F020EF4200001B0
:1009F800E66FFD514E0D000EF324D96E020EF42061
:100A0800DA6EDF50ED0FE96FFD514E0D100EF32435
:100A1800E76F020E3FD1FD514E0D080EF324D96E3B
:100A2800020EF420DA6EDF500001ED6FFD514E0D1D
:100A3800090EF324D96E020EF420DA6EDF50EE6F41
:100A4800FD514E0D0A0EF324E56F020EF42000014D
:100A5800E66FFD514E0D000EF324D96E020EF42000
:100A6800DA6EDF50EB0FE96FFD514E0D120EF324D5
:100A7800E76F020E0FD1E48F9A512FE0FD514E0D12
:100A8800040EF324D96E020EF420DA6EDF50000152
:100A9800ED6FFD514E0D050EF324D96E020EF420B4
:100AA800DA6EDF50EE6FFD514E0D0E0EF324E56F3A
:100AB800020EF420E66FFD514E0D000EF324D96EA0
:100AC800020EF420DA6EDF50E70FE96FFD514E0D8C
:100AD800160EF324E76F020EDDD0FD514E0D0E0EFB
:100AE800F324D96E020EF420DA6EDF500001ED6FA8
:100AF800FD514E0D0F0EF324D96E020EF420DA6E5E
:100B0800DF50EE6FFD514E0D100EF324E56F020E0F
:100B1800F420E66FFD514E0D000EF324D96E020E3F
:100B2800F420DA6EDF50E50FE96FFD514E0D180E17
:100B3800F324E76F020EAED0E485E48F010EEC6F6C
:100B4800FD514E0D040EF324D96E020EF420DA6E18
:100B5800DF500001ED6FFD514E0D050EF324D96EE7
:100B6800020EF420DA6EDF50EE6FFD514E0D060EC8
:100B7800F324E56F020EF420E66FFD514E0D000ED2
:100B8800F324D96E020EF420DA6EDF50F50F00015F
:100B9800E96FFD514E0D080EF324E76F020E7AD06F
:100BA800FD514E0D060EF324D96E020EF420DA6EB6
:100BB800FF0EDF620DD00001FD514E0D070EF3242C
:100BC800D96E020EF420DA6EFF0EDF6201D0E485E2
:100BD8000001E48F010EEC6F9A672ED0FD514E0D87
:100BE800080EF324D96E020EF420DA6EDF50ED6F92
:100BF800FD514E0D090EF324D96E020EF420DA6E63
:100C0800DF50EE6FFD514E0D0A0EF324E56F020E14
:100C1800F420E66FFD514E0D000EF324D96E020E3E
:100C2800F420DA6EDF50F10FE96FFD514E0D0C0E16
:100C3800F324E76F020E2ED0FD514E0D040EF3245F
:100C4800D96E020EF420DA6EDF500001ED6FFD510F
:100C58004E0D050EF324D96E020EF420DA6EDF5025
:100C6800EE6FFD514E0D080EF324E56F020EF420D1
:100C7800E66FFD514E0D000EF324D96E020EF420DE
:100C8800DA6EDF50F30FE96FFD514E0D0A0EF324B3
:100C9800E76F020EF4200001E86F76D0E48F010EB2
:100CA800EC6F9A511CE0FD514E0D040EF324D96EE1
:100CB800020EF420DA6EDF500001ED6FFD514E0D8B
:100CC800050EF324D96E020EF420DA6EDF50EE6FB3
:100CD800FD514E0D0D0EF324E56F020E87D6FD5122
:100CE8004E0D0D0EF324D96E020EF420DA6EDF508D
:100CF8000001ED6FFD514E0D0E0EF324D96E020E5C
:100D0800F420DA6EDF50EE6FFD514E0D0F0EF32416
:100D1800E56F020E9BD6FD514E0D060EF324D96EDB
:100D2800020EF420DA6EFF0EDF620DD00001FD51D5
:100D38004E0D070EF324D96E020EF420DA6EFF0E64
:100D4800DF6201D0E4850001FD514E0D000EF32451
:100D5800D96E020EF420DA6EDF50F60F18D7C2EC07
:100D68001BF0000C9951080AD6E0880A01E1E4D684
:100D7800080A01E115D7040A91E0440A01E100D606
:100D8800040A01E178D6EBD7FD514E0D010EF3248C
:100D9800D96E020EF420DA6EDF500001956F95A728
:100DA800A7D0C00E995DDBE3E7C0D9FFE8C0DAFF42
:100DB800DF509B6F20EE01F0E751D926E851DA2287
:100DC800DF509C6F20EE02F0E751D926E851DA2275
:100DD800DF509D6F20EE03F0E751D926E851DA2263
:100DE800DF509E6F9F6B9F510A0D1C0EF324D96E26
:100DF800010EF420DA6EDFAE11D000019F510A0D0A
:100E0800140EF324606F010EF420616FE6C063F0E6
:100E1800E5C062F006EC1BF0000905E100019F2B1C
:100E2800040E9F65E0D7050E9F5D2BE29F51040DD0
:100E3800000EF324D96E010EF420DA6EDECF95F0A1
:100E4800DECF96F0DECF97F0DECF98F00001955117
:100E58009B5D96519C5997519D5998519E5901E215
:100E68007ED79F51040D000EF324D96E010EF42095
:100E7800DA6E9BC0DEFF9CC0DEFF9DC0DEFF9EC019
:100E8800DEFF050EE95FE7257B6F000EE8217C6F2A
:100E9800E90E7D6FE6C07FF0E5C07EF09BC080F074
:100EA8009CC081F09DC082F09EC083F0FD514E0D24
:100EB800010EF324D96E020EF420DA6EDF50000121
:100EC800846F36EC0CF0000901E149D7050E0001EA
:100ED800E727000EE823E4870BD0FC0EE4171FD0A9
:100EE800E451FC0B0109E46F1AD0030EE41317D088
:100EF800FD514E0D010EF324D96E020EF420DA6E68
:100F0800DF50070B0001956F966B965101E027D7CC
:100F18009551EBE0010AE1E0020AE2E020D7FD5139
:100F28004E0D000EF324D96E020EF420DA6EDF5057
:100F38000001956FFD514E0DFF0E966F010E976FD4
:100F4800F3509627F450972395519625D96E000EA5
:100F58009721DA6EDF50EB6FFD514E0D000EF32432
:100F6800D96E020EF420DA6EDF50956FFD514E0DEA
:100F7800000E966F020E976FF3509627F450972342
:100F880095519625D96E000E9721DA6EDF50EA6FDB
:100F9800010C0001E2A32ED079EC19F060C0C1F079
:100FA80061C0C2F062C0C3F063C0C4F0D851C15D73
:100FB800BD6FD951C259BE6FDA51C359BF6FDB51EA
:100FC800C459C06F910EBD5DD00EBE59030EBF59F6
:100FD800000EC0590FE3E293010E0001616F140E79
:100FE800606F3AC062F03BC063F0656B320E646FAD
:100FF800ADEC16F00001E2B7120080EC04F0000935
:10100800D8B412000001CE6BE4A503D0BD6BBD2B94
:1010180001D0BD6BCE51BD19FC0BBD19CE6FE4A735
:1010280002D0CE8702D00001CE97E451030BBD6FEA
:10103800BD05010ED8A4000EBE6FBE3BBE47CE5103
:10104800BE19DF0BBE19CE6FE4AF02D0CE8D02D031
:101058000001CE9DE4AF04D0E6C0D2F0E5C0D1F0E7
:10106800EDC0CFF0EEC0D0F0E9C0D5F0E8C0D4F0C4
:10107800E7C0D3F0EBC0D7F0EAC0D6F0CEBBD5D1ED
:10108800E8D120EE01F0D351D926D451DA22DF502D
:10109800FB1903E0C2EC1BF0DDD1FE51030AFAE0B4
:1010A800CF29D8B4D02911E020EECFF0DE52F85184
:1010B800DD18F7C0E8FFD8B4DF1807E020EED5F058
:1010C800020EDF6402D0F20E02D08CEC13F0C76F70
:1010D800FE0507E1C70505E0C751020A02E0F30E65
:1010E800C76FE36B460E0001E325D96EDA6A010E7D
:1010F800DA22910EDF6EE32B460EE325D96EDA6A0B
:10110800010EDA22C7C0DFFFE32BC75102E0C70593
:101118001CE1460E0001E325D96EDA6A010EDA22D7
:10112800E1C0DFFFE32BC86BC851FC0FD96EDA6A48
:10113800460E0001E325E16EE26A010EE222DFCFEE
:10114800E7FFE32BC82BC851EFE0C2EC1BF0CFC080
:10115800ADF0D0C0AEF00001D2C0B0F0D1C0AFF059
:10116800010EB16F000ECEB7010EB26F000EFDEC8E
:1011780015F0C7676FD1DF510A0D140EF324000173
:10118800606F010EF420616FDF510A0D3A50F324AD
:10119800626F3B50F420636F656B0A0E646FADECB1
:1011A80016F058D1020EFE6501D074D720EE01F07A
:1011B800D351D926D451DA22DF50FB1901E06AD77E
:1011C800E36B460E0001E325D96EDA6A010EDA22D6
:1011D800970EDF6EE32B460EE325D96EDA6A010E11
:1011E800DA22E1C0DFFFE32BC86BC851FC0FD96ED0
:1011F800DA6A460E0001E325E16EE26A010EE22298
:10120800DFCFE7FFE32BC82BC851EFE0C2EC1BF0A0
:10121800CFC0ADF0D0C0AEF00001D2C0B0F0D1C0A8
:10122800AFF0010EB16F000ECEB7010EB26F000E17
:10123800FDEC15F00FD1E36B460E0001E325D96EE6
:10124800DA6A010EDA22920EDF6EE32BC86BC85100
:101258000A0D1C0EF324D96E010EF420DA6EDFAEEF
:101268003BD00001D2C061F0D1C060F0C8510A0D76
:10127800140EF324626F010EF420636F06EC1BF06A
:1012880000092AE0C8510A0D1C0EF324D96E010E7C
:10129800F420DA6EDF6A0001C8510A0D140EF32437
:1012A800606F010EF420616FC8510A0D3A50F324A3
:1012B800626F3B50F420636F656B0A0E646FADEC90
:1012C80016F0460E0001E325D96EDA6A010EDA221D
:1012D800000EDF6AE32B05D00001C82B040EC86599
:1012E800B6D7C2EC1BF00001C851050A09E1460E49
:1012F800E325D96EDA6A010EDA22F00EDF6EE32BEF
:10130800CFC0ADF0D0C0AEF0D2C0B0F0D1C0AFF019
:10131800010EB16F000ECEB7010EB26F000EFDECDC
:1013280015F098D0F729D8B4F82918E1CFC0F7F00C
:10133800D0C0F8F0C569C669F70E626FC50ED1EC6A
:1013480018F00001616BF70E606F3EC062F03FC09D
:1013580063F0656B020E646FADEC16F08CEC13F065
:10136800E28379EC19F060C0D8F061C0D9F062C0AE
:10137800DAF063C0DBF08ED620EE01F0D351D92627
:10138800D451DA22DF50CEE0010ACCE083D6E2BBAA
:10139800E29B80D620EE01F0D351D926D451DA222F
:1013A800DF5001E077D6C86BC8510A0D1C0EF32434
:1013B800D96E010EF420DA6EDFAE31D00001D2C052
:1013C80061F0D1C060F0C8510A0D140EF324626FA9
:1013D800010EF420636F06EC1BF0000920E0C851F1
:1013E8000A0D1C0EF324D96E010EF420DA6EDF6AA2
:1013F8000001C8510A0D140EF324606F010EF42089
:10140800616FC8510A0D3A50F324626F3B50F420C3
:10141800636F656B0A0E646FADEC16F03BD6000186
:10142800C82B040EC865C0D735D6D3C0D9FFD4C0E1
:10143800DAFFDF50810A01E124D6030A01E1FBD675
:10144800050A01E1AFD6160A97E0030AA3E0050AE8
:101458009EE0E2870001D551D8A4E2B902D0E2AB00
:101468001200E297C2EF1BF0AC6B92A502D0010EFE
:10147800956F92B7966B9251030B9C6F9C0502E196
:10148800030E04D09251030B02E1010EA96F20EE66
:1014980097F0DE52F451DD18F3C0E8FFD8B4DF1836
:1014A8000AE1F329D8B4F42906E0050EAA6FA98D3C
:1014B800010EA86F03D0070EAA6FA86B9551020EF4
:1014C800D8B4080EAA279651020ED8B4080EAA2737
:1014D80092BB92B501D0A98B9251030B030A07E185
:1014E800A96B070EAA6FA86B010E966F929B92A725
:1014F80013D0A9879AC07CF099C07BF09B0E7D6FB2
:10150800EFC07EF0F0C07FF0F1C080F0F2C081F053
:10151800A9C082F0CAEC0DF0000E0001616B606B8F
:10152800AAC062F027EC19F00001AC2B92A70CD0EE
:10153800ACC060F0616BAA519B25050F626F27EC68
:1015480019F00001AC2B09D0ACC060F0616BAA5156
:101558009B25626F27EC19F0F4D7ACC060F0616B83
:10156800A9C062F027EC19F00001AC2B9251030BD3
:10157800030A13E1ACC060F0616B800E626F27EC68
:1015880019F00001AC2BACC060F0616BDEC062F0FA
:1015980027EC19F00001DE2B5DD095510CE0965137
:1015A8000AE0ACC060F0616B880E626F27EC19F03E
:1015B8000001AC2B20D095510AE0966708D0ACC04A
:1015C80060F0616BC80E626F27EC19F0F1D7956770
:1015D8000AD0960508E1ACC060F0616B8C0E626FB2
:1015E80027EC19F0E5D7ACC060F0616BCC0E626FE8
:1015F80027EC19F0DDD7ACC060F0616BDEC062F09B
:1016080027EC19F00001DE2BAC2BACC060F0616B4D
:1016180097C062F027EC19F00001AC2BACC060F069
:10162800616B98C062F027EC19F00001AC2B92A511
:1016380013D0ACC060F0616BFF0E626927EC19F043
:101648000001AC2BACC060F0616BFF0E626927EC47
:1016580019F01ED0AC2B32D095511CE0ACC060F014
:10166800616B93C0D9FF94C0DAFFDF50626F27EC3B
:1016780019F00001AC2BACC060F0616B20EE01F0FA
:101688009351D9269451DA22DF50626F27EC19F072
:101698000001E0D7AB6BACC060F0616BAB51932538
:1016A800D96E000E9421DA6EDF50626F27EC19F0C4
:1016B8000001AC2BAB2B070EAB65EDD7A86712D09A
:1016C800ACC060F0616BF3C062F027EC19F0000168
:1016D800AC2BACC060F0616BF4C062F027EC19F081
:1016E8000001AC2B965113E0ACC060F0616BF5C003
:1016F80062F027EC19F00001AC2BACC060F0616B14
:10170800F6C062F027EC19F00001AC2B14D0AB6BDB
:10171800ACC060F0616BAB512C24D96E000E2D204B
:10172800DA6EDF50626F27EC19F00001AC2BAB2B9F
:10173800070EAB65EDD792A734D0AB6BACC060F0A9
:10174800616BAB51EF0FD96EDA6ADF50626F27EC2D
:1017580019F00001AC2BAB2B030EAB65EFD7EF2BC9
:10176800000EF023F123F223EF6711D0F0C09CF0B4
:10177800030E9C170CE1616BEF0E606FF9C062F00D
:10178800FAC063F0656B040E646FADEC16F00001EF
:10179800ACC060F0616B000E626B27EC19F00001C1
:1017A800AC2BAB6B10D0ACC060F0616BAB51992522
:1017B800D96E000E9A21DA6EDF50626F27EC19F0AD
:1017C8000001AC2BAB2B9B51AB5DEDE3E08192BBF1
:1017D80092B504D0050EAB6FE08303D0010EAB6F5A
:1017E800E093ABC022F0370E36EC1BF079EC19F021
:1017F80060C0A0F061C0A1F062C0A2F063C0A3F015
:1018080081A2F080E0B104D0E0A5010CE095000CC5
:1018180079EC19F060C0A4F061C0A5F062C0A6F030
:1018280063C0A7F0A051A45D9C6FA151A5599D6FFD
:10183800A251A6599E6FA351A7599F6F110E9C5D87
:10184800270E9D59000E9E59000E9F59D9E32BEC87
:1018580010F00001F30E626FF50ED1EC18F00001E4
:10186800E091000C010E226E1B0E36EC1BF0040EEC
:10187800226E730E36EC1BF00001616B606B0D0E6F
:10188800626F27EC19F00001616B010E606F7D51EA
:10189800D96EDA6ADF500F0F626F27EC19F000017A
:1018A800936B020E926F616B606F84C062F027ECDD
:1018B80019F00001924B932B92C060F093C061F035
:1018C80080C062F027EC19F00001924B932B92C074
:1018D80060F093C061F081C062F027EC19F000015C
:1018E800924B932B92C060F093C061F082C062F07B
:1018F80027EC19F00001924B932B92C060F093C033
:1019080061F083C062F027EC19F00001924B932B31
:10191800946B92C060F093C061F094517E25D96EAB
:10192800000E7F21DA6EDF50626F27EC19F000019C
:10193800924B932B942B070E9465EBD7946B12D094
:1019480092C060F093C061F094517B25D96E000E6F
:101958007C21DA6EDF50626F27EC19F00001924BA0
:10196800932B942B7D51D96EDA6ADF50945DE8E3AE
:10197800020E936F4C0E926F946B92C060F093C0FE
:1019880061F094517E25D96E000E7F21DA6EDF500A
:10199800626F27EC19F000019207D8A09307942BE7
:1019A800070E9465EAD7946B92C060F093C061F01B
:1019B8009451800FD96EDA6ADF50626F27EC19F004
:1019C80000019207D8A09307942B030E9465ECD7D7
:1019D80092C060F093C061F0040E626F27EC19F0BA
:1019E80000019207D8A09307020E936F800E926FA2
:1019F800946B92C060F093C061F04F0E9425F66E20
:101A0800F76AFB0EF7220800F5CF62F027EC19F011
:101A18000001924B932B942B0F0E9465EAD7800EFE
:101A2800226E6F0E36EC1BF0040E226E590E36EC49
:101A38001BF00001E08DE081030E226E370E36ECBC
:101A48001BF079EC19F060C089F061C08AF062C0BF
:101A58008BF063C08CF02FD081A2F08079EC19F064
:101A680060C08DF061C08EF062C08FF063C090F0EE
:101A780089518D5D856F8A518E59866F8B518F592B
:101A8800876F8C519059886F910E855DD00E86595D
:101A9800030E8759000E88590EE32BEC10F0000155
:101AA800656B325025EC1AF00001F30E626FF50EEB
:101AB800D1EC18F0000CE0BDCFD7600E1EEC1BF087
:101AC800916F91AD0FD0400E226E610E36EC1BF077
:101AD800226A730E36EC1BF0010E226E1B0E36ECDA
:101AE8001BF0000C7D51D96EDA6A616B010E606FD4
:101AF800FCEC18F0F30FDF6E15D07D51D96EDA6A61
:101B0800120E0ED07D51D96EDA6A0A0E09D07D51B7
:101B1800D96EDA6A060E04D07D51D96EDA6A020EE1
:101B2800DF5E0FD0040E010AF7E0030AE6E0010ABF
:101B3800E9E0070AECE0010AE0E0030AE3E0010A51
:101B4800E6E0936B0F0E926F946B10D094517B2547
:101B5800D96E000E7C21DA6E92C060F093C061F0FD
:101B6800FCEC18F0DF6E924B932B942B7D51D96EC1
:101B7800DA6ADF50945DEAE3226A730E36EC1BF0F2
:101B8800010E226E1B0E36EC1BF0010C010E226EAC
:101B98001B0E36EC1BF0040E226E730E36EC1BF097
:101BA8000001616B606B0D0E626F27EC19F000018C
:101BB800616B010E606F7D51D96EDA6ADF500D0FCF
:101BC800626F27EC19F00001906B020E8F6F616B4A
:101BD800606F82C062F027EC19F000018F4B902BE8
:101BE8008FC060F090C061F07EC062F027EC19F001
:101BF80000018F4B902B8FC060F090C061F07FC0C8
:101C080062F027EC19F000018F4B902B8FC060F029
:101C180090C061F080C062F027EC19F000018F4B92
:101C2800902B8FC060F090C061F081C062F027EC0B
:101C380019F000018F4B902B916B8FC060F090C012
:101C480061F091512C24D96E000E2D20DA6EDF50F0
:101C5800626F27EC19F000018F4B902B912B070E28
:101C68009165EBD7916B12D08FC060F090C061F096
:101C780091517B25D96E000E7C21DA6EDF50626FA0
:101C880027EC19F000018F4B902B912B7D51D96EC9
:101C9800DA6ADF50915DE8E3020E906F4C0E8F6FA9
:101CA800916B8FC060F090C061F091512C24D96E77
:101CB800000E2D20DA6EDF50626F27EC19F000015C
:101CC8008F07D8A09007912B070E9165EAD7916BE3
:101CD8008FC060F090C061F091517E0FD96EDA6AC2
:101CE800DF50626F27EC19F000018F07D8A090072A
:101CF800912B030E9165ECD78FC060F090C061F016
:101D0800040E626F27EC19F000018F07D8A0900726
:101D1800020E906F800E8F6F916B8FC060F090C035
:101D280061F04F0E9125F66EF76AFB0EF722080058
:101D3800F5CF62F027EC19F000018F4B902B912B17
:101D48000F0E9165EAD7400E226E6F0E36EC1BF02F
:101D5800040E226E590E36EC1BF00001E08D030EC6
:101D6800226E370E36EC1BF079EC19F060C087F064
:101D780061C088F062C089F063C08AF029D081A26E
:101D8800F08079EC19F060C08BF061C08CF062C013
:101D98008DF063C08EF087518B5D836F88518C59AD
:101DA800846F89518D59856F8A518E59866F910E2E
:101DB800835DD00E8459030E8559000E865908E3B9
:101DC8002BEC10F00001F30E626FF50ED1EF18F056
:101DD800E0BDD5D77D51D96EDA6A616B010E606FAF
:101DE800FCEC18F0F30FDF6E906B0F0E8F6F916B9A
:101DF80010D091517B25D96E000E7C21DA6E8FC0F0
:101E080060F090C061F0FCEC18F0DF6E8F4B902B07
:101E1800912B7D51D96EDA6ADF50915DEAE3226A2F
:101E2800730E36EC1BF0010E226E1B0E36EF1BF004
:101E380000016B6F050E6B6532D0FF0E616F410EAE
:101E4800606FE4EC1BF000016D6B6D51A608D96E54
:101E5800000ED8A0E82A01010108DA6EDF5044EC30
:101E68001AF000016D2B070E6D65EFD7FF0E616F3D
:101E7800C20E606FE4EC1BF00001F85144EC1AF05C
:101E88000001F75144EC1AF0FF0E0001616FB60E25
:101E9800606FE4EC1BF00001FB51C6EC17F0050E77
:101EA80000016B5D67E2FC0E616FF90E606FE4EC98
:101EB8001BF000016B510A0D01011C0EF324D96EB1
:101EC800010EF420DA6EDFAE120000016B5144EC13
:101ED8001AF0FF0E0001616FA80E606FE4EC1BF0B2
:101EE80000016D6B080E6D5D15E26B510A0D1B0E3E
:101EF800696F010E6A6FF3506927F4506A236D51B8
:101F0800695DD96E6A51D8A06A05DA6EDF5044EC73
:101F18001AF006D0FF0E616FB30E606FE4EC1BF091
:101F280000016D2B070E6D65DDD7FF0E616FB10ED9
:101F3800606FE4EC1BF000016D6B6B510A0D1D0E18
:101F4800696F010E6A6FF3506927F4506A236D5167
:101F58006925D96E000E6A21DA6EDF5044EC1AF05A
:101F680000016D2B6D51E9E0FF0E616FF30E606F9C
:101F7800E8EF1BF0FC0E616FF70E606FE4EC1BF0EE
:101F880000016D6B6D510A0D1C0EF324D96E010E04
:101F9800F420DA6EDFAE55D000016D5144EC1AF032
:101FA800FF0E0001616FA80E606FE4EC1BF00001EA
:101FB8006C6B080E6C5D15E26D510A0D1B0E696F96
:101FC800010E6A6FF3506927F4506A236C51695DFA
:101FD800D96E6A51D8A06A05DA6EDF5044EC1AF05F
:101FE80006D0FF0E616FB30E606FE4EC1BF00001CA
:101FF8006C2B070E6C65DDD7FF0E616FB10E606F3D
:10200800E4EC1BF000016C6B6D510A0D1D0E696F3D
:10201800010E6A6FF3506927F4506A236C516925E1
:10202800D96E000E6A21DA6EDF5044EC1AF0000116
:102038006C2B6C51E9E0FF0E616FF30E606FE4ECFE
:102048001BF000016D2B040E6D659CD7040C8C9E53
:10205800030E706F716B726B736B19D04D0E686FD6
:10206800010E696F6A6B6B6B6807000E695B6A5BD0
:102078006B5B00016829D8B46929D8B46A29D8B437
:102088006B29F2E17007000E715B725B735B735131
:10209800701171117211E2E18C8E0A0E746F756BFA
:1020A800766B776B19D04D0E6C6F010E6D6F6E6B82
:1020B8006F6B6C07000E6D5B6E5B6F5B00016C29CC
:1020C800D8B46D29D8B46E29D8B46F29F2E1740751
:1020D800000E755B765B775B77517411751176111D
:1020E800E2E1070E226E550E36EC1BF0540E1EEC84
:1020F8001BF07A6F7AC067F0070E6717F7E1786B05
:10210800796B784B792BE80E785D030E7959F9E3F2
:10211800010E226E1B0E36EC1BF02268070E36EC01
:102128001BF02268090E36EC1BF02268030E36EC11
:102138001BF02268050E36EC1BF000017A6B7A5111
:102148002C24D96E000E2D20DA6EDF50226E7A51C3
:10215800020DF3500B0F36EC1BF000017A2B070E23
:102168007A65EDD7020E616F606F800E626F27ECA3
:1021780019F0020E0001616F030E606F000E626BB2
:1021880027EC19F0020E0001616F060E606F900EC9
:10219800626F27EC19F0020E0001616F070E606F85
:1021A800800E626F27EC19F0020E0001616F080EB5
:1021B800606F100E626F27EC19F0020E0001616F5C
:1021C800200E606F210E626F27EC19F0800E226ED0
:1021D800750E36EC1BF0400E226E7D0E36EC1BF0B1
:1021E800600E226E7F0E36EC1BF0980E226E310EBA
:1021F80036EC1BF0950E226E5D0E36EC1BF0020ECF
:102208000001616F0F0E606FFCEC18F07A6F7AC0F6
:1022180067F0A00E67176751A00AF1E1E60E226E7B
:10222800650E36EC1BF0020E0001616F606B030E49
:10223800626F27EC19F0020E0001616F010E606FEA
:10224800020E626F27EC19F00001656B325025EF22
:102258001AF00001816FA4EC18F0E26B856B8551D0
:102268000A0D1C0EF324D96E010EF420DA6EDF6A13
:102278000001852B040E8565F2D785EC1CF0E36B15
:10228800856B8551040D000EF324D96E010EF420E0
:10229800DA6EDE6ADE6ADE6ADD6A0001852B040E0C
:1022A8008565EFD7815153E0616BFB0E606F3CC0D1
:1022B80062F03DC063F0656B010E646F75EC18F059
:1022C8001F0E0001FB6501D01F0C616BF70E606FDC
:1022D8003EC062F03FC063F0656B020E646F75EC40
:1022E80018F00001616BFE0E606F38C062F039C0F3
:1022F80063F0656B010E646F75EC18F0010E000158
:10230800616F140E606F3AC062F03BC063F0656B9A
:10231800320E646F75EC18F0FF0E0001616FE10E6C
:10232800606FE4EC1BF00001F85144EC1AF0000176
:10233800F75144EC1AF0FF0E0001616FCE0E606F8A
:10234800E4EC1BF00001FB5144EC1AF038D0120EFB
:10235800F86F340EF76F616BF70E606F3EC062F076
:102368003FC063F0656B020E646FADEC16F00001C0
:10237800616BFB0E606F3CC062F03DC063F0656B43
:10238800010E646FADEC16F00001616BFE0E606F1C
:1023980038C062F039C063F0656B010E646FADEC54
:1023A80016F0010E0001616F140E606F3AC062F002
:1023B8003BC063F0656B320E646FADEC16F0010E36
:1023C8000001846F9F0E836F82838251870B4009BF
:1023D800826F81B102D0829502D0000182858291FC
:1023E80082C07BF083C07CF084C07DF057EC16F08F
:1023F80000017F698069F70E626F7F0ED1EC18F0DB
:102408000001FB51EEEC1AF00001E16BE181E1877C
:10241800FE39F00BE113F08612000101B66BB76BC1
:10242800B96BB86BFFEC16F07CEC1CF023EC15F0E4
:1024380089948996000E2DEC11F0190EEEEC1AF025
:10244800000905E1190E9CEC1BF0D2EF00F0000E1C
:1024580082EC1AF000018B6B190E42EC18F00001A7
:10246800C96BFF0EE6EC12F00101BA6FBA2907E05A
:10247800010E00018B6F190E42EC18F00AD00A0EFB
:102488000001646F000E656B666B676B686B89ECA7
:102498001BF0FF0E1CEC0FF0898468EC1CF094EC28
:1024A8001CF000090DE094EC15F00101B82BB8C13F
:1024B80088F0B9518DEC1CF08976AAEC1CF0EFD7A6
:1024C80042EC17F00101B56F77D00001E36B010111
:1024D800BA6B060E216EB65161EC1BF0150D8F0E0E
:1024E8000101B36FFA0EB46FF350B327F450B4235D
:1024F800BA51B327000EB423B3C1F6FFB4C1F7FF36
:10250800460E0001E325D96EDA6A010EDA220800C8
:10251800F5CFDFFFE32B0101BA2B140EBA65D9D72B
:10252800B62B000E12EC1CF0B8C188F00101B92BD3
:10253800B9518DEC1CF0B3D70001E36B0101BA6B04
:10254800060E216EB75161EC1BF00B0D0D0E01014B
:10255800B36FFB0EB46FF350B327F450B423BA51E2
:10256800B327000EB423B3C1F6FFB4C1F7FF460E7C
:102578000001E325D96EDA6A010EDA220800F5CFE8
:10258800DFFFE32B0101BA2B0A0EBA65D9D7B72BA7
:10259800010E0001C16F000E9FEC1AF0000903E163
:1025A800D3EC1BF002D00101B92BB8C188F00101AE
:1025B800B9518DEC1CF073D7B551010A86E0030AB6
:1025C800BBE06DD7FEC0A7F1030E0101A86FA96B90
:1025D8000001C90501E1FF0C79EC19F060C0AAF10E
:1025E80061C0ABF162C0ACF163C0ADF1900E010106
:1025F800AA5FD00EAB5B030EAC5B000EAD5B0001B7
:10260800FE6BE2897ED079EC19F060C0AEF161C052
:10261800AFF162C0B0F163C0B1F10101AA51AE5D82
:102628000001CA6F0101AB51AF590001CB6F010125
:10263800AC51B0590001CC6F0101AD51B159000145
:10264800CD6F910ECA5DD00ECB59030ECC59000E3A
:10265800CD5951E3AEC1AAF1AFC1ABF1B0C1ACF1F4
:10266800B1C1ADF10101A907A9294BE1010EA96F7B
:10267800A807A82903E10001E299FF0C0001E36B18
:10268800460EE325D96EDA6A010EDA22810EDF6E74
:10269800E32B460EE325D96EDA6A010EDA22FBC077
:1026A800DFFFE32B460EE325D96EDA6A010EDA2244
:1026B800E1C0DFFFE32B0101B26BB251FC0FD96E11
:1026C800DA6A460E0001E325E16EE26A010EE222B3
:1026D800DFCFE7FFE32B0101B22BB251EEE0F7C0E9
:1026E800ADF0F8C0AEF00001B06BAF6B010EB16F8A
:1026F800B26BFDEC15F094EC1CF00009D8A4AAEC20
:102708001CF00001E2B97FD7A7C1FEF0DF5112002B
:102718000001686B69696A6B6A510A0D1C0EF32423
:10272800D96E010EF420DA6EDFAE16D00001D2C0E9
:1027380061F0D1C060F06A510A0D140EF324626F83
:10274800010EF420636F06EC1BF000090AE06AC072
:1027580069F0010E686F09D000016929D8B46AC010
:1027680069F06A2B040E6A65D7D7692901E1F10C73
:10277800FE5102E0685112006A6B6A51D125D96E88
:10278800000ED221DA6E69510A0D140E646F010E23
:10279800656FF3506427F45065236A516425E16E30
:1027A800000E6521E26EDFCFE7FF6A2B070E6A6530
:1027B800E4D769510A0D1C0EF324D96E010EF420DA
:1027C800DA6EDF8E000120EE02F0D351D926D45103
:1027D800DA22DF50646F010E641769510A0D1C0E6E
:1027E800F324D96E010EF420DA6EDF506419FE0B63
:1027F8006419DF6E6A6B6A51D325646F000ED421A9
:10280800656F030E6425D96E000E6521DA6E695175
:102818000A0D1D0E666F010E676FF3506627F450A0
:1028280067236A516625E16E000E6721E26EDFCFED
:10283800E7FF6A2B6A51DFE06951040D000EF324AB
:10284800D96E010EF420DA6EDE6ADE6ADE6ADD6AAF
:1028580069C0DFF00001E2998DD7D00E0001606FEA
:10286800070E616F626B636B2150646F2250656F56
:10287800666B676B64516003F3CF68F0F4CF69F05F
:102888006A6B6B6B6103F3506927F4506A23000E7F
:102898006B2365516003F3506927F4506A23000ED7
:1028A8006B2364516203F3506A27F4506B2365511C
:1028B8006103F3506A27F4506B2366516003F350A9
:1028C8006A27F4506B2363516403F3506B276551F7
:1028D8006203F3506B2766516103F3506B2767510E
:1028E8006003F3506B2768C06CF069C06DF06AC074
:1028F8006EF06BC06FF0560E6C27FF0E6D236E23C3
:102908006F236F51800A800F08E1000E6E5D05E1AC
:10291800000E6D5D02E1C40E6C5DD8A0120008D0F7
:1029280000F0D90E00016C27FF0E6D236E236F2374
:102938006F51800A800F08E1000E6E5D05E1000E00
:102948006D5D02E1010E6C5DD8A01200E9D7D00ED2
:10295800036E070E046E056A066A0150076E025080
:10296800086E096A0A6A07500302F3CF0BF0F4CF26
:102978000CF00D6A0E6A0402F3500C26F4500D2276
:10298800000E0E2208500302F3500C26F4500D22BC
:10299800000E0E2207500502F3500D26F4500E22A9
:1029A80008500402F3500D26F4500E220950030279
:1029B800F3500D26F4500E2206500702F3500E264F
:1029C80008500502F3500E2609500402F3500E2653
:1029D8000A500302F3500E260BC00FF00CC010F083
:1029E8000DC011F00EC012F0560E0F26FF0E102269
:1029F800112212221250800A800F08E1000E115C89
:102A080005E1000E105C02E1C40E0F5CD8A01200B4
:102A180007D000F0D90E0F26FF0E10221122122225
:102A28001250800A800F08E1000E115C05E1000ECB
:102A3800105C02E1010E0F5CD8A01200EAD7FD0E6F
:102A4800876F970E866F886B010E896F05EC1AF0F9
:102A5800FC0E616FBB0E606FE4EC1BF0FF0E000113
:102A6800616F000E606FE4EC1BF0FE0E0001616FF9
:102A78004A0E606FE4EC1BF0FE0E0001616F800EE1
:102A8800606FE4EC1BF0FE0E0001616FE80E606FF2
:102A9800E4EC1BF0FE0E0001616F650E606FE4EC64
:102AA8001BF0FE0E0001616F9B0E606FE4EC1BF0E3
:102AB800FD0E0001616F770E606FE4EC1BF0FF0EF6
:102AC8000001616F170E606FE4EC1BF0FC0E000153
:102AD800616F010E606FE4EC1BF0FC0E0001616F8A
:102AE800410E606FE4EC1BF0FB0E0001616FBF0E3E
:102AF800606FE4EC1BF0FB0E0001616F7D0E606FF0
:102B0800E4EC1BF0FC0E0001616F7F0E606FE4ECDB
:102B18001BF0FF0E0001616FF10E606FE8EF1BF014
:102B2800CEA706D0FF0E616FD80E606FE4EC1BF0E5
:102B38000001CE51030B07E0FE0E616F2E0E606F91
:102B4800E4EC1BF006D0FE0E616FB60E606FE4EC8D
:102B58001BF00001D65144EC1AF00001CEAD2FD085
:102B6800FF0E616FEA0E606FE4EC1BF00001CEAF60
:102B780011D020EE01F0D151D926D251DA22DF50FE
:102B880044EC1AF0D1C0D9FFD2C0DAFFDF5044ECD0
:102B98001AF015D0646B6451D15D626F000ED25982
:102BA800636F070E6225D96E000E6321DA6EDF505F
:102BB80044EC1AF00001642B070E6465ECD7FF0E95
:102BC8000001616FBF0E606FE4EC1BF00001646BE5
:102BD8000BD06451D325D96E000ED421DA6EDF50A4
:102BE8009AEC1CF00001642BD551645DD8B012003A
:102BF800F0D7B56FB66B000EF36AB163F32AF3CF63
:102C0800B3F0B651B319FC0BB319B66FB551010E39
:102C1800D8A4000EB36FB33BB347B651B319DF0B5B
:102C2800B319B66FB5B102D0B69502D00001B6851A
:102C3800B2B102D0B69702D00001B687BA6B000EC7
:102C4800F36AB563F32AF3CFB3F0B351B96FB55153
:102C5800010ED8A4000EB36FB33BB347B347B651C8
:102C6800B319BF0BB319B66FB68FB0C0B8F0AFC009
:102C7800B7F0ADC0BBF0AEC0BCF020EEB6F010EEC1
:102C880092F0070EDECFE6FFE82EFCD7010E00011A
:102C98009A6F460E996FE3C09BF038EC0AF0B46F58
:102CA800E36BB45112007BC02BF07CC02CF07DC0CC
:102CB8002DF0D6CFDEF00B0E326E2BEC10F00001AB
:102CC800E06B7E6B7E514E0D000EF324D96E020E22
:102CD800F420DA6EDF6A00017E2B010E7E65F2D7E2
:102CE8007BA51FD0616BEF0E606FF9C062F0FAC070
:102CF80063F0656B040E646F75EC18F00001D890F2
:102D0800040EF027000EF123F223616BEF0E606FC3
:102D1800F9C062F0FAC063F0656B040E646FADEF42
:102D280016F0EF6BF06BF16BF26B616BEF0E606F8F
:102D3800F9C062F0FAC063F0656B040E646FADEC25
:102D480016F0010E0001EF6F000EF06FF16FF26FD9
:102D5800000C000EF0B6010E696FF0968C9A050E05
:102D68003AEC1CF0A0EC1CF000016A6F8C8AADEC08
:102D78001CF000016AB1F2D78C9A060E3AEC1CF0EE
:102D88008C8AADEC1CF08C9A020E3AEC1CF0000117
:102D980063C066F066C067F0686B67513AEC1CF078
:102DA800000162513AEC1CF000016A6B1AD060C055
:102DB800D9FF61C0DAFFDF503AEC1CF00001604B2C
:102DC800612B6407D8A065076A2B6A516225666F74
:102DD8003F0E661706E18C8A6A516227000E63234C
:102DE800BDD765516411E3E18C8A69B102D0F096D0
:102DF80001D0F08612007B0ED36EC090F26A550E99
:102E0800A76EAA0EA76E0E01FF91040EE76F130EB0
:102E1800F66F050ED76F550EA76EAA0EA76EFF8127
:102E28000F0148693F0E496FF19E92689368946854
:102E380095689668896A8A6A8C6A8D6A95948C8482
:102E4800949C8B9C938093849294929693968A8672
:102E5800959E8C8E9382938A949E9398C00EC76E8B
:102E6800210EC66E95968C86F19A94948B84959AC9
:102E78008C8AF28EF090F086E5EF19F081B00FD0D1
:102E88003366000C010E336E79EC19F060C027F040
:102E980061C028F062C029F063C02AF0010C81B437
:102EA8000FD03366000C010E336E79EC19F060C058
:102EB80027F061C028F062C029F063C02AF0020C34
:102EC80079EC19F060C06DF061C06EF062C06FF00F
:102ED80063C070F027506D5D696F28506E596A6F36
:102EE80029506F596B6F2A5070596C6F000E695DCD
:102EF800400E6A59000E6B59000E6C59D8B0336AEF
:102F0800000C3050315C04E33450355CD8B012000A
:102F180071B0FED73050315C13E23150230FD96EB7
:102F2800DA6ADF50756E312A305031621200346629
:102F380012007184010E026E2C0E016EABEF14F0BC
:102F48003450355CD8B0120001016E0E3524D96EAC
:102F5800DA6A010EDA22DF5008E16E0E3524D96EE6
:102F6800DA6A010EDA22200EDF6E6E0E3524D96E73
:102F7800DA6A010EDA22DF50756E352A345035626E
:102F88001200D7D7686F630E686511D0640E226E81
:102F98006851D4EC1AF0666F676B8F0E00016625D6
:102FA800D96E010E6721DA6EDF509AEC1CF0090E1B
:102FB8000001686515D00A0E226E640E216E6851F4
:102FC80061EC1BF0D4EC1AF0666F676B8F0E000192
:102FD8006625D96E010E6721DA6EDF509AEC1CF077
:102FE8000A0E216E0001685161EC1BF0666F676B79
:102FF8008F0E00016625D96E010E6721DA6EDF504B
:103008009AEF1CF002EE00F09C0EEE6AE806FDE175
:1030180001EE00F08F0EEE6AE806FDE100EECEF05C
:103028002E0EEE6AE806FDE100EE23F01D0EEE6AB4
:10303800E806FDE15C0EF66E380EF76E000EF86ECF
:1030480001EE8FF010EE18F00900F5CFEEFFE55015
:10305800E150FAE15E0EF66E390EF76E000EF86E6C
:103068000900F5CFFCF00900F5CFFDF00900F5CF18
:10307800FEF0000EF86E000111EF12F08C6F8B67F6
:1030880015D0FD0E876F570E866F8CC088F0010E25
:10309800896F05EC1AF0FD0E616FD60E606FE4ECD7
:1030A8001BF000018C51C6EC17F014D0FD0E876F91
:1030B800B70E866F8CC088F0010E896F05EC1AF088
:1030C800FD0E616FF40E606FE4EC1BF000018C5193
:1030D800C6EC17F0FF0E0001616FF30E606FE8EFAA
:1030E8001BF0000EF0B6010E226EF0968C9A030EBD
:1030F8003AEC1CF0000163C066F066C067F0686BCC
:1031080067513AEC1CF0000162513AEC1CF00DD00A
:10311800A0EC1CF060C0D9FF61C0DAFFDF6E0001CF
:10312800604B612B6407D8A06507000165516411E5
:10313800EFE18C8A22B002D0F09601D0F08612001E
:10314800010E636F2E6A2F6A616B020E606F3E0E6E
:10315800626FBAEC1AF06317616B010E606F3C0E78
:10316800626FBAEC1AF06317616B010E606F380E6C
:10317800626FBAEC1AF06317616B320E606F3A0E29
:10318800626FBAEC1AF06317616B040E606FF90E88
:10319800626FBAEC1AF063171200636F6351D96E4D
:1031A800DA6ADF50F56F6351D96EDA6AD92ADF50CF
:1031B800F66F6251D96EDA6ADF50F36F6251D96ED9
:1031C800DA6AD92ADF50F46FF5C022F0070E36EC20
:1031D8001BF0F6C022F0090E36EC1BF0F3C022F00B
:1031E800030E36EC1BF0F4C022F0050E36EF1BF090
:1031F800000EF0B6010E656FF0968A9660C062F018
:1032080061C063F0D89063336233D890633362331C
:10321800D8906333623362517F0B80093AEC1CF01B
:1032280000016039E846E00B3AEC1CF0A0EC1CF019
:103238000001646F8A8665B102D0F09601D0F086ED
:10324800000164511200000EF0B6010E226EF096D5
:103258008A9660C063F061C064F0D89064336333C9
:10326800D89064336333D8906433633363517F0BEE
:1032780080093AEC1CF000016039E846E00B1009BF
:103288003AEC1CF0000162513AEC1CF08A8622B03C
:1032980002D0F09601D0F0861200000EF0B6010EB2
:1032A800076EF0968A9602C004F003C005F0D89025
:1032B80005320432D89005320432D89005320432EF
:1032C80004507F0B800946EC1CF00238E846E00BFE
:1032D80046EC1CF0A5EC1CF0066E8A8607B002D0FE
:1032E800F09601D0F086065012009D900001676BA1
:1032F800686B646BCECF65F0CFCF66F06529D8B424
:10330800662905E1642B030E00016465F3D79EA0CE
:1033180004D0672B3628D8B4682B36506727375027
:1033280068279D8065C060F066C061F067C062F084
:1033380068C063F01200656B666B635162111BE035
:10334800010E646F04D0D89062376337642B63AF83
:10335800FAD7D890653766376251605D6351615915
:1033680005E36251605F6351615B6581D8906333A7
:103378006233642FEED765C060F066C061F012005A
:10338800876FF5EC1BF0010E00016C6F6E0E6B6F12
:10339800FF0E6E6F870E6D6F87C06FF0706BD4EC89
:1033A80000F0010E00016C6F7E0E6B6FFF0E6E6FEA
:1033B800760E6D6F86C06FF0706BD4EC00F052EF34
:1033C8001CF0530E9512A49E736AF00E746E280EAC
:1033D800726E716AA38EF28EF28C010E226E2C0E22
:1033E800216E31EC14F07C0E236E810E246E256A5A
:1033F800216A030E5DEC1CF0226AC80E216E31EFC3
:1034080014F0F5EC1BF0010E00016C6F6E0E6B6F83
:1034180087C06EF086C06DF088C06FF0706BD4EC1A
:1034280000F052EC1CF08951D8B412008A6B226A61
:10343800FA0E216E31EC14F08A2B070E8A65F7D745
:10344800070C666F0A0E6665000C1A0E666501D0D9
:10345800000C66C032F0020E616F606B6651100D91
:10346800F350500F0309626F27EC19F0040E226E17
:103478006D0E36EC1BF0226A6D0E36EC1BF0010C5B
:103488000001616F61C060F061390F0B616F8F0ED1
:103498006125D96EDA6A0101010EDA22DF509AEC51
:1034A8001CF0000160510F0B616F8F0E6125D96E02
:1034B800DA6A0101010EDA22DF509AEF1CF06A5134
:1034C800691117E0010E216E04D0D89069376A3768
:1034D800212A6AAFFAD76951675D6A51685904E3CE
:1034E8006951675F6A51685BD8906A336933212EE6
:1034F800F2D767C067F068C068F0120000016B6F10
:10350800030E6B6501D0030C6BC0FEF0FEC022F009
:10351800223AF00E2216E1510F0B2210E16F616B77
:10352800FE0E606F38C062F039C063F0656B010E43
:10353800646FADEF16F0C26FC2510A0D01011C0E87
:10354800F324D96E010EF420DA6EDFAE000C000110
:10355800C2510A0D140EF324BD6F010EF420BE6F84
:10356800010EBF6FC1C0C0F004EF1CF02EC021F0E7
:103578002FC022F06051212661512222010E215CC8
:10358800800E225801E3000C6251D96EDA6A2EC00F
:10359800DEFF2FC0DDFF60512E2661512F22010C66
:1035A800636F656B225014E0010E646F03D0D890EE
:1035B8002236642B22AEFBD7D89065372250635D44
:1035C80003E32250635F6581D8902232642FF4D7D9
:1035D800655112006B6F656B6B5125EC1AF0000991
:1035E80010E06BC0FBF00001616BFB0E606F3CC02C
:1035F80062F03DC063F0656B010E646FADEC16F0D0
:10360800010C000C226A22506225D96E000E63213B
:10361800DA6EDF50216E22506025D96E000E6121CE
:10362800DA6EDF50211801E0000C222A070E22640E
:10363800EAD7010C0001606F000EF0B6010E626F50
:10364800F0968A9660513AEC1CF0A0EC1CF0000150
:10365800616F8A8662B102D0F09601D0F0860001CF
:10366800615112000001606F000EF0B6010E616F2B
:10367800F0968A9660513AEC1CF022503AEC1CF015
:103688008A86000161B102D0F09601D0F08612005E
:10369800026E000EF0B6010E046EF0968A96025085
:1036A80046EC1CF0A5EC1CF0036E8A8604B002D030
:1036B800F09601D0F086035012000001606F080EEA
:1036C800616F626BD89060356235626FD8906037F1
:1036D8002150625D02E32150625F612FF3D762518E
:1036E8001200036E000EF0B6010E046EF0968A9674
:1036F800035046EC1CF0025046EC1CF08A8604B0DD
:1037080002D0F09601D0F0861200696F0BD0120E2D
:10371800F86F340EF76F6A696B69F70E626F6A0E9D
:10372800D1EF18F06951F3E0010AD8A4030A120096
:103738000001696FFE0E616FD00E606FE4EC1BF044
:1037480000016951C6EC17F0FD0E0001616F290EEA
:10375800606FE8EF1BF060516203F3CF21F0F4CF04
:1037680022F060516303F350222661516203F35043
:10377800222621C060F022C061F01200020E000172
:10378800FD5DD8B01200FD514E0D0201000EF3246C
:10379800D96E020EF420DA6E000EDF6E000CFF0EFA
:1037A8000001616F2E0E606FE4EC1BF0FF0E00014C
:1037B800876F980E866F886B010E896F05EF1AF078
:1037C80003D022509AEC1CF0000160C0F6FF61C0E3
:1037D800F7FF604B612B0800F5CF22F02266F1D786
:1037E8001200216A01016E0E2124D96EDA6A010ED7
:1037F800DA22200EDF6E212A1F0E2164F3D71F0C58
:10380800F7C0ADF0F8C0AEF0BEC0B0F0BDC0AFF0CC
:10381800000EB16BC0C0B2F0FDEF15F00001BD6F36
:10382800F7C0ADF0F8C0AEF0B06BAF6BB16BBDC018
:10383800B2F0010EFDEF15F0616F606B3A0E615D3D
:1038480005E22F0E616502D0010E606F60C021F0A5
:10385800213012003031323334353637383941426D
:1038680043444546FF11223344556611216E9E9606
:10387800C950C69E21C0C9FFC6BEFBD79EA6FED7AB
:103888009E961200016E9E96C950C69E01C0C9FF41
:10389800C6BEFBD79EA6FED79E9612007C0E236E50
:1038A800320E246E256A200E266E216E040E5DEF00
:1038B8001CF0226E71B4FED7316A356A22C030F02E
:1038C80021C034F071801200FE0E0001876F110EC6
:1038D800866F000E886B896B05EF1AF0A4AE120094
:1038E800A49E85EC17F0026A050E016EABEF14F08A
:1038F8009584949C240EA86E900E9C6E190EAB6E47
:10390800190C380ECD6E9E909D80CD80366A376A30
:1039180012000001896F88C086F08951C4EF19F040
:10392800CDEC07F00001E2B7010C000C216EA8A253
:10393800FED721C0A9FF1200000E3AEC1CF0C950B6
:103948001200000E46EC1CF0C9501200E297C2EFBC
:0A3958001BF000F0120001FF030055
:10FA8E000020B2202020B22020B220B22020202040
:10FA9E0020B220B20D0AB220B220B220B220202015
:10FAAE00B22020B22020B220200D0AB22020B22097
:10FABE0020B220B220B22020B22020B220B20D0AF5
:10FACE00B22020B22020B220B22020B220B220B22A
:10FADE002020B20D0AB22020B22020B220B2202067
:10FAEE0020B220B2202020B20D0A2020202020207B
:10FAFE00202020202020202020202020200D0AB28F
:10FB0E00B2B22020B2B2B2B20D0AB22020B220B2EE
:10FB1E002020200D0AB22020B220B2B2B2B20D0ABD
:10FB2E00B22020B220B22020200D0AB2B2B2202084
:10FB3E00B2B2B2B20D0A2020202020202020200DAB
:10FB4E000A000102030405060708090A0B0C0D0E34
:10FB5E000F01000800400000020010008001000AA2
:10FB6E00006400E803102701001000000100100DD2
:10FB7E000A2020202020202020202020202020208D
:10FB8E002020202020203220746F20756E69636142
:10FB9E00737420656E63727970746564206D65731D
:10FBAE00736167652E204C454420322077696C6C5A
:10FBBE00000D0A2020202020202020202020202080
:10FBCE002020202020202020427574746F6E20315A
:10FBDE0020746F2062726F616463617374206D654F
:10FBEE0073736167652E2050757368204275747447
:10FBFE006F6E000D0A2020202020202020202020A3
:10FC0E0020202020202020202020506F7765722079
:10FC1E006F6E2074686520626F61726420756E74F9
:10FC2E00696C204C45442031206C696768747320E0
:10FC3E007570000D0A20202020202020202020205A
:10FC4E0020202020202020202020746F20696E6428
:10FC5E00696361746520636F6E6E656374696E6748
:10FC6E00207769746820706565722E2050757368F0
:10FC7E00000D0A20202020202020202020202020BF
:10FC8E002020202020202020626520746F67676C62
:10FC9E0065642075706F6E20726563656976696E36
:10FCAE0067206D657373616765732E20000D0A53AF
:10FCBE0074617274696E67204E6F64652031206FB7
:10FCCE00662053696D706C652044656D6F20666F9C
:10FCDE0072204D69576928544D29205032502053B7
:10FCEE007461636B202E2E2E000D0A0D0A436F6E6B
:10FCFE006E656374696F6E202020202050656572DA
:10FD0E004C6F6E67416464726573732020202020EF
:10FD1E0050656572496E666F0D0A00206973206E1C
:10FD2E006F7420737570706F7274656420696E20C5
:10FD3E0063757272656E7420636F6E666967757235
:10FD4E006174696F6E2E0D0A00436F6E6E6563747B
:10FD5E00696E67205065657220206F6E2043686162
:10FD6E006E6E656C20256420000D0A202020202058
:10FD7E005246205472616E736365697665723A20DD
:10FD8E004D524632344A34300053696D706C6520E2
:10FD9E005032502044656D6F204D524632344A34F5
:10FDAE0030204E6F646520310020436F6E6E6563A8
:10FDBE00746564205065657220206F6E2043686103
:10FDCE006E6E656C202564000D0A436F6E6E656362
:10FDDE0074696E672050656572206F6E204368618E
:10FDEE006E6E656C20000D0A436F6E6E65637465F2
:10FDFE00642050656572206F6E204368616E6E657B
:10FE0E006C20005242303A2042726F61646361731B
:10FE1E007420205242323A20556E69636173740029
:10FE2E0042726F616463617374205061636B6574B9
:10FE3E002077697468205253534920000D0A202000
:10FE4E00202020202020202020427574746F6E20E8
:10FE5E00313A20524230000D0A202020202020204E
:10FE6E00202020202020204C454420313A20524191
:10FE7E0032000D0A20202020202020202020204289
:10FE8E007574746F6E20323A20524232000D0A2081
:10FE9E00202020202020202020202020204C4544DF
:10FEAE0020323A2052413300556E696361737420DB
:10FEBE005061636B6574207769746820525353499F
:10FECE0020000D0A53656C656374696F6E206F6652
:10FEDE00206368616E6E656C20000D0A4F7574703C
:10FEEE00757420436F6E66696775726174696F6EA3
:10FEFE003A000D0A496E70757420436F6E6669671D
:10FF0E0075726174696F6E3A000D0A202020446587
:10FF1E006D6F20496E737472756374696F6E3A00FB
:10FF2E000D0A556E6963617374204661696C656470
:10FF3E000D0A000D0A0D0A4D792041646472657335
:10FF4E00733A203078003031323334353637383921
:10FF5E00414243444546003031323334353637382A
:10FF6E0039616263646566005258204D6573736132
:10FF7E006765733A20253364005458204D657373BA
:10FF8E00616765733A202533640020556E6963619D
:10FF9E007374204661696C65640020202020202047
:10FFAE00202020202020200020204368616E6E65D6
:10FFBE006C3A2000202050414E49443A20307800BF
:10FFCE00204368616E6E656C3A00536563757265A9
:10FFDE006420000D0A50414E49443A002066726F6B
:0AFFEE006D20000D0A0D0A0000004E
:08FFF800ACF6D8FFFFF9FFF1A0
:00000001FF
