:0400000051EF03F0C9
:10000800E1CF31F0E2CF32F0D9CF33F0DACF34F0AC
:10001800F3CF35F0F4CF36F0F0BAF0A431D38B94A7
:1000280082A828D38B848D96D6EC99F03F6E446ACB
:100038004450420D0201000EF324D96E020EF42042
:10004800DA6EDFA004D0442A010E4464F1D73F5091
:10005800040A03E1010E3B6E01D03B6A400E3F5C8F
:1000680007E23F5005E0010E446429D03B6627D0E3
:100078008D86F094820E036E010E026E7AEC98F073
:10008800CA0E036E810E026E7AEC98F0800E036E33
:10009800330E026E7AEC98F0800E036E730E026EC9
:1000A8007AEC98F0820E036E810E026E7AEC98F06C
:1000B800CA0E036E830E026E7AEC98F0E0D23E6AA6
:1000C80081A8FED73B5009E03E50370FD96EDA6A57
:1000D800D6EC99F0DF6E3E2A13D04450420D010E43
:1000E8002A6E020E2B6EF3502A26F4502B223E5015
:1000F8002A24D96E000E2B20DA6ED6EC99F0EAD7B6
:100108003F503E5CDDE3F4EC95F00001EFAFB0D773
:100118008D86CA0E036E810E026E7AEC98F03B5003
:1001280061E037C02AF0030E2A162A50020A2EE18F
:1001380039503D6E3A503C6E026A370E016E020E1F
:10014800036E000E056A046AACEC94F001C041F03D
:1001580002C042F042503D1802E141503C1807E00D
:10016800CA0E036E830E026E7AEC98F081D749505E
:1001780020EE38F0DF6203D0010E0001E36FCA0EF3
:10018800036E830E026E7AEC98F079D2010E446405
:1001980001D0E6D74450420D010EF324D96E020E69
:1001A800F420DA6E37C0DFFF4450420D020EF3240C
:1001B800D96E020EF420DA6E38C0DFFF4450420DCB
:1001C800030EF324D96E020EF420DA6E39C0DFFF75
:1001D8004450420D040EF324D96E020EF420DA6E58
:1001E8003AC0DFFF4450420D0201410EF324D96E9C
:1001F800020EF420DA6E3FC0DFFF4450420D410E7C
:10020800F324D96E020EF420DA6EDF502A6E4450C1
:10021800420D000E2B6E020E2C6EF3502B26F4505E
:100228002C222A502B24D96E000E2C20DA6EDF5097
:100238002D6E4450420D410EF324D96E020EF42067
:10024800DA6EDF502E6E4450420DFF0E2F6E010EF7
:10025800306EF3502F26F45030222E502F24D96EB2
:10026800000E3020DA6EDF503D6E2D503C6E44504B
:10027800420D010EF324D96E020EF420DA6EDF501F
:100288002A6E2AB40CD04450420D010EF324D96EC4
:10029800020EF420DA6EDF502A6E2AAC1FD04450CA
:1002A800420D010E2A6E020E2B6EF3502A26F450D0
:1002B8002B222AC001F02BC002F04450420D410EFF
:1002C800F324D96E020EF420DA6EDF50FE0F036EAF
:1002D800000E056A046AACEC94F04CD04450420D10
:1002E800010E2A6E020E2B6EF3502A26F4502B2292
:1002F8002AC001F02BC002F0020E036E000E056A40
:10030800046AACEC94F001C041F002C042F0026A09
:100318000001D9C001F0D831E832E8320F0B036E82
:1003280041C004F042C005F0ACEC94F001C041F0CB
:1003380002C042F04450420D030E2A6E020E2B6E8C
:10034800F3502A26F4502B222AC001F02BC002F0C9
:100358004450420D0201410EF324D96E020EF420DE
:10036800DA6EDF50FC0F036E41C004F042C005F0A6
:10037800ACEC94F001C041F002C042F042503D188C
:1003880002E141503C180BE04450420D0201410E7D
:10039800F324D96E020EF420DA6EDF6AE1D64450F7
:1003A800420D000EF324D96E020EF420DA6EDF84BB
:1003B8000001EEA102D0DF8201D0DF9240684450F4
:1003C800420D010EF324D96E020EF420DA6EDF50CE
:1003D8002A6E2AAC23D0436A1AD0D9514324D96E45
:1003E800DA6ADF502A6E4450420D030E2B6E020E5D
:1003F8002C6EF3502B26F4502C2243502B24D96E0C
:10040800000E2C20DA6EDF502A18BEE1432A0001C4
:10041800D831E832E8320F0B435CDFE34450420D39
:100428000201010EF324D96E020EF420DA6EDF50B9
:100438002A6E2AAA5DD0CA0E036E830E026E7AEC6B
:1004480098F0436A0101400E4324D96EDA6A010E1E
:10045800DA224350370FE16EE26ADFCFE7FF432A23
:10046800030E4364EFD7060E406F4450420D020E50
:10047800F324D96E020EF420DA6EDF50416F010EBC
:10048800026E400E016E020E036E000E056A046ACB
:10049800ACEC94F001C041F002C042F042C02AF036
:1004A8002AC02BF02C6A2B500101426F41C043F146
:1004B800026A020E016E4DEC90F0136A040E75ECA0
:1004C8008CF0CA0E036E810E026E7AEC98F0436AC5
:1004D8004350370FD96EDA6A400E4324E16EE26A60
:1004E800010EE222DFCFE7FF432A030E4364F0D771
:1004F800436A4350080D0101000EF324D96E010E22
:10050800F420DA6EDF5043E04350080D010EF32467
:10051800D96E010EF420DA6E4450420D0201020E2B
:10052800F324E16E020EF420E26EE750DF622FD072
:100538004350080D0101020EF324D96E010EF42078
:10054800DA6EDE523D50DD183CC0E8FFD8B4DF1843
:100558001EE141EC96F001C02AF002C02BF003C066
:100568002CF004C02DF04350080D0101040EF324B3
:10057800D96E010EF420DA6E2AC0DEFF2BC0DEFF32
:100588002CC0DEFF2DC0DDFFD906D90613D04028C8
:100598000DE14350080D0101000EF324D96E010E40
:1005A800F420DA6EDF50D8B443C040F0432A040E7A
:1005B80043649FD7040E4364E2D5050E405C45E2D0
:1005C8004050080D000EF324D96E010EF420DA6EA7
:1005D800010EDF6E4450420D020EF324D96E020E56
:1005E800F420DA6E4050080D0101010EF324E16E8B
:1005F800010EF420E26EDFCFE7FF4050080D020E37
:10060800F324D96E010EF420DA6E3CC0DEFF3DC043
:10061800DDFF41EC96F001C02AF002C02BF003C0C8
:100628002CF004C02DF04050080D040EF324D96EB0
:10063800010EF420DA6E2AC0DEFF2BC0DEFF2CC0CC
:10064800DEFF2DC0DDFFD906D9064450420D020158
:10065800410EF324D96E020EF420DA6E020EDF5E2C
:100668004450420D000EF324D96E020EF420DA6EC7
:10067800DF8085D5D6EC99F00001EE6F8B84F0947D
:1006880036C0F4FF35C0F3FF34C0DAFF33C0D9FFFA
:0E06980032C0E2FF31C0E1FF110083EF91F0AC
:10FB6C000020B2202020B22020B220B22020202061
:10FB7C0020B220B20D0AB220B220B220B220202036
:10FB8C00B22020B22020B220200D0AB22020B220B8
:10FB9C0020B220B220B22020B22020B220B20D0A16
:10FBAC00B22020B22020B220B22020B220B220B24B
:10FBBC002020B20D0AB22020B22020B220B2202088
:10FBCC0020B220B2202020B20D0A2020202020209C
:10FBDC00202020202020202020202020200D0AB2B0
:10FBEC00B2B22020B2B2B2B20D0AB22020B220B210
:10FBFC002020200D0AB22020B220B2B2B2B20D0ADF
:10FC0C00B22020B220B22020200D0AB2B2B22020A5
:10FC1C00B2B2B2B20D0A2020202020202020200DCC
:10FC2C000A01000800400000020010008001000AD8
:10FC3C00006400E803102701001000000100100010
:10FC4C00010203040506070D0A2020202020202095
:10FC5C002020202020202020202020202020322086
:10FC6C00746F20756E696361737420656E6372794D
:10FC7C0070746564206D6573736167652E204C45E7
:10FC8C004420322077696C6C000D0A202020202043
:10FC9C002020202020202020202020202020202058
:10FCAC00427574746F6E203120746F2062726F61B4
:10FCBC006463617374206D6573736167652E205086
:10FCCC0075736820427574746F6E000D0A202020C5
:10FCDC002020202020202020202020202020202018
:10FCEC002020506F776572206F6E207468652062DB
:10FCFC006F61726420756E74696C204C45442031C0
:10FD0C00206C6967687473207570000D0A202020C0
:10FD1C0020202020202020202020202020202020D7
:10FD2C002020746F20696E64696361746520636F51
:10FD3C006E6E656374696E67207769746820706590
:10FD4C0065722E2050757368000D0A20202020202B
:10FD5C002020202020202020202020202020202097
:10FD6C00626520746F67676C65642075706F6E20B8
:10FD7C00726563656976696E67206D65737361671B
:10FD8C0065732E20000D0A5374617274696E6720BE
:10FD9C004E6F64652031206F662053696D706C6501
:10FDAC002044656D6F20666F72204D695769285429
:10FDBC004D292050325020537461636B202E2E2E0F
:10FDCC00000D0A0D0A436F6E6E656374696F6E20C9
:10FDDC0020202020506565724C6F6E674164647200
:10FDEC00657373202020202050656572496E666F04
:10FDFC000D0A00206973206E6F7420737570706F1C
:10FE0C007274656420696E2063757272656E7420FD
:10FE1C00636F6E66696775726174696F6E2E0D0A19
:10FE2C0000436F6E6E656374696E67205065657212
:10FE3C0020206F6E204368616E6E656C20256420F7
:10FE4C000053696D706C65205032502044656D6FA5
:10FE5C0020204D524634395841204E6F6465203174
:10FE6C00000D0A20202020205246205472616E730F
:10FE7C006365697665723A204D52463439584100B3
:10FE8C0020436F6E6E6563746564205065657220E7
:10FE9C00206F6E204368616E6E656C202564000DCA
:10FEAC000A436F6E6E656374696E67205065657288
:10FEBC00206F6E204368616E6E656C20000D0A43E6
:10FECC006F6E6E65637465642050656572206F6E2D
:10FEDC00204368616E6E656C200042726F616463D2
:10FEEC00617374205061636B65742077697468204A
:10FEFC00525353492000556E6963617374205061ED
:10FF0C00636B6574207769746820525353492000E1
:10FF1C000D0A53656C656374696F6E206F662063A0
:10FF2C0068616E6E656C20000D0A20202044656DA2
:10FF3C006F20496E737472756374696F6E3A000D3D
:10FF4C000A556E6963617374204661696C65640D52
:10FF5C000A000D0A0D0A4D792041646472657373B1
:10FF6C003A20307800303132333435363738394135
:10FF7C004243444546003031323334353637383914
:10FF8C00616263646566005258204D6573736167E6
:10FF9C0065733A20253364005458204D65737361A2
:10FFAC006765733A202533640020556E696361736D
:10FFBC0074204661696C656400202020202020207C
:10FFCC002020202020200020204368616E6E656C6C
:10FFDC003A2000204368616E6E656C3A005365638D
:10FFEC007572656420002066726F6D20000D0A0D1D
:04FFFC000A000000F7
:020000040001F9
:10000000700E7D6FBFD38451250A09E06CC0D9FF03
:100010006DC0DAFF84C0DFFF6C4B6D2BB3D37F6BF9
:10002000806B856B866B09D0858705D0858103D071
:10003000868701D085856E4B6F2B6EC0F6FF6FC033
:10004000F7FF000EF86E0800F550200AEFE0030AF3
:10005000EFE00E0AE9E01D0AEDE085B785956EC078
:10006000F6FF6FC0F7FF000EF86E0800F55059EC70
:1000700099F032E37F6B806B7FC060F080C061F0ED
:10008000636B0A0E626F00EC99F060C07FF061C094
:1000900080F0D00E726F73696EC0F6FF6FC0F7FF0D
:1000A000000EF86E0800F550746F756B725174276E
:1000B0007351752374517F27755180236E4B6F2BBD
:1000C0006EC0F6FF6FC0F7FF000EF86E0800F55027
:1000D00059EC99F016E3D0D76EC0F6FF6FC0F7FF6A
:1000E000000EF86E0800F5502A0A0BE17D51D96E1A
:1000F000DA6ADECF7FF0DDCF80F0020E7D276E4B17
:100100006F2B6EC0F6FF6FC0F7FF000EF86E080091
:10011000F5502E0A36E1868D6E4B6F2B6EC0F6FFC2
:100120006FC0F7FF000EF86E0800F5502A0A0AE1CA
:100130007D51D96EDA6ADF507E6F020E7D276E4BDD
:100140006F2B93D07E6B11D06EC0F6FF6FC0F7FFA0
:10015000000EF86E0800F5CF72F07E510A0DF350D4
:100160007225D00F7E6F6E4B6F2B6EC0F6FF6FC087
:10017000F7FF000EF86E0800F55059EC99F075E3A2
:10018000E3D77E6B72D0858D91D0858B858F8ED095
:100190007E510FE07EC072F0736B72BF73078251A5
:1001A000725D8351735905E27E51826F836B82BF0A
:1001B00083077F51825D8051835907E220EE82F0F0
:1001C000DE507F5FDD50805B02D07F6B806B85A748
:1001D00009D01DD06CC0D9FF6DC0DAFF200EDF6ED4
:1001E0006C4B6D2B7F07D8A0800700017F29D8B406
:1001F00080290DE0EFD78151D96EDA6A6CC0E1FF3A
:100200006DC0E2FFDFCFE7FF812B6C4B6D2B8207C8
:10021000D8A0830700018229D8B48329ECE185B7EF
:1002200009D0B0D26CC0D9FF6DC0DAFF200EDF6EEE
:100230006C4B6D2B7F07D8A0800700017F29D8B4B5
:10024000802901E19FD2EED77D51D96EDA6ADF5065
:10025000846F020E7D27840E816F000E836F010E66
:10026000826F96D7C00E851321D06EC0F6FF6FC087
:10027000F7FF6E4B6F2B000EF86E0800F5CF84F081
:100280000001845101E18CD2580A01E17ED73B0A7A
:10029000DBE0070A0BE00D0A09E0060A01E173D76B
:1002A0001A0AE0E00D0A01E171D7D5D785C072F0D6
:1002B000C00E721719E17D51D96EDA6ADECF81F076
:1002C000DDCF82F0020E7D278251800AF36E800E10
:1002D000F35C000ED8B4815D10E2030E8513816DCE
:1002E000821FD8B0822B09D07D51D96EDA6ADECF59
:1002F00081F0DDCF82F0020E7D277E675CD08251D7
:10030000811159E17E2B57D0010E846F8451050A6B
:100310005BE08451020D390EF324F66EFC0EF420DE
:10032000F76EF86A000EF8220900F5CF72F00900A6
:10033000F5CF73F07251815D7351825945E3842B7F
:10034000E5D7010E846F8451040A3EE08451020D0A
:10035000430EF324F66EFC0EF420F76EF86A000EDE
:10036000F8220900F5CF72F00900F5CF73F0725151
:10037000815D7351825928E3842BE5D7010E846F88
:100380008451060A21E08451020D2D0EF324F66EED
:10039000FC0EF420F76EF86A000EF8220900F5CF83
:1003A00072F00900F5CF73F07251815D735182597B
:1003B0000BE3842BE5D78551C00BA6E0400ADEE0B5
:1003C000C00ABFE0400AA0E08451800A726F7E51EB
:1003D000800A725D03E27EC084F009D07E51800AFB
:1003E000726F8451800A725DD8A084C07EF0805103
:1003F0007F1108E085C072F0030E721703E07F07DB
:10040000D8A0800786AD13D0800E7EBF7F0E726F9E
:100410007F517E5D8051800A725907E27E517F5F75
:10042000000E7EBFFF0E805B02D07F6B806BC40E20
:10043000726F080E736F85C074F086C075F07251CC
:100440007417735175177551080A400ED8B4741992
:1004500007E180517F1124E07F07D8A0800720D0DA
:10046000C00E726F080E736F85C074F086C075F091
:1004700072517417735175177551080A800ED8B4EC
:1004800074190EE18051800A800F030ED8B47F5D8D
:1004900005E3FE0E7F27FF0E802302D07F6B806B6B
:1004A000800E84BF7F0E726F7F51845D8051800A01
:1004B000725907E284517F5F000E84BFFF0E805B9C
:1004C00002D07F6B806B85A550D085C072F0030E83
:1004D000721709E06CC0D9FF6DC0DAFF2D0EDF6E18
:1004E0006C4B6D2B31D085A106D06CC0D9FF6DC08F
:1004F000DAFF200EF4D7C00E726F080E736F85C03E
:1005000074F086C075F07251741773517517755178
:10051000080A800ED8B4741917E16CC0D9FF6DC0F9
:10052000DAFF300EDF6E6C4B6D2B85BB03D0786B22
:10053000780E02D0786B580E776F6CC0D9FF6DC003
:10054000DAFF77C0DFFFCCD780517F1101E1FED009
:100550006CC0D9FF6DC0DAFF300EDF6E6C4B6D2BB7
:100560007F07D8A080070001EFD780517F11D8A462
:1005700085B70FD06CC0D9FF6DC0DAFF200EDF6EDB
:100580006C4B6D2B7F07D8A08007000180517F1135
:10059000F1E185C072F0030E721709E06CC0D9FF5B
:1005A0006DC0DAFF2D0EDF6E6C4B6D2B08D085A170
:1005B00006D06CC0D9FF6DC0DAFF200EF4D7C00E94
:1005C000726F080E736F85C074F086C075F072513B
:1005D0007417735175177551080A400ED8B4741901
:1005E00009E16CC0D9FF6DC0DAFF300EDF6E6C4BD5
:1005F0006D2BACD0C00E726F080E736F85C074F097
:1006000086C075F072517417735175177551080AC9
:10061000800ED8B4741901E099D06CC0D9FF6DC0B8
:10062000DAFF300EDF6E6C4B6D2B85BB03D07A6B1F
:10063000780E02D07A6B580E796F6CC0D9FF6DC0FE
:10064000DAFF79C0DFFFD3D77E51020D390EF324D4
:10065000F66EFC0EF420F76EF86A000EF822090020
:10066000F5CF62F00A00F5CF63F081C060F082C080
:1006700061F067EC96F060C067F061C068F06A6B8B
:100680000A0E696FCDEC96F067514DD081C060F0D5
:1006900082C061F07E51020D430EF324F66EFC0E13
:1006A000F420F76EF86A000EF8220900F5CF62F028
:1006B0000A00F5CF63F067EC96F060510F0B766F90
:1006C00085BB04D0FF0E7C6F820E03D0FF0E7C6FC3
:1006D000710E7B6F76517B25726F000E7C21736FDC
:1006E00072C0F6FF73C0F7FF000EF86E0800F5CF7A
:1006F00084F025D081C060F082C061F07E51020D8F
:100700002D0EF324F66EFC0EF420F76EF86A000E40
:10071000F8220900F5CF62F00A00F5CF63F067EC2C
:1007200096F06051070B300F846F09D08551C00BD4
:100730008BE0400ADFE0C00AA9E0400A85E06CC017
:10074000D9FF6DC0DAFF84C0DFFF51D77E070001FB
:100750007E29ECE185A716D08051800A800F010E1A
:10076000D8B47F5D0FE36CC0D9FF6DC0DAFF200EF7
:10077000DF6E6C4B6D2B7F07D8A080070001805186
:100780007F11F1E16EC0F6FF6FC0F7FF6E4B6F2B6C
:10079000000EF86E0800F5CF84F00001846733D4B2
:1007A0006CC0D9FF6DC0DAFF000EDF6E000C0001D7
:1007B000DFA335D01BEC96F060C0ADF061C0AEF0A9
:1007C00062C0AFF063C0B0F001013C510001AD5D0B
:1007D000A96F01013D510001AE59AA6F01013E51BF
:1007E0000001AF59AB6F01013F510001B059AC6F2F
:1007F000B50EA95DC40EAA59040EAB59000EAC5932
:100800000EE3DF93010E626FA80E616FF2C063F01A
:10081000F3C064F0666B230E656F2FEC92F000015D
:10082000DFB7120005EC86F00009D8B41200000111
:10083000C66BD0A503D0A96BA92B01D0A96BC6515B
:10084000A919FC0BA919C66FD0A702D0C68702D080
:100850000001C697D051030BA96FA905010ED8A4BA
:10086000000EAA6FAA3BAA47C651AA19DF0BAA1904
:10087000C66FD0AF02D0C68D02D00001C69DD0AFEA
:1008800004D0D2C0CAF0D1C0C9F0D5C0CDF0D4C018
:10089000CCF0D3C0CBF0D7C0CFF0D6C0CEF0C6BB23
:1008A00095D1A8D120EE01F0CB51D926CC51DA2236
:1008B000DF50FA1903E038EC99F09DD1FC51030A9E
:1008C000FAE09EEC8EF0B16FFC0507E1B10505E0A2
:1008D000B151020A02E0F30EB16FE26B800E00012B
:1008E000E225D96EDA6A010EDA22910EDF6EE22B72
:1008F000800EE225D96EDA6A010EDA22B1C0DFFF7E
:10090000E22BB15102E0B1051CE1800E0001E225AD
:10091000D96EDA6A010EDA22DEC0DFFFE22BB26B9B
:10092000B251FB0FD96EDA6A800E0001E225E16E4A
:10093000E26A010EE222DFCFE7FFE22BB22BB251D7
:10094000EFE038EC99F0CAC0A0F0C9C09FF0010EEA
:10095000A16F000EC6B7010EA26F000E67EC93F0F8
:10096000B16749D1DC51070DA80EF3240001616F76
:10097000010EF420626FDC51070DF251F324636F16
:10098000F351F420646F666B070E656F2FEC92F0E5
:1009900032D1020EFC6501D08ED720EE01F0CB5192
:1009A000D926CC51DA22DF50FA1985E1E26B800EAC
:1009B0000001E225D96EDA6A010EDA22970EDF6EA7
:1009C000E22B800EE225D96EDA6A010EDA22DEC051
:1009D000DFFFE22BB26BB251FB0FD96EDA6A800EE9
:1009E0000001E225E16EE26A010EE222DFCFE7FFBD
:1009F000E22BB22BB251EFE038EC99F0CAC0A0F074
:100A0000C9C09FF0010EA16F000EC6B7010EA26F04
:100A1000000E67EC93F0EFD0E26B800E0001E22550
:100A2000D96EDA6A010EDA22920EDF6EE22BB26B19
:100A3000B251070DAD0EF324D96E010EF420DA6E1B
:100A4000DFAE3BD00001CAC061F0C9C060F0B25156
:100A5000070DA80EF324626F010EF420636F62ECA1
:100A600098F000092AE0B251070DAD0EF324D96EBB
:100A7000010EF420DA6EDF6A0001B251070DA80EF4
:100A8000F324616F010EF420626FB251070DF25131
:100A9000F324636FF351F420646F666B070E656F88
:100AA0002FEC92F0800E0001E225D96EDA6A010E79
:100AB000DA22000EDF6AE22B05D00001B22B040E11
:100AC000B265B6D738EC99F0B251050A0AE1800E4A
:100AD0000001E225D96EDA6A010EDA22F00EDF6E2D
:100AE000E22BCAC0A0F0C9C09FF0010EA16F000E9A
:100AF000C6B7010EA26F000E67EC93F07CD09EEC9F
:100B00008EF0DF831BEC96F060C03CF161C03DF1DC
:100B100062C03EF163C03FF1CED620EE01F0CB5172
:100B2000D926CC51DA22DF50EAE0010AE8E0C3D648
:100B3000DFBBDF9BC0D620EE01F0CB51D926CC51D4
:100B4000DA22DF5001E0B7D6B26BB251070DAD0E1D
:100B5000F324D96E010EF420DA6EDFAE31D000013D
:100B6000CAC061F0C9C060F0B251070DA80EF324ED
:100B7000626F010EF420636F62EC98F0000920E0D0
:100B8000B251070DAD0EF324D96E010EF420DA6ECA
:100B9000DF6A0001B251070DA80EF324616F010E48
:100BA000F420626FB251070DF251F324636FF351D9
:100BB000F420646F666B070E656F2FEC92F07BD6A6
:100BC0000001B22B040EB265C0D775D6CBC0D9FFD9
:100BD000CCC0DAFFDF50810A01E164D6030A01E1EB
:100BE0001BD7050A01E1D5D6160A97E0030AA3E050
:100BF000050A9EE0DF870001CD51D8A4DFB902D0FD
:100C0000DFAB1200DF9738EF99F081A6F0849E6B7E
:100C10001BEC96F060C093F061C094F062C095F058
:100C200063C096F09E51080D000EF324D96E010E9C
:100C3000F420DA6EDF5048E000019E51080D040EEA
:100C4000F324D96E010EF420DA6EDECF8BF0DECF06
:100C50008CF0DECF8DF0DECF8EF093518B5D945112
:100C60008C5995518D5996518E592EE29E51080DF1
:100C7000040EF324D96E010EF420DA6EDECF8BF071
:100C8000DECF8CF0DECF8DF0DECF8EF08B51935D1A
:100C90008F6F8C519459906F8D519559916F8E51E2
:100CA0009659926FB50E8F5DC40E9059040E9159EE
:100CB000000E925909E39E51080D000EF324D96EDF
:100CC000010EF420DA6EDF6A00019E2B040E9E6591
:100CD0009FD7E12901E0000C9E6B9E51420D000E52
:100CE000F324D96E020EF420DA6EDFA027D10001C2
:100CF0009E51420D010EF324D96E020EF420DA6EDD
:100D0000DF50D06F9E51420D410EF324D96E020E7A
:100D1000F420DA6EDF50D56F020E9D6FD0AD05D096
:100D2000D831E832E8320F0B9D27D0AF18D09E5152
:100D3000420D010E8B6F020E8C6FF3508B27F45017
:100D40008C239D518B27000E8C238BC0D1F08CC03F
:100D5000D2F0D831E832E8320F0B9D2702D0D16BA8
:100D6000D26BD0A7B7D09E51420D050E8B6F020EED
:100D70008C6FF3508B27F4508C239D518B25D96EAB
:100D8000000E8C21DA6EDF500CE09E51420D020104
:100D9000000EF324D96E020EF420DA6E000EDF6E20
:100DA000000CD0AF6DD09C6B9C51070DAD0EF324A1
:100DB000D96E010EF420DA6EDFAE11D000019C5125
:100DC000070DA80EF324606F010EF420616FD2C0EE
:100DD00063F0D1C062F062EC98F0000905E1000117
:100DE0009C2B040E9C65E0D7050E9C5D49E29B6B35
:100DF0009E51420D010E8B6F020E8C6FF3508B27AC
:100E0000F4508C239D518B27000E8C239B518B25F6
:100E1000D96E000E8C21DA6E9B51970FE16EE26A5B
:100E2000DFCFE7FF9B2B030E9B65E2D79C51040DA0
:100E3000280EF324D96E010EF420DA6EDECF8BF08B
:100E4000DECF8CF0DECF8DF0DECF8EF000018B5147
:100E5000975D8C5198598D5199598E519A5995E3B6
:100E60009C51040D280EF324D96E010EF420DA6E85
:100E700097C0DEFF98C0DEFF99C0DEFF9AC0DEFF9C
:100E8000050E9D279E51420D010E8B6F020E8C6F39
:100E9000F3508B27F4508C238BC080F08CC081F0F2
:100EA0009DC082F09E51420D410EF324D96E020E78
:100EB000F420DA6EDF5000018D6F9D518D5D836FE0
:100EC0004A0E846F2AEC91F0000901E15ED79D5132
:100ED000020F01D09D51D55F9E51420D010E8B6FC7
:100EE000020E8C6FF3508B27F4508C239D518B276F
:100EF000000E8C238BC0D3F08CC0D4F09E51420DD9
:100F0000000EF324D96E020EF420DA6EDFA204D0B4
:100F1000190E0001D66F02D00001D66B9E51420D12
:100F2000000EF324D96E020EF420DA6E000EDFB448
:100F3000010E0001D76F9EC0E1F0010C00019E2B55
:100F4000010E9E65CAD6000C280E966501D0000CD5
:100F5000919D9151030B976F9705D8B4918F91C0D4
:100F600040F1DDC041F1DD2B010E0001616F400E4B
:100F7000606F020E626F000E646B636BE0EC94F0C6
:100F800060C09BF061C09CF0020E9E6F91AD19D0C5
:100F90009D6B11D09D519225D96E000E9321DA6E72
:100FA000400E00019E25E16EE26A010EE222DFCFD3
:100FB000E7FF9E2B9D2BD831E832E8320F0B9D5D69
:100FC000E9E391B513D093C061F092C060F0D831DD
:100FD000E832E8320F0B626F9BC063F09CC064F094
:100FE000E0EC94F060C09BF061C09CF091AF39D010
:100FF0009D6B0FD0D9519D25D96EDA6A400E000144
:101000009E25E16EE26A010EE222DFCFE7FF9E2B12
:101010009D2BD831E832E8320F0B9D5DEBE3400E9B
:10102000976F010E986F9E519727000E9823D83125
:10103000E832E8320F0B975F000E985B97C060F0C4
:1010400098C061F0D831E832E8320F0B626F9BC074
:1010500063F09CC064F0E0EC94F060C09BF061C071
:101060009CF091A771D09D6B9D51E60FD96EDA6A05
:10107000400E00019E25E16EE26A010EE222DFCF02
:10108000E7FF9E2B9D2B030E9D65EED7E62B000EF2
:10109000E723E823E923E66711D0E7C097F0030EC2
:1010A00097170CE1626BE60E616FF8C063F0F9C050
:1010B00064F0666B040E656F2FEC92F0400E000139
:1010C0009E25D96EDA6A010EDA22DF6A9E2B9EC057
:1010D0009AF09D6B11D09D519425D96E000E9521EB
:1010E000DA6E400E00019E25E16EE26A010EE222F8
:1010F000DFCFE7FF9E2B9D2B96519D5DECE3010E0C
:101100000001816F400E806F9AC082F096C083F01C
:101110004A0E846F81EC92F0020E9E273B0E976F71
:10112000010E986F9A519727000E982397C060F090
:1011300098C061F09651070F626F9BC063F09CC02E
:1011400064F0E0EC94F022D09D6B11D09D51942579
:10115000D96E000E9521DA6E400E00019E25E16EDB
:10116000E26A010EE222DFCFE7FF9E2B9D2B965114
:101170009D5DECE395C061F094C060F096C062F0B4
:101180009BC063F09CC064F0E0EC94F060C09BF006
:1011900061C09CF0400E00019E25D96EDA6A010EF6
:1011A000DA229CC097F097C098F0996B9851DF6E47
:1011B0009E2B400E9E25D96EDA6A010EDA229BC064
:1011C000DFFF9E2B000ED8B3010E7A6F9E51DBEF2E
:1011D00089F06D6F050E6D651CD0FF0E626F5E0E9F
:1011E000616F13EC99F06F6B6F515608D96EDA6A24
:1011F000DF50ECEC96F000016F2B040E6F65F4D716
:10120000FF0E626FD30E616F13EC99F0FA512FEC61
:1012100094F0050E00016D5D64E2FD0E626FCF0E6D
:10122000616F13EC99F06D51070D0101AD0EF324C0
:10123000D96E010EF420DA6EDFAE120000016D519E
:10124000ECEC96F0FF0E0001626FC50E616F13ECBF
:1012500099F06F6B050E6F5D15E26D51070DAC0EC9
:101260006B6F010E6C6FF3506B27F4506C236F5152
:101270006B5DD96E6C51D8A06C05DA6EDF50ECEC6A
:1012800096F006D0FF0E626FD00E616F13EC99F0EE
:1012900000016F2B070E6F65DDD7FF0E626FCE0E5C
:1012A000616F13EC99F06F6B6D51070DAE0E6B6FA4
:1012B000010E6C6FF3506B27F4506C236F516B254C
:1012C000D96E000E6C21DA6EDF50ECEC96F0000166
:1012D0006F2B6F51E9E0FF0E626FFB0E616F17EF2E
:1012E00099F0FD0E626FCD0E616F13EC99F06F6B8C
:1012F0006F51070DAD0EF324D96E010EF420DA6E96
:10130000DFAE53D000016F51ECEC96F0FF0E000100
:10131000626FC50E616F13EC99F06E6B050E6E5D1A
:1013200015E26F51070DAC0E6B6F010E6C6FF35031
:101330006B27F4506C236E516B5DD96E6C51D8A045
:101340006C05DA6EDF50ECEC96F006D0FF0E626FA3
:10135000D00E616F13EC99F000016E2B070E6E65D5
:10136000DDD7FF0E626FCE0E616F13EC99F06E6BDE
:101370006F51070DAE0E6B6F010E6C6FF3506B2744
:10138000F4506C236E516B25D96E000E6C21DA6E11
:10139000DF50ECEC96F000016E2B6E51E9E0FF0E91
:1013A000626FFB0E616F13EC99F000016F2B040E5E
:1013B0006F659ED7040C8D6F030E896FD4D0E36BDD
:1013C000886B7A5123E0820E756F810E746FB1ECD9
:1013D00097F000018B6B8F6BCAEC95F00001EFBFAB
:1013E0008B2B010E606F000E616B626B636BE8EC20
:1013F00099F08F2B040E8F65EFD7020E8B6506D008
:10140000882B050E00018865E4D7000CF09A820E47
:10141000756F010E746FB1EC97F0800E0001756F5F
:10142000B30E746FB1EC97F0820E0001756F210E50
:10143000746FB1EC97F00001616B010E606FD4EC3A
:101440008FF08E6B906B8B94B80E67EC99F0AA0EB0
:1014500067EC99F028D082A826D0030E905D0DE3AA
:1014600015D02D0E67EC99F00ED0D40E67EC99F0E4
:101470000AD08D5167EC99F006D09051F2E0010A44
:10148000F4E0030AF6E00001902B0DD0400E0001BD
:101490008E25D96EDA6A0101010EDA22DF5067EC7F
:1014A00099F000018E2B00018D517B6F7C6B020E39
:1014B0007B27000E7C238E517D6F7E6B7E51800AD0
:1014C0007F6F7B517D5D7C51800A7F59C4E38B84A3
:1014D000820E756F810E746FB1EC97F0800E000173
:1014E000756F730E746FB1EC97F0CA0E0001756FD3
:1014F000830E746FB1EC97F0CAEC95F0F08A01019D
:1015000040AB0ED041C149F01BEC96F060C080F0BA
:1015100061C081F062C082F063C083F0E35104E0F7
:10152000010E00018C6F25D01BEC96F060C084F09A
:1015300061C085F062C086F063C087F08051845D31
:101540007B6F815185597C6F825186597D6F8351A4
:1015500087597E6F0A0E7B5D3D0E7C59000E7D59CA
:10156000000E7E59DBE389070001892901E027D7B6
:101570008C6B8C5112000101DC6BDD6BDF6BDE6B61
:10158000A0EC95F094EC99F0EFEC93F08C9E8C9C91
:10159000000EF5EC8DF0190EA9EC98F0000905E1AC
:1015A000190E26EC99F051EF03F0000E28EC97F09D
:1015B00000018C6B190E13EC95F0B36BFF0E43EC2E
:1015C0008FF00101E06FE02907E0010E00018C6F50
:1015D000190E13EC95F00AD00A0E0001606F000E90
:1015E000616B626B636B646BADEC99F0FF0EE9ECC1
:1015F00088F08C8EE9EC99F0CBEC99F000090DE0C5
:10160000C5EC90F00101DE2BDEC189F0DF51BDECAD
:1016100099F08C7CDFEC99F0EFD7ACEC93F0010102
:10162000DB6F7FD00001E26B0101E06B060E000171
:10163000606F0101DC51ECEC98F0150D6D0EC46F7C
:10164000FB0EC56FF350C427F450C5230101E051D0
:101650000001C427000EC523C4C0F6FFC5C0F7FFB4
:10166000000EF86E800EE225D96EDA6A010EDA22DB
:101670000800F5CFDFFFE22B0101E02B140EE0653F
:10168000D5D7DC2B000E8AEC99F0DEC189F0010180
:10169000DF2BDF51BDEC99F0AFD70001E26B010108
:1016A000E06B060E0001606F0101DD51ECEC98F07B
:1016B0000B0DEB0EC46FFB0EC56FF350C427F45037
:1016C000C5230101E0510001C427000EC523C4C099
:1016D000F6FFC5C0F7FF000EF86E800EE225D96E4A
:1016E000DA6A010EDA220800F5CFDFFFE22B0101F2
:1016F000E02B0A0EE065D5D7DD2B010E0001AD6FA2
:10170000000E62EC97F0000903E149EC99F002D079
:101710000101DF2BDEC189F00101DF51BDEC99F041
:101720006BD7DB51010A01E17DD7030AB6E064D72C
:101730007AC0D8F07BC0D9F08B848D868B9A8B963B
:10174000D6CFDDF0E1697C6B7C51420D000EF324B5
:10175000D96E020EF420DA6EDF6A00017C2B010ED6
:101760007C65F2D77AA520D0626BE60E616FF8C077
:1017700063F0F9C064F0666B040E656F44EC95F09D
:101780000001D890040EE727000EE823E923626BDE
:10179000E60E616FF8C063F0F9C064F0666B040E8A
:1017A000656F2FEC92F016D0E66BE76BE86BE96B98
:1017B000626BE60E616FF8C063F0F9C064F0666BAF
:1017C000040E656F2FEC92F0010E0001E66FE76BDF
:1017D000E86BE96B00017C6B4B0E7C25F66EF76ABB
:1017E000FC0EF722F86A000EF8227C514A0FD96EDF
:1017F000DA6A0800F5CFDFFF7C2B070E7C65ECD79B
:10180000CA0E756F810E746FB1EC97F0CA0E0001AD
:10181000756F830E746FB1EC97F0800E0001756FD9
:10182000330E746FB1EC97F0C40E0001756FB70EF4
:10183000746FB1EC97F0A70E0001756FD00E746F46
:10184000B1EC97F0C60E0001756F230E746FB1EC0A
:1018500097F0820E0001756F010E746FB1EC97F076
:101860004AEC98F0040E6011746F940E6111756F5C
:10187000B1EC97F0980E0001756F100E746FB1EC1B
:1018800097F0C20E0001756FAC0E746FB1EC97F05B
:10189000820E0001756F210E746FB1EC97F000019C
:1018A000616B050E606FD4EC8FF0820E756F810E48
:1018B000746FB1EC97F0800E0001756F730E746F4A
:1018C000B1EC97F0CA0E0001756F810E746FB1EC28
:1018D00097F0CA0E0001756F830E746FB1EC97F02C
:1018E0000001756B746BB1EF97F0196E030E246EE7
:1018F000CCD0256A0001E36B236A135023E0820EEB
:10190000036E810E026E7AEC98F0266A286A040E45
:10191000286401D00FD0F4EC95F00001EFBF262A27
:10192000010E016E000E026A036A046AEAEC99F085
:10193000282AEDD7020E266405D0232A050E23643B
:10194000E4D7050CF09A820E036E010E026E7AEC5B
:1019500098F0800E036EB30E026E7AEC98F0820E51
:10196000036E210E026E7AEC98F0026A010E016E8F
:101970004DEC90F0276A296A8B94B80E74EC99F0BC
:10198000AA0E74EC99F025D082A823D0030E295C0E
:101990000DE314D02D0E74EC99F00ED0D40E74EC2F
:1019A00099F00AD0195074EC99F006D02950F2E061
:1019B000010AF4E0030AF6E0292A0BD00101400EE7
:1019C0002724D96EDA6A010EDA22DF5074EC99F01E
:1019D000272A1950146E156A020E1426000E1522BD
:1019E0002750166E176A1750800A186E1450165C2E
:1019F0001550800A1858C8E38B84820E036E810E3E
:101A0000026E7AEC98F0800E036E730E026E7AEC22
:101A100098F0CA0E036E830E026E7AEC98F0F4EC26
:101A200095F0F08A010140AB0ED041C149F041EC84
:101A300096F001C01BF002C01CF003C01DF004C0F2
:101A40001EF0E35103E0010E1A6E010C41EC96F01A
:101A500001C01FF002C020F003C021F004C022F03A
:101A60001B501F5C146E1C502058156E1D502158C1
:101A7000166E1E502258176E0A0E145C3D0E155835
:101A8000000E1658000E1758DCE32406242801E047
:101A900030D71A6A1200746F7451D96EDA6ADECFC9
:101AA0006EF0DDCF6FF07451D96EDA6A020ED9266E
:101AB000DECF70F0DDCF71F0726B736B9E0E6C6FCA
:101AC000370E6B6F6D6B7251030B020D6051F32477
:101AD000D96EDA6ADECF61F0DDCF62F07251612734
:101AE0007351622370C063F071C064F0050E656FBE
:101AF000D89064336333652FFBD770C066F071C034
:101B000067F0663B673BF00E671766510F0B671374
:101B1000F00E66176351661B6451671B7051662790
:101B2000715167236151661B6251671B66516E27B5
:101B300067516F236B5172276C51732372C061F030
:101B400073C062F00B0E636FD89062336133632F02
:101B5000FBD76151030B020D6051F324D96EDA6A91
:101B6000DECF64F0DDCF65F07251642773516523D9
:101B70006EC066F06FC067F0050E686FD89067336F
:101B80006633682FFBD76EC069F06FC06AF0693B9F
:101B90006A3BF00E6A1769510F0B6A13F00E691752
:101BA0006651691B67516A1B6E5169276F516A2321
:101BB0006451691B65516A1B695170276A51712311
:101BC0006D2B1F0E6D657FD77451D96EDA6A6EC0AA
:101BD000DEFF6FC0DDFF7451D96EDA6A020ED926BE
:101BE00070C0DEFF71C0DDFF020C7D6F73EC95F0FD
:101BF000DF6B806B8051070DAD0EF324D96E010EA3
:101C0000F420DA6EDF6A0001802B040E8065F2D7C3
:101C1000B5EC99F0E26B806B8051040D280EF32433
:101C2000D96E010EF420DA6EDE6ADE6ADE6ADD6AE3
:101C30000001802B040E8065EFD77D5136E0626B8A
:101C4000FA0E616FF4C063F0F5C064F0666B010ECC
:101C5000656F44EC95F01F0E0001FA6501D01F0C72
:101C6000626BFC0E616FF0C063F0F1C064F0666BF4
:101C7000010E656F44EC95F0010E0001626FA80E35
:101C8000616FF2C063F0F3C064F0666B230E656FA2
:101C900044EC95F0FF0E0001626FDF0E616F13ECF4
:101CA00099F0FA51ECEC96F027D0626BFA0E616F66
:101CB000F4C063F0F5C064F0666B010E656F2FEC45
:101CC00092F00001626BFC0E616FF0C063F0F1C036
:101CD00064F0666B010E656F2FEC92F0010E00014F
:101CE000626FA80E616FF2C063F0F3C064F0666BC0
:101CF000230E656F2FEC92F0520E00017F6F7E83F2
:101D00007E51870B28097E6F7DB102D07E9502D06F
:101D100000017E857E917EC07AF07FC07BF098ECDA
:101D20008BF00001FA51A9EC98F00001DE6BDE8126
:101D3000DE87FC39F00BDE13F08A120000016A6BBB
:101D40006B696C6B6C51070DAD0EF324D96E010EEF
:101D5000F420DA6EDFAE16D00001CAC061F0C9C04F
:101D600060F06C51070DA80EF324626F010EF42091
:101D7000636F62EC98F000090AE06CC06BF0010E32
:101D80006A6F09D000016B29D8B46CC06BF06C2B62
:101D9000040E6C65D7D76B2901E1F10CFC5102E010
:101DA0006A5112006C6B6C51C925D96E000ECA21A4
:101DB000DA6E6B51070DA80E666F010E676FF35058
:101DC0006627F45067236C516625E16E000E67218B
:101DD000E26EDFCFE7FF6C2B070E6C65E4D76B512B
:101DE000070DAD0EF324D96E010EF420DA6EDF8EEE
:101DF000000120EE02F0CB51D926CC51DA22DF507F
:101E0000666F010E66176B51070DAD0EF324D96E88
:101E1000010EF420DA6EDF506619FE0B6619DF6ED4
:101E20006C6B6C51CB25666F000ECC21676F030E77
:101E30006625D96E000E6721DA6E6B51070DAE0E66
:101E4000686F010E696FF3506827F45069236C5175
:101E50006825E16E000E6921E26EDFCFE7FF6C2B93
:101E60006C51DFE06B51040D280EF324D96E010E86
:101E7000F420DA6EDE6ADE6ADE6ADD6A6BC0DCF0F0
:101E80000001DF998DD7FCC0B8F0030EB96FBE6BAF
:101E9000B30501E1FF0C1BEC96F060C0BAF061C025
:101EA000BBF062C0BCF063C0BDF0B40EBA5FC40E3C
:101EB000BB5B040EBC5B000EBD5BFC6BDF896ED0B0
:101EC0001BEC96F060C0BFF061C0C0F062C0C1F012
:101ED00063C0C2F0BA51BF5DB46FBB51C059B56F9A
:101EE000BC51C159B66FBD51C259B76FB50EB45D83
:101EF000C40EB559040EB659000EB75949E3BFC018
:101F0000BAF0C0C0BBF0C1C0BCF0C2C0BDF0BE07DB
:101F10000001BE2943E1010EBE6FB907B92902E1F4
:101F2000DF99FF0CE26B800E0001E225D96EDA6AC0
:101F3000010EDA22810EDF6EE22B800EE225D96ED1
:101F4000DA6A010EDA22FAC0DFFFE22B800EE22508
:101F5000D96EDA6A010EDA22DEC0DFFFE22BC36B34
:101F6000C351FB0FD96EDA6A800E0001E225E16EE3
:101F7000E26A010EE222DFCFE7FFE22BC32BC3515F
:101F8000EFE0A06B9F6B010EA16FA26B67EC93F06B
:101F9000CBEC99F00009D8A4DFEC99F0DFB990D729
:101FA000B8C0FCF0DC511200C40E626F090E636F02
:101FB000646B656B6051666F6151676F686B696BCD
:101FC00066516203F3CF6AF0F4CF6BF06C6B6D6B0C
:101FD0006303F3506B27F4506C23000E6D2367519D
:101FE0006203F3506B27F4506C23000E6D2366518F
:101FF0006403F3506C27F4506D2367516303F3506F
:102000006C27F4506D2368516203F3506C27F45031
:102010006D2365516603F3506D2767516403F350D8
:102020006D2768516303F3506D2769516203F350C4
:102030006D276AC06EF06BC06FF06CC070F06DC041
:1020400071F0560E6E27FF0E6F23702371237151AE
:10205000800A800F08E1000E705D05E1000E6F5DE3
:1020600002E1C40E6E5DD8A0120008D000F0D90EB7
:1020700000016E27FF0E6F23702371237151800AB8
:10208000800F08E1000E705D05E1000E6F5D02E15A
:10209000010E6E5DD8A01200E9D7C40E036E090EC2
:1020A000046E056A066A0150076E0250086E096ADE
:1020B0000A6A07500302F3CF0BF0F4CF0CF00D6A5D
:1020C0000E6A0402F3500C26F4500D22000E0E226C
:1020D00008500302F3500C26F4500D22000E0E227D
:1020E00007500502F3500D26F4500E22085004024A
:1020F000F3500D26F4500E2209500302F3500D2622
:10210000F4500E2206500702F3500E260850050226
:10211000F3500E2609500402F3500E260A50030213
:10212000F3500E260BC00FF00CC010F00DC011F0D4
:102130000EC012F0560E0F26FF0E10221122122290
:102140001250800A800F08E1000E115C05E1000EBC
:10215000105C02E1C40E0F5CD8A0120007D000F0A2
:10216000D90E0F26FF0E1022112212221250800AC1
:10217000800F08E1000E115C05E1000E105C02E129
:10218000010E0F5CD8A01200EAD7C6A706D0FF0E3A
:10219000626FE90E616F13EC99F0C651030B07E013
:1021A000FE0E626FE60E616F13EC99F006D0FF0E23
:1021B000626F020E616F13EC99F0CE51ECEC96F069
:1021C0000001C6AD2ED0FF0E626FF20E616F13ECF0
:1021D00099F0C6AF11D020EE01F0C951D926CA51ED
:1021E000DA22DF50ECEC96F0C9C0D9FFCAC0DAFFA2
:1021F000DF50ECEC96F015D0666B6651C95D646FEC
:10220000000ECA59656F040E6425D96E000E652153
:10221000DA6EDF50ECEC96F00001662B040E66657A
:10222000ECD7FF0E0001626FDC0E616F13EC99F0CA
:10223000666B0BD06651CB25D96E000ECC21DA6EC1
:10224000DF50C4EC99F00001662BCD51665DD8B02B
:102250001200F0D78A6B82518A5D02E3886B08D046
:102260008A518025D96E000E8121DA6EDF50886F89
:10227000896B8A51EA0FD96EDA6A88C0DFFF8A2B30
:10228000020E8A65E8D782518025756F000E812184
:10229000766F83C077F084C078F0EA0E796FDAEC5D
:1022A00091F081C076F080C075F082518325FE0FD9
:1022B000776F84C078F0EA0E796FD1EC92F08A6B78
:1022C00082518025856F000E8121866F835185277D
:1022D000000E86238A518527000E8623FE0E852553
:1022E000D96EFF0E8621DA6EDF50876F8A51EA0FB2
:1022F000D96EDA6ADF50871901E0000C8A2B010ED3
:102300008A65DED7010C02EE00F0A50EEE6AE80643
:10231000FDE101EE00F0CB0EEE6AE806FDE100EE15
:10232000C6F0350EEE6AE806FDE100EE45F00D0E52
:10233000EE6AE806FDE14A0EF66E330EF76E010E08
:10234000F86E02EEA5F010EE10F00900F5CFEEFFEA
:10235000E550E150FAE13A0EF66E330EF76E010EDB
:10236000F86E01EECBF010EE10F00900F5CFEEFFA5
:10237000E550E150FAE1CE0EF66E330EF76E010E27
:10238000F86E0900F5CFFBF00900F5CFFCF0C40EA4
:10239000F66E330EF76E010EF86E00EE52F010EE90
:1023A00005F00900F5CFEEFFE550E150FAE100013C
:1023B000BBEF8AF077C07AF0D8907A33D8907A332E
:1023C0007A297D6F7E6B46D07F6B79517F25D96EE0
:1023D000DA6A7F51EA0FE16EE26ADFCFE7FF7F2B17
:1023E000020E7F65F2D77EC0EDF078C060F0EA0E95
:1023F0004BEC8DF07F6B77517A6F7B6B7E51040DC8
:102400007F51F326000EF422F450800A7C6F7A513B
:10241000F35C7B51800A7C591CE27F51EA0FD96E34
:10242000DA6ADF507A6F7E51040D75C07BF076C09A
:102430007CF0F3507B27F4507C237F517B25D96EB1
:10244000000E7C21DA6E7A51DF1A7F2B030E7F6536
:10245000D2D77E2B7D517E5DD8B01200B5D7000E4D
:10246000F0BA010E6A6FF09A8996050E67EC99F042
:10247000D1EC99F000016B6F8986E5EC99F00001D1
:102480006BB1F2D78996060E67EC99F08986E5EC78
:1024900099F08996020E67EC99F0000164C067F02C
:1024A00067C068F0696B685167EC99F0000163518F
:1024B00067EC99F000016B6B1AD061C0D9FF62C064
:1024C000DAFFDF5067EC99F00001614B622B650782
:1024D000D8A066076B2B6B516325676F3F0E67179C
:1024E00006E189866B516327000E6423BDD76651D0
:1024F0006511E3E189866AB102D0F09A01D0F08AD1
:10250000120081C076F080C075F082518325776F0C
:1025100084C078F0EA0E796FD1EC92F0896B895122
:10252000EA0FD96EDA6A82518025856F000E81210B
:10253000866F83518527000E862389518525E16E9C
:10254000000E8621E26EDFCFE7FF892B030E89653F
:10255000E6D7896B8251895D02E3876B08D0895188
:102560008025D96E000E8121DA6EDF50876F886B6F
:102570008951EA0FD96EDA6A87C0DFFF892B020E14
:102580008965E8D782518025756F000E8121766FAD
:102590008351040F776F84C078F0EA0E796FDAEF19
:1025A00091F077C07AF0D8907A33D8907A337A293C
:1025B0007D6F7F6B79517F25D96EDA6ADF6A7F2B59
:1025C000030E7F65F7D77F6B35D07E6B77517A6FBF
:1025D0007B6B7F51040D7E51F326000EF422F450E4
:1025E000800A7C6F7A51F35C7B51800A7C591CE233
:1025F0007F51040D75C07AF076C07BF0F3507A27D6
:10260000F4507B237E517A25D96E000E7B21DA6E41
:10261000DF507C6F79517E25D96EDA6A7C51DF1AE2
:102620007E2B030E7E65D2D778C060F079514BECDB
:102630008DF07F2B7D517F5DD8B01200C6D7800E04
:1026400045EC97F00001736B840E00017325D96E81
:10265000DA6A0201020EDA22DF5004E1200E0AECEF
:1026600097F00BD0840E00017325D96EDA6A02014F
:10267000020EDA22DF500AEC97F00001732B0F0EE6
:102680007365E2D7C00E45EC97F0100E0001736F32
:10269000840E00017325D96EDA6A0201020EDA2275
:1026A000DF5004E1200E0AEC97F00BD0840E0001FD
:1026B0007325D96EDA6A0201020EDA22DF500AECC3
:1026C00097F00001732B1F0E7365E2D71F0CA56FE7
:1026D000A66B000EF36AA163F32AF3CFA3F0A65111
:1026E000A319FC0BA319A66FA551010ED8A4000EC7
:1026F000A36FA33BA347A651A319DF0BA319A66F92
:10270000A5B102D0A69502D00001A685A2B102D043
:10271000A69702D00001A687A69DA651030BA36F22
:10272000A30502E1A68F01D0A69FA0C0A8F09FC07C
:10273000A7F0A6C091F0A7C092F0A8C093F0010E38
:102740000001956F800E946FE2C096F0A4EC87F0C4
:10275000A46FE26BA451120081B00FD0E067000CAF
:10276000010EE06F1BEC96F060C045F061C046F0D2
:1027700062C047F063C048F0010C80BA0FD0E06738
:10278000000C010EE06F1BEC96F060C045F061C0DC
:1027900046F062C047F063C048F0020C1BEC96F0B4
:1027A00060C06DF061C06EF062C06FF063C070F029
:1027B00045506D5D696F46506E596A6F47506F594D
:1027C0006B6F485070596C6F000E695D400E6A590E
:1027D000000E6B59000E6C59D8B0E06B000CFE0E69
:1027E0000001886F4D0E876F896B010E8A6FADEC0B
:1027F00096F0FD0E626F910E616F13EC99F0FE0E74
:10280000626F6D0E616F13EC99F0FF0E626F340E04
:10281000616F13EC99F0FC0E626FD70E616F13ECD1
:1028200099F0FD0E626F170E616F13EC99F0FC0EBC
:10283000626F950E616F13EC99F0FC0E626F530E90
:10284000616F13EC99F0FD0E626F550E616F13EC22
:1028500099F0FF0E626FF90E616F17EF99F06A6FD2
:10286000630E6A6511D0640E646F6A51FFEC97F0D5
:10287000686F696BCB0E00016825D96E010E692166
:10288000DA6EDF50C4EC99F0090E00016A6515D0CC
:102890000A0E646F640E606F6A51ECEC98F0FFEC06
:1028A00097F0686F696BCB0E00016825D96E010E39
:1028B0006921DA6EDF50C4EC99F00A0E0001606FF6
:1028C0006A51ECEC98F0686F696BCB0E00016825DB
:1028D000D96E010E6921DA6EDF50C4EF99F092943F
:1028E00089840001616B0A0E606FD4EC8FF0979CB5
:1028F0008E9C616B0A0E606FD4EC8FF08E8CDBECDB
:1029000099F092EC98F032EC98F0000EE5EC97F02C
:102910000001616B0A0E606FD4EC8FF03C0ECBECC3
:1029200097F00001616B0A0E606FD4EC8FF00C0E13
:10293000CBEC97F00001616B0A0E606FD4EC8FF066
:10294000010ECBEC97F00001616B0A0E606FD4ECC6
:102950008FF00C0ECBEF97F004C009F005C00AF021
:1029600027D001C0D9FF02C0DAFFDF50076E066A28
:102970000650091A07500A1A014A022A086A070E65
:10298000086401D015D00AAE0ED009C006F00AC006
:1029900007F0D89006360736210E0618096E100E7D
:1029A00007180A6E03D0D89009360A36082AE7D7E6
:1029B000030603AED6D709C001F00AC002F0120028
:1029C00063C068F064C069F025D060C0D9FF61C001
:1029D000DAFFDF50666F656B6551681B6651691BD6
:1029E000604B612B676B69AF0ED068C065F069C042
:1029F00066F0D89065376637210E6519686F100E3E
:102A00006619696F03D0D89068376937672B070E4E
:102A10006765E9D76207000162AFD7D768C060F089
:102A200069C061F012008D6F8C6714D0FE0E886F44
:102A30002D0E876F8DC089F0010E8A6FADEC96F078
:102A4000FE0E626FAB0E616F13EC99F08D512FEC9F
:102A500094F013D0FE0E886F8C0E876F8DC089F0B6
:102A6000010E8A6FADEC96F0FE0E626FC90E616FBB
:102A700013EC99F08D512FEC94F0FF0E0001626F72
:102A8000FB0E616F17EF99F0000EF0BA010E6A6F3E
:102A9000F09A8996030E67EC99F0000164C067F024
:102AA00067C068F0696B685167EC99F00001635189
:102AB00067EC99F00DD0D1EC99F061C0D9FF62C0FC
:102AC000DAFFDF6E0001614B622B6507D8A0660755
:102AD000000166516511EFE189866AB102D0F09A72
:102AE00001D0F08A1200010E656FDA6BDB6B616B4F
:102AF000020E606FF60E626F7DEC97F06517616BEA
:102B0000010E606FF40E626F7DEC97F06517616BDC
:102B1000010E606FF00E626F7DEC97F06517616BD0
:102B2000230E606FF20E626F7DEC97F06517616B9C
:102B3000040E606FF80E626F7DEC97F0651712005F
:102B4000700ED36EC088DF0EC16EC268C0989268E6
:102B500093689468956A896A8A6A8B6A8C6A93809A
:102B6000928A959E959C94948B84939A8A8A938654
:102B70009488949A9496C00EC76E210EC66E96964F
:102B800093888D86F19692968986F28EF094F08ADB
:102B90006FEF94F0000E8DB6010E0001616F000E14
:102BA0008BB4010E626F000EF0BA010E636FF09AE3
:102BB0008D868B94D1EC99F00001EE6FD1EC99F0F9
:102BC0000001EF6F61B102D08D9601D08D860001BA
:102BD00062B102D08B9401D08B84000163B102D02A
:102BE000F09A01D0F08A1200000E8DB6010E026E2E
:102BF000000E8BB4010E036E000EF0BA010E046ECF
:102C0000F09A8D868B94D6EC99F00001EE6FD6EC9D
:102C100099F00001EF6F02B002D08D9601D08D8641
:102C200003B002D08B9401D08B8404B002D0F09A10
:102C300001D0F08A12009D900001676B686B646B95
:102C4000CECF65F0CFCF66F06529D8B4662905E10F
:102C5000642B030E00016465F3D79EA004D0672B9C
:102C6000E429D8B4682BE4516727E55168279D8093
:102C700065C060F066C061F067C062F068C063F074
:102C800012009D90086A096A056ACECF06F0CFCF80
:102C900007F00628D8B4072804E1052A030E0564C6
:102CA000F4D79EA005D0082A0001E429D8B4092A47
:102CB0000001E4510826E55109269D8006C001F077
:102CC00007C002F008C003F009C004F01200656BF1
:102CD000666B635162111BE0010E646F04D0D890E3
:102CE00062376337642B63AFFAD7D890653766379E
:102CF0006251605D6351615905E36251605F6351E8
:102D0000615B6581D89063336233642FEED765C011
:102D100060F066C061F01200886FD7EC98F0020E88
:102D200000016D6F840E6C6FFF0E6F6FA40E6E6FDF
:102D300088C070F0716B00EC80F0020E00016D6FC6
:102D4000940E6C6FFF0E6F6F930E6E6F87C070F0F6
:102D5000716B00EC80F01FEF93F0D7EC98F0020E4F
:102D600000016D6F840E6C6F88C06FF087C06EF0CD
:102D700089C070F0716B00EC80F01FEC93F08A5109
:102D8000D8B412008B6B616BFA0E606FD4EC8FF0CD
:102D90008B2B070E8B65F7D7070C6A51691117E06B
:102DA000010E6B6F04D0D89069376A376B2B6AAF0E
:102DB000FAD76951675D6A51685904E36951675FE1
:102DC0006A51685BD8906A3369336B2FF2D767C05A
:102DD00067F068C068F012000001626F62C061F0C5
:102DE00062390F0B626FCB0E6225D96EDA6A010170
:102DF000010EDA22DF50C4EC99F0000161510F0B93
:102E0000626FCB0E6225D96EDA6A010EDA22DF50CC
:102E1000C4EF99F00001726F616B010E606FD4EC2A
:102E20008FF0800EE5EC97F00001725119EC98F0EC
:102E300000F000F000F000F0C00EE5EC97F000F0BC
:102E400000F000F000F000F000F0000EE5EF97F069
:102E500000016D6F030E6D6501D0030C6DC0FCF0B9
:102E6000FCC06CF06C3BF00E6C17DE510F0B6C115C
:102E7000DE6F626BFC0E616FF0C063F0F1C064F056
:102E8000666B010E656F2FEF92F0726F000EE5EC2E
:102E900097F00001616B010E606FD4EC8FF07251FE
:102EA00019EC98F000F000F000F000F0400EE5ECB6
:102EB00097F000F000F000F000F000F000F0000EDD
:102EC000E5EF97F0AE6FAE51070D0101AD0EF324A3
:102ED000D96E010EF420DA6EDFAE000C0001AE51A7
:102EE000070DA80EF324A96F010EF420AA6F010E9E
:102EF000AB6FADC0ACF080EF99F0DAC063F0DBC02F
:102F000064F06051632761516423010E635D800E9C
:102F1000645901E3000C6251D96EDA6ADAC0DEFF4F
:102F2000DBC0DDFF6051DA276151DB23010C7B6FD1
:102F30001F0E7B6501D0000C7B51690D7A51F32681
:102F4000000EF422400EF324746FA10EF420756F6E
:102F5000B1EC97F00001616B140E606FD4EC8FF050
:102F6000010C000EF0BA010E796FF09A8B9475C0C7
:102F700076F076C077F0786B775167EC99F00001C6
:102F8000745167EC99F08B84000179B102D0F09A0A
:102F900001D0F08A1200636F000EE5EC97F000019B
:102FA000635119EC98F000F000F000F0400EE5ECF1
:102FB00097F000F000F000F000F000F000F000F0FA
:102FC00000F000F0000EE5EF97F00001616F000ED9
:102FD000F0BA010E626FF09A8994400E67EC99F096
:102FE000120E67EC99F00001615167EC99F0898449
:102FF000000162B102D0F09A01D0F08A1200656F30
:10300000676B645114E0010E666F03D0D89064378B
:10301000662B64AFFBD7D89067376451655D03E3D7
:103020006451655F6781D8906433662FF4D7675128
:103030001200616F000EF0BA010E626FF09A89946F
:10304000400E67EC99F0130E67EC99F000016151A6
:1030500067EC99F08984000162B102D0F09A01D046
:10306000F08A1200000EF0BA010E0001616FF09AB2
:103070008994400E67EC99F0010E67EC99F0000E10
:1030800067EC99F08984000161B102D0F09A01D017
:10309000F08A120022EEA5F010EE64F0100EDECFE2
:1030A000E6FFE82EFCD700016651626F636B050EE8
:1030B000D89062376337E82EFBD762C060F063C0F8
:1030C00061F01200656B65516225D96E000E6321B7
:1030D000DA6EDF50646F65516025D96E000E612194
:1030E000DA6EDF50641901E0000C652B040E656593
:1030F000EAD7010C000EF0BA010E076EF09A8B941D
:1031000003C004F004C005F0066A055074EC99F0A1
:10311000025074EC99F08B8407B002D0F09A01D081
:10312000F08A1200000EF0BA010E616FF09A8994D5
:10313000400E67EC99F0000E67EC99F0000E67EC1A
:1031400099F08984000161B102D0F09A01D0F08A2F
:1031500012007C6F7A6B7C5197EC97F000090FE0BE
:103160007CC0FAF0626BFA0E616FF4C063F0F5C0D8
:1031700064F0666B010E656F2FEC92F0010C000C91
:1031800061C067F060C066F008D066C0D9FF67C054
:10319000DAFF62C0DFFF664B672B6407D8A06507C4
:1031A00000016429D8B46529D8B41200EED7010E05
:1031B000CBEC97F00001616B020E606FD4EC8FF0E6
:1031C000020E0001616F840E606F636B200E626FF0
:1031D000656B646FC0EF98F00001616F080E626F5D
:1031E000636BD89061356335636FD89061376051F8
:1031F000635D02E36051635F622FF3D76351120096
:1032000060516203F3CF64F0F4CF65F06051630363
:10321000F350652761516203F350652764C060F085
:1032200065C061F0120003D06351C4EC99F0000155
:1032300061C0F6FF62C0F7FF614B622B000EF86EB3
:103240000800F5CF63F06367EFD7120000016B6FE2
:10325000FF0E626F1C0E616F13EC99F06B512FEC37
:1032600094F0FD0E0001626FFF0E616F17EF99F091
:10327000020E0001E15DD8B01200E151420D000ED6
:10328000F324D96E020EF420DA6E000EDF6AE169D3
:103290001200FF0E0001626F4B0E616F13EC99F08C
:1032A000FF0E886FB50E876F896B010E8A6FADEFC9
:1032B00096F0626F616B3A0E625D05E22F0E6265F9
:1032C00002D0010E616F61C060F060311200000138
:1032D000606F9E96C950C69E60C0C9FFC6BEFBD730
:1032E0009EA6FED79E961200016E9E96C950C69E5F
:1032F00001C0C9FFC6BEFBD79EA6FED79E96120090
:10330000AAC0A0F0A9C09FF0000EA16BACC0A2F0B3
:1033100067EF93F00001A96FA06B9F6BA16BA9C031
:10332000A2F0010E67EF93F0948E949C240EAD6E84
:10333000900EAC6E1F0EB06E1F0C30313233343530
:1033400036373839414243444546060606050504EA
:1033500004040303020201010101656F6551D8B441
:103360001200010AD8A4030A1200380ECD6E9E90F6
:103370009D80CD80E46BE56B120000018A6F89C0EF
:1033800087F08A518CEF96F00001606FADA2FED7F6
:1033900060C0AEFF1200D7EC83F00001DFB7010C74
:1033A000000C000E67EC99F0C9501200000E74EC8E
:1033B00099F0C9501200949A94969E961200DF9745
:1033C00038EF99F0FF112233440000F0120001039E
:0633D000120012001200C1
:06FFF800A0F4C5F7F8FFBC
:00000001FF
