:04000000D2EF00F04B
:10000800D9CF18F0DACF19F0F3CF1AF0F4CF1BF0EC
:10001800F0B6F0A0B0D0F090620EC0EC1BF01D6EF0
:100028001DA012D00001D791D7BDD79DD26BD36B3D
:10003800D7A30AD0480EC0EC1BF01C6E1CA002D03F
:100048000001D7850001D7931DA68ED01F68206AAE
:1000580020504E0D0201000EF324D96E020EF4203A
:10006800DA6EDF5003E120C01FF004D0202A010E11
:100078002064EED7020E1F5C6FE2040E026E730E50
:10008800E9EC1BF01F504E0D0201000EF324D96E4F
:10009800020EF420DA6E030E036E000E026AEFEC15
:1000A80019F0020FDF6E1F504E0D0201000EF324EF
:1000B800D96E020EF420DA6EDF50136E4D0E135C0B
:1000C80041E20001D78B010E206E1AD01F504E0D51
:1000D800000E136E020E146EF3501326F450142201
:1000E80020501324D96E000E1420DA6E000E20243E
:1000F800026E036A030E0322EFEC19F0DF6E202A6A
:100108002050136E146A1F504E0D0201000EF32486
:10011800D96E020EF420DA6EDF50156E166A020EE2
:100128001526000E16221650800A176E1350155CFD
:100138001450800A1758CAE2010E026E1B0EE9EC31
:100148001BF005D0010E026E1B0EE9EC1BF0026AD3
:10015800730EE9EC1BF008D0010E026E1B0EE9ECE1
:100168001BF00001D797D7991DA805D0800E026E05
:10017800590EE9EC1BF09EB09DA005D09E90362A42
:10018800366601D0372A9DEC1CF01BC0F4FF1AC05C
:10019800F3FF19C0DAFF18C0D9FF11003CEF18F0BF
:1001A8006C0E7D6F96D38451250A09E068C0D9FF8B
:1001B80069C0DAFF84C0DFFF684B692B8AD37F6B85
:1001C800806B856B866B09D0858705D0858103D0C8
:1001D800868701D085856A4B6B2B6AC0F6FF6BC09A
:1001E800F7FF0800F550200AF1E0030AF1E00E0AD3
:1001F800EBE01D0AEFE085B785956AC0F6FF6BC096
:10020800F7FF0800F55061EC1CF02EE37F6B806B64
:100218007FC021F080C022F0246A0A0E236EFDEC14
:100228001BF021C07FF022C080F0D00E726F73697E
:100238006AC0F6FF6BC0F7FF0800F550746F756B66
:10024800725174277351752374517F277551802318
:100258006A4B6B2B6AC0F6FF6BC0F7FF0800F550BE
:1002680061EC1CF014E3D4D76AC0F6FF6BC0F7FF4B
:100278000800F5502A0A0BE17D51D96EDA6ADECF03
:100288007FF0DDCF80F0020E7D276A4B6B2B6AC0B2
:10029800F6FF6BC0F7FF0800F5502E0A30E1868D97
:1002A8006A4B6B2B6AC0F6FF6BC0F7FF0800F5506E
:1002B8002A0A0AE17D51D96EDA6ADF507E6F020E92
:1002C8007D276A4B6B2B8FD07E6B0FD06AC0F6FFF1
:1002D8006BC0F7FF0800F5CF72F07E510A0DF3509E
:1002E8007225D00F7E6F6A4B6B2B6AC0F6FF6BC00E
:1002F800F7FF0800F55061EC1CF075E3E7D77E6B5B
:1003080072D0858D8ED0858B858F8BD07E510FE0F6
:100318007EC072F0736B72BF73078251725D835136
:10032800735905E27E51826F836B82BF83077F51C9
:10033800825D8051835907E220EE82F0DE507F5FB4
:10034800DD50805B02D07F6B806B85A709D01DD004
:1003580068C0D9FF69C0DAFF200EDF6E684B692BD1
:100368007F07D8A0800700017F29D8B480290DE035
:10037800EFD78151D96EDA6A68C0E1FF69C0E2FF40
:10038800DFCFE7FF812B684B692B8207D8A0830753
:1003980000018229D8B48329ECE185B709D099D224
:1003A80068C0D9FF69C0DAFF200EDF6E684B692B81
:1003B8007F07D8A0800700017F29D8B4802901E1F0
:1003C80088D2EED77D51D96EDA6ADF50846F020E7B
:1003D8007D27840E816F000E836F010E826F96D782
:1003E800C00E85131ED06AC0F6FF6BC0F7FF6A4BBC
:1003F8006B2B0800F5CF84F00001845101E175D220
:10040800580A81E03B0ADEE0070A0BE00D0A09E022
:10041800060A01E176D71A0AE3E00D0A01E174D76A
:10042800D8D785C072F0C00E721719E17D51D96E08
:10043800DA6ADECF81F0DDCF82F0020E7D278251AD
:10044800800AF36E800EF35C000ED8B4815D10E272
:10045800030E8513816D821FD8B0822B09D07D5180
:10046800D96EDA6ADECF81F0DDCF82F0020E7D2709
:100478007E6753D08251811150E17E2B4ED0010E00
:10048800846F8451050A52E08451020DC10EF32491
:10049800F66EFC0EF420F76E0900F5CF72F0090035
:1004A800F5CF73F07251815D735182593FE3842B0C
:1004B800E8D7010E846F8451040A38E08451020D94
:1004C800CB0EF324F66EFC0EF420F76E0900F5CF80
:1004D80072F00900F5CF73F07251815D7351825942
:1004E80025E3842BE8D7010E846F8451060A1EE0A9
:1004F8008451020DB50EF324F66EFC0EF420F76E4F
:100508000900F5CF72F00900F5CF73F07251815DE3
:10051800735182590BE3842BE8D78551C00BAFE0A8
:10052800400AE1E0C00AC5E0400AA9E08451800A17
:10053800726F7E51800A725D03E27EC084F009D03A
:100548007E51800A726F8451800A725DD8A084C07F
:100558007EF080517F1108E085C072F0030E72179B
:1005680003E07F07D8A0800786AD13D0800E7EBF3A
:100578007F0E726F7F517E5D8051800A725907E24B
:100588007E517F5F000E7EBFFF0E805B02D07F6BC7
:10059800806BC40E726F080E736F85C074F086C0CE
:1005A80075F072517417735175177551080A400E1A
:1005B800D8B4741907E180517F1124E07F07D8A0CF
:1005C800800720D0C00E726F080E736F85C074F05C
:1005D80086C075F072517417735175177551080AF2
:1005E800800ED8B474190EE18051800A800F030E72
:1005F800D8B47F5D05E3FE0E7F27FF0E802302D06F
:100608007F6B806B800E84BF7F0E726F7F51845D1D
:100618008051800A725907E284517F5F000E84BFBF
:10062800FF0E805B02D07F6B806B85A550D085C0A4
:1006380072F0030E721709E068C0D9FF69C0DAFFCB
:100648002D0EDF6E684B692B31D085A106D068C0AE
:10065800D9FF69C0DAFF200EF4D7C00E726F080EFA
:10066800736F85C074F086C075F07251741773513A
:1006780075177551080A800ED8B4741917E168C047
:10068800D9FF69C0DAFF300EDF6E684B692B85BB76
:1006980003D0786B780E02D0786B580E776F68C0ED
:1006A800D9FF69C0DAFF77C0DFFFCCD780517F114F
:1006B80001E1F3D068C0D9FF69C0DAFF300EDF6E00
:1006C800684B692B7F07D8A080070001EFD78051BE
:1006D8007F11D8A485B70FD068C0D9FF69C0DAFFE9
:1006E800200EDF6E684B692B7F07D8A080070001BA
:1006F80080517F11F1E185C072F0030E721709E095
:1007080068C0D9FF69C0DAFF2D0EDF6E684B692B10
:1007180008D085A106D068C0D9FF69C0DAFF200ECD
:10072800F4D7C00E726F080E736F85C074F086C060
:1007380075F072517417735175177551080A400E88
:10074800D8B4741909E168C0D9FF69C0DAFF300E5E
:10075800DF6E684B692BA1D0C00E726F080E736FE5
:1007680085C074F086C075F072517417735175178F
:100778007551080A800ED8B4741901E08ED068C08B
:10078800D9FF69C0DAFF300EDF6E684B692B85BB75
:1007980003D07A6B780E02D07A6B580E796F68C0E6
:1007A800D9FF69C0DAFF79C0DFFFD3D77E51020DC8
:1007B800C10EF324F66EFC0EF420F76E0900F5CF97
:1007C80023F00A00F5CF24F081C021F082C022F086
:1007D8003DEC1AF021C063F022C064F0666B0A0E8B
:1007E800656FA1EC1AF0635145D081C021F082C039
:1007F80022F07E51020DCB0EF324F66EFC0EF4208F
:10080800F76E0900F5CF23F00A00F5CF24F03DEC90
:100818001AF021500F0B766F85BB04D0FF0E7C6F4A
:10082800570E03D0FF0E7C6F460E7B6F76517B25EB
:10083800726F000E7C21736F72C0F6FF73C0F7FFF2
:100848000800F5CF84F022D081C021F082C022F0C8
:100858007E51020DB50EF324F66EFC0EF420F76EF1
:100868000900F5CF23F00A00F5CF24F03DEC1AF08B
:100878002150070B300F846F09D08551C00B96E0CB
:10088800400AE2E0C00AB1E0400A90E068C0D9FF3F
:1008980069C0DAFF84C0DFFF5CD77E0700017E29CC
:1008A800ECE185A716D08051800A800F010ED8B4DC
:1008B8007F5D0FE368C0D9FF69C0DAFF200EDF6EE5
:1008C800684B692B7F07D8A08007000180517F11F2
:1008D800F1E16AC0F6FF6BC0F7FF6A4B6B2B0800AB
:1008E800F5CF84F0000184675ED468C0D9FF69C081
:1008F800DAFF000EDF6E000C81A2F080D7A10BD0CA
:10090800400ED25D000ED35904E3D26BD36BD7915E
:1009180002D0D24BD32BF6699D6B9D514E0D000E24
:10092800F324D96E020EF420DA6EDF5003E09DC086
:10093800F6F005D000019D2B010E9D65EED7020E45
:100948000001F65D01E30DD2010E986FF6514E0DD0
:10095800010EF324D96E020EF420DA6EDF50936F85
:1009680093AD986BDE6BE66BF6514E0D020EF324D9
:10097800D96E020EF420DA6EDF50CC0B976FF2D1ED
:10098800F6514E0D060EF324D96E020EF420DA6EDF
:10099800FF0EDF620DD00001F6514E0D070EF32455
:1009A800D96E020EF420DA6EFF0EDF6201D0DE850A
:1009B8000001DE8F98512FE0F6514E0D040EF324FE
:1009C800D96E020EF420DA6EDF50E76FF6514E0D45
:1009D800050EF324D96E020EF420DA6EDF50E86FAC
:1009E800F6514E0D080EF324DF6F020EF4200001BD
:1009F800E06FF6514E0D000EF324D96E020EF4206E
:100A0800DA6EDF50ED0FE36FF6514E0D100EF32442
:100A1800E16F020E3FD1F6514E0D080EF324D96E48
:100A2800020EF420DA6EDF500001E76FF6514E0D2A
:100A3800090EF324D96E020EF420DA6EDF50E86F47
:100A4800F6514E0D0A0EF324DF6F020EF42000015A
:100A5800E06FF6514E0D000EF324D96E020EF4200D
:100A6800DA6EDF50EB0FE36FF6514E0D120EF324E2
:100A7800E16F020E0FD1DE8F98512FE0F6514E0D27
:100A8800040EF324D96E020EF420DA6EDF50000152
:100A9800E76FF6514E0D050EF324D96E020EF420C1
:100AA800DA6EDF50E86FF6514E0D0E0EF324DF6F4D
:100AB800020EF420E06FF6514E0D000EF324D96EAD
:100AC800020EF420DA6EDF50E70FE36FF6514E0D99
:100AD800160EF324E16F020EDDD0F6514E0D0E0E08
:100AE800F324D96E020EF420DA6EDF500001E76FAE
:100AF800F6514E0D0F0EF324D96E020EF420DA6E65
:100B0800DF50E86FF6514E0D100EF324DF6F020E22
:100B1800F420E06FF6514E0D000EF324D96E020E4C
:100B2800F420DA6EDF50E50FE36FF6514E0D180E24
:100B3800F324E16F020EAED0DE85DE8F010EE66F84
:100B4800F6514E0D040EF324D96E020EF420DA6E1F
:100B5800DF500001E76FF6514E0D050EF324D96EF4
:100B6800020EF420DA6EDF50E86FF6514E0D060ED5
:100B7800F324DF6F020EF420E06FF6514E0D000EE5
:100B8800F324D96E020EF420DA6EDF50F50F00015F
:100B9800E36FF6514E0D080EF324E16F020E7AD082
:100BA800F6514E0D060EF324D96E020EF420DA6EBD
:100BB800FF0EDF620DD00001F6514E0D070EF32433
:100BC800D96E020EF420DA6EFF0EDF6201D0DE85E8
:100BD8000001DE8F010EE66F98672ED0F6514E0D9C
:100BE800080EF324D96E020EF420DA6EDF50E76F98
:100BF800F6514E0D090EF324D96E020EF420DA6E6A
:100C0800DF50E86FF6514E0D0A0EF324DF6F020E27
:100C1800F420E06FF6514E0D000EF324D96E020E4B
:100C2800F420DA6EDF50F10FE36FF6514E0D0C0E23
:100C3800F324E16F020E2ED0F6514E0D040EF3246C
:100C4800D96E020EF420DA6EDF500001E76FF6511C
:100C58004E0D050EF324D96E020EF420DA6EDF5025
:100C6800E86FF6514E0D080EF324DF6F020EF420E4
:100C7800E06FF6514E0D000EF324D96E020EF420EB
:100C8800DA6EDF50F30FE36FF6514E0D0A0EF324C0
:100C9800E16F020EF4200001E26F76D0DE8F010EC4
:100CA800E66F98511CE0F6514E0D040EF324D96EF0
:100CB800020EF420DA6EDF500001E76FF6514E0D98
:100CC800050EF324D96E020EF420DA6EDF50E86FB9
:100CD800F6514E0D0D0EF324DF6F020E87D6F65136
:100CE8004E0D0D0EF324D96E020EF420DA6EDF508D
:100CF8000001E76FF6514E0D0E0EF324D96E020E69
:100D0800F420DA6EDF50E86FF6514E0D0F0EF32423
:100D1800DF6F020E9BD6F6514E0D060EF324D96EE8
:100D2800020EF420DA6EFF0EDF620DD00001F651DC
:100D38004E0D070EF324D96E020EF420DA6EFF0E64
:100D4800DF6201D0DE850001F6514E0D000EF3245E
:100D5800D96E020EF420DA6EDF50F60F18D723ECA6
:100D68001CF0000C9751080AD6E0880A01E1E4D685
:100D7800080A01E115D7040A91E0440A01E100D606
:100D8800040A01E178D6EBD7F6514E0D010EF32493
:100D9800D96E020EF420DA6EDF500001936F93A72C
:100DA800A7D0C00E975DDBE3E1C0D9FFE2C0DAFF50
:100DB800DF50996F20EE01F0E151D926E251DA2295
:100DC800DF509A6F20EE02F0E151D926E251DA2283
:100DD800DF509B6F20EE03F0E151D926E251DA2271
:100DE800DF509C6F9D6B9D510A0D430EF324D96E05
:100DF800010EF420DA6EDFAE11D000019D510A0D0C
:100E08003B0EF324216E010EF420226EE0C024F084
:100E1800DFC023F065EC1BF0000905E100019D2B04
:100E2800040E9D65E0D7050E9D5D2BE29D51040DD6
:100E3800230EF324D96E010EF420DA6EDECF93F080
:100E4800DECF94F0DECF95F0DECF96F0000193511F
:100E5800995D94519A5995519B5996519C5901E223
:100E68007ED79D51040D230EF324D96E010EF42074
:100E7800DA6E99C0DEFF9AC0DEFF9BC0DEFF9CC021
:100E8800DEFF050EE35FE125796F000EE2217A6F40
:100E9800E30E7B6FE0C07DF0DFC07CF099C07EF090
:100EA8009AC07FF09BC080F09CC081F0F6514E0D37
:100EB800010EF324D96E020EF420DA6EDF50000121
:100EC800826F54EC0CF0000901E149D7050E0001CE
:100ED800E127000EE223DE870BD0FC0EDE171FD0C1
:100EE800DE51FC0B0109DE6F1AD0030EDE1317D09A
:100EF800F6514E0D010EF324D96E020EF420DA6E6F
:100F0800DF50070B0001936F946B945101E027D7D2
:100F18009351EBE0010AE1E0020AE2E020D7F65142
:100F28004E0D000EF324D96E020EF420DA6EDF5057
:100F38000001936FF6514E0DFF0E946F010E956FE1
:100F4800F3509427F450952393519425D96E000EAD
:100F58009521DA6EDF50E56FF6514E0D000EF32441
:100F6800D96E020EF420DA6EDF50936FF6514E0DF3
:100F7800000E946F020E956FF3509427F45095234A
:100F880093519425D96E000E9521DA6EDF50E46FE7
:100F9800010C0001D9A335D017EC1AF021C0B6F125
:100FA80022C0B7F123C0B8F124C0B9F1CE51010174
:100FB800B65D0001BB6FCF510101B7590001BC6F8D
:100FC800D0510101B8590001BD6FD1510101B95982
:100FD8000001BE6F910EBB5DD00EBC59030EBD590A
:100FE800000EBE590EE3D993010E616F3B0E606F80
:100FF8003AC062F03BC063F0656B320E646F2AEC56
:1010080017F00001D9B7120080EC04F00009D8B439
:1010180012000001C46BDEA503D0BB6BBB2B01D053
:10102800BB6BC451BB19FC0BBB19C46FDEA702D044
:10103800C48702D00001C497DE51030BBB6FBB0508
:10104800010ED8A4000EBC6FBC3BBC47C451BC19F0
:10105800DF0BBC19C46FDEAF02D0C48D02D0000113
:10106800C49DDEAF04D0E0C0C8F0DFC0C7F0E7C061
:10107800C5F0E8C0C6F0E3C0CBF0E2C0CAF0E1C0FA
:10108800C9F0E5C0CDF0E4C0CCF0C4BBEDD100D2CE
:1010980020EE01F0C951D926CA51DA22DF50F519DC
:1010A80003E023EC1CF0F5D1FF51030AFAE0C5294F
:1010B800D8B4C62911E020EEC5F0DE52F251DD1891
:1010C800F1C0E8FFD8B4DF1807E020EECBF0020E3D
:1010D800DF6402D0F20E02D02FEC14F00101BC6FD5
:1010E8000001FF0508E10101BC0505E0BC51020A49
:1010F80002E0F30EBC6F0001DA6B6D0EDA25D96ED3
:10110800DA6A010EDA22910EDF6EDA2B6D0EDA251D
:10111800D96EDA6A010EDA22BCC1DFFFDA2B0101CF
:10112800BC5102E0BC051EE16D0E0001DA25D96E46
:10113800DA6A010EDA22D8C0DFFFDA2B0101BD6BB3
:10114800BD51D40FD96EDA6A6D0E0001DA25E16E51
:10115800E26A010EE222DFCFE7FFDA2B0101BD2BA5
:10116800BD51EEE023EC1CF0C5C0ABF0C6C0ACF03E
:101178000001C8C0AEF0C7C0ADF0010EAF6F000EE1
:10118800C4B7010EB06F000E23EC16F00101BC6766
:1011980080D10001D6510A0D3B0EF324606F010E79
:1011A800F420616FD6510A0D3A50F324626F3B5018
:1011B800F420636F656B0A0E646F2AEC17F069D12F
:1011C800020EFF6501D06DD720EE01F0C951D92676
:1011D800CA51DA22DF50F51901E063D7DA6B6D0ED8
:1011E8000001DA25D96EDA6A010EDA22970EDF6E6F
:1011F800DA2B6D0EDA25D96EDA6A010EDA22D8C03A
:10120800DFFFDA2B0101BD6BBD51D40FD96EDA6A4D
:101218006D0E0001DA25E16EE26A010EE222DFCFEF
:10122800E7FFDA2B0101BD2BBD51EEE023EC1CF0EA
:10123800C5C0ABF0C6C0ACF00001C8C0AEF0C7C0B6
:10124800ADF0010EAF6F000EC4B7010EB06F000E07
:1012580023EC16F01ED1DA6B6D0E0001DA25D96E7B
:10126800DA6A010EDA22920EDF6EDA2B0101BD6B0B
:10127800BD510A0D430EF324D96E010EF420DA6E27
:10128800DFAE3ED0C8C022F0C7C021F00101BD5179
:101298000A0D3B0EF324236E010EF420246E65EC38
:1012A8001BF000092DE00101BD510A0D430EF32486
:1012B800D96E010EF420DA6EDF6ABD510A0D3B0EBD
:1012C800F3240001606F010EF420616F0101BD512C
:1012D8000A0D3A50F3240001626F3B50F420636F0B
:1012E800656B0A0E646F2AEC17F06D0E0001DA25A3
:1012F800D96EDA6A010EDA22000EDF6ADA2B05D01F
:101308000101BD2B040EBD65B3D723EC1CF0010110
:10131800BD51050A0AE16D0E0001DA25D96EDA6AB7
:10132800010EDA22F00EDF6EDA2BC5C0ABF0C6C0B4
:10133800ACF00001C8C0AEF0C7C0ADF0010EAF6F91
:10134800000EC4B7010EB06F000E23EC16F0A1D04A
:10135800F129D8B4F2291DE1C5C0F1F0C6C0F2F0F8
:101368000101BA69BB69010E0001616FBA0E606FB5
:10137800F10E626F6DEC19F00001616BF10E606F98
:101388003EC062F03FC063F0656B020E646F2AECEA
:1013980017F02FEC14F0D98317EC1AF021C0CEF017
:1013A80022C0CFF023C0D0F024C0D1F07AD620EEEE
:1013B80001F0C951D926CA51DA22DF50C9E0010A21
:1013C800C7E06FD6D9BBD99B6CD620EE01F0C951C6
:1013D800D926CA51DA22DF5001E063D60101BD6B7C
:1013E800BD510A0D430EF324D96E010EF420DA6EB6
:1013F800DFAE34D0C8C022F0C7C021F00101BD5112
:101408000A0D3B0EF324236E010EF420246E65ECC6
:101418001BF0000923E00101BD510A0D430EF3241E
:10142800D96E010EF420DA6EDF6ABD510A0D3B0E4B
:10143800F3240001606F010EF420616F0101BD51BA
:101448000A0D3A50F3240001626F3B50F420636F99
:10145800656B0A0E646F2AEC17F023D60101BD2BC9
:10146800040EBD65BDD71DD6C9C0D9FFCAC0DAFFF5
:10147800DF50810A01E10CD6030A01E1ECD6050A26
:1014880001E19ED6160A93E0030A9FE0050A9AE056
:10149800D9870001CB51D8A4D9B902D0D9AB120051
:1014A800D99723EF1CF0AA6B90A502D0010E936F79
:1014B80090B7946B9051030B9A6F9A0502E1030E53
:1014C80004D09051030B02E1010EA76F20EE95F0B6
:1014D800DE52EE51DD18EDC0E8FFD8B4DF180AE19E
:1014E800ED29D8B4EE2906E0050EA86FA78D010EE8
:1014F800A66F03D0070EA86FA66B9351020ED8B43F
:10150800080EA8279451020ED8B4080EA82790BB3D
:1015180090B501D0A78B9051030B030A07E1A76B85
:10152800070EA86FA66B010E946F909B90A713D01F
:10153800A78798C07AF097C079F0990E7B6FE9C0B9
:101548007CF0EAC07DF0EBC07EF0ECC07FF0A7C075
:1015580080F05AEC0FF0000E236A226AA8C024F02B
:10156800C5EC19F00001AA2B90A70CD0AAC022F054
:10157800236AA8519925050F246EC5EC19F00001BE
:10158800AA2B09D0AAC022F0236AA8519925246E53
:10159800C5EC19F0F4D7AAC022F0236AA7C024F03A
:1015A800C5EC19F00001AA2B9051030B030A13E1B3
:1015B800AAC022F0236A800E246EC5EC19F000013F
:1015C800AA2BAAC022F0236AD5C024F0C5EC19F0D2
:1015D8000001D52B5DD093510CE094510AE0AAC0CC
:1015E80022F0236A880E246EC5EC19F00001AA2B9C
:1015F80020D093510AE0946708D0AAC022F0236A49
:10160800C80E246EC5EC19F0F1D793670AD094057B
:1016180008E1AAC022F0236A8C0E246EC5EC19F0EA
:10162800E5D7AAC022F0236ACC0E246EC5EC19F0C7
:10163800DDD7AAC022F0236AD5C024F0C5EC19F082
:101648000001D52BAA2BAAC022F0236A95C024F04A
:10165800C5EC19F00001AA2BAAC022F0236A96C093
:1016680024F0C5EC19F00001AA2B90A513D0AAC04C
:1016780022F0236AFF0E2468C5EC19F00001AA2B9A
:10168800AAC022F0236AFF0E2468C5EC19F01ED008
:10169800AA2B32D093511CE0AAC022F0236A91C031
:1016A800D9FF92C0DAFFDF50246EC5EC19F00001B3
:1016B800AA2BAAC022F0236A20EE01F09151D92664
:1016C8009251DA22DF50246EC5EC19F00001E0D700
:1016D800A96BAAC022F0236AA9519125D96E000EE0
:1016E8009221DA6EDF50246EC5EC19F00001AA2BA6
:1016F800A92B070EA965EDD7A66712D0AAC022F0BC
:10170800236AEDC024F0C5EC19F00001AA2BAAC089
:1017180022F0236AEEC024F0C5EC19F00001AA2BD0
:10172800945113E0AAC022F0236AEFC024F0C5EC5C
:1017380019F00001AA2BAAC022F0236AF0C024F0F5
:10174800C5EC19F00001AA2B12D0A96BAAC022F08F
:10175800236A2E50A925D96EDA6ADF50246EC5ECAB
:1017680019F00001AA2BA92B070EA965EFD790A79E
:1017780034D0A96BAAC022F0236AA951E90FD96E07
:10178800DA6ADF50246EC5EC19F00001AA2BA92BE8
:10179800030EA965EFD7E92B000EEA23EB23EC2310
:1017A800E96711D0EAC09AF0030E9A170CE1616B51
:1017B800E90E606FF3C062F0F4C063F0656B040E6D
:1017C800646F2AEC17F00001AAC022F0236A000E09
:1017D800246AC5EC19F00001AA2BA96B10D0AAC085
:1017E80022F0236AA9519725D96E000E9821DA6E46
:1017F800DF50246EC5EC19F00001AA2BA92B9951D2
:10180800A95DEDE3D78190BB90B504D0050EA96F13
:10181800D78303D0010EA96FD793A9C022F0370E42
:10182800D5EC1BF017EC1AF021C09EF022C09FF0F7
:1018380023C0A0F024C0A1F081A2F080D7B104D0C9
:10184800D7A5010CD795000C17EC1AF021C0A2F00F
:1018580022C0A3F023C0A4F024C0A5F09E51A25D2D
:101868009A6F9F51A3599B6FA051A4599C6FA15186
:10187800A5599D6F110E9A5D270E9B59000E9C5914
:10188800000E9D59D9E3B0EC11F00001616BEF0E29
:10189800606FED0E626F6DEC19F00001D791000CCE
:1018A800010E226E1B0ED5EC1BF0040E226E730E79
:1018B800D5EC1BF0236A226A0D0E246EC5EC19F0D4
:1018C800236A010E226E00017B51D96EDA6ADF505D
:1018D8000F0F246EC5EC19F00001916B020E906F8A
:1018E800236A226E82C024F0C5EC19F00001904BE7
:1018F800912B90C022F091C023F07EC024F0C5EC5B
:1019080019F00001904B912B90C022F091C023F068
:101918007FC024F0C5EC19F00001904B912B90C0CA
:1019280022F091C023F080C024F0C5EC19F000012A
:10193800904B912B90C022F091C023F081C024F0ED
:10194800C5EC19F00001904B912B926B90C022F0DE
:1019580091C023F092517C25D96E000E7D21DA6E5C
:10196800DF50246EC5EC19F00001904B912B922B9F
:10197800070E9265EBD7926B12D090C022F091C0FF
:1019880023F092517925D96E000E7A21DA6EDF5054
:10199800246EC5EC19F00001904B912B922B7B51D2
:1019A800D96EDA6ADF50925DE8E3020E916F4C0E51
:1019B800906F926B90C022F091C023F092517C25D9
:1019C800D96E000E7D21DA6EDF50246EC5EC19F059
:1019D80000019007D8A09107922B070E9265EAD7CD
:1019E800926B90C022F091C023F092517E0FD96E75
:1019F800DA6ADF50246EC5EC19F000019007D8A010
:101A08009107922B030E9265ECD790C022F091C0FB
:101A180023F0040E246EC5EC19F000019007D8A03D
:101A28009107020E916F800E906F926B90C022F01A
:101A380091C023F0A50E9225F66EF76AFC0EF722E8
:101A48000800F5CF24F0C5EC19F00001904B912B5C
:101A5800922B0F0E9265EAD7800E226E6F0ED5EC90
:101A68001BF0040E226E590ED5EC1BF00001D78D29
:101A7800D781030E226E370ED5EC1BF017EC1AF047
:101A880021C087F022C088F023C089F024C08AF0E2
:101A980031D081A2F08017EC1AF021C08BF022C05F
:101AA8008CF023C08DF024C08EF087518B5D836F3E
:101AB80088518C59846F89518D59856F8A518E59F7
:101AC800866F910E835DD00E8459030E8559000EE2
:101AD800865910E3B0EC11F00001636B335082ECCF
:101AE8001AF00001616BEF0E606FED0E626F6DEC26
:101AF80019F0000CD7BDCDD7600EABEC1BF0000180
:101B08008F6F8FAD0FD0400E226E610ED5EC1BF09B
:101B1800226A730ED5EC1BF0010E226E1B0ED5EC5B
:101B28001BF0000C7B51D96EDA6A236A010E226E13
:101B38009AEC19F0F30FDF6E15D07B51D96EDA6A83
:101B4800120E0ED07B51D96EDA6A0A0E09D07B517B
:101B5800D96EDA6A060E04D07B51D96EDA6A020EA3
:101B6800DF5E0FD0040E010AF7E0030AE6E0010A7F
:101B7800E9E0070AECE0010AE0E0030AE3E0010A11
:101B8800E6E0916B0F0E906F926B10D09251792511
:101B9800D96E000E7A21DA6E90C022F091C023F03F
:101BA8009AEC19F0DF6E904B912B922B7B51D96EEA
:101BB800DA6ADF50925DEAE3226A730ED5EC1BF015
:101BC800010E226E1B0ED5EC1BF0010CFDEC17F07C
:101BD800A7EC1CF0FF0E886FAA0E876F896B010EA9
:101BE8008A6F62EC1AF0FF0E236EE90E226E34EC57
:101BF8001CF0FF0E236EF20E226E34EC1CF0FF0E6A
:101C0800236EA80E226E34EC1CF0FE0E236E940E8A
:101C1800226E34EC1CF0FF0E236E0B0E226E34EC99
:101C28001CF0FD0E236E830E226E34EC1CF0FF0EAA
:101C3800236E970E226E34EC1CF0899489967DEC05
:101C480016F0FE0E236EC60E226E34EC1CF0010157
:101C5800D26BD2510001FE08D96EDA6ADF50DDEC92
:101C68001AF00101D22B070ED265F3D7000EA9ECAA
:101C780012F00B0E7EEC1BF0000917E1FD0E236E2F
:101C8800AE0E226E34EC1CF0FE0E236E5A0E226E3F
:101C980034EC1CF0FD0E0001886FF90E876F896B1C
:101CA800010E8A6F62EC1AF0FFD7000EC0EC1AF032
:101CB800FE0E0001886F1B0E876F0B0E896F010ED9
:101CC8008A6F62EC1AF0FE0E236E780E226E34ECE8
:101CD8001CF0000E0001636B646B656B666B676BD1
:101CE80096EC1BF00101D26907D00001BF6BFF0E13
:101CF80089EC13F00101D26FD229F7E0FE0E000142
:101D0800886F3B0E876F896B010E8A6F62EC1AF041
:101D1800FF0EA9EC10F08984226A640E216ED5ECBE
:101D280014F0FAEC1AF044EC1CF0010E0001696F93
:101D3800950E686FFE0E6B6FDD0E6A6FF9C06CF062
:101D48006D6BF8C06EF06F6BF7C070F0716BD4EC10
:101D580000F0010E0001696FA50E686FFE0E6B6F33
:101D6800F40E6A6F0101D2510A0D3D0EF324D96EAB
:101D7800010EF420DA6EDF5000016C6F6D6B01010B
:101D8800D2510A0D3C0EF324D96E010EF420DA6EFE
:101D9800DF5000016E6F6F6B0101D2510A0D3B0ECF
:101DA800F324D96E010EF420DA6EDF500001706F53
:101DB800716BD4EC00F087EC1CF0FD0E236E170E4F
:101DC800226E34EC1CF0FF0E236E8A0E226E34EC69
:101DD8001CF0FD0E236E170E226E34EC1CF0FF0E65
:101DE800236EE60E226E34EC1CF0C0EC1CF00009E9
:101DF800D8A4C7EC15F0A4BA79EC18F00001DC51AE
:101E08002FE017EC1AF021C037F122C038F123C0B7
:101E180039F124C03AF1E10E0101CA6F700ECB6F9F
:101E2800720ECC6FCD6B2950375DCE6F2A50385962
:101E3800CF6F2B503959D06F2C503A59D16FCA51A6
:101E4800CE5DCB51CF59CC51D059CD51D15906E2A5
:101E5800230E0001DB5D02E2DD05D8B4AFEC18F01B
:101E680081B0C3D781A0FED7FD0E236ED70E226E98
:101E780034EC1CF0FF0EA9EC10F0FD0E236E170ECB
:101E8800226E34EC1CF0FF0E236E8A0E226E34ECA8
:101E98001CF0FD0E236E170E226E34EC1CF0FF0EA4
:101EA800236EEE0E226E34EC1CF09FD7010E226ECC
:101EB8001B0ED5EC1BF0040E226E730ED5EC1BF036
:101EC800236A226A0D0E246EC5EC19F0236A010EEE
:101ED800226E00017B51D96EDA6ADF500D0F246E35
:101EE800C5EC19F000018E6B020E8D6F236A226E0D
:101EF80080C024F0C5EC19F000018D4B8E2B8DC0ED
:101F080022F08EC023F07CC024F0C5EC19F000014B
:101F18008D4B8E2B8DC022F08EC023F07DC024F017
:101F2800C5EC19F000018D4B8E2B8DC022F08EC0B0
:101F380023F07EC024F0C5EC19F000018D4B8E2BE8
:101F48008DC022F08EC023F07FC024F0C5EC19F0BC
:101F580000018D4B8E2B8F6B8DC022F08EC023F02D
:101F68002E508F25D96EDA6ADF50246EC5EC19F031
:101F780000018D4B8E2B8F2B070E8F65EDD78F6B46
:101F880012D08DC022F08EC023F08F517925D96EE2
:101F9800000E7A21DA6EDF50246EC5EC19F00001CC
:101FA8008D4B8E2B8F2B7B51D96EDA6ADF508F5D6C
:101FB800E8E3020E8E6F4C0E8D6F8F6B8DC022F092
:101FC8008EC023F02E508F25D96EDA6ADF50246E2A
:101FD800C5EC19F000018D07D8A08E078F2B070ECE
:101FE8008F65ECD78F6B8DC022F08EC023F08F5198
:101FF8007C0FD96EDA6ADF50246EC5EC19F0000147
:102008008D07D8A08E078F2B030E8F65ECD78DC058
:1020180022F08EC023F0040E246EC5EC19F00001E6
:102028008D07D8A08E07020E8E6F800E8D6F8F6B76
:102038008DC022F08EC023F0A50E8F25F66EF76AAC
:10204800FC0EF7220800F5CF24F0C5EC19F00001CA
:102058008D4B8E2B8F2B0F0E8F65EAD7400E226E7D
:102068006F0ED5EC1BF0040E226E590ED5EC1BF04A
:102078000001D78D030E226E370ED5EC1BF017EC3E
:102088001AF021C085F022C086F023C087F024C052
:1020980088F02BD081A2F08017EC1AF021C089F0CB
:1020A80022C08AF023C08BF024C08CF08551895D52
:1020B800816F86518A59826F87518B59836F8851F6
:1020C8008C59846F910E815DD00E8259030E83590D
:1020D800000E84590AE3B0EC11F00001616BEF0EB9
:1020E800606FED0E626F6DEF19F0D7BDD3D77B51DE
:1020F800D96EDA6A236A010E226E9AEC19F0F30F90
:10210800DF6E8E6B0F0E8D6F8F6B10D08F51792510
:10211800D96E000E7A21DA6E8DC022F08EC023F0BF
:102128009AEC19F0DF6E8D4B8E2B8F2B7B51D96E6D
:10213800DA6ADF508F5DEAE3226A730ED5EC1BF092
:10214800010E226E1B0ED5EF1BF00001696F050E04
:1021580069652CD0FF0E236E210E226E34EC1CF024
:1021680000016B6B6B51FE08D96EDA6ADF50DDEC4B
:102178001AF000016B2B070E6B65F4D7FF0E236E68
:10218800C00E226E34EC1CF00001F251DDEC1AF0A6
:102198000001F151DDEC1AF0FF0E236EB40E226E31
:1021A80034EC1CF00001F551BDEC17F0050E0001F0
:1021B800695D66E2FD0E236E530E226E34EC1CF050
:1021C800000169510A0D0101430EF324D96E010E75
:1021D800F420DA6EDFAE120000016951DDEC1AF06E
:1021E800FF0E236E9A0E226E34EC1CF000016B6B0E
:1021F800080E6B5D15E269510A0D420E676F010EFC
:10220800686FF3506727F45068236B51675DD96E88
:102218006851D8A06805DA6EDF50DDEC1AF006D0F8
:10222800FF0E236EA50E226E34EC1CF000016B2B02
:10223800070E6B65DDD7FF0E236EA30E226E34ECFE
:102248001CF000016B6B69510A0D440E676F010E9B
:10225800686FF3506727F45068236B516725D96E70
:10226800000E6821DA6EDF50DDEC1AF000016B2BEE
:102278006B51E9E0FF0E236E970E226E38EF1CF0CB
:10228800FD0E236E510E226E34EC1CF000016B6BB8
:102298006B510A0D430EF324D96E010EF420DA6E49
:1022A800DFAE54D000016B51DDEC1AF0FF0E236E47
:1022B8009A0E226E34EC1CF000016A6B080E6A5DFF
:1022C80015E26B510A0D420E676F010E686FF350ED
:1022D8006727F45068236A51675DD96E6851D8A0A2
:1022E8006805DA6EDF50DDEC1AF006D0FF0E236EBB
:1022F800A50E226E34EC1CF000016A2B070E6A65ED
:10230800DDD7FF0E236EA30E226E34EC1CF0000105
:102318006A6B6B510A0D440E676F010E686FF350BC
:102328006727F45068236A516725D96E000E682123
:10233800DA6EDF50DDEC1AF000016A2B6A51E9E031
:10234800FF0E236E970E226E34EC1CF000016B2BEF
:10235800040E6B659DD7040C8C9E030E6E6F6F6B1D
:10236800706B716B19D04D0E666F010E676F686BDD
:10237800696B6607000E675B685B695B000166292D
:10238800D8B46729D8B46829D8B46929F2E16E07A6
:10239800000E6F5B705B715B71516E116F11701184
:1023A800E2E18C8E0A0E726F736B746B756B19D0C9
:1023B8004D0E6A6F010E6B6F6C6B6D6B6A07000ECA
:1023C8006B5B6C5B6D5B00016A29D8B46B29D8B470
:1023D8006C29D8B46D29F2E17207000E735B745B47
:1023E800755B7551721173117411E2E1070E226E5B
:1023F800550ED5EC1BF0540EABEC1BF00001786FBA
:1024080078C065F0070E6517F6E1766B776B764B4B
:10241800772BE80E765D030E7759F9E3010E226EED
:102428001B0ED5EC1BF02268070ED5EC1BF02268BA
:10243800090ED5EC1BF02268030ED5EC1BF02268C0
:10244800050ED5EC1BF00001786B2E507825D96E5F
:10245800DA6ADF50226E7851020DF3500B0FD5EC7B
:102468001BF00001782B070E7865EFD7020E236E5C
:10247800226E800E246EC5EC19F0020E236E030E38
:10248800226E000E246AC5EC19F0020E236E060EA9
:10249800226E900E246EC5EC19F0020E236E070E04
:1024A800226E800E246EC5EC19F0020E236E080E03
:1024B800226E100E246EC5EC19F0020E236E200E4B
:1024C800226E210E246EC5EC19F0800E226E750E58
:1024D800D5EC1BF0400E226E7D0ED5EC1BF0600E85
:1024E800226E7F0ED5EC1BF0980E226E310ED5ECC5
:1024F8001BF0950E226E5D0ED5EC1BF0020E236EBE
:102508000F0E226E9AEC19F0786F78C065F0A00E65
:1025180065176551A00AF2E1E60E226E650ED5EC4C
:102528001BF0020E236E226A030E246EC5EC19F00E
:10253800020E236E010E226E020E246EC5EC19F0F7
:102548000001636B335082EF1AF000017E6F40EC9C
:1025580019F0D96B816B81510A0D430EF324D96EA2
:10256800010EF420DA6EDF6A0001812B040E81650A
:10257800F2D7B8EC1CF0DA6B816B8151040D230E95
:10258800F324D96E010EF420DA6EDE6ADE6ADE6AA2
:10259800DD6A0001812B040E8165EFD77E5151E081
:1025A800616BF50E606F3CC062F03DC063F0656B17
:1025B800010E646F11EC19F01F0E0001F56501D0D2
:1025C8001F0C616BF10E606F3EC062F03FC063F09C
:1025D800656B020E646F11EC19F00001616BFF0E60
:1025E800606F38C062F039C063F0656B010E646FCC
:1025F80011EC19F0010E0001616F3B0E606F3AC0DB
:1026080062F03BC063F0656B320E646F11EC19F039
:10261800FF0E236ED60E226E34EC1CF00001F25130
:10262800DDEC1AF00001F151DDEC1AF0FF0E236E1B
:10263800CC0E226E34EC1CF00001F551DDEC1AF0E2
:1026480038D0120EF26F340EF16F616BF10E606FBD
:102658003EC062F03FC063F0656B020E646F2AEC07
:1026680017F00001616BF50E606F3CC062F03DC071
:1026780063F0656B010E646F2AEC17F00001616B63
:10268800FF0E606F38C062F039C063F0656B010EF1
:10269800646F2AEC17F0010E0001616F3B0E606F4A
:1026A8003AC062F03BC063F0656B320E646F2AEC8F
:1026B80017F00001F70E806F7F837F51870B400969
:1026C8007F6F7EB102D07F9502D000017F857F9118
:1026D8007FC079F080C07AF0D6EC16F000017C69F2
:1026E8007D69616B7C0E606FF10E626F6DEC19F0A5
:1026F8000001F5517EEC1BF00001D86BD881D8871A
:10270800FF39F00BD813F0861200FFC0BEF1030E9C
:102718000101BF6FC46B0001BF0501E1FF0C17EC9D
:102728001AF021C0C0F122C0C1F123C0C2F124C0F7
:10273800C3F1900E0101C05FD00EC15B030EC25BF6
:10274800000EC35B0001FF6BD9897ED017EC1AF02D
:1027580021C0C5F122C0C6F123C0C7F124C0C8F109
:102768000101C051C55D0001C06F0101C151C659C9
:102778000001C16F0101C251C7590001C26F0101B7
:10278800C351C8590001C36F910EC05DD00EC15925
:10279800030EC259000EC35951E3C5C1C0F1C6C1E9
:1027A800C1F1C7C1C2F1C8C1C3F10101C407C4293D
:1027B8004BE1010EC46FBF07BF2903E10001D9999E
:1027C800FF0C0001DA6B6D0EDA25D96EDA6A010E9C
:1027D800DA22810EDF6EDA2B6D0EDA25D96EDA6A0F
:1027E800010EDA22F5C0DFFFDA2B6D0EDA25D96E7D
:1027F800DA6A010EDA22D8C0DFFFDA2B0101C96BD1
:10280800C951D40FD96EDA6A6D0E0001DA25E16E6E
:10281800E26A010EE222DFCFE7FFDA2B0101C92BC2
:10282800C951EEE0F1C0ABF0F2C0ACF00001AE6B04
:10283800AD6B010EAF6FB06B23EC16F0C0EC1CF063
:102848000009D8A4E1EC1CF00001D9B97FD7BEC1BA
:10285800FFF0D65112000001666B6769686B68511A
:102868000A0D430EF324D96E010EF420DA6EDFAEA2
:1028780017D00001C8C022F0C7C021F068510A0D66
:1028880001013B0EF324236E010EF420246E65EC47
:102898001BF000090AE068C067F0010E666F09D0F6
:1028A80000016729D8B468C067F0682B040E686512
:1028B800D6D7672901E1F10CFF5102E066511200F9
:1028C800686B6851C725D96E000EC821DA6E67514A
:1028D8000A0D3B0E626F010E636FF3506227F450CE
:1028E800632368516225E16E000E6321E26EDFCF3B
:1028F800E7FF682B070E6865E4D767510A0D430E9A
:10290800F324D96E010EF420DA6EDF8E000120EE7A
:1029180002F0C951D926CA51DA22DF50626F010E7E
:10292800621767510A0D430EF324D96E010EF42085
:10293800DA6EDF506219FE0B6219DF6E686B685140
:10294800C925626F000ECA21636F030E6225D96E16
:10295800000E6321DA6E67510A0D440E646F010E92
:10296800656FF3506427F450652368516425E16E60
:10297800000E6521E26EDFCFE7FF682B6851DFE0CC
:102988006751040D230EF324D96E010EF420DA6E7C
:10299800DE6ADE6ADE6ADD6A67C0D6F00001D999B0
:1029A8008DD7D00E0001606F070E616F626B636B8D
:1029B8002150646F2250656F666B676B64516003CA
:1029C800F3CF68F0F4CF69F06A6B6B6B6103F35077
:1029D8006927F4506A23000E6B2365516003F35096
:1029E8006927F4506A23000E6B2364516203F35085
:1029F8006A27F4506B2365516103F3506A27F4503A
:102A08006B2366516003F3506A27F4506B236351BC
:102A18006403F3506B2765516203F3506B276651CB
:102A28006103F3506B2767516003F3506B2768C04D
:102A38006CF069C06DF06AC06EF06BC06FF0560E36
:102A48006C27FF0E6D236E236F236F51800A800F52
:102A580008E1000E6E5D05E1000E6D5D02E1C40E39
:102A68006C5DD8A0120008D000F0D90E00016C27C8
:102A7800FF0E6D236E236F236F51800A800F08E1CC
:102A8800000E6E5D05E1000E6D5D02E1010E6C5DEC
:102A9800D8A01200E9D7D00E036E070E046E056A9F
:102AA800066A0150076E0250086E096A0A6A0750E2
:102AB8000302F3CF0BF0F4CF0CF00D6A0E6A040298
:102AC800F3500C26F4500D22000E0E22085003027B
:102AD800F3500C26F4500D22000E0E22075005026A
:102AE800F3500D26F4500E2208500402F3500D2620
:102AF800F4500E2209500302F3500D26F4500E2212
:102B080006500702F3500E2608500502F3500E2611
:102B180009500402F3500E260A500302F3500E2601
:102B28000BC00FF00CC010F00DC011F00EC012F069
:102B3800560E0F26FF0E1022112212221250800A62
:102B4800800F08E1000E115C05E1000E105C02E147
:102B5800C40E0F5CD8A0120007D000F0D90E0F26C3
:102B6800FF0E1022112212221250800A800F08E153
:102B7800000E115C05E1000E105C02E1010E0F5C15
:102B8800D8A01200EAD7C451030B07E0FE0E236E4B
:102B9800AF0E226E34EC1CF006D0FF0E236E340EFE
:102BA800226E34EC1CF00001C4AD2ED0C4AF11D09D
:102BB80020EE01F0C751D926C851DA22DF50DDECEA
:102BC8001AF0C7C0D9FFC8C0DAFFDF50DDEC1AF031
:102BD80015D0626B6251C75D606F000EC859616F96
:102BE800070E6025D96E000E6121DA6EDF50DDEC2C
:102BF8001AF00001622B070E6265ECD7FF0E236EF8
:102C0800DF0E226E34EC1CF0010E0001626F0BD057
:102C18006251C925D96E000ECA21DA6EDF50CCEC9C
:102C28001CF00001622BCB51625DF2E3FF0E236EB4
:102C3800E40E226E34EC1CF08976E1EF1CF0B36FE1
:102C4800B46B000EF36AAF63F32AF3CFB1F0B4515B
:102C5800B119FC0BB119B46FB351010ED8A4000E11
:102C6800B16FB13BB147B451B119DF0BB119B46FB2
:102C7800B3B102D0B49502D00001B485B0B102D08E
:102C8800B49702D00001B487B86B000EF36AB3633F
:102C9800F32AF3CFB1F0B151B76FB351010ED8A4F5
:102CA800000EB16FB13BB147B147B451B119BF0B79
:102CB800B119B46FB48FAEC0B6F0ADC0B5F0ABC04B
:102CC800B9F0ACC0BAF020EEB4F010EE90F0070EF8
:102CD800DECFE6FFE82EFCD7010E0001986F6D0EDF
:102CE800976FDAC099F057EC0AF0B26FDA6BB2510D
:102CF800120094948B94030E6FEC1CF0FA0E6FEC98
:102D08001CF0D7EC1CF00001606FD7EC1CF0000140
:102D1800616FD7EC1CF00001626F8B846067120052
:102D28006151040AD8A412006251A30AD8A412005F
:102D38008B94030E6FEC1CF0FD0E6FEC1CF01AD098
:102D48000001FE6B040E0001FD6FA30E0001FC6F75
:102D58000001FB69FE0E0001FA6FD7EC1CF00001C0
:102D6800F96FD7EC1CF00001F86FD7EC1CF00001EC
:102D7800F76F16D0080E226E236A235011E12250F5
:102D8800010AF3E0030AEDE0010AE7E0070AE2E0DE
:102D9800010ADEE0030AD9E0010AD4E00F0AD0E014
:102DA8008B84120079C02DF07AC02EF0D6CFD5F0E2
:102DB8000B0E336EB0EC11F00001D76B7B6B7B51BF
:102DC8004E0D000EF324D96E020EF420DA6EDF6A7F
:102DD80000017B2B010E7B65F2D779A51FD0616BB3
:102DE800E90E606FF3C062F0F4C063F0656B040E27
:102DF800646F11EC19F00001D890040EEA27000E58
:102E0800EB23EC23616BE90E606FF3C062F0F4C052
:102E180063F0656B040E646F2AEF17F0E96BEA6BD9
:102E2800EB6BEC6B616BE90E606FF3C062F0F4C0A2
:102E380063F0656B040E646F2AEC17F0010E000155
:102E4800E96F000EEA6FEB6FEC6F000C000EF0B646
:102E5800010E666FF0968C9A050E6FEC1CF0D7EC9D
:102E68001CF00001676F8C8AE5EC1CF0000167B16B
:102E7800F2D78C9A060E6FEC1CF08C8AE5EC1CF0ED
:102E88008C9A020E6FEC1CF0000163C022F022C085
:102E980023F0246A23506FEC1CF0000162516FECA0
:102EA8001CF00001676B1AD060C0D9FF61C0DAFF5F
:102EB800DF506FEC1CF00001604B612B6407D8A059
:102EC8006507672B67516225226E3F0E221606E1C1
:102ED8008C8A67516227000E6323BDD76551641140
:102EE800E3E18C8A66B102D0F09601D0F086120038
:102EF8003150325C04E33450355CD8B0120071B004
:102F0800FED73150325C13E23250250FD96EDA6A9F
:102F1800DF50756E322A3150326212003466120068
:102F28007184010E026E2C0E016E4FEF15F03450B5
:102F3800355CD8B012000101950E3524D96EDA6AD5
:102F4800010EDA22DF5008E1950E3524D96EDA6ACF
:102F5800010EDA22200EDF6E950E3524D96EDA6A5C
:102F6800010EDA22DF50756E352A345035621200B0
:102F7800D7D7666F630E666511D0640E606F6651B1
:102F88004BEC1BF0646F656BD30E00016425D96EA2
:102F9800010E6521DA6EDF50CCEC1CF0090E000141
:102FA800666515D00A0E606F640E216E665110ECCE
:102FB8001CF04BEC1BF0646F656BD30E00016425AD
:102FC800D96E010E6521DA6EDF50CCEC1CF00A0ECA
:102FD800216E0001665110EC1CF0646F656BD30E16
:102FE80000016425D96E010E6521DA6EDF50CCEF41
:102FF8001CF07B0ED36EC090F26A550EA76EAA0E17
:10300800A76E0E01FF91040EE76F130EF66F050E03
:10301800D76F550EA76EAA0EA76EFF810F014869DC
:103028003F0E496FF19E9268936894689568966818
:10303800896A8A6A8C6A8D6A93809384929492963C
:1030480093968A86959E8C8E9382938A949E939863
:10305800C00EC76E210EC66E95968C86F19A949412
:103068008B84F28EF090F086959A8C8AE2EF18F0B5
:1030780002EE00F09C0EEE6AE806FDE101EE00F0BB
:10308800B60EEE6AE806FDE100EEC4F0320EEE6A16
:10309800E806FDE100EE25F01B0EEE6AE806FDE10C
:1030A800600EF66E390EF76E000EF86E01EED3F074
:1030B80010EE10F00900F5CFEEFFE550E150FAE10F
:1030C800A40EF66E390EF76E000EF86E00EEF6F0EE
:1030D80010EE0AF00900F5CFEEFFE550E150FAE1F5
:1030E800000EF86E0001EAEF0DF0C6EC1CF00001CE
:1030F800656F6551CCEC1CF0000165510D0A0BE1C0
:10310800FF0E236EE40E226E34EC1CF0010E00015B
:10311800DC6FDD6F010C6551080A02E1DB07120064
:10312800230EDB5DD8B01200000E0001DB25D96E3E
:10313800DA6A010EDA2265C0DFFFDB2B17EC1AF022
:1031480021C029F022C02AF023C02BF024C02CF083
:10315800010EDC6F010C0001DA6B6D0EDA25D96EF9
:10316800DA6A010EDA22DBC0DFFFDA2BC16B11D07D
:10317800000E0001C125D96EDA6A010EDA226D0E41
:10318800DA25E16EE26A010EE222DFCFE7FFDA2BF1
:10319800C12BDB51C15DECE3010EBF6F000E16ECD5
:1031A8001BF0000906E1FC0E236ED30E226E34ECF0
:1031B8001CF00001DC6BDD6BDB6B1200530E95120B
:1031C800A49E736AF00E746E280E726E716AA38ED6
:1031D800F28EF28C010E226E2C0E216ED5EC14F0BC
:1031E8007C0E256E810E266E276A216A030E92ECEC
:1031F8001CF0226AC80E216ED5EC14F07C0E256EE8
:10320800510E266E080E276E216A030E92EC1CF0F2
:10321800226AC80E216ED5EF14F0000EF0B6010E2A
:10322800666FF0968C9A030E6FEC1CF0000163C079
:1032380022F022C023F0246A23506FEC1CF0000116
:1032480062516FEC1CF00DD0D7EC1CF060C0D9FFB8
:1032580061C0DAFFDF6E0001604B612B6407D8A004
:103268006507000165516411EFE18C8A66B102D0EF
:10327800F09601D0F0861200010E246E2F6A306A93
:10328800226A020E216E3E0E236E31EC1BF02416CC
:10329800226A010E216E3C0E236E31EC1BF02416BF
:1032A800226A010E216E380E236E31EC1BF02416B3
:1032B800226A320E216E3A0E236E31EC1BF0241670
:1032C800226A040E216EF30E236E31EC1BF02416D5
:1032D800120060C0D9FF61C0DAFFDF50EF6F20EE47
:1032E80001F06051D9266151DA22DF50F06F625146
:1032F800D96EDA6ADF50ED6F6251D96EDA6AD92A6F
:10330800DF50EE6FEFC022F0070ED5EC1BF0F0C0D7
:1033180022F0090ED5EC1BF0EDC022F0030ED5EC1F
:103328001BF0EEC022F0050ED5EF1BF0000EF0B634
:10333800010E0001636FF0968A9622C060F023C0E8
:1033480061F0D89061336033D89061336033D8909E
:103358006133603360517F0B80096FEC1CF02238B9
:10336800E846E00B6FEC1CF0D7EC1CF00001626F34
:103378008A8663B102D0F09601D0F08600016251CE
:103388001200000EF0B6010E0001626FF0968A96E8
:1033980022C060F023C061F0D89061336033D890C8
:1033A80061336033D8906133603360517F0B80099B
:1033B8006FEC1CF02238E846E00B10096FEC1CF0AB
:1033C80024506FEC1CF08A86000162B102D0F0969E
:1033D80001D0F0861200000EF0B6010E076EF096CE
:1033E8008A9602C004F003C005F0D8900532043272
:1033F800D89005320432D8900532043204507F0B3D
:1034080080097BEC1CF00238E846E00B7BEC1CF0F2
:10341800DCEC1CF0066E8A8607B002D0F09601D06C
:10342800F086065012009D900001636B646B606B20
:10343800CECF61F0CFCF62F06129D8B4622905E11F
:10344800602B030E00016065F3D79EA004D0632BA8
:103458003628D8B4642B36506327375064279D80AC
:1034680061C021F062C022F063C023F064C024F080
:103478001200616B626B245023101BE0010E606F19
:1034880004D0D89023362436602B24AEFAD7D890AF
:10349800613762372350215C2450225805E32350BA
:1034A800215E2450225A6181D89024322332602F21
:1034B800EED761C021F062C022F0120044EC1CF08B
:1034C800010E0001696F950E686F88C06BF087C0A8
:1034D8006AF089C06CF06D6BD4EC00F087EC1CF0DE
:1034E8008A51D8B412008B6B226AFA0E216ED5EC81
:1034F80014F08B2B070E8B65F7D7070C646F0A0E39
:103508006465000C1A0E646501D0000C64C033F0C9
:10351800020E236E226A6451100DF350500F0309F6
:10352800246EC5EC19F0040E226E6D0ED5EC1BF05E
:10353800226A6D0ED5EC1BF0010C6651651117E07F
:10354800010E676F04D0D89065376637672B66AF72
:10355800FAD76551635D6651645904E36551635F49
:103568006651645BD89066336533672FF2D763C0C2
:1035780063F064C064F012000001696F030E6965AE
:1035880001D0030C69C0FFF0FFC068F0683BF00E83
:103598006817D8510F0B6811D86F616BFF0E606FF9
:1035A80038C062F039C063F0656B010E646F2AEFB2
:1035B80017F0236E23C022F023380F0B236E01016E
:1035C800D30E2324D96EDA6A010EDA22DF50CCEC4E
:1035D8001CF022500F0B236E0101D30E2324D96E49
:1035E800DA6A010EDA22DF50CCEF1CF07C0E256E71
:1035F800440E266E276A216A030E92EC1CF0226A9A
:10360800C80E216ED5EC14F07C0E256E420E266E87
:10361800276A216A030E92EC1CF0226AC80E216EFA
:10362800D5EF14F0C06FC0510A0D0101430EF32409
:10363800D96E010EF420DA6EDFAE000C0001C05125
:103648000A0D3B0EF324BB6F010EF420BC6F010E74
:10365800BD6FBFC0BEF053EF1CF02FC060F030C08C
:1036680061F02150602722506123010E605D800EB9
:10367800615901E3000C2350D96EDA6A2FC0DEFFCE
:1036880030C0DDFF21502F2622503022010C616FFF
:10369800636B605114E0010E626F03D0D8906037FD
:1036A800622B60AFFBD7D89063376051615D03E34D
:1036B8006051615F6381D8906033622FF4D76351A2
:1036C80012000001616B61512324D96E000E242081
:1036D800DA6EDF50606F61512124D96E000E22200E
:1036E800DA6EDF50601901E0000C612B070E61658E
:1036F800EAD7010C686F636B685182EC1AF0000915
:1037080010E068C0F5F00001616BF50E606F3CC019
:1037180062F03DC063F0656B010E646F2AEC17F030
:10372800010C000C686F0DD0120EF26F340EF16FA1
:1037380069696A69616B690E606FF10E626F6DEF9E
:1037480019F06851F1E0010AD8A4030A1200226EA8
:10375800000EF0B6010E246EF0968A9622506FEC99
:103768001CF0D7EC1CF0236E8A8624B002D0F096A9
:1037780001D0F08623501200026E000EF0B6010E42
:10378800046EF0968A9602507BEC1CF0DCEC1CF080
:10379800036E8A8604B002D0F09601D0F0860350FA
:1037A8001200236E000EF0B6010E246EF0968A9673
:1037B80023506FEC1CF022506FEC1CF08A8624B06A
:1037C80002D0F09601D0F0861200036E000EF0B61B
:1037D800010E046EF0968A9603507BEC1CF00250A2
:1037E8007BEC1CF08A8604B002D0F09601D0F086FB
:1037F800120021502302F3CF60F0F4CF61F0215082
:103808002402F350612722502302F350612760C03D
:1038180021F061C022F01200226E080E236E246A85
:10382800D89022342434246ED89022362150245C37
:1038380002E32150245E232EF3D724501200020EF7
:103848000001F65DD8B01200F6514E0D0201000ECF
:10385800F324D96E020EF420DA6E000EDF6E000C2F
:1038680003D02450CCEC1CF022C0F6FF23C0F7FF95
:10387800224A232A0800F5CF24F02466F2D7120042
:10388800216A0101950E2124D96EDA6A010EDA2225
:10389800200EDF6E212A1F0E2164F3D71F0CF1C002
:1038A800ABF0F2C0ACF0BCC0AEF0BBC0ADF0000EE7
:1038B800AF6BBEC0B0F023EF16F0236E226A3A0E4B
:1038C800235C05E22F0E236402D0010E226E22C073
:1038D80021F021301200216E9E96C950C69E21C04B
:1038E800C9FFC6BEFBD79EA6FED79E961200016EE4
:1038F8009E96C950C69E01C0C9FFC6BEFBD79EA6EC
:10390800FED79E9612007C0E256E320E266E276A12
:10391800200E286E216E040E92EF1CF0226E71B4F8
:10392800FED7326A356A22C031F021C034F0718086
:103938001200A4AE1200A49E7CEC17F0026A050ED9
:10394800016E4FEF15F09584949C240EA86E900E8E
:103958009C6E190EAB6E190C303132333435363754
:103968003839414243444546380ECD6E9E909D807D
:10397800CD80366A376A1200CDEC07F00001D9B75E
:10398800010C000C9CA202D09C989C88AA501200A2
:10399800216EA8A2FED721C0A9FF1200FFFF1122A5
:1039A800334455661103000E6FEC1CF0C950120029
:1039B800000E7BEC1CF0C95012000001D99723EFD0
:0639C8001CF000F01200EB
:10FCA40000000102030405060708090A0B0C0D0EE7
:10FCB4000F01000800400000020010008001000A4B
:10FCC400006400E803102701001000000100105434
:10FCD40072616E736D697420746F20506565722053
:10FCE4003030204661696C65642E205072657373F0
:10FCF400204D434C5220746F2065737461626C69AB
:10FD04007368206E657720636F6E6E656374696FC8
:10FD14006E73002D2D2D2D2D2D2D2D2D2D2D2D2DB5
:10FD24002D2D2D2D2D2D2D2D2D2D2D2D2D2D2D2DFF
:10FD34002D2D2D2D2D2D2D2D2D2D2D2D2D2D2D2DEF
:10FD44002D2D2D2D2D2D2D2D2D2D0D0A000D0A0DB2
:10FD54000A436F6E6E656374696F6E2020202020E5
:10FD6400506565724C6F6E6741646472657373208D
:10FD74002020202050656572496E666F0D0A000DC3
:10FD84000A55736520436F6E736F6C6520746F2022
:10FD940043686174207769746820746865205065CD
:10FDA400657220446576696365000D0A4552524FB9
:10FDB400523A20556E61626C6520746F2070726FC8
:10FDC4006772616D20746865206368616E6E656C2E
:10FDD4000D0A000D0A0D0A44756D70696E672043A3
:10FDE4006F6E6E656374696F6E205461626C652E0C
:10FDF4002E2E0D0A004572726F723A20556E6162A2
:10FE04006C6520746F2050726F6772616D20436857
:10FE1400616E6E656C2000436F6E6E656374696E0F
:10FE240067205065657220206F6E204368616E6E96
:10FE3400656C20256420004A6F696E656420204E3D
:10FE44006574776F726B205375636365737366753E
:10FE54006C6C792E2E000D0A5072657373204D431D
:10FE64004C5220746F2073746172742061676169ED
:10FE74006E0D0A000D0A0D0A436F6E6E6563746998
:10FE84006E6720746F20506565722E2E2E0D0A0049
:10FE94000D0A5246205472616E7363656976657209
:10FEA4003A204D524632344A3430000A202D2D2D4A
:10FEB4002D2D2D2D2D2046726F6D2067726F75705C
:10FEC4003A000D0A0D0A4D79204D414320416464E6
:10FED400726573733A203078004D79416464723AE4
:10FEE40020202025303278253032782530327800B1
:10FEF40050656572416464723A2025303278253049
:10FF0400327825303278000D0A0D0A44656D6F2071
:10FF1400496E737472756374696F6E3A000D0A0DDD
:10FF24000A4D7920416464726573733A2030780015
:10FF34000A202D2D2D2D2D2D2D2D2046726F6D2057
:10FF44005B0030313233343536373839414243443B
:10FF540045460030313233343536373839616263DF
:10FF6400646566005258204D657373616765733A22
:10FF740020253364005458204D657373616765739D
:10FF84003A2025336400436861742057696E646FB6
:10FF9400773A200D0A002020202020202020202035
:10FFA400202020000D0A436861742044656D6F00B1
:10FFB40020204368616E6E656C3A20002020504119
:10FFC4004E49443A20307800204368616E6E656C77
:10FFD4003A000D0A50414E49443A005D203A20004F
:10FFE4000D0A2424001B5B324A00242420001B5BDE
:04FFF40048000000C1
:08FFF800ACF6D8FFFFF9FFF1A0
:00000001FF
