:04000000EEEF01F02E
:10000800E1CF22F0E2CF23F0D9CF24F0DACF25F0E8
:10001800F3CF26F0F4CF27F0F0B4F0AAC3D13550CF
:10002800600A01E0BAD1280E38EC96F01E6ED8901E
:100038001E30366E36C0E4F08B947EEC97F0326E4C
:100048008B84336A3350410D0201000EF324D96EBC
:10005800020EF420DA6EDFA004D0332A010E3364D6
:10006800F1D73250020A03E1010E2F6E01D02F6A38
:100078003F0E325C07E2325005E0010E336411D0C6
:100088002F660FD01A0E38EC96F007D08B947EECC2
:1000980097F08B841A0E38EC96F02A6E2AA280D13B
:1000A800F5D7306A32C028F0296A73D12806D8A05B
:1000B80029062F5008E08B9430502B0FD96EDA6A3E
:1000C8007EEC97F013D08B943350410D010E1E6EC9
:1000D800020E1F6EF3501E26F4501F2230501E24AD
:1000E800D96E000E1F20DA6E7EEC97F0DF6E302A94
:1000F8008B843250305C01E24CD12F5028E02BC069
:100108001EF0030E1E161E50020A09E1375020EE9B
:100118002CF0DF6245D1010E0001E76F41D1010EDD
:10012800336401D0AFD73350410D010EF324D96E9B
:10013800020EF420DA6E2BC0DFFF3350410D020EA1
:10014800F324D96E020EF420DA6E2CC0DFFF335090
:10015800410D400EF324D96E020EF420DA6E32C03F
:10016800DFFF31683350410D010EF324D96E020EC2
:10017800F420DA6EDF501E6E1EAC30D0346A27D001
:100188003450DA25D96E000EDB21DA6EDF501E6E90
:100198003350410D030E1F6E020E206EF3501F26C2
:1001A800F450202234501F24D96E000E2020DA6E1D
:1001B800DF501E180BE03350410D0201400EF324AE
:1001C800D96E020EF420DA6EDF6A5CD7342A000199
:1001D800D931E832E8320F0B345CD2E33350410DA9
:1001E800010EF324D96E020EF420DA6EDF501E6E73
:1001F8001EAA34D0346A0101320E3424D96EDA6A68
:10020800010EDA2234502B0FE16EE26ADFCFE7FFEE
:10021800342A010E3464EFD7060E326F3350410D85
:10022800020EF324D96E020EF420DA6EDF50336F1B
:10023800F0940A6A020E6AEC8DF0346A34502B0F7F
:10024800D96EDA6A320E3424E16EE26A010EE222D5
:10025800DFCFE7FF342A010E3464F0D7346A345014
:10026800060D0101000EF324D96E010EF420DA6E9A
:10027800DF5032E03450060D010EF324D96E010E22
:10028800F420DA6E3350410D0201020EF324E16EC0
:10029800020EF420E26EE750DF621ED000EC94F00C
:1002A80001C01EF002C01FF003C020F004C021F0FE
:1002B8003450060D0101020EF324D96E010EF4200C
:1002C800DA6E1EC0DEFF1FC0DEFF20C0DEFF21C0C9
:1002D800DDFFD906D90613D031280DE13450060DBB
:1002E8000101000EF324D96E010EF420DA6EDF50FE
:1002F800D8B434C031F0342A040E3464B0D7040EB4
:1003080034644ED0050E315C39E23150060D000ED2
:10031800F324D96E010EF420DA6E010EDF6E33502D
:10032800410D020EF324D96E020EF420DA6E31501C
:10033800060D0101010EF324E16E010EF420E26EB8
:10034800DFCFE7FF00EC94F001C01EF002C01FF001
:1003580003C020F004C021F03150060D020EF32432
:10036800D96E010EF420DA6E1EC0DEFF1FC0DEFF5C
:1003780020C0DEFF21C0DDFFD906D9063350410D6C
:100388000201000EF324D96E020EF420DA6EDF802B
:1003980007D02950281004E089D6010E0001DE6F2D
:1003A800F09400F09EB09DA006D09E90382A386642
:1003B80002D00001E82B8EEC97F027C0F4FF26C08E
:1003C800F3FF25C0DAFF24C0D9FF23C0E2FF22C013
:0803D800E1FF110058EF92F063
:10FAEC000020B2202020B22020B220B220202020E2
:10FAFC0020B220B20D0AB220B220B220B2202020B7
:10FB0C00B22020B22020B220200D0AB22020B22038
:10FB1C0020B220B220B22020B22020B220B20D0A96
:10FB2C00B22020B22020B220B22020B220B220B2CB
:10FB3C002020B20D0AB22020B22020B220B2202008
:10FB4C0020B220B2202020B20D0A2020202020201C
:10FB5C00202020202020202020202020200D0AB230
:10FB6C00B2B22020B2B2B2B20D0AB22020B220B290
:10FB7C002020200D0AB22020B220B2B2B2B20D0A5F
:10FB8C00B22020B220B22020200D0AB2B2B2202026
:10FB9C00B2B2B2B20D0A2020202020202020200D4D
:10FBAC000A26008402090409060C08C10A770C63B2
:10FBBC000E19100012001400163818C81A0D1C006B
:10FBCC001E72203822382407260028002A692C812E
:10FBDC002E7E309632F83488364038003AE83C00B5
:10FBEC003E535353535353535353535353535353EE
:10FBFC0053535353535454545454545454545454BE
:10FC0C00541D202225282B2E303336393C3F4144BD
:10FC1C00474A4D4F520A0D101215181B1E20232651
:10FC2C002901000800400000020010008001000AB9
:10FC3C00006400E803102701001000000100100010
:10FC4C00010203040506070D0A2020202020202095
:10FC5C002020202020202020202020202020322086
:10FC6C00746F20756E696361737420656E6372794D
:10FC7C0070746564206D6573736167652E204C45E7
:10FC8C004420322077696C6C000D0A202020202043
:10FC9C002020202020202020202020202020202058
:10FCAC00427574746F6E203120746F2062726F61B4
:10FCBC006463617374206D6573736167652E205086
:10FCCC0075736820427574746F6E000D0A202020C5
:10FCDC002020202020202020202020202020202018
:10FCEC002020506F776572206F6E207468652062DB
:10FCFC006F61726420756E74696C204C45442031C0
:10FD0C00206C6967687473207570000D0A202020C0
:10FD1C0020202020202020202020202020202020D7
:10FD2C002020746F20696E64696361746520636F51
:10FD3C006E6E656374696E67207769746820706590
:10FD4C0065722E2050757368000D0A20202020202B
:10FD5C002020202020202020202020202020202097
:10FD6C00626520746F67676C65642075706F6E20B8
:10FD7C00726563656976696E67206D65737361671B
:10FD8C0065732E20000D0A5374617274696E6720BE
:10FD9C004E6F64652031206F662053696D706C6501
:10FDAC002044656D6F20666F72204D695769285429
:10FDBC004D292050325020537461636B202E2E2E0F
:10FDCC00000D0A0D0A436F6E6E656374696F6E20C9
:10FDDC0020202020506565724C6F6E674164647200
:10FDEC00657373202020202050656572496E666F04
:10FDFC000D0A00206973206E6F7420737570706F1C
:10FE0C007274656420696E2063757272656E7420FD
:10FE1C00636F6E66696775726174696F6E2E0D0A19
:10FE2C0000436F6E6E656374696E67205065657212
:10FE3C0020206F6E204368616E6E656C20256420F7
:10FE4C000053696D706C65205032502044656D6FA5
:10FE5C0020204D524638395841204E6F6465203170
:10FE6C00000D0A20202020205246205472616E730F
:10FE7C006365697665723A204D52463839584100AF
:10FE8C0020436F6E6E6563746564205065657220E7
:10FE9C00206F6E204368616E6E656C202564000DCA
:10FEAC000A436F6E6E656374696E67205065657288
:10FEBC00206F6E204368616E6E656C20000D0A43E6
:10FECC006F6E6E65637465642050656572206F6E2D
:10FEDC00204368616E6E656C200042726F616463D2
:10FEEC00617374205061636B65742077697468204A
:10FEFC00525353492000556E6963617374205061ED
:10FF0C00636B6574207769746820525353492000E1
:10FF1C000D0A53656C656374696F6E206F662063A0
:10FF2C0068616E6E656C20000D0A20202044656DA2
:10FF3C006F20496E737472756374696F6E3A000D3D
:10FF4C000A556E6963617374204661696C65640D52
:10FF5C000A000D0A0D0A4D792041646472657373B1
:10FF6C003A20307800303132333435363738394135
:10FF7C004243444546003031323334353637383914
:10FF8C00616263646566005258204D6573736167E6
:10FF9C0065733A20253364005458204D65737361A2
:10FFAC006765733A202533640020556E696361736D
:10FFBC0074204661696C656400202020202020207C
:10FFCC002020202020200020204368616E6E656C6C
:10FFDC003A2000204368616E6E656C3A005365638D
:10FFEC007572656420002066726F6D20000D0A0D1D
:04FFFC000A000000F7
:020000040001F9
:10000000700E7D6FBFD38451250A09E06CC0D9FF03
:100010006DC0DAFF84C0DFFF6C4B6D2BB3D37F6BF9
:10002000806B856B866B09D0858705D0858103D071
:10003000868701D085856E4B6F2B6EC0F6FF6FC033
:10004000F7FF000EF86E0800F550200AEFE0030AF3
:10005000EFE00E0AE9E01D0AEDE085B785956EC078
:10006000F6FF6FC0F7FF000EF86E0800F55006ECC3
:1000700097F032E37F6B806B7FC060F080C061F0EF
:10008000636B0A0E626F9DEC96F060C07FF061C0FA
:1000900080F0D00E726F73696EC0F6FF6FC0F7FF0D
:1000A000000EF86E0800F550746F756B725174276E
:1000B0007351752374517F27755180236E4B6F2BBD
:1000C0006EC0F6FF6FC0F7FF000EF86E0800F55027
:1000D00006EC97F016E3D0D76EC0F6FF6FC0F7FFBF
:1000E000000EF86E0800F5502A0A0BE17D51D96E1A
:1000F000DA6ADECF7FF0DDCF80F0020E7D276E4B17
:100100006F2B6EC0F6FF6FC0F7FF000EF86E080091
:10011000F5502E0A36E1868D6E4B6F2B6EC0F6FFC2
:100120006FC0F7FF000EF86E0800F5502A0A0AE1CA
:100130007D51D96EDA6ADF507E6F020E7D276E4BDD
:100140006F2B93D07E6B11D06EC0F6FF6FC0F7FFA0
:10015000000EF86E0800F5CF72F07E510A0DF350D4
:100160007225D00F7E6F6E4B6F2B6EC0F6FF6FC087
:10017000F7FF000EF86E0800F55006EC97F075E3F7
:10018000E3D77E6B72D0858D91D0858B858F8ED095
:100190007E510FE07EC072F0736B72BF73078251A5
:1001A000725D8351735905E27E51826F836B82BF0A
:1001B00083077F51825D8051835907E220EE82F0F0
:1001C000DE507F5FDD50805B02D07F6B806B85A748
:1001D00009D01DD06CC0D9FF6DC0DAFF200EDF6ED4
:1001E0006C4B6D2B7F07D8A0800700017F29D8B406
:1001F00080290DE0EFD78151D96EDA6A6CC0E1FF3A
:100200006DC0E2FFDFCFE7FF812B6C4B6D2B8207C8
:10021000D8A0830700018229D8B48329ECE185B7EF
:1002200009D0B0D26CC0D9FF6DC0DAFF200EDF6EEE
:100230006C4B6D2B7F07D8A0800700017F29D8B4B5
:10024000802901E19FD2EED77D51D96EDA6ADF5065
:10025000846F020E7D27840E816F000E836F010E66
:10026000826F96D7C00E851321D06EC0F6FF6FC087
:10027000F7FF6E4B6F2B000EF86E0800F5CF84F081
:100280000001845101E18CD2580A01E17ED73B0A7A
:10029000DBE0070A0BE00D0A09E0060A01E173D76B
:1002A0001A0AE0E00D0A01E171D7D5D785C072F0D6
:1002B000C00E721719E17D51D96EDA6ADECF81F076
:1002C000DDCF82F0020E7D278251800AF36E800E10
:1002D000F35C000ED8B4815D10E2030E8513816DCE
:1002E000821FD8B0822B09D07D51D96EDA6ADECF59
:1002F00081F0DDCF82F0020E7D277E675CD08251D7
:10030000811159E17E2B57D0010E846F8451050A6B
:100310005BE08451020D390EF324F66EFC0EF420DE
:10032000F76EF86A000EF8220900F5CF72F00900A6
:10033000F5CF73F07251815D7351825945E3842B7F
:10034000E5D7010E846F8451040A3EE08451020D0A
:10035000430EF324F66EFC0EF420F76EF86A000EDE
:10036000F8220900F5CF72F00900F5CF73F0725151
:10037000815D7351825928E3842BE5D7010E846F88
:100380008451060A21E08451020D2D0EF324F66EED
:10039000FC0EF420F76EF86A000EF8220900F5CF83
:1003A00072F00900F5CF73F07251815D735182597B
:1003B0000BE3842BE5D78551C00BA6E0400ADEE0B5
:1003C000C00ABFE0400AA0E08451800A726F7E51EB
:1003D000800A725D03E27EC084F009D07E51800AFB
:1003E000726F8451800A725DD8A084C07EF0805103
:1003F0007F1108E085C072F0030E721703E07F07DB
:10040000D8A0800786AD13D0800E7EBF7F0E726F9E
:100410007F517E5D8051800A725907E27E517F5F75
:10042000000E7EBFFF0E805B02D07F6B806BC40E20
:10043000726F080E736F85C074F086C075F07251CC
:100440007417735175177551080A400ED8B4741992
:1004500007E180517F1124E07F07D8A0800720D0DA
:10046000C00E726F080E736F85C074F086C075F091
:1004700072517417735175177551080A800ED8B4EC
:1004800074190EE18051800A800F030ED8B47F5D8D
:1004900005E3FE0E7F27FF0E802302D07F6B806B6B
:1004A000800E84BF7F0E726F7F51845D8051800A01
:1004B000725907E284517F5F000E84BFFF0E805B9C
:1004C00002D07F6B806B85A550D085C072F0030E83
:1004D000721709E06CC0D9FF6DC0DAFF2D0EDF6E18
:1004E0006C4B6D2B31D085A106D06CC0D9FF6DC08F
:1004F000DAFF200EF4D7C00E726F080E736F85C03E
:1005000074F086C075F07251741773517517755178
:10051000080A800ED8B4741917E16CC0D9FF6DC0F9
:10052000DAFF300EDF6E6C4B6D2B85BB03D0786B22
:10053000780E02D0786B580E776F6CC0D9FF6DC003
:10054000DAFF77C0DFFFCCD780517F1101E1FED009
:100550006CC0D9FF6DC0DAFF300EDF6E6C4B6D2BB7
:100560007F07D8A080070001EFD780517F11D8A462
:1005700085B70FD06CC0D9FF6DC0DAFF200EDF6EDB
:100580006C4B6D2B7F07D8A08007000180517F1135
:10059000F1E185C072F0030E721709E06CC0D9FF5B
:1005A0006DC0DAFF2D0EDF6E6C4B6D2B08D085A170
:1005B00006D06CC0D9FF6DC0DAFF200EF4D7C00E94
:1005C000726F080E736F85C074F086C075F072513B
:1005D0007417735175177551080A400ED8B4741901
:1005E00009E16CC0D9FF6DC0DAFF300EDF6E6C4BD5
:1005F0006D2BACD0C00E726F080E736F85C074F097
:1006000086C075F072517417735175177551080AC9
:10061000800ED8B4741901E099D06CC0D9FF6DC0B8
:10062000DAFF300EDF6E6C4B6D2B85BB03D07A6B1F
:10063000780E02D07A6B580E796F6CC0D9FF6DC0FE
:10064000DAFF79C0DFFFD3D77E51020D390EF324D4
:10065000F66EFC0EF420F76EF86A000EF822090020
:10066000F5CF62F00A00F5CF63F081C060F082C080
:1006700061F0DBEC93F060C067F061C068F06A6B1A
:100680000A0E696F66EC94F067514DD081C060F03E
:1006900082C061F07E51020D430EF324F66EFC0E13
:1006A000F420F76EF86A000EF8220900F5CF62F028
:1006B0000A00F5CF63F0DBEC93F060510F0B766F1F
:1006C00085BB04D0FF0E7C6F820E03D0FF0E7C6FC3
:1006D000710E7B6F76517B25726F000E7C21736FDC
:1006E00072C0F6FF73C0F7FF000EF86E0800F5CF7A
:1006F00084F025D081C060F082C061F07E51020D8F
:100700002D0EF324F66EFC0EF420F76EF86A000E40
:10071000F8220900F5CF62F00A00F5CF63F0DBECB8
:1007200093F06051070B300F846F09D08551C00BD7
:100730008BE0400ADFE0C00AA9E0400A85E06CC017
:10074000D9FF6DC0DAFF84C0DFFF51D77E070001FB
:100750007E29ECE185A716D08051800A800F010E1A
:10076000D8B47F5D0FE36CC0D9FF6DC0DAFF200EF7
:10077000DF6E6C4B6D2B7F07D8A080070001805186
:100780007F11F1E16EC0F6FF6FC0F7FF6E4B6F2B6C
:10079000000EF86E0800F5CF84F00001846733D4B2
:1007A0006CC0D9FF6DC0DAFF000EDF6E000C0001D7
:1007B000E2A32AD0B5EC93F060C0A6F061C0A7F028
:1007C00062C0A8F063C0A9F0D551A65DA26FD65152
:1007D000A759A36FD751A859A46FD851A959A56F8C
:1007E000B50EA25DC40EA359040EA459000EA5595E
:1007F0000BE3E293F3C061F0F4C062F0646B230E8C
:10080000636F390E22EC90F00001E2B71200DFECCA
:1008100085F00009D8B412000001BF6BC9A503D050
:10082000A26BA22B01D0A26BBF51A219FC0BA21983
:10083000BF6FC9A702D0BF8702D00001BF97C951BF
:10084000030BA26FA205010ED8A4000EA36FA33B59
:10085000A347BF51A319DF0BA319BF6FC9AF02D0C4
:10086000BF8D02D00001BF9DC9AF04D0CBC0C3F083
:10087000CAC0C2F0CEC0C6F0CDC0C5F0CCC0C4F076
:10088000D0C0C8F0CFC0C7F0BFBB7AD18DD120EEA9
:1008900001F0C451D926C551DA22DF50FB1903E01B
:1008A000D5EC96F082D1FD51030AFAE0E0EC8CF031
:1008B000AA6FFD0507E1AA0505E0AA51020A02E0B8
:1008C000F30EAA6FE66B710E0001E625D96EDA6AA7
:1008D000010EDA22910EDF6EE62B710EE625D96E3F
:1008E000DA6A010EDA22AAC0DFFFE62BAA5102E083
:1008F000AA051CE1710E0001E625D96EDA6A010E27
:10090000DA22E1C0DFFFE62BAB6BAB51FC0FD96EF7
:10091000DA6A710E0001E625E16EE26A010EE2225A
:10092000DFCFE7FFE62BAB2BAB51EFE0D5EC96F03A
:10093000C3C098F0C2C097F0010E996F000EBFB708
:10094000010E9A6F000ED1EC8FF0AA672ED1DF5105
:10095000070DF351F324616FF451F420626F646B5F
:10096000070E636FDF51070DF350390F22EC90F043
:100970001CD1020EFD6501D093D720EE01F0C451C9
:10098000D926C551DA22DF50FB198AE1E66B710ED8
:100990000001E625D96EDA6A010EDA22970EDF6EC3
:1009A000E62B710EE625D96EDA6A010EDA22E1C075
:1009B000DFFFE62BAB6BAB51FC0FD96EDA6A710E21
:1009C0000001E625E16EE26A010EE222DFCFE7FFD9
:1009D000E62BAB2BAB51EFE0D5EC96F0C3C098F013
:1009E000C2C097F0010E996F000EBFB7010E9A6F4B
:1009F000000ED1EC8FF0D9D0E66B710E0001E62528
:100A0000D96EDA6A010EDA22920EDF6EE62BAB6B3C
:100A1000AB51070DF3503E0FD96EDA6ADFAE33D01B
:100A2000C3C061F0C2C060F0AB51070DF350390F85
:100A3000A26F636BA2C062F0ACEC95F0000923E0FA
:100A4000AB51070DF3503E0FD96EDA6ADF6AAB5136
:100A5000070DF351F324616FF451F420626F646B5E
:100A6000070E636FAB51070DF350390F22EC90F076
:100A7000710E0001E625D96EDA6A010EDA22000E47
:100A8000DF6AE62B04D0AB2B040EAB65C1D7D5ECE7
:100A900096F0AB51050A0AE1710E0001E625D96E08
:100AA000DA6A010EDA22F00EDF6EE62BC3C098F090
:100AB000C2C097F0010E996F000EBFB7010E9A6F7A
:100AC000000ED1EC8FF071D0E0EC8CF0E283B5EC4D
:100AD00093F060C0D5F061C0D6F062C0D7F063C0BB
:100AE000D8F0DED620EE01F0C451D926C551DA2265
:100AF000DF50EAE0010AE8E0D3D6E2BBE29BD0D6C1
:100B000020EE01F0C451D926C551DA22DF5001E0B0
:100B1000C7D6AB6BAB51070DF3503E0FD96EDA6AF7
:100B2000DFAE29D0C3C061F0C2C060F0AB51070D89
:100B3000F350390FA26F636BA2C062F0ACEC95F07A
:100B4000000919E0AB51070DF3503E0FD96EDA6A78
:100B5000DF6AAB51070DF351F324616FF451F420B8
:100B6000626F646B070E636FAB51070DF350390F63
:100B700022EC90F095D6AB2B040EAB65CBD790D67C
:100B8000C4C0D9FFC5C0DAFFDF50810A01E17FD6BA
:100B9000030A01E131D7050A01E1EBD6160AA2E00A
:100BA000030AAEE0050AA9E0E2870001C651D8A415
:100BB000E2B902D0E2AB1200E297D5EF96F0A16B5A
:100BC000B5EC93F060C096F061C097F062C098F009
:100BD00063C099F0A151060D000EF324D96E010EE9
:100BE000F420DA6EDF5048E00001A151060D020E3C
:100BF000F324D96E010EF420DA6EDECF8EF0DECF54
:100C00008FF0DECF90F0DECF91F096518E5D975150
:100C10008F5998519059995191592EE2A151060D31
:100C2000020EF324D96E010EF420DA6EDECF8EF0C0
:100C3000DECF8FF0DECF90F0DECF91F08E51965D5B
:100C4000926F8F519759936F90519859946F91511A
:100C50009959956FB50E925DC40E9359040E94592F
:100C6000000E955909E3A151060D000EF324D96E2B
:100C7000010EF420DA6EDF6A0001A12B040EA165DB
:100C80009FD7E52901E0000CA16BA151410D000E99
:100C9000F324D96E020EF420DA6EDFA00AD100012F
:100CA000A151410D010EF324D96E020EF420DA6E2B
:100CB000DF50C96FA151410D400EF324D96E020ED1
:100CC000F420DA6EDF50CE6F020EA06FC9AD05D0F2
:100CD000D931E832E8320F0BA027C9AF18D0A151A3
:100CE000410D010E8E6F020E8F6FF3508E27F45060
:100CF0008F23A0518E27000E8F238EC0CAF08FC085
:100D0000CBF0D931E832E8320F0BA02702D0CA6B02
:100D1000CB6BC9A7B5D0A151410D050E8E6F020E48
:100D20008F6FF3508E27F4508F23A0518E25D96EEC
:100D3000000E8F21DA6EDF500CE0A151410D02014F
:100D4000000EF324D96E020EF420DA6E000EDF6E70
:100D5000000CC9AF69D09F6B9F51070DF3503E0F38
:100D6000D96EDA6ADFAE10D09F51070DF350390FFC
:100D70008E6F616B8EC060F0CBC063F0CAC062F052
:100D8000ACEC95F0000904E19F2B040E9F65E4D7BD
:100D9000050E9F5D49E29E6BA151410D010E8E6FC4
:100DA000020E8F6FF3508E27F4508F23A0518E27A1
:100DB000000E8F239E518E25D96E000E8F21DA6E84
:100DC0009E519A0FE16EE26ADFCFE7FF9E2B030E82
:100DD0009E65E2D79F51040D1E0EF324D96E010EBD
:100DE000F420DA6EDECF8EF0DECF8FF0DECF90F023
:100DF000DECF91F000018E519A5D8F519B59905139
:100E00009C5991519D5999E39F51040D1E0EF32455
:100E1000D96E010EF420DA6E9AC0DEFF9BC0DEFFB1
:100E20009CC0DEFF9DC0DEFF050EA027A151410D35
:100E3000010E8E6F020E8F6FF3508E27F4508F23AA
:100E40008EC082F08FC083F0A0C084F0A151410D0C
:100E5000400EF324D96E020EF420DA6EDF5000014A
:100E6000906FA051905D856F010E876FBA0E866FEF
:100E7000C9EC8EF0000901E160D7A051020F01D04A
:100E8000A051CE5FA151410D010E8E6F020E8F6FEA
:100E9000F3508E27F4508F23A0518E27000E8F23FE
:100EA0008EC0CCF08FC0CDF0E4C0CFF0A1C0E5F093
:100EB000010C0001A12B010EA165E7D6000C010178
:100EC000D86BD96BDB6BDA6B2BEC93F04CEC97F0B7
:100ED0009BEC91F08C9E8C9C000E8CEC8AF0190E91
:100EE00022EC96F0000905E1190EC3EC96F0EEEF46
:100EF00001F0000EDEEC94F000018C6B190EFAECA0
:100F000092F0AC6BFF0EC4EC8BF00101DC6FDC29BE
:100F100007E0010E00018C6F190EFAEC92F00AD076
:100F20000A0E0001606F000E616B626B636B646B95
:100F300055EC97F0FF0E0AEC89F08C8E8DEC97F053
:100F400073EC97F000090DE064EC8EF00101DA2BF0
:100F5000DAC189F0DB5165EC97F08C7C87EC97F077
:100F6000EFD758EC91F00101D76F7FD00001E66B0D
:100F70000101DC6B060E0001606F0101D85163ECCA
:100F800096F0150DED0EBD6FFA0EBE6FF350BD2736
:100F9000F450BE230101DC510001BD27000EBE2329
:100FA000BDC0F6FFBEC0F7FF000EF86E710EE6255D
:100FB000D96EDA6A010EDA220800F5CFDFFFE62BE0
:100FC0000101DC2B140EDC65D5D7D82B000E42ECCA
:100FD00097F0DAC189F00101DB2BDB5165EC97F06A
:100FE000AFD70001E66B0101DC6B060E0001606FFC
:100FF0000101D95163EC96F00B0D6B0EBD6FFB0E2A
:10100000BE6FF350BD27F450BE230101DC51000137
:10101000BD27000EBE23BDC0F6FFBEC0F7FF000E09
:10102000F86E710EE625D96EDA6A010EDA22080032
:10103000F5CFDFFFE62B0101DC2B0A0EDC65D5D7EF
:10104000D92B010E0001A46F000E77EC96F0000979
:1010500003E1F7EC96F002D00101DB2BDAC189F055
:101060000101DB5165EC97F06BD7D751010A01E123
:101070007DD7030AB6E064D7280E926501D0000C34
:10108000010E8DB5000E936F933B934793478D519F
:101090009319BF0B93198D6F8D51030B936F9305AC
:1010A000D8B48D8F8DC032F1E0C033F1E02B020E49
:1010B000956F8DAD19D0966B11D096518E25D96E46
:1010C000000E8F21DA6E320E00019525E16EE26A84
:1010D000010EE222DFCFE7FF952B962BD931E832C4
:1010E000E8320F0B965DE9E38DAF19D0966B11D006
:1010F0009651DA25D96E000EDB21DA6E320E000130
:101100009525E16EE26A010EE222DFCFE7FF952B23
:10111000962BD931E832E8320F0B965DE9E38DA7C3
:101120005CD0966B9651E90FD96EDA6A320E0001E7
:101130009525E16EE26A010EE222DFCFE7FF952BF3
:10114000962B030E9665EED7E92B000EEA23EB23D0
:10115000EC23E9670FD0EAC093F0030E93170AE17E
:10116000F9C061F0FAC062F0646B040E636FE90EBF
:1011700022EC90F0320E00019525D96EDA6A010E4C
:10118000DA22DF6A952B95C094F0966B11D09651B8
:101190009025D96E000E9121DA6E320E0001952550
:1011A000E16EE26A010EE222DFCFE7FF952B962B7C
:1011B0009251965DECE3010E0001836F320E826F57
:1011C00094C084F092C085F0010E876FBA0E866FCE
:1011D0007DEC8FF0020E952716D0966B11D09651AC
:1011E0009025D96E000E9121DA6E320E0001952500
:1011F000E16EE26A010EE222DFCFE7FF952B962B2C
:101200009251965DECE3000ED9B3010E696F9551D2
:1012100055EF8CF06C6F050E6C6521D0FF0E626F80
:101220005E0E616FB0EC96F06E6B6E51D608D96EA3
:10123000000ED8A0E82A01010108DA6EDF5085EC23
:1012400094F000016E2B040E6E65EFD7FF0E626FF7
:10125000D30E616FB0EC96F0FB51DBEC91F0050E14
:1012600000016C5D4FE2FD0E626FCF0E616FB0EC5E
:1012700096F06C51070DF3503E0FD96EDA6ADFAE6F
:1012800012006C5185EC94F0FF0E0001626FC50EE8
:10129000616FB0EC96F06E6B050E6E5D0DE26C51F9
:1012A000070DF3503D0F6B6F6E516B5DD96EDA6AAF
:1012B000DF5085EC94F006D0FF0E626FD00E616FA8
:1012C000B0EC96F000016E2B070E6E65E5D7FF0EB1
:1012D000626FCE0E616FB0EC96F06E6B6C51070DC5
:1012E000F3503F0F6E25D96EDA6ADF5085EC94F02B
:1012F00000016E2B6E51F2E0FF0E626FFB0E616F0C
:10130000B4EF96F0FD0E626FCD0E616FB0EC96F00B
:101310006E6B6E51070DF3503E0FD96EDA6ADFAE79
:1013200041D06E5185EC94F0FF0E0001626FC50E46
:10133000616FB0EC96F06D6B050E6D5D0DE26E5158
:10134000070DF3503D0F6B6F6D516B5DD96EDA6A0F
:10135000DF5085EC94F006D0FF0E626FD00E616F07
:10136000B0EC96F000016D2B070E6D65E5D7FF0E12
:10137000626FCE0E616FB0EC96F06D6B6E51070D23
:10138000F3503F0F6D25D96EDA6ADF5085EC94F08B
:1013900000016D2B6D51F2E0FF0E626FFB0E616F6D
:1013A000B0EC96F06E2B040E6E65B3D7040C756F1F
:1013B0007551D96EDA6ADECF6FF0DDCF70F07551FE
:1013C000D96EDA6A020ED926DECF71F0DDCF72F067
:1013D000736B746B9E0E6D6F370E6C6F6E6B030EBE
:1013E0007315626F636BD890623763376251602503
:1013F000D96E63516121DA6EDECF64F0DDCF65F026
:10140000735164277451652371C066F072C067F030
:10141000050E686FD89067336633682FFBD771C0AD
:1014200069F072C06AF0693B6A3BF00E6A17695155
:101430000F0B6A13F00E69176651691B67516A1B1F
:101440007151692772516A236451691B65516A1B86
:1014500069516F276A5170236C5173276D51742342
:1014600073C062F074C063F00B0E646FD890633386
:101470006233642FFBD7030E6217636BD890623719
:10148000633762516025D96E63516121DA6EDECF18
:1014900065F0DDCF66F073516527745166236FC028
:1014A00067F070C068F0050E696FD89068336733D5
:1014B000692FFBD76FC06AF070C06BF06A3B6B3B63
:1014C000F00E6B176A510F0B6B13F00E6A17675112
:1014D0006A1B68516B1B6F516A2770516B236551F2
:1014E0006A1B66516B1B6A5171276B5172236E2BFD
:1014F0001F0E6E6574D77551D96EDA6A6FC0DEFF44
:1015000070C0DDFF7551D96EDA6A020ED92671C03E
:10151000DEFF72C0DDFF020C766F88EC93F0E26BA9
:101520007A6B7A51070DF3503E0FD96EDA6ADF6A93
:101530007A2B040E7A65F5D75DEC97F0E66B7A6B43
:101540007A51040D1E0EF324D96E010EF420DA6ECA
:10155000DE6ADE6ADE6ADD6A00017A2B040E7A65D5
:10156000EFD776512FE0F5C061F0F6C062F0646B02
:10157000010E636FFB0E5AEC93F01F0E0001FB652A
:1015800001D01F0CF1C061F0F2C062F0646B010E7B
:10159000636FFD0E5AEC93F0F3C061F0F4C062F09B
:1015A0000001646B230E636F390E5AEC93F0FF0E4B
:1015B0000001626FDF0E616FB0EC96F0FB5185ECBD
:1015C00094F020D0F5C061F0F6C062F0646B010EBB
:1015D000636FFB0E22EC90F0F1C061F0F2C062F09C
:1015E0000001646B010E636FFD0E22EC90F0F3C0FE
:1015F00061F0F4C062F00001646B230E636F390E7A
:1016000022EC90F0010E0001796FD20E786F778393
:101610007751870B2809776F76B102D0779502D082
:1016200000017785779177C072F078C073F079C048
:1016300074F028EC8BF00001FB5122EC96F00001D5
:10164000E16BE181E187FD39F00BE113F08A1200D3
:1016500072C0D9F073C0DAF074C0DBF0616B140EA5
:10166000606FEBEC8DF08D868B84D6CFE0F0E56972
:10167000756B7551410D000EF324D96E020EF420E6
:10168000DA6EDF6A0001752B010E7565F2D772A55F
:101690001CD0F9C061F0FAC062F0646B040E636F95
:1016A000E90E5AEC93F00001D890040EEA27000EE0
:1016B000EB23EC23F9C061F0FAC062F0646B040E16
:1016C000636FE90E22EC90F014D0E96BEA6BEB6BE0
:1016D000EC6BF9C061F0FAC062F0646B040E636FEA
:1016E000E90E22EC90F0010E0001E96FEA6BEB6B62
:1016F000EC6B0001756B4B0E7525F66EF76AFC0EF0
:10170000F722F86A000EF822BA0E00017525D96E8C
:10171000DA6A010EDA220800F5CFDFFF752B070E1B
:101720007565E9D7756B7551020DAD0EF324F66E34
:10173000FB0EF420F76EF86A000EF8220900F5CFD0
:1017400061F00A00F5CF62F013EC95F00001752B03
:101750001F0E7565E8D7200E8FEC92F00001626BCA
:10176000460E616F13EC95F0400E8FEC92F01C0E5C
:101770000001626F0F0E616F13EC95F0600E8FEC3D
:1017800092F0F094F08A1200FDC0B1F0030EB26F37
:10179000B76BAC0501E1FF0CB5EC93F060C0B3F0A2
:1017A00061C0B4F062C0B5F063C0B6F0B40EB35F10
:1017B000C40EB45B040EB55B000EB65BFD6BE28934
:1017C0006ED0B5EC93F060C0B8F061C0B9F062C003
:1017D000BAF063C0BBF0B351B85DAD6FB451B95945
:1017E000AE6FB551BA59AF6FB651BB59B06FB50EA8
:1017F000AD5DC40EAE59040EAF59000EB05949E3A9
:10180000B8C0B3F0B9C0B4F0BAC0B5F0BBC0B6F060
:10181000B7070001B72943E1010EB76FB207B2293C
:1018200002E1E299FF0CE66B710E0001E625D96E2C
:10183000DA6A010EDA22810EDF6EE62B710EE625E2
:10184000D96EDA6A010EDA22FBC0DFFFE62B710ED9
:10185000E625D96EDA6A010EDA22E1C0DFFFE62B57
:10186000BC6BBC51FC0FD96EDA6A710E0001E62523
:10187000E16EE26A010EE222DFCFE7FFE62BBC2B2E
:10188000BC51EFE0986B976B010E996F9A6BD1EC9E
:101890008FF073EC97F00009D8A487EC97F0E2B9C9
:1018A00090D7B1C0FDF0DF5112007B6F030E776F50
:1018B0007FD0786BE76B766B69510FE0280EC4EC34
:1018C00095F0796FD8907933410E796506D0762BF3
:1018D000050E00017665F2D7000CF09A200E8FEC11
:1018E00092F01A0E0001626FC90E616F13EC95F051
:1018F00000017B518AEC96F000017C6B0DD0320E1A
:1019000000017C25D96EDA6A0101010EDA22DF506E
:101910008AEC96F000017C2B7B517C5DF0E3800E1D
:101920008FEC92F0F08A0001DE6702D0F0A4FBD7C2
:10193000DE6B200E8FEC92F0600E8FEC92F00101C6
:1019400032AB0ED033C137F0B5EC93F060C06EF01F
:1019500061C06FF062C070F063C071F0E75104E0E5
:10196000010E00017A6F2AD0B5EC93F060C072F0DE
:1019700061C073F062C074F063C075F06E51725D47
:101980006A6F6F5173596B6F705174596C6F7151ED
:1019900075596D6F0A0E6A5D3D0E6B59000E6C59DC
:1019A000000E6D59DBE3050E782B0001785D82E3B4
:1019B00077070001772901E07CD77A6B7A51120012
:1019C0000001686B69696A6B6A51070DF3503E0F3D
:1019D000D96EDA6ADFAE15D0C3C061F0C2C060F064
:1019E0006A51070DF350390F666F636B66C062F082
:1019F000ACEC95F0000909E06AC069F0010E686F6F
:101A000008D06929D8B46AC069F06A2B040E6A65E7
:101A1000DBD7692901E1F10CFD5102E068511200A8
:101A20006A6B6A51C225D96E000EC321DA6E695104
:101A3000070DF350390F6A25E16EE26ADFCFE7FF49
:101A40006A2B070E6A65EDD76951070DF3503E0FFB
:101A5000D96EDA6ADF8E20EE02F0C451D926C55164
:101A6000DA22DF50666F010E66176951070DF350D9
:101A70003E0FD96EDA6ADF506619FE0B6619DF6E0B
:101A80006A6B6A51C425666F000EC521676F030E2D
:101A90006625D96E000E6721DA6E6951070DF35085
:101AA0003F0F6A25E16EE26ADFCFE7FF6A2B6A51DA
:101AB000E8E06951040D1E0EF324D96E010EF420E6
:101AC000DA6EDE6ADE6ADE6ADD6A69C0DFF00001B6
:101AD000E299A4D70F6E030E1A6E78D01B6A00012C
:101AE000E76B196A0A500EE0280E38EC96F01C6E6F
:101AF000D8901C32410E1C6405D0192A050E1964B9
:101B0000F3D7050CF09A200EC5EC92F01A0E036E76
:101B1000C90E026EDCEC95F00F50E6EC96F01D6AF3
:101B20000BD00101320E1D24D96EDA6A010EDA22C1
:101B3000DF50E6EC96F01D2A0F501D5CF2E3800E9C
:101B4000C5EC92F0F08A0001DE6702D0F0A4FBD76A
:101B5000DE6B200EC5EC92F0600EC5EC92F0010138
:101B600032AB0ED033C137F000EC94F001C011F06D
:101B700002C012F003C013F004C014F0E75103E0F8
:101B8000010E106E010C00EC94F001C015F002C0C3
:101B900016F003C017F004C018F01150155C0B6E5E
:101BA000125016580C6E135017580D6E14501858CA
:101BB0000E6E0A0E0B5C3D0E0C58000E0D58000EFA
:101BC0000E58DCE3050E1B2A1B5C89E31A061A2853
:101BD00085E1106A1200C40E626F090E636F646BB8
:101BE000656B6051666F6151676F686B696B6651B9
:101BF0006203F3CF6AF0F4CF6BF06C6B6D6B630331
:101C0000F3506B27F4506C23000E6D236751620371
:101C1000F3506B27F4506C23000E6D236651640360
:101C2000F3506C27F4506D2367516303F3506C2716
:101C3000F4506D2368516203F3506C27F4506D2308
:101C400065516603F3506D2767516403F3506D27A8
:101C500068516303F3506D2769516203F3506D2798
:101C60006AC06EF06BC06FF06CC070F06DC071F048
:101C7000560E6E27FF0E6F23702371237151800A59
:101C8000800F08E1000E705D05E1000E6F5D02E15E
:101C9000C40E6E5DD8A0120008D000F0D90E00016D
:101CA0006E27FF0E6F23702371237151800A800FFE
:101CB00008E1000E705D05E1000E6F5D02E1010EAE
:101CC0006E5DD8A01200E9D7BFA706D0FF0E626FE5
:101CD000E90E616FB0EC96F0BF51030B07E0FE0E0A
:101CE000626FE60E616FB0EC96F006D0FF0E626F89
:101CF000020E616FB0EC96F0C75185EC94F00001D4
:101D0000BFAD2ED0FF0E626FF20E616FB0EC96F099
:101D1000BFAF11D020EE01F0C251D926C351DA2253
:101D2000DF5085EC94F0C2C0D9FFC3C0DAFFDF50AA
:101D300085EC94F015D0666B6651C25D646F000E41
:101D4000C359656F040E6425D96E000E6521DA6EE5
:101D5000DF5085EC94F00001662B040E6665ECD72D
:101D6000FF0E0001626FDC0E616FB0EC96F0666BE7
:101D70000BD06651C425D96E000EC521DA6EDF5036
:101D80006CEC97F00001662BC651665DD8B012006E
:101D9000F0D78D6B84518D5D02E38B6B08D08D5134
:101DA0008225D96E000E8321DA6EDF508B6F8C6B2B
:101DB0008D51ED0FD96EDA6A8BC0DFFF8D2B020ECD
:101DC0008D65E8D784518225766F000E8321776F69
:101DD00085C078F087C07AF086C079F0ED0E7B6F11
:101DE00026EC8FF083C077F082C076F08451852591
:101DF000FE0F786F87C07AF086C079F0ED0E7B6FAA
:101E000073EC90F08D6B84518225886F000E8321D6
:101E1000896F85518827000E89238D518827000EF0
:101E20008923FE0E8825D96EFF0E8921DA6EDF50D8
:101E30008A6F8D51ED0FD96EDA6ADF508A1901E091
:101E4000000C8D2B010E8D65DED7010C78C07CF067
:101E5000D8907C33D8907C337C297F6F806B48D0BE
:101E6000816B7B518125D96EDA6A8151ED0FE16E6C
:101E7000E26ADFCFE7FF812B020E8165F2D780C0D7
:101E8000F0F07AC061F079C060F0ED0ED7EC89F027
:101E9000816B78517C6F7D6B8051040D8151F326ED
:101EA000000EF422F450800A7E6F7C51F35C7D5169
:101EB000800A7E591CE28151ED0FD96EDA6ADF503B
:101EC0007C6F8051040D76C07DF077C07EF0F350BA
:101ED0007D27F4507E2381517D25D96E000E7E2111
:101EE000DA6E7C51DF1A812B030E8165D2D7802BED
:101EF0007F51805DD8B01200B3D783C077F082C025
:101F000076F084518525786F87C07AF086C079F0A5
:101F1000ED0E7B6F73EC90F08C6B8C51ED0FD96EE6
:101F2000DA6A84518225886F000E8321896F85517A
:101F30008827000E89238C518825E16E000E8921A7
:101F4000E26EDFCFE7FF8C2B030E8C65E6D78C6B40
:101F500084518C5D02E38A6B08D08C518225D96E46
:101F6000000E8321DA6EDF508A6F8B6B8C51ED0F80
:101F7000D96EDA6A8AC0DFFF8C2B020E8C65E8D737
:101F800084518225766F000E8321776F8551040F6F
:101F9000786F87C07AF086C079F0ED0E7B6F26EF00
:101FA0008FF09D6F9E6B000EF36A9963F32AF3CF57
:101FB0009BF09E519B19FC0B9B199E6F9D51010E2E
:101FC000D8A4000E9B6F9B3B9B479E519B19DF0B38
:101FD0009B199E6F9DB102D09E9502D000019E85F7
:101FE0009AB102D09E9702D000019E879D51010EAA
:101FF000D8A4000E9B6F9B3B9B479B479E519B1910
:10200000BF0B9B199E6F9E51030B9B6F9B0502E1BB
:102010009E8F01D09E9F98C0A0F097C09FF09EC059
:102020008DF09FC08EF0A0C08FF0010E0001916F67
:10203000710E906FE6C092F03CEC88F09C6FE66BFE
:102040009C5112006A6F000EF0BA010E686FF09A90
:102050008996050E14EC97F079EC97F00001696F02
:1020600089868AEC97F0000169B1F2D78996060E4D
:1020700014EC97F089868AEC97F08996020E14EC9E
:1020800097F0000162C065F065C066F0676B66514D
:1020900014EC97F00001615114EC97F00001696BAA
:1020A00018D06A51D96EDA6ADF5014EC97F000014B
:1020B0006A2B6307D8A06407692B69516125656F96
:1020C0003F0E651706E1898669516127000E62237C
:1020D000BFD764516311E5E1898668B102D0F09AF7
:1020E00001D0F08A120078C07CF0D8907C33D89070
:1020F0007C337C297F6F816B7B518125D96EDA6AB5
:10210000DF6A812B030E8165F7D7816B37D0806B37
:1021100078517C6F7D6B8151040D8051F326000E48
:10212000F422F450800A7E6F7C51F35C7D51800A6A
:102130007E591CE28151040D76C07CF077C07DF0A1
:10214000F3507C27F4507D2380517C25D96E000EFE
:102150007D21DA6EDF507E6F7B518025D96EDA6A81
:102160007E51DF1A802B030E8065D2D77AC061F0D2
:1021700079C060F07B51D7EC89F0812B7F51815D74
:10218000D8B01200C4D76A6F1F0E6A6501D0000C68
:102190000C0E626F640E616F13EC95F0ED0E000192
:1021A0006A25F66EF76AFB0EF722F86A000EF8222F
:1021B0000800F5CF69F0000E6911616F0E0E626FB5
:1021C00013EC95F00D0E00016A25F66EF76AFC0E11
:1021D000F722F86A000EF8220800F5CF69F0000E29
:1021E0006911616F100E626F13EC95F0200E8FEC89
:1021F00092F00001626B460E616F13EC95F0400E99
:102200008FEC92F01C0E0001626F0F0E616F13ECE9
:1022100095F0200E8FEC92F0600E8FEC92F0010C96
:10222000800EC1EC94F00001736B990E00017325D0
:10223000D96EDA6A0101010EDA22DF5004E1200EC4
:10224000A3EC94F00BD0990E00017325D96EDA6AD5
:102250000101010EDA22DF50A3EC94F00001732B90
:102260000F0E7365E2D7C00EC1EC94F0100E0001A2
:10227000736F990E00017325D96EDA6A0101010EA0
:10228000DA22DF5004E1200EA3EC94F00BD0990E7B
:1022900000017325D96EDA6A0101010EDA22DF50DE
:1022A000A3EC94F00001732B1F0E7365E2D71F0C93
:1022B00081B00FD0E367000C010EE36FB5EC93F033
:1022C00060C0D1F061C0D2F062C0D3F063C0D4F07E
:1022D000010C80BA0FD0E367000C010EE36FB5EC80
:1022E00093F060C0D1F061C0D2F062C0D3F063C09F
:1022F000D4F0020CB5EC93F060C06DF061C06EF0EC
:1023000062C06FF063C070F0D1516D5D696FD251E2
:102310006E596A6FD3516F596B6FD45170596C6F8E
:10232000000E695D400E6A59000E6B59000E6C5923
:10233000D8B0E36B000CFE0E0001886F4D0E876F66
:10234000896B010E8A6F46EC94F0FD0E626F910E60
:10235000616FB0EC96F0FE0E626F6D0E616FB0ECC7
:1023600096F0FF0E626F340E616FB0EC96F0FC0ECB
:10237000626FD70E616FB0EC96F0FD0E626F170EB4
:10238000616FB0EC96F0FC0E626F950E616FB0EC71
:1023900096F0FC0E626F530E616FB0EC96F0FD0E7E
:1023A000626F550E616FB0EC96F0FF0E626FF90E22
:1023B000616FB4EF96F06A6F630E6A6511D0640EB8
:1023C000646F6A5161EC95F0686F696BC20E000131
:1023D0006825D96E010E6921DA6EDF506CEC97F03A
:1023E000090E00016A6515D00A0E646F640E606FF5
:1023F0006A5163EC96F061EC95F0686F696BC20E00
:1024000000016825D96E010E6921DA6EDF506CEC8F
:1024100097F00A0E0001606F6A5163EC96F0686FE6
:10242000696BC20E00016825D96E010E6921DA6E52
:10243000DF506CEF97F0929489840001616B0A0E73
:10244000606FEBEC8DF0979C8E9C616B0A0E606F59
:10245000EBEC8DF08E8C83EC97F0F4EC95F094EC33
:1024600095F0000E47EC95F00001616B0A0E606F6D
:10247000EBEC8DF03C0E2DEC95F00001616B0A0E3B
:10248000606FEBEC8DF00C0E2DEC95F00001616BA4
:102490000A0E606FEBEC8DF0010E2DEC95F0000153
:1024A000616B0A0E606FEBEC8DF00C0E2DEF95F06A
:1024B00002EE00F0820EEE6AE806FDE101EE00F0A9
:1024C000C20EEE6AE806FDE100EEBFF03D0EEE6AD8
:1024D000E806FDE100EE35F0270EEE6AE806FDE1C4
:1024E0005A0EF66E2E0EF76E010EF86E01EEC2F069
:1024F00010EE15F00900F5CFEEFFE550E150FAE1DE
:10250000180EF66E2F0EF76E010EF86E0900F5CF5D
:10251000FCF00900F5CFFDF000015FEF87F000014E
:10252000676F27D0626B860E616F13EC95F0800E9B
:10253000356E800C626B660E616F13EC95F0600E69
:10254000356E600C626B460E616F13EC95F0400EB9
:10255000356E400C626B260E616F13EC95F0200E09
:10256000356E200C626B060E616F13EC95F0356AC8
:1025700012006751F7E0200AEDE0600AE3E0200A6C
:10258000D9E0E00AD8A41200CDD7086E27D0036A9C
:10259000860E026EDCEC95F0800E356E800C036AC0
:1025A000660E026EDCEC95F0600E356E600C036A10
:1025B000460E026EDCEC95F0400E356E400C036A60
:1025C000260E026EDCEC95F0200E356E200C036AB0
:1025D000060E026EDCEC95F0356A12000850F7E04A
:1025E000200AEDE0600AE3E0200AD9E0E00AD8A47E
:1025F0001200CDD78D6F8C6714D0FE0E886F2D0E14
:10260000876F8DC089F0010E8A6F46EC94F0FE0E44
:10261000626FAB0E616FB0EC96F08D51DBEC91F018
:1026200013D0FE0E886F8C0E876F8DC089F0010E5F
:102630008A6F46EC94F0FE0E626FC90E616FB0ECCB
:1026400096F08D51DBEC91F0FF0E0001626FFB0EF6
:10265000616FB4EF96F0700ED36EC088DF0EC16E5E
:10266000C268C098926893689468956A896A8A6A11
:102670008B6A8C6A9380928A959E959C938A9488A3
:10268000949A9496C00EC76E210EC66E9696949438
:10269000959E959CF094F08A8D868B84F28E400EE8
:1026A000C76E210EC66EF18692968986F28EF08AEA
:1026B0001BEF92F0696F000EF0BA010E686FF09A8E
:1026C0008996030E14EC97F0000162C065F065C0B6
:1026D00066F0676B665114EC97F00001615114ECE1
:1026E00097F00BD06951D96EDA6A79EC97F0DF6E0A
:1026F0000001692B6307D8A06407000164516311CE
:10270000F1E1898668B102D0F09A01D0F08A120016
:10271000010E656FDC6BDD6B616B020E606FF70E97
:10272000626FF9EC94F06517616B010E606FF50E46
:10273000626FF9EC94F06517616B010E606FF10E3A
:10274000626FF9EC94F06517616B230E606FF30E06
:10275000626FF9EC94F06517616B040E606FF90E0F
:10276000626FF9EC94F0651712009D900001676BA1
:10277000686B646BCECF65F0CFCF66F06529D8B4B7
:10278000662905E1642B030E00016465F3D79EA062
:1027900004D0672B3828D8B4682B38506727E85105
:1027A00068279D8065C060F066C061F067C062F018
:1027B00068C063F01200656B666B635162111BE0C9
:1027C000010E646F04D0D89062376337642B63AF17
:1027D000FAD7D890653766376251605D63516159A9
:1027E00005E36251605F6351615B6581D89063333B
:1027F0006233642FEED765C060F066C061F01200EE
:102800009D90086A096A056ACECF06F0CFCF07F01F
:102810000628D8B4072804E1052A030E0564F4D776
:102820009EA004D0082A3828D8B4092A385008268F
:102830000001E85109269D8006C001F007C002F0A2
:1028400008C003F009C004F01200886F4EEC96F047
:10285000010E00016D6F990E6C6FFF0E6F6FA40E6D
:102860006E6F88C070F0716B00EC80F0010E00019B
:102870006D6FA90E6C6FFF0E6F6F930E6E6F87C03A
:1028800070F0716B00EC80F010EF91F04EEC96F070
:10289000010E00016D6F990E6C6F88C06FF087C0DC
:1028A0006EF089C070F0716B00EC80F010EC91F06C
:1028B0008A51D8B412008B6B616BFA0E606FEBEC2F
:1028C0008DF08B2B070E8B65F7D7070C6A516911BA
:1028D00017E0010E6B6F04D0D89069376A376B2B05
:1028E0006AAFFAD76951675D6A51685904E3695163
:1028F000675F6A51685BD8906A3369336B2FF2D790
:1029000067C067F068C068F012000001626F62C0C3
:1029100061F062390F0B626FC20E6225D96EDA6AFE
:102920000101010EDA22DF506CEC97F000016151D9
:102930000F0B626FC20E6225D96EDA6A010EDA22BF
:10294000DF506CEF97F00001726F616B010E606FEA
:10295000EBEC8DF0800E47EC95F0000172517BECB2
:1029600095F000F000F000F000F0C00E47EC95F09C
:1029700000F000F000F000F000F000F0000E47EF73
:1029800095F0726F000E47EC95F00001616B010E3F
:10299000606FEBEC8DF072517BEC95F000F000F085
:1029A00000F000F0400E47EC95F000F000F000F071
:1029B00000F000F000F0000E47EF95F000016C6FA2
:1029C000030E6C6501D0030C6CC0FDF0FDC06BF014
:1029D0006B3BF00E6B17E1510F0B6B11E16FF1C008
:1029E00061F0F2C062F0646B010E636FFD0E22EFC6
:1029F00090F0DCC063F0DDC064F06051632761518A
:102A00006423010E635D800E645901E3000C625182
:102A1000D96EDA6ADCC0DEFFDDC0DDFF6051DC2785
:102A20006151DD23010C000EF0BA010E666FF09AC1
:102A30008D9662C063F063C064F0656B645114EC02
:102A400097F00001615114EC97F08D86000166B19A
:102A500002D0F09A01D0F08A1200636F000E47ECAA
:102A600095F0000163517BEC95F000F000F000F070
:102A7000400E47EC95F000F000F000F000F000F0A0
:102A800000F000F000F000F0000E47EF95F00001BC
:102A9000616F000EF0BA010E626FF09A8994400ED9
:102AA00014EC97F0120E14EC97F00001615114EC45
:102AB00097F08984000162B102D0F09A01D0F08AC7
:102AC0001200656F676B645114E0010E666F03D0EE
:102AD000D8906437662B64AFFBD7D89067376451C2
:102AE000655D03E36451655F6781D8906433662F49
:102AF000F4D767511200616F000EF0BA010E626FD9
:102B0000F09A8994400E14EC97F0130E14EC97F0A1
:102B10000001615114EC97F08984000162B102D088
:102B2000F09A01D0F08A1200000EF0BA010E0001F6
:102B3000616FF09A8994400E14EC97F0010E14EC3A
:102B400097F0000E14EC97F08984000161B102D077
:102B5000F09A01D0F08A1200656B65516225D96E3A
:102B6000000E6321DA6EDF50646F65516025D96E07
:102B7000000E6121DA6EDF50641901E0000C652B54
:102B8000040E6565EAD7010C616F000EF0BA010E04
:102B9000636FF09A8D96618D615114EC97F079EC2A
:102BA00097F00001626F8D8663B102D0F09A01D078
:102BB000F08A000162511200000EF0BA010E076E99
:102BC000F09A8D9603C004F004C005F0066A055023
:102BD00021EC97F0025021EC97F08D8607B002D0DF
:102BE000F09A01D0F08A1200000EF0BA010E616F67
:102BF000F09A8994400E14EC97F0000E14EC97F0C4
:102C0000000E14EC97F08984000161B102D0F09AB3
:102C100001D0F08A120061C067F060C066F008D091
:102C200066C0D9FF67C0DAFF62C0DFFF664B672B63
:102C30006407D8A0650700016429D8B46529D8B411
:102C40001200EED76B6F686B6B51C3EC90F000090C
:102C50000EE06BC0FBF0F5C061F0F6C062F0000161
:102C6000646B010E636FFB0E22EC90F0010C000C04
:102C7000026E000EF0BA010E046EF09A8D96028C70
:102C8000025021EC97F07EEC97F0036E8D8604B035
:102C900002D0F09A01D0F08A03501200010E2DEC00
:102CA00095F00001616B020E606FEBEC8DF0010E90
:102CB0000001616F990E606F636B200E626F656B30
:102CC000646F0BEF96F00001616F080E626F636B2B
:102CD000D89061356335636FD89061376051635D1B
:102CE00002E36051635F622FF3D763511200A56F57
:102CF000A551070DF3503E0FD96EDA6ADFAE000C16
:102D0000010EA16FA4C0A2F0A551070DF350390F19
:102D100038EF97F00001616F000EF0BA010E626F9C
:102D2000F09A8B94615114EC97F08B84000162B19E
:102D300002D0F09A01D0F08A120060516203F3CF02
:102D400064F0F4CF65F060516303F350652761517F
:102D50006203F350652764C060F065C061F0120043
:102D600003D063516CEC97F0000161C0F6FF62C0C4
:102D7000F7FF614B622B000EF86E0800F5CF63F091
:102D80006367EFD7120000016B6FFF0E626F1C0EBE
:102D9000616FB0EC96F06B51DBEC91F0FD0E000131
:102DA000626FFF0E616FB4EF96F0020E0001E55DF9
:102DB000D8B01200E551410D000EF324D96E020E79
:102DC000F420DA6E000EDF6AE5691200026E000E72
:102DD000F0BA010E036EF09A8B94025021EC97F03A
:102DE0008B8403B002D0F09A01D0F08A1200FF0E5B
:102DF000626F4B0E616FB0EC96F0FF0E886FB50EF0
:102E0000876F896B010E8A6F46EF94F0626F616B7A
:102E10003A0E625D05E22F0E626502D0010E616F0F
:102E200061C060F0603112000001606F9E96C95071
:102E3000C69E60C0C9FFC6BEFBD79EA6FED79E96A3
:102E40001200016E9E96C950C69E01C0C9FFC6BE43
:102E5000FBD79EA6FED79E96120030313233343512
:102E600036373839414243444546FF112233440046
:102E7000A36F986BA3C097F0000E996BA2C09AF055
:102E8000D1EF8FF00001A16F986B976B996BA1C088
:102E90009AF0010ED1EF8FF0948E949C240EAD6EBB
:102EA000900EAC6E1F0EB06E1F0C656F6551D8B4DE
:102EB0001200010AD8A4030A1200380ECD6E9E90AB
:102EC0009D80CD80386AE86B120000018A6F89C04E
:102ED00087F08A5125EF94F00001606FADA2FED714
:102EE00060C0AEFF1200D7EC83F00001E2B7010C26
:102EF000000C000E14EC97F0C9501200000E21ECEB
:102F000097F0C9501200949A94969E961200E297F8
:0E2F1000D5EF96F000F012000103120012003F
:06FFF800A0F4C5F7F8FFBC
:00000001FF
