:0400000041EF01F0DB
:100008004D82FACF0EF0FBCF0FF0E9CF10F0EACF18
:1000180011F0E1CF12F0E2CF13F0D9CF14F0DACF1C
:1000280015F0F3CF16F0F4CF17F0F6CF18F0F7CF9E
:1000380019F0F8CF1AF0F5CF1BF0A4A610D00101E3
:1000480051B102D08A9401D08A8401015151D8A4B7
:1000580002D0010E01D0000E0101516FA496A1A299
:1000680034D0030E226E200E216E01015A51D8B4ED
:100078001DD0000E01015A6F280E096E0A0E0A6E75
:1000880021C00BF022C00CF009500B260A500C229C
:100098000B1E0C1E0B4A0C2A0BC01CF00CC01DF0CA
:1000A800899E1CC07AFF1DC07BFF0ED0010E010186
:1000B8005A6FE80E21241E6E6D0E22201F6E898E47
:1000C8001EC07AFF1FC07BFFA192F2B8F2A2ABD08C
:1000D800F292620ED6EC3FF0236E23A011D03E9030
:1000E8003EBC3E9C000E0101506F000E4F6F3EA2B9
:1000F80007D0480ED6EC3FF0206E20B03E843E92EA
:1001080023A68AD02568000E266E010E266401D02B
:1001180010D02650500D000EF324D96E030EF42093
:10012800DA6EDF50D8A403D026C025F002D0262AE4
:10013800ECD7020E25606BD0040E036E730EEBEC49
:100148003FF02550500D000EF324D96E030EF42015
:10015800DA6E030E046E000E036E55EC3EF0020FCD
:10016800DF6E2550500D000EF324D96E030EF420D7
:10017800DA6E4F0EDF6040D03E8A010E266E1AD02E
:100188002550500D000E096E030E0A6EF350092615
:10019800F4500A2226500924D96E000E0A20DA6E7D
:1001A800000E2624036E046A030E042255EC3EF06A
:1001B800DF6E262A2650096E0A6A2550500D000E59
:1001C800F324D96E030EF420DA6EDF500B6E0C6A3E
:1001D800020E0B26000E0C2209500B5C0C50800AF4
:1001E8000D6E0A50800A0D58D8B0CAD7010E036E9A
:1001F8001B0EEBEC3FF005D0010E036E1B0EEBEC73
:100208003FF0000E036E730EEBEC3FF005D0010ECD
:10021800036E1B0EEBEC3FF023A805D0800E036E97
:10022800590EEBEC3FF09EB09DA007D09E90432A5C
:100238004350D8A402D00101592BBCEC40F01BC09C
:10024800F5FF1AC0F8FF19C0F7FF18C0F6FF17C06E
:10025800F4FF16C0F3FF15C0DAFF14C0D9FF13C0AE
:10026800E2FF12C0E1FF11C0EAFF10C0E9FF0FC0B2
:10027800FBFF0EC0FAFF4D92110050EF3BF018EC57
:100288001CF00009D8B464EF0DF039B41200000E68
:100298000101206F27A404D00001B16BB12B02D05B
:1002A8000001B16B010120510001B119FC0BB1191A
:1002B8000101206F27A603D00101208702D0010188
:1002C80020972750030BE806D8A404D00001B16B8F
:1002D800B12B02D00001B16B0001B13BB147010164
:1002E80020510001B119DF0BB1190101206F27AEB0
:1002F80003D00101208D02D00101209D27AE0BD033
:100308002FB003D00101209F02D00101208F28C007
:1003180023F129C024F130C021F131C022F12EC0CF
:1003280029F12DC028F1399454EF0DF00A0E2C60F4
:1003380002D061EF0DF020EE02F02A50D9262B50A2
:10034800DA22DF500001CC6F20EE03F02A50D926C4
:100358002B50DA22DF500001CD6F20EE04F02A5036
:10036800D9262B50DA22DF500001D06F20EE05F09D
:100378002A50D9262B50DA22DF500001D16F20EE07
:1003880006F02A50D9262B50DA22DF500001D26F0E
:1003980020EE07F02A50D9262B50DA22DF50000130
:1003A800D36F20EE08F02A50D9262B50DA22DF50DE
:1003B8000001D66F20EE09F02A50D9262B50DA22F8
:1003C800DF500001D76F000E0101206F27A603D070
:1003D8000101208702D00101209701012051030B60
:1003E8000009D8A407D00001D02903E10001D129D0
:1003F800D8A46DD146500001D6190FE1475000012D
:10040800D719D8A40AD044500001D21906E14550A2
:100418000001D319D8B461EF0DF02AC0D9FF2BC061
:10042800DAFF010EDF6498D02AC0D9FF2BC0DAFFAB
:10043800DF06000E406E000E0001D96F16D00001D5
:10044800D951010DF3502A24D96EF4502B20DA6EBD
:100458004050010D5B0EF324E16E010EF420E26EB4
:10046800DFCFE7FF402A0001D92B2C500001D95DCE
:10047800D8A0E5D727C032F044C037F045C038F0DF
:100488002FC036F0140EBBEC38F020EE32F000EE40
:100498007EF0060EDBCFEBFFE806FCE25B0E000108
:1004A800856F010E0001866F40C087F052EC24F082
:1004B800000E0001D96F090E0001D96501D033D0B3
:1004C8000001D9510E0D0C0EF326000EF4223C0E3D
:1004D800F324D96E020EF420DA6E0201DFAE20D0CA
:1004E8000001D9510E0D0C0EF326000EF4223C0E1D
:1004F800F324D96E020EF420DA6E0201DFB010D0B8
:100508000001D9510E0D0C0EF326000EF4223C0EFC
:10051800F324D96E020EF420DA6E0201DFBA03D09A
:100528000001D92BC8D70A0E0001D96115D0CCC05B
:100538006AF0CDC06BF0000E00016C6F000E000178
:100548006D6F000E00016E6F000E27B6010E0001E0
:100558006F6F010E0BEC30F0000E0001D96F030E27
:100568000001D96501D03CD00001D951080D030E16
:10057800F326000EF422000EF324D96E010EF420A7
:10058800DA6EDF50D8B429D00001D951080D000E19
:10059800F324D96E010EF420DA6E0001D651DE186C
:1005A8001CE10001D751DE18D8A417D020EE0AF0BC
:1005B8002A50D9262B50DA220001D951080D020EF3
:1005C800F326000EF422000EF324E16E010EF4204F
:1005D800E26EDE50E618D8B403D00001D92BBFD79D
:1005E800040E0001D96102D061EF0DF0000E000188
:1005F800D96F030E0001D96501D013D00001D9517C
:10060800080D030EF326000EF422000EF324D96E13
:10061800010EF420DA6EDF50D8B403D00001D92BD4
:10062800E8D7040E0001D9614CD00001D951080D5A
:10063800000EF324D96E010EF420DA6ED6C0DEFF68
:10064800D7C0DDFF20EE0AF02A50D9262B50DA2237
:100658000001D951080D020EF326000EF422000EF7
:10066800F324E16E010EF420E26EDFCFE7FF000114
:10067800D951080D030EF326000EF422000EF324C0
:10068800D96E010EF420DA6E030EDF6E49EC3CF0F1
:100698000001D951080D040EF326000EF422000EB5
:1006A800F324D96E010EF420DA6E000160C0DEFF7B
:1006B800000161C0DEFF000162C0DEFF000163C00F
:1006C800DEFF01012051FC0B0109206F79D0445055
:1006D8000001CC1904E145500001CD19D8A48EEFD2
:1006E80007F046500001D01904E147500001D11924
:1006F800D8A48EEF07F020EE01F02A50D9262B500F
:10070800DA22DFA45DD04CC05BF1020E01015C6F00
:10071800D2C05DF1D3C05EF1D6C05FF1D7C060F141
:1007280044C061F145C062F146C063F147C064F15D
:1007380020EE0AF02A50D9262B50DA22DF50010188
:10074800656F000E0101666F300E0101676F0D0EB7
:10075800406E47500001D719D8B40ED0D2C0A5F0CA
:10076800D3C0A6F0D6C0A7F0D7C0A8F0000E0001ED
:10077800A96FEAEC21F022D0000E326E328A010E07
:10078800356E010E366ED60E336E000E346ED2C044
:1007980037F0D3C038F020EE32F000EE7EF0060ECF
:1007A800DBCFEBFFE806FCE25B0E0001856F010E74
:1007B8000001866F40C087F052EC24F001012085CB
:1007C80020EE0BF02A50D9262B50DA22DF50D8A47D
:1007D8005FD320EE0CF02A50D9262B50DA22300EA7
:1007E800DE18D8A422D339D30101AFB371D049ECB4
:1007F8003CF060C0C6F161C0C7F162C0C8F163C017
:10080800C9F120EE08F02A50D9262B50DA22DF5001
:100818000101B16F20EE09F02A50D9262B50DA22B7
:10082800DF500101B26F000E0001D86F070E000102
:10083800D86501D020D00001D8510001B16FB26B4A
:100848000D0E0001B127000EB2230001B1512A2478
:10085800D96E0001B2512B20DA6E0001D851010D7A
:10086800B30EF324E16E010EF420E26EDFCFE7FF52
:100878000001D82BDBD70101AF830101AF91000E36
:100888000001D86F0001D8510001D8A461EF0DF024
:100898000001D8510001B16FB26B150E0001B127EC
:1008A800000EB2230001B1512A24D96E0001B251C1
:1008B8002B20DA6E0001D851010DBB0EF324E16E36
:1008C800010EF420E26EDFCFE7FF0001D82BDAD764
:1008D80020EE08F02A50D9262B50DA220101B15116
:1008E800DE18D8A40CD020EE09F02A50D9262B50B7
:1008F800DA220101B251DE18D8B461EF0DF001011E
:10090800B1510101B211D8A4AAD0000E0001D86FCC
:10091800070E0001D86501D034D00001D85100017C
:10092800B16FB26B0D0E0001B127000EB2230001AA
:10093800B1512A24D96E0001B2512B20DA6E000180
:10094800D851010DBE0EF324E16E010EF420E26EC3
:10095800DFCFE7FF0001D851010DBE0EF324D96E99
:10096800010EF420DA6E0001D851010D3A0EF3247D
:10097800E16E010EF420E26EDFCFE7FF0001D82B15
:10098800C7D720EE08F02A50D9262B50DA22DF509C
:100998000101BC6F20EE09F02A50D9262B50DA222B
:1009A800DF500101BD6FBCC148F0BDC149F044C072
:1009B800CEF145C0CFF10CEC3BF00101B06F010165
:1009C800B029D8A4F8D08D0E0101586F48AE02D0D6
:1009D8000101589172EC35F00101B06F0101B029A5
:1009E800D8B4E9D0000E0001D86F0001D851000139
:1009F800D8A4E1D00001D8510001B16FB26B150E37
:100A08000001B127000EB2230001B1512A24D96E8A
:100A18000001B2512B20DA6E0001D851010D0D0EE4
:100A2800F326000EF4223C0E0001B36F020E000103
:100A3800B46FF3500001B327F4500001B42301014F
:100A4800B0510E0DF3500001B325E16EF4500001D2
:100A5800B421E26EDFCFE7FF0001D82BC6D70B0E1B
:100A6800406E4050010D5B0EF324D96E010EF42048
:100A7800DA6E000EDF6E402A4050010D5B0EF32443
:100A8800D96E010EF420DA6E110EDF6E402A000EC8
:100A98000001D86F070E0001D86501D034D00001DD
:100AA800D8510001B16FB26B0D0E0001B127000ED5
:100AB800B2230001B1512A24D96E0001B2512B2072
:100AC800DA6E0001D851010DBE0EF324E16E010E5D
:100AD800F420E26EDFCFE7FF0001D851010DBE0E12
:100AE800F324D96E010EF420DA6E4050010D5B0E2E
:100AF800F324E16E010EF420E26EDFCFE7FF402A17
:100B08000001D82BC7D720EE08F02A50D9262B5041
:100B1800DA22DF500101BC6F20EE09F02A50D926F5
:100B28002B50DA22DF500101BD6F4050010D5B0EE2
:100B3800F324D96E010EF420DA6EBCC1DFFF402A1F
:100B48004050010D5B0EF324D96E010EF420DA6ECD
:100B5800BDC1DFFF402A000E0001D86F0001D85147
:100B68000001D8A420D00001D8510001B16FB26BA8
:100B7800150E0001B127000EB2230001B1512A243D
:100B8800D96E0001B2512B20DA6E4050010D5B0E78
:100B9800F324E16E010EF420E26EDFCFE7FF402A76
:100BA8000001D82BDBD7B10E0001AF6F010E000199
:100BB800B06FC5EC3AF00101AF830101AF8161EF7D
:100BC8000DF0000E0001D46F070E0001D46501D0AE
:100BD80020D00001D4510001B16FB26B0D0E00019D
:100BE800B127000EB2230001B1512A24D96E0001A9
:100BF800B2512B20DA6E0001D451010D3A0EF324C4
:100C0800E16E010EF420E26EDFCFE7FF0001D42B86
:100C1800DBD78D0E0101586F20EE15F02A50D9262A
:100C28002B50DA22DFAE02D00101589120EE15F0E8
:100C38002A50D9262B50DA22DF50486E20EE16F0C3
:100C48002A50D9262B50DA22DF50496E44C0CEF103
:100C580045C0CFF10CEC3BF00101B06F0101B029A8
:100C6800D8B415D00101B0510E0D0C0EF326000EAC
:100C7800F4223C0EF324D96E020EF420DA6EDF5013
:100C88000101586F010158850101588707D08D0E61
:100C98000101586F48AE02D00101589172EC35F04D
:100CA8000101B06F0101B029D8B440D0000E000195
:100CB800D46F0001D4510001D8A435D00001D4511B
:100CC8000001B16FB26B170E0001B127000EB223FD
:100CD8000001B1512A24D96E0001B2512B20DA6EDD
:100CE8000001D451010D0D0EF326000EF4223C0E26
:100CF8000001B36F020E0001B46FF3500001B32777
:100D0800F4500001B4230101B0510E0DF35000015D
:100D1800B325E16EF4500001B421E26EDFCFE7FFA6
:100D28000001D42BC6D70101AF8102D00101AF91D8
:100D38000101AF9361EF0DF020EE0DF02A50D92696
:100D48002B50DA224A50DE18D8A461EF0DF020EEBD
:100D58000EF02A50D9262B50DA22DF50FFEC3FF054
:100D680061EF0DF020EE0DF02A50D9262B50DA2233
:100D78004A50DE18D8A461EF0DF0000E406E4CC04A
:100D88005BF1020E01015C6F44C05DF145C05EF18C
:100D980020EE08F02A50D9262B50DA22DF50010124
:100DA8005F6F20EE09F02A50D9262B50DA22DF5047
:100DB8000101606F44C061F145C062F146C063F152
:100DC80047C064F13FC065F13F2A000E0101666F1C
:100DD800420E0101676F000E326E328A010E356EC7
:100DE800010E366E44C037F045C038F0080E2A248C
:100DF800336E000E2B20346E20EE32F000EE7EF0C3
:100E0800060EDBCFEBFFE806FCE25B0E0001856F08
:100E1800010E0001866F0D0E0001876F52EC24F061
:100E280061EF0DF0399E61EF0DF020EE0CF02A50C5
:100E3800D9262B50DA22DF50100AD8B4D5D4010AAB
:100E4800D8B4BFD6510AD8B477D7010AD8B48AD74C
:100E5800030AD8B4E7D761EF0DF020EE0AF02A5064
:100E6800D9262B50DA220101F251DE18D8A461EFFD
:100E78000DF001014D510001D61905E101014E5156
:100E88000001D719D8A461EF0DF0399661EF0DF084
:100E98002C50F50F0101276F0B0E2A240101256F35
:100EA800000E2B200101266FD2C021F1D3C022F100
:100EB80020EE08F02A50D9262B50DA22DE28D8A4B2
:100EC80015D020EE09F02A50D9262B50DA22DE2838
:100ED800D8A40CD02FB003D00101209F02D001016B
:100EE800208F28C023F129C024F10AD00101208FC6
:100EF800080E2A240101236F000E2B200101246F04
:100F08000101208D01012751D8B461EF0DF039841A
:100F180061EF0DF02AC0D9FF2BC0DAFFDF50D8B43B
:100F280061EF0DF02AC0D9FF2BC0DAFFDF06000EF3
:100F3800406E000E0001D96F16D00001D951010D85
:100F4800F3502A24D96EF4502B20DA6E4050010D4C
:100F58005B0EF324E16E010EF420E26EDFCFE7FFB3
:100F6800402A0001D92B2C500001D95DD8A0E5D723
:100F780047500001D119D8A42DD001016651D8A439
:100F880029D0300E01016719D8A424D0000E326E82
:100F9800328A010E356E010E366ED00E336E000E9B
:100FA800346ECCC037F0CDC038F020EE32F000EE11
:100FB8007EF0060EDBCFEBFFE806FCE25B0E0001DD
:100FC800856F010E0001866F40C087F052EC24F057
:100FD80061EF0DF0CCC0A5F0CDC0A6F0D0C0A7F051
:100FE800D1C0A8F0000E27B6010E0001A96FEAECE7
:100FF80021F061EF0DF0000E0001CB6F0001CB5125
:101008000001B16FB26B040E0001B127000EB223CC
:101018000001B1512A24D96E0001B2512B20DA6E99
:101028004D0EDE18D8A461EF0DF020EE01F0285027
:10103800D9262950DA22DF500001C26FC2C0B1F0B0
:10104800010E0001B26F0001B12B03D00001D8904E
:10105800B2370001B12FFAD70001B2510001BF6FBA
:1010680028C0D9FF29C0DAFFDF50D8A404D0000176
:10107800BF51010157130001CB510001B16FB26B91
:10108800060E0001B127000EB2230001B1512A2437
:10109800D96E0001B2512B20DA6E0001C251010D48
:1010A800320EF324E16E010EF420E26EDFCFE7FF8B
:1010B80039A061EF0DF030C0CEF131C0CFF128C0BA
:1010C800D9FF29C0DAFFDF50486E20EE01F0285022
:1010D800D9262950DA22DF50496E0001CB51010D83
:1010E800F3502A24D96EF4502B20DA6EDE28D8A4C7
:1010F80061EF0DF00001CB510001B16FB26B010E31
:101108000001B127000EB2230001B1512A24D96E83
:101118000001B2512B20DA6EDF500001CA6F040EB5
:101128003B6061EF0DF00001CA39030B0001B16F9C
:10113800020E0001B16161EF0DF03B500F0D000E82
:10114800F324D96E020EF420DA6E4AC0DFFF3B505A
:101158000F0D0B0EF326000EF422000EF324D96EA9
:10116800020EF420DA6E28C1DFFF3B500F0D0C0E83
:10117800F326000EF422000EF324D96E020EF4209A
:10118800DA6E29C1DFFF3B500F0D090EF326000E62
:10119800F422000EF324D96E020EF420DA6ECEC1CA
:1011A800DEFFCFC1DDFF3B500F0D0D0EF326000E05
:1011B800F422000EF324D96E020EF420DA6E000E2B
:1011C800DF6E3B500F0D0D0EF326000EF422000EBD
:1011D800F324D96E020EF420DA6E0201DF8C0001CE
:1011E800CA31030B0001B16F3B500F0D0D0EF326F2
:1011F800000EF422000EF324D96E020EF420DA6EEB
:101208000201DF500001B119FC0BB1190201DF6EB8
:101218000001CAA70ED03B500F0D0D0EF326000E8D
:10122800F422000EF324D96E020EF420DA6E0201C5
:10123800DF860001CA39030B0001B16F020E0001FD
:10124800B1610ED03B500F0D0D0EF326000EF422A7
:10125800000EF324D96E020EF420DA6E0201DF8A42
:1012680023C1D9FF24C1DAFF3B500F0D010EF3262D
:10127800000EF422000EF324E16E020EF420E26E5A
:10128800DFCFE7FF010120EE01F02351D9262451D9
:10129800DA223B500F0D020EF326000EF422000E48
:1012A800F324E16E020EF420E26EDFCFE7FF3B503D
:1012B8000F0D0D0EF326000EF422000EF324D96E46
:1012C800020EF420DA6E0201DF8E000E0001D96FE3
:1012D8000001D9510001D8A439D00001D951CBC09F
:1012E800B1F00001B26B0001B127000EB223070E66
:1012F8000001B127000EB2230001B1512A24D96E92
:101308000001B2512B20DA6E0001D951010D0E0EE9
:10131800F326000EF422000E0001B36F020E000146
:10132800B46FF3500001B327F4500001B4233B50CD
:101338000F0DF3500001B325E16EF4500001B42104
:10134800E26EDFCFE7FF0001D92BC2D73B2AB5D326
:10135800000E0001C16F010E3D6401D0AED3000E36
:101368000001D96F070E0001D96501D017D000011F
:10137800D951010DF3502824D96EF4502920DA6E82
:101388000001D951010D3A0EF324E16E010EF4204B
:10139800E26EDFCFE7FF0001D92BE4D7F6EC37F098
:1013A8000001D56F0001D529D8A41AD03D50D8A482
:1013B80084D3B70E0101586F44C0CEF145C0CFF1B8
:1013C80072EC35F00001D56F0001D529D8A42AD0D8
:1013D800010E0001C16FFF0E496EFE0E486ED4D09B
:1013E8000001D5510E0D0C0EF326000EF4223C0E12
:1013F800F324D96E020EF420DA6E0201DFA612D0B1
:101408000001D5510E0D020EF326000EF4223C0EFB
:10141800F324D96E020EF420DA6EDECF48F0DDCF69
:1014280049F0B2D00001D529D8B4AED00001D529F1
:10143800486E47C049F044C0CEF145C0CFF1020E16
:101448004218D8A443D020EE01F02A50D9262B50B8
:10145800DA22DFAC3BD048C0BDF049C0BEF0000E78
:10146800486E010E0001CE6F070E0001CE6501D057
:1014780024D0CEC049F00CEC3BF00001C06F000155
:10148800C029D8A417D0000E486ECEC049F0CEC0EF
:10149800B1F0010E0001B26F0001B12B03D00001C1
:1014A800D890B2370001B12FFAD70001B25101012B
:1014B800571303D00001CE2BD7D7080E0001CE1941
:1014C800D8A404D0BDC048F0BEC049F0BF0E010189
:1014D800586F20EE01F02A50D9262B50DA22DFB0BF
:1014E80003D001015891488E72EC35F00001D56F98
:1014F8000001D5510E0D0C0EF326000EF4223C0E01
:10150800F324D96E020EF420DA6E0201DF88000E91
:101518000001D96F0001D9510001D8A435D00001CC
:10152800D9510001B16FB26B020E0001B127000E54
:10153800B2230001B1512A24D96E0001B2512B20E7
:10154800DA6E0001D951010D0D0EF326000EF422BA
:101558003C0E0001B36F020E0001B46FF35000019E
:10156800B327F4500001B4230001D5510E0DF350F8
:101578000001B325E16EF4500001B421E26EDFCF23
:10158800E7FF0001D92BC6D7020E01015B6F48C0E7
:101598005CF149C05DF1C1C05EF1000E0001D96F78
:1015A8000001D9510001D8A420D00001D951010D62
:1015B8003C0EF324D96E000EF420DA6E0001D951E6
:1015C8000001B16FB26B040E0001B127000EB22307
:1015D8005B0E0001B125E16E010E0001B221E26E41
:1015E800DFCFE7FF0001D92BDBD7050E406E440E95
:1015F80000019D6F000E00019E6F0001D5510E0D78
:10160800040EF326000EF4223C0EF32400019F6F13
:10161800020EF4200001A06F010E0001A16F000E60
:101628000001A26FC7EC39F048D220EE03F02A502F
:10163800D9262B50DA22DF50D8A4C3D020EE01F0EF
:101648002A50D9262B50DA22DF50466E20EE02F0BF
:101658002A50D9262B50DA22DF50476E4650D8A49C
:1016680024D0010E426E42C0B1F00001B147010121
:1016780056510001B119F90BB1190101566F47C054
:10168800B1F0070E0001B117010E0001B26F0001A1
:10169800B12B03D00001D890B2370001B12FFAD78F
:1016A8000001B229010157130ED0000E426E42C04C
:1016B800B1F00001B147010156510001B119F90B10
:1016C800B1190101566F460E0001656F000E000149
:1016D800666F440E0001676F000E0001686F81ECB1
:1016E8003CF03982BF0E0101586F000E0001D96F1E
:1016F800070E0001D96501D017D00001D951010D9D
:10170800F3502824D96EF4502920DA6E0001D951FB
:10171800010D3A0EF324E16E010EF420E26EDFCFE4
:10172800E7FF0001D92BE4D74650D8A403D0000E18
:10173800496E02D047C049F0000E486E44C0CEF151
:1017480045C0CFF172EC35F0416E000E0001D96F43
:101758000001D9510001D8A4B0D10001D95100012C
:10176800B16FB26B040E0001B127000EB223000165
:10177800B1512A24D96E0001B2512B20DA6E000132
:10178800D951010D0D0EF326000EF4223C0E000176
:10179800B36F020E0001B46FF3500001B327F45089
:1017A8000001B42341500E0DF3500001B325E16E42
:1017B800F4500001B421E26EDFCFE7FF0001D92B1E
:1017C800C7D741684468456848684968480E0001B9
:1017D800656F000E0001666F440E0001676F000E12
:1017E8000001686F81EC3CF068D12F50D8B417D055
:1017F80028C0D9FF29C0DAFFDF50486E20EE01F07B
:101808002850D9262950DA22DF50496E0CEC3BF0DB
:101818000001C96F0001C929D8B44FD122D0000EE8
:101828000001D96F070E0001D96501D017D000015A
:10183800D951010DF3502824D96EF4502920DA6EBD
:101848000001D951010D3A0EF324E16E010EF42086
:10185800E26EDFCFE7FF0001D92BE4D7F6EC37F0D3
:10186800D7D70001C9510E0D0C0EF326000EF42235
:101878003C0EF324D96E020EF420DA6E0201DFAAC0
:101888001CD141500001C919D8B410D00001C95168
:101898000E0D0C0EF326000EF4223C0EF324D96E26
:1018A800020EF420DA6E000EDF6E07D1000E000182
:1018B800D96F090E0001D96501D08CD00001D9512A
:1018C8000E0D0C0EF326000EF4223C0EF324D96EF6
:1018D800020EF420DA6E0201DFAE6AD00001D9519F
:1018E8000E0D0C0EF326000EF4223C0EF324D96ED6
:1018F800020EF420DA6E0201DFAA5AD0415000012C
:10190800D919D8B455D0000E406E4050010D5B0E69
:10191800F324D96E010EF420DA6E030EDF6E402A2E
:10192800000E326E328A3250FC0B0109326E010E03
:10193800356E010E366E0001D9510E0D3C0EF324A2
:10194800D96E020EF420DA6EDECF37F0DDCF38F034
:101958000001D9510E0D020EF326000EF4223C0EA2
:10196800F324336E020EF420346E20EE32F000EED3
:101978007EF0060EDBCFEBFFE806FCE25B0E000113
:10198800856F010E0001866F40C087F052EC24F08D
:10199800000E0001C46F000EC36F0001C3290F0EB3
:1019A8000001C459D8B004D00001C34BC42BF5D7EB
:1019B8000001D9510E0D0C0EF326000EF4223C0E38
:1019C800F324D96E020EF420DA6E000EDF6E0001E9
:1019D800D92B6FD741684668476844684568460E02
:1019E8000001656F000E0001666F440E0001676F0D
:1019F800000E0001686F81EC3CF039925ED02F50E8
:101A0800D8B410D0000E0001A46F000E0001A56F1D
:101A180028C0A6F029C0A7F0010E0001A86F70EC3D
:101A280018F04BD028C0A4F029C0A5F0000E000182
:101A3800A66F000E0001A76F000E0001A86F70ECE2
:101A480018F03BD0020E3D6401D037D039A235D012
:101A580020EE01F02A50D9262B50DA224A50DE18FF
:101A6800D8A42BD04250D8B428D0140EBBEC38F0F0
:101A7800F7EC35F022D02AC0D9FF2BC0DAFFDF50AF
:101A8800010AD8B465D4030AD8B4CFD5010AD8B4AA
:101A9800ACD6070AD8B4B3D7030AD8B4D3D70DD075
:101AA8002750030B000AD8B49AEF01F0010AD8B402
:101AB800E2D7020AD8B4FFEF07F039A43CEC40F0B3
:101AC80049EC3CF060C0C5F061C0C6F062C0C7F028
:101AD80063C0C8F0000E0001D96F010E0001D9657E
:101AE80001D062D00001D951430D0E0EF326000E2D
:101AF800F422000EF324D96E040EF420DA6E0401E9
:101B0800DFA04FD00001D951430D000EF324D96E48
:101B1800040EF420DA6EDECFB1F0DECFB2F0DECF05
:101B2800B3F0DECFB4F00001B11FB21FB31FB41F72
:101B3800B12B000EB223B323B4230001C551000119
:101B4800B1250001B56F0001C6510001B2210001A5
:101B5800B66F0001C7510001B3210001B76F000142
:101B6800C8510001B4210001B86F0001B8510AE161
:101B78000001B505120E0001B6597A0E0001B759D9
:101B8800D8A00FD00001D951430D0E0EF326000E38
:101B9800F422000EF324D96E040EF420DA6E000E3F
:101BA800DF6E0001D92B99D7000E0001D96F030E03
:101BB8000001D96501D067D00001D951080D030E85
:101BC800F326000EF422000EF324D96E010EF42041
:101BD800DA6EDF50D8B454D00001D951080D040E84
:101BE800F326000EF422000EF324D96E010EF42021
:101BF800DA6EDECFB1F0DECFB2F0DECFB3F0DECFFB
:101C0800B4F00001B11FB21FB31FB41FB12B000EF7
:101C1800B223B323B4230001C5510001B12500014B
:101C2800B56F0001C6510001B2210001B66F000175
:101C3800C7510001B3210001B76F0001C85100016D
:101C4800B4210001B86F0001B8510BE1210E000169
:101C5800B55DA10E0001B659070E0001B759D8A00D
:101C68000FD00001D951080D030EF326000EF422FF
:101C7800000EF324D96E010EF420DA6E000EDF6E2A
:101C88000001D92B94D70101AFA312000101AFA124
:101C980077D00B0E406E4050010D5B0EF324D96EC9
:101CA800010EF420DA6E000EDF6E402A4050010D5E
:101CB8005B0EF324D96E010EF420DA6E110EDF6E7E
:101CC800402A000E0001CF6F070E0001CF6501D03A
:101CD80017D00001CF51010DB30EF324D96E010EB8
:101CE800F420DA6E4050010D5B0EF324E16E010E14
:101CF800F420E26EDFCFE7FF402A0001CF2BE4D7C4
:101D08004050010D5B0EF324D96E010EF420DA6EFB
:101D1800B1C1DFFF402A4050010D5B0EF324D96E9C
:101D2800010EF420DA6EB2C1DFFF402A000E000176
:101D3800CF6F0001CF510001D8A417D00001CF51B7
:101D4800010DBB0EF324D96E010EF420DA6E40505B
:101D5800010D5B0EF324E16E010EF420E26EDFCF7D
:101D6800E7FF402A0001CF2BE4D7BC0E0001AF6F7C
:101D7800010E0001B06FC5EC3AF00101AF931200FB
:101D8800C6C1B1F0C7C1B2F0C8C1B3F0C9C1B4F09F
:101D98000001B11FB21FB31FB41FB12B000EB22335
:101DA800B323B4230001C5510001B1250001B96F67
:101DB8000001C6510001B2210001BA6F0001C751EC
:101DC8000001B3210001BB6F0001C8510001B4211B
:101DD8000001BC6F0001BC510BE1610E0001B95D4F
:101DE800E30E0001BA59160E0001BB59D8A0120023
:101DF8000101AF931200700E0001856F000E000103
:101E0800866F08EF14F0250E00018C19D8B40BD09A
:101E18006CC0D9FF6DC0DAFF8CC0DFFF00016C4BCE
:101E28006D2B08EF14F0000E00018B6F000E8A6F07
:101E3800000E00018E6F000E8D6F0ED000018D8791
:101E480008D000018D8105D000018E8702D00001E5
:101E58008D8500016E4B6F2B6EC0F6FF6FC0F7FFCC
:101E68000800F550200AD8B4ECD7030AD8B4ECD748
:101E78000E0AD8B4E3D71D0AD8B4E9D700018DA754
:101E880002D000018D956EC0F6FF6FC0F7FF080005
:101E9800F550C1EC3FF0D8A041D0000E00018B6F87
:101EA800000E8A6F8AC060F08BC061F0000E0001DE
:101EB800636F0A0E626F42EC3FF060C08AF061C047
:101EC8008BF0D00E0001766FFF0E0001776F6EC0A9
:101ED800F6FF6FC0F7FF0800F5500001786F796BC7
:101EE800000176510001782700017751000179231C
:101EF8000001785100018A270001795100018B23E4
:101F080000016E4B6F2B6EC0F6FF6FC0F7FF080025
:101F1800F550C1EC3FF0D8A01AD0C4D76EC0F6FF78
:101F28006FC0F7FF0800F5502A0AD8A410D085C062
:101F3800D9FF86C0DAFFDECF8AF0DDCF8BF0020E44
:101F480000018527000E862300016E4B6F2B6EC0A3
:101F5800F6FF6FC0F7FF0800F5502E0AD8A440D04E
:101F680000018E8D00016E4B6F2B6EC0F6FF6FC0A7
:101F7800F7FF0800F5502A0AD8A410D085C0D9FF69
:101F880086C0DAFFDF500001896F020E0001852745
:101F9800000E862300016E4B6F2BCBD0000E000184
:101FA800896F13D06EC0F6FF6FC0F7FF0800F5CF3A
:101FB80076F0000189510A0DF35000017625D00F03
:101FC8000001896F00016E4B6F2B6EC0F6FF6FC06A
:101FD800F7FF0800F550C1EC3FF0D8A0AAD0E2D72F
:101FE800000E0001896FA5D000018D8DC7D00001BA
:101FF8008D8B00018D8FC2D0000189510001D8B4AA
:1020080017D089C076F00001776B76BF770700019B
:1020180083510001765D0001845100017759D8B0E1
:1020280007D0000189510001836F846B83BF840747
:1020380000018A510001835D00018B510001845920
:10204800D8B009D00001835100018A5F0001845192
:1020580000018B5B05D0000E00018B6F000E8A6FAC
:1020680000018DA70AD025D06CC0D9FF6DC0DAFF5A
:10207800200EDF6E00016C4B6D2B00018A07D8A083
:102088008B0700018A29F0E100018B29D8B411D00F
:10209800EBD77BC0D9FF7CC0DAFF6CC0E1FF6DC015
:1020A800E2FFDFCFE7FF00017B4B7C2B00016C4B8D
:1020B8006D2B00018307D8A0840700018329E9E17B
:1020C80000018429D8A4E5D700018DB70AD09CD394
:1020D8006CC0D9FF6DC0DAFF200EDF6E00016C4BBB
:1020E8006D2B00018A07D8A08B0700018A29F0E12F
:1020F80000018B29D8B488D3EBD785C0D9FF86C017
:10210800DAFFDF5000018C6F020E00018527000EF8
:1021180086238C0E00017B6F000E00017C6F000E81
:102128000001846F010E836F67D7C00E00018D1305
:1021380025D06EC0F6FF6FC0F7FF00016E4B6F2B06
:102148000800F5CF8CF000018C51000AD8B46BD38D
:10215800580AD8B44CD73B0AD8B4CFD7070AD8B452
:102168000DD00D0AD8B40AD0060AD8B43DD71A0A39
:10217800D8B4DBD70D0AD8B43CD7CBD7C00E0001F2
:102188008D150001766F000E00018E150001776F26
:102198000001765100017711D8A419D085C0D9FF64
:1021A80086C0DAFFDECF87F0DDCF88F0020E0001AF
:1021B8008527000E8623000188AF16D0030E000184
:1021C8008D130001876D881FD8B0882B0DD085C06E
:1021D800D9FF86C0DAFFDECF87F0DDCF88F0020EA8
:1021E80000018527000E8623000189510001D8A42B
:1021F80063D00001875100018811D8A45DD0000187
:10220800892B5AD0010E00018C6F050E00018C1924
:10221800D8B461D000018C51020DA30EF324F66EE0
:10222800FE0EF420F76E0900F5500001875D0900E5
:10223800F55000018859D8A04ED000018C2BE5D765
:10224800010E00018C6F040E00018C19D8B443D024
:1022580000018C51020DAD0EF324F66EFE0EF42033
:10226800F76E0900F5500001875D0900F55000017F
:102278008859D8A030D000018C2BE5D7010E000179
:102288008C6F060E00018C19D8B425D000018C5132
:10229800020D970EF324F66EFE0EF420F76E090079
:1022A800F5500001875D0900F55000018859D8A054
:1022B80012D000018C2BE5D700018D51C00B000A0C
:1022C800D8B4A0D7400AD8B4D9D7C00AD8B4B8D798
:1022D800400AD8B497D700018C51800A0001766F64
:1022E80000018951800A0001765DD8B003D089C009
:1022F8008CF00DD000018951800A0001766F000131
:102308008C51800A0001765DD8A08CC089F000014C
:102318008A5100018B11D8B414D0030E00018D1519
:102328000001766F000E00018E150001776F000125
:10233800765100017711D8B404D000018A07D8A0DB
:102348008B0700018EAD21D0800E000189BF7F0E62
:102358000001766F00018A510001895D00018B51EF
:10236800800A00017659D8B00BD0000189510001CC
:102378008A5F000E000189BFFF0E00018B5B05D04C
:10238800000E00018B6F000E8A6FC40E0001766F7D
:10239800080E0001776F8DC078F08EC079F00001CB
:1023A8007651000178170001775100017917400E26
:1023B8000001781910E1080E00017919D8A40BD092
:1023C80000018A5100018B11D8B436D000018A0768
:1023D800D8A08B0731D0C00E0001766F080E00011F
:1023E800776F8DC078F08EC079F0000176510001CA
:1023F80078170001775100017917800E00017819CC
:102408001BE1080E00017919D8A416D000018BBF72
:102418000ED000018B5105E1030E00018A5DD8A0A2
:1024280006D00001FE0E8A27FF0E8B2305D0000E72
:1024380000018B6F000E8A6F800E00018CBF7F0E2B
:102448000001766F00018A5100018C5D00018B51FB
:10245800800A00017659D8B00BD000018C510001D8
:102468008A5F000E00018CBFFF0E00018B5B05D058
:10247800000E00018B6F000E8A6F00018DA570D0D1
:10248800030E00018D150001766F000E00018E15F8
:102498000001776F0001765100017711D8B40AD096
:1024A8006CC0D9FF6DC0DAFF2D0E0CD000016C4B4B
:1024B8006D2B42D000018DA107D06CC0D9FF6DC033
:1024C800DAFF200EDF6EF2D7C00E0001766F080E1D
:1024D8000001776F8DC078F08EC079F000017651D9
:1024E800000178170001775100017917800E00016B
:1024F800781922E1080E00017919D8A41DD06CC002
:10250800D9FF6DC0DAFF300EDF6E00016C4B6D2B0A
:1025180000018DBB05D0000E00017E6F780E04D03F
:10252800000E00017E6F580E7D6F6CC0D9FF6DC024
:10253800DAFF7DC0DFFFBAD700018A5100018B1195
:10254800D8B43CD16CC0D9FF6DC0DAFF300EDF6E55
:1025580000016C4B6D2B00018A07D8A08B07ECD7C4
:1025680000018A5100018B11D8B416D000018DB733
:1025780013D06CC0D9FF6DC0DAFF200EDF6E0001EA
:102588006C4B6D2B00018A07D8A08B0700018A517C
:1025980000018B11D8A4EDD7030E00018D150001A1
:1025A800766F000E00018E150001776F00017651DD
:1025B80000017711D8B40AD06CC0D9FF6DC0DAFF1A
:1025C8002D0E0CD000016C4B6D2B0AD000018DA193
:1025D80007D06CC0D9FF6DC0DAFF200EDF6EF2D7CE
:1025E800C00E0001766F080E0001776F8DC078F07D
:1025F8008EC079F0000176510001781700017751FB
:1026080000017917400E000178190CE1080E00014D
:102618007919D8A407D06CC0D9FF6DC0DAFF300E85
:10262800DF6EC9D0C00E0001766F080E0001776F0B
:102638008DC078F08EC079F00001765100017817CE
:102648000001775100017917800E0001781904E123
:10265800080E00017919D8A4B1D06CC0D9FF6DC09B
:10266800DAFF300EDF6E00016C4B6D2B00018DBB65
:1026780005D0000E0001806F780E04D0000E000116
:10268800806F580E7F6F6CC0D9FF6DC0DAFF7FC0B6
:10269800DFFF91D000018951020DA30EF324F66EDD
:1026A800FE0EF420F76E0900F5CF62F00A00F5CFB0
:1026B80063F087C060F088C061F0D2EC3BF060C086
:1026C80067F061C068F0000E00016A6F0A0E696F5A
:1026D8001BEC3DF00001675155D087C060F088C001
:1026E80061F000018951020DAD0EF324F66EFE0E65
:1026F800F420F76E0900F5CF62F00A00F5CF63F019
:10270800D2EC3BF0000160510F0B00017A6F000121
:102718008DBB05D0AF0E0001816FFF0E04D09E0E59
:102728000001816FFF0E0001826F00017A51010DD7
:1027380081C076F082C077F0F35000017627F4501C
:102748000001772376C0F6FF77C0F7FF0800F5CFC2
:102758008CF02BD087C060F088C061F000018951EF
:10276800020D970EF324F66EFE0EF420F76E0900A4
:10277800F5CF62F00A00F5CF63F0D2EC3BF0000130
:102788006051070B300F00018C6F0FD000018D5185
:10279800C00B000AD8B47ED7400AD8B4DBD7C00A29
:1027A800D8B49BD7400AD8B475D76CC0D9FF6DC0D0
:1027B800DAFF8CC0DFFF00016C4B6D2B000189072D
:1027C80000018929D8A4E2D700018DA71DD00001F6
:1027D8008BBF1AD000018B5104E100018A05D8A0F3
:1027E80013D06CC0D9FF6DC0DAFF200EDF6E000178
:1027F8006C4B6D2B00018A07D8A08B0700018A510A
:1028080000018B11D8A4EDD76EC0F6FF6FC0F7FF9B
:1028180000016E4B6F2B0800F5CF8CF000018C5136
:10282800D8A407EF0FF06CC0D9FF6DC0DAFF000E17
:10283800DF6E1200000E0001DB6F010E0001D96F80
:10284800000E00019F6F000E0001DA6F000E0001FC
:10285800A06F09EC3FF0E20E00018F6FFF0E000140
:10286800906F000E0001916F010E0001926FD7EC7E
:102878003DF00001D9510001D8B486D00B0E406E4E
:102888004050010D5B0EF324D96E010EF420DA6E70
:10289800440EDF6E402A4050010D5B0EF324D96EC2
:1028A800010EF420DA6E4D0EDF6E402A4050010D05
:1028B8005B0EF324D96E010EF420DA6E690EDF6E1A
:1028C800402A4050010D5B0EF324D96E010EF4200E
:1028D800DA6E570EDF6E402A4050010D5B0EF3246E
:1028E800D96E010EF420DA6E690EDF6E402A405070
:1028F800010D5B0EF324D96E010EF420DA6E200E62
:10290800DF6E402A4050010D5B0EF324D96E010E94
:10291800F420DA6E520EDF6E402A4050010D5B0E35
:10292800F324D96E010EF420DA6E6F0EDF6E402AA2
:102938004050010D5B0EF324D96E010EF420DA6EBF
:10294800630EDF6E402A4050010D5B0EF324D96EF2
:10295800010EF420DA6E6B0EDF6E402A4050010D36
:102968005B0EF324D96E010EF420DA6E730EDF6E5F
:10297800402A4050010D5B0EF324D96E010EF4205D
:10298800DA6E210EDF6E402A8E0E00016C6F010E8A
:1029980000016D6F370E00016E6FFF0E00016F6F43
:1029A800FFEC0EF071EC3AF004D03FEC34F000018B
:1029B800DB6F0001DB510001D8B4F7D70001DB055C
:1029C800D8A4E8D0000E0001DB6F8E0E00016C6FFA
:1029D800010E00016D6FF70E00016E6FFE0E000113
:1029E8006F6FFFEC0EF071EC3AF004D03FEC34F06E
:1029F8000001DB6F0001DB510001D8B4F7D70001FB
:102A0800DB05D8A461D0000E0001DB6F898C0B0EAA
:102A1800406E4050010D5B0EF324D96E010EF42078
:102A2800DA6E550EDF6E402A4050010D5B0EF3241E
:102A3800D96E010EF420DA6E46C0DFFF402A4050FE
:102A4800010D5B0EF324D96E010EF420DA6E47C037
:102A5800DFFF402A000E78EC37F0F40E0001BD6F5E
:102A6800010EBE6F000EBF6F000EC06F22D09A0E0F
:102A78000001A16F020EA26F000EA36F000EA46FDB
:102A88000001A107000EA25BA35BA45B0001A129C2
:102A9800F7E10001A229F4E10001A329F1E1000115
:102AA800A429D8A4EDD70001BD07000EBE5BBF5B0B
:102AB800C05B0001BD510001BE110001BF11000142
:102AC800C011D8A4D4D7899C020E0001DB19D8A460
:102AD80061D0000E0001DB6F898C0B0E406E4050F8
:102AE800010D5B0EF324D96E010EF420DA6E660E2A
:102AF800DF6E402A4050010D5B0EF324D96E010EA3
:102B0800F420DA6E46C0DFFF402A4050010D5B0E0C
:102B1800F324D96E010EF420DA6E47C0DFFF402A95
:102B2800000E78EC37F0F40E0001C16F010EC26F91
:102B3800000EC36F000EC46F22D09A0E0001A56F5D
:102B4800020EA66F000EA76F000EA86F0001A50762
:102B5800000EA65BA75BA85B0001A529F7E10001B1
:102B6800A629F4E10001A729F1E10001A829D8A4C8
:102B7800EDD70001C107000EC25BC35BC45B000157
:102B8800C1510001C2110001C3110001C411D8A430
:102B9800D4D7899C020E0001DB19D8A46AD6000E8E
:102BA8000001DB6F8E0E00016C6F010E00016D6F6E
:102BB800560E00016E6FFF0E00016F6FFFEC0EF0F6
:102BC80071EC3AF004D03FEC34F00001DB6F000107
:102BD800DB510001D8B4F7D70001DB05D8A461D0D8
:102BE800000E0001DB6F898C0B0E406E4050010D0A
:102BF8005B0EF324D96E010EF420DA6E010EDF6E3F
:102C0800402A4050010D5B0EF324D96E010EF420CA
:102C1800DA6E46C0DFFF402A4050010D5B0EF324F8
:102C2800D96E010EF420DA6E47C0DFFF402A000E8D
:102C380078EC37F0F40E0001C56F010EC66F000E78
:102C4800C76F000EC86F22D09A0E0001A96F020E3E
:102C5800AA6F000EAB6F000EAC6F0001A907000E43
:102C6800AA5BAB5BAC5B0001A929F7E10001AA29CB
:102C7800F4E10001AB29F1E10001AC29D8A4EDD7BA
:102C88000001C507000EC65BC75BC85B0001C551E4
:102C98000001C6110001C7110001C811D8A4D4D77A
:102CA800899C020E0001DB19D8A4E3D5000E0001AF
:102CB800DB6F8E0E00016C6F010E00016D6FD60E7A
:102CC80000016E6FFE0E00016F6FFFEC0EF071ECED
:102CD8003AF004D03FEC34F00001DB6F0001DB5127
:102CE8000001D8B4F7D70001DB05D8A4CCD0000187
:102CF800DA05D8A464D0000E0001DA6F000E0001D6
:102D0800DB6F898C0B0E406E4050010D5B0EF32477
:102D1800D96E010EF420DA6E330EDF6E402A405071
:102D2800010D5B0EF324D96E010EF420DA6E46C055
:102D3800DFFF402A4050010D5B0EF324D96E010ECF
:102D4800F420DA6E47C0DFFF402A000E78EC37F037
:102D5800F40E0001C96F010ECA6F000ECB6F000E92
:102D6800CC6F22D09A0E0001AD6F020EAE6F000E2E
:102D7800AF6F000EB06F0001AD07000EAE5BAF5B2A
:102D8800B05B0001AD29F7E10001AE29F4E10001D3
:102D9800AF29F1E10001B029D8A4EDD70001C90796
:102DA800000ECA5BCB5BCC5B0001C9510001CA11A4
:102DB8000001CB110001CC11D8A4D4D763D0010EE7
:102DC8000001DA6F000E0001DB6F898C0B0E406E7C
:102DD8004050010D5B0EF324D96E010EF420DA6E1B
:102DE800220EDF6E402A4050010D5B0EF324D96E8F
:102DF800010EF420DA6E46C0DFFF402A4050010D74
:102E08005B0EF324D96E010EF420DA6E47C0DFFFA3
:102E1800402A000E78EC37F0F40E0001CD6F010E59
:102E2800CE6F000ECF6F000ED06F22D09A0E000129
:102E3800B16F020EB26F000EB36F000EB46F0001D7
:102E4800B107000EB25BB35BB45B0001B129F7E1D7
:102E58000001B229F4E10001B329F1E10001B4292C
:102E6800D8A4EDD70001CD07000ECE5BCF5BD05BB9
:102E78000001CD510001CE110001CF110001D01188
:102E8800D8A4D4D7899C020E0001DB19D8A4F1D4A8
:102E9800000E0001DB6F8E0E00016C6F010E000149
:102EA8006D6F180E00016E6FFF0E00016F6FFFEC63
:102EB8000EF071EC3AF004D03FEC34F00001DB6F17
:102EC8000001DB510001D8B4F7D70001DB05D8A415
:102ED800E8D0000E0001DB6F8E0E00016C6F010E52
:102EE80000016D6FF70E00016E6FFE0E00016F6F2F
:102EF800FFEC0EF071EC3AF004D03FEC34F0000136
:102F0800DB6F0001DB510001D8B4F7D70001DB0506
:102F1800D8A461D0000E0001DB6F898C0B0E406EC7
:102F28004050010D5B0EF324D96E010EF420DA6EC9
:102F3800770EDF6E402A4050010D5B0EF324D96EE8
:102F4800010EF420DA6E46C0DFFF402A4050010D22
:102F58005B0EF324D96E010EF420DA6E47C0DFFF52
:102F6800402A000E78EC37F0F40E0001D16F010E04
:102F7800D26F000ED36F000ED46F22D09A0E0001CC
:102F8800B56F020EB66F000EB76F000EB86F000176
:102F9800B507000EB65BB75BB85B0001B529F7E172
:102FA8000001B629F4E10001B729F1E10001B829CF
:102FB800D8A4EDD70001D107000ED25BD35BD45B58
:102FC8000001D1510001D2110001D3110001D41127
:102FD800D8A4D4D7899C020E0001DB19D8A461D0EB
:102FE800000E0001DB6F898C0B0E406E4050010D06
:102FF8005B0EF324D96E010EF420DA6E880EDF6EB4
:10300800402A4050010D5B0EF324D96E010EF420C6
:10301800DA6E46C0DFFF402A4050010D5B0EF324F4
:10302800D96E010EF420DA6E47C0DFFF402A000E89
:1030380078EC37F0F40E0001D56F010ED66F000E54
:10304800D76F000ED86F22D09A0E0001B96F020E0A
:10305800BA6F000EBB6F000EBC6F0001B907000EFF
:10306800BA5BBB5BBC5B0001B929F7E10001BA2977
:10307800F4E10001BB29F1E10001BC29D8A4EDD796
:103088000001D507000ED65BD75BD85B0001D55190
:103098000001D6110001D7110001D811D8A4D4D746
:1030A800899C020E0001DB19D8A43DEF14F0000E34
:1030B8000001DB6F8E0E00016C6F010E00016D6F59
:1030C800370E00016E6FFF0E00016F6FFFEC0EF000
:1030D80071EC3AF03DEF14F0000E0001AB6F000EFA
:1030E800406E0001A8510001D8B418D0A6C0D9FF7D
:1030F800A7C0DAFFDF50486E000120EE01F0A651AC
:10310800D926A751DA22DF50496E0CEC3BF00001BA
:10311800AD6F0001AD29D8B45ED324D0000E0001F4
:10312800AE6F070E0001AE6501D019D00001AE5197
:10313800010DF3500001A425D96EF4500001A5211A
:10314800DA6E0001AE51010D3A0EF324E16E010E64
:10315800F420E26EDFCFE7FF0001AE2BE2D7F6ECFA
:1031680037F0D5D7000E0001AE6F010E0001AE6535
:1031780001D052D20001AE51430D0E0EF326000EBF
:10318800F422000EF324D96E040EF420DA6E040142
:10319800DFA03FD20001AE51430D0E0EF326000E04
:1031A800F422000EF324D96E040EF420DA6E040122
:1031B800DFB21CD10001AE51430D0E0EF326000EF6
:1031C800F422000EF324D96E040EF420DA6E040102
:1031D800DFA80CD10001AE51430D060EF326000EF8
:1031E800F422000EF324D96E040EF420DA6E0001E6
:1031F800AD510E0D020EF326000EF4223C0EF32400
:10320800E16E020EF420E26EDE50E618D8A4EED08D
:103218000001AE51430D070EF326000EF422000EF6
:10322800F324D96E040EF420DA6E0001AD510E0DB0
:10323800030EF326000EF4223C0EF324E16E020E78
:10324800F420E26EDE50E618D8A4D0D0000E0001BB
:10325800AC6F2BD00001AC51010D100EF326000EFF
:10326800F422000E0001A96F040E0001AA6FF350AA
:103278000001A927F4500001AA230001AE51430D13
:10328800F3500001A925D96EF4500001AA21DA6E85
:103298004050010D5B0EF324E16E010EF420E26E46
:1032A800DFCFE7FF402A0001AC2B0001AE51430DF0
:1032B8000F0EF326000EF422000EF324D96E040E2E
:1032C800F420DA6EDE500001AC5DD8A0C3D700014F
:1032D800AE51430D0E0EF326000EF422000EF32419
:1032E800D96E040EF420DA6E0401DFA41ED0440E59
:1032F80000019D6F000E00019E6F0001AD510E0D83
:10330800020EF326000EF4223C0EF32400019F6FF8
:10331800020EF4200001A06F010E0001A16F0C0E37
:103328000001A26FC7EC39F051D0000E326E325056
:103338000001AB19FC0BAB19326E328A0001AE5199
:10334800430D0E0EF326000EF422000EF324D96E60
:10335800040EF420DA6E0401DFA602D0328601D012
:1033680032960001AD510E0D020EF326000EF42226
:103378003C0EF324336E020EF420346E010E356ECB
:10338800010E366E0001AE51430D040EF326000EF9
:10339800F422000EF324D96E040EF420DA6EDECF88
:1033A80037F0DDCF38F020EE32F000EE7EF0060E7A
:1033B800DBCFEBFFE806FCE25B0E0001856F010E38
:1033C8000001866F40C087F052EC24F00001AE5136
:1033D800430D0E0EF326000EF422000EF324D96ED0
:1033E800040EF420DA6E0401DF9012000001AE51E1
:1033F800430D0E0EF326000EF422000EF324D96EB0
:10340800040EF420DA6E0401DFB203D10001AE51DC
:10341800430D0E0EF326000EF422000EF324D96E8F
:10342800040EF420DA6E0401DFB8F3D00001AD51C8
:103438000E0D040EF326000EF4223C0EF3240001B8
:10344800606F020EF4200001616F0001AE51430D60
:10345800060EF326000EF422000EF3240001626F1C
:10346800040EF4200001636F2CEC3EF00009D8B480
:10347800D0D0000E0001AC6F2BD00001AC51010D73
:10348800100EF326000EF422000E0001A96F040EA0
:103498000001AA6FF3500001A927F4500001AA23E4
:1034A8000001AE51430DF3500001A925D96EF45027
:1034B8000001AA21DA6E4050010D5B0EF324E16E83
:1034C800010EF420E26EDFCFE7FF402A0001AC2BAB
:1034D8000001AE51430D0F0EF326000EF422000E2C
:1034E800F324D96E040EF420DA6EDE500001AC5DD0
:1034F800D8A0C3D70001AE51430D0E0EF326000E1F
:10350800F422000EF324D96E040EF420DA6E0401BE
:10351800DFA41ED0440E00019D6F000E00019E6FB7
:103528000001AD510E0D040EF326000EF4223C0EE0
:10353800F32400019F6F020EF4200001A06F010E1A
:103548000001A16F000E0001A26FC7EC39F051D045
:10355800000E326E32500001AB19FC0BAB19326E03
:10356800328A0001AE51430D0E0EF326000EF422EE
:10357800000EF324D96E040EF420DA6E0401DFA6DF
:1035880002D0328601D032960001AD510E0D040EE4
:10359800F326000EF4223C0EF324336E020EF420C0
:1035A800346E000E356E010E366E0001AE51430DBD
:1035B800040EF326000EF422000EF324D96E040E36
:1035C800F420DA6EDECF37F0DDCF38F020EE32F0BF
:1035D80000EE7EF0060EDBCFEBFFE806FCE25B0EAA
:1035E8000001856F010E0001866F40C087F052EC24
:1035F80024F00001AE51430D0E0EF326000EF42206
:10360800000EF324D96E040EF420DA6E0401DF9064
:1036180012000001AE2BA9D5000E0001AE6F010EFD
:103628000001AE6501D0D7D00001AE51430D0E0E9A
:10363800F326000EF422000EF324D96E040EF420B3
:10364800DA6E0401DFA0C4D00001AE51430D0E0EA6
:10365800F326000EF422000EF324D96E040EF42093
:10366800DA6E0401DFA2B4D0000E0001AC6F2BD0DB
:103678000001AC51010D100EF326000EF422000ECD
:103688000001A96F040E0001AA6FF3500001A927D9
:10369800F4500001AA230001AE51430DF35000017C
:1036A800A925D96EF4500001AA21DA6E4050010D07
:1036B8005B0EF324E16E010EF420E26EDFCFE7FF2C
:1036C800402A0001AC2B0001AE51430D0F0EF3262A
:1036D800000EF422000EF324D96E040EF420DA6EE4
:1036E800DE500001AC5DD8A0C3D7000E326E325058
:1036F8000001AB19FC0BAB19326E0001AE51430D42
:103708000E0EF326000EF422000EF324D96E040EDA
:10371800F420DA6E0401DFA404D03250FC0B010956
:10372800326E328A328E0001AE51430D0E0EF326F0
:10373800000EF422000EF324D96E040EF420DA6E83
:103748000401DFA602D0328601D03296010E366E11
:103758000001A8510001D8B407D0010E356E000150
:10376800AD510E0D020E06D0000E356E0001AD51A2
:103778000E0D040EF326000EF4223C0EF324336ED5
:10378800020EF420346E0001AE51430D040EF326F0
:10379800000EF422000EF324D96E040EF420DA6E23
:1037A800DECF37F0DDCF38F020EE32F000EE7EF0DD
:1037B800060EDBCFEBFFE806FCE25B0E0001856F2F
:1037C800010E0001866F40C087F052EC24F0120011
:1037D8000001AE2B24D70001A8510001D8B412D0A3
:1037E800440E00019D6F000E00019E6FA6C09FF061
:1037F800A7C0A0F0ABC0A1F00C0E0001A26FC7ECEF
:1038080039F01200440E00019D6F000E00019E6FFA
:10381800A4C09FF0A5C0A0F0ABC0A1F0040E0001A9
:10382800A26FC7EC39F0120081A0F2823EA012D03C
:103838000101505105E1800E01014F5DD8A007D06C
:10384800000E0101506F000E4F6F3E9003D0010132
:103858004F4B502B4B68000E0001676F010E0001A3
:10386800676501D012D000016751500D000EF32496
:10387800D96E030EF420DA6EDF50D8B403D067C0D7
:103888004BF003D00001672BE9D7020E4B6033D30E
:10389800010E0001686F4B50500D010EF326000E0B
:1038A800F422000EF324D96E030EF420DA6E03011D
:1038B800DFBC03D0000E0001686F000E276E000EFB
:1038C8002F6E4B50500D020EF326000EF422000E00
:1038D800F324D96E030EF420DA6EDF50CC0B00010E
:1038E800666F55D24B50500D060EF326000EF4228B
:1038F800000EF324D96E030EF420DA6EDE28D8A465
:103908000FD04B50500D070EF326000EF422000E78
:10391800F324D96E030EF420DA6EDE28D8B4278497
:10392800278E000168510001D8B429D04B50500DA2
:10393800040EF326000EF422000EF324D96E030EB3
:10394800F420DA6EDF50306E4B50500D050EF32622
:10395800000EF422000EF324D96E030EF420DA6E62
:10396800DF50316E4B50500D080EF326000EF42236
:10397800000EF324286E030EF420296E96D14B50C6
:10398800500D080EF326000EF422000EF324D96E13
:10399800030EF420DA6EDF50306E4B50500D090ED6
:1039A800F326000EF422000EF324D96E030EF42041
:1039B800DA6EDF50316E4B50500D0A0EA4D14B50C9
:1039C800500D000EF324D96E030EF420DA6EDF508A
:1039D800EB0F2C6E4B50500D120ECBD1278E0001E1
:1039E80068510001D8B437D04B50500D040EF3265F
:1039F800000EF422000EF324D96E030EF420DA6EC2
:103A0800DF50306E4B50500D050EF326000EF42299
:103A1800000EF324D96E030EF420DA6EDF50316EF7
:103A28004B50500D0E0EF326000EF422000EF32418
:103A3800286E030EF420296E4B50500D000EF3240F
:103A4800D96E030EF420DA6EDF50E70F2C6E4B5060
:103A5800500D160E8ED14B50500D0E0EF326000E43
:103A6800F422000EF324D96E030EF420DA6EDF5030
:103A7800306E4B50500D0F0EF326000EF422000E40
:103A8800F324D96E030EF420DA6EDF50316E4B50FA
:103A9800500D100EF326000EF422000EF324286EAB
:103AA800030EF420296E4B50500D000EF324D96EEE
:103AB800030EF420DA6EDF50E50F2C6E4B50500DDC
:103AC800180E57D12784278E010E2F6E4B50500D9C
:103AD800040EF326000EF422000EF324D96E030E12
:103AE800F420DA6EDF50306E4B50500D050EF32681
:103AF800000EF422000EF324D96E030EF420DA6EC1
:103B0800DF50316E4B50500D060EF326000EF42296
:103B1800000EF324286E030EF420296E4B50500D2E
:103B2800000EF324D96E030EF420DA6EDF50F50F81
:103B38001CD14B50500D060EF326000EF422000E39
:103B4800F324D96E030EF420DA6EDE28D8A40FD041
:103B58004B50500D070EF326000EF422000EF324EE
:103B6800D96E030EF420DA6EDE28D8B42784278EA7
:103B7800010E2F6E000168510001D8A437D04B50B8
:103B8800500D080EF326000EF422000EF324D96E11
:103B9800030EF420DA6EDF50306E4B50500D090ED4
:103BA800F326000EF422000EF324D96E030EF4203F
:103BB800DA6EDF50316E4B50500D0A0EF326000EB0
:103BC800F422000EF324286E030EF420296E4B50C5
:103BD800500D000EF324D96E030EF420DA6EDF5078
:103BE800F10F2C6E4B50500D0C0EC3D04B50500D96
:103BF800040EF326000EF422000EF324D96E030EF1
:103C0800F420DA6EDF50306E4B50500D050EF3265F
:103C1800000EF422000EF324D96E030EF420DA6E9F
:103C2800DF50316E4B50500D080EF326000EF42273
:103C3800000EF324286E030EF420296E4B50500D0D
:103C4800000EF324D96E030EF420DA6EDF50F30F62
:103C58002C6E4B50500D0A0E8CD0278E010E2F6EF5
:103C6800000168510001D8B42FD04B50500D040EFC
:103C7800F326000EF422000EF324D96E030EF4206E
:103C8800DA6EDF50306E4B50500D050EF326000EE5
:103C9800F422000EF324D96E030EF420DA6EDF50FE
:103CA800316E4B50500D0D0E60D64B50500D000E1E
:103CB800F324D96E030EF420DA6EDF50ED0F2C6E6C
:103CC8004B50500D100E55D04B50500D0D0EF32685
:103CD800000EF422000EF324D96E030EF420DA6EDF
:103CE800DF50306E4B50500D0E0EF326000EF422AE
:103CF800000EF324D96E030EF420DA6EDF50316E15
:103D08004B50500D0F0EF326000EF422000EF32434
:103D1800286E030EF420296E52D64B50500D060E15
:103D2800F326000EF422000EF324D96E030EF420BD
:103D3800DA6EDE28D8A40FD04B50500D070EF326AC
:103D4800000EF422000EF324D96E030EF420DA6E6E
:103D5800DE28D8B427844B50500D000EF324D96EBA
:103D6800030EF420DA6EDF50F60F2C6E4B50500D18
:103D7800080EF326000EF422000EF3242A6E030E1A
:103D8800F4202B6E19D03CEC40F0000E120000011C
:103D98006651080AD8B4C1D7880AD8B493D6080A95
:103DA800D8B4C7D6040AD8B458D7440AD8B49AD5D0
:103DB800040AD8B413D6E7D74B50500D010EF3269A
:103DC800000EF422000EF324D96E030EF420DA6EEE
:103DD8000301DFA613D03CEC40F0000E1200FC0EED
:103DE80027162ED02750FC0B0109276E29D0030E69
:103DF800271226D03CEC40F0000E12004B50500D1C
:103E0800010EF326000EF422000EF324D96E030EE1
:103E1800F420DA6EDF50070B0001606F616B000160
:103E28006151000AD8A4E6D700016051000AD8B44D
:103E3800DED7010AD8B4D3D7020AD8B4D3D7DAD791
:103E4800FF0E0001606FFF0E0001616F4B50500DB7
:103E5800000EF324D96E030EF420DA6EDF50000151
:103E6800626F636B000160510001622700016151BC
:103E780000016323000E0001646F030E0001656FEB
:103E880000016251000164270001635100016523AC
:103E98004B50500DF35000016425D96EF4500001C9
:103EA8006521DA6EDF502E6E4B50500D000EF32454
:103EB800D96E030EF420DA6EDF500001606F4B50AC
:103EC800500D000E0001616F030E0001626FF35088
:103ED80000016127F45000016223000160510001D4
:103EE8006125D96E0001000E00016221DA6EDF50F3
:103EF8002D6E010E1200000E1200010E0101EE6F70
:103F080070EC39F0898E898C8B84EBEC34F0000EE0
:103F18007FEC33F00101FB51FFEC3FF00009D8B40E
:103F28001200000EABEC3FF00001FD510001FE1144
:103F3800D8B454D046D2000E7FEC33F0000E000106
:103F4800936F000E0001946F000E956F000E966F30
:103F5800000E976F000EFAEC36F009EC3FF08E0E6B
:103F680000016C6F010E00016D6F750E00016E6F20
:103F7800FF0E00016F6F45C070F00001716B44C007
:103F880072F00001736BFBC174F00001756BFFECFC
:103F98000EF09E0E00016C6F010E00016D6F8C0E0D
:103FA80000016E6FFF0E00016F6F47C070F00001D7
:103FB800716B46C072F00001736BFFEC0EF071EC90
:103FC8003AF006D091EC40F00009D8A4B7EC40F0E4
:103FD800020148AFF7D7000E0101EE6F0101EE05AF
:103FE800D8A41200A8D7000E7FEC33F0FBC1E3F190
:103FF800F00E0101E327000E0101E46F000EE56FEA
:10400800010EE66F000EE76F0101E32B06D0D89092
:104018000101E437E537E637E7370101E32FF7D742
:10402800E4C1DAF0E5C1DBF0E6C1DCF0E7C1DDF0C0
:104038000A0E62EC31F00101F16F0101F151010149
:10404800D8B4B1D1000E0101F06FA3D1000E010167
:10405800ED6F0101F0510101D8B479D0000E0101D2
:10406800ED6F000E0101EF6F42D00101EF510F0D0E
:104078000A0EF326000EF422000EF324D96E020E67
:10408800F420DA6E0101F0510F0D0A0EF326000E2E
:10409800F422000EF324E16E020EF420E26EDE50EC
:1040A800E618D8A422D00101EF510F0D090EF3260E
:1040B800000EF422000EF324D96E020EF420DA6EFC
:1040C8000101F0510F0D090EF326000EF422000E27
:1040D800F324E16E020EF420E26EDE50E618D8A456
:1040E80004D0010E0101ED6F08D00101EF2B010191
:1040F800F0510101EF5DD8A0B8D70101ED05D8A4B2
:1041080026D00101F0510101E36FE46BFF0E0101BC
:10411800E56FFF0E0101E66F0101F1510101E76F43
:10412800E86B0101E5510101E7270101E6510101B1
:10413800E8230101E3510101E71905E10101E45117
:104148000101E819D8A423D10101F06920D1000E9A
:104158000101EC6F0B0E406E000E0101EF6F40D0B5
:104168000101EF510F0D0A0EF326000EF422000E86
:10417800F324D96E020EF420DA6E0101F0510F0D0E
:104188000A0EF326000EF422000EF324E16E020E4E
:10419800F420E26EDE50E618D8A420D00101EF51D9
:1041A8000F0D0A0EF326000EF422000EF324D96E2A
:1041B800020EF420DA6E0101F0510F0D0A0EF326FB
:1041C800000EF422000EF324E16E020EF420E26EDB
:1041D800DE50E618D8A402D00101EC2B0101EF2B28
:1041E8000101F1510101EF5DD8A0BAD7010E01011B
:1041F800EC6592D0000E0101E96F000E0101EA6F33
:104208000B0E406E4050010D5B0EF324D96E010E6B
:10421800F420DA6E040EDF6E402A0101F0510F0D12
:104228000A0EF326000EF422000EF324D96E020EB5
:10423800F420DA6E4050010D5B0EF324E16E010E9E
:10424800F420E26EDFCFE7FF402A0101F0510F0DA5
:10425800090EF326000EF422000EF324D96E020E86
:10426800F420DA6E4050010D5B0EF324E16E010E6E
:10427800F420E26EDFCFE7FF402A000E78EC37F03B
:10428800000E0101EF6F42D00101EF510F0D0A0E30
:10429800F326000EF422000EF324D96E020EF42049
:1042A800DA6E0101F0510F0D0A0EF326000EF4220A
:1042B800000EF324E16E020EF420E26EDE50E618E2
:1042C800D8A422D00101EF510F0D090EF326000EDC
:1042D800F422000EF324D96E020EF420DA6E0101E6
:1042E800F0510F0D090EF326000EF422000EF324F0
:1042F800E16E020EF420E26EDE50E618D8A404D077
:104308000101EA2BEFC1E9F10101EF2B0101F151A4
:104318000101EF5DD8A0B8D7000E0001FC6F0101C4
:10432800F051B3EC26F00101EB6F0101EB29D8B491
:10433800F1D5000E0101EE6F0B0E406E4050010DDD
:104348005B0EF324D96E010EF420DA6E050EDF6ED3
:10435800402A4050010D5B0EF324D96E010EF42063
:10436800DA6E45C0DFFF402A4050010D5B0EF32492
:10437800D96E010EF420DA6E44C0DFFF402A000E29
:1043880078EC37F00101EE510101D8B408D00101F1
:10439800F02B0101F1510101F05DD8A057D6000EB4
:1043A8000101EE6F0ED0B50E00018F6FFE0E0001F9
:1043B800906F000E0001916F000E0001926FD7EC14
:1043C8003DF00101EE05D8A412000DD60001A85158
:1043D800070B0001AD6F0001AD514718D8A444D0B8
:1043E800800E0001A76513D0A5C06AF0A6C06BF0C7
:1043F800A70E00016C6F000E00016D6F010E000129
:104408006E6FA9C06FF0000E0BEC30F01200000EBA
:10441800326E328A0001A9B102D0329601D03286BA
:10442800A7C048F0A8C049F0010E356E010E366EDF
:10443800480E336E000E346E44C037F045C038F075
:1044480020EE32F000EE7EF0060EDBCFEBFFE80642
:10445800FCE25B0E0001856F010E0001866F40C013
:1044680087F052EC24F01200ADC0AAF0010E000152
:10447800AB6F0001AA2B03D00001D890AB37000125
:10448800AA2FFAD70001AB51010157150009D8B47A
:1044980080D00001AD51010D2A0EF324D96E010E12
:1044A800F420DA6E020EDF642DD00001AD51010D4B
:1044B8002A0EF324D96E010EF420DA6E000EDF6E98
:1044C800ADC0AAF0010E0001AB6F0001AA2B03D00A
:1044D8000001D890AB370001AA2FFAD70001AB51E1
:1044E800FF0A010157170001AD51010D320EF324E7
:1044F800D96E010EF420DA6E000EDF6EF7EC35F09F
:10450800000E1200000E326E328A0001A9B102D0EC
:10451800329601D03286000E486EADC049F0010EC9
:10452800356E010E366E480E336E000E346E44C082
:1045380037F045C038F020EE32F000EE7EF0060E7F
:10454800DBCFEBFFE806FCE25B0E0001856F010E96
:104558000001866F40C087F052EC24F00009D8A40F
:104568000BD00001AD51010D2A0EF324D96E010EB6
:10457800F420DA6EDF2AC4D70001AD51010D2A0EEE
:10458800F324D96E010EF420DA6E000EDF6E010EF0
:104598001200000E0001AE6F070E0001AE6501D0DB
:1045A800D8D00001AE51010D320EF324D96E010EA0
:1045B800F420DA6EDF500001AA6FADC0ABF0010E37
:1045C8000001AC6F0001AB2B03D00001D890AC37D1
:1045D8000001AB2FFAD70001AC510001AA15000960
:1045E800D8B4B4D00001AE51010D2A0EF324D96E0F
:1045F800010EF420DA6E020EDF6460D00001AE51C5
:10460800010D2A0EF324D96E010EF420DA6E000E85
:10461800DF6EAEC0AAF0010E0001AB6F0001AA2B3D
:1046280003D00001D890AB370001AA2FFAD70001B8
:10463800AB51FF0A010157170001AE51010D320EAF
:10464800F324D96E010EF420DA6E000EDF6E4250AC
:10465800D8B403D0F7EC35F02FD0000E406E4050A0
:10466800010D5B0EF324D96E010EF420DA6E070EED
:10467800DF6E402A4050010D5B0EF324D96E010E07
:10468800F420DA6E4AC0DFFF402A0101CE69CF6903
:10469800CE0E00019D6F010E00019E6F000E0001FD
:1046A8009F6F000E0001A06F010E0001A16F000EA8
:1046B8000001A26FC7EC39F0000E1200000E326E36
:1046C800328A0001A9B102D0329601D03286000E9A
:1046D800486EAEC049F0010E356E010E366E480EBA
:1046E800336E000E346E44C037F045C038F020EE0B
:1046F80032F000EE7EF0060EDBCFEBFFE806FCE2C0
:104708005B0E0001856F010E0001866F40C087F0C7
:1047180052EC24F00009D8A40CD00001AE51010DD0
:104728002A0EF324D96E010EF420DA6EDF2A000E69
:1047380012000001AE51010D2A0EF324D96E010EAC
:10474800F420DA6E000EDF6E010E12000001AE2BAF
:1047580023D7020E4218D8B469D0000E326E328ABE
:104768000001A9B102D0329601D032864204D8B4F1
:104778002ED0000E0001AE6F070E0001AE6501D00D
:104788001FD001015751D8B418D0AEC0AAF0010EFD
:104798000001AB6F000E0001AC6F0001AA2B04D022
:1047A800D8900001AB37AC370001AA2FF9D7000128
:1047B800AB510001AC11D8A403D00001AE2BDCD75B
:1047C800080E0001AE6103D0AEC049F002D0000E61
:1047D800496E000E486E010E356E010E366E480E9B
:1047E800336E000E346E44C037F045C038F020EE0A
:1047F80032F000EE7EF0060EDBCFEBFFE806FCE2BF
:104808005B0E0001856F010E0001866F40C087F0C6
:1048180052EC24F00009D8A404D001012A2B000E80
:104828001200000E01012A6F010E1200000E326EF6
:10483800328A0001A9B102D0329601D03286ADC0C9
:1048480049F0000E486E010E356E010E366E480EA8
:10485800336E000E346E44C037F045C038F020EE99
:1048680032F000EE7EF0060EDBCFEBFFE806FCE24E
:104878005B0E0001856F010E0001866F40C087F056
:1048880052EC24F00009D8A404D001012A2B000E10
:104898001200000E01012A6F010E1200000E000125
:1048A8009C6F000E00019B6F00017EA503D0010ED6
:1048B8000001816F00017EA703D0000E0001826F06
:1048C80000017E51030BE806D8A402D0030E07D0DE
:1048D80000017E51030B0009D8A403D0010E00018A
:1048E800996F0101CA510001831914E10101CB51EB
:1048F80000018419D8A40ED00101CA2904E10101DC
:10490800CB29D8B407D0050E00019A6F0001998D04
:10491800010E04D0070E00019A6F000E0001986F77
:1049280000018151D8B402D0020E01D0080E000156
:104938009A2700018251D8B402D0020E01D0080E85
:1049480000019A2700017EAB05D000017EB502D098
:104958000001998B00017E51030B030AD8A40ED0E5
:10496800000E0001996F070E00019A6F000E0001FA
:10497800986F010E0001826F00017E9B9CC062F05F
:104988000001636B9AC064F04CEC3DF000019C2B75
:104998009CC062F00001636B00019A5100018725F9
:1049A8000001646F4CEC3DF000019C2B9CC062F050
:1049B8000001636B99C064F04CEC3DF000019C2B46
:1049C80000017E51030B030AD8A416D09CC062F0E4
:1049D8000001636B800E0001646F4CEC3DF0000138
:1049E8009C2B9CC062F00001636B53C164F04CECDB
:1049F8003DF00101532B9CD000018151D8B40ED059
:104A080000018251D8B40AD09CC062F00001636BE7
:104A1800880E0001646F4CEC3DF02DD000018151EF
:104A2800D8B40ED000018251D8A40AD09CC062F03C
:104A38000001636BC80E0001646F4CEC3DF01BD0A5
:104A480000018151D8A40ED000018205D8A40AD053
:104A58009CC062F00001636B8C0E0001646F4CEC2B
:104A68003DF009D09CC062F00001636BCC0E0001E0
:104A7800646F4CEC3DF000019C2B9CC062F000017F
:104A8800636B53C164F04CEC3DF00101532B000102
:104A98009C2B9CC062F00001636B83C064F04CECFB
:104AA8003DF000019C2B9CC062F00001636B84C048
:104AB80064F04CEC3DF000019C2B00017EA515D064
:104AC8009CC062F00001636BFF0E0001646F4CEC48
:104AD8003DF000019C2B9CC062F00001636BFF0E4F
:104AE8000001646F4CEC3DF023D000018151D8B433
:104AF80022D09CC062F00001636B7FC0D9FF80C0E8
:104B0800DAFFDF500001646F4CEC3DF000019C2B94
:104B18009CC062F00001636B000120EE01F07F5140
:104B2800D9268051DA22DF500001646F4CEC3DF049
:104B380000019C2B21D0000E00019B6F070E000185
:104B48009B6501D019D09CC062F00001636B000125
:104B58009B51010DF35000017F25D96EF4500001DF
:104B68008021DA6EDF500001646F4CEC3DF00001EB
:104B78009C2B00019B2BE2D7000198510001D8A47F
:104B880014D09CC062F00001636BCAC164F04CECA5
:104B98003DF000019C2B9CC062F00001636BCBC10F
:104BA80064F04CEC3DF000019C2B00018251D8B41C
:104BB80015D09CC062F00001636BCCC164F04CEC72
:104BC8003DF000019C2B9CC062F00001636BCDC1DD
:104BD80064F04CEC3DF000019C2B21D0000E00014C
:104BE8009B6F070E00019B6501D019D09CC062F035
:104BF8000001636B00019B51010DF35001014B252E
:104C0800D96EF45001014C21DA6EDF500001646F57
:104C18004CEC3DF000019C2B00019B2BE2D7000ED1
:104C280000019B6F18D09CC062F00001636B00010B
:104C38009B51010DF35000018525D96EF4500001F8
:104C48008621DA6EDF500001646F4CEC3DF0000104
:104C58009C2B00019B2B0001875100019B5DD8A074
:104C6800E2D73E8000017EAB08D000017EB505D0BA
:104C7800050E00019B6F3E8204D0010E00019B6F60
:104C88003E929BC062F0370E92EC3FF049EC3CF04C
:104C980060C090F061C091F062C092F063C093F080
:104CA80081A0F2823EB005D03EA457D03E94000EBB
:104CB800120049EC3CF060C094F061C095F062C00D
:104CC80096F063C097F090C088F091C089F092C0C8
:104CD8008AF093C08BF00001881F891F8A1F8B1FE1
:104CE800882B000E89238A238B230001945100010D
:104CF800882500018C6F0001955100018921000170
:104D08008D6F0001965100018A2100018E6F00010C
:104D1800975100018B2100018F6F00018F51000115
:104D28008E1108E1210E00018C5D4E0E00018D5997
:104D3800D8A0B6D7ABEC2EF0CC0E0001656F010EF3
:104D48000001666FCA0E0001676F010E0001686FEF
:104D580081EC3CF03E90000E1200010E12000101A1
:104D6800E26F030E0101E06F0001FC05D8A414D026
:104D780026EC2BF006D091EC40F00009D8A4B7EC53
:104D880040F00101AFB3F7D70101AFA103D0010192
:104D9800B0511200FF0E12000001FC510001D8A40E
:104DA8002ED20101E229D8B406D02AD00101E02F81
:104DB80002D0FF0E12004AC0D0F1010E0101D16FDE
:104DC800D26BD36BD46B0101D02B06D0D8900101E4
:104DD800D137D237D337D4370101D02FF7D7D1C144
:104DE800DAF0D2C1DBF0D3C1DCF0D4C1DDF00A0EB9
:104DF80062EC31F00009D8B4D9D7000E0101E26F96
:104E08000101E2510F0D090EF326000EF422000EE7
:104E1800F324D96E020EF420DA6EDECFCEF1DDCFA8
:104E2800CFF10101E2510F0D010EF326000EF4221D
:104E3800000EF324D96E020EF420DA6EDF50486EAD
:104E48000101E2510F0D020EF326000EF422000EAE
:104E5800F324D96E020EF420DA6EDF50496E0CECA2
:104E68003BF0416E4128D8A408D0E9EC3EF0416EF1
:104E78004128D8A402D0FF0E120041500E0D0C0E8E
:104E8800F326000EF4223C0EF324D96E020EF42011
:104E9800DA6E000EDF6E0101E2510F0D090EF326E6
:104EA800000EF422000EF324D96E020EF420DA6EFE
:104EB80041500E0D3C0EF324E16E020EF420E26E1A
:104EC800DECFE6FFDDCFE5FF0101E2510F0D010E58
:104ED800F326000EF422000EF324D96E020EF420FD
:104EE800DA6E41500E0D020EF326000EF4223C0E2F
:104EF800F324E16E020EF420E26EDFCFE7FF01013A
:104F0800E2510F0D020EF326000EF422000EF324D8
:104F1800D96E020EF420DA6E41500E0D030EF32600
:104F2800000EF4223C0EF324E16E020EF420E26E31
:104F3800DFCFE7FF41500E0D0C0EF326000EF422D2
:104F48003C0EF324D96E020EF420DA6E0201DF86DD
:104F5800000E0101E16F0101E1510101D8A440D027
:104F68000101E151010D0E0EF326000EF422000E90
:104F78000101D06F020E0101D16FF3500101D0275A
:104F8800F4500101D1230101E2510F0DF350010149
:104F9800D025D96EF4500101D121DA6E0101E15119
:104FA800010D0D0EF326000EF4223C0E0101D26F06
:104FB800020E0101D36FF3500101D227F450010111
:104FC800D32341500E0DF3500101D225E16EF45068
:104FD8000101D321E26EDFCFE7FF0101E12BBBD74F
:104FE80041500E0D0C0EF326000EF4223C0EF32455
:104FF800D96E020EF420DA6E0201DF8241500E0DE6
:105008000C0EF326000EF4223C0EF324D96E020E89
:10501800F420DA6E0201DF8A41500E0D0C0EF326E1
:10502800000EF4223C0EF324D96E020EF420DA6E40
:105038000201DF800101E2510F0D000EF324D96E49
:10504800020EF420DA6EDF50FFEC3FF041500E0DF7
:105058003C0EF324D96E020EF420DA6EDECF44F053
:10506800DDCF45F048684968480E0001656F000EBD
:105078000001666F440E0001676F000E0001686F43
:1050880081EC3CF0000E406E4050010D5B0EF324A5
:10509800D96E010EF420DA6E010EDF6E402A405000
:1050A800010D5B0EF324D96E010EF420DA6E56C1A1
:1050B800DFFF402A000E0101E16F0101E15101010A
:1050C800D8A417D00101E151010D3C0EF324D96E8B
:1050D800000EF420DA6E4050010D5B0EF324E16EF1
:1050E800010EF420E26EDFCFE7FF402A0101E12B39
:1050F800E4D741500E0D3C0EF32400019D6F020EC3
:10510800F42000019E6F41500E0D020EF326000E92
:10511800F4223C0EF32400019F6F020EF4200001DC
:10512800A06F010E0001A16F080E0001A26FC7EC6D
:1051380039F049EC3CF060C0D8F161C0D9F162C0E7
:10514800DAF163C0DBF14AD091EC40F00009D8A451
:10515800B7EC40F049EC3CF060C0DCF161C0DDF137
:1051680062C0DEF163C0DFF1D8C1D0F1D9C1D1F19D
:10517800DAC1D2F1DBC1D3F10101D01FD11FD21F97
:10518800D31FD02B000ED123D223D3230101DC510E
:105198000101D0250101D46F0101DD510101D121A7
:1051A8000101D56F0101DE510101D2210101D66F44
:1051B8000101DF510101D3210101D76F0101D7514D
:1051C8000BE1210E0101D45DA10E0101D559070E95
:1051D8000101D659D8A002D0FF0E120041500E0D81
:1051E8000C0EF326000EF4223C0EF324D96E020EA8
:1051F800F420DA6E0201DFA8A7D741501200FF0E93
:10520800120001015551D8B40BD001016651D8B430
:1052180007D039863FC0F2F1060E0001F66F04D0C0
:10522800020E0001F66F39960001DC510001D8B476
:105238005BD1000E0001F76F070E0001F76501D082
:1052480019D00001F751010DF3500001DA25D96E8C
:10525800F4500001DB21DA6E0001F751010D3A0E1E
:10526800F324E16E010EF420E26EDFCFE7FF0001C8
:10527800F72BE2D7F6EC37F00001F86F0001F829B8
:10528800D8A442D04CC05BF1020E01015C6F010151
:105298005D6901015E6901015F690101606944C0DE
:1052A80061F145C062F146C063F147C064F13FC097
:1052B80065F13F2A000E326E328A0001DDB102D05C
:1052C800329601D03286DAC033F0DBC034F0000EFB
:1052D800356E010E366E44C037F045C038F0399649
:1052E80020EE32F000EE7EF0060EDBCFEBFFE80694
:1052F800FCE25B0E0001856F010E0001866F40C065
:1053080087F052EC24F012000001F8510E0D0C0E3B
:10531800F326000EF4223C0EF324D96E020EF4207C
:10532800DA6E0201DFA6AED701015551D8B411D00B
:105338000001F8510E0D020EF326000EF4223C0E69
:10534800F324D96E020EF420DA6EDECF4DF1DDCFF4
:105358004EF1040E01015B6FF6C05CF10001F851DB
:105368000E0D3C0EF324D96E020EF420DA6EDF50D7
:1053780001015D6F0001F8510E0D010EF326000EBC
:10538800F4223C0EF324D96E020EF420DA6EDF50BC
:1053980001015E6F0001F8510E0D020EF326000E9A
:1053A800F4223C0EF324D96E020EF420DA6EDF509C
:1053B80001015F6F0001F8510E0D030EF326000E78
:1053C800F4223C0EF324D96E020EF420DA6EDF507C
:1053D8000101606F44C061F145C062F146C063F1EC
:1053E80047C064F13FC065F13F2A0001F8510E0D36
:1053F8003C0EF324D96E020EF420DA6EDECFA5F04F
:10540800DDCFA6F00001F8510E0D020EF326000EB6
:10541800F4223C0EF324D96E020EF420DA6EDECFAD
:10542800A7F0DDCFA8F0DDC0A9F0EAEC21F0000973
:10543800D8A402D03996120039A6120049EC3CF0E3
:1054480060C0E6F061C0E7F062C0E8F063C0E9F070
:1054580091EC40F00009D8A4B7EC40F039A612004E
:1054680049EC3CF060C0EAF061C0EBF062C0ECF0DF
:1054780063C0EDF0E6C0DEF0E7C0DFF0E8C0E0F0C2
:10548800E9C0E1F00001DE1FDF1FE01FE11FDE2B96
:10549800000EDF23E023E1230001EA510001DE25AD
:1054A8000001E26F0001EB510001DF210001E36F11
:1054B8000001EC510001E0210001E46F0001ED5111
:1054C8000001E1210001E56F0001E5510BE1210E2A
:1054D8000001E25DA10E0001E359070E0001E45945
:1054E800D8A0B6D739961200040E01015B6FF6C03A
:1054F8005CF144C05DF145C05EF1DAC0D9FFDBC0A4
:10550800DAFFDF5001015F6F000120EE01F0DA5190
:10551800D926DB51DA22DF500101606F44C061F106
:1055280045C062F146C063F147C064F13FC065F110
:105538003F2ADAC0D9FFDBC0DAFFDF5001014D6F27
:10554800000120EE01F0DA51D926DB51DA22DF50D2
:1055580001014E6FDAC0D9FFDBC0DAFFDF50486EB9
:10556800000120EE01F0DA51D926DB51DA22DF50B2
:10557800496E44C0A5F045C0A6F048C0A7F049C090
:10558800A8F0DDC0A9F0EAEC21F00009D8A402D007
:105598003996120039A6120049EC3CF060C0EEF0D2
:1055A80061C0EFF062C0F0F063C0F1F091EC40F040
:1055B8000009D8A4B7EC40F039A6120049EC3CF039
:1055C80060C0F2F061C0F3F062C0F4F063C0F5F0BF
:1055D800EEC0DEF0EFC0DFF0F0C0E0F0F1C0E1F0C7
:1055E8000001DE1FDF1FE01FE11FDE2B000EDF239F
:1055F800E023E1230001F2510001DE250001E26F02
:105608000001F3510001DF210001E36F0001F451B3
:105618000001E0210001E46F0001F5510001E121E2
:105628000001E56F0001E5510BE1210E0001E25D8B
:10563800A10E0001E359070E0001E459D8A0B6D71E
:10564800399612000101AF91020E4218D8A461D117
:105658000101AFB351D049EC3CF060C0C6F161C064
:10566800C7F162C0C8F163C0C9F1000E0101B26F91
:10567800000EB16F000E0001FB6F070E0001FB6505
:1056880001D017D00001FB51010DF30EF324D96EA0
:10569800010EF420DA6E0001FB51010DB30EF32464
:1056A800E16E010EF420E26EDFCFE7FF0001FB2B75
:1056B800E4D70101AF830101AF91000E0001FB6F38
:1056C8000001FB510001D8A412000001FB51010D9B
:1056D8003C0EF324D96E000EF420DA6E0001FB5163
:1056E800010DBB0EF324E16E010EF420E26EDFCF54
:1056F800E7FF0001FB2BE4D70101B1510101B21111
:10570800D8B4120046500101B11905E14750010112
:10571800B219D8B412000B0E406E4050010D5B0E4A
:10572800F324D96E010EF420DA6E000EDF6E402AE3
:105738004050010D5B0EF324D96E010EF420DA6E91
:10574800110EDF6E402A000E0001FB6F070E0001EC
:10575800FB6501D017D00001FB51010DF30EF324B6
:10576800D96E010EF420DA6E4050010D5B0EF32461
:10577800E16E010EF420E26EDFCFE7FF402A000160
:10578800FB2BE4D74050010D5B0EF324D96E010EBC
:10579800F420DA6E46C0DFFF402A4050010D5B0E50
:1057A800F324D96E010EF420DA6E47C0DFFF402AD9
:1057B800000E0001FB6F0001FB510001D8A417D0B7
:1057C8000001FB51010D3C0EF324D96E000EF420AC
:1057D800DA6E4050010D5B0EF324E16E010EF420E9
:1057E800E26EDFCFE7FF402A0001FB2BE4D7000E73
:1057F8000001FB6F070E0001FB6501D017D0000107
:10580800FB51010DB30EF324D96E010EF420DA6EAC
:105818000001FB51010D3A0EF324E16E010EF42054
:10582800E26EDFCFE7FF0001FB2BE4D7B1C148F000
:10583800B2C149F00CEC3BF00101B06F0101B02995
:10584800D8B411D00101B0510E0D0C0EF326000E84
:10585800F4223C0EF324D96E020EF420DA6EDF50E7
:105868000101586F07D08C0E0101586F48BE02D055
:105878000101588144C0CEF145C0CFF172EC35F03A
:105888000101B06F000E0001FB6F0001FB51000128
:10589800D8A42CD00001FB51010DBB0EF324D96E06
:1058A800010EF420DA6E0001FB51010D0D0EF326F6
:1058B800000EF4223C0E0001F96F020E0001FA6F8F
:1058C800F3500001F927F4500001FA230101B05107
:1058D8000E0DF3500001F925E16EF4500001FA2194
:1058E800E26EDFCFE7FF0001FB2BCFD7B10E00013F
:1058F800DA6F010E0001DB6F000E0001DC6F000E95
:105908000001DD6F05EC29F00101AF930101AF81C2
:10591800120049EC3CF060C0C6F161C0C7F162C03A
:10592800C8F163C0C9F1000E496E000E486E0B0E37
:10593800406E4050010D5B0EF324D96E010EF42029
:10594800DA6E000EDF6E402A4050010D5B0EF32424
:10595800D96E010EF420DA6E100EDF6E402A000EAA
:105968000001FB6F070E0001FB6501D017D0000195
:10597800FB51010DF30EF324D96E010EF420DA6EFB
:105988004050010D5B0EF324E16E010EF420E26E2F
:10599800DFCFE7FF402A0001FB2BE4D7000E000110
:1059A800FB6F0001FB510001D8A417D00001FB5187
:1059B800010D3C0EF324D96E000EF420DA6E40502F
:1059C800010D5B0EF324E16E010EF420E26EDFCFD1
:1059D800E7FF402A0001FB2BE4D7480E0001DA6FED
:1059E800000E0001DB6F000E0001DC6F000E0001ED
:1059F800DD6F05EC29F00101AF831200000E0001F4
:105A0800B76F09EC3FF0C00E00018F6FFF0E000169
:105A1800906F000E0001916F010E0001926FD7EC9C
:105A28003DF08E0E00016C6F010E00016D6F370E98
:105A380000016E6FFF0E00016F6FFFEC0EF071EC4E
:105A48003AF004D03FEC34F00001B76F0001B751D1
:105A58000001D8B4F7D70001B705D8A4E8D0000EE4
:105A68000001B76F8E0E00016C6F010E00016D6FA3
:105A7800F70E00016E6FFE0E00016F6FFFEC0EF067
:105A880071EC3AF004D03FEC34F00001B76F00013C
:105A9800B7510001D8B4F7D70001B705D8A461D031
:105AA800000E0001B76F898C0B0E406E4050010D3F
:105AB8005B0EF324D96E010EF420DA6E550EDF6EFC
:105AC800402A4050010D5B0EF324D96E010EF420DC
:105AD800DA6E46C0DFFF402A4050010D5B0EF3240A
