:0400000041EF01F0DB
:100008004D82FACF0EF0FBCF0FF0E9CF10F0EACF18
:1000180011F0E1CF12F0E2CF13F0D9CF14F0DACF1C
:1000280015F0F3CF16F0F4CF17F0F6CF18F0F7CF9E
:1000380019F0F8CF1AF0F5CF1BF0A4A610D00101E3
:1000480031B102D08A9401D08A8401013151D8A4F7
:1000580002D0010E01D0000E0101316FA496A1A2B9
:1000680034D0030E226E200E216E01013C51D8B40B
:100078001DD0000E01013C6F280E096E0A0E0A6E93
:1000880021C00BF022C00CF009500B260A500C229C
:100098000B1E0C1E0B4A0C2A0BC01CF00CC01DF0CA
:1000A800899E1CC07AFF1DC07BFF0ED0010E010186
:1000B8003C6FE80E21241E6E6D0E22201F6E898E65
:1000C8001EC07AFF1FC07BFFA192F2B8F2A2ABD08C
:1000D800F292620E40EC46F0236E23A011D03E90BF
:1000E8003EBC3E9C000E0101306F000E2F6F3EA2F9
:1000F80007D0480E40EC46F0206E20B03E843E9279
:1001080023A68AD02568000E266E010E266401D02B
:1001180010D02650500D3C0EF324D96E030EF42057
:10012800DA6EDF50D8A403D026C025F002D0262AE4
:10013800ECD7020E25606BD0040E036E730E55ECDF
:1001480046F02550500D3C0EF324D96E030EF420D2
:10015800DA6E030E046E000E036EBFEC44F0020F5D
:10016800DF6E2550500D3C0EF324D96E030EF4209B
:10017800DA6E4F0EDF6040D03E8A010E266E1AD02E
:100188002550500D3C0E096E030E0A6EF3500926D9
:10019800F4500A2226500924D96E000E0A20DA6E7D
:1001A800000E2624036E046A030E0422BFEC44F0FA
:1001B800DF6E262A2650096E0A6A2550500D3C0E1D
:1001C800F324D96E030EF420DA6EDF500B6E0C6A3E
:1001D800020E0B26000E0C2209500B5C0C50800AF4
:1001E8000D6E0A50800A0D58D8B0CAD7010E036E9A
:1001F8001B0E55EC46F005D0010E036E1B0E55EC98
:1002080046F0000E036E730E55EC46F005D0010E55
:10021800036E1B0E55EC46F023A805D0800E036E26
:10022800590E55EC46F09EB09DA007D09E90432AEB
:100238004350D8A402D001013B2B26EC47F01BC049
:10024800F5FF1AC0F8FF19C0F7FF18C0F6FF17C06E
:10025800F4FF16C0F3FF15C0DAFF14C0D9FF13C0AE
:10026800E2FF12C0E1FF11C0EAFF10C0E9FF0FC0B2
:10027800FBFF0EC0FAFF4D92110014EF42F085EC1F
:100288001DF00009D8B464EF0DF039B41200000E67
:100298000101006F27A404D00001B16BB12B02D07B
:1002A8000001B16B010100510001B119FC0BB1193A
:1002B8000101006F27A603D00101008702D00101C8
:1002C80000972750030BE806D8A404D00001B16BAF
:1002D800B12B02D00001B16B0001B13BB147010164
:1002E80000510001B119DF0BB1190101006F27AEF0
:1002F80003D00101008D02D00101009D27AE0BD073
:100308002FB003D00101009F02D00101008F28C047
:1003180003F129C004F130C001F131C002F12EC04F
:1003280009F12DC008F1399454EF0DF00A0E2C6034
:1003380002D061EF0DF020EE02F02A50D9262B50A2
:10034800DA22DF500001CC6F20EE03F02A50D926C4
:100358002B50DA22DF500001CD6F20EE04F02A5036
:10036800D9262B50DA22DF500001D06F20EE05F09D
:100378002A50D9262B50DA22DF500001D16F20EE07
:1003880006F02A50D9262B50DA22DF500001D26F0E
:1003980020EE07F02A50D9262B50DA22DF50000130
:1003A800D36F20EE08F02A50D9262B50DA22DF50DE
:1003B8000001D66F20EE09F02A50D9262B50DA22F8
:1003C800DF500001D76F000E0101006F27A603D090
:1003D8000101008702D00101009701010051030BC0
:1003E8000009D8A407D00001D02903E10001D129D0
:1003F800D8A46DD146500001D6190FE1475000012D
:10040800D719D8A40AD044500001D21906E14550A2
:100418000001D319D8B461EF0DF02AC0D9FF2BC061
:10042800DAFF010EDF6498D02AC0D9FF2BC0DAFFAB
:10043800DF06000E406E000E0001D96F16D00001D5
:10044800D951010DF3502A24D96EF4502B20DA6EBD
:100458004050010D3D0EF324E16E010EF420E26ED2
:10046800DFCFE7FF402A0001D92B2C500001D95DCE
:10047800D8A0E5D727C032F044C037F045C038F0DF
:100488002FC036F0140E43EC3FF020EE32F000EEB1
:100498007EF0060EDBCFEBFFE806FCE23D0E000126
:1004A800856F010E0001866F40C087F0C2EC28F00E
:1004B800000E0001D96F090E0001D96501D033D0B3
:1004C8000001D9510E0D0C0EF326000EF422200E59
:1004D800F324D96E020EF420DA6E0201DFAE20D0CA
:1004E8000001D9510E0D0C0EF326000EF422200E39
:1004F800F324D96E020EF420DA6E0201DFB010D0B8
:100508000001D9510E0D0C0EF326000EF422200E18
:10051800F324D96E020EF420DA6E0201DFBA03D09A
:100528000001D92BC8D70A0E0001D96115D0CCC05B
:100538006AF0CDC06BF0000E00016C6F000E000178
:100548006D6F000E00016E6F000E27B6010E0001E0
:100558006F6F010EADEC34F0000E0001D96F030E81
:100568000001D96501D03CD00001D951080D030E16
:10057800F326000EF422000EF324D96E020EF420A6
:10058800DA6EDF50D8B429D00001D951080D000E19
:10059800F324D96E020EF420DA6E0001D651DE186B
:1005A8001CE10001D751DE18D8A417D020EE0AF0BC
:1005B8002A50D9262B50DA220001D951080D020EF3
:1005C800F326000EF422000EF324E16E020EF4204E
:1005D800E26EDE50E618D8B403D00001D92BBFD79D
:1005E800040E0001D96102D061EF0DF0000E000188
:1005F800D96F030E0001D96501D013D00001D9517C
:10060800080D030EF326000EF422000EF324D96E13
:10061800020EF420DA6EDF50D8B403D00001D92BD3
:10062800E8D7040E0001D9614CD00001D951080D5A
:10063800000EF324D96E020EF420DA6ED6C0DEFF67
:10064800D7C0DDFF20EE0AF02A50D9262B50DA2237
:100658000001D951080D020EF326000EF422000EF7
:10066800F324E16E020EF420E26EDFCFE7FF000113
:10067800D951080D030EF326000EF422000EF324C0
:10068800D96E020EF420DA6E030EDF6E0DEC43F025
:100698000001D951080D040EF326000EF422000EB5
:1006A800F324D96E020EF420DA6E000160C0DEFF7A
:1006B800000161C0DEFF000162C0DEFF000163C00F
:1006C800DEFF01010051FC0B0109006F79D0445095
:1006D8000001CC1904E145500001CD19D8A48EEFD2
:1006E80007F046500001D01904E147500001D11924
:1006F800D8A48EEF07F020EE01F02A50D9262B500F
:10070800DA22DFA45DD04CC03DF1020E01013E6F3C
:10071800D2C03FF1D3C040F1D6C041F1D7C042F1B9
:1007280044C043F145C044F146C045F147C046F1D5
:1007380020EE0AF02A50D9262B50DA22DF50010188
:10074800476F000E0101486F300E0101496F0D0E11
:10075800406E47500001D719D8B40ED0D2C0A5F0CA
:10076800D3C0A6F0D6C0A7F0D7C0A8F0000E0001ED
:10077800A96F5AEC26F022D0000E326E328A010E92
:10078800356E010E366ED60E336E000E346ED2C044
:1007980037F0D3C038F020EE32F000EE7EF0060ECF
:1007A800DBCFEBFFE806FCE23D0E0001856F010E92
:1007B8000001866F40C087F0C2EC28F00101008577
:1007C80020EE0BF02A50D9262B50DA22DF50D8A47D
:1007D8005FD320EE0CF02A50D9262B50DA22300EA7
:1007E800DE18D8A422D339D3010170B371D00DEC2F
:1007F80043F060C087F161C088F162C089F163C0CD
:100808008AF120EE08F02A50D9262B50DA22DF5040
:100818000101726F20EE09F02A50D9262B50DA22F6
:10082800DF500101736F000E0001D86F070E000141
:10083800D86501D020D00001D8510001B16FB26B4A
:100848000D0E0001B127000EB2230001B1512A2478
:10085800D96E0001B2512B20DA6E0001D851010D7A
:10086800740EF324E16E010EF420E26EDFCFE7FF91
:100878000001D82BDBD70101708301017091000EB4
:100888000001D86F0001D8510001D8A461EF0DF024
:100898000001D8510001B16FB26B150E0001B127EC
:1008A800000EB2230001B1512A24D96E0001B251C1
:1008B8002B20DA6E0001D851010D7C0EF324E16E75
:1008C800010EF420E26EDFCFE7FF0001D82BDAD764
:1008D80020EE08F02A50D9262B50DA220101725155
:1008E800DE18D8A40CD020EE09F02A50D9262B50B7
:1008F800DA2201017351DE18D8B461EF0DF001015D
:10090800725101017311D8A4AAD0000E0001D86F4A
:10091800070E0001D86501D034D00001D85100017C
:10092800B16FB26B0D0E0001B127000EB2230001AA
:10093800B1512A24D96E0001B2512B20DA6E000180
:10094800D851010D7F0EF324E16E010EF420E26E02
:10095800DFCFE7FF0001D851010D7F0EF324D96ED8
:10096800010EF420DA6E0001D851010D1A0EF3249D
:10097800E16E010EF420E26EDFCFE7FF0001D82B15
:10098800C7D720EE08F02A50D9262B50DA22DF509C
:1009980001017D6F20EE09F02A50D9262B50DA226A
:1009A800DF5001017E6F7DC148F07EC149F044C02F
:1009B8008FF145C090F1D0EC41F00101716F010158
:1009C8007129D8A4F8D08D0E01013A6F48AE02D033
:1009D80001013A917AEC3CF00101716F0101712932
:1009E800D8B4E9D0000E0001D86F0001D851000139
:1009F800D8A4E1D00001D8510001B16FB26B150E37
:100A08000001B127000EB2230001B1512A24D96E8A
:100A18000001B2512B20DA6E0001D851010D0D0EE4
:100A2800F326000EF422200E0001B36F020E00011F
:100A3800B46FF3500001B327F4500001B42301014F
:100A480071510E0DF3500001B325E16EF450000111
:100A5800B421E26EDFCFE7FF0001D82BC6D70B0E1B
:100A6800406E4050010D3D0EF324D96E010EF42066
:100A7800DA6E000EDF6E402A4050010D3D0EF32461
:100A8800D96E010EF420DA6E110EDF6E402A000EC8
:100A98000001D86F070E0001D86501D034D00001DD
:100AA800D8510001B16FB26B0D0E0001B127000ED5
:100AB800B2230001B1512A24D96E0001B2512B2072
:100AC800DA6E0001D851010D7F0EF324E16E010E9C
:100AD800F420E26EDFCFE7FF0001D851010D7F0E51
:100AE800F324D96E010EF420DA6E4050010D3D0E4C
:100AF800F324E16E010EF420E26EDFCFE7FF402A17
:100B08000001D82BC7D720EE08F02A50D9262B5041
:100B1800DA22DF5001017D6F20EE09F02A50D92634
:100B28002B50DA22DF5001017E6F4050010D3D0E3F
:100B3800F324D96E010EF420DA6E7DC1DFFF402A5E
:100B48004050010D3D0EF324D96E010EF420DA6EEB
:100B58007EC1DFFF402A000E0001D86F0001D85186
:100B68000001D8A420D00001D8510001B16FB26BA8
:100B7800150E0001B127000EB2230001B1512A243D
:100B8800D96E0001B2512B20DA6E4050010D3D0E96
:100B9800F324E16E010EF420E26EDFCFE7FF402A76
:100BA8000001D82BDBD7720E0001AF6F010E0001D8
:100BB800B06F89EC41F0010170830101708161EF30
:100BC8000DF0000E0001D46F070E0001D46501D0AE
:100BD80020D00001D4510001B16FB26B0D0E00019D
:100BE800B127000EB2230001B1512A24D96E0001A9
:100BF800B2512B20DA6E0001D451010D1A0EF324E4
:100C0800E16E010EF420E26EDFCFE7FF0001D42B86
:100C1800DBD78D0E01013A6F20EE15F02A50D92648
:100C28002B50DA22DFAE02D001013A9120EE15F006
:100C38002A50D9262B50DA22DF50486E20EE16F0C3
:100C48002A50D9262B50DA22DF50496E44C08FF142
:100C580045C090F1D0EC41F00101716F010171299B
:100C6800D8B415D0010171510E0D0C0EF326000EEB
:100C7800F422200EF324D96E020EF420DA6EDF502F
:100C880001013A6F01013A8501013A8707D08D0EBB
:100C980001013A6F48AE02D001013A917AEC3CF07A
:100CA8000101716F01017129D8B440D0000E000113
:100CB800D46F0001D4510001D8A435D00001D4511B
:100CC8000001B16FB26B170E0001B127000EB223FD
:100CD8000001B1512A24D96E0001B2512B20DA6EDD
:100CE8000001D451010D0D0EF326000EF422200E42
:100CF8000001B36F020E0001B46FF3500001B32777
:100D0800F4500001B423010171510E0DF35000019C
:100D1800B325E16EF4500001B421E26EDFCFE7FFA6
:100D28000001D42BC6D70101708102D00101709156
:100D38000101709361EF0DF020EE0DF02A50D926D5
:100D48002B50DA224A50DE18D8A461EF0DF020EEBD
:100D58000EF02A50D9262B50DA22DF5069EC46F0E3
:100D680061EF0DF020EE0DF02A50D9262B50DA2233
:100D78004A50DE18D8A461EF0DF0000E406E4CC04A
:100D88003DF1020E01013E6F44C03FF145C040F104
:100D980020EE08F02A50D9262B50DA22DF50010124
:100DA800416F20EE09F02A50D9262B50DA22DF5065
:100DB8000101426F44C043F145C044F146C045F1CA
:100DC80047C046F13FC047F13F2A000E0101486F76
:100DD800420E0101496F000E326E328A010E356EE5
:100DE800010E366E44C037F045C038F0080E2A248C
:100DF800336E000E2B20346E20EE32F000EE7EF0C3
:100E0800060EDBCFEBFFE806FCE23D0E0001856F26
:100E1800010E0001866F0D0E0001876FC2EC28F0ED
:100E280061EF0DF0399E61EF0DF020EE0CF02A50C5
:100E3800D9262B50DA22DF50100AD8B4D5D4010AAB
:100E4800D8B4BFD6510AD8B477D7010AD8B48AD74C
:100E5800030AD8B4E7D761EF0DF020EE0AF02A5064
:100E6800D9262B50DA220101F351DE18D8A461EFFC
:100E78000DF001012D510001D61905E101012E5196
:100E88000001D719D8A461EF0DF0399661EF0DF084
:100E98002C50F50F0101076F0B0E2A240101056F75
:100EA800000E2B200101066FD2C001F1D3C002F160
:100EB80020EE08F02A50D9262B50DA22DE28D8A4B2
:100EC80015D020EE09F02A50D9262B50DA22DE2838
:100ED800D8A40CD02FB003D00101009F02D001018B
:100EE800008F28C003F129C004F10AD00101008F46
:100EF800080E2A240101036F000E2B200101046F44
:100F08000101008D01010751D8B461EF0DF039845A
:100F180061EF0DF02AC0D9FF2BC0DAFFDF50D8B43B
:100F280061EF0DF02AC0D9FF2BC0DAFFDF06000EF3
:100F3800406E000E0001D96F16D00001D951010D85
:100F4800F3502A24D96EF4502B20DA6E4050010D4C
:100F58003D0EF324E16E010EF420E26EDFCFE7FFD1
:100F6800402A0001D92B2C500001D95DD8A0E5D723
:100F780047500001D119D8A42DD001014851D8A457
:100F880029D0300E01014919D8A424D0000E326EA0
:100F9800328A010E356E010E366ED00E336E000E9B
:100FA800346ECCC037F0CDC038F020EE32F000EE11
:100FB8007EF0060EDBCFEBFFE806FCE23D0E0001FB
:100FC800856F010E0001866F40C087F0C2EC28F0E3
:100FD80061EF0DF0CCC0A5F0CDC0A6F0D0C0A7F051
:100FE800D1C0A8F0000E27B6010E0001A96F5AEC77
:100FF80026F061EF0DF0000E0001CB6F0001CB5120
:101008000001B16FB26B040E0001B127000EB223CC
:101018000001B1512A24D96E0001B2512B20DA6E99
:101028004D0EDE18D8A461EF0DF020EE01F0285027
:10103800D9262950DA22DF500001C26FC2C0B1F0B0
:10104800010E0001B26F0001B12B03D00001D8904E
:10105800B2370001B12FFAD70001B2510001BF6FBA
:1010680028C0D9FF29C0DAFFDF50D8A404D0000176
:10107800BF51010137130001CB510001B16FB26BB1
:10108800060E0001B127000EB2230001B1512A2437
:10109800D96E0001B2512B20DA6E0001C251010D48
:1010A800120EF324E16E010EF420E26EDFCFE7FFAB
:1010B80039A061EF0DF030C08FF131C090F128C038
:1010C800D9FF29C0DAFFDF50486E20EE01F0285022
:1010D800D9262950DA22DF50496E0001CB51010D83
:1010E800F3502A24D96EF4502B20DA6EDE28D8A4C7
:1010F80061EF0DF00001CB510001B16FB26B010E31
:101108000001B127000EB2230001B1512A24D96E83
:101118000001B2512B20DA6EDF500001CA6F040EB5
:101128003B6061EF0DF00001CA39030B0001B16F9C
:10113800020E0001B16161EF0DF03B500F0D000E82
:10114800F324D96E030EF420DA6E4AC0DFFF3B5059
:101158000F0D0B0EF326000EF422000EF324D96EA9
:10116800030EF420DA6E08C1DFFF3B500F0D0C0EA2
:10117800F326000EF422000EF324D96E030EF42099
:10118800DA6E09C1DFFF3B500F0D090EF326000E82
:10119800F422000EF324D96E030EF420DA6E8FC108
:1011A800DEFF90C1DDFF3B500F0D0D0EF326000E44
:1011B800F422000EF324D96E030EF420DA6E000E2A
:1011C800DF6E3B500F0D0D0EF326000EF422000EBD
:1011D800F324D96E030EF420DA6E0301DF8C0001CC
:1011E800CA31030B0001B16F3B500F0D0D0EF326F2
:1011F800000EF422000EF324D96E030EF420DA6EEA
:101208000301DF500001B119FC0BB1190301DF6EB6
:101218000001CAA70ED03B500F0D0D0EF326000E8D
:10122800F422000EF324D96E030EF420DA6E0301C3
:10123800DF860001CA39030B0001B16F020E0001FD
:10124800B1610ED03B500F0D0D0EF326000EF422A7
:10125800000EF324D96E030EF420DA6E0301DF8A40
:1012680003C1D9FF04C1DAFF3B500F0D010EF3266D
:10127800000EF422000EF324E16E030EF420E26E59
:10128800DFCFE7FF010120EE01F00351D926045119
:10129800DA223B500F0D020EF326000EF422000E48
:1012A800F324E16E030EF420E26EDFCFE7FF3B503C
:1012B8000F0D0D0EF326000EF422000EF324D96E46
:1012C800030EF420DA6E0301DF8E000E0001D96FE1
:1012D8000001D9510001D8A439D00001D951CBC09F
:1012E800B1F00001B26B0001B127000EB223070E66
:1012F8000001B127000EB2230001B1512A24D96E92
:101308000001B2512B20DA6E0001D951010D0E0EE9
:10131800F326000EF422000E0001B36F030E000145
:10132800B46FF3500001B327F4500001B4233B50CD
:101338000F0DF3500001B325E16EF4500001B42104
:10134800E26EDFCFE7FF0001D92BC2D73B2AB5D326
:10135800000E0001C16F010E3D6401D0AED3000E36
:101368000001D96F070E0001D96501D017D000011F
:10137800D951010DF3502824D96EF4502920DA6E82
:101388000001D951010D1A0EF324E16E010EF4206B
:10139800E26EDFCFE7FF0001D92BE4D77EEC3EF009
:1013A8000001D56F0001D529D8A41AD03D50D8A482
:1013B80084D3B70E01013A6F44C08FF145C090F154
:1013C8007AEC3CF00001D56F0001D529D8A42AD0C9
:1013D800010E0001C16FFF0E496EFE0E486ED4D09B
:1013E8000001D5510E0D0C0EF326000EF422200E2E
:1013F800F324D96E020EF420DA6E0201DFA612D0B1
:101408000001D5510E0D020EF326000EF422200E17
:10141800F324D96E020EF420DA6EDECF48F0DDCF69
:1014280049F0B2D00001D529D8B4AED00001D529F1
:10143800486E47C049F044C08FF145C090F1020E94
:101448004218D8A443D020EE01F02A50D9262B50B8
:10145800DA22DFAC3BD048C0BDF049C0BEF0000E78
:10146800486E010E0001CE6F070E0001CE6501D057
:1014780024D0CEC049F0D0EC41F00001C06F00018B
:10148800C029D8A417D0000E486ECEC049F0CEC0EF
:10149800B1F0010E0001B26F0001B12B03D00001C1
:1014A800D890B2370001B12FFAD70001B25101012B
:1014B800371303D00001CE2BD7D7080E0001CE1961
:1014C800D8A404D0BDC048F0BEC049F0BF0E010189
:1014D8003A6F20EE01F02A50D9262B50DA22DFB0DD
:1014E80003D001013A91488E7AEC3CF00001D56FA7
:1014F8000001D5510E0D0C0EF326000EF422200E1D
:10150800F324D96E020EF420DA6E0201DF88000E91
:101518000001D96F0001D9510001D8A435D00001CC
:10152800D9510001B16FB26B020E0001B127000E54
:10153800B2230001B1512A24D96E0001B2512B20E7
:10154800DA6E0001D951010D0D0EF326000EF422BA
:10155800200E0001B36F020E0001B46FF3500001BA
:10156800B327F4500001B4230001D5510E0DF350F8
:101578000001B325E16EF4500001B421E26EDFCF23
:10158800E7FF0001D92BC6D7020E01013D6F48C005
:101598003EF149C03FF1C1C040F1000E0001D96FD2
:1015A8000001D9510001D8A420D00001D951010D62
:1015B8003C0EF324D96E000EF420DA6E0001D951E6
:1015C8000001B16FB26B040E0001B127000EB22307
:1015D8003D0E0001B125E16E010E0001B221E26E5F
:1015E800DFCFE7FF0001D92BDBD7050E406E440E95
:1015F80000019D6F000E00019E6F0001D5510E0D78
:10160800040EF326000EF422200EF32400019F6F2F
:10161800020EF4200001A06F010E0001A16F000E60
:101628000001A26F4CEC40F048D220EE03F02A50A3
:10163800D9262B50DA22DF50D8A4C3D020EE01F0EF
:101648002A50D9262B50DA22DF50466E20EE02F0BF
:101658002A50D9262B50DA22DF50476E4650D8A49C
:1016680024D0010E426E42C0B1F00001B147010121
:1016780036510001B119F90BB1190101366F47C094
:10168800B1F0070E0001B117010E0001B26F0001A1
:10169800B12B03D00001D890B2370001B12FFAD78F
:1016A8000001B229010137130ED0000E426E42C06C
:1016B800B1F00001B147010136510001B119F90B30
:1016C800B1190101366F460E0001656F000E000169
:1016D800666F440E0001676F000E0001686F45ECED
:1016E80043F03982BF0E01013A6F000E0001D96F35
:1016F800070E0001D96501D017D00001D951010D9D
:10170800F3502824D96EF4502920DA6E0001D951FB
:10171800010D1A0EF324E16E010EF420E26EDFCF04
:10172800E7FF0001D92BE4D74650D8A403D0000E18
:10173800496E02D047C049F0000E486E44C08FF190
:1017480045C090F17AEC3CF0416E000E0001D96F73
:101758000001D9510001D8A4B0D10001D95100012C
:10176800B16FB26B040E0001B127000EB223000165
:10177800B1512A24D96E0001B2512B20DA6E000132
:10178800D951010D0D0EF326000EF422200E000192
:10179800B36F020E0001B46FF3500001B327F45089
:1017A8000001B42341500E0DF3500001B325E16E42
:1017B800F4500001B421E26EDFCFE7FF0001D92B1E
:1017C800C7D741684468456848684968480E0001B9
:1017D800656F000E0001666F440E0001676F000E12
:1017E8000001686F45EC43F068D12F50D8B417D08A
:1017F80028C0D9FF29C0DAFFDF50486E20EE01F07B
:101808002850D9262950DA22DF50496ED0EC41F011
:101818000001C96F0001C929D8B44FD122D0000EE8
:101828000001D96F070E0001D96501D017D000015A
:10183800D951010DF3502824D96EF4502920DA6EBD
:101848000001D951010D1A0EF324E16E010EF420A6
:10185800E26EDFCFE7FF0001D92BE4D77EEC3EF044
:10186800D7D70001C9510E0D0C0EF326000EF42235
:10187800200EF324D96E020EF420DA6E0201DFAADC
:101888001CD141500001C919D8B410D00001C95168
:101898000E0D0C0EF326000EF422200EF324D96E42
:1018A800020EF420DA6E000EDF6E07D1000E000182
:1018B800D96F090E0001D96501D08CD00001D9512A
:1018C8000E0D0C0EF326000EF422200EF324D96E12
:1018D800020EF420DA6E0201DFAE6AD00001D9519F
:1018E8000E0D0C0EF326000EF422200EF324D96EF2
:1018F800020EF420DA6E0201DFAA5AD0415000012C
:10190800D919D8B455D0000E406E4050010D3D0E87
:10191800F324D96E010EF420DA6E030EDF6E402A2E
:10192800000E326E328A3250FC0B0109326E010E03
:10193800356E010E366E0001D9510E0D200EF324BE
:10194800D96E020EF420DA6EDECF37F0DDCF38F034
:101958000001D9510E0D020EF326000EF422200EBE
:10196800F324336E020EF420346E20EE32F000EED3
:101978007EF0060EDBCFEBFFE806FCE23D0E000131
:10198800856F010E0001866F40C087F0C2EC28F019
:10199800000E0001C46F000EC36F0001C3290F0EB3
:1019A8000001C459D8B004D00001C34BC42BF5D7EB
:1019B8000001D9510E0D0C0EF326000EF422200E54
:1019C800F324D96E020EF420DA6E000EDF6E0001E9
:1019D800D92B6FD741684668476844684568460E02
:1019E8000001656F000E0001666F440E0001676F0D
:1019F800000E0001686F45EC43F039925ED02F501D
:101A0800D8B410D0000E0001A46F000E0001A56F1D
:101A180028C0A6F029C0A7F0010E0001A86FDDECD0
:101A280019F04BD028C0A4F029C0A5F0000E000181
:101A3800A66F000E0001A76F000E0001A86FDDEC75
:101A480019F03BD0020E3D6401D037D039A235D011
:101A580020EE01F02A50D9262B50DA224A50DE18FF
:101A6800D8A42BD04250D8B428D0140E43EC3FF061
:101A7800FFEC3CF022D02AC0D9FF2BC0DAFFDF50A0
:101A8800010AD8B465D4030AD8B4CFD5010AD8B4AA
:101A9800ACD6070AD8B4B3D7030AD8B4D3D70DD075
:101AA8002750030B000AD8B49AEF01F0010AD8B402
:101AB800E2D7020AD8B4FFEF07F039A4B4EC46F035
:101AC8000DEC43F060C0C5F061C0C6F062C0C7F05D
:101AD80063C0C8F0000E0001D96F010E0001D9657E
:101AE80001D062D00001D951430D0E0EF326000E2D
:101AF800F422000EF324D96E040EF420DA6E0401E9
:101B0800DFA04FD00001D951430D000EF324D96E48
:101B1800040EF420DA6EDECFB1F0DECFB2F0DECF05
:101B2800B3F0DECFB4F00001B11FB21FB31FB41F72
:101B3800B12B000EB223B323B4230001C551000119
:101B4800B1250001B56F0001C6510001B2210001A5
:101B5800B66F0001C7510001B3210001B76F000142
:101B6800C8510001B4210001B86F0001B8510AE161
:101B78000001B505120E0001B6597A0E0001B759D9
:101B8800D8A00FD00001D951430D0E0EF326000E38
:101B9800F422000EF324D96E040EF420DA6E000E3F
:101BA800DF6E0001D92B99D7000E0001D96F030E03
:101BB8000001D96501D067D00001D951080D030E85
:101BC800F326000EF422000EF324D96E020EF42040
:101BD800DA6EDF50D8B454D00001D951080D040E84
:101BE800F326000EF422000EF324D96E020EF42020
:101BF800DA6EDECFB1F0DECFB2F0DECFB3F0DECFFB
:101C0800B4F00001B11FB21FB31FB41FB12B000EF7
:101C1800B223B323B4230001C5510001B12500014B
:101C2800B56F0001C6510001B2210001B66F000175
:101C3800C7510001B3210001B76F0001C85100016D
:101C4800B4210001B86F0001B8510BE1210E000169
:101C5800B55DA10E0001B659070E0001B759D8A00D
:101C68000FD00001D951080D030EF326000EF422FF
:101C7800000EF324D96E020EF420DA6E000EDF6E29
:101C88000001D92B94D7010170A31200010170A1A2
:101C980077D00B0E406E4050010D3D0EF324D96EE7
:101CA800010EF420DA6E000EDF6E402A4050010D5E
:101CB8003D0EF324D96E010EF420DA6E110EDF6E9C
:101CC800402A000E0001CF6F070E0001CF6501D03A
:101CD80017D00001CF51010D740EF324D96E010EF7
:101CE800F420DA6E4050010D3D0EF324E16E010E32
:101CF800F420E26EDFCFE7FF402A0001CF2BE4D7C4
:101D08004050010D3D0EF324D96E010EF420DA6E19
:101D180072C1DFFF402A4050010D3D0EF324D96EF9
:101D2800010EF420DA6E73C1DFFF402A000E0001B5
:101D3800CF6F0001CF510001D8A417D00001CF51B7
:101D4800010D7C0EF324D96E010EF420DA6E40509A
:101D5800010D3D0EF324E16E010EF420E26EDFCF9B
:101D6800E7FF402A0001CF2BE4D77D0E0001AF6FBB
:101D7800010E0001B06F89EC41F00101709312006F
:101D880087C1B1F088C1B2F089C1B3F08AC1B4F09B
:101D98000001B11FB21FB31FB41FB12B000EB22335
:101DA800B323B4230001C5510001B1250001B96F67
:101DB8000001C6510001B2210001BA6F0001C751EC
:101DC8000001B3210001BB6F0001C8510001B4211B
:101DD8000001BC6F0001BC510BE1610E0001B95D4F
:101DE800E30E0001BA59160E0001BB59D8A0120023
:101DF800010170931200000E0101F26F010E010142
:101E0800916F000E0101926F000E0101936F000E99
:101E18000101946F000E0101ED6F000E0101EE6FDC
:101E2800000E0101EF6F000E0101F06F000E0101BD
:101E3800F16F73EC45F0BA0E0001916FFF0E0001CF
:101E4800926F000E0001936F010E0001946F41EC38
:101E580044F0AC0E00016C6F020E00016D6FC20EF3
:101E680000016E6FFE0E00016F6FBEEC14F0A1EC66
:101E780040F004D047EC3BF00101F26F0101F25150
:101E88000101D8B4F7D70101F205D8A4E8D0000EB3
:101E98000101F26FAC0E00016C6F020E00016D6F54
:101EA8005F0E00016E6FFE0E00016F6FBEEC14F046
:101EB800A1EC40F004D047EC3BF00101F26F0101C6
:101EC800F2510101D8B4F7D70101F205D8A461D0C5
:101ED800000E0101F26F898C0B0E406E4050010D0F
:101EE8003D0EF324D96E010EF420DA6E550EDF6E26
:101EF800402A4050010D3D0EF324D96E010EF42006
:101F0800DA6E46C0DFFF402A4050010D3D0EF32433
:101F1800D96E010EF420DA6E47C0DFFF402A000EAA
:101F280000EC3EF0F40E0101C16F010EC26F000E0D
:101F3800C36F000EC46F22D09A0E0101956F020E76
:101F4800966F000E976F000E986F01019507000EAF
:101F5800965B975B985B01019529F7E1010196294A
:101F6800F4E101019729F1E101019829D8A4EDD7FD
:101F78000101C107000EC25BC35BC45B0101C15113
:101F88000101C2110101C3110101C411D8A4D4D7A0
:101F9800899C020E0101F219D8A461D0000E01013A
:101FA800F26F898C0B0E406E4050010D3D0EF324EC
:101FB800D96E010EF420DA6E660EDF6E402A4050AC
:101FC800010D3D0EF324D96E010EF420DA6E46C0E1
:101FD800DFFF402A4050010D3D0EF324D96E010E5B
:101FE800F420DA6E47C0DFFF402A000E00EC3EF016
:101FF800F40E0101C56F010EC66F000EC76F000E0B
:10200800C86F22D09A0E0101996F020E9A6F000EC6
:102018009B6F000E9C6F01019907000E9A5B9B5BFA
:102028009C5B01019929F7E101019A29F4E1010179
:102038009B29F1E101019C29D8A4EDD70101C5072D
:10204800000EC65BC75BC85B0101C5510101C61123
:102058000101C7110101C811D8A4D4D7899C020E67
:102068000101F219D8A4F5D6000E0101F26FAC0EE9
:1020780000016C6F020E00016D6FE10E00016E6FC2
:10208800FE0E00016F6FBEEC14F0A1EC40F004D01E
:1020980047EC3BF00101F26F0101F2510101D8B4A4
:1020A800F7D70101F205D8A461D0000E0101F26F43
:1020B800898C0B0E406E4050010D3D0EF324D96EF5
:1020C800010EF420DA6E010EDF6E402A4050010D39
:1020D8003D0EF324D96E010EF420DA6E46C0DFFF00
:1020E800402A4050010D3D0EF324D96E010EF42014
:1020F800DA6E47C0DFFF402A000E00EC3EF0F40E17
:102108000101C96F010ECA6F000ECB6F000ECC6FB4
:1021180022D09A0E01019D6F020E9E6F000E9F6FD6
:10212800000EA06F01019D07000E9E5B9F5BA05BE8
:1021380001019D29F7E101019E29F4E101019F298F
:10214800F1E10101A029D8A4EDD70101C907000ECA
:10215800CA5BCB5BCC5B0101C9510101CA1101010A
:10216800CB110101CC11D8A4D4D7899C020E01014E
:10217800F219D8A46ED6000E0101F26FAC0E000160
:102188006C6F020E00016D6F3E0E00016E6FFE0E49
:1021980000016F6FBEEC14F0A1EC40F004D047ECE6
:1021A8003BF00101F26F0101F2510101D8B4F7D7F8
:1021B8000101F205D8A4E8D0000E0101F26FAC0EBF
:1021C80000016C6F020E00016D6FFC0E00016E6F56
:1021D800FD0E00016F6FBEEC14F0A1EC40F004D0CE
:1021E80047EC3BF00101F26F0101F2510101D8B453
:1021F800F7D70101F205D8A461D0000E0101F26FF2
:10220800898C0B0E406E4050010D3D0EF324D96EA3
:10221800010EF420DA6E330EDF6E402A4050010DB5
:102228003D0EF324D96E010EF420DA6E46C0DFFFAE
:10223800402A4050010D3D0EF324D96E010EF420C2
:10224800DA6E47C0DFFF402A000E00EC3EF0F40EC5
:102258000101CD6F010ECE6F000ECF6F000ED06F53
:1022680022D09A0E0101A16F020EA26F000EA36F79
:10227800000EA46F0101A107000EA25BA35BA45B83
:102288000101A129F7E10101A229F4E10101A32932
:10229800F1E10101A429D8A4EDD70101CD07000E71
:1022A800CE5BCF5BD05B0101CD510101CE110101A5
:1022B800CF110101D011D8A4D4D7899C020E0101F5
:1022C800F219D8A461D0000E0101F26F898C0B0EAF
:1022D800406E4050010D3D0EF324D96E010EF420DE
:1022E800DA6E220EDF6E402A4050010D3D0EF324B7
:1022F800D96E010EF420DA6E46C0DFFF402A405046
:10230800010D3D0EF324D96E010EF420DA6E47C09C
:10231800DFFF402A000E00EC3EF0F40E0101D16F01
:10232800010ED26F000ED36F000ED46F22D09A0E1A
:102338000101A56F020EA66F000EA76F000EA86F11
:102348000101A507000EA65BA75BA85B0101A529F3
:10235800F7E10101A629F4E10101A729F1E1010151
:10236800A829D8A4EDD70101D107000ED25BD35B11
:10237800D45B0101D1510101D2110101D311010135
:10238800D411D8A4D4D7899C020E0101F219D8A47B
:1023980060D5000E0101F26FAC0E00016C6F020EE9
:1023A80000016D6F1D0E00016E6FFE0E00016F6F54
:1023B800BEEC14F0A1EC40F004D047EC3BF0010176
:1023C800F26F0101F2510101D8B4F7D70101F2050A
:1023D800D8A4E8D0000E0101F26FAC0E00016C6FBA
:1023E800020E00016D6F5F0E00016E6FFE0E0001A0
:1023F8006F6FBEEC14F0A1EC40F004D047EC3BF05A
:102408000101F26F0101F2510101D8B4F7D70101BE
:10241800F205D8A461D0000E0101F26F898C0B0E71
:10242800406E4050010D3D0EF324D96E010EF4208C
:10243800DA6E060EDF6E402A4050010D3D0EF32481
:10244800D96E010EF420DA6E46C0DFFF402A4050F4
:10245800010D3D0EF324D96E010EF420DA6E47C04B
:10246800DFFF402A000E00EC3EF0F40E0101D56FAC
:10247800010ED66F000ED76F000ED86F22D09A0EBD
:102488000101A96F020EAA6F000EAB6F000EAC6FB0
:102498000101A907000EAA5BAB5BAC5B0101A9298E
:1024A800F7E10101AA29F4E10101AB29F1E10101F8
:1024B800AC29D8A4EDD70101D507000ED65BD75BB0
:1024C800D85B0101D5510101D6110101D7110101D4
:1024D800D811D8A4D4D7899C020E0101F219D8A426
:1024E80061D0000E0101F26F898C0B0E406E4050D6
:1024F800010D3D0EF324D96E010EF420DA6E050E9F
:10250800DF6E402A4050010D3D0EF324D96E010EB6
:10251800F420DA6E46C0DFFF402A4050010D3D0E20
:10252800F324D96E010EF420DA6E47C0DFFF402A8B
:10253800000E00EC3EF0F40E0101D96F010EDA6FC7
:10254800000EDB6F000EDC6F22D09A0E0101AD6F1A
:10255800020EAE6F000EAF6F000EB06F0101AD0737
:10256800000EAE5BAF5BB05B0101AD29F7E1010185
:10257800AE29F4E10101AF29F1E10101B029D8A4A4
:10258800EDD70101D907000EDA5BDB5BDC5B0101EB
:10259800D9510101DA110101DB110101DC11D8A4C3
:1025A800D4D7899C020E0101F219D8A452D4000E86
:1025B8000101F26FAC0E00016C6F020E00016D6F2D
:1025C800B70E00016E6FFD0E00016F6FBEEC14F0C8
:1025D800A1EC40F004D047EC3BF00101F26F01019F
:1025E800F2510101D8B4F7D70101F205D8A431D4CA
:1025F800000E0101F26F898CAC0E00016C6F020EA7
:1026080000016D6F550E00016E6FFF0E00016F6FB8
:10261800BEEC14F0A1EC40F0F40E0101DD6F010EE8
:10262800DE6F000EDF6F000EE06F22D09A0E010100
:10263800B16F020EB26F000EB36F000EB46F0101DE
:10264800B107000EB25BB35BB45B0101B129F7E1DE
:102658000101B229F4E10101B329F1E10101B42931
:10266800D8A4EDD70101DD07000EDE5BDF5BE05B80
:102678000101DD510101DE110101DF110101E0114C
:10268800D8A4D4D7010E0101ED6F0B0E406E405057
:10269800010D3D0EF324D96E010EF420DA6E770E8B
:1026A800DF6E402A4050010D3D0EF324D96E010E15
:1026B800F420DA6E46C0DFFF402A4050010D3D0E7F
:1026C800F324D96E010EF420DA6E47C0DFFF402AEA
:1026D800000E00EC3EF0899C640E0101E16F000ED3
:1026E800E26F000EE36F000EE46F22D09A0E010134
:1026F800B56F020EB66F000EB76F000EB86F01010E
:10270800B507000EB65BB75BB85B0101B529F7E109
:102718000101B629F4E10101B729F1E10101B82964
:10272800D8A4EDD70101E107000EE25BE35BE45BAF
:102738000101E1510101E2110101E3110101E4117B
:10274800D8B40CD1D3D747EC3BF00101F26FAC0EF3
:1027580000016C6F020E00016D6F3A0E00016E6F82
:10276800FF0E00016F6FEEC170F00001716BEFC1D9
:1027780072F00001736BF0C174F00001756BF1C168
:1027880076F00001776BBEEC14F0A1EC40F0640E1B
:102798000101E56F000EE66F000EE76F000EE86FAF
:1027A80022D09A0E0101B96F020EBA6F000EBB6FEC
:1027B800000EBC6F0101B907000EBA5BBB5BBC5BC6
:1027C8000101B929F7E10101BA29F4E10101BB29A5
:1027D800F1E10101BC29D8A4EDD70101E507000EFC
:1027E800E65BE75BE85B0101E5510101E6110101E8
:1027F800E7110101E811D8A4D4D7FBEC46F0000991
:10280800D8B42AD005C1D9FF06C1DAFF900EDE1868
:10281800D8A402D00101EE2B05C1D9FF06C1DAFF09
:10282800910EDE18D8A402D00101EF2B05C1D9FF03
:1028380006C1DAFF920EDE18D8A402D00101F02BEF
:1028480005C1D9FF06C1DAFF930EDE18D8A402D05D
:102858000101F12B21EC47F00101F205D8A47ED04B
:10286800000E0101F26F000E0101ED6F000E010173
:10287800EE6F000E0101EF6F000E0101F06F000E08
:102888000101F16FAC0E00016C6F020E00016D6F5B
:10289800EB0E00016E6FFF0E00016F6FBEEC14F0BF
:1028A800A1EC40F00B0E406E4050010D3D0EF3249C
:1028B800D96E010EF420DA6E880EDF6E402A405081
:1028C800010D3D0EF324D96E010EF420DA6E46C0D8
:1028D800DFFF402A4050010D3D0EF324D96E010E52
:1028E800F420DA6E47C0DFFF402A000E00EC3EF00D
:1028F800F40E0101E96F010EEA6F000EEB6F000E96
:10290800EC6F22D09A0E0101BD6F020EBE6F000E51
:10291800BF6F000EC06F0101BD07000EBE5BBF5B3D
:10292800C05B0101BD29F7E10101BE29F4E1010104
:10293800BF29F1E10101C029D8A4EDD70101E907B8
:10294800000EEA5BEB5BEC5B0101E9510101EA1166
:102958000101EB110101EC11D8A4D4D70101ED0557
:10296800D8A42DEF0FF00101F2510101D8A42DEFE9
:102978000FF0E9D6700E0001876F000E0001886F16
:10298800C7EF19F0250E00018E19D8B40BD06CC012
:10299800D9FF6DC0DAFF8EC0DFFF00016C4B6D2BD5
:1029A800C7EF19F0000E00018D6F000E8C6F000E3E
:1029B8000001906F000E8F6F0ED000018F8708D036
:1029C80000018F8105D00001908702D000018F851A
:1029D80000016E4B6F2B6EC0F6FF6FC0F7FF08004B
:1029E800F550200AD8B4ECD7030AD8B4ECD70E0AAD
:1029F800D8B4E3D71D0AD8B4E9D700018FA702D00D
:102A080000018F956EC0F6FF6FC0F7FF0800F55004
:102A18002BEC46F0D8A041D0000E00018D6F000EBF
:102A28008C6F8CC060F08DC061F0000E0001636F88
:102A38000A0E626FACEC45F060C08CF061C08DF09E
:102A4800D00E0001786FFF0E0001796F6EC0F6FF9F
:102A58006FC0F7FF0800F55000017A6F7B6B00012B
:102A6800785100017A270001795100017B23000188
:102A78007A5100018C2700017B5100018D23000150
:102A88006E4B6F2B6EC0F6FF6FC0F7FF0800F55056
:102A98002BEC46F0D8A01AD0C4D76EC0F6FF6FC092
:102AA800F7FF0800F5502A0AD8A410D087C0D9FF2C
:102AB80088C0DAFFDECF8CF0DDCF8DF0020E00018A
:102AC8008727000E882300016E4B6F2B6EC0F6FF20
:102AD8006FC0F7FF0800F5502E0AD8A440D00001B7
:102AE800908D00016E4B6F2B6EC0F6FF6FC0F7FF25
:102AF8000800F5502A0AD8A410D087C0D9FF88C08A
:102B0800DAFFDF5000018B6F020E00018727000EED
:102B1800882300016E4B6F2BCBD0000E00018B6F0A
:102B280013D06EC0F6FF6FC0F7FF0800F5CF78F03E
:102B380000018B510A0DF35000017825D00F0001D8
:102B48008B6F00016E4B6F2B6EC0F6FF6FC0F7FFE7
:102B58000800F5502BEC46F0D8A0AAD0E2D7000E1A
:102B680000018B6FA5D000018F8DC7D000018F8B1E
:102B780000018F8FC2D000018B510001D8B417D04B
:102B88008BC078F00001796B78BF79070001855117
:102B98000001785D0001865100017959D8B007D04D
:102BA80000018B510001856F866B85BF8607000188
:102BB8008C510001855D00018D5100018659D8B006
:102BC80009D00001855100018C5F00018651000188
:102BD8008D5B05D0000E00018D6F000E8C6F00011B
:102BE8008FA70AD025D06CC0D9FF6DC0DAFF200EA0
:102BF800DF6E00016C4B6D2B00018C07D8A08D0790
:102C080000018C29F0E100018D29D8B411D0EBD74F
:102C18007DC0D9FF7EC0DAFF6CC0E1FF6DC0E2FF66
:102C2800DFCFE7FF00017D4B7E2B00016C4B6D2B46
:102C380000018507D8A0860700018529E9E1000180
:102C48008629D8A4E5D700018FB70AD09CD36CC0D9
:102C5800D9FF6DC0DAFF200EDF6E00016C4B6D2BC3
:102C680000018C07D8A08D0700018C29F0E1000134
:102C78008D29D8B488D3EBD787C0D9FF88C0DAFFAD
:102C8800DF5000018E6F020E00018727000E882397
:102C98008E0E00017D6F000E00017E6F000E000198
:102CA800866F010E856F67D7C00E00018F1325D080
:102CB8006EC0F6FF6FC0F7FF00016E4B6F2B080068
:102CC800F5CF8EF000018E51000AD8B46BD3580AA4
:102CD800D8B44CD73B0AD8B4CFD7070AD8B40DD04C
:102CE8000D0AD8B40AD0060AD8B43DD71A0AD8B4FF
:102CF800DBD70D0AD8B43CD7CBD7C00E00018F154F
:102D08000001786F000E000190150001796F000135
:102D1800785100017911D8A419D087C0D9FF88C08B
:102D2800DAFFDECF89F0DDCF8AF0020E00018727B7
:102D3800000E882300018AAF16D0030E00018F13FE
:102D48000001896D8A1FD8B08A2B0DD087C0D9FFA2
:102D580088C0DAFFDECF89F0DDCF8AF0020E0001ED
:102D68008727000E882300018B510001D8A463D067
:102D78000001895100018A11D8A45DD000018B2B74
:102D88005AD0010E00018E6F050E00018E19D8B4BD
:102D980061D000018E51020DA50EF324F66EFD0ED2
:102DA800F420F76E0900F5500001895D0900F5501F
:102DB80000018A59D8A04ED000018E2BE5D7010E0C
:102DC80000018E6F040E00018E19D8B443D00001A3
:102DD8008E51020DAF0EF324F66EFD0EF420F76E41
:102DE8000900F5500001895D0900F55000018A5974
:102DF800D8A030D000018E2BE5D7010E00018E6FD0
:102E0800060E00018E19D8B425D000018E51020D8E
:102E1800990EF324F66EFD0EF420F76E0900F550B6
:102E28000001895D0900F55000018A59D8A012D027
:102E380000018E2BE5D700018F51C00B000AD8B4D2
:102E4800A0D7400AD8B4D9D7C00AD8B4B8D7400A4E
:102E5800D8B497D700018E51800A0001786F00011D
:102E68008B51800A0001785DD8B003D08BC08EF0FA
:102E78000DD000018B51800A0001786F00018E513E
:102E8800800A0001785DD8A08EC08BF000018C51BB
:102E980000018D11D8B414D0030E00018F15000164
:102EA800786F000E000190150001796F00017851CC
:102EB80000017911D8B404D000018C07D8A08D077F
:102EC800000190AD21D0800E00018BBF7F0E000164
:102ED800786F00018C5100018B5D00018D51800AD3
:102EE80000017859D8B00BD000018B5100018C5FDC
:102EF800000E00018BBFFF0E00018D5B05D0000E98
:102F080000018D6F000E8C6FC40E0001786F080EE3
:102F18000001796F8FC07AF090C07BF00001785182
:102F280000017A170001795100017B17400E00015A
:102F38007A1910E1080E00017B19D8A40BD0000102
:102F48008C5100018D11D8B436D000018C07D8A05F
:102F58008D0731D0C00E0001786F080E0001796F1F
:102F68008FC07AF090C07BF00001785100017A1789
:102F78000001795100017B17800E00017A191BE1CD
:102F8800080E00017B19D8A416D000018DBF0ED001
:102F980000018D5105E1030E00018C5DD8A006D01B
:102FA8000001FE0E8C27FF0E8D2305D0000E0001B8
:102FB8008D6F000E8C6F800E00018EBF7F0E00019A
:102FC800786F00018C5100018E5D00018D51800ADF
:102FD80000017859D8B00BD000018E5100018C5FE8
:102FE800000E00018EBFFF0E00018D5B05D0000EA4
:102FF80000018D6F000E8C6F00018FA570D0030E3D
:1030080000018F150001786F000E00019015000176
:10301800796F0001785100017911D8B40AD06CC0D9
:10302800D9FF6DC0DAFF2D0E0CD000016C4B6D2B53
:1030380042D000018FA107D06CC0D9FF6DC0DAFF64
:10304800200EDF6EF2D7C00E0001786F080E000167
:10305800796F8FC07AF090C07BF000017851000141
:103068007A170001795100017B17800E00017A1947
:1030780022E1080E00017B19D8A41DD06CC0D9FF2D
:103088006DC0DAFF300EDF6E00016C4B6D2B000156
:103098008FBB05D0000E0001806F780E04D0000EA3
:1030A8000001806F580E7F6F6CC0D9FF6DC0DAFFCA
:1030B8007FC0DFFFBAD700018C5100018D11D8B451
:1030C8003CD16CC0D9FF6DC0DAFF300EDF6E000155
:1030D8006C4B6D2B00018C07D8A08D07ECD7000135
:1030E8008C5100018D11D8B416D000018FB713D0C0
:1030F8006CC0D9FF6DC0DAFF200EDF6E00016C4B8B
:103108006D2B00018C07D8A08D0700018C510001A0
:103118008D11D8A4EDD7030E00018F150001786F2B
:10312800000E000190150001796F0001785100012F
:103138007911D8B40AD06CC0D9FF6DC0DAFF2D0E52
:103148000CD000016C4B6D2B0AD000018FA107D069
:103158006CC0D9FF6DC0DAFF200EDF6EF2D7C00E4B
:103168000001786F080E0001796F8FC07AF090C067
:103178007BF00001785100017A17000179510001B4
:103188007B17400E00017A190CE1080E00017B192B
:10319800D8A407D06CC0D9FF6DC0DAFF300EDF6E3F
:1031A800C9D0C00E0001786F080E0001796F8FC07A
:1031B8007AF090C07BF00001785100017A17000185
:1031C800795100017B17800E00017A1904E1080E7D
:1031D80000017B19D8A4B1D06CC0D9FF6DC0DAFF4B
:1031E800300EDF6E00016C4B6D2B00018FBB05D0DC
:1031F800000E0001826F780E04D0000E0001826F6D
:10320800580E816F6CC0D9FF6DC0DAFF81C0DFFF37
:1032180091D000018B51020DA50EF324F66EFD0E20
:10322800F420F76E0900F5CF62F00A00F5CF63F0DD
:1032380089C060F08AC061F096EC42F060C067F027
:1032480061C068F0000E00016A6F0A0E696FDFEC5A
:1032580043F00001675155D089C060F08AC061F021
:1032680000018B51020DAF0EF324F66EFD0EF42013
:10327800F76E0900F5CF62F00A00F5CF63F096EC1F
:1032880042F0000160510F0B00017C6F00018FBB01
:1032980005D0A90E0001836FFF0E04D0980E00011F
:1032A800836FFF0E0001846F00017C51010D83C004
:1032B80078F084C079F0F35000017827F4500001C9
:1032C800792378C0F6FF79C0F7FF0800F5CF8EF0B4
:1032D8002BD089C060F08AC061F000018B51020DCB
:1032E800990EF324F66EFD0EF420F76E0900F5CF63
:1032F80062F00A00F5CF63F096EC42F000016051ED
:10330800070B300F00018E6F0FD000018F51C00BDB
:10331800000AD8B47ED7400AD8B4DBD7C00AD8B4DC
:103328009BD7400AD8B475D76CC0D9FF6DC0DAFFF7
:103338008EC0DFFF00016C4B6D2B00018B07000175
:103348008B29D8A4E2D700018FA71DD000018DBF1B
:103358001AD000018D5104E100018C05D8A013D0CA
:103368006CC0D9FF6DC0DAFF200EDF6E00016C4B18
:103378006D2B00018C07D8A08D0700018C5100012E
:103388008D11D8A4EDD76EC0F6FF6FC0F7FF00010E
:103398006E4B6F2B0800F5CF8EF000018E51D8A42C
:1033A800C6EF14F06CC0D9FF6DC0DAFF000EDF6EF7
:1033B8001200000E0001AB6F000E406E0001A85114
:1033C8000001D8B418D0A6C0D9FFA7C0DAFFDF50D3
:1033D800486E000120EE01F0A651D926A751DA2245
:1033E800DF50496ED0EC41F00001AD6F0001AD290E
:1033F800D8B45ED324D0000E0001AE6F070E0001D2
:10340800AE6501D019D00001AE51010DF350000195
:10341800A425D96EF4500001A521DA6E0001AE5141
:10342800010D1A0EF324E16E010EF420E26EDFCFD7
:10343800E7FF0001AE2BE2D77EEC3EF0D5D7000EB9
:103448000001AE6F010E0001AE6501D052D200013D
:10345800AE51430D0E0EF326000EF422000EF32497
:10346800D96E040EF420DA6E0401DFA03FD2000109
:10347800AE51430D0E0EF326000EF422000EF32477
:10348800D96E040EF420DA6E0401DFB21CD10001FB
:10349800AE51430D0E0EF326000EF422000EF32457
:1034A800D96E040EF420DA6E0401DFA80CD10001F5
:1034B800AE51430D060EF326000EF422000EF3243F
:1034C800D96E040EF420DA6E0001AD510E0D020E15
:1034D800F326000EF422200EF324E16E020EF420EF
:1034E800E26EDE50E618D8A4EED00001AE51430DCE
:1034F800070EF326000EF422000EF324D96E040EF4
:10350800F420DA6E0001AD510E0D030EF326000E05
:10351800F422200EF324E16E020EF420E26EDE5057
:10352800E618D8A4D0D0000E0001AC6F2BD0000153
:10353800AC51010D100EF326000EF422000E00010E
:10354800A96F040E0001AA6FF3500001A927F450D7
:103558000001AA230001AE51430DF3500001A92533
:10356800D96EF4500001AA21DA6E4050010D3D0ECB
:10357800F324E16E010EF420E26EDFCFE7FF402A6C
:103588000001AC2B0001AE51430D0F0EF326000EC7
:10359800F422000EF324D96E040EF420DA6EDE5005
:1035A8000001AC5DD8A0C3D70001AE51430D0E0E8B
:1035B800F326000EF422000EF324D96E040EF42034
:1035C800DA6E0401DFA41ED0440E00019D6F000EC8
:1035D80000019E6F0001AD510E0D020EF326000E84
:1035E800F422200EF32400019F6F020EF420000144
:1035F800A06F010E0001A16F0C0E0001A26F4CEC30
:1036080040F051D0000E326E32500001AB19FC0B65
:10361800AB19326E328A0001AE51430D0E0EF326FD
:10362800000EF422000EF324D96E040EF420DA6E94
:103638000401DFA602D0328601D032960001AD51D6
:103648000E0D020EF326000EF422200EF324336E24
:10365800020EF420346E010E356E010E366E000136
:10366800AE51430D040EF326000EF422000EF3248F
:10367800D96E040EF420DA6EDECF37F0DDCF38F0E5
:1036880020EE32F000EE7EF0060EDBCFEBFFE80610
:10369800FCE23D0E0001856F010E0001866F40C0FF
:1036A80087F0C2EC28F00001AE51430D0E0EF32650
:1036B800000EF422000EF324D96E040EF420DA6E04
:1036C8000401DF9012000001AE51430D0E0EF326E7
:1036D800000EF422000EF324D96E040EF420DA6EE4
:1036E8000401DFB203D10001AE51430D0E0EF326E3
:1036F800000EF422000EF324D96E040EF420DA6EC4
:103708000401DFB8F3D00001AD510E0D040EF3260D
:10371800000EF422200EF3240001606F020EF42044
:103728000001616F0001AE51430D060EF326000E35
:10373800F422000EF3240001626F040EF42000014D
:10374800636F96EC44F00009D8B4D0D0000E0001A5
:10375800AC6F2BD00001AC51010D100EF326000EFA
:10376800F422000E0001A96F040E0001AA6FF350A5
:103778000001A927F4500001AA230001AE51430D0E
:10378800F3500001A925D96EF4500001AA21DA6E80
:103798004050010D3D0EF324E16E010EF420E26E5F
:1037A800DFCFE7FF402A0001AC2B0001AE51430DEB
:1037B8000F0EF326000EF422000EF324D96E040E29
:1037C800F420DA6EDE500001AC5DD8A0C3D700014A
:1037D800AE51430D0E0EF326000EF422000EF32414
:1037E800D96E040EF420DA6E0401DFA41ED0440E54
:1037F80000019D6F000E00019E6F0001AD510E0D7E
:10380800040EF326000EF422200EF32400019F6F0D
:10381800020EF4200001A06F010E0001A16F000E3E
:103828000001A26F4CEC40F051D0000E326E3250C5
:103838000001AB19FC0BAB19326E328A0001AE5194
:10384800430D0E0EF326000EF422000EF324D96E5B
:10385800040EF420DA6E0401DFA602D0328601D00D
:1038680032960001AD510E0D040EF326000EF4221F
:10387800200EF324336E020EF420346E000E356EE3
:10388800010E366E0001AE51430D040EF326000EF4
:10389800F422000EF324D96E040EF420DA6EDECF83
:1038A80037F0DDCF38F020EE32F000EE7EF0060E75
:1038B800DBCFEBFFE806FCE23D0E0001856F010E51
:1038C8000001866F40C087F0C2EC28F00001AE51BD
:1038D800430D0E0EF326000EF422000EF324D96ECB
:1038E800040EF420DA6E0401DF9012000001AE2B02
:1038F800A9D5000E0001AE6F010E0001AE6501D022
:10390800D7D00001AE51430D0E0EF326000EF4225F
:10391800000EF324D96E040EF420DA6E0401DFA041
:10392800C4D00001AE51430D0E0EF326000EF42252
:10393800000EF324D96E040EF420DA6E0401DFA21F
:10394800B4D0000E0001AC6F2BD00001AC51010DBA
:10395800100EF326000EF422000E0001A96F040ECB
:103968000001AA6FF3500001A927F4500001AA230F
:103978000001AE51430DF3500001A925D96EF45052
:103988000001AA21DA6E4050010D3D0EF324E16ECC
:10399800010EF420E26EDFCFE7FF402A0001AC2BD6
:1039A8000001AE51430D0F0EF326000EF422000E57
:1039B800F324D96E040EF420DA6EDE500001AC5DFB
:1039C800D8A0C3D7000E326E32500001AB19FC0BE1
:1039D800AB19326E0001AE51430D0E0EF326000EE8
:1039E800F422000EF324D96E040EF420DA6E0401DA
:1039F800DFA404D03250FC0B0109326E328A328EB9
:103A08000001AE51430D0E0EF326000EF422000EF7
:103A1800F324D96E040EF420DA6E0401DFA602D076
:103A2800328601D03296010E366E0001A85100018F
:103A3800D8B407D0010E356E0001AD510E0D020E3F
:103A480006D0000E356E0001AD510E0D040EF326A2
:103A5800000EF422200EF324336E020EF420346E8E
:103A68000001AE51430D040EF326000EF422000EA1
:103A7800F324D96E040EF420DA6EDECF37F0DDCFF2
:103A880038F020EE32F000EE7EF0060EDBCFEBFFD2
:103A9800E806FCE23D0E0001856F010E0001866F0D
:103AA80040C087F0C2EC28F012000001AE2B24D7EA
:103AB8000001A8510001D8B412D0440E00019D6F36
:103AC800000E00019E6FA6C09FF0A7C0A0F0ABC07B
:103AD800A1F00C0E0001A26F4CEC40F01200440E55
:103AE80000019D6F000E00019E6FA4C09FF0A5C04D
:103AF800A0F0ABC0A1F0040E0001A26F4CEC40F0A6
:103B0800120081A0F2823EA012D00101305105E1DD
:103B1800800E01012F5DD8A007D0000E0101306F83
:103B2800000E2F6F3E9003D001012F4B302B4B68B6
:103B3800000E0001676F010E0001676501D012D009
:103B480000016751500D3C0EF324D96E030EF4208A
:103B5800DA6EDF50D8B403D067C04BF003D0000151
:103B6800672BE9D7020E4B6033D3010E0001686F53
:103B78004B50500D010EF326000EF4223C0EF32498
:103B8800D96E030EF420DA6E0301DFBC03D0000EF9
:103B98000001686F000E276E000E2F6E4B50500DFF
:103BA800020EF326000EF4223C0EF324D96E030E07
:103BB800F420DA6EDF50CC0B0001666F55D24B5003
:103BC800500D060EF326000EF4223C0EF324D96E97
:103BD800030EF420DA6EDE28D8A40FD04B50500D17
:103BE800070EF326000EF4223C0EF324D96E030EC2
:103BF800F420DA6EDE28D8B42784278E00016851B5
:103C08000001D8B429D04B50500D040EF326000EF5
:103C1800F4223C0EF324D96E030EF420DA6EDF5042
:103C2800306E4B50500D050EF326000EF4223C0E5C
:103C3800F324D96E030EF420DA6EDF50316E4B5048
:103C4800500D080EF326000EF4223C0EF324286EC5
:103C5800030EF420296E96D14B50500D080EF32612
:103C6800000EF4223C0EF324D96E030EF420DA6E13
:103C7800DF50306E4B50500D090EF326000EF42223
:103C88003C0EF324D96E030EF420DA6EDF50316E49
:103C98004B50500D0A0EA4D14B50500D3C0EF3243E
:103CA800D96E030EF420DA6EDF50EB0F2C6E4B50FA
:103CB800500D120ECBD1278E000168510001D8B4E7
:103CC80037D04B50500D040EF326000EF4223C0E54
:103CD800F324D96E030EF420DA6EDF50306E4B50A9
:103CE800500D050EF326000EF4223C0EF324D96E77
:103CF800030EF420DA6EDF50316E4B50500D0E0E6D
:103D0800F326000EF4223C0EF324286E030EF42052
:103D1800296E4B50500D3C0EF324D96E030EF4203F
:103D2800DA6EDF50E70F2C6E4B50500D160E8ED109
:103D38004B50500D0E0EF326000EF4223C0EF324C9
:103D4800D96E030EF420DA6EDF50306E4B50500DF2
:103D58000F0EF326000EF4223C0EF324D96E030E48
:103D6800F420DA6EDF50316E4B50500D100EF326F2
:103D7800000EF4223C0EF324286E030EF420296E64
:103D88004B50500D3C0EF324D96E030EF420DA6E1E
:103D9800DF50E50F2C6E4B50500D180E57D127846D
:103DA800278E010E2F6E4B50500D040EF326000E79
:103DB800F4223C0EF324D96E030EF420DA6EDF50A1
:103DC800306E4B50500D050EF326000EF4223C0EBB
:103DD800F324D96E030EF420DA6EDF50316E4B50A7
:103DE800500D060EF326000EF4223C0EF324286E26
:103DF800030EF420296E4B50500D3C0EF324D96E5F
:103E0800030EF420DA6EDF50F50F1CD14B50500D25
:103E1800060EF326000EF4223C0EF324D96E030E90
:103E2800F420DA6EDE28D8A40FD04B50500D070EC0
:103E3800F326000EF4223C0EF324D96E030EF42070
:103E4800DA6EDE28D8B42784278E010E2F6E000183
:103E580068510001D8A437D04B50500D080EF326F6
:103E6800000EF4223C0EF324D96E030EF420DA6E11
:103E7800DF50306E4B50500D090EF326000EF42221
:103E88003C0EF324D96E030EF420DA6EDF50316E47
:103E98004B50500D0A0EF326000EF4223C0EF3246C
:103EA800286E030EF420296E4B50500D3C0EF3245F
:103EB800D96E030EF420DA6EDF50F10F2C6E4B50E2
:103EC800500D0C0EC3D04B50500D040EF326000EAF
:103ED800F4223C0EF324D96E030EF420DA6EDF5080
:103EE800306E4B50500D050EF326000EF4223C0E9A
:103EF800F324D96E030EF420DA6EDF50316E4B5086
:103F0800500D080EF326000EF4223C0EF324286E02
:103F1800030EF420296E4B50500D3C0EF324D96E3D
:103F2800030EF420DA6EDF50F30F2C6E4B50500D59
:103F38000A0E8CD0278E010E2F6E000168510001E9
:103F4800D8B42FD04B50500D040EF326000EF42297
:103F58003C0EF324D96E030EF420DA6EDF50306E77
:103F68004B50500D050EF326000EF4223C0EF324A0
:103F7800D96E030EF420DA6EDF50316E4B50500DBF
:103F88000D0E60D64B50500D3C0EF324D96E030E27
:103F9800F420DA6EDF50ED0F2C6E4B50500D100EE2
:103FA80055D04B50500D0D0EF326000EF4223C0E4A
:103FB800F324D96E030EF420DA6EDF50306E4B50C6
:103FC800500D0E0EF326000EF4223C0EF324D96E8B
:103FD800030EF420DA6EDF50316E4B50500D0F0E89
:103FE800F326000EF4223C0EF324286E030EF42070
:103FF800296E52D64B50500D060EF326000EF422B1
:104008003C0EF324D96E030EF420DA6EDE28D8A411
:104018000FD04B50500D070EF326000EF4223C0E25
:10402800F324D96E030EF420DA6EDE28D8B4278480
:104038004B50500D3C0EF324D96E030EF420DA6E6B
:10404800DF50F60F2C6E4B50500D080EF326000E65
:10405800F4223C0EF3242A6E030EF4202B6E19D0A2
:10406800B4EC46F0000E120000016651080AD8B4FC
:10407800C1D7880AD8B493D6080AD8B4C7D6040AD0
:10408800D8B458D7440AD8B49AD5040AD8B413D6A1
:10409800E7D74B50500D010EF326000EF4223C0ECC
:1040A800F324D96E030EF420DA6E0301DFA613D0D1
:1040B800B4EC46F0000E1200FC0E27162ED0275046
:1040C800FC0B0109276E29D0030E271226D0B4EC69
:1040D80046F0000E12004B50500D010EF326000E54
:1040E800F4223C0EF324D96E030EF420DA6EDF506E
:1040F800070B0001606F616B00016151000AD8A4D1
:10410800E6D700016051000AD8B4DED7010AD8B456
:10411800D3D7020AD8B4D3D7DAD7FF0E0001606F1D
:10412800FF0E0001616F4B50500D3C0EF324D96E09
:10413800030EF420DA6EDF500001626F636B00013A
:1041480060510001622700016151000163233C0EA8
:104158000001646F030E0001656F000162510001E8
:10416800642700016351000165234B50500DF35043
:1041780000016425D96EF45000016521DA6EDF5024
:104188002E6E4B50500D3C0EF324D96E030EF420C6
:10419800DA6EDF500001606F4B50500D3C0E00018D
:1041A800616F030E0001626FF35000016127F45044
:1041B800000162230001605100016125D96E0001F0
:1041C800000E00016221DA6EDF502D6E010E120022
:1041D800000E1200FBEC46F00009D8B4120005C12D
:1041E800D9FF06C1DAFF770EDE18D8A43BD0010E3E
:1041F8000101386F898CF40E0101AD6F010EAE6FAD
:10420800000EAF6F000EB06F22D09A0E0101916FB1
:10421800020E926F000E936F000E946F01019107CA
:10422800000E925B935B945B01019129F7E1010118
:104238009229F4E101019329F1E101019429D8A41B
:10424800EDD70101AD07000EAE5BAF5BB05B0101BE
:10425800AD510101AE110101AF110101B011D8A496
:10426800D4D7899C21EC47F005C1D9FF06C1DAFFF4
:10427800880EDE18D8A43BD0000E0101386F898C57
:10428800F40E0101B16F010EB26F000EB36F000E94
:10429800B46F22D09A0E0101956F020E966F000E30
:1042A800976F000E986F01019507000E965B975B5C
:1042B800985B01019529F7E101019629F4E10101D3
:1042C8009729F1E101019829D8A4EDD70101B10797
:1042D800000EB25BB35BB45B0101B1510101B211D5
:1042E8000101B3110101B411D8A4D4D7899C21ECE0
:1042F80047F001013805D8A41200AC0E00016C6F1C
:10430800020E00016D6F800E00016E6FFE0E00013F
:104318006F6FBEEC14F0A1EC40F004D047EC3BF01A
:104328000101396F01013951D8B4F8D701013905B4
:10433800D8A461D0000E0101396F898C0B0E406E34
:104348004050010D3D0EF324D96E010EF420DA6EB3
:10435800900EDF6E402A4050010D3D0EF324D96EB9
:10436800010EF420DA6E46C0DFFF402A4050010DEE
:104378003D0EF324D96E010EF420DA6E47C0DFFF3C
:10438800402A000E00EC3EF0F40E0101B56F010E5C
:10439800B66F000EB76F000EB86F22D09A0E0101EB
:1043A800996F020E9A6F000E9B6F000E9C6F0101B1
:1043B8009907000E9A5B9B5B9C5B01019929F7E1C9
:1043C80001019A29F4E101019B29F1E101019C29EC
:1043D800D8A4EDD70101B507000EB65BB75BB85B93
:1043E8000101B5510101B6110101B7110101B8115F
:1043F800D8A4D4D7899C020E01013919D8A48DD12B
:10440800000E0101396FAC0E00016C6F020E000145
:104418006D6F000E00016E6FFF0E00016F6FBEEC36
:1044280014F0A1EC40F004D047EC3BF00101396FE7
:1044380001013951D8B4F8D701013905D8A461D0A0
:10444800000E0101396F898C0B0E406E4050010D32
:104458003D0EF324D96E010EF420DA6E910EDF6E54
:10446800402A4050010D3D0EF324D96E010EF42070
:10447800DA6E46C0DFFF402A4050010D3D0EF3249E
:10448800D96E010EF420DA6E47C0DFFF402A000E15
:1044980000EC3EF0F40E0101B96F010EBA6F000E88
:1044A800BB6F000EBC6F22D09A0E01019D6F020EE9
:1044B8009E6F000E9F6F000EA06F01019D07000EFA
:1044C8009E5B9F5BA05B01019D29F7E101019E298D
:1044D800F4E101019F29F1E10101A029D8A4EDD758
:1044E8000101B907000EBA5BBB5BBC5B0101B951A6
:1044F8000101BA110101BB110101BC11D8A4D4D723
:10450800899C020E01013919D8A407D1000E0101B6
:10451800396FAC0E00016C6F020E00016D6F1D0E3D
:1045280000016E6FFF0E00016F6FBEEC14F0A1EC7E
:1045380040F004D047EC3BF00101396F01013951DB
:10454800D8B4F8D701013905D8A461D0000E01010B
:10455800396F898C0B0E406E4050010D3D0EF324CF
:10456800D96E010EF420DA6E920EDF6E402A4050AA
:10457800010D3D0EF324D96E010EF420DA6E46C00B
:10458800DFFF402A4050010D3D0EF324D96E010E85
:10459800F420DA6E47C0DFFF402A000E00EC3EF040
:1045A800F40E0101BD6F010EBE6F000EBF6F000E4D
:1045B800C06F22D09A0E0101A16F020EA26F000EE9
:1045C800A36F000EA46F0101A107000EA25BA35BFD
:1045D800A45B0101A129F7E10101A229F4E101018C
:1045E800A329F1E10101A429D8A4EDD70101BD0750
:1045F800000EBE5BBF5BC05B0101BD510101BE1176
:104608000101BF110101C011D8A4D4D7899C020EA1
:1046180001013919D8A481D0000E0101396FAC0EFF
:1046280000016C6F020E00016D6FDC0E00016E6FF1
:10463800FF0E00016F6FBEEC14F0A1EC40F004D047
:1046480047EC3BF00101396F01013951D8B4F8D773
:1046580001013905D8A461D0000E0101396F898C98
:104668000B0E406E4050010D3D0EF324D96E010E25
:10467800F420DA6E930EDF6E402A4050010D3D0E95
:10468800F324D96E010EF420DA6E46C0DFFF402A0B
:104698004050010D3D0EF324D96E010EF420DA6E60
:1046A80047C0DFFF402A000E00EC3EF0F40E010187
:1046B800C16F010EC26F000EC36F000EC46F22D00F
:1046C8009A0E0101A56F020EA66F000EA76F000ECD
:1046D800A86F0101A507000EA65BA75BA85B0101F7
:1046E800A529F7E10101A629F4E10101A729F1E1D2
:1046F8000101A829D8A4EDD70101C107000EC25BAA
:10470800C35BC45B0101C1510101C2110101C311A5
:104718000101C411D8A4D4D7899CAC0E00016C6FD8
:10472800020E00016D6FA10E00016E6FFE0E0001FA
:104738006F6FBEEC14F0A1EC40F04AD0FBEC46F0F1
:104748000009D8B443D005C1D9FF06C1DAFF880EE5
:10475800DE18D8A43BD0000E0101386F898CF40E06
:104768000101C56F010EC66F000EC76F000EC86F3E
:1047780022D09A0E0101A96F020EAA6F000EAB6F2C
:10478800000EAC6F0101A907000EAA5BAB5BAC5B26
:104798000101A929F7E10101AA29F4E10101AB29E5
:1047A800F1E10101AC29D8A4EDD70101C507000E3C
:1047B800C65BC75BC85B0101C5510101C611010198
:1047C800C7110101C811D8A4D4D7899C21EC47F09E
:1047D80001013805D8A41200B1D7010E0101AF6F4D
:1047E800A0EC3FF0898E898C8B84F3EC3BF0000EB3
:1047F80087EC3AF00101FC5169EC46F00009D8B4A5
:104808001200000E15EC46F00001FD510001FE11EA
:10481800D8B454D046D2000E87EC3AF0000E00010E
:10482800936F000E0001946F000E956F000E966F47
:10483800000E976F000E82EC3DF073EC45F0AC0E65
:1048480000016C6F020E00016D6F6F0E00016E6F3C
:10485800FF0E00016F6F45C070F00001716B44C01E
:1048680072F00001736BFCC174F00001756BBEEC53
:1048780014F0BC0E00016C6F020E00016D6F860E05
:1048880000016E6FFF0E00016F6F47C070F00001EE
:10489800716B46C072F00001736BBEEC14F0A1ECB2
:1048A80040F006D0FBEC46F00009D8A421EC47F014
:1048B80002012CAFF7D7000E0101AF6F0101AF0560
:1048C800D8A41200A8D7000E87EC3AF0FCC1A4F1D6
:1048D800F00E0101A427000E0101A56F000EA66FBE
:1048E800010EA76F000EA86F0101A42B06D0D89067
:1048F8000101A537A637A737A8370101A42FF7D795
:10490800A5C1DAF0A6C1DBF0A7C1DCF0A8C1DDF0D3
:104918000A0E6AEC38F00101B26F0101B2510101CF
:10492800D8B4B1D1000E0101B16FA3D1000E0101BD
:10493800AE6F0101B1510101D8B479D0000E010167
:10494800AE6F000E0101B06F42D00101B0510F0DE2
:104958000A0EF326000EF422000EF324D96E030E7D
:10496800F420DA6E0101B1510F0D0A0EF326000E84
:10497800F422000EF324E16E030EF420E26EDE5002
:10498800E618D8A422D00101B0510F0D090EF32664
:10499800000EF422000EF324D96E030EF420DA6E12
:1049A8000101B1510F0D090EF326000EF422000E7D
:1049B800F324E16E030EF420E26EDE50E618D8A46C
:1049C80004D0010E0101AE6F08D00101B02B010126
:1049D800B1510101B05DD8A0B8D70101AE05D8A486
:1049E80026D00101B1510101A46FA56BFF0E010191
:1049F800A66FFF0E0101A76F0101B2510101A86F57
:104A0800A96B0101A6510101A8270101A7510101C4
:104A1800A9230101A4510101A81905E10101A5512A
:104A28000101A919D8A423D10101B16920D1000E2F
:104A38000101AD6F0B0E406E000E0101B06F40D04A
:104A48000101B0510F0D0A0EF326000EF422000EDC
:104A5800F324D96E030EF420DA6E0101B1510F0D63
:104A68000A0EF326000EF422000EF324E16E030E64
:104A7800F420E26EDE50E618D8A420D00101B0512F
:104A88000F0D0A0EF326000EF422000EF324D96E41
:104A9800030EF420DA6E0101B1510F0D0A0EF32650
:104AA800000EF422000EF324E16E030EF420E26EF1
:104AB800DE50E618D8A402D00101AD2B0101B02BBD
:104AC8000101B2510101B05DD8A0BAD7010E0101B0
:104AD800AD6592D0000E0101AA6F000E0101AB6F07
:104AE8000B0E406E4050010D3D0EF324D96E010EA1
:104AF800F420DA6E040EDF6E402A0101B1510F0D69
:104B08000A0EF326000EF422000EF324D96E030ECB
:104B1800F420DA6E4050010D3D0EF324E16E010ED3
:104B2800F420E26EDFCFE7FF402A0101B1510F0DFB
:104B3800090EF326000EF422000EF324D96E030E9C
:104B4800F420DA6E4050010D3D0EF324E16E010EA3
:104B5800F420E26EDFCFE7FF402A000E00EC3EF0C3
:104B6800000E0101B06F42D00101B0510F0D0A0EC5
:104B7800F326000EF422000EF324D96E030EF4205F
:104B8800DA6E0101B1510F0D0A0EF326000EF42260
:104B9800000EF324E16E030EF420E26EDE50E618F8
:104BA800D8A422D00101B0510F0D090EF326000E32
:104BB800F422000EF324D96E030EF420DA6E0101FC
:104BC800B1510F0D090EF326000EF422000EF32446
:104BD800E16E030EF420E26EDE50E618D8A404D08D
:104BE8000101AB2BB0C1AAF10101B02B0101B251F7
:104BF8000101B05DD8A0B8D7000E0001FC6F01011B
:104C0800B15123EC2BF00101AC6F0101AC29D8B4F0
:104C1800F1D5000E0101AF6F0B0E406E4050010D33
:104C28003D0EF324D96E010EF420DA6E050EDF6E08
:104C3800402A4050010D3D0EF324D96E010EF42098
:104C4800DA6E45C0DFFF402A4050010D3D0EF324C7
:104C5800D96E010EF420DA6E44C0DFFF402A000E40
:104C680000EC3EF00101AF510101D8B408D00101B8
:104C7800B12B0101B2510101B15DD8A057D6000E88
:104C88000101AF6F0ED0DB0E0001916FFD0E000128
:104C9800926F000E0001936F000E0001946F41ECBB
:104CA80044F00101AF05D8A412000DD60001A851A7
:104CB800070B0001AD6F0001AD514718D8A444D0CF
:104CC800800E0001A76513D0A5C06AF0A6C06BF0DE
:104CD800A70E00016C6F000E00016D6F010E000140
:104CE8006E6FA9C06FF0000EADEC34F01200000E2C
:104CF800326E328A0001A9B102D0329601D03286D2
:104D0800A7C048F0A8C049F0010E356E010E366EF6
:104D1800480E336E000E346E44C037F045C038F08C
:104D280020EE32F000EE7EF0060EDBCFEBFFE80659
:104D3800FCE23D0E0001856F010E0001866F40C048
:104D480087F0C2EC28F01200ADC0AAF0010E0001F5
:104D5800AB6F0001AA2B03D00001D890AB3700013C
:104D6800AA2FFAD70001AB51010137150009D8B4B1
:104D780080D00001AD51010D0A0EF324D96E010E49
:104D8800F420DA6E020EDF642DD00001AD51010D62
:104D98000A0EF324D96E010EF420DA6E000EDF6ECF
:104DA800ADC0AAF0010E0001AB6F0001AA2B03D021
:104DB8000001D890AB370001AA2FFAD70001AB51F8
:104DC800FF0A010137170001AD51010D120EF3243E
:104DD800D96E010EF420DA6E000EDF6EFFEC3CF0A7
:104DE800000E1200000E326E328A0001A9B102D004
:104DF800329601D03286000E486EADC049F0010EE1
:104E0800356E010E366E480E336E000E346E44C099
:104E180037F045C038F020EE32F000EE7EF0060E96
:104E2800DBCFEBFFE806FCE23D0E0001856F010ECB
:104E38000001866F40C087F0C2EC28F00009D8A4B2
:104E48000BD00001AD51010D0A0EF324D96E010EED
:104E5800F420DA6EDF2AC4D70001AD51010D0A0E25
:104E6800F324D96E010EF420DA6E000EDF6E010E07
:104E78001200000E0001AE6F070E0001AE6501D0F2
:104E8800D8D00001AE51010D120EF324D96E010ED7
:104E9800F420DA6EDF500001AA6FADC0ABF0010E4E
:104EA8000001AC6F0001AB2B03D00001D890AC37E8
:104EB8000001AB2FFAD70001AC510001AA15000977
:104EC800D8B4B4D00001AE51010D0A0EF324D96E46
:104ED800010EF420DA6E020EDF6460D00001AE51DC
:104EE800010D0A0EF324D96E010EF420DA6E000EBD
:104EF800DF6EAEC0AAF0010E0001AB6F0001AA2B55
:104F080003D00001D890AB370001AA2FFAD70001CF
:104F1800AB51FF0A010137170001AE51010D120E06
:104F2800F324D96E010EF420DA6E000EDF6E4250C3
:104F3800D8B403D0FFEC3CF02FD0000E406E4050A8
:104F4800010D3D0EF324D96E010EF420DA6E070E22
:104F5800DF6E402A4050010D3D0EF324D96E010E3C
:104F6800F420DA6E4AC0DFFF402A01018F69906998
:104F78008F0E00019D6F010E00019E6F000E000153
:104F88009F6F000E0001A06F010E0001A16F000EBF
:104F98000001A26F4CEC40F0000E1200000E326EC1
:104FA800328A0001A9B102D0329601D03286000EB1
:104FB800486EAEC049F0010E356E010E366E480ED1
:104FC800336E000E346E44C037F045C038F020EE22
:104FD80032F000EE7EF0060EDBCFEBFFE806FCE2D7
:104FE8003D0E0001856F010E0001866F40C087F0FD
:104FF800C2EC28F00009D8A40CD00001AE51010D74
:105008000A0EF324D96E010EF420DA6EDF2A000EA0
:1050180012000001AE51010D0A0EF324D96E010EE3
:10502800F420DA6E000EDF6E010E12000001AE2BC6
:1050380023D7020E4218D8B469D0000E326E328AD5
:105048000001A9B102D0329601D032864204D8B408
:105058002ED0000E0001AE6F070E0001AE6501D024
:105068001FD001013751D8B418D0AEC0AAF0010E34
:105078000001AB6F000E0001AC6F0001AA2B04D039
:10508800D8900001AB37AC370001AA2FF9D700013F
:10509800AB510001AC11D8A403D00001AE2BDCD772
:1050A800080E0001AE6103D0AEC049F002D0000E78
:1050B800496E000E486E010E356E010E366E480EB2
:1050C800336E000E346E44C037F045C038F020EE21
:1050D80032F000EE7EF0060EDBCFEBFFE806FCE2D6
:1050E8003D0E0001856F010E0001866F40C087F0FC
:1050F800C2EC28F00009D8A404D001010A2B000E44
:105108001200000E01010A6F010E1200000E326E2D
:10511800328A0001A9B102D0329601D03286ADC0E0
:1051280049F0000E486E010E356E010E366E480EBF
:10513800336E000E346E44C037F045C038F020EEB0
:1051480032F000EE7EF0060EDBCFEBFFE806FCE265
:105158003D0E0001856F010E0001866F40C087F08B
:10516800C2EC28F00009D8A404D001010A2B000ED3
:105178001200000E01010A6F010E1200000E00015C
:105188009C6F000E00019B6F00017EA503D0010EED
:105198000001816F00017EA703D0000E0001826F1D
:1051A80000017E51030BE806D8A402D0030E07D0F5
:1051B80000017E51030B0009D8A403D0010E0001A1
:1051C800996F01018B510001831914E101018C5180
:1051D80000018419D8A40ED001018B2904E1010132
:1051E8008C29D8B407D0050E00019A6F0001998D5B
:1051F800010E04D0070E00019A6F000E0001986F8F
:1052080000018151D8B402D0020E01D0080E00016D
:105218009A2700018251D8B402D0020E01D0080E9C
:1052280000019A2700017EAB05D000017EB502D0AF
:105238000001998B00017E51030B030AD8A40ED0FC
:10524800000E0001996F070E00019A6F000E000111
:10525800986F010E0001826F00017E9B9CC062F076
:105268000001636B9AC064F010EC44F000019C2BC1
:105278009CC062F00001636B00019A510001872510
:105288000001646F10EC44F000019C2B9CC062F09C
:105298000001636B99C064F010EC44F000019C2B92
:1052A80000017E51030B030AD8A416D09CC062F0FB
:1052B8000001636B800E0001646F10EC44F0000184
:1052C8009C2B9CC062F00001636B33C164F010EC4E
:1052D80044F00101332B9CD000018151D8B40ED089
:1052E80000018251D8B40AD09CC062F00001636BFF
:1052F800880E0001646F10EC44F02DD0000181513C
:10530800D8B40ED000018251D8A40AD09CC062F053
:105318000001636BC80E0001646F10EC44F01BD0F1
:1053280000018151D8A40ED000018205D8A40AD06A
:105338009CC062F00001636B8C0E0001646F10EC7E
:1053480044F009D09CC062F00001636BCC0E0001F0
:10535800646F10EC44F000019C2B9CC062F00001CB
:10536800636B33C164F010EC44F00101332B00018E
:105378009C2B9CC062F00001636B83C064F010EC4E
:1053880044F000019C2B9CC062F00001636B84C058
:1053980064F010EC44F000019C2B00017EA515D0B0
:1053A8009CC062F00001636BFF0E0001646F10EC9B
:1053B80044F000019C2B9CC062F00001636BFF0E5F
:1053C8000001646F10EC44F023D000018151D8B47F
:1053D80022D09CC062F00001636B7FC0D9FF80C0FF
:1053E800DAFFDF500001646F10EC44F000019C2BE1
:1053F8009CC062F00001636B000120EE01F07F5158
:10540800D9268051DA22DF500001646F10EC44F095
:1054180000019C2B21D0000E00019B6F070E00019C
:105428009B6501D019D09CC062F00001636B00013C
:105438009B51010DF35000017F25D96EF4500001F6
:105448008021DA6EDF500001646F10EC44F0000137
:105458009C2B00019B2BE2D7000198510001D8A496
:1054680014D09CC062F00001636B8BC164F010EC37
:1054780044F000019C2B9CC062F00001636B8CC15E
:1054880064F010EC44F000019C2B00018251D8B468
:1054980015D09CC062F00001636B8DC164F010EC04
:1054A80044F000019C2B9CC062F00001636B8EC12C
:1054B80064F010EC44F000019C2B21D0000E000198
:1054C8009B6F070E00019B6501D019D09CC062F04C
:1054D8000001636B00019B51010DF35001012B2565
:1054E800D96EF45001012C21DA6EDF500001646F8F
:1054F80010EC44F000019C2B00019B2BE2D7000E1E
:1055080000019B6F18D09CC062F00001636B000122
:105518009B51010DF35000018525D96EF45000010F
:105528008621DA6EDF500001646F10EC44F0000150
:105538009C2B00019B2B0001875100019B5DD8A08B
:10554800E2D73E8000017EAB08D000017EB505D0D1
:10555800050E00019B6F3E8204D0010E00019B6F77
:105568003E929BC062F0370EFCEC45F00DEC43F028
:1055780060C090F061C091F062C092F063C093F097
:1055880081A0F2823EB005D03EA457D03E94000ED2
:1055980012000DEC43F060C094F061C095F062C059
:1055A80096F063C097F090C088F091C089F092C0DF
:1055B8008AF093C08BF00001881F891F8A1F8B1FF8
:1055C800882B000E89238A238B2300019451000124
:1055D800882500018C6F0001955100018921000187
:1055E8008D6F0001965100018A2100018E6F000124
:1055F800975100018B2100018F6F00018F5100012D
:105608008E1108E1210E00018C5D4E0E00018D59AE
:10561800D8A0B6D74DEC33F08D0E0001656F010EA2
:105628000001666F8B0E0001676F010E0001686F45
:1056380045EC43F03E90000E1200010E12000101ED
:10564800A36F030E0101A16F0001FC05D8A414D0BB
:1056580096EC2FF006D0FBEC46F00009D8A421EC1C
:1056680047F0010170B3F7D7010170A103D0010120
:1056780071511200FF0E12000001FC510001D8A464
:105688002ED20101A329D8B406D02AD00101A12F16
:1056980002D0FF0E12004AC091F1010E0101926F73
:1056A800936B946B956B0101912B06D0D8900101F7
:1056B80092379337943795370101912FF7D792C1D5
:1056C800DAF093C1DBF094C1DCF095C1DDF00A0E8D
:1056D8006AEC38F00009D8B4D9D7000E0101A36FDD
:1056E8000101A3510F0D090EF326000EF422000E3E
:1056F800F324D96E030EF420DA6EDECF8FF1DDCFFE
:1057080090F10101A3510F0D010EF326000EF422B2
:10571800000EF324D96E030EF420DA6EDF50486EC3
:105728000101A3510F0D020EF326000EF422000E04
:10573800F324D96E030EF420DA6EDF50496ED0ECF4
:1057480041F0416E4128D8A408D053EC45F0416E91
:105758004128D8A402D0FF0E120041500E0D0C0EA5
:10576800F326000EF422200EF324D96E020EF42044
:10577800DA6E000EDF6E0101A3510F0D090EF3263C
:10578800000EF422000EF324D96E030EF420DA6E14
:1057980041500E0D200EF324E16E020EF420E26E4D
:1057A800DECFE6FFDDCFE5FF0101A3510F0D010EAE
:1057B800F326000EF422000EF324D96E030EF42013
:1057C800DA6E41500E0D020EF326000EF422200E62
:1057D800F324E16E020EF420E26EDFCFE7FF010151
:1057E800A3510F0D020EF326000EF422000EF3242F
:1057F800D96E030EF420DA6E41500E0D030EF32617
:10580800000EF422200EF324E16E020EF420E26E64
:10581800DFCFE7FF41500E0D0C0EF326000EF422E9
:10582800200EF324D96E020EF420DA6E0201DF8610
:10583800000E0101A26F0101A2510101D8A440D0BC
:105848000101A251010D0E0EF326000EF422000EE6
:105858000101916F030E0101926FF350010191272D
:10586800F450010192230101A3510F0DF3500101DE
:105878009125D96EF45001019221DA6E0101A251ED
:10588800010D0D0EF326000EF422200E0101936F78
:10589800020E0101946FF35001019327F4500101A6
:1058A800942341500E0DF35001019325E16EF450FD
:1058B80001019421E26EDFCFE7FF0101A22BBBD7E4
:1058C80041500E0D0C0EF326000EF422200EF32488
:1058D800D96E020EF420DA6E0201DF8241500E0DFD
:1058E8000C0EF326000EF422200EF324D96E020EBD
:1058F800F420DA6E0201DF8A41500E0D0C0EF326F9
:10590800000EF422200EF324D96E020EF420DA6E73
:105918000201DF800101A3510F0D000EF324D96E9F
:10592800030EF420DA6EDF5069EC46F041500E0D9C
:10593800200EF324D96E020EF420DA6EDECF44F086
:10594800DDCF45F048684968480E0001656F000ED4
:105958000001666F440E0001676F000E0001686F5A
:1059680045EC43F0000E406E4050010D3D0EF3240F
:10597800D96E010EF420DA6E010EDF6E402A405017
:10598800010D3D0EF324D96E010EF420DA6E36C1F6
:10599800DFFF402A000E0101A26F0101A25101019F
:1059A800D8A417D00101A251010D3C0EF324D96EE1
:1059B800000EF420DA6E4050010D3D0EF324E16E26
:1059C800010EF420E26EDFCFE7FF402A0101A22B8F
:1059D800E4D741500E0D200EF32400019D6F020EF6
:1059E800F42000019E6F41500E0D020EF326000EAA
:1059F800F422200EF32400019F6F020EF420000110
:105A0800A06F010E0001A16F080E0001A26F4CECFF
:105A180040F00DEC43F060C099F161C09AF162C0AA
:105A28009BF163C09CF14AD0FBEC46F00009D8A476
:105A380021EC47F00DEC43F060C09DF161C09EF190
:105A480062C09FF163C0A0F199C191F19AC192F12E
:105A58009BC193F19CC194F10101911F921F931F67
:105A6800941F912B000E92239323942301019D519F
:105A7800010191250101956F01019E5101019221BA
:105A88000101966F01019F51010193210101976F57
:105A98000101A051010194210101986F0101985160
:105AA8000BE1210E0101955DA10E01019659070E2A
:105AB80001019759D8A002D0FF0E120041500E0DD7
:105AC8000C0EF326000EF422200EF324D96E020EDB
:105AD800F420DA6E0201DFA8A7D741501200FF0EAA
