:04000000F9EF00F024
:100008004182FACF0EF0FBCF0FF0E9CF10F0EACF24
:1000180011F0E1CF12F0E2CF13F0D9CF14F0DACF1C
:1000280015F0F3CF16F0F4CF17F0F6CF18F0F7CF9E
:1000380019F0F8CF1AF0F5CF1BF0F2B8F2A2ABD056
:10004800F292620EBBEC48F01D6E1DA011D03990E3
:1000580039BC399C000E0101506F000E4F6F39A258
:1000680007D0480EBBEC48F01C6E1CB0398439929E
:100078001DA68AD01F68000E206E010E206401D0D4
:1000880010D02050500D000EF324D96E030EF4202A
:10009800DA6EDF50D8A403D020C01FF002D0202A87
:1000A800ECD7020E1F606BD0040E036E730ED0ECFB
:1000B80048F01F50500D000EF324D96E030EF420A3
:1000C800DA6E030E046E000E036ED8EC46F0020FD3
:1000D800DF6E1F50500D000EF324D96E030EF4206E
:1000E800DA6E4F0EDF6040D0398A010E206E1AD0CA
:1000F8001F50500D000E096E030E0A6EF3500926AC
:10010800F4500A2220500924D96E000E0A20DA6E13
:10011800000E2024036E046A030E0422D8EC46F075
:10012800DF6E202A2050096E0A6A1F50500D000EFB
:10013800F324D96E030EF420DA6EDF500B6E0C6ACE
:10014800020E0B26000E0C2209500B5C0C50800A84
:100158000D6E0A50800A0D58D8B0CAD7010E036E2A
:100168001B0ED0EC48F005D0010E036E1B0ED0EC30
:1001780048F0000E036E730ED0EC48F005D0010E67
:10018800036E1B0ED0EC48F01DA805D0800E036E40
:10019800590ED0EC48F09EB09DA007D09E903D2A05
:1001A8003D50D8A402D001015B2B71EC49F01BC073
:1001B800F5FF1AC0F8FF19C0F7FF18C0F6FF17C0FF
:1001C800F4FF16C0F3FF15C0DAFF14C0D9FF13C03F
:1001D800E2FF12C0E1FF11C0EAFF10C0E9FF0FC043
:1001E800FBFF0EC0FAFF4192110012EF44F01BEC26
:1001F8001DF00009D8B44DEF0DF033B41200000E15
:100208000101206F21A404D00001B16BB12B02D0F1
:100218000001B16B010120510001B119FC0BB119AA
:100228000101206F21A603D00101208702D001011E
:1002380020972150030BE806D8A404D00001B16B25
:10024800B12B02D00001B16B0001B13BB1470101F4
:1002580020510001B119DF0BB1190101206F21AE46
:1002680003D00101208D02D00101209D21AE0BD0C9
:1002780029B003D00101209F02D00101208F22C0A4
:1002880023F123C024F12AC021F12BC022F128C078
:1002980029F127C028F133943DEF0DF00A0E2660AE
:1002A80002D04AEF0DF020EE02F02450D926255056
:1002B800DA22DF500001CC6F20EE03F02450D9265B
:1002C8002550DA22DF500001CD6F20EE04F02450D3
:1002D800D9262550DA22DF500001D06F20EE05F034
:1002E8002450D9262550DA22DF500001D16F20EEA4
:1002F80006F02450D9262550DA22DF500001D26FAB
:1003080020EE07F02450D9262550DA22DF500001CC
:10031800D36F20EE08F02450D9262550DA22DF507A
:100328000001D66F20EE09F02450D9262550DA2294
:10033800DF500001D76F000E0101206F21A603D006
:100348000101208702D00101209701012051030BF0
:100358000009D8A407D00001D02903E10001D12960
:10036800D8A474D10001F9510001D61912E1000195
:10037800FA510001D719D8A40CD00001F751000197
:10038800D21907E10001F8510001D319D8B44AEF96
:100398000DF024C0D9FF25C0DAFF010EDF649BD021
:1003A80024C0D9FF25C0DAFFDF06000E0001F56F73
:1003B800000E0001D96F18D00001D951010DF3507A
:1003C8002424D96EF4502520DA6E0001F551010D70
:1003D8005C0EF324E16E010EF420E26EDFCFE7FF3E
:1003E8000001F52B0001D92B26500001D95DD8A0BA
:1003F800E3D721C02CF0F7C031F0F8C032F029C0A3
:1004080030F0140ECAEC41F020EE2CF000EE7EF035
:10041800060EDBCFEBFFE806FCE25C0E0001856F01
:10042800010E0001866FF5C087F033EC28F0000E4E
:100438000001D96F090E0001D96501D033D0000140
:10044800D9510E0D0C0EF326000EF4225A0EF32489
:10045800D96E020EF420DA6E0201DFAE20D0000160
:10046800D9510E0D0C0EF326000EF4225A0EF32469
:10047800D96E020EF420DA6E0201DFB010D000014E
:10048800D9510E0D0C0EF326000EF4225A0EF32449
:10049800D96E020EF420DA6E0201DFBA03D0000131
:1004A800D92BC8D70A0E0001D96115D0CCC06AF083
:1004B800CDC06BF0000E00016C6F000E00016D6F77
:1004C800000E00016E6F000E21B6010E00016F6F65
:1004D800010E1AEC32F0000E0001D96F030E000174
:1004E800D96501D03CD00001D951080D030EF3267F
:1004F800000EF422000EF324D96E010EF420DA6EF9
:10050800DF50D8B429D00001D951080D000EF324CA
:10051800D96E010EF420DA6E0001D651DE181CE106
:100528000001D751DE18D8A417D020EE0AF02450C5
:10053800D9262550DA220001D951080D020EF326DA
:10054800000EF422000EF324E16E010EF420E26E98
:10055800DE50E618D8B403D00001D92BBFD7040E5B
:100568000001D96102D04AEF0DF0000E0001D96FE9
:10057800030E0001D96501D013D00001D951080D2F
:10058800030EF326000EF422000EF324D96E010E9A
:10059800F420DA6EDF50D8B403D00001D92BE8D7A5
:1005A800040E0001D9614CD00001D951080D000E8C
:1005B800F324D96E010EF420DA6ED6C0DEFFD7C060
:1005C800DDFF20EE0AF02450D9262550DA2200015A
:1005D800D951080D020EF326000EF422000EF32462
:1005E800E16E010EF420E26EDFCFE7FF0001D95182
:1005F800080D030EF326000EF422000EF324D96E24
:10060800010EF420DA6E030EDF6E57EC45F00001A0
:10061800D951080D040EF326000EF422000EF3241F
:10062800D96E010EF420DA6E000160C0DEFF000111
:1006380061C0DEFF000162C0DEFF000163C0DEFFB3
:1006480001012051FC0B0109206F7FD00001F751F7
:100658000001CC1905E10001F8510001CD19D8A419
:1006680059EF07F00001F9510001D01905E1000127
:10067800FA510001D119D8A459EF07F020EE01F082
:100688002450D9262550DA22DFA45FD040C05CF17F
:10069800020E01015D6FD2C05EF1D3C05FF1D6C01A
:1006A80060F1D7C061F1F7C062F1F8C063F1F9C039
:1006B80064F1FAC065F120EE0AF02450D9262550DD
:1006C800DA22DF500101666F000E0101676F300EFC
:1006D8000101686F0D0E0001F56F0001FA5100016C
:1006E800D719D8B40ED0D2C0A5F0D3C0A6F0D6C0C2
:1006F800A7F0D7C0A8F0000E0001A96F51EC23F0B5
:1007080022D0000E2C6E2C8A010E2F6E010E306E38
:10071800D60E2D6E000E2E6ED2C031F0D3C032F040
:1007280020EE2CF000EE7EF0060EDBCFEBFFE806A5
:10073800FCE25C0E0001856F010E0001866FF5C0BA
:1007480087F033EC28F00101208520EE0BF02450CF
:10075800D9262550DA22DF50D8A465D320EE0CF034
:100768002450D9262550DA22300EDE18D8A428D3F2
:100778003FD30101B0B371D057EC45F060C0C7F169
:1007880061C0C8F162C0C9F163C0CAF120EE08F0C7
:100798002450D9262550DA22DF500101B26F20EE0D
:1007A80009F02450D9262550DA22DF500101B36F11
:1007B800000E0001D86F070E0001D86501D020D0C7
:1007C8000001D8510001B16FB26B0D0E0001B127C5
:1007D800000EB2230001B1512424D96E0001B25198
:1007E8002520DA6E0001D851010DB40EF324E16E14
:1007F800010EF420E26EDFCFE7FF0001D82BDBD734
:100808000101B0830101B091000E0001D86F000111
:10081800D8510001D8A44AEF0DF00001D8510001C9
:10082800B16FB26B150E0001B127000EB2230001A3
:10083800B1512424D96E0001B2512520DA6E00018D
:10084800D851010DBC0EF324E16E010EF420E26EC6
:10085800DFCFE7FF0001D82BDAD720EE08F02450CD
:10086800D9262550DA220101B251DE18D8A40CD0BD
:1008780020EE09F02450D9262550DA220101B3517F
:10088800DE18D8B44AEF0DF00101B2510101B311DD
:10089800D8A4A8D0000E0001D86F070E0001D865B3
:1008A80001D034D00001D8510001B16FB26B0D0EE8
:1008B8000001B127000EB2230001B1512424D96EE2
:1008C8000001B2512520DA6E0001D851010DBF0E8A
:1008D800F324E16E010EF420E26EDFCFE7FF0001A2
:1008E800D851010DBF0EF324D96E010EF420DA6E33
:1008F8000001D851010D3A0EF324E16E010EF420E7
:10090800E26EDFCFE7FF0001D82BC7D720EE08F053
:100918002450D9262550DA22DF500101BD6F20EE80
:1009280009F02450D9262550DA22DF500101BE6F84
:10093800BDC1FBF0BEC1FCF0F7C0D2F1F8C0D3F1E5
:1009480059EC44F00101B16F0101B129D8A403D1D8
:100958008D0E3C6E0001FBBF3C90A2EC3FF0010104
:10096800B16F0101B129D8B4F6D0000E0001D86FDB
:100978000001D8510001D8A4EED00001D8510001DF
:10098800B16FB26B150E0001B127000EB223000142
:10099800B1512424D96E0001B2512520DA6E00012C
:1009A800D851010D0D0EF326000EF4225A0E000147
:1009B800B36F020E0001B46FF3500001B327F45077
:1009C8000001B4230101B1510E0DF3500001B3250C
:1009D800E16EF4500001B421E26EDFCFE7FF0001C1
:1009E800D82BC6D70B0E0001F56F0001F551010D8C
:1009F8005C0EF324D96E010EF420DA6E000EDF6E61
:100A08000001F52B0001F551010D5C0EF324D96EA0
:100A1800010EF420DA6E110EDF6E0001F52B000EC8
:100A28000001D86F070E0001D86501D036D000014B
:100A3800D8510001B16FB26B0D0E0001B127000E45
:100A4800B2230001B1512424D96E0001B2512520EE
:100A5800DA6E0001D851010DBF0EF324E16E010ECC
:100A6800F420E26EDFCFE7FF0001D851010DBF0E81
:100A7800F324D96E010EF420DA6E0001F551010D50
:100A88005C0EF324E16E010EF420E26EDFCFE7FF87
:100A98000001F52B0001D82BC5D720EE08F0245013
:100AA800D9262550DA22DF500101BD6F20EE09F06A
:100AB8002450D9262550DA22DF500101BE6F0001EB
:100AC800F551010D5C0EF324D96E010EF420DA6E97
:100AD800BDC1DFFF0001F52B0001F551010D5C0ED2
:100AE800F324D96E010EF420DA6EBEC1DFFF0001D7
:100AF800F52B000E0001D86F0001D8510001D8A4D1
:100B080022D00001D8510001B16FB26B150E00015F
:100B1800B127000EB2230001B1512424D96E00017F
:100B2800B2512520DA6E0001F551010D5C0EF32457
:100B3800E16E010EF420E26EDFCFE7FF0001F52B36
:100B48000001D82BD9D7B20E0001AF6F010E0001FA
:100B5800B06FC9EC43F00101B0830101B0814AEFE5
:100B68000DF0000E0001D46F070E0001D46501D00E
:100B780020D00001D4510001B16FB26B0D0E0001FD
:100B8800B127000EB2230001B1512424D96E00010F
:100B9800B2512520DA6E0001D451010D3A0EF3242A
:100BA800E16E010EF420E26EDFCFE7FF0001D42BE7
:100BB800DBD78D0E3C6E20EE15F02450D92625503B
:100BC800DA22DFBE3C9020EE15F02450D9262550BD
:100BD800DA22DF500001FB6F20EE16F02450D926F0
:100BE8002550DA22DF500001FC6FF7C0D2F1F8C0BF
:100BF800D3F159EC44F00101B16F0101B129D8B426
:100C080012D00101B1510E0D0C0EF326000EF42284
:100C18005A0EF324D96E020EF420DA6EDF503C6EC1
:100C28003C843C8605D08D0E3C6E0001FBBF3C9099
:100C3800A2EC3FF00101B16F0101B129D8B440D055
:100C4800000E0001D46F0001D4510001D8A435D0A2
:100C58000001D4510001B16FB26B170E0001B1272A
:100C6800000EB2230001B1512424D96E0001B25103
:100C78002520DA6E0001D451010D0D0EF326000E69
:100C8800F4225A0E0001B36F020E0001B46FF35044
:100C98000001B327F4500001B4230101B1510E0D36
:100CA800F3500001B325E16EF4500001B421E26E67
:100CB800DFCFE7FF0001D42BC6D70101B08102D0F6
:100CC8000101B0910101B0934AEF0DF020EE0DF053
:100CD8002450D9262550DA223E50DE18D8A44AEFEF
:100CE8000DF020EE0EF02450D9262550DA22DF50E0
:100CF800E4EC48F04AEF0DF020EE0DF02450D92630
:100D08002550DA223E50DE18D8A44AEF0DF0000E26
:100D18000001F56F40C05CF1020E01015D6FF7C084
:100D28005EF1F8C05FF120EE08F02450D926255076
:100D3800DA22DF500101606F20EE09F02450D92635
:100D48002550DA22DF500101616FF7C062F1F8C067
:100D580063F1F9C064F1FAC065F13AC066F13A2A64
:100D6800000E0101676F420E0101686F000E2C6EC4
:100D78002C8A010E2F6E010E306EF7C031F0F8C0CC
:100D880032F0080E24242D6E000E25202E6E20EE43
:100D98002CF000EE7EF0060EDBCFEBFFE806FCE25F
:100DA8005C0E0001856F010E0001866F0D0E0001BB
:100DB800876F33EC28F04AEF0DF0339E4AEF0DF0C1
:100DC80020EE0CF02450D9262550DA22DF50100AE4
:100DD800D8B4CFD4010AD8B4C4D6510AD8B476D777
:100DE800010AD8B489D7030AD8B4E7D74AEF0DF077
:100DF80020EE0AF02450D9262550DA220101F351B9
:100E0800DE18D8A44AEF0DF001014D510001D619A2
:100E180005E101014E510001D719D8A44AEF0DF0A0
:100E280033964AEF0DF02650F50F0101276F0B0E90
:100E380024240101256F000E25200101266FD2C050
:100E480021F1D3C022F120EE08F02450D9262550F4
:100E5800DA22DE28D8A415D020EE09F02450D926AD
:100E68002550DA22DE28D8A40CD029B003D00101FD
:100E7800209F02D00101208F22C023F123C024F13A
:100E88000AD00101208F080E24240101236F000ECF
:100E980025200101246F0101208D01012751D8B4BB
:100EA8004AEF0DF033844AEF0DF024C0D9FF25C076
:100EB800DAFFDF50D8B44AEF0DF024C0D9FF25C0BF
:100EC800DAFFDF06000E0001F56F000E0001D96F92
:100ED80018D00001D951010DF3502424D96EF450D3
:100EE8002520DA6E0001F551010D5C0EF324E16E48
:100EF800010EF420E26EDFCFE7FF0001F52B0001C1
:100F0800D92B26500001D95DD8A0E3D70001FA51AA
:100F18000001D119D8A42DD001016751D8A429D036
:100F2800300E01016819D8A424D0000E2C6E2C8A2A
:100F3800010E2F6E010E306ED00E2D6E000E2E6E2D
:100F4800CCC031F0CDC032F020EE2CF000EE7EF0B7
:100F5800060EDBCFEBFFE806FCE25C0E0001856FB6
:100F6800010E0001866FF5C087F033EC28F04AEFD8
:100F78000DF0CCC0A5F0CDC0A6F0D0C0A7F0D1C070
:100F8800A8F0000E21B6010E0001A96F51EC23F064
:100F98004AEF0DF0000E0001CB6F0001CB510001AC
:100FA800B16FB26B040E0001B127000EB22300012D
:100FB800B1512424D96E0001B2512520DA6E4D0EAC
:100FC800DE18D8A44AEF0DF020EE01F02250D92601
:100FD8002350DA22DF500001C26FC2C0B1F0010E07
:100FE8000001B26F0001B12B03D00001D890B237D5
:100FF8000001B12FFAD70001B2510001BF6F22C022
:10100800D9FF23C0DAFFDF50D8A404D00001BF51B4
:10101800010159130001CB510001B16FB26B060EEB
:101028000001B127000EB2230001B1512424D96E6A
:101038000001B2512520DA6E0001C251010D320EB5
:10104800F324E16E010EF420E26EDFCFE7FF33A058
:101058004AEF0DF02AC0D2F12BC0D3F122C0D9FF3C
:1010680023C0DAFFDF500001FB6F20EE01F02250B1
:10107800D9262350DA22DF500001FC6F0001CB5142
:10108800010DF3502424D96EF4502520DA6EDE28A1
:10109800D8A44AEF0DF00001CB510001B16FB26B3B
:1010A800010E0001B127000EB2230001B151242422
:1010B800D96E0001B2512520DA6EDF500001CA6FE7
:1010C800040E35604AEF0DF00001CA39030B000128
:1010D800B16F020E0001B1614AEF0DF035500F0DEE
:1010E800000EF324D96E020EF420DA6E3EC0DFFF44
:1010F80035500F0D0B0EF326000EF422000EF324CC
:10110800D96E020EF420DA6E28C1DFFF35500F0DBC
:101118000C0EF326000EF422000EF324D96E020EF4
:10112800F420DA6E29C1DFFF35500F0D090EF326C2
:10113800000EF422000EF324D96E020EF420DA6EAB
:10114800D2C1DEFFD3C1DDFF35500F0D0D0EF326E2
:10115800000EF422000EF324D96E020EF420DA6E8B
:10116800000EDF6E35500F0D0D0EF326000EF42223
:10117800000EF324D96E020EF420DA6E0201DF8C21
:101188000001CA31030B0001B16F35500F0D0D0E70
:10119800F326000EF422000EF324D96E020EF4207A
:1011A800DA6E0201DF500001B119FC0BB11902011E
:1011B800DF6E0001CAA70ED035500F0D0D0EF326B5
:1011C800000EF422000EF324D96E020EF420DA6E1B
:1011D8000201DF860001CA39030B0001B16F020E5C
:1011E8000001B1610ED035500F0D0D0EF326000E23
:1011F800F422000EF324D96E020EF420DA6E0201F6
:10120800DF8A23C1D9FF24C1DAFF35500F0D010E43
:10121800F326000EF422000EF324E16E020EF420F1
:10122800E26EDFCFE7FF010120EE01F02351D9265E
:101238002451DA2235500F0D020EF326000EF42247
:10124800000EF324E16E020EF420E26EDFCFE7FF1A
:1012580035500F0D0D0EF326000EF422000EF32468
:10126800D96E020EF420DA6E0201DF8E000E000144
:10127800D96F0001D9510001D8A439D00001D95142
:10128800CBC0B1F00001B26B0001B127000EB22350
:10129800070E0001B127000EB2230001B15124242A
:1012A800D96E0001B2512520DA6E0001D951010D25
:1012B8000E0EF326000EF422000E0001B36F020E8C
:1012C8000001B46FF3500001B327F4500001B423B8
:1012D80035500F0DF3500001B325E16EF4500001B5
:1012E800B421E26EDFCFE7FF0001D92BC2D7352A40
:1012F800CDD3000E0001C16F010E376401D0C6D3F3
:10130800000E0001D96F070E0001D96501D017D072
:101318000001D951010DF3502224D96EF450232035
:10132800DA6E0001D951010D3A0EF324E16E010E77
:10133800F420E26EDFCFE7FF0001D92BE4D7A1EC60
:1013480040F00001D56F0001D529D8A41AD0375034
:10135800D8A49CD3B70E3C6EF7C0D2F1F8C0D3F135
:10136800A2EC3FF00001D56F0001D529D8A42BD0FD
:10137800010E0001C16FFF0E0001FC6FFE0EFB6F36
:10138800D6D00001D5510E0D0C0EF326000EF42216
:101398005A0EF324D96E020EF420DA6E0201DFA68B
:1013A80012D00001D5510E0D020EF326000EF422C4
:1013B8005A0EF324D96E020EF420DA6EDECFFBF05B
:1013C800DDCFFCF0B4D00001D529D8B4B0D00001ED
:1013D800D5290001FB6FFAC0FCF0F7C0D2F1F8C0C4
:1013E800D3F1020E3B18D8A445D020EE01F02450CA
:1013F800D9262550DA22DFAC3DD0FBC0BDF0FCC0B9
:10140800BEF0000E0001FB6F010E0001CE6F070E4B
:101418000001CE6501D025D0CEC0FCF059EC44F0D7
:101428000001C06F0001C029D8A418D0000E000127
:10143800FB6FCEC0FCF0CEC0B1F0010E0001B26F60
:101448000001B12B03D00001D890B2370001B12FB1
:10145800FAD70001B2510101591303D00001CE2B74
:10146800D6D7080E0001CE19D8A404D0BDC0FBF011
:10147800BEC0FCF0BF0E3C6E20EE01F02450D92611
:101488002550DA22DFB003D03C900001FB8FA2EC9C
:101498003FF00001D56F0001D5510E0D0C0EF3265B
:1014A800000EF4225A0EF324D96E020EF420DA6EDE
:1014B8000201DF88000E0001D96F0001D951000137
:1014C800D8A435D00001D9510001B16FB26B020E1A
:1014D8000001B127000EB2230001B1512424D96EB6
:1014E8000001B2512520DA6E0001D951010D0D0E0F
:1014F800F326000EF4225A0E0001B36F020E00010B
:10150800B46FF3500001B327F4500001B423000175
:10151800D5510E0DF3500001B325E16EF4500001D2
:10152800B421E26EDFCFE7FF0001D92BC6D7020E48
:1015380001015C6FFBC05DF1FCC05EF1C1C05FF1F1
:10154800000E0001D96F0001D9510001D8A420D0A4
:101558000001D951010D360EF324D96E000EF42086
:10156800DA6E0001D9510001B16FB26B040E0001AF
:10157800B127000EB2235C0E0001B125E16E010E09
:101588000001B221E26EDFCFE7FF0001D92BDBD7E4
:10159800050E0001F56FF70E00019D6F000E0001AA
:1015A8009E6F0001D5510E0D040EF326000EF42295
:1015B8005A0EF32400019F6F020EF4200001A06F61
:1015C800010E0001A16F000E0001A26F7EEC42F037
:1015D8005DD220EE03F02450D9262550DA22DF50C0
:1015E800D8A4CBD020EE01F02450D9262550DA22F9
:1015F800DF500001F96F20EE02F02450D926255063
:10160800DA22DF500001FA6F0001F951D8A424D082
:10161800010E3B6E3BC0B1F00001B14701015751CB
:101628000001B119F90BB1190101576FFAC0B1F0F6
:10163800070E0001B117010E0001B26F0001B12BB6
:1016480003D00001D890B2370001B12FFAD70001BA
:10165800B229010159130ED0000E3B6E3BC0B1F008
:101668000001B147010157510001B119F90BB11936
:101678000101576FF90E0001656F000E0001666FDA
:10168800F70E0001676F000E0001686F8FEC45F0E0
:101698003382BF0E3C6E000E0001D96F070E0001A9
:1016A800D96501D017D00001D951010DF35022247A
:1016B800D96EF4502320DA6E0001D951010D3A0E8B
:1016C800F324E16E010EF420E26EDFCFE7FF0001A4
:1016D800D92BE4D70001F951D8A405D0000E000198
:1016E800FC6F000E04D0FAC0FCF0000E0001FB6F86
:1016F800F7C0D2F1F8C0D3F1A2EC3FF00001F66FC9
:10170800000E0001D96F0001D9510001D8A4BED143
:101718000001D9510001B16FB26B040E0001B1276D
:10172800000EB2230001B1512424D96E0001B25138
:101738002520DA6E0001D951010D0D0EF326000E99
:10174800F4225A0E0001B36F020E0001B46FF35079
:101758000001B327F4500001B4230001F6510E0D27
:10176800F3500001B325E16EF4500001B421E26E9C
:10177800DFCFE7FF0001D92BC6D70001F6690001CA
:10178800F769F8690001FB69FC69FB0E0001656FE8
:10179800000E0001666FF70E0001676F000E000172
:1017A800686F8FEC45F072D12950D8B419D022C097
:1017B800D9FF23C0DAFFDF500001FB6F20EE01F0F4
:1017C8002250D9262350DA22DF500001FC6F59EC51
:1017D80044F00001C96F0001C929D8B457D122D0FB
:1017E800000E0001D96F070E0001D96501D017D08E
:1017F8000001D951010DF3502224D96EF450232051
:10180800DA6E0001D951010D3A0EF324E16E010E92
:10181800F420E26EDFCFE7FF0001D92BE4D7A1EC7B
:1018280040F0D7D70001C9510E0D0C0EF326000E5B
:10183800F4225A0EF324D96E020EF420DA6E020155
:10184800DFAA24D10001F6510001C919D8B410D07B
:101858000001C9510E0D0C0EF326000EF4225A0E8B
:10186800F324D96E020EF420DA6E000EDF6E0ED16C
:10187800000E0001D96F090E0001D96501D090D082
:101888000001D9510E0D0C0EF326000EF4225A0E4B
:10189800F324D96E020EF420DA6E0201DFAE6ED0A8
:1018A8000001D9510E0D0C0EF326000EF4225A0E2B
:1018B800F324D96E020EF420DA6E0201DFAA5ED09C
:1018C8000001F6510001D919D8B458D0000E000112
:1018D800F56F0001F551010D5C0EF324D96E010E70
:1018E800F420DA6E030EDF6E0001F52B000E2C6E6D
:1018F8002C8A2C50FC0B01092C6E010E2F6E010E48
:10190800306E0001D9510E0D5A0EF324D96E020E15
:10191800F420DA6EDECF31F0DDCF32F00001D9519C
:101928000E0D020EF326000EF4225A0EF3242D6E2D
:10193800020EF4202E6E20EE2CF000EE7EF0060E45
:10194800DBCFEBFFE806FCE25C0E0001856F010EC1
:101958000001866FF5C087F033EC28F0000E000117
:10196800C46F000EC36F0001C3290F0E0001C459D4
:10197800D8B004D00001C34BC42BF5D70001D9510E
:101988000E0D0C0EF326000EF4225A0EF324D96E17
:10199800020EF420DA6E000EDF6E0001D92B6BD731
:1019A8000001F6690001F969FA690001F769F86947
:1019B800F90E0001656F000E0001666FF70E000159
:1019C800676F000E0001686F8FEC45F033925ED0B0
:1019D8002950D8B410D0000E0001A46F000E0001E9
:1019E800A56F22C0A6F023C0A7F0010E0001A86FC2
:1019F8006AEC19F04BD022C0A4F023C0A5F0000E69
:101A08000001A66F000E0001A76F000E0001A86F6D
:101A18006AEC19F03BD0020E376401D037D033A2FC
:101A280035D020EE01F02450D9262550DA223E5038
:101A3800DE18D8A42BD03B50D8B428D0140ECAEC4A
:101A480041F07DEC3DF022D024C0D9FF25C0DAFF5B
:101A5800DF50010AD8B44DD4030AD8B4BAD5010A64
:101A6800D8B4A2D6070AD8B4B3D7030AD8B4D3D700
:101A78000DD02150030B000AD8B452EF01F0010A2F
:101A8800D8B4E2D7020AD8B4CEEF07F033A404ECF6
:101A980049F057EC45F060C0C5F061C0C6F062C0BF
:101AA800C7F063C0C8F0000E0001D96F010E000135
:101AB800D96501D062D00001D951430D0E0EF3262D
:101AC800000EF422000EF324D96E040EF420DA6E10
:101AD8000401DFA04FD00001D951430D000EF324BB
:101AE800D96E040EF420DA6EDECFB1F0DECFB2F09C
:101AF800DECFB3F0DECFB4F00001B11FB21FB31FC9
:101B0800B41FB12B000EB223B323B4230001C55177
:101B18000001B1250001B56F0001C6510001B221D5
:101B28000001B66F0001C7510001B3210001B76F72
:101B38000001C8510001B4210001B86F0001B8517B
:101B48000AE10001B505120E0001B6597A0E00012E
:101B5800B759D8A00FD00001D951430D0E0EF32666
:101B6800000EF422000EF324D96E040EF420DA6E6F
:101B7800000EDF6E0001D92B99D7000E0001D96F36
:101B8800030E0001D96501D067D00001D951080DB5
:101B9800030EF326000EF422000EF324D96E010E74
:101BA800F420DA6EDF50D8B454D00001D951080DB2
:101BB800040EF326000EF422000EF324D96E010E53
:101BC800F420DA6EDECFB1F0DECFB2F0DECFB3F0C4
:101BD800DECFB4F00001B11FB21FB31FB41FB12B89
:101BE800000EB223B323B4230001C5510001B1256F
:101BF8000001B56F0001C6510001B2210001B66FA6
:101C08000001C7510001B3210001B76F0001C8519D
:101C18000001B4210001B86F0001B8510BE1210E99
:101C28000001B55DA10E0001B659070E0001B759B4
:101C3800D8A00FD00001D951080D030EF326000ECD
:101C4800F422000EF324D96E010EF420DA6E000E91
:101C5800DF6E0001D92B94D70101B0A31200010156
:101C6800B0A184D00B0E0001F56F0001F551010DF4
:101C78005C0EF324D96E010EF420DA6E000EDF6ECE
:101C88000001F52B0001F551010D5C0EF324D96E0E
:101C9800010EF420DA6E110EDF6E0001F52B000E36
:101CA8000001CF6F070E0001CF6501D019D00001E8
:101CB800CF51010DB40EF324D96E010EF420DA6E63
:101CC8000001F551010D5C0EF324E16E010EF420C4
:101CD800E26EDFCFE7FF0001F52B0001CF2BE2D743
:101CE8000001F551010D5C0EF324D96E010EF420AC
:101CF800DA6EB2C1DFFF0001F52B0001F551010DCD
:101D08005C0EF324D96E010EF420DA6EB3C1DFFF46
:101D18000001F52B000E0001CF6F0001CF5100012B
:101D2800D8A419D00001CF51010DBC0EF324D96EEF
:101D3800010EF420DA6E0001F551010D5C0EF3245A
:101D4800E16E010EF420E26EDFCFE7FF0001F52B14
:101D58000001CF2BE2D7BD0E0001AF6F010E0001CD
:101D6800B06FC9EC43F00101B0931200C7C1B1F0E4
:101D7800C8C1B2F0C9C1B3F0CAC1B4F00001B11F03
:101D8800B21FB31FB41FB12B000EB223B323B42369
:101D98000001C5510001B1250001B96F0001C6510C
:101DA8000001B2210001BA6F0001C7510001B3213F
:101DB8000001BB6F0001C8510001B4210001BC6FD4
:101DC8000001BC510BE1610E0001B95DE30E000199
:101DD800BA59160E0001BB59D8A012000101B093E0
:101DE8001200010E0201F56F27EC42F0898E898CF2
:101DF8008B8411EC3EF0000E17EC3AF00101FC5117
:101E0800E4EC48F00009D8B4F9EF00F0000E7BECE0
:101E180048F053D0000E17EC3AF0000E0001936F13
:101E2800000E0001946F000E956F000E966F000E65
:101E3800976F000E1EEC3FF0AAEC47F08F0E0001E2
:101E48006C6F010E00016D6F340E00016E6FFF0E96
:101E580000016F6FF8C070F00001716BF7C072F08D
:101E68000001736BFCC174F00001756B4BEC14F04E
:101E78009F0E00016C6F010E00016D6F5F0E000177
:101E88006E6FFF0E00016F6FFAC070F00001716B8A
:101E9800F9C072F00001736B4BEC14F028EC43F0BE
:101EA80006D04CEC49F00009D8A468EC49F00201CE
:101EB80066AFF7D7000E0201F56F0201F505D8A449
:101EC80002D2A8D7000E17EC3AF0FCC1E6F2F00EE9
:101ED8000201E627000E0201E76F000EE86F010E0F
:101EE800E96F000EEA6F0201E62B06D0D8900201D6
:101EF800E737E837E937EA370201E62FF7D7E7C2CD
:101F0800DAF0E8C2DBF0E9C2DCF0EAC2DDF00A0E82
:101F1800EAEC35F00201FB6F0201FB510201D8B473
:101F2800C0D1000E0201F96FB2D1000E0201F16FAB
:101F38000201F9510201D8B479D0000E0201F16F03
:101F4800000E0201F86F42D00201F8510F0D0A0E7F
:101F5800F326000EF422000EF324D96E020EF420AC
:101F6800DA6E0201F9510F0D0A0EF326000EF42263
:101F7800000EF324E16E020EF420E26EDE50E61845
:101F8800D8A422D00201F8510F0D090EF326000E35
:101F9800F422000EF324D96E020EF420DA6E020148
:101FA800F9510F0D090EF326000EF422000EF3244A
:101FB800E16E020EF420E26EDE50E618D8A404D0DA
:101FC800010E0201F16F08D00201F82B0201F9514C
:101FD8000201F85DD8A0B8D70201F105D8A426D02F
:101FE8000201F9510201E66FE76BFF0E0201E86F8B
:101FF800FF0E0201E96F0201FB510201EA6FEB6B70
:102008000201E8510201EA270201E9510201EB232A
:102018000201E6510201EA1905E10201E751020154
:10202800EB19D8A432D10201F9692FD1000E0201AF
:10203800EF6F0B0E0001F56F000E0201F86F40D034
:102048000201F8510F0D0A0EF326000EF422000EBD
:10205800F324D96E020EF420DA6E0201F9510F0D45
:102068000A0EF326000EF422000EF324E16E020E8F
:10207800F420E26EDE50E618D8A420D00201F85110
:102088000F0D0A0EF326000EF422000EF324D96E6B
:10209800020EF420DA6E0201F9510F0D0A0EF32632
:1020A800000EF422000EF324E16E020EF420E26E1C
:1020B800DE50E618D8A402D00201EF2B0201F82B5B
:1020C8000201FB510201F85DD8A0BAD7010E020146
:1020D800EF6599D0000E0201EC6F000E0201ED6F62
:1020E8000B0E0001F56F0001F551010D5C0EF32494
:1020F800D96E010EF420DA6E040EDF6E0001F52BA6
:102108000201F9510F0D0A0EF326000EF422000EFB
:10211800F324D96E020EF420DA6E0001F551010D98
:102128005C0EF324E16E010EF420E26EDFCFE7FFD0
:102138000001F52B0201F9510F0D090EF326000ECF
:10214800F422000EF324D96E020EF420DA6E000198
:10215800F551010D5C0EF324E16E010EF420E26EE0
:10216800DFCFE7FF0001F52B000E23EC40F0000E57
:102178000201F86F42D00201F8510F0D0A0EF32642
:10218800000EF422000EF324D96E020EF420DA6E4B
:102198000201F9510F0D0A0EF326000EF422000E6B
:1021A800F324E16E020EF420E26EDE50E618D8A4A5
:1021B80022D00201F8510F0D090EF326000EF42269
:1021C800000EF324D96E020EF420DA6E0201F951E2
:1021D8000F0D090EF326000EF422000EF324E16E13
:1021E800020EF420E26EDE50E618D8A404D00201F4
:1021F800ED2BF8C2ECF20201F82B0201FB510201AF
:10220800F85DD8A0B8D7000E0001EB6F0201F951B4
:10221800C5EC25F00201EE6F0201EE29D8B4EED527
:10222800000E0201F56F0B0E0001F56F0001F5516C
:10223800010D5C0EF324D96E010EF420DA6E050E42
:10224800DF6E0001F52B0001F551010D5C0EF32442
:10225800D96E010EF420DA6EF8C0DFFF0001F52B0D
:102268000001F551010D5C0EF324D96E010EF42026
:10227800DA6EF7C0DFFF0001F52B000E23EC40F00B
:102288000201F5510201D8B408D00201F92B02016C
:10229800FB510201F95DD8A048D6000E0201F56F86
:1022A8000ED0610E00018F6FFE0E0001906F000EC0
:1022B8000001916F000E0001926F5AEC46F0020186
:1022C800F505D8B4FFD5FFD7000E0201FA6F090E45
:1022D8000201FA6501D043D00201FA510E0D0C0E2D
:1022E800F326000EF4225A0EF324D96E020EF420BF
:1022F800DA6E0201DFAE30D0010120EE01F0235189
:10230800D9262451DA220201FA510E0D030EF326C2
:10231800000EF4225A0EF324E16E020EF420E26E4F
:10232800DE50E618D8A418D023C1D9FF24C1DAFF9B
:102338000201FA510E0D020EF326000EF4225A0E77
:10234800F324E16E020EF420E26EDE50E618D8A403
:1023580003D0FAC253F103D00201FA2BB8D70B0EFF
:102368000001F56F0001F551010D5C0EF324D96EE3
:10237800010EF420DA6E020EDF6E0001F52B000E5E
:102388000001DA6F010153510CEC38F0B7EC2CF076
:10239800010E0201F56F98D7FFD7FFD7FFD7000EC0
:1023A8000201F66F000E0201F76F000E0201F56FD1
:1023B800899E899C8B94DC0E00018F6FFD0E0001B5
:1023C800906F000E0001916F000E0001926F5AECA1
:1023D80046F057D289EC3BF00201F46F4CEC49F01F
:1023E8000009D8B479D025C1D9FF26C1DAFFDF505A
:1023F8000201F66F040E0201F619D8A41BD00101E0
:1024080020EE01F02551D9262651DA220001F85193
:10241800DE18D8A40CD0010120EE02F02551D926EF
:102428002651DA220001F751DE18D8B403D0000E85
:102438000201F66F020E0201F619D8A44BD0000E65
:102448000201FA6F090E0201FA6501D043D00201B8
:10245800FA510E0D0C0EF326000EF4225A0EF32438
:10246800D96E020EF420DA6E0201DFAE30D001011F
:1024780020EE01F02351D9262451DA220201FA5123
:102488000E0D030EF326000EF4225A0EF324E16E0D
:10249800020EF420E26EDE50E618D8A418D023C14C
:1024A800D9FF24C1DAFF0201FA510E0D020EF326FC
:1024B800000EF4225A0EF324E16E020EF420E26EAE
:1024C800DE50E618D8A403D0FAC253F103D00201B3
:1024D800FA2BB8D768EC49F0020E0201F619D8A415
:1024E8001CD00B0E0001F56F0001F551010D5C0EBB
:1024F800F324D96E010EF420DA6E020EDF6E0001AD
:10250800F52B000E0001DA6F010153510CEC38F085
:10251800B7EC2CF0010E0201F56F0201F405D8A406
:10252800F5D00201F7510201D8A4F0D0000E020143
:10253800F36F000E0101536F000E0201FA6F090ECE
:102548000201FA6501D025D00201FA510E0D0C0ED8
:10255800F326000EF4225A0EF324D96E020EF4204C
:10256800DA6E0201DFAE12D00201FA510E0D0C0E26
:10257800F326000EF4225A0EF324D96E020EF4202C
:10258800DA6E0201DFAA02D00201F32B0201FA2B54
:10259800D6D7010E0201F3659DD0000E0201F06F3F
:1025A800000E0201F26F820E00018F6FFE0E000115
:1025B800906F000E0001916F000E0001926F5AECAF
:1025C80046F0000E0201FA6F090E0201FA6501D009
:1025D80081D00201FA510E0D0C0EF326000EF422E2
:1025E8005A0EF324D96E020EF420DA6E0201DFAE21
:1025F8006AD0AAEC47F08F0E00016C6F010E000143
:102608006D6F4B0E00016E6FFF0E00016F6F0201C0
:10261800FA510E0D030EF326000EF4225A0EF3247F
:10262800D96E020EF420DA6EDF500201E66F020165
:10263800E6510001706F716B0201FA510E0D020E26
:10264800F326000EF4225A0EF324D96E020EF4205B
:10265800DA6EDF500201E76F0201E7510001726F85
:10266800736B4BEC14F09F0E00016C6F010E0001B0
:102678006D6FC50E00016E6FFF0E00016F6F4BECA2
:1026880014F028EC43F00201F22B89EC3BF0020134
:10269800F46F0201F405D8A406D0FAC253F1010E72
:1026A8000201F06F10D0020E0201F419D8A4EDD780
:1026B8000201F3510201F219D8A405D00201FA6906
:1026C800000E0201F26F0201F005D8B403D0020136
:1026D800FA2B7AD70B0E0001F56F0001F551010DA9
:1026E8005C0EF324D96E010EF420DA6E020EDF6E52
:1026F8000001F52B000E0001DA6F010153510CECBB
:1027080038F0B7EC2CF0010E0201F56F020E020151
:10271800F419D8A444D00201F72B030E0201F719CB
:10272800D8A403D0000E0201F76F0201F75102018D
:10273800D8A40FD0750E00018F6FFD0E0001906FA9
:10274800000E0001916F000E0001926F5AEC46F0E6
:1027580026D00201F705D8A40FD0BA0E00018F6F5A
:10276800FD0E0001906F000E0001916F000E000138
:10277800926F5AEC46F013D0020E0201F719D8A452
:102788000ED0980E00018F6FFD0E0001906F000EA5
:102798000001916F000E0001926F5AEC46F0030E93
:1027A8000201F619D8B408D00201F405D8A41CD047
:1027B8000201F705D8A418D00B0E0001F56F00012F
:1027C800F551010D5C0EF324D96E010EF420DA6E7A
:1027D800030EDF6E0001F52B000E23EC40F084ECB5
:1027E80020F0010E0201F56F040E0201F619D8B4AB
:1027F80009D00201F405D8A43CD0020E0201F71951
:10280800D8A437D0AAEC47F08F0E00016C6F010EE8
:1028180000016D6F340E00016E6FFF0E00016F6FC7
:10282800F8C070F00001716BF7C072F00001736BB3
:10283800FCC174F00001756B4BEC14F09F0E0001A5
:102848006C6F010E00016D6F5F0E00016E6FFF0E61
:1028580000016F6FFAC070F00001716BF9C072F07F
:102868000001736B4BEC14F028EC43F0000E0201EE
:10287800F66F050E0201F619D8A403D0010E020165
:10288800F56F0201F5510201D8A489D5A3D5700EC0
:102898000001856F000E0001866F54EF19F0250EB8
:1028A80000018C19D8B40BD06CC0D9FF6DC0DAFF09
:1028B8008CC0DFFF00016C4B6D2B54EF19F0000E3C
:1028C80000018B6F000E8A6F000E00018E6F000EE4
:1028D8008D6F0ED000018D8708D000018D8105D045
:1028E80000018E8702D000018D8500016E4B6F2B91
:1028F8006EC0F6FF6FC0F7FF0800F550200AD8B485
:10290800ECD7030AD8B4ECD70E0AD8B4E3D71D0A1B
:10291800D8B4E9D700018DA702D000018D956EC00B
:10292800F6FF6FC0F7FF0800F550A6EC48F0D8A0F6
:1029380041D0000E00018B6F000E8A6F8AC060F0D4
:102948008BC061F0000E0001636F0A0E626FFEEC2F
:1029580047F060C08AF061C08BF0D00E0001766F3E
:10296800FF0E0001776F6EC0F6FF6FC0F7FF08001B
:10297800F5500001786F796B0001765100017827D6
:1029880000017751000179230001785100018A275D
:102998000001795100018B2300016E4B6F2B6EC033
:1029A800F6FF6FC0F7FF0800F550A6EC48F0D8A076
:1029B8001AD0C4D76EC0F6FF6FC0F7FF0800F550F5
:1029C8002A0AD8A410D085C0D9FF86C0DAFFDECF86
:1029D8008AF0DDCF8BF0020E00018527000E8623DA
:1029E80000016E4B6F2B6EC0F6FF6FC0F7FF08003B
:1029F800F5502E0AD8A440D000018E8D00016E4BF0
:102A08006F2B6EC0F6FF6FC0F7FF0800F5502A0A5B
:102A1800D8A410D085C0D9FF86C0DAFFDF500001E6
:102A2800896F020E00018527000E862300016E4B78
:102A38006F2BCBD0000E0001896F13D06EC0F6FF4C
:102A48006FC0F7FF0800F5CF76F0000189510A0D35
:102A5800F35000017625D00F0001896F00016E4BFD
:102A68006F2B6EC0F6FF6FC0F7FF0800F550A6EC9D
:102A780048F0D8A0AAD0E2D7000E0001896FA5D0EF
:102A880000018D8DC7D000018D8B00018D8FC2D0C4
:102A9800000189510001D8B417D089C076F000012F
:102AA800776B76BF7707000183510001765D0001DF
:102AB800845100017759D8B007D00001895100012D
:102AC800836F846B83BF840700018A510001835D93
:102AD80000018B5100018459D8B009D000018351FD
:102AE80000018A5F0001845100018B5B05D0000E54
:102AF80000018B6F000E8A6F00018DA70AD025D0C8
:102B08006CC0D9FF6DC0DAFF200EDF6E00016C4B80
:102B18006D2B00018A07D8A08B0700018A29F0E1F4
:102B280000018B29D8B411D0EBD77BC0D9FF7CC06A
:102B3800DAFF6CC0E1FF6DC0E2FFDFCFE7FF000105
:102B48007B4B7C2B00016C4B6D2B00018307D8A0BD
:102B5800840700018329E9E100018429D8A4E5D785
:102B680000018DB70AD09CD36CC0D9FF6DC0DAFFC5
:102B7800200EDF6E00016C4B6D2B00018A07D8A078
:102B88008B0700018A29F0E100018B29D8B488D38A
:102B9800EBD785C0D9FF86C0DAFFDF5000018C6F04
:102BA800020E00018527000E86238C0E00017B6F24
:102BB800000E00017C6F000E0001846F010E836F10
:102BC80067D7C00E00018D1325D06EC0F6FF6FC009
:102BD800F7FF00016E4B6F2B0800F5CF8CF000015A
:102BE8008C51000AD8B46BD3580AD8B44CD73B0AD6
:102BF800D8B4CFD7070AD8B40DD00D0AD8B40AD0A4
:102C0800060AD8B43DD71A0AD8B4DBD70D0AD8B407
:102C18003CD7CBD7C00E00018D150001766F000E92
:102C280000018E150001776F0001765100017711C0
:102C3800D8A419D085C0D9FF86C0DAFFDECF87F0C7
:102C4800DDCF88F0020E00018527000E86230001E3
:102C580088AF16D0030E00018D130001876D881F01
:102C6800D8B0882B0DD085C0D9FF86C0DAFFDECF5B
:102C780087F0DDCF88F0020E00018527000E86233D
:102C8800000189510001D8A463D0000187510001D7
:102C98008811D8A45DD00001892B5AD0010E0001FB
:102CA8008C6F050E00018C19D8B461D000018C51CD
:102CB800020D630EF324F66EFD0EF420F76E090084
:102CC800F5500001875D0900F55000018859D8A02A
:102CD8004ED000018C2BE5D7010E00018C6F040E3D
:102CE80000018C19D8B443D000018C51020D6D0E2F
:102CF800F324F66EFD0EF420F76E0900F55000017E
:102D0800875D0900F55000018859D8A030D000012E
:102D18008C2BE5D7010E00018C6F060E00018C1973
:102D2800D8B425D000018C51020D570EF324F66E4D
:102D3800FD0EF420F76E0900F5500001875D0900CB
:102D4800F55000018859D8A012D000018C2BE5D786
:102D580000018D51C00B000AD8B4A0D7400AD8B4DE
:102D6800D9D7C00AD8B4B8D7400AD8B497D7000181
:102D78008C51800A0001766F00018951800A000198
:102D8800765DD8B003D089C08CF00DD00001895190
:102D9800800A0001766F00018C51800A0001765D7F
:102DA800D8A08CC089F000018A5100018B11D8B4D9
:102DB80014D0030E00018D150001766F000E00017E
:102DC8008E150001776F0001765100017711D8B494
:102DD80004D000018A07D8A08B0700018EAD21D04E
:102DE800800E000189BF7F0E0001766F00018A51B5
:102DF8000001895D00018B51800A00017659D8B025
:102E08000BD00001895100018A5F000E000189BFC3
:102E1800FF0E00018B5B05D0000E00018B6F000ECA
:102E28008A6FC40E0001766F080E0001776F8DC09F
:102E380078F08EC079F00001765100017817000112
:102E4800775100017917400E0001781910E1080E3A
:102E580000017919D8A40BD000018A5100018B1107
:102E6800D8B436D000018A07D8A08B0731D0C00E5D
:102E78000001766F080E0001776F8DC078F08EC064
:102E880079F00001765100017817000177510001AF
:102E98007917800E000178191BE1080E00017919D5
:102EA800D8A416D000018BBF0ED000018B5105E1CC
:102EB800030E00018A5DD8A006D00001FE0E8A2705
:102EC800FF0E8B2305D0000E00018B6F000E8A6F5A
:102ED800800E00018CBF7F0E0001766F00018A51C1
:102EE80000018C5D00018B51800A00017659D8B031
:102EF8000BD000018C5100018A5F000E00018CBFCD
:102F0800FF0E00018B5B05D0000E00018B6F000ED9
:102F18008A6F00018DA570D0030E00018D15000188
:102F2800766F000E00018E150001776F0001765153
:102F380000017711D8B40AD06CC0D9FF6DC0DAFF90
:102F48002D0E0CD000016C4B6D2B42D000018DA1D1
:102F580007D06CC0D9FF6DC0DAFF200EDF6EF2D744
:102F6800C00E0001766F080E0001776F8DC078F0F3
:102F78008EC079F000017651000178170001775171
:102F880000017917800E0001781922E1080E00016E
:102F98007919D8A41DD06CC0D9FF6DC0DAFF300EE6
:102FA800DF6E00016C4B6D2B00018DBB05D0000E50
:102FB80000017E6F780E04D0000E00017E6F580E5F
:102FC8007D6F6CC0D9FF6DC0DAFF7DC0DFFFBAD757
:102FD80000018A5100018B11D8B43CD16CC0D9FFD3
:102FE8006DC0DAFF300EDF6E00016C4B6D2B0001F7
:102FF8008A07D8A08B07ECD700018A5100018B11F2
:10300800D8B416D000018DB713D06CC0D9FF6DC0ED
:10301800DAFF200EDF6E00016C4B6D2B00018A0772
:10302800D8A08B0700018A5100018B11D8A4EDD7D5
:10303800030E00018D150001766F000E00018E153C
:103048000001776F0001765100017711D8B40AD0DA
:103058006CC0D9FF6DC0DAFF2D0E0CD000016C4B8F
:103068006D2B0AD000018DA107D06CC0D9FF6DC0AF
:10307800DAFF200EDF6EF2D7C00E0001766F080E61
:103088000001776F8DC078F08EC079F0000176511D
:10309800000178170001775100017917400E0001EF
:1030A80078190CE1080E00017919D8A407D06CC072
:1030B800D9FF6DC0DAFF300EDF6EC9D0C00E000137
:1030C800766F080E0001776F8DC078F08EC079F0AA
:1030D8000001765100017817000177510001791736
:1030E800800E0001781904E1080E00017919D8A4AE
:1030F800B1D06CC0D9FF6DC0DAFF300EDF6E0001B1
:103108006C4B6D2B00018DBB05D0000E0001806F4C
:10311800780E04D0000E0001806F580E7F6F6CC0CF
:10312800D9FF6DC0DAFF7FC0DFFF91D00001895160
:10313800020D630EF324F66EFD0EF420F76E0900FF
:10314800F5CF62F00A00F5CF63F087C060F088C061
:1031580061F0E0EC44F060C067F061C068F0000E18
:1031680000016A6F0A0E696F29EC46F00001675189
:1031780055D087C060F088C061F000018951020D08
:103188006D0EF324F66EFD0EF420F76E0900F5CFF0
:1031980062F00A00F5CF63F0E0EC44F00001605102
:1031A8000F0B00017A6F00018DBB05D0820E000164
:1031B800816FFF0E04D0710E0001816FFF0E0001B8
:1031C800826F00017A51010D81C076F082C077F0DC
:1031D800F35000017627F4500001772376C0F6FFFC
:1031E80077C0F7FF0800F5CF8CF02BD087C060F0D0
:1031F80088C061F000018951020D570EF324F66E64
:10320800FD0EF420F76E0900F5CF62F00A00F5CF45
:1032180063F0E0EC44F000016051070B300F00014F
:103228008C6F0FD000018D51C00B000AD8B47ED727
:10323800400AD8B4DBD7C00AD8B49BD7400AD8B460
:1032480075D76CC0D9FF6DC0DAFF8CC0DFFF0001F5
:103258006C4B6D2B0001890700018929D8A4E2D79E
:1032680000018DA71DD000018BBF1AD000018B5122
:1032780004E100018A05D8A013D06CC0D9FF6DC045
:10328800DAFF200EDF6E00016C4B6D2B00018A0700
:10329800D8A08B0700018A5100018B11D8A4EDD763
:1032A8006EC0F6FF6FC0F7FF00016E4B6F2B080072
:1032B800F5CF8CF000018C51D8A453EF14F06CC0FA
:1032C800D9FF6DC0DAFF000EDF6E1200000E00019C
:1032D800AB6F000E0001F56F0001A8510001D8B4D2
:1032E8001AD0A6C0D9FFA7C0DAFFDF500001FB6FD4
:1032F800000120EE01F0A651D926A751DA22DF50AD
:103308000001FC6F59EC44F00001AD6F0001AD29DC
:10331800D8B464D324D0000E0001AE6F070E0001AC
:10332800AE6501D019D00001AE51010DF350000176
:10333800A425D96EF4500001A521DA6E0001AE5122
:10334800010D3A0EF324E16E010EF420E26EDFCF98
:10335800E7FF0001AE2BE2D7A1EC40F0D5D7000E75
:103368000001AE6F010E0001AE6501D056D200011A
:10337800AE51430D0E0EF326000EF422000EF32478
:10338800D96E040EF420DA6E0401DFA043D20001E6
:10339800AE51430D0E0EF326000EF422000EF32458
:1033A800D96E040EF420DA6E0401DFB21ED10001DA
:1033B800AE51430D0E0EF326000EF422000EF32438
:1033C800D96E040EF420DA6E0401DFA80ED10001D4
:1033D800AE51430D060EF326000EF422000EF32420
:1033E800D96E040EF420DA6E0001AD510E0D020EF6
:1033F800F326000EF4225A0EF324E16E020EF42096
:10340800E26EDE50E618D8A4F0D00001AE51430DAC
:10341800070EF326000EF422000EF324D96E040ED4
:10342800F420DA6E0001AD510E0D030EF326000EE6
:10343800F4225A0EF324E16E020EF420E26EDE50FE
:10344800E618D8A4D2D0000E0001AC6F2DD0000130
:10345800AC51010D100EF326000EF422000E0001EF
:10346800A96F040E0001AA6FF3500001A927F450B8
:103478000001AA230001AE51430DF3500001A92514
:10348800D96EF4500001AA21DA6E0001F551010D40
:103498005C0EF324E16E010EF420E26EDFCFE7FF4D
:1034A8000001F52B0001AC2B0001AE51430D0F0EAE
:1034B800F326000EF422000EF324D96E040EF42035
:1034C800DA6EDE500001AC5DD8A0C1D70001AE5164
:1034D800430D0E0EF326000EF422000EF324D96ECF
:1034E800040EF420DA6E0401DFA41ED0F70E0001EA
:1034F8009D6F000E00019E6F0001AD510E0D020E72
:10350800F326000EF4225A0EF32400019F6F020ED8
:10351800F4200001A06F010E0001A16F0C0E000144
:10352800A26F7EEC42F051D0000E2C6E2C500001A0
:10353800AB19FC0BAB192C6E2C8A0001AE51430D54
:103548000E0EF326000EF422000EF324D96E040E9C
:10355800F420DA6E0401DFA602D02C8601D02C9666
:103568000001AD510E0D020EF326000EF4225A0E84
:10357800F3242D6E020EF4202E6E010E2F6E010E16
:10358800306E0001AE51430D040EF326000EF422F6
:10359800000EF324D96E040EF420DA6EDECF31F07B
:1035A800DDCF32F020EE2CF000EE7EF0060EDBCF01
:1035B800EBFFE806FCE25C0E0001856F010E0001DE
:1035C800866FF5C087F033EC28F00001AE51430D4B
:1035D8000E0EF326000EF422000EF324D96E040E0C
:1035E800F420DA6E0401DF9012000001AE51430DA1
:1035F8000E0EF326000EF422000EF324D96E040EEC
:10360800F420DA6E0401DFB205D10001AE51430D9A
:103618000E0EF326000EF422000EF324D96E040ECB
:10362800F420DA6E0401DFB8F5D00001AD510E0DBB
:10363800040EF326000EF4225A0EF3240001606FE4
:10364800020EF4200001616F0001AE51430D060E19
:10365800F326000EF422000EF3240001626F040E1C
:10366800F4200001636FAFEC46F00009D8B4D2D063
:10367800000E0001AC6F2DD00001AC51010D100EF1
:10368800F326000EF422000E0001A96F040E0001BB
:10369800AA6FF3500001A927F4500001AA230001E2
:1036A800AE51430DF3500001A925D96EF450000125
:1036B800AA21DA6E0001F551010D5C0EF324E16ECA
:1036C800010EF420E26EDFCFE7FF0001F52B0001C9
:1036D800AC2B0001AE51430D0F0EF326000EF42261
:1036E800000EF324D96E040EF420DA6EDE500001C9
:1036F800AC5DD8A0C1D70001AE51430D0E0EF32624
:10370800000EF422000EF324D96E040EF420DA6EB3
:103718000401DFA41ED0F70E00019D6F000E00010A
:103728009E6F0001AD510E0D040EF326000EF4221B
:103738005A0EF32400019F6F020EF4200001A06FBF
:10374800010E0001A16F000E0001A26F7EEC42F095
:1037580051D0000E2C6E2C500001AB19FC0BAB198C
:103768002C6E2C8A0001AE51430D0E0EF326000E6E
:10377800F422000EF324D96E040EF420DA6E04014C
:10378800DFA602D02C8601D02C960001AD510E0D7B
:10379800040EF326000EF4225A0EF3242D6E020EA8
:1037A800F4202E6E000E2F6E010E306E0001AE5109
:1037B800430D040EF326000EF422000EF324D96EF6
:1037C800040EF420DA6EDECF31F0DDCF32F020EED9
:1037D8002CF000EE7EF0060EDBCFEBFFE806FCE2F5
:1037E8005C0E0001856F010E0001866FF5C087F041
:1037F80033EC28F00001AE51430D0E0EF326000EF7
:10380800F422000EF324D96E040EF420DA6E0401BB
:10381800DF9012000001AE2BA5D5000E0001AE6F9F
:10382800010E0001AE6501D0D9D00001AE51430DA3
:103838000E0EF326000EF422000EF324D96E040EA9
:10384800F420DA6E0401DFA0C6D00001AE51430DAA
:103858000E0EF326000EF422000EF324D96E040E89
:10386800F420DA6E0401DFA2B6D0000E0001AC6FBE
:103878002DD00001AC51010D100EF326000EF422DC
:10388800000E0001A96F040E0001AA6FF350000199
:10389800A927F4500001AA230001AE51430DF350AB
:1038A8000001A925D96EF4500001AA21DA6E0001A1
:1038B800F551010D5C0EF324E16E010EF420E26E69
:1038C800DFCFE7FF0001F52B0001AC2B0001AE5163
:1038D800430D0F0EF326000EF422000EF324D96ECA
:1038E800040EF420DA6EDE500001AC5DD8A0C1D71A
:1038F800000E2C6E2C500001AB19FC0BAB192C6E72
:103908000001AE51430D0E0EF326000EF422000EF8
:10391800F324D96E040EF420DA6E0401DFA404D077
:103928002C50FC0B01092C6E2C8A2C8E0001AE51F8
:10393800430D0E0EF326000EF422000EF324D96E6A
:10394800040EF420DA6E0401DFA602D02C8601D022
:103958002C96010E306E0001A8510001D8B407D092
:10396800010E2F6E0001AD510E0D020E06D0000E95
:103978002F6E0001AD510E0D040EF326000EF42239
:103988005A0EF3242D6E020EF4202E6E0001AE5155
:10399800430D040EF326000EF422000EF324D96E14
:1039A800040EF420DA6EDECF31F0DDCF32F020EEF7
:1039B8002CF000EE7EF0060EDBCFEBFFE806FCE213
:1039C8005C0E0001856F010E0001866FF5C087F05F
:1039D80033EC28F012000001AE2B22D70001A851C9
:1039E8000001D8B412D0F70E00019D6F000E00013F
:1039F8009E6FA6C09FF0A7C0A0F0ABC0A1F00C0EB0
:103A08000001A26F7EEC42F01200F70E00019D6FDC
:103A1800000E00019E6FA4C09FF0A5C0A0F0ABC02F
:103A2800A1F0040E0001A26F7EEC42F0120081A00A
:103A3800F28239A012D00101505105E1800E010136
:103A48004F5DD8A007D0000E0101506F000E4F6FD8
:103A5800399003D001014F4B502B3F68000E0001F5
:103A6800676F010E0001676501D012D00001675130
:103A7800500D000EF324D96E030EF420DA6EDF50D9
:103A8800D8B403D067C03FF003D00001672BE9D753
:103A9800020E3F6033D3010E0001686F3F50500D96
:103AA800010EF326000EF422000EF324D96E030E45
:103AB800F420DA6E0301DFBC03D0000E0001686F4A
:103AC800000E216E000E296E3F50500D020EF32697
:103AD800000EF422000EF324D96E030EF420DA6EE1
:103AE800DF50CC0B0001666F55D23F50500D060ECB
:103AF800F326000EF422000EF324D96E030EF420F0
:103B0800DA6EDE28D8A40FD03F50500D070EF326EA
:103B1800000EF422000EF324D96E030EF420DA6EA0
:103B2800DE28D8B42184218E000168510001D8B460
:103B380029D03F50500D040EF326000EF422000E3B
:103B4800F324D96E030EF420DA6EDF502A6E3F504C
:103B5800500D050EF326000EF422000EF324D96E44
:103B6800030EF420DA6EDF502B6E3F50500D080E16
:103B7800F326000EF422000EF324226E030EF42026
:103B8800236E96D13F50500D080EF326000EF422F6
:103B9800000EF324D96E030EF420DA6EDF502A6E7D
:103BA8003F50500D090EF326000EF422000EF324A8
:103BB800D96E030EF420DA6EDF502B6E3F50500D95
:103BC8000A0EA4D13F50500D000EF324D96E030EF7
:103BD800F420DA6EDF50EB0F266E3F50500D120EB8
:103BE800CBD1218E000168510001D8B437D03F50A5
:103BF800500D040EF326000EF422000EF324D96EA5
:103C0800030EF420DA6EDF502A6E3F50500D050E79
:103C1800F326000EF422000EF324D96E030EF420CE
:103C2800DA6EDF502B6E3F50500D0E0EF326000E4D
:103C3800F422000EF324226E030EF420236E3F506C
:103C4800500D000EF324D96E030EF420DA6EDF5007
:103C5800E70F266E3F50500D160E8ED13F50500D77
:103C68000E0EF326000EF422000EF324D96E030E76
:103C7800F420DA6EDF502A6E3F50500D0F0EF326F7
:103C8800000EF422000EF324D96E030EF420DA6E2F
:103C9800DF502B6E3F50500D100EF326000EF4220D
:103CA800000EF324226E030EF420236E3F50500DB5
:103CB800000EF324D96E030EF420DA6EDF50E50F00
:103CC800266E3F50500D180E57D12184218E010EBB
:103CD800296E3F50500D040EF326000EF422000EFC
:103CE800F324D96E030EF420DA6EDF502A6E3F50AB
:103CF800500D050EF326000EF422000EF324D96EA3
:103D0800030EF420DA6EDF502B6E3F50500D060E76
:103D1800F326000EF422000EF324226E030EF42084
:103D2800236E3F50500D000EF324D96E030EF4207D
:103D3800DA6EDF50F50F1CD13F50500D060EF326FA
:103D4800000EF422000EF324D96E030EF420DA6E6E
:103D5800DE28D8A40FD03F50500D070EF326000ED2
:103D6800F422000EF324D96E030EF420DA6EDE2856
:103D7800D8B42184218E010E296E000168510001FA
:103D8800D8A437D03F50500D080EF326000EF42269
:103D9800000EF324D96E030EF420DA6EDF502A6E7B
:103DA8003F50500D090EF326000EF422000EF324A6
:103DB800D96E030EF420DA6EDF502B6E3F50500D93
:103DC8000A0EF326000EF422000EF324226E030ED0
:103DD800F420236E3F50500D000EF324D96E030ECD
:103DE800F420DA6EDF50F10F266E3F50500D0C0EA6
:103DF800C3D03F50500D040EF326000EF422000EDF
:103E0800F324D96E030EF420DA6EDF502A6E3F5089
:103E1800500D050EF326000EF422000EF324D96E81
:103E2800030EF420DA6EDF502B6E3F50500D080E53
:103E3800F326000EF422000EF324226E030EF42063
:103E4800236E3F50500D000EF324D96E030EF4205C
:103E5800DA6EDF50F30F266E3F50500D0A0E8CD0ED
:103E6800218E010E296E000168510001D8B42FD0AF
:103E78003F50500D040EF326000EF422000EF324DA
:103E8800D96E030EF420DA6EDF502A6E3F50500DC3
:103E9800050EF326000EF422000EF324D96E030E4D
:103EA800F420DA6EDF502B6E3F50500D0D0E60D6A9
:103EB8003F50500D000EF324D96E030EF420DA6E35
:103EC800DF50ED0F266E3F50500D100E55D03F506D
:103ED800500D0D0EF326000EF422000EF324D96EB9
:103EE800030EF420DA6EDF502A6E3F50500D0E0E8E
:103EF800F326000EF422000EF324D96E030EF420EC
:103F0800DA6EDF502B6E3F50500D0F0EF326000E69
:103F1800F422000EF324226E030EF420236E52D6F0
:103F28003F50500D060EF326000EF422000EF32427
:103F3800D96E030EF420DA6EDE28D8A40FD03F50D5
:103F4800500D070EF326000EF422000EF324D96E4E
:103F5800030EF420DA6EDE28D8B421843F50500DC9
:103F6800000EF324D96E030EF420DA6EDF50F60F3C
:103F7800266E3F50500D080EF326000EF422000E58
:103F8800F324246E030EF420256E19D004EC49F0B6
:103F9800000E120000016651080AD8B4C1D7880A79
:103FA800D8B493D6080AD8B4C7D6040AD8B458D710
:103FB800440AD8B49AD5040AD8B413D6E7D73F50E0
:103FC800500D010EF326000EF422000EF324D96ED4
:103FD800030EF420DA6E0301DFA613D004EC49F0D7
:103FE800000E1200FC0E21162ED02150FC0B0109E8
:103FF800216E29D0030E211226D004EC49F0000EC0
:1040080012003F50500D010EF326000EF422000E50
:10401800F324D96E030EF420DA6EDF50070B00018B
:10402800606F616B00016151000AD8A4E6D70001F6
:104038006051000AD8B4DED7010AD8B4D3D7020A2F
:10404800D8B4D3D7DAD7FF0E0001606FFF0E000196
:10405800616F3F50500D000EF324D96E030EF4200B
:10406800DA6EDF500001626F636B0001605100017E
:1040780062270001615100016323000E0001646F93
:10408800030E0001656F0001625100016427000101
:104098006351000165233F50500DF3500001642522
:1040A800D96EF45000016521DA6EDF50286E3F505A
:1040B800500D000EF324D96E030EF420DA6EDF5093
:1040C8000001606F3F50500D000E0001616F030E3C
:1040D8000001626FF35000016127F4500001622370
:1040E8000001605100016125D96E0001000E000138
:1040F8006221DA6EDF50276E010E1200000E1200E8
:10410800010E0101DF6F6CEC49F0A30E00018F6F07
:10411800FE0E0001906F000E0001916F010E00016C
:10412800926F5AEC46F06EEC49F08CEC47F074C094
:10413800D8F175C0D9F1F9C03CF2FAC03DF257EC9C
:1041480045F060C0E4F161C0E5F162C0E6F163C02A
:10415800E7F1E4C1DAF1E5C1DBF1E6C1DCF1E7C181
:10416800DDF195D257EC45F060C0E0F161C0E1F1B6
:1041780062C0E2F163C0E3F189EC3BF00101DE6F5C
:104188000101DE05D8B405D0020E0101DE19D8A45C
:104198008CD00B0E0001F56F0001F551010D5C0E7E
:1041A800F324D96E010EF420DA6E010EDF6E0001E1
:1041B800F52B000E23EC40F06CEC49F0C20E000128
:1041C8008F6FFE0E0001906F000E0001916F010EBF
:1041D8000001926F5AEC46F06EEC49F057EC45F04E
:1041E80060C0E4F161C0E5F162C0E6F163C0E7F1E7
:1041F80057D04CEC49F00009D8B40DD025C1D9FFEF
:1042080026C1DAFF040EDE18D8A403D0000E01017F
:10421800DF6F68EC49F0E4C1EDF0E5C1EEF0E6C10E
:10422800EFF0E7C1F0F00001ED1FEE1FEF1FF01FE8
:10423800ED2B000EEE23EF23F0230101E0510001E6
:10424800ED250001F16F0101E1510001EE210001AE
:10425800F26F0101E2510001EF210001F36F01014A
:10426800E3510001F0210001F46F0001F4510BE16A
:10427800C10E0001F15DC60E0001F2592D0E0001BC
:10428800F359D8A003D0000E0101DF6F57EC45F0B9
:1042980060C0E0F161C0E1F162C0E2F163C0E3F146
:1042A8000101DF510101D8A4A4D7DAC1EDF0DBC1C7
:1042B800EEF0DCC1EFF0DDC1F0F00001ED1FEE1F04
:1042C800EF1FF01FED2B000EEE23EF23F02301016B
:1042D800E0510001ED250001F16F0101E1510001FC
:1042E800EE210001F26F0101E2510001EF2100010E
:1042F800F36F0101E3510001F0210001F46F0001A7
:10430800F4510BE1810E0001F15D840E0001F259B8
:104318001E0E0001F359D8A01FD038500E0D0C0EF8
:10432800F326000EF4225A0EF324D96E020EF4205E
:10433800DA6E0201DFAE02D0382A02D0000E386EE3
:1043480014EC39F057EC45F060C0DAF161C0DBF1EC
:1043580062C0DCF163C0DDF1E4C1EDF0E5C1EEF06F
:10436800E6C1EFF0E7C1F0F00001ED1FEE1FEF1F0F
:10437800F01FED2B000EEE23EF23F0230101E05197
:104388000001ED250001F16F0101E1510001EE216D
:104398000001F26F0101E2510001EF210001F36F0A
:1043A8000101E3510001F0210001F46F0001F45113
:1043B8000BE1A10E0001F15D250E0001F259260E58
:1043C8000001F359D8A066D0D8C18AF0D9C18BF0C2
:1043D80072EC33F064EC48F068C0D5F169C0D6F1EE
:1043E8006AC0D7F1000E0101526F000E516FD5C19E
:1043F80060F0D6C161F0D7C162F0DBEC3CF000019F
:1044080060510101516F526B0B0E0001F56F0001F5
:10441800F551010D5C0EF324D96E010EF420DA6E0D
:10442800030EDF6E0001F52B0001F551010D5C0E46
:10443800F324D96E010EF420DA6E51C1DFFF0001BA
:10444800F52B0001F551010D5C0EF324D96E010E18
:10445800F420DA6EF9C0DFFF0001F52B0001F551F9
:10446800010D5C0EF324D96E010EF420DA6EFAC049
:10447800DFFF0001F52B51C13EF2000E23EC40F0A6
:1044880057EC45F060C0E4F161C0E5F162C0E6F1C7
:1044980063C0E7F14CEC49F00009D8B4F8D025C165
:1044A800D9FF26C1DAFFDE04D8A42DD068EC49F084
:1044B8000B0E0001F56F0001F551010D5C0EF324A0
:1044C800D96E010EF420DA6E040EDF6E0001F52BB2
:1044D800000E0001DA6F000E0CEC38F0000E01013E
:1044E800DF6F6CEC49F0C20E00018F6FFE0E000109
:1044F800906F000E0001916F010E0001926F5AEC4F
:1045080046F06EEC49F0000E0101E86F090E01015A
:10451800E86501D0BAD00101E8510E0D0C0EF32662
:10452800000EF4225A0EF324D96E020EF420DA6E2D
:104538000201DFAEA7D0010120EE02F02551D926F5
:104548002651DA220101E8510E0D020EF326000E63
:10455800F4225A0EF324E16E020EF420E26EDE50CD
:10456800E618D8A48FD0010120EE03F02551D926F2
:104578002651DA220101E8510E0D030EF326000E32
:10458800F4225A0EF324E16E020EF420E26EDE509D
:10459800E618D8A477D025C1D9FF26C1DAFF030EC3
:1045A800DE18D8A46FD0010120EE01F02551D926DC
:1045B8002651DA22010E0101E8250001606F000191
:1045C800616B000E6123000E0001636F030E626FC2
:1045D800FEEC47F0020E00016027000E0001612387
:1045E8003C0E00016025E16E020E00016121E26EC1
:1045F800DFCFE7FF010120EE02F02551D926265131
:10460800DA22010E0101E8250001606F0001616BEB
:10461800000E6123000E0001636F030E626FFEEC53
:1046280047F03C0E00016025E16E020E0001612199
:10463800E26EDFCFE7FF010120EE03F02551D92616
:104648002651DA22010E0101E8250001606F000100
:10465800616B000E6123000E0001636F030E626F31
:10466800FEEC47F0010E00016027000E00016123F7
:104678003C0E00016025E16E020E00016121E26E30
:10468800DFCFE7FF0101E82B41D768EC49F00101D2
:10469800DF510101D8B4120065D50001A851070BFC
:1046A8000001AD6F0001AD510001FA19D8A444D042
:1046B800800E0001A76513D0A5C06AF0A6C06BF0F4
:1046C800A70E00016C6F000E00016D6F010E000156
:1046D8006E6FA9C06FF0000E1AEC32F01200000ED7
:1046E8002C6E2C8A0001A9B102D02C9601D02C8600
:1046F800A7C0FBF0A8C0FCF0010E2F6E010E306EB3
:10470800FB0E2D6E000E2E6EF7C031F0F8C032F0A1
:1047180020EE2CF000EE7EF0060EDBCFEBFFE80675
:10472800FCE25C0E0001856F010E0001866FF5C08A
:1047380087F033EC28F01200ADC0AAF0010E00019A
:10474800AB6F0001AA2B03D00001D890AB37000152
:10475800AA2FFAD70001AB51010159150009D8B4A5
:1047680081D00001AD51010D2A0EF324D96E010E3E
:10477800F420DA6E020EDF642DD00001AD51010D78
:104788002A0EF324D96E010EF420DA6E000EDF6EC5
:10479800ADC0AAF0010E0001AB6F0001AA2B03D037
:1047A8000001D890AB370001AA2FFAD70001AB510E
:1047B800FF0A010159170001AD51010D320EF32412
:1047C800D96E010EF420DA6E000EDF6E7DEC3DF03E
:1047D800000E1200000E2C6E2C8A0001A9B102D026
:1047E8002C9601D02C86000E0001FB6FADC0FCF0AA
:1047F800010E2F6E010E306EFB0E2D6E000E2E6E0A
:10480800F7C031F0F8C032F020EE2CF000EE7EF068
:10481800060EDBCFEBFFE806FCE25C0E0001856FBD
:10482800010E0001866FF5C087F033EC28F000090F
:10483800D8A40BD00001AD51010D2A0EF324D96E76
:10484800010EF420DA6EDF2AC3D70001AD51010D45
:104858002A0EF324D96E010EF420DA6E000EDF6EF4
:10486800010E1200000E0001AE6F070E0001AE65CA
:1048780001D0DED00001AE51010D320EF324D96E05
:10488800010EF420DA6EDF500001AA6FADC0ABF064
:10489800010E0001AC6F0001AB2B03D00001D890D2
:1048A800AC370001AB2FFAD70001AC510001AA15B3
:1048B8000009D8B4BAD00001AE51010D2A0EF32474
:1048C800D96E010EF420DA6E020EDF6465D00001A5
:1048D800AE51010D2A0EF324D96E010EF420DA6EC2
:1048E800000EDF6EAEC0AAF0010E0001AB6F000132
:1048F800AA2B03D00001D890AB370001AA2FFAD712
:104908000001AB51FF0A010159170001AE51010D19
:10491800320EF324D96E010EF420DA6E000EDF6E2B
:104928003B50D8B403D07DEC3DF034D0000E0001EC
:10493800F56F0001F551010D5C0EF324D96E010EDF
:10494800F420DA6E070EDF6E0001F52B0001F55139
:10495800010D5C0EF324D96E010EF420DA6E3EC010
:10496800DFFF0001F52B0101D269D369D20E0001E6
:104978009D6F010E00019E6F000E00019F6F000EDB
:104988000001A06F010E0001A16F000E0001A26FCF
:104998007EEC42F0000E1200000E2C6E2C8A0001F4
:1049A800A9B102D02C9601D02C86000E0001FB6F15
:1049B800AEC0FCF0010E2F6E010E306EFB0E2D6E98
:1049C800000E2E6EF7C031F0F8C032F020EE2CF059
:1049D80000EE7EF0060EDBCFEBFFE806FCE25C0E95
:1049E8000001856F010E0001866FF5C087F033EC7A
:1049F80028F00009D8A40CD00001AE51010D2A0EF0
:104A0800F324D96E010EF420DA6EDF2A000E1200AC
:104A18000001AE51010D2A0EF324D96E010EF420C7
:104A2800DA6E000EDF6E010E12000001AE2B1DD7EC
:104A3800020E3B18D8B46CD0000E2C6E2C8A0001E4
:104A4800A9B102D02C9601D02C863B04D8B430D022
:104A5800000E0001AE6F070E0001AE6501D01FD039
:104A680001015951D8B418D0AEC0AAF0010E000106
:104A7800AB6F000E0001AC6F0001AA2B04D0D890D8
:104A88000001AB37AC370001AA2FF9D70001AB51B1
:104A98000001AC11D8A403D00001AE2BDCD7080E5E
:104AA8000001AE6105D0AEC0FCF0000E000104D0DC
:104AB800000E0001FC6F000EFB6F010E2F6E010E41
:104AC800306EFB0E2D6E000E2E6EF7C031F0F8C062
:104AD80032F020EE2CF000EE7EF0060EDBCFEBFF7E
:104AE800E806FCE25C0E0001856F010E0001866F8E
:104AF800F5C087F033EC28F00009D8A404D00101F0
:104B08002A2B000E1200000E01012A6F010E12005E
:104B1800000E2C6E2C8A0001A9B102D02C9601D06F
:104B28002C86ADC0FCF0000E0001FB6F010E2F6E4D
:104B3800010E306EFB0E2D6E000E2E6EF7C031F09A
:104B4800F8C032F020EE2CF000EE7EF0060EDBCF3F
:104B5800EBFFE806FCE25C0E0001856F010E000128
:104B6800866FF5C087F033EC28F00009D8A404D08C
:104B780001012A2B000E1200000E01012A6F010EFE
:104B880012000101F26F030E0101F06F0001EB0545
:104B9800D8A414D0C8EC2EF006D04CEC49F000098B
:104BA800D8A468EC49F00101B0B3F7D70101B0A16E
:104BB80003D00101B1511200FF0E12000001EB51A8
:104BC8000001D8A44AD20101F229D8B406D02AD0CB
:104BD8000101F02F02D0FF0E12003EC0ECF0010ED2
:104BE8000001ED6FEE6BEF6BF06B0001EC2B06D064
:104BF800D8900001ED37EE37EF37F0370001EC2F92
:104C0800F7D7EDC0DAF0EEC0DBF0EFC0DCF0F0C0B3
:104C1800DDF00A0EEAEC35F00009D8B4D9D7000E59
:104C28000101F26F0101F2510F0D090EF326000E7A
:104C3800F422000EF324D96E020EF420DA6EDECFD1
:104C4800D2F1DDCFD3F10101F2510F0D010EF326A0
:104C5800000EF422000EF324D96E020EF420DA6E50
:104C6800DF500001FB6F0101F2510F0D020EF32618
:104C7800000EF422000EF324D96E020EF420DA6E30
:104C8800DF500001FC6F59EC44F00001F66F0001A1
:104C9800F629D8A40AD06CEC47F00001F66F0001A1
:104CA800F629D8A402D0FF0E12000001F6510E0D0D
:104CB8000C0EF326000EF4225A0EF324D96E020EBF
:104CC800F420DA6E000EDF6E0101F2510F0D090EAD
:104CD800F326000EF422000EF324D96E020EF420FF
:104CE800DA6E0001F6510E0D5A0EF324E16E020E33
:104CF800F420E26EDECFE6FFDDCFE5FF0101F251E1
:104D08000F0D010EF326000EF422000EF324D96EC7
:104D1800020EF420DA6E0001F6510E0D020EF32693
:104D2800000EF4225A0EF324E16E020EF420E26E15
:104D3800DFCFE7FF0101F2510F0D020EF326000E3F
:104D4800F422000EF324D96E020EF420DA6E00016C
:104D5800F6510E0D030EF326000EF4225A0EF3241C
:104D6800E16E020EF420E26EDFCFE7FF0001F6519C
:104D78000E0D0C0EF326000EF4225A0EF324D96EF3
:104D8800020EF420DA6E0201DF86000E0101F16FD7
:104D98000101F1510101D8A441D00101F151010DE6
:104DA8000E0EF326000EF422000E0001EC6F020E28
:104DB8000001ED6FF3500001EC27F4500001ED23E2
:104DC8000101F2510F0DF3500001EC25D96EF4509A
:104DD8000001ED21DA6E0101F151010D0D0EF326EE
:104DE800000EF4225A0E0001EE6F020E0001EF6F62
:104DF800F3500001EE27F4500001EF230001F651B3
:104E08000E0DF3500001EE25E16EF4500001EF2184
:104E1800E26EDFCFE7FF0101F12BBAD70001F651AF
:104E28000E0D0C0EF326000EF4225A0EF324D96E42
:104E3800020EF420DA6E0201DF820001F6510E0D37
:104E48000C0EF326000EF4225A0EF324D96E020E2D
:104E5800F420DA6E0201DF8A0001F6510E0D0C0E05
:104E6800F326000EF4225A0EF324D96E020EF42013
:104E7800DA6E0201DF800101F2510F0D000EF324FA
:104E8800D96E020EF420DA6EDF50E4EC48F000012F
:104E9800F6510E0D5A0EF324D96E020EF420DA6E76
:104EA800DECFF7F0DDCFF8F00001FB69FC69FB0EFF
:104EB8000001656F000E0001666FF70E0001676F55
:104EC800000E0001686F8FEC45F0000E0001F56FD1
:104ED8000001F551010D5C0EF324D96E010EF4208A
:104EE800DA6E010EDF6E0001F52B0001F551010DA0
:104EF8005C0EF324D96E010EF420DA6E57C1DFFF81
:104F08000001F52B000E0101F16F0101F1510101C2
:104F1800D8A419D00101F151010D360EF324D96E30
:104F2800000EF420DA6E0001F551010D5C0EF32439
:104F3800E16E010EF420E26EDFCFE7FF0001F52BF2
:104F48000101F12BE2D70001F6510E0D5A0EF324A0
:104F580000019D6F020EF42000019E6F0001F651C2
:104F68000E0D020EF326000EF4225A0EF324000151
:104F78009F6F020EF4200001A06F010E0001A16FC7
:104F8800080E0001A26F7EEC42F057EC45F060C0BD
:104F9800E8F161C0E9F162C0EAF163C0EBF14AD01F
:104FA8004CEC49F00009D8A468EC49F057EC45F0FE
:104FB80060C0ECF161C0EDF162C0EEF163C0EFF1E9
:104FC800E8C1ECF0E9C1EDF0EAC1EEF0EBC1EFF0B9
:104FD8000001EC1FED1FEE1FEF1FEC2B000EED2361
:104FE800EE23EF230101EC510001EC250001F06FE5
:104FF8000101ED510001ED210001F16F0101EE51B8
:105008000001EE210001F26F0101EF510001EF21D3
:105018000001F36F0001F3510BE1210E0001F05D77
:10502800A10E0001F159070E0001F259D8A002D0D3
:10503800FF0E12000001F6510E0D0C0EF326000EA5
:10504800F4225A0EF324D96E020EF420DA6E02010D
:10505800DFA8A6D70001F6511200FF0E1200000EBD
:1050680000019C6F000E00019B6F00017EA503D01C
:10507800010E0001816F00017EA703D0000E000120
:10508800826F00017E51030BE806D8A402D0030EFC
:1050980007D000017E51030B0009D8A403D0010EEC
:1050A8000001996F0101CE510001831914E101013A
:1050B800CF5100018419D8A40ED00101CE2904E1F2
:1050C8000101CF29D8B407D0050E00019A6F00015D
:1050D800998D010E04D0070E00019A6F000E000191
:1050E800986F00018151D8B402D0020E01D0080E89
:1050F80000019A2700018251D8B402D0020E01D0D3
:10510800080E00019A2700017EAB05D000017EB58C
:1051180002D00001998B00017E51030B030AD8A429
:105128000ED0000E0001996F070E00019A6F000E55
:105138000001986F010E0001826F00017E9B9CC0E8
:1051480062F00001636B9AC064F0F8EC45F000016E
:105158009C2B9CC062F00001636B00019A51000116
:1051680087250001646FF8EC45F000019C2B9CC07A
:1051780062F00001636B99C064F0F8EC45F000013F
:105188009C2B00017E51030B030AD8A416D09CC0A7
:1051980062F00001636B800E0001646FF8EC45F06B
:1051A80000019C2B9CC062F00001636B54C164F049
:1051B800F8EC45F00101542B9CD000018151D8B482
:1051C8000ED000018251D8B40AD09CC062F0000110
:1051D800636B880E0001646FF8EC45F02DD0000178
:1051E8008151D8B40ED000018251D8A40AD09CC0F5
:1051F80062F00001636BC80E0001646FF8EC45F0C3
:105208001BD000018151D8A40ED000018205D8A47A
:105218000AD09CC062F00001636B8C0E0001646FC1
:10522800F8EC45F009D09CC062F00001636BCC0E2D
:105238000001646FF8EC45F000019C2B9CC062F003
:105248000001636B54C164F0F8EC45F00101542B84
:1052580000019C2B9CC062F00001636B83C064F06A
:10526800F8EC45F000019C2B9CC062F00001636BD8
:1052780084C064F0F8EC45F000019C2B00017EA589
:1052880015D09CC062F00001636BFF0E0001646FD3
:10529800F8EC45F000019C2B9CC062F00001636BA8
:1052A800FF0E0001646FF8EC45F023D00001815136
:1052B800D8B422D09CC062F00001636B7FC0D9FFD4
:1052C80080C0DAFFDF500001646FF8EC45F00001A0
:1052D8009C2B9CC062F00001636B000120EE01F082
:1052E8007F51D9268051DA22DF500001646FF8EC33
:1052F80045F000019C2B21D0000E00019B6F070E8A
:1053080000019B6501D019D09CC062F00001636B5D
:1053180000019B51010DF35000017F25D96EF45017
:1053280000018021DA6EDF500001646FF8EC45F06F
:1053380000019C2B00019B2BE2D700019851000132
:10534800D8A414D09CC062F00001636BCEC164F095
:10535800F8EC45F000019C2B9CC062F00001636BE7
:10536800CFC164F0F8EC45F000019C2B000182519C
:10537800D8B415D09CC062F00001636BD0C164F052
:10538800F8EC45F000019C2B9CC062F00001636BB7
:10539800D1C164F0F8EC45F000019C2B21D0000E3F
:1053A80000019B6F070E00019B6501D019D09CC0BE
:1053B80062F00001636B00019B51010DF350010184
:1053C8004B25D96EF45001014C21DA6EDF500001F3
:1053D800646FF8EC45F000019C2B00019B2BE2D791
:1053E800000E00019B6F18D09CC062F00001636B37
:1053F80000019B51010DF35000018525D96EF45031
:1054080000018621DA6EDF500001646FF8EC45F088
:1054180000019C2B00019B2B0001875100019B5D23
:10542800D8A0E2D7398000017EAB08D000017EB554
:1054380005D0050E00019B6F398204D0010E0001D2
:105448009B6F39929BC062F0370E33EC48F057ECF3
:1054580045F060C090F061C091F062C092F063C006
:1054680093F081A0F28239B005D039A457D039948D
:10547800000E120057EC45F060C094F061C095F042
:1054880062C096F063C097F090C088F091C089F030
:1054980092C08AF093C08BF00001881F891F8A1F71
:1054A8008B1F882B000E89238A238B23000194519C
:1054B8000001882500018C6F0001955100018921A8
:1054C80000018D6F0001965100018A2100018E6F45
:1054D8000001975100018B2100018F6F00018F514E
:1054E80000018E1108E1210E00018C5D4E0E0001B5
:1054F8008D59D8A0B6D7BAEC30F0D00E0001656F40
:10550800010E0001666FCE0E0001676F010E0001EB
:10551800686F8FEC45F03990000E1200010E1200F2
:1055280001015651D8B40BD001016751D8B407D046
:1055380033863AC0F3F1060E0101E56F04D0020E7E
:105548000101E56F33960001DC510001D8B45BD14D
:10555800000E0101E66F070E0101E66501D019D0C2
:105568000101E651010DF3500001DA25D96EF4501E
:105578000001DB21DA6E0101E651010D3A0EF32438
:10558800E16E010EF420E26EDFCFE7FF0101E62BAA
:10559800E2D7A1EC40F00101E76F0101E729D8A4A7
:1055A80042D040C05CF1020E01015D6F01015E69ED
:1055B80001015F690101606901016169F7C062F178
:1055C800F8C063F1F9C064F1FAC065F13AC066F158
:1055D8003A2A000E2C6E2C8A0001DDB102D02C96DE
:1055E80001D02C86DAC02DF0DBC02EF0000E2F6E15
:1055F800010E306EF7C031F0F8C032F0339620EE6D
:105608002CF000EE7EF0060EDBCFEBFFE806FCE2A6
:105618005C0E0001856F010E0001866FF5C087F0F2
:1056280033EC28F012000101E7510E0D0C0EF326A1
:10563800000EF4225A0EF324D96E020EF420DA6E0C
:105648000201DFA6AED701015651D8B411D001012D
:10565800E7510E0D020EF326000EF4225A0EF32423
:10566800D96E020EF420DA6EDECF4DF1DDCF4EF1A9
:10567800040E01015C6FE5C15DF10101E7510E0DFA
:105688005A0EF324D96E020EF420DA6EDF500101AF
:105698005E6F0101E7510E0D010EF326000EF42294
:1056A8005A0EF324D96E020EF420DA6EDF5001018F
:1056B8005F6F0101E7510E0D020EF326000EF42272
:1056C8005A0EF324D96E020EF420DA6EDF5001016F
:1056D800606F0101E7510E0D030EF326000EF42250
:1056E8005A0EF324D96E020EF420DA6EDF5001014F
:1056F800616FF7C062F1F8C063F1F9C064F1FAC0F4
:1057080065F13AC066F13A2A0101E7510E0D5A0EC9
:10571800F324D96E020EF420DA6EDECFA5F0DDCFC9
:10572800A6F00101E7510E0D020EF326000EF42239
:105738005A0EF324D96E020EF420DA6EDECFA7F0EB
:10574800DDCFA8F0DDC0A9F051EC23F00009D8A402
:1057580002D03396120033A6120057EC45F060C011
:10576800D5F161C0D6F162C0D7F163C0D8F14CEC75
:1057780049F00009D8A468EC49F033A6120057ECA8
:1057880045F060C0D9F161C0DAF162C0DBF163C0F5
:10579800DCF1D5C1DEF0D6C1DFF0D7C1E0F0D8C169
:1057A800E1F00001DE1FDF1FE01FE11FDE2B000E0E
:1057B800DF23E023E1230101D9510001DE250001A7
:1057C800E26F0101DA510001DF210001E36F0101FD
:1057D800DB510001E0210001E46F0101DC5100010F
:1057E800E1210001E56F0001E5510BE1210E000107
:1057F800E25DA10E0001E359070E0001E459D8A0AB
:10580800B6D733961200040E01015C6FE5C15DF155
:10581800F7C05EF1F8C05FF1DAC0D9FFDBC0DAFF8C
:10582800DF500101606F000120EE01F0DA51D92646
:10583800DB51DA22DF500101616FF7C062F1F8C075
:1058480063F1F9C064F1FAC065F13AC066F13A2A29
:10585800DAC0D9FFDBC0DAFFDF5001014D6F00016C
:1058680020EE01F0DA51D926DB51DA22DF500101AE
:105878004E6FDAC0D9FFDBC0DAFFDF500001FB6FE3
:10588800000120EE01F0DA51D926DB51DA22DF508F
:105898000001FC6FF7C0A5F0F8C0A6F0FBC0A7F0A8
:1058A800FCC0A8F0DDC0A9F051EC23F00009D8A491
:1058B80002D03396120033A6120057EC45F060C0B0
:1058C800DDF161C0DEF162C0DFF163C0E0F14CECF4
:1058D80049F00009D8A468EC49F033A6120057EC47
:1058E80045F060C0E1F161C0E2F162C0E3F163C07C
:1058F800E4F1DDC1DEF0DEC1DFF0DFC1E0F0E0C1E0
:10590800E1F00001DE1FDF1FE01FE11FDE2B000EAC
:10591800DF23E023E1230101E1510001DE2500013D
:10592800E26F0101E2510001DF210001E36F010193
:10593800E3510001E0210001E46F0101E45100019D
:10594800E1210001E56F0001E5510BE1210E0001A5
:10595800E25DA10E0001E359070E0001E459D8A049
:10596800B6D733961200010E0101E16F010E010155
:10597800D76F000E0101D56F000E0101D86F000E20
:105988000101D66FFE0E00018F6FFD0E0001906FB2
:10599800000E0001916F010E0001926F5AEC46F063
:1059A80057EC45F060C0DDF161C0DEF162C0DFF1A7
:1059B80063C0E0F1E3D157EC45F060C0D9F161C0B4
:1059C800DAF162C0DBF163C0DCF1DDC1EDF0DEC10C
:1059D800EEF0DFC1EFF0E0C1F0F00001ED1FEE1FC7
:1059E800EF1FF01FED2B000EEE23EF23F023010134
:1059F800D9510001ED250001F16F0101DA510001D3
:105A0800EE210001F26F0101DB510001EF210001DD
:105A1800F36F0101DC510001F0210001F46F000176
:105A2800F4510BE1210E0001F15DA10E0001F259C4
:105A3800070E0001F359D8A053D10101D751010134
:105A4800D8B4B1D00B0E0001F56F0001F551010D6E
:105A58005C0EF324D96E010EF420DA6E020EDF6EAE
:105A68000001F52B0001F551010D5C0EF324D96EF0
:105A7800010EF420DA6E4D0EDF6E0001F52B0001E9
:105A8800F551010D5C0EF324D96E010EF420DA6E87
:105A9800690EDF6E0001F52B0001F551010D5C0E5A
:105AA800F324D96E010EF420DA6E570EDF6E000172
:105AB800F52B0001F551010D5C0EF324D96E010E92
:105AC800F420DA6E690EDF6E0001F52B0001F55146
:105AD800010D5C0EF324D96E010EF420DA6E200E4F
