:0400000063EF01F0B9
:100008004982FACF0EF0FBCF0FF0E9CF10F0EACF1C
:1000180011F0E1CF12F0E2CF13F0D9CF14F0DACF1C
:1000280015F0F3CF16F0F4CF17F0F6CF18F0F7CF9E
:1000380019F0F8CF1AF0F5CF1BF09EA011D09E90C2
:100048003C0ECF6EB00ECE6E89AE02D0899E02D025
:1000580089AE898ED00E016E020E026EA6EC5DF09E
:10006800A4A610D00101F4B102D08A9401D08A84E8
:100078000101F451D8A402D0010E01D0000E0101F3
:10008800F46FA496A1A243D002016051D8B41DD048
:10009800000E0201606F280E096E0A0E0A6EF2C287
:1000A8000BF0F3C20CF009500B260A500C220B1E61
:1000B8000C1E0B4A0C2A0BC01CF00CC01DF08986C4
:1000C8001CC07AFF1DC07BFF10D0010E0201606FBB
:1000D800E80E0201F2251E6E6D0E0201F3211F6E5D
:1000E80089961EC07AFF1FC07BFFA19202015F2B79
:1000F800FA0E02015F19D8A40AD0A192A092010EAB
:100108000201F36F900EF26F000E02015F6FF2B8FA
:10011800F2A2ABD0F292620EB1EC65F0216E21A092
:1001280011D03C903CBC3C9C000E02015C6F000E60
:100138005B6F3CA207D0480EB1EC65F0206E20B092
:100148003C843C9221A68AD02368000E246E010EBE
:10015800246401D010D02450500D000EF324D96E21
:10016800040EF420DA6EDF50D8A403D024C023F0A4
:1001780002D0242AECD7020E23606BD0040E036E43
:10018800730EC6EC65F02350500D000EF324D96EA3
:10019800040EF420DA6E030E046E000E036E17ECE4
:1001A80064F0020FDF6E2350500D000EF324D96E59
:1001B800040EF420DA6E4F0EDF6040D03C8A010E48
:1001C800246E1AD02350500D000E096E040E0A6ECC
:1001D800F3500926F4500A2224500924D96E000E3F
:1001E8000A20DA6E000E2424036E046A030E042229
:1001F80017EC64F0DF6E242A2450096E0A6A235033
:10020800500D000EF324D96E040EF420DA6EDF5080
:100218000B6E0C6A020E0B26000E0C2209500B5CAA
:100228000C50800A0D6E0A50800A0D58D8B0CAD7F3
:10023800010E036E1B0EC6EC65F005D0010E036EB1
:100248001B0EC6EC65F0000E036E730EC6EC65F06F
:1002580005D0010E036E1B0EC6EC65F021A805D073
:10026800800E036E590EC6EC65F09EB09DA007D0B7
:100278009E903F2A3F50D8A402D00101FC2BACEC41
:1002880066F01BC0F5FF1AC0F8FF19C0F7FF18C0C9
:10029800F6FF17C0F4FF16C0F3FF15C0DAFF14C04D
:1002A800D9FF13C0E2FF12C0E1FF11C0EAFF10C07E
:1002B800E9FF0FC0FBFF0EC0FAFF4992110085EF5E
:1002C8005CF077EC37F00009D8B4B0EF0DF037B434
:1002D8001200000E0201206F25A404D00001B16BAA
:1002E800B12B02D00001B16B020120510001B119FC
:1002F800FC0BB1190201206F25A603D0020120874B
:1003080002D0020120972550030BE806D8A404D098
:100318000001B16BB12B02D00001B16B0001B13B00
:10032800B147020120510001B119DF0BB1190201D7
:10033800206F25AE03D00201208D02D00201209D3E
:1003480025AE0BD02DB003D00201209F02D00201B0
:10035800208F26C023F227C024F22EC021F22FC0FE
:1003680022F22CC029F22BC028F23794A0EF0DF00E
:100378000A0E2A6002D0ADEF0DF020EE02F02850F0
:10038800D9262950DA22DF500001CC6F20EE03F085
:100398002850D9262950DA22DF500001CD6F20EEEF
:1003A80004F02850D9262950DA22DF500001D06FF6
:1003B80020EE05F02850D9262950DA22DF50000116
:1003C800D16F20EE06F02850D9262950DA22DF50C6
:1003D8000001D26F20EE07F02850D9262950DA22E2
:1003E800DF500001D36F20EE08F02850D92629509D
:1003F800DA22DF500001D66F20EE09F02850D92606
:100408002950DA22DF500001D76F000E0201206F59
:1004180025A603D00201208702D0020120970201FD
:100428002051030B0009D8A407D00001D02903E10B
:100438000001D129D8A472D10001FE510001D619BA
:1004480010E10001FF510001D719D8A40AD0425089
:100458000001D21906E143500001D319D8B4ADEF19
:100468000DF028C0D9FF29C0DAFF010EDF649BD048
:1004780028C0D9FF29C0DAFFDF06000E0001FC6F93
:10048800000E0001D96F18D00001D951010DF350A9
:100498002824D96EF4502920DA6E0001FC51010D90
:1004A800610EF324E16E020EF420E26EDFCFE7FF67
:1004B8000001FC2B0001D92B2A500001D95DD8A0DE
:1004C800E3D725C030F042C035F043C036F02DC028
:1004D80034F0140E49EC5DF020EE30F000EE7EF0C2
:1004E800060EDBCFEBFFE806FCE2610E0001856F2C
:1004F800020E0001866FFCC087F0F6EC44F0000E97
:100508000001D96F090E0001D96501D033D000016F
:10051800D9510E0D0C0EF326000EF4223C0EF324D6
:10052800D96E030EF420DA6E0301DFAE20D000018D
:10053800D9510E0D0C0EF326000EF4223C0EF324B6
:10054800D96E030EF420DA6E0301DFB010D000017B
:10055800D9510E0D0C0EF326000EF4223C0EF32496
:10056800D96E030EF420DA6E0301DFBA03D000015E
:10057800D92BC8D70A0E0001D96115D0CCC06AF0B2
:10058800CDC06BF0000E00016C6F000E00016D6FA6
:10059800000E00016E6F000E25B6010E00016F6F90
:1005A800010E53EC4EF0000E0001D96F030E00014E
:1005B800D96501D03CD00001D951080D030EF326AE
:1005C800000EF422000EF324D96E020EF420DA6E27
:1005D800DF50D8B429D00001D951080D000EF324FA
:1005E800D96E020EF420DA6E0001D651DE181CE135
:1005F8000001D751DE18D8A417D020EE0AF02850F1
:10060800D9262950DA220001D951080D020EF32605
:10061800000EF422000EF324E16E020EF420E26EC6
:10062800DE50E618D8B403D00001D92BBFD7040E8A
:100638000001D96102D0ADEF0DF0000E0001D96FB5
:10064800030E0001D96501D013D00001D951080D5E
:10065800030EF326000EF422000EF324D96E020EC8
:10066800F420DA6EDF50D8B403D00001D92BE8D7D4
:10067800040E0001D9614CD00001D951080D000EBB
:10068800F324D96E020EF420DA6ED6C0DEFFD7C08E
:10069800DDFF20EE0AF02850D9262950DA22000181
:1006A800D951080D020EF326000EF422000EF32491
:1006B800E16E020EF420E26EDFCFE7FF0001D951B0
:1006C800080D030EF326000EF422000EF324D96E53
:1006D800020EF420DA6E030EDF6E04EC62F0000105
:1006E800D951080D040EF326000EF422000EF3244F
:1006F800D96E020EF420DA6E000160C0DEFF000140
:1007080061C0DEFF000162C0DEFF000163C0DEFFE2
:1007180002012051FC0B0109206F7DD042500001DD
:10072800CC1904E143500001CD19D8A4C7EF07F054
:100738000001FE510001D01905E10001FF5100013F
:10074800D119D8A4C7EF07F020EE01F02850D92618
:100758002950DA22DFA45FD048C061F2020E0201FC
:10076800626FD2C063F2D3C064F2D6C065F2D7C05C
:1007780066F242C067F243C068F2FEC069F2FFC089
:100788006AF220EE0AF02850D9262950DA22DF50E2
:1007980002016B6F000E02016C6F300E02016D6F6B
:1007A8000D0E0001FC6F0001FF510001D719D8B4EC
:1007B8000ED0D2C0A5F0D3C0A6F0D6C0A7F0D7C03F
:1007C800A8F0000E0001A96F1DEC40F022D0000E29
:1007D800306E308A010E336E010E346ED60E316ED5
:1007E800000E326ED2C035F0D3C036F020EE30F0B5
:1007F80000EE7EF0060EDBCFEBFFE806FCE2610EB2
:100808000001856F020E0001866FFCC087F0F6ECD0
:1008180044F00201208520EE0BF02850D9262950FB
:10082800DA22DF50D8A46DD320EE0CF02850D92658
:100838002950DA22300EDE18D8A430D347D302016B
:10084800B5B371D004EC62F060C0CCF261C0CDF2F7
:1008580062C0CEF263C0CFF220EE08F02850D9264D
:100868002950DA22DF500201B76F20EE09F0285034
:10087800D9262950DA22DF500201B86F000E000194
:10088800D86F070E0001D86501D020D00001D851DB
:100898000001B16FB26B0D0E0001B127000EB2233B
:1008A8000001B1512824D96E0001B2512920DA6E15
:1008B8000001D851010DB90EF324E16E020EF420A7
:1008C800E26EDFCFE7FF0001D82BDBD70201B5834B
:1008D8000201B591000E0001D86F0001D851000146
:1008E800D8A4ADEF0DF00001D8510001B16FB26B83
:1008F800150E0001B127000EB2230001B1512824C2
:10090800D96E0001B2512920DA6E0001D851010DCB
:10091800C10EF324E16E020EF420E26EDFCFE7FF92
:100928000001D82BDAD720EE08F02850D926295014
:10093800DA220201B751DE18D8A40CD020EE09F053
:100948002850D9262950DA220201B851DE18D8B425
:10095800ADEF0DF00201B7510201B811D8A4AAD029
:10096800000E0001D86F070E0001D86501D034D001
:100978000001D8510001B16FB26B0D0E0001B12713
:10098800000EB2230001B1512824D96E0001B251E2
:100998002920DA6E0001D851010DC40EF324E16E4E
:1009A800020EF420E26EDFCFE7FF0001D851010DFF
:1009B800C40EF324D96E020EF420DA6E0001D85169
:1009C800010D3A0EF324E16E020EF420E26EDFCF41
:1009D800E7FF0001D82BC7D720EE08F02850D9260A
:1009E8002950DA22DF500201C26F20EE09F02850A8
:1009F800D9262950DA22DF500201C36FC2C244F05F
:100A0800C3C245F042C0D4F243C0D5F2CEEC60F088
:100A18000201B66F0201B629D8A405D18D0E0101D5
:100A2800FB6F44AE02D00101FB919AEC5AF002012F
:100A3800B66F0201B629D8B4F6D0000E0001D86FFF
:100A48000001D8510001D8A4EED00001D85100010E
:100A5800B16FB26B150E0001B127000EB223000171
:100A6800B1512824D96E0001B2512920DA6E000153
:100A7800D851010D0D0EF326000EF4223C0E000194
:100A8800B36F030E0001B46FF3500001B327F450A5
:100A98000001B4230201B6510E0DF3500001B32535
:100AA800E16EF4500001B421E26EDFCFE7FF0001F0
:100AB800D82BC6D70B0E0001FC6F0001FC51010DAD
:100AC800610EF324D96E020EF420DA6E000EDF6E8A
:100AD8000001FC2B0001FC51010D610EF324D96EBD
:100AE800020EF420DA6E110EDF6E0001FC2B000EF0
:100AF8000001D86F070E0001D86501D036D000017B
:100B0800D8510001B16FB26B0D0E0001B127000E74
:100B1800B2230001B1512824D96E0001B251292015
:100B2800DA6E0001D851010DC40EF324E16E020EF5
:100B3800F420E26EDFCFE7FF0001D851010DC40EAB
:100B4800F324D96E020EF420DA6E0001FC51010D77
:100B5800610EF324E16E020EF420E26EDFCFE7FFB0
:100B68000001FC2B0001D82BC5D720EE08F0285037
:100B7800D9262950DA22DF500201C26F20EE09F08F
:100B88002850D9262950DA22DF500201C36F00010C
:100B9800FC51010D610EF324D96E020EF420DA6EB9
:100BA800C2C2DFFF0001FC2B0001FC51010D610EE8
:100BB800F324D96E020EF420DA6EC3C2DFFF0001FF
:100BC800FC2B000E0001D86F0001D8510001D8A4F9
:100BD80022D00001D8510001B16FB26B150E00018F
:100BE800B127000EB2230001B1512824D96E0001AB
:100BF800B2512920DA6E0001FC51010D610EF32477
:100C0800E16E020EF420E26EDFCFE7FF0001FC2B5D
:100C18000001D82BD9D7B70E0001AF6F020E000123
:100C2800B06F87EC60F00201B5830201B581ADEFCA
:100C38000DF0000E0001D46F070E0001D46501D03D
:100C480020D00001D4510001B16FB26B0D0E00012C
:100C5800B127000EB2230001B1512824D96E00013A
:100C6800B2512920DA6E0001D451010D3A0EF32455
:100C7800E16E020EF420E26EDFCFE7FF0001D42B15
:100C8800DBD78D0E0101FB6F20EE15F02850D92619
:100C98002950DA22DFAE02D00101FB9120EE15F0D7
:100CA8002850D9262950DA22DF50446E20EE16F05B
:100CB8002850D9262950DA22DF50456E42C0D4F296
:100CC80043C0D5F2CEEC60F00201B66F0201B6293E
:100CD800D8B415D00201B6510E0D0C0EF326000E35
:100CE800F4223C0EF324D96E030EF420DA6EDF50A2
:100CF8000101FB6F0101FB850101FB8707D08D0E08
:100D08000101FB6F44AE02D00101FB919AEC5AF04D
:100D18000201B66F0201B629D8B440D0000E000116
:100D2800D46F0001D4510001D8A435D00001D451AA
:100D38000001B16FB26B170E0001B127000EB2238C
:100D48000001B1512824D96E0001B2512920DA6E70
:100D58000001D451010D0D0EF326000EF4223C0EB5
:100D68000001B36F030E0001B46FF3500001B32705
:100D7800F4500001B4230201B6510E0DF3500001E6
:100D8800B325E16EF4500001B421E26EDFCFE7FF36
:100D98000001D42BC6D70201B58102D00201B5915A
:100DA8000201B593ADEF0DF020EE0DF02850D926D5
:100DB8002950DA224650DE18D8A4ADEF0DF020EE07
:100DC8000EF02850D9262950DA22DF50EEEC65F0D3
:100DD800ADEF0DF020EE0DF02850D9262950DA227B
:100DE8004650DE18D8A4ADEF0DF0000E0001FC6FE0
:100DF80048C061F2020E0201626F42C063F243C052
:100E080064F220EE08F02850D9262950DA22DF5063
:100E18000201656F20EE09F02850D9262950DA2200
:100E2800DF500201666F42C067F243C068F2FEC03D
:100E380069F2FFC06AF23DC06BF23D2A000E020162
:100E48006C6F420E02016D6F000E306E308A010E1B
:100E5800336E010E346E42C035F043C036F0080ED2
:100E68002824316E000E2920326E20EE30F000EE7C
:100E78007EF0060EDBCFEBFFE806FCE2610E000118
:100E8800856F020E0001866F0D0E0001876FF6EC6C
:100E980044F0ADEF0DF0379EADEF0DF020EE0CF005
:100EA8002850D9262950DA22DF50100AD8B4C7D4DE
:100EB800010AD8B4BED6510AD8B476D7010AD8B434
:100EC80089D7030AD8B4E7D7ADEF0DF020EE0AF0C2
:100ED8002850D9262950DA220201F451DE18D8A464
:100EE800ADEF0DF0020159510001D61905E10201DB
:100EF8005A510001D719D8A4ADEF0DF03796ADEFD0
:100F08000DF02A50F50F0201276F0B0E282402015D
:100F1800256F000E29200201266FD2C021F2D3C00E
:100F280022F220EE08F02850D9262950DA22DE28AD
:100F3800D8A415D020EE09F02850D9262950DA2255
:100F4800DE28D8A40CD02DB003D00201209F02D0F7
:100F58000201208F26C023F227C024F20AD0020102
:100F6800208F080E28240201236F000E2920020179
:100F7800246F0201208D02012751D8B4ADEF0DF086
:100F88003784ADEF0DF028C0D9FF29C0DAFFDF5054
:100F9800D8B4ADEF0DF028C0D9FF29C0DAFFDF06BD
:100FA800000E0001FC6F000E0001D96F18D000017F
:100FB800D951010DF3502824D96EF4502920DA6E46
:100FC8000001FC51010D610EF324E16E020EF420C4
:100FD800E26EDFCFE7FF0001FC2B0001D92B2A507E
:100FE8000001D95DD8A0E3D70001FF510001D11954
:100FF800D8A42DD002016C51D8A429D0300E0201FA
:101008006D19D8A424D0000E306E308A010E336ECC
:10101800010E346ED00E316E000E326ECCC035F03B
:10102800CDC036F020EE30F000EE7EF0060EDBCFBD
:10103800EBFFE806FCE2610E0001856F020E00017D
:10104800866FFCC087F0F6EC44F0ADEF0DF0CCC035
:10105800A5F0CDC0A6F0D0C0A7F0D1C0A8F0000E72
:1010680025B6010E0001A96F1DEC40F0ADEF0DF0A3
:10107800000E0001CB6F0001CB510001B16FB26BC4
:10108800040E0001B127000EB2230001B15128243B
:10109800D96E0001B2512920DA6E4D0EDE18D8A49F
:1010A800ADEF0DF020EE01F02650D9262750DA22B8
:1010B800DF500001C26FC2C0B1F0010E0001B26F73
:1010C8000001B12B03D00001D890B2370001B12F35
:1010D800FAD70001B2510001BF6F26C0D9FF27C05F
:1010E800DAFFDF50D8A404D00001BF510101F81382
:1010F8000001CB510001B16FB26B060E0001B127A0
:10110800000EB2230001B1512824D96E0001B2515A
:101118002920DA6E0001C251010D320EF324E16E6E
:10112800020EF420E26EDFCFE7FF37A0ADEF0DF03F
:101138002EC0D4F22FC0D5F226C0D9FF27C0DAFFBF
:10114800DF50446E20EE01F02650D9262750DA22CF
:10115800DF50456E0001CB51010DF3502824D96EA4
:10116800F4502920DA6EDE28D8A4ADEF0DF0000186
:10117800CB510001B16FB26B010E0001B127000E17
:10118800B2230001B1512824D96E0001B25129209F
:10119800DA6EDF500001CA6F040E3960ADEF0DF052
:1011A8000001CA39030B0001B16F020E0001B161E1
:1011B800ADEF0DF039500F0D000EF324D96E030E6C
:1011C800F420DA6E46C0DFFF39500F0D0B0EF32600
:1011D800000EF422000EF324D96E030EF420DA6E0A
:1011E80028C2DFFF39500F0D0C0EF326000EF42233
:1011F800000EF324D96E030EF420DA6E29C2DFFF45
:1012080039500F0D090EF326000EF422000EF324B8
:10121800D96E030EF420DA6ED4C2DEFFD5C2DDFF2C
:1012280039500F0D0D0EF326000EF422000EF32494
:10123800D96E030EF420DA6E000EDF6E39500F0DF2
:101248000D0EF326000EF422000EF324D96E030EC1
:10125800F420DA6E0301DF8C0001CA31030B0001B0
:10126800B16F39500F0D0D0EF326000EF422000E4B
:10127800F324D96E030EF420DA6E0301DF50000167
:10128800B119FC0BB1190301DF6E0001CAA70ED01A
:1012980039500F0D0D0EF326000EF422000EF32424
:1012A800D96E030EF420DA6E0301DF860001CA3915
:1012B800030B0001B16F020E0001B1610ED039506D
:1012C8000F0D0D0EF326000EF422000EF324D96E36
:1012D800030EF420DA6E0301DF8A23C2D9FF24C289
:1012E800DAFF39500F0D010EF326000EF422000E1E
:1012F800F324E16E030EF420E26EDFCFE7FF020174
:1013080020EE01F02351D9262451DA2239500F0D4D
:10131800020EF326000EF422000EF324E16E030EF3
:10132800F420E26EDFCFE7FF39500F0D0D0EF326E4
:10133800000EF422000EF324D96E030EF420DA6EA8
:101348000301DF8E000E0001D96F0001D9510001A1
:10135800D8A439D00001D951CBC0B1F00001B26B8B
:101368000001B127000EB223070E0001B127000EBD
:10137800B2230001B1512824D96E0001B2512920AD
:10138800DA6E0001D951010D0E0EF326000EF4227B
:10139800000E0001B36F030E0001B46FF35000019B
:1013A800B327F4500001B42339500F0DF350000156
:1013B800B325E16EF4500001B421E26EDFCFE7FF00
:1013C8000001D92BC2D7392AC4D3000E0001C16F3E
:1013D800010E3B6401D0BDD3000E0001D96F070E8A
:1013E8000001D96501D017D00001D951010DF35082
:1013F8002624D96EF4502720DA6E0001D951010D48
:101408003A0EF324E16E020EF420E26EDFCFE7FF1E
:101418000001D92BE4D71FEC5CF00001D56F000167
:10142800D529D8A41AD03B50D8A493D3B70E01011C
:10143800FB6F42C0D4F243C0D5F29AEC5AF00001D7
:10144800D56F0001D529D8A42AD0010E0001C16F9B
:10145800FF0E456EFE0E446ED4D00001D5510E0D20
:101468000C0EF326000EF4223C0EF324D96E030E64
:10147800F420DA6E0301DFA612D00001D5510E0D5B
:10148800020EF326000EF4223C0EF324D96E030E4E
:10149800F420DA6EDECF44F0DDCF45F0B2D00001A3
:1014A800D529D8B4AED00001D529446EFFC045F087
:1014B80042C0D4F243C0D5F2020E3E18D8A443D09D
:1014C80020EE01F02850D9262950DA22DFAC3BD093
:1014D80044C0BDF045C0BEF0000E446E010E0001D0
:1014E800CE6F070E0001CE6501D024D0CEC045F0E6
:1014F800CEEC60F00001C06F0001C029D8A417D05D
:10150800000E446ECEC045F0CEC0B1F0010E000111
:10151800B26F0001B12B03D00001D890B23700019F
:10152800B12FFAD70001B2510101F81303D000011D
:10153800CE2BD7D7080E0001CE19D8A404D0BDC031
:1015480044F0BEC045F0BF0E0101FB6F20EE01F074
:101558002850D9262950DA22DFB003D00101FB91A7
:10156800448E9AEC5AF00001D56F0001D5510E0D4A
:101578000C0EF326000EF4223C0EF324D96E030E53
:10158800F420DA6E0301DF88000E0001D96F000134
:10159800D9510001D8A435D00001D9510001B16F4B
:1015A800B26B020E0001B127000EB2230001B15147
:1015B8002824D96E0001B2512920DA6E0001D951D0
:1015C800010D0D0EF326000EF4223C0E0001B36F40
:1015D800030E0001B46FF3500001B327F45000016B
:1015E800B4230001D5510E0DF3500001B325E16E6F
:1015F800F4500001B421E26EDFCFE7FF0001D92BE0
:10160800C6D7020E0201616F44C062F245C063F2A0
:10161800C1C064F2000E0001D96F0001D951000168
:10162800D8A420D00001D951010D3A0EF324D96E67
:10163800000EF420DA6E0001D9510001B16FB26BCF
:10164800040E0001B127000EB223610E0001B1257E
:10165800E16E020E0001B221E26EDFCFE7FF00016A
:10166800D92BDBD7050E0001FC6F420E00019D6FE0
:10167800000E00019E6F0001D5510E0D040EF326D9
:10168800000EF4223C0EF32400019F6F030EF42099
:101698000001A06F010E0001A16F000E0001A26FF2
:1016A800ADEC5EF056D220EE03F02850D926295032
:1016B800DA22DF50D8A4C9D020EE01F02850D9266C
:1016C8002950DA22DF500001FE6F20EE02F0285088
:1016D800D9262950DA22DF500001FF6F0001FE51A0
:1016E800D8A424D0010E3E6E3EC0B1F00001B1472F
:1016F8000101F7510001B119F90BB1190101F76F97
:10170800FFC0B1F0070E0001B117010E0001B26F62
:101718000001B12B03D00001D890B2370001B12FDE
:10172800FAD70001B2290101F8130ED0000E3E6E5F
:101738003EC0B1F00001B1470101F7510001B119F4
:10174800F90BB1190101F76FFE0E0001656F000E6C
:101758000001666F420E0001676F000E0001686F9E
:1017680072EC62F03782BF0E0101FB6F000E0001C0
:10177800D96F070E0001D96501D017D00001D951E2
:10178800010DF3502624D96EF4502720DA6E00019B
:10179800D951010D3A0EF324E16E020EF420E26EE7
:1017A800DFCFE7FF0001D92BE4D70001FE51D8A411
:1017B80003D0000E456E02D0FFC045F0000E446E07
:1017C80042C0D4F243C0D5F29AEC5AF00001FD6F42
:1017D800000E0001D96F0001D9510001D8A4B9D178
:1017E8000001D9510001B16FB26B040E0001B1279D
:1017F800000EB2230001B1512824D96E0001B25164
:101808002920DA6E0001D951010D0D0EF326000EC4
:10181800F4223C0E0001B36F030E0001B46FF350C5
:101828000001B327F4500001B4230001FD510E0D4F
:10183800F3500001B325E16EF4500001B421E26ECB
:10184800DFCFE7FF0001D92BC6D70001FD69426849
:10185800436844684568440E0001656F000E000146
:10186800666F420E0001676F000E0001686F72EC30
:1018780062F06FD12D50D8B417D026C0D9FF27C039
:10188800DAFFDF50446E20EE01F02650D9262750AB
:10189800DA22DF50456ECEEC60F00001C96F00011E
:1018A800C929D8B456D122D0000E0001D96F070E2D
:1018B8000001D96501D017D00001D951010DF350AD
:1018C8002624D96EF4502720DA6E0001D951010D73
:1018D8003A0EF324E16E020EF420E26EDFCFE7FF4A
:1018E8000001D92BE4D71FEC5CF0D7D70001C95110
:1018F8000E0D0C0EF326000EF4223C0EF324D96EC6
:10190800030EF420DA6E0301DFAA23D10001FD5192
:101918000001C919D8B410D00001C9510E0D0C0E20
:10192800F326000EF4223C0EF324D96E030EF420A5
:10193800DA6E000EDF6E0DD1000E0001D96F090EB0
:101948000001D96501D090D00001D9510E0D0C0EBF
:10195800F326000EF4223C0EF324D96E030EF42075
:10196800DA6E0301DFAE6ED00001D9510E0D0C0EF8
:10197800F326000EF4223C0EF324D96E030EF42055
:10198800DA6E0301DFAA5ED00001FD510001D9190A
:10199800D8B458D0000E0001FC6F0001FC51010DB5
:1019A800610EF324D96E020EF420DA6E030EDF6E98
:1019B8000001FC2B000E306E308A3050FC0B010900
:1019C800306E010E336E010E346E0001D9510E0DCA
:1019D8003C0EF324D96E030EF420DA6EDECF35F018
:1019E800DDCF36F00001D9510E0D020EF326000EA0
:1019F800F4223C0EF324316E030EF420326E20EEF6
:101A080030F000EE7EF0060EDBCFEBFFE806FCE2DE
:101A1800610E0001856F020E0001866FFCC087F021
:101A2800F6EC44F0000E0001C46F000EC36F000115
:101A3800C3290F0E0001C459D8B004D00001C34B0C
:101A4800C42BF5D70001D9510E0D0C0EF326000E4C
:101A5800F4223C0EF324D96E030EF420DA6E000E45
:101A6800DF6E0001D92B6BD70001FD690001FE690B
:101A7800FF6942684368FE0E0001656F000E0001B1
:101A8800666F420E0001676F000E0001686F72EC0E
:101A980062F037925ED02D50D8B410D0000E0001FD
:101AA800A46F000E0001A56F26C0A6F027C0A7F0FE
:101AB800010E0001A86FC8EC33F04BD026C0A4F08B
:101AC80027C0A5F0000E0001A66F000E0001A76F49
:101AD800000E0001A86FC8EC33F03BD0020E3B6447
:101AE80001D037D037A235D020EE01F02850D926C2
:101AF8002950DA224650DE18D8A42BD03E50D8B44C
:101B080028D0140E49EC5DF07FEC59F022D028C0A3
:101B1800D9FF29C0DAFFDF50010AD8B456D4030A26
:101B2800D8B4C1D5010AD8B4A5D6070AD8B4B3D752
:101B3800030AD8B4D3D70DD02550030B000AD8B464
:101B4800BCEF01F0010AD8B4E2D7020AD8B43CEFDE
:101B580008F037A41CEC66F004EC62F060C0C5F035
:101B680061C0C6F062C0C7F063C0C8F0000E0001D3
:101B7800D96F010E0001D96501D062D00001D95199
:101B8800430D0E0EF326000EF422640EF324D96ED4
:101B9800050EF420DA6E0501DFA04FD00001D951FF
:101BA800430D640EF324D96E050EF420DA6EDECFF1
:101BB800B1F0DECFB2F0DECFB3F0DECFB4F000018B
:101BC800B11FB21FB31FB41FB12B000EB223B32332
:101BD800B4230001C5510001B1250001B56F000112
:101BE800C6510001B2210001B66F0001C7510001C2
:101BF800B3210001B76F0001C8510001B4210001F1
:101C0800B86F0001B8510AE10001B505120E0001D4
:101C1800B6597A0E0001B759D8A00FD00001D95192
:101C2800430D0E0EF326000EF422640EF324D96E33
:101C3800050EF420DA6E000EDF6E0001D92B99D75D
:101C4800000E0001D96F030E0001D96501D067D0DD
:101C58000001D951080D030EF326000EF422000EE0
:101C6800F324D96E020EF420DA6EDF50D8B454D0C3
:101C78000001D951080D040EF326000EF422000EBF
:101C8800F324D96E020EF420DA6EDECFB1F0DECF87
:101C9800B2F0DECFB3F0DECFB4F00001B11FB21F57
:101CA800B31FB41FB12B000EB223B323B42300011A
:101CB800C5510001B1250001B56F0001C6510001F1
:101CC800B2210001B66F0001C7510001B321000124
:101CD800B76F0001C8510001B4210001B86F0001BD
:101CE800B8510BE1210E0001B55DA10E0001B659F6
:101CF800070E0001B759D8A00FD00001D951080D1F
:101D0800030EF326000EF422000EF324D96E020E01
:101D1800F420DA6E000EDF6E0001D92B94D7020191
:101D2800B5A312000201B5A184D00B0E0001FC6F0F
:101D38000001FC51010D610EF324D96E020EF4204E
:101D4800DA6E000EDF6E0001FC2B0001FC51010D64
:101D5800610EF324D96E020EF420DA6E110EDF6ED6
:101D68000001FC2B000E0001CF6F070E0001CF65AC
:101D780001D019D00001CF51010DB90EF324D96E4D
:101D8800020EF420DA6E0001FC51010D610EF324FD
:101D9800E16E020EF420E26EDFCFE7FF0001FC2BBC
:101DA8000001CF2BE2D70001FC51010D610EF32495
:101DB800D96E020EF420DA6EB7C2DFFF0001FC2BE9
:101DC8000001FC51010D610EF324D96E020EF420BE
:101DD800DA6EB8C2DFFF0001FC2B000E0001CF6FE6
:101DE8000001CF510001D8A419D00001CF51010D35
:101DF800C10EF324D96E020EF420DA6E0001FC51F4
:101E0800010D610EF324E16E020EF420E26EDFCFC5
:101E1800E7FF0001FC2B0001CF2BE2D7C20E000127
:101E2800AF6F020E0001B06F87EC60F00201B5934E
:101E38001200CCC2B1F0CDC2B2F0CEC2B3F0CFC264
:101E4800B4F00001B11FB21FB31FB41FB12B000EB5
:101E5800B223B323B4230001C5510001B125000109
:101E6800B96F0001C6510001B2210001BA6F00012B
:101E7800C7510001B3210001BB6F0001C851000127
:101E8800B4210001BC6F0001BC510BE1610E0001DF
:101E9800B95DE30E0001BA59160E0001BB59D8A06E
:101EA80012000201B5931200000E0101B36F000E7B
:101EB8000101BE6F010E0101046F000E0101056FE3
:101EC800000E0101066F000E0101076F000E0101EF
:101ED800AC6F000E0101AD6F000E0101AE6F000E78
:101EE8000101AF6F000E0101B06F000E0101086F14
:101EF800EEC2B4F1EFC2B5F1FEC0A9F1CBEC64F0CB
:101F0800940E00016C6F020E00016D6F5D0E0001F2
:101F18006E6FFE0E00016F6FA9C170F00001716B4A
:101F2800F6EC29F002EC5FF0000E0101B36F090E28
:101F38000101B36501D00AD0000E00016D6FFA0EE1
:101F48006C6F58EC5EF00101B32BF1D7F0C2B4F11D
:101F5800F1C2B5F1ABEC4FF0000E0101BE6F940E6B
:101F680000016C6F020E00016D6F360E00016E6F7E
:101F7800FD0E00016F6FF6EC29F002EC5FF016D051
:101F880029EC58F00101BE6FABEC4FF0940E000144
:101F98006C6F020E00016D6F360E00016E6FFD0E44
:101FA80000016F6FF6EC29F002EC5FF00101BE5101
:101FB8000101D8B4E5D70101BE05D8A408D1000EA7
:101FC8000101BE6F940E00016C6F020E00016D6F6F
:101FD800EC0E00016E6FFB0E00016F6FF6EC29F03E
:101FE80002EC5FF016D029EC58F00101BE6FABECA3
:101FF8004FF0940E00016C6F020E00016D6FEC0E35
:1020080000016E6FFB0E00016F6FF6EC29F002EC19
:102018005FF00101BE510101D8B4E5D70101BE0549
:10202800D8A468D0000E0101BE6F898C0B0E000188
:10203800FC6F0001FC51010D610EF324D96E020EF4
:10204800F420DA6E550EDF6E0001FC2B0001FC5106
:10205800010D610EF324D96E020EF420DA6EFEC073
:10206800DFFF0001FC2B0001FC51010D610EF32480
:10207800D96E020EF420DA6EFFC0DFFF0001FC2BE0
:10208800000EA1EC5BF0F40E0101596F010E5A6FBE
:10209800000E5B6F000E5C6F22D09A0E0101096F73
:1020A800020E0A6F000E0B6F000E0C6F010109077C
:1020B800000E0A5B0B5B0C5B01010929F7E10101CA
:1020C8000A29F4E101010B29F1E101010C29D8A445
:1020D800EDD701015907000E5A5B5B5B5C5B0101A0
:1020E800595101015A1101015B1101015C11D8A478
:1020F800D4D7899C020E0101BE19D8A468D0000E5D
:102108000101BE6F898C0B0E0001FC6F0001FC51B0
:10211800010D610EF324D96E020EF420DA6E660EFC
:10212800DF6E0001FC2B0001FC51010D610EF32450
:10213800D96E020EF420DA6EFEC0DFFF0001FC2B20
:102148000001FC51010D610EF324D96E020EF4203A
:10215800DA6EFFC0DFFF0001FC2B000EA1EC5BF084
:10216800F40E01015D6F010E5E6F000E5F6F000ED1
:10217800606F22D09A0E01010D6F020E0E6F000ED5
:102188000F6F000E106F01010D07000E0E5B0F5B45
:10219800105B01010D29F7E101010E29F4E10101AC
:1021A8000F29F1E101011029D8A4EDD701015D073C
:1021B800000E5E5B5F5B605B01015D5101015E11BA
:1021C80001015F1101016011D8A4D4D7899C020EC6
:1021D8000101BE19D8A4BED6000E0101AB6F000ED6
:1021E800AA6F000E0101BE6F940E00016C6F020E03
:1021F80000016D6FB20E00016E6FFC0E00016F6F73
:10220800F6EC29F002EC5FF016D029EC58F0010149
:10221800BE6FABEC4FF0940E00016C6F020E000124
:102228006D6FB20E00016E6FFC0E00016F6FF6EC61
:1022380029F002EC5FF00101BE510101D8B4E5D7E5
:102248000101BE05D8A462EF16F022EE48F011EEA7
:10225800B6F0050EDBCFE3FFE806FCE2000E010155
:10226800BD6F000EBC6F000E0101BE6F940E000121
:102278006C6F020E00016D6FF40E00016E6FFC0EA4
:1022880000016F6FF6EC29F002EC5FF0EE0E010131
:10229800616F020E626F000E636F000E646F22D0D2
:1022A8009A0E0101116F020E126F000E136F000ECD
:1022B800146F01011107000E125B135B145B01011F
:1022C8001129F7E101011229F4E101011329F1E1D2
:1022D80001011429D8A4EDD701016107000E625B42
:1022E800635B645B010161510101621101016311CA
:1022F80001016411D8B44DD2D3D7940E00016C6F8C
:10230800020E00016D6F390E00016E6FFA0E0001AA
:102318006F6FB6C170F0B7C171F0B8C172F0B9C1D2
:1023280073F0BAC174F0BBC175F0BCC176F0BDC121
:1023380077F0F6EC29F002EC5FF026D029EC58F0A3
:102348000101BE6FABEC4FF0940E00016C6F020EF2
:1023580000016D6F390E00016E6FFA0E00016F6F8C
:10236800B6C170F0B7C171F0B8C172F0B9C173F0FD
:10237800BAC174F0BBC175F0BCC176F0BDC177F0CD
:10238800F6EC29F002EC5FF00101BE510101D8B46E
:10239800D5D70101BE05D8A49DD0000E0101BE6F9E
:1023A800960E0101656F000E666F000E676F000ED6
:1023B800686F22D09A0E0101156F020E166F000E7B
:1023C800176F000E186F01011507000E165B175BDB
:1023D800185B01011529F7E101011629F4E1010152
:1023E8001729F1E101011829D8A4EDD701016507E2
:1023F800000E665B675B685B010165510101661150
:102408000101671101016811D8A4D4D7D89001013E
:10241800BC35D96E0101BD35DA6EB60ED926010E6E
:10242800DA22DECF00F1DDCF01F1010E0101002734
:10243800000E0123D8900101BC35D96E0101BD35CC
:10244800DA6EB60ED926010EDA2200C1DEFF01C10E
:10245800DDFFD8900101BC35D96E0101BD35DA6EBA
:10246800B60ED926010EDA220A0EDE18DE10D8A41E
:102478000FD0D8900101BC35D96E0101BD35DA6E97
:10248800B60ED926010EDA22000EDE6E000EDD6EC3
:10249800940E00016C6F020E00016D6F390E000181
:1024A8006E6FFA0E00016F6FB6C170F0B7C171F0B0
:1024B800B8C172F0B9C173F0BAC174F0BBC175F09C
:1024C800BCC176F0BDC177F0F6EC29F002EC5FF004
:1024D800ABEC4FF0020E0101BE19D8A45AD1000E80
:1024E8000101BE6F960E0101696F000E6A6F000E42
:1024F8006B6F000E6C6F22D09A0E0101196F020EDD
:102508001A6F000E1B6F000E1C6F01011907000ED9
:102518001A5B1B5B1C5B01011929F7E101011A29F0
:10252800F4E101011B29F1E101011C29D8A4EDD72F
:1025380001016907000E6A5B6B5B6C5B0101695105
:1025480001016A1101016B1101016C11D8A4D4D7E2
:10255800010E0101BC250101BC6F000E0101BD2166
:102568000101BD6F940E00016C6F020E00016D6FCA
:10257800390E00016E6FFA0E00016F6FB6C170F070
:10258800B7C171F0B8C172F0B9C173F0BAC174F0D3
:10259800BBC175F0BCC176F0BDC177F0F6EC29F08F
:1025A80002EC5FF0030E0101BC190101BD11D8A4B2
:1025B800F0D0940E00016C6F020E00016D6FD30E07
:1025C80000016E6FFC0E00016F6FF6EC29F002EC53
:1025D8005FF0F40E01016D6F010E6E6F000E6F6FEC
:1025E800000E706F22D09A0E01011D6F020E1E6F31
:1025F800000E1F6F000E206F01011D07000E1E5BED
:102608001F5B205B01011D29F7E101011E29F4E18F
:1026180001011F29F1E101012029D8A4EDD7010109
:102628006D07000E6E5B6F5B705B01016D51010100
:102638006E1101016F1101017011D8B417D0D3D7F1
:1026480029EC58F00101BE6FABEC4FF0940E00017D
:102658006C6F020E00016D6FD30E00016E6FFC0EE1
:1026680000016F6FF6EC29F002EC5FF00101BE513A
:102678000101D8B4E5D70101BE05D8A47DD0000E6C
:102688000101BE6F000E0101AB6F010EAA6F940E1F
:1026980000016C6F020E00016D6F140E00016E6F69
:1026A800FA0E00016F6FF6EC29F002EC5FF021EEF4
:1026B800B8F0DECF00F1DDCF01F10101003B013BB5
:1026C800F00E011700510F0B0113F00E0017010156
:1026D800B6510101036F026B01010051010102278C
:1026E80001010151010103230101BA510101022530
:1026F8000101B16F0101BB51010103210101B26F59
:102708000101B2510101B56FB1C1B4F1EE0E010181
:10271800716F020E726F000E736F000E746F22D00D
:102728009A0E0101216F020E226F000E236F000E18
:10273800246F01012107000E225B235B245B01014A
:102748002129F7E101012229F4E101012329F1E11D
:1027580001012429D8A4EDD701017107000E725B8D
:10276800735B745B010171510101721101017311F5
:1027780001017411D8A4D4D7020E0101BE19D8A43E
:1027880008D0000E0101BE6F000E0101BD6F000EE2
:10279800BC6F0101AA510101AB11D8B4AED5000E2E
:1027A8000101BE6F940E00016C6F020E00016D6F87
:1027B800700E00016E6FFC0E00016F6FF6EC29F0D1
:1027C80002EC5FF016D029EC58F00101BE6FABECBB
:1027D8004FF0940E00016C6F020E00016D6F700EC9
:1027E80000016E6FFC0E00016F6FF6EC29F002EC31
:1027F8005FF00101BE510101D8B4E5D70101BE0562
:10280800D8A46DD0000E0101BE6F898C0B0E00019B
:10281800FC6F0001FC51010D610EF324D96E020E0C
:10282800F420DA6EA00EDF6E0001FC2B0001FC51D3
:10283800010D610EF324D96E020EF420DA6EFEC08B
:10284800DFFF0001FC2B0001FC51010D610EF32498
:10285800D96E020EF420DA6EFFC0DFFF0001FC2BF8
:10286800B40E0001AF6F010E0001B06F87EC60F08D
:10287800F40E0101756F010E766F000E776F000E72
:10288800786F22D09A0E0101256F020E266F000E76
:10289800276F000E286F01012507000E265B275BB6
:1028A800285B01012529F7E101012629F4E101014D
:1028B8002729F1E101012829D8A4EDD701017507DD
:1028C800000E765B775B785B01017551010176112B
:1028D8000101771101017811D8A4D4D7899C020E7F
:1028E8000101BE19D8A4EAD1000E0101BE6F940EF1
:1028F80000016C6F020E00016D6F910E00016E6F8A
:10290800FC0E00016F6FF6EC29F002EC5FF016D0B8
:1029180029EC58F00101BE6FABEC4FF0940E0001AA
:102928006C6F020E00016D6F910E00016E6FFC0E50
:1029380000016F6FF6EC29F002EC5FF00101BE5167
:102948000101D8B4E5D70101BE05D8A46DD0000EA9
:102958000101BE6F898C0B0E0001FC6F0001FC5158
:10296800010D610EF324D96E020EF420DA6EA10E69
:10297800DF6E0001FC2B0001FC51010D610EF324F8
:10298800D96E020EF420DA6EFEC0DFFF0001FC2BC8
:102998000001FC51010D610EF324D96E020EF420E2
:1029A800DA6EFFC0DFFF0001FC2BB40E0001AF6F31
:1029B800010E0001B06F87EC60F0F40E0101796F31
:1029C800010E7A6F000E7B6F000E7C6F22D09A0E7C
:1029D8000101296F020E2A6F000E2B6F000E2C6F5B
:1029E80001012907000E2A5B2B5B2C5B01012929B9
:1029F800F7E101012A29F4E101012B29F1E10101A3
:102A08002C29D8A4EDD701017907000E7A5B7B5BEE
:102A18007C5B0101795101017A1101017B110101EE
:102A28007C11D8A4D4D7899C020E0101BE19D8A460
:102A380045D1000E0101BE6F940E00016C6F020EAD
:102A480000016D6F2E0E00016E6FFC0E00016F6F9E
:102A5800F6EC29F002EC5FF016D029EC58F00101F1
:102A6800BE6FABEC4FF0940E00016C6F020E0001CC
:102A78006D6F2E0E00016E6FFC0E00016F6FF6EC8D
:102A880029F002EC5FF00101BE510101D8B4E5D78D
:102A98000101BE05D8A46DD0000E0101BE6F898C5E
:102AA8000B0E0001FC6F0001FC51010D610EF324B7
:102AB800D96E020EF420DA6EA20EDF6E0001FC2B36
:102AC8000001FC51010D610EF324D96E020EF420B1
:102AD800DA6EFEC0DFFF0001FC2B0001FC51010D86
:102AE800610EF324D96E020EF420DA6EFFC0DFFF08
:102AF8000001FC2BB40E0001AF6F010E0001B06F96
:102B080087EC60F0F40E01017D6F010E7E6F000E00
:102B18007F6F000E806F22D09A0E01012D6F020E7A
:102B28002E6F000E2F6F000E306F01012D07000E63
:102B38002E5B2F5B305B01012D29F7E101012E2966
:102B4800F4E101012F29F1E101013029D8A4EDD7E1
:102B580001017D07000E7E5B7F5B805B01017D517B
:102B680001017E1101017F1101018011D8A4D4D780
:102B7800899C020E0101BE19D8A4A0D0000E010143
:102B8800BE6F940E00016C6F020E00016D6F4F0E48
:102B980000016E6FFC0E00016F6FF6EC29F002EC7D
:102BA8005FF016D029EC58F00101BE6FABEC4FF086
:102BB800940E00016C6F020E00016D6F4F0E000144
:102BC8006E6FFC0E00016F6FF6EC29F002EC5FF0FF
:102BD8000101BE510101D8B4E5D70101BE05D8A451
:102BE8006DD0000E0101BE6F898C0B0E0001FC6FC9
:102BF8000001FC51010D610EF324D96E020EF42080
:102C0800DA6EA30EDF6E0001FC2B0001FC51010DF2
:102C1800610EF324D96E020EF420DA6EFEC0DFFFD7
:102C28000001FC2B0001FC51010D610EF324D96E4B
:102C3800020EF420DA6EFFC0DFFF0001FC2BB40E99
:102C48000001AF6F010E0001B06F87EC60F0F40E69
:102C58000101816F010E826F000E836F000E846F79
:102C680022D09A0E0101316F020E326F000E336FBF
:102C7800000E346F01013107000E325B335B345BA9
:102C880001013129F7E101013229F4E10101332978
:102C9800F1E101013429D8A4EDD701018107000E23
:102CA800825B835B845B0101815101018211010117
:102CB800831101018411D8A4D4D7899C020E010183
:102CC800BE19D8A4AEEF0FF0000E0101BE6F940E2E
:102CD80000016C6F020E00016D6F740E00016E6FC3
:102CE800FD0E00016F6FF6EC29F002EC5FF016D0D4
:102CF80029EC58F00101BE6FABEC4FF0940E0001C7
:102D08006C6F020E00016D6F740E00016E6FFD0E88
:102D180000016F6FF6EC29F002EC5FF00101BE5183
:102D28000101D8B4E5D70101BE05D8A468D0000ECA
:102D38000101BE6F898C0B0E0001FC6F0001FC5174
:102D4800010D610EF324D96E020EF420DA6E010E25
:102D5800DF6E0001FC2B0001FC51010D610EF32414
:102D6800D96E020EF420DA6EFEC0DFFF0001FC2BE4
:102D78000001FC51010D610EF324D96E020EF420FE
:102D8800DA6EFFC0DFFF0001FC2B000EA1EC5BF048
:102D9800F40E0101856F010E866F000E876F000E1D
:102DA800886F22D09A0E0101356F020E366F000E21
:102DB800376F000E386F01013507000E365B375B41
:102DC800385B01013529F7E101013629F4E10101F8
:102DD8003729F1E101013829D8A4EDD70101850788
:102DE800000E865B875B885B0101855101018611B6
:102DF8000101871101018811D8A4D4D7899C020E3A
:102E08000101BE19D8A4AEEF0FF0000E0101BE6F8C
:102E1800940E00016C6F020E00016D6F470E0001E9
:102E28006E6FFB0E00016F6FF6EC29F002EC5FF09D
:102E380016D029EC58F00101BE6FABEC4FF0940EA0
:102E480000016C6F020E00016D6F470E00016E6F7E
:102E5800FB0E00016F6FF6EC29F002EC5FF0010148
:102E6800BE510101D8B4E5D70101BE05D8A408D1E7
:102E7800000E0101BE6F940E00016C6F020E00017E
:102E88006D6FE40E00016E6FFA0E00016F6FF6ECC5
:102E980029F002EC5FF016D029EC58F00101BE6F62
:102EA800ABEC4FF0940E00016C6F020E00016D6FD9
:102EB800E40E00016E6FFA0E00016F6FF6EC29F058
:102EC80002EC5FF00101BE510101D8B4E5D7010160
:102ED800BE05D8A468D0000E0101BE6F898C0B0E08
:102EE8000001FC6F0001FC51010D610EF324D96E45
:102EF800020EF420DA6E330EDF6E0001FC2B0001A7
:102F0800FC51010D610EF324D96E020EF420DA6E25
:102F1800FEC0DFFF0001FC2B0001FC51010D610E1A
:102F2800F324D96E020EF420DA6EFFC0DFFF000131
:102F3800FC2B000EA1EC5BF0F40E0101896F010E71
:102F48008A6F000E8B6F000E8C6F22D09A0E0101D3
:102F5800396F020E3A6F000E3B6F000E3C6F010195
:102F68003907000E3A5B3B5B3C5B01013929F7E10D
:102F780001013A29F4E101013B29F1E101013C2970
:102F8800D8A4EDD701018907000E8A5B8B5B8C5BA7
:102F98000101895101018A1101018B1101018C1173
:102FA800D8A4D4D7899C020E0101BE19D8A468D030
:102FB800000E0101BE6F898C0B0E0001FC6F000131
:102FC800FC51010D610EF324D96E020EF420DA6E65
:102FD800220EDF6E0001FC2B0001FC51010D610E79
:102FE800F324D96E020EF420DA6EFEC0DFFF000172
:102FF800FC2B0001FC51010D610EF324D96E020E69
:10300800F420DA6EFFC0DFFF0001FC2B000EA1ECFC
:103018005BF0F40E01018D6F010E8E6F000E8F6F45
:10302800000E906F22D09A0E01013D6F020E3E6F86
:10303800000E3F6F000E406F01013D07000E3E5B22
:103048003F5B405B01013D29F7E101013E29F4E1C5
:1030580001013F29F1E101014029D8A4EDD701017F
:103068008D07000E8E5B8F5B905B01018D51010116
:103078008E1101018F1101019011D8A4D4D7899C18
:10308800020E0101BE19D8A4AEEF0FF0000E010127
:10309800BE6F940E00016C6F020E00016D6F050E7D
:1030A80000016E6FFB0E00016F6FF6EC29F002EC69
:1030B8005FF016D029EC58F00101BE6FABEC4FF071
:1030C800940E00016C6F020E00016D6F050E000179
:1030D8006E6FFB0E00016F6FF6EC29F002EC5FF0EB
:1030E8000101BE510101D8B4E5D70101BE05D8A43C
:1030F80008D1000E0101BE6F940E00016C6F020E24
:1031080000016D6FEC0E00016E6FFB0E00016F6F1A
:10311800F6EC29F002EC5FF016D029EC58F001012A
:10312800BE6FABEC4FF0940E00016C6F020E000105
:103138006D6FEC0E00016E6FFB0E00016F6FF6EC09
:1031480029F002EC5FF00101BE510101D8B4E5D7C6
:103158000101BE05D8A468D0000E0101BE6F898C9C
:103168000B0E0001FC6F0001FC51010D610EF324F0
:10317800D96E020EF420DA6E060EDF6E0001FC2B0B
:103188000001FC51010D610EF324D96E020EF420EA
:10319800DA6EFEC0DFFF0001FC2B0001FC51010DBF
:1031A800610EF324D96E020EF420DA6EFFC0DFFF41
:1031B8000001FC2B000EA1EC5BF0F40E0101916FF5
:1031C800010E926F000E936F000E946F22D09A0E2C
:1031D8000101416F020E426F000E436F000E446FF3
:1031E80001014107000E425B435B445B0101412939
:1031F800F7E101014229F4E101014329F1E101016B
:103208004429D8A4EDD701019107000E925B935B86
:10321800945B010191510101921101019311010186
:103228009411D8A4D4D7899C020E0101BE19D8A440
:1032380068D0000E0101BE6F898C0B0E0001FC6F77
:103248000001FC51010D610EF324D96E020EF42029
:10325800DA6E050EDF6E0001FC2B0001FC51010D3A
:10326800610EF324D96E020EF420DA6EFEC0DFFF81
:103278000001FC2B0001FC51010D610EF324D96EF5
:10328800020EF420DA6EFFC0DFFF0001FC2B000EF7
:10329800A1EC5BF0F40E0101956F010E966F000E24
:1032A800976F000E986F22D09A0E0101456F020E9B
:1032B800466F000E476F000E486F01014507000E6C
:1032C800465B475B485B01014529F7E10101462957
:1032D800F4E101014729F1E101014829D8A4EDD71A
:1032E80001019507000E965B975B985B010195516C
:1032F800010196110101971101019811D8A4D4D7A1
:10330800899C020E0101BE19D8A4AEEF0FF0000E81
:103318000101BE6F940E00016C6F020E00016D6F0B
:10332800260E00016E6FFB0E00016F6FF6EC29F0A0
:1033380002EC5FF016D029EC58F00101BE6FABEC3F
:103348004FF0940E00016C6F020E00016D6F260E97
:1033580000016E6FFB0E00016F6FF6EC29F002ECB6
:103368005FF00101BE510101D8B4E5D70101BE05E6
:10337800D8A4AEEF0FF0000E0101BE6F898C940E39
:1033880000016C6F020E00016D6F780E00016E6F08
:10339800FE0E00016F6FF6EC29F002EC5FF0F40E00
:1033A8000101996F010E9A6F000E9B6F000E9C6FC2
:1033B80022D09A0E0101496F020E4A6F000E4B6F20
:1033C800000E4C6F01014907000E4A5B4B5B4C5BDA
:1033D80001014929F7E101014A29F4E101014B29D9
:1033E800F1E101014C29D8A4EDD701019907000E9C
:1033F8009A5B9B5B9C5B0101995101019A11010148
:103408009B1101019C11D8A4D4D7010E0101AC6F06
:103418000B0E0001FC6F0001FC51010D610EF3243D
:10342800D96E020EF420DA6E770EDF6E0001FC2BE7
:103438000001FC51010D610EF324D96E020EF42037
:10344800DA6EFEC0DFFF0001FC2B0001FC51010D0C
:10345800610EF324D96E020EF420DA6EFFC0DFFF8E
:103468000001FC2B000EA1EC5BF0899C640E0101AD
:103478009D6F000E9E6F000E9F6F000EA06F22D0F2
:103488009A0E01014D6F020E4E6F000E4F6F000E27
:10349800506F01014D07000E4E5B4F5B505B010101
:1034A8004D29F7E101014E29F4E101014F29F1E12C
:1034B80001015029D8A4EDD701019D07000E9E5B9C
:1034C8009F5BA05B01019D5101019E1101019F11AC
:1034D8000101A011D8B413D1D3D729EC58F00101B8
:1034E800BE6F940E00016C6F020E00016D6FCF0E5F
:1034F80000016E6FFD0E00016F6FADC170F000012D
:10350800716BAEC172F00001736BAFC174F0000152
:10351800756BB0C176F00001776BF6EC29F002EC20
:103528005FF0640E0101A16F000EA26F000EA36F81
:10353800000EA46F22D09A0E0101516F020E526F35
:10354800000E536F000E546F01015107000E525BBD
:10355800535B545B01015129F7E101015229F4E160
:1035680001015329F1E101015429D8A4EDD7010142
:10357800A107000EA25BA35BA45B0101A15101019D
:10358800A2110101A3110101A411D8A4D4D77AEC86
:1035980066F00009D8B42AD025C2D9FF26C2DAFFBE
:1035A800900EDE18D8A402D00101AD2B25C2D9FF98
:1035B80026C2DAFF910EDE18D8A402D00101AE2B84
:1035C80025C2D9FF26C2DAFF920EDE18D8A402D08F
:1035D8000101AF2B25C2D9FF26C2DAFF930EDE18F0
:1035E800D8A402D00101B02BA7EC66F00101BE05FA
:1035F800D8A485D0000E0101BE6F000E0101AC6F8A
:10360800000E0101AD6F000E0101AE6F000E010149
:10361800AF6F000E0101B06F940E00016C6F020EC7
:1036280000016D6FD10E00016E6FFF0E00016F6F0C
:10363800F6EC29F002EC5FF00B0E0001FC6F0001C4
:10364800FC51010D610EF324D96E020EF420DA6EDE
:10365800880EDF6E0001FC2B0001FC51010D610E8C
:10366800F324D96E020EF420DA6EFEC0DFFF0001EB
:10367800FC2B0001FC51010D610EF324D96E020EE2
:10368800F420DA6EFFC0DFFF0001FC2B000EA1EC76
:103698005BF0F40E0101A56F010EA66F000EA76F77
:1036A800000EA86F22D09A0E0101556F020E566FB8
:1036B800000E576F000E586F01015507000E565B3C
:1036C800575B585B01015529F7E101015629F4E1DF
:1036D80001015729F1E101015829D8A4EDD70101C9
:1036E800A507000EA65BA75BA85B0101A551010118
:1036F800A6110101A7110101A811D8A4D4D701016D
:10370800AC05D8A4AEEF0FF00101BE510101D8A459
:10371800AEEF0FF0E2D6CBEC64F07A0E0001916FB9
:10372800FF0E0001926F000E0001936F010E000161
:10373800946F99EC63F0ECC2C0F1EDC2C1F169EC91
:103748002FF0940E00016C6F020E00016D6F550E84
:1037580000016E6FFD0E00016F6FF6EC29F002ECB0
:103768005FF016D029EC58F00101FA6F69EC2FF0E0
:10377800940E00016C6F020E00016D6F550E000172
:103788006E6FFD0E00016F6FF6EC29F002EC5FF032
:103798000101FA51D8B4E6D70101FA05D8A407D136
:1037A800000E0101FA6F940E00016C6F020E000109
:1037B8006D6FEC0E00016E6FFB0E00016F6FF6EC83
:1037C80029F002EC5FF016D029EC58F00101FA6FED
:1037D80069EC2FF0940E00016C6F020E00016D6F02
:1037E800EC0E00016E6FFB0E00016F6FF6EC29F016
:1037F80002EC5FF00101FA51D8B4E6D70101FA05ED
:10380800D8A468D0000E0101FA6F898C0B0E000154
:10381800FC6F0001FC51010D610EF324D96E020EFC
:10382800F420DA6E550EDF6E0001FC2B0001FC510E
:10383800010D610EF324D96E020EF420DA6EFEC07B
:10384800DFFF0001FC2B0001FC51010D610EF32488
:10385800D96E020EF420DA6EFFC0DFFF0001FC2BE8
:10386800000EA1EC5BF0F40E01018C6F010E8D6F60
:10387800000E8E6F000E8F6F22D09A0E01015C6FC2
:10388800020E5D6F000E5E6F000E5F6F01015C0738
:10389800000E5D5B5E5B5F5B01015C29F7E1010186
:1038A8005D29F4E101015E29F1E101015F29D8A454
:1038B800EDD701018C07000E8D5B8E5B8F5B0101DC
:1038C8008C5101018D1101018E1101018F11D8A4B4
:1038D800D4D7899C020E0101FA19D8A468D0000E29
:1038E8000101FA6F898C0B0E0001FC6F0001FC517D
:1038F800010D610EF324D96E020EF420DA6E660E05
:10390800DF6E0001FC2B0001FC51010D610EF32458
:10391800D96E020EF420DA6EFEC0DFFF0001FC2B28
:103928000001FC51010D610EF324D96E020EF42042
:10393800DA6EFFC0DFFF0001FC2B000EA1EC5BF08C
:10394800F40E0101906F010E916F000E926F000E40
:10395800936F22D09A0E0101606F020E616F000E04
:10396800626F000E636F01016007000E615B625BAE
:10397800635B01016029F7E101016129F4E10101BB
:103988006229F1E101016329D8A4EDD7010190076B
:10399800000E915B925B935B0101905101019111C3
:1039A8000101921101019311D8A4D4D7899C020E68
:1039B8000101FA19D8A4C3D6000E0101BD6F000E8B
:1039C800BC6F000E0101FA6F940E00016C6F020EBD
:1039D80000016D6FB20E00016E6FFC0E00016F6F7B
:1039E800F6EC29F002EC5FF016D029EC58F0010152
:1039F800FA6FABEC4FF0940E00016C6F020E0001F1
:103A08006D6FB20E00016E6FFC0E00016F6FF6EC69
:103A180029F002EC5FF00101FA51D8B4E6D70101B0
:103A2800FA05D8A44BEF22F022EE42F011EEC2F0D4
:103A3800050EDBCFE3FFE806FCE2000E0101C96FCB
:103A4800000EC86F000E0101FA6F940E00016C6F32
:103A5800020E00016D6FF40E00016E6FFC0E000186
:103A68006F6FF6EC29F002EC5FF0EE0E0101946F37
:103A7800020E956F000E966F000E976F22D09A0E69
:103A88000101646F020E656F000E666F000E676FAE
:103A980001016407000E655B665B675B01016429D1
:103AA800F7E101016529F4E101016629F1E101016C
:103AB8006729D8A4EDD701019407000E955B965BA2
:103AC800975B0101945101019511010196110101C2
:103AD8009711D8B44BD2D3D7940E00016C6F020E55
:103AE80000016D6F390E00016E6FFA0E00016F6FE5
:103AF800C2C170F0C3C171F0C4C172F0C5C173F026
:103B0800C6C174F0C7C175F0C8C176F0C9C177F0F5
:103B1800F6EC29F002EC5FF026D029EC58F0010110
:103B2800FA6FABEC4FF0940E00016C6F020E0001BF
:103B38006D6F390E00016E6FFA0E00016F6FC2C112
:103B480070F0C3C171F0C4C172F0C5C173F0C6C1D1
:103B580074F0C7C175F0C8C176F0C9C177F0F6EC4A
:103B680029F002EC5FF00101FA51D8B4D6D701016F
:103B7800FA05D8A49DD0000E0101FA6F960E010136
:103B8800986F000E996F000E9A6F000E9B6F22D0EF
:103B98009A0E0101686F020E696F000E6A6F000EBF
:103BA8006B6F01016807000E695B6A5B6B5B010163
:103BB8006829F7E101016929F4E101016A29F1E1C4
:103BC80001016B29D8A4EDD701019807000E995B74
:103BD8009A5B9B5B010198510101991101019A11AE
:103BE80001019B11D8A4D4D7D8900101C835D96E4A
:103BF8000101C935DA6EC20ED926010EDA22DECFEE
:103C080058F1DDCF59F1010E01015827000E592353
:103C1800D8900101C835D96E0101C935DA6EC20ED6
:103C2800D926010EDA2258C1DEFF59C1DDFFD8902E
:103C38000101C835D96E0101C935DA6EC20ED9261F
:103C4800010EDA220A0EDE18DE10D8A40FD0D890A2
:103C58000101C835D96E0101C935DA6EC20ED926FF
:103C6800010EDA22000EDE6E000EDD6E940E0001EB
:103C78006C6F020E00016D6F390E00016E6FFA0E47
:103C880000016F6FC2C170F0C3C171F0C4C172F09E
:103C9800C5C173F0C6C174F0C7C175F0C8C176F06C
:103CA800C9C177F0F6EC29F002EC5FF0ABEC4FF00D
:103CB800020E0101FA19D8A459D1000E0101FA6FB8
:103CC800960E01019C6F000E9D6F000E9E6F000EF8
:103CD8009F6F22D09A0E01016C6F020E6D6F000E5D
:103CE8006E6F000E6F6F01016C07000E6D5B6E5BEF
:103CF8006F5B01016C29F7E101016D29F4E1010114
:103D08006E29F1E101016F29D8A4EDD701019C07C3
:103D1800000E9D5B9E5B9F5B01019C5101019D1103
:103D280001019E1101019F11D8A4D4D7010E0101F0
:103D3800C8250101C86F000E0101C9210101C96F21
:103D4800940E00016C6F020E00016D6F390E0001B8
:103D58006E6FFA0E00016F6FC2C170F0C3C171F0CF
:103D6800C4C172F0C5C173F0C6C174F0C7C175F0A3
:103D7800C8C176F0C9C177F0F6EC29F002EC5FF023
:103D8800030E0101C8190101C911D8A4EFD0940E7E
:103D980000016C6F020E00016D6FD30E00016E6F93
:103DA800FC0E00016F6FF6EC29F002EC5FF0F40EE8
:103DB8000101A06F010EA16F000EA26F000EA36F8C
:103DC80022D09A0E0101706F020E716F000E726F91
:103DD800000E736F01017007000E715B725B735BFD
:103DE80001017029F7E101017129F4E1010172294A
:103DF800F1E101017329D8A4EDD70101A007000E54
:103E0800A15BA25BA35B0101A0510101A11101010A
:103E1800A2110101A311D8B417D0D3D729EC58F0B7
:103E28000101FA6FABEC4FF0940E00016C6F020EBB
:103E380000016D6FD30E00016E6FFC0E00016F6FF5
:103E4800F6EC29F002EC5FF00101FA51D8B4E6D79C
:103E58000101FA05D8A47DD0000E0101FA6F000E09
:103E68000101BD6F010EBC6F940E00016C6F020E54
:103E780000016D6F140E00016E6FFA0E00016F6F76
:103E8800F6EC29F002EC5FF021EEC4F0DECF58F139
:103E9800DDCF59F10101583B593BF00E59175851E4
:103EA8000F0B5913F00E58170101C25101015B6F36
:103EB8005A6B0101585101015A2701015951010159
:103EC8005B230101C65101015A250101BE6F0101A1
:103ED800C75101015B210101BF6F0101BF51010100
:103EE800C16FBEC1C0F1EE0E0101A46F020EA56F35
:103EF800000EA66F000EA76F22D09A0E0101746FF4
:103F0800020E756F000E766F000E776F0101740751
:103F1800000E755B765B775B01017429F7E101019F
:103F28007529F4E101017629F1E101017729D8A485
:103F3800EDD70101A407000EA55BA65BA75B0101F5
:103F4800A4510101A5110101A6110101A711D8A4CD
:103F5800D4D7020E0101FA19D8A408D0000E010125
:103F6800FA6F000E0101C96F000EC86F0101BC5144
:103F78000101BD11D8B4B0D5000E0101FA6F940E3D
:103F880000016C6F020E00016D6F700E00016E6F04
:103F9800FC0E00016F6FF6EC29F002EC5FF016D012
:103FA80029EC58F00101FA6FABEC4FF0940E0001C8
:103FB8006C6F020E00016D6F700E00016E6FFC0ECB
:103FC80000016F6FF6EC29F002EC5FF00101FA5185
:103FD800D8B4E6D70101FA05D8A46DD0000E0101C6
:103FE800FA6F898C0B0E0001FC6F0001FC51010D6A
:103FF800610EF324D96E020EF420DA6EA00EDF6E85
:104008000001FC2B0001FC51010D610EF324D96E57
:10401800020EF420DA6EFEC0DFFF0001FC2B000167
:10402800FC51010D610EF324D96E020EF420DA6EF4
:10403800FFC0DFFF0001FC2BC00E0001AF6F010EB7
:104048000001B06F87EC60F0F40E0101A86F010E5B
:10405800A96F000EAA6F000EAB6F22D09A0E010155
:10406800786F020E796F000E7A6F000E7B6F010178
:104078007807000E795B7A5B7B5B01017829F7E1B1
:1040880001017929F4E101017A29F1E101017B2992
:10409800D8A4EDD70101A807000EA95BAA5BAB5B0A
:1040A8000101A8510101A9110101AA110101AB11D6
:1040B800D8A4D4D7899C020E0101FA19D8A4E7D153
:1040C800000E0101FA6F940E00016C6F020E0001E0
:1040D8006D6F910E00016E6FFC0E00016F6FF6ECB4
:1040E80029F002EC5FF016D029EC58F00101FA6FC4
:1040F800ABEC4FF0940E00016C6F020E00016D6F77
:10410800910E00016E6FFC0E00016F6FF6EC29F046
:1041180002EC5FF00101FA51D8B4E6D70101FA05C3
:10412800D8A46DD0000E0101FA6F898C0B0E000126
:10413800FC6F0001FC51010D610EF324D96E020ED3
:10414800F420DA6EA10EDF6E0001FC2B0001FC5199
:10415800010D610EF324D96E020EF420DA6EFEC052
:10416800DFFF0001FC2B0001FC51010D610EF3245F
:10417800D96E020EF420DA6EFFC0DFFF0001FC2BBF
:10418800C00E0001AF6F010E0001B06F87EC60F048
:10419800F40E0101AC6F010EAD6F000EAE6F000E94
:1041A800AF6F22D09A0E01017C6F020E7D6F000E58
:1041B8007E6F000E7F6F01017C07000E7D5B7E5BCA
:1041C8007F5B01017C29F7E101017D29F4E101010F
:1041D8007E29F1E101017F29D8A4EDD70101AC07BF
:1041E800000EAD5BAE5BAF5B0101AC510101AD11DF
:1041F8000101AE110101AF11D8A4D4D7899C020ED8
:104208000101FA19D8A443D1000E0101FA6F940EE6
:1042180000016C6F020E00016D6F2E0E00016E6FB3
:10422800FC0E00016F6FF6EC29F002EC5FF016D07F
:1042380029EC58F00101FA6FABEC4FF0940E000135
:104248006C6F020E00016D6F2E0E00016E6FFC0E7A
:1042580000016F6FF6EC29F002EC5FF00101FA51F2
:10426800D8B4E6D70101FA05D8A46DD0000E010133
:10427800FA6F898C0B0E0001FC6F0001FC51010DD7
:10428800610EF324D96E020EF420DA6EA20EDF6EF0
:104298000001FC2B0001FC51010D610EF324D96EC5
:1042A800020EF420DA6EFEC0DFFF0001FC2B0001D5
:1042B800FC51010D610EF324D96E020EF420DA6E62
:1042C800FFC0DFFF0001FC2BC00E0001AF6F010E25
:1042D8000001B06F87EC60F0F40E0101B06F010EC1
:1042E800B16F000EB26F000EB36F22D09A0E0101AB
:1042F800806F020E816F000E826F000E836F0101C6
:104308008007000E815B825B835B01018029F7E1F6
:1043180001018129F4E101018229F1E101018329E7
:10432800D8A4EDD70101B007000EB15BB25BB35B57
:104338000101B0510101B1110101B2110101B31123
:10434800D8A4D4D7899C020E0101FA19D8A49FD009
:10435800000E0101FA6F940E00016C6F020E00014D
:104368006D6F4F0E00016E6FFC0E00016F6FF6EC63
:1043780029F002EC5FF016D029EC58F00101FA6F31
:10438800ABEC4FF0940E00016C6F020E00016D6FE4
:104398004F0E00016E6FFC0E00016F6FF6EC29F0F6
:1043A80002EC5FF00101FA51D8B4E6D70101FA0531
:1043B800D8A46DD0000E0101FA6F898C0B0E000194
:1043C800FC6F0001FC51010D610EF324D96E020E41
:1043D800F420DA6EA30EDF6E0001FC2B0001FC5105
:1043E800010D610EF324D96E020EF420DA6EFEC0C0
:1043F800DFFF0001FC2B0001FC51010D610EF324CD
:10440800D96E020EF420DA6EFFC0DFFF0001FC2B2C
:10441800C00E0001AF6F010E0001B06F87EC60F0B5
:10442800F40E0101B46F010EB56F000EB66F000EE9
:10443800B76F22D09A0E0101846F020E856F000EAD
:10444800866F000E876F01018407000E855B865B0F
:10445800875B01018429F7E101018529F4E1010164
:104468008629F1E101018729D8A4EDD70101B40714
:10447800000EB55BB65BB75B0101B4510101B51124
:104488000101B6110101B711D8A4D4D7899C020E35
:104498000101FA19D8A4A3EF1BF0000E0101FA6F6D
:1044A800940E00016C6F020E00016D6F740E000116
:1044B8006E6FFD0E00016F6FF6EC29F002EC5FF0F5
:1044C80016D029EC58F00101FA6F69EC2FF0940E20
:1044D80000016C6F020E00016D6F740E00016E6FAB
:1044E800FD0E00016F6FF6EC29F002EC5FF00101A0
:1044F800FA51D8B4E6D70101FA05D8A468D0000E5D
:104508000101FA6F898C0B0E0001FC6F0001FC5150
:10451800010D610EF324D96E020EF420DA6E010E3D
:10452800DF6E0001FC2B0001FC51010D610EF3242C
:10453800D96E020EF420DA6EFEC0DFFF0001FC2BFC
:104548000001FC51010D610EF324D96E020EF42016
:10455800DA6EFFC0DFFF0001FC2B000EA1EC5BF060
:10456800F40E0101B86F010EB96F000EBA6F000E9C
:10457800BB6F22D09A0E0101886F020E896F000E60
:104588008A6F000E8B6F01018807000E895B8A5BBA
:104598008B5B01018829F7E101018929F4E1010117
:1045A8008A29F1E101018B29D8A4EDD70101B807C7
:1045B800000EB95BBA5BBB5B0101B8510101B911CF
:1045C8000101BA110101BB11D8A4D4D7899C020EEC
:1045D8000101FA19D8A4A3EF1BF0000E0101FA6F2C
:1045E800A3EF1BF00F0148830F0148858D8222EE4F
:1045F800D6F011EE0EF00C0EDBCFE3FFE806FCE27E
:10460800010E01017F6F000E0101F36F000E010121
:10461800F26F25EE00F011EE1BF0630EDBCFE3FF27
:10462800E806FCE223EEC8F011EE00F00D0EDBCF39
:10463800E3FFE806FCE2000E0101EA6F000E01014B
:10464800EB6F000E0101EC6F000E0101ED6F000E23
:104658000101EE6F000E0101EF6F22EEE3F011EEA3
:1046680080F0080EDBCFE3FFE806FCE298EC66F08A
:10467800A7EC66F071EC66F0000160510001611171
:10468800D8B4F8D7CAEC61F00101E96F0101F35120
:10469800010D1B0EF324D96E010EF420DA6EE9C168
:1046A800DFFF0101F32B050E0101B96F000EBA6F90
:1046B800000EBB6F000EBC6F22D09A0E0101896FED
:1046C800020E8A6F000E8B6F000E8C6F0101890736
:1046D800000E8A5B8B5B8C5B01018929F7E1010184
:1046E8008A29F4E101018B29F1E101018C29D8A47F
:1046F800EDD70101B907000EBA5BBB5BBC5B0101DA
:10470800B9510101BA110101BB110101BC11D8A4B1
:10471800D4D7FF0E0001DA6FFF0E0001DB6F010135
:10472800F3510001DC6FDD6B0001DA510001DC2779
:104738000001DB510001DD231B0E0001DC25D96ED1
:10474800010E0001DD21DA6E0D0EDE18D8A492D715
:10475800FF0E0001DA6FFF0E0001DB6F0101F3515C
:104768000001DC6FDD6B0001DA510001DC2700017C
:10477800DB510001DD231B0E0001DC25D96E010E83
:104788000001DD21DA6E000EDF6E000E0101F36F0D
:10479800AA0E0001606FFF0E0001616F1B0E000181
:1047A800626F010E0001636F6CEC63F000016051F1
:1047B80000016111D8A465D00B0E0001FC6F000147
:1047C800FC51010D610EF324D96E020EF420DA6E4D
:1047D800660EDF6E0001FC2B0001FC51010D610E1D
:1047E800F324D96E020EF420DA6EFEC0DFFF00015A
:1047F800FC2B0001FC51010D610EF324D96E020E51
:10480800F420DA6EFFC0DFFF0001FC2B000EA1ECE4
:104818005BF0898C320E0101BD6F000EBE6F000E79
:10482800BF6F000EC06F22D09A0E01018D6F020E6D
:104838008E6F000E8F6F000E906F01018D07000EB6
:104848008E5B8F5B905B01018D29F7E101018E2959
:10485800F4E101018F29F1E101019029D8A4EDD7F4
:104868000101BD07000EBE5BBF5BC05B0101BD510E
:104878000101BE110101BF110101C011D8A4D4D793
:104888004ED3B80E0001606FFF0E0001616F1B0E62
:104898000001626F010E0001636F6CEC63F00001B0
:1048A800605100016111D8A465D00B0E0001FC6FA6
:1048B8000001FC51010D610EF324D96E020EF420A3
:1048C800DA6E550EDF6E0001FC2B0001FC51010D64
:1048D800610EF324D96E020EF420DA6EFEC0DFFFFB
:1048E8000001FC2B0001FC51010D610EF324D96E6F
:1048F800020EF420DA6EFFC0DFFF0001FC2B000E71
:10490800A1EC5BF0898C320E0101C16F000EC26F01
:10491800000EC36F000EC46F22D09A0E0101916F72
:10492800020E926F000E936F000E946F01019107B3
:10493800000E925B935B945B01019129F7E1010101
:104948009229F4E101019329F1E101019429D8A404
:10495800EDD70101C107000EC25BC35BC45B010157
:10496800C1510101C2110101C3110101C411D8A42F
:10497800D4D7D5D2C20E0001606FFE0E0001616F60
:104988001B0E0001626F010E0001636F6CEC63F097
:104998000001605100016111D8A465D00B0E00011F
:1049A800FC6F0001FC51010D610EF324D96E020E5B
:1049B800F420DA6E330EDF6E0001FC2B0001FC518F
:1049C800010D610EF324D96E020EF420DA6EFEC0DA
:1049D800DFFF0001FC2B0001FC51010D610EF324E7
:1049E800D96E020EF420DA6EFFC0DFFF0001FC2B47
:1049F800000EA1EC5BF0898C320E0101C56F000E30
:104A0800C66F000EC76F000EC86F22D09A0E010144
:104A1800956F020E966F000E976F000E986F01014A
:104A28009507000E965B975B985B01019529F7E166
:104A380001019629F4E101019729F1E10101982981
:104A4800D8A4EDD70101C507000EC65BC75BC85BDC
:104A58000101C5510101C6110101C7110101C811A8
:104A6800D8A4D4D75CD2EC0E0001606FFE0E000112
:104A7800616F1B0E0001626F010E0001636F6CEC29
:104A880063F00001605100016111D8A465D00B0EDC
:104A98000001FC6F0001FC51010D610EF324D96E79
:104AA800020EF420DA6E220EDF6E0001FC2B0001EC
:104AB800FC51010D610EF324D96E020EF420DA6E5A
:104AC800FEC0DFFF0001FC2B0001FC51010D610E4F
:104AD800F324D96E020EF420DA6EFFC0DFFF000166
:104AE800FC2B000EA1EC5BF0898C320E0101C96F22
:104AF800000ECA6F000ECB6F000ECC6F22D09A0E3C
:104B08000101996F020E9A6F000E9B6F000E9C6F49
:104B180001019907000E9A5B9B5B9C5B0101992937
:104B2800F7E101019A29F4E101019B29F1E1010171
:104B38009C29D8A4EDD70101C907000ECA5BCB5B3D
:104B4800CC5B0101C9510101CA110101CB1101015D
:104B5800CC11D8A4D4D7E3D1E70E0001606FFF0EC3
:104B68000001616F1B0E0001626F010E0001636F8F
:104B78006CEC63F00001605100016111D8A465D0AC
:104B88000B0E0001FC6F0001FC51010D610EF324B6
:104B9800D96E020EF420DA6E060EDF6E0001FC2BD1
:104BA8000001FC51010D610EF324D96E020EF420B0
:104BB800DA6EFEC0DFFF0001FC2B0001FC51010D85
:104BC800610EF324D96E020EF420DA6EFFC0DFFF07
:104BD8000001FC2B000EA1EC5BF0898C320E010168
:104BE800CD6F000ECE6F000ECF6F000ED06F22D0AB
:104BF8009A0E01019D6F020E9E6F000E9F6F000EB0
:104C0800A06F01019D07000E9E5B9F5BA05B0101E9
:104C18009D29F7E101019E29F4E101019F29F1E1B4
:104C28000101A029D8A4EDD70101CD07000ECE5B64
:104C3800CF5BD05B0101CD510101CE110101CF1134
:104C48000101D011D8A4D4D76AD1DD0E0001606F5C
:104C5800FF0E0001616F1B0E0001626F010E000163
:104C6800636F6CEC63F00001605100016111D8A41E
:104C780065D00B0E0001FC6F0001FC51010D610EA7
:104C8800F324D96E020EF420DA6E050EDF6E0001F1
:104C9800FC2B0001FC51010D610EF324D96E020EAC
:104CA800F420DA6EFEC0DFFF0001FC2B0001FC518E
:104CB800010D610EF324D96E020EF420DA6EFFC0E6
:104CC800DFFF0001FC2B000EA1EC5BF0898C320E9B
:104CD8000101D16F000ED26F000ED36F000ED46F9A
:104CE80022D09A0E0101A16F020EA26F000EA36FCF
:104CF800000EA46F0101A107000EA25BA35BA45BD9
:104D08000101A129F7E10101A229F4E10101A32987
:104D1800F1E10101A429D8A4EDD70101D107000EC2
:104D2800D25BD35BD45B0101D1510101D2110101E6
:104D3800D3110101D411D8A4D4D7F1D0C50E0001E4
:104D4800606FFF0E0001616F1B0E0001626F010EA4
:104D58000001636F6CEC63F00001605100016111A8
:104D6800D8A465D00B0E0001FC6F0001FC51010DA9
:104D7800610EF324D96E020EF420DA6E010EDF6E96
:104D88000001FC2B0001FC51010D610EF324D96ECA
:104D9800020EF420DA6EFEC0DFFF0001FC2B0001DA
:104DA800FC51010D610EF324D96E020EF420DA6E67
:104DB800FFC0DFFF0001FC2B000EA1EC5BF0898C2B
:104DC800320E0101D56F000ED66F000ED76F000EA0
:104DD800D86F22D09A0E0101A56F020EA66F000EA1
:104DE800A76F000EA86F0101A507000EA65BA75BC1
:104DF800A85B0101A529F7E10101A629F4E1010158
:104E0800A729F1E10101A829D8A4EDD70101D50707
:104E1800000ED65BD75BD85B0101D5510101D611D5
:104E28000101D7110101D811D8A4D4D778D08B0E9D
:104E38000001606FFF0E0001616F1B0E0001626FC1
:104E4800010E0001636F6CEC63F00001605100011A
:104E58006111D8A467D00B0E0001FC6F0001FC5152
:104E6800010D610EF324D96E020EF420DA6E020EE3
:104E7800DF6E0001FC2B0001FC51010D610EF324D3
:104E8800D96E020EF420DA6EFEC0DFFF0001FC2BA3
:104E98000001FC51010D610EF324D96E020EF420BD
:104EA800DA6EFFC0DFFF0001FC2B000EA1EC5BF007
:104EB800898C320E0101D96F000EDA6F000EDB6F9C
:104EC800000EDC6F22D09A0E0101A96F020EAA6FA4
:104ED800000EAB6F000EAC6F0101A907000EAA5BB4
:104EE800AB5BAC5B0101A929F7E10101AA29F4E157
:104EF8000101AB29F1E10101AC29D8A4EDD70101E9
:104F0800D907000EDA5BDB5BDC5B0101D9510101DB
:104F1800DA110101DB110101DC11D8A4D4D7899C75
:104F28003EEF23F0110E0001606FFF0E0001616F6C
:104F38001B0E0001626F010E0001636F6CEC63F0E1
:104F48000001605100016111D8A489D00B0E000145
:104F5800FC6F0001FC51010D610EF324D96E020EA5
:104F6800F420DA6E070EDF6E0001FC2B0001FC5105
:104F7800010D610EF324D96E020EF420DA6EFEC024
:104F8800DFFF0001FC2B0001FC51010D610EF32431
:104F9800D96E020EF420DA6EFFC0DFFF0001FC2B91
:104FA800000EA1EC5BF0898CF40E0101DD6F010E9F
:104FB800DE6F000EDF6F000EE06F22D09A0E010147
:104FC800AD6F020EAE6F000EAF6F000EB06F010135
:104FD800AD07000EAE5BAF5BB05B0101AD29F7E139
:104FE8000101AE29F4E10101AF29F1E10101B02984
:104FF800D8A4EDD70101DD07000EDE5BDF5BE05BC7
:105008000101DD510101DE110101DF110101E01192
:10501800D8A4D4D7899C25C2D9FF26C2DAFF090EA5
:10502800DE18D8A408D0920E0001636FFE0E0001AE
:10503800646F40EC60F025C2D9FF26C2DAFF080E83
:10504800DE18D8A408D0420E0001636FFE0E0001DE
:10505800646F40EC60F0A7EC66F03EEF23F0D70EEB
:105068000001606FFE0E0001616F1B0E0001626F90
:10507800010E0001636F6CEC63F0000160510001E8
:105088006111D8A489D00B0E0001FC6F0001FC51FE
:10509800010D610EF324D96E020EF420DA6E0A0EA9
:1050A800DF6E0001FC2B0001FC51010D610EF324A1
:1050B800D96E020EF420DA6EFEC0DFFF0001FC2B71
:1050C8000001FC51010D610EF324D96E020EF4208B
:1050D800DA6EFFC0DFFF0001FC2B000EA1EC5BF0D5
:1050E800898C320E0101E16F000EE26F000EE36F52
:1050F800000EE46F22D09A0E0101B16F020EB26F5A
:10510800000EB36F000EB46F0101B107000EB25B61
:10511800B35BB45B0101B129F7E10101B229F4E104
:105128000101B329F1E10101B429D8A4EDD70101A6
:10513800E107000EE25BE35BE45B0101E151010181
:10514800E2110101E3110101E411D8A4D4D7899C2B
:1051580025C2D9FF26C2DAFF090EDE18D8A408D066
:10516800920E0001636FFE0E0001646F40EC60F068
:1051780025C2D9FF26C2DAFF080EDE18D8A408D047
:10518800420E0001636FFE0E0001646F40EC60F098
:10519800A7EC66F03EEF23F0230E0001606FFF0ED0
:1051A8000001616F1B0E0001626F010E0001636F49
:1051B8006CEC63F00001605100016111D8A43EEF6E
:1051C80023F00B0E0001FC6F0001FC51010D610E74
:1051D800F324D96E020EF420DA6E940EDF6E00010D
:1051E800FC2B0001FC51010D610EF324D96E020E57
:1051F800F420DA6EFEC0DFFF0001FC2B0001FC5139
:10520800010D610EF324D96E020EF420DA6EFFC090
:10521800DFFF0001FC2B000EA1EC5BF0898C320E45
:105228000101E56F000EE66F000EE76F000EE86FF4
:1052380022D09A0E0101B56F020EB66F000EB76F3D
:10524800000EB86F0101B507000EB65BB75BB85B1F
:105258000101B529F7E10101B629F4E10101B729F6
:10526800F1E10101B829D8A4EDD70101E507000E45
:10527800E65BE75BE85B0101E5510101E61101012D
:10528800E7110101E811D8A4D4D7899C7AEC66F01B
:105298000009D8B43EEF23F025C2D9FF26C2DAFFB1
:1052A800950EDE18D8A49AD0020120EE01F02551FF
:1052B800D9262651DA22DF500101F06F020120EED3
:1052C80002F02551D9262651DA22DF500101F16F6B
:1052D800020120EE03F02551D9262651DA22DF50AB
:1052E8000101F26FF0C160F00001616B000E000176
:1052F800636F0A0E626FEAEC5CF000016051300FD8
:105308000101EA6FF0C160F00001616B000E00015D
:10531800636F0A0E626F56EC5FF000016051300F48
:105328000101EB6FF1C160F00001616B000E00013B
:10533800636F0A0E626FEAEC5CF000016051300F97
:105348000101EC6FF1C160F00001616B000E00011A
:10535800636F0A0E626F56EC5FF000016051300F08
:105368000101ED6FF2C160F00001616B000E0001F8
:10537800636F0A0E626FEAEC5CF000016051300F57
:105388000101EE6FF2C160F00001616B000E0001D7
:10539800636F0A0E626F56EC5FF000016051300FC8
:1053A8000101EF6FEAC180F1EBC181F1ECC183F13A
:1053B800EDC184F1EEC186F1EFC187F1FF0E000166
:1053C800636FFE0E0001646F40EC60F0800E000118
:1053D800636F010E0001646F40EC60F0A7EC66F0AB
:1053E8003EEF23F0700E0001876F000E0001886FFA
:1053F80053EF2FF0250E00018E19D8B40BD06CC0D6
:10540800D9FF6DC0DAFF8EC0DFFF00016C4B6D2B3A
:1054180053EF2FF0000E00018D6F000E8C6F000E01
:105428000001906F000E8F6F0ED000018F8708D09B
:1054380000018F8105D00001908702D000018F857F
:1054480000016E4B6F2B6EC0F6FF6FC0F7FF0800B0
:10545800F550200AD8B4ECD7030AD8B4ECD70E0A12
:10546800D8B4E3D71D0AD8B4E9D700018FA702D072
:1054780000018F956EC0F6FF6FC0F7FF0800F5506A
:105488009CEC65F0D8A041D0000E00018D6F000E95
:105498008C6F8CC060F08DC061F0000E0001636FEE
:1054A8000A0E626F04EC65F060C08CF061C08DF08C
:1054B800D00E0001786FFF0E0001796F6EC0F6FF05
:1054C8006FC0F7FF0800F55000017A6F7B6B000191
:1054D800785100017A270001795100017B230001EE
:1054E8007A5100018C2700017B5100018D230001B6
:1054F8006E4B6F2B6EC0F6FF6FC0F7FF0800F550BC
:105508009CEC65F0D8A01AD0C4D76EC0F6FF6FC067
:10551800F7FF0800F5502A0AD8A410D087C0D9FF91
:1055280088C0DAFFDECF8CF0DDCF8DF0020E0001EF
:105538008727000E882300016E4B6F2B6EC0F6FF85
:105548006FC0F7FF0800F5502E0AD8A440D000011C
:10555800908D00016E4B6F2B6EC0F6FF6FC0F7FF8A
:105568000800F5502A0AD8A410D087C0D9FF88C0EF
:10557800DAFFDF5000018B6F020E00018727000E53
:10558800882300016E4B6F2B19D1000E00018B6F21
:1055980013D06EC0F6FF6FC0F7FF0800F5CF78F0A4
:1055A80000018B510A0DF35000017825D00F00013E
:1055B8008B6F00016E4B6F2B6EC0F6FF6FC0F7FF4D
:1055C8000800F5509CEC65F0D8A0F8D0E2D7000EA2
:1055D80000018B6FF3D000018F8D1BD10001908BE0
:1055E80000018F8B00018F8F14D187C0D9FF88C02D
:1055F800DAFFDECF83F0DDCF84F0020E00018727CB
:10560800000E88230001835100018411D8A406D01C
:10561800F00E0001836FFF0E0001846F000E000181
:10562800866F000E856F03D00001854B862B000125
:105638008551000183250001786F00018651000122
:1056480084210001796F78C0F6FF79C0F7FFF86A06
:105658000E0EF76403D00800F55005D0F6CFE9FF29
:10566800F7CFEAFFEF500009D8A4DED700018B512D
:105678000001D8B417D08BC078F00001796B78BFDF
:105688007907000185510001785D0001865100010C
:105698007959D8B007D000018B510001856F866B0E
:1056A80085BF860700018C510001855D00018D5181
:1056B80000018659D8B009D00001855100018C5FDE
:1056C8000001865100018D5B05D0000E00018D6F31
:1056D800000E8C6F00018FA70AD030D06CC0D9FFA4
:1056E8006DC0DAFF200EDF6E00016C4B6D2B0001E0
:1056F8008C07D8A08D0700018C29F0E100018D29C5
:10570800D8B41CD0EBD783C0F6FF84C0F7FFF86A83
:105718006CC0D9FF6DC0DAFF0E0EF76403D0080025
:10572800F55005D0F6CFE9FFF7CFEAFFEF50DF6E6F
:105738000001834B842B00016C4B6D2B0001850706
:10574800D8A0860700018529DEE100018629D8A4B2
:10575800DAD700018FB70AD0A2D36CC0D9FF6DC0C9
:10576800DAFF200EDF6E00016C4B6D2B00018C07F9
:10577800D8A08D0700018C29F0E100018D29D8B44B
:105788008ED3EBD787C0D9FF88C0DAFFDF5000017E
:105798008E6F020E00018727000E88238E0E0001EF
:1057A800836F000E0001846F000E0001866F010EEA
:1057B800856F5CD7C00E00018F132BD06EC0F6FF2B
:1057C8006FC0F7FF00016E4B6F2B0800F5CF8EF00E
:1057D80000018E51000AD8B471D3580AD8B400D742
:1057E8003B0AD8B4CFD7070AD8B413D00D0AD8B417
:1057F80010D0060AD8B4EFD61F0AD8B4EFD6030AD9
:10580800D8B4F3D6060AD8B4D5D70D0AD8B4EAD690
:10581800C5D7C00E00018F150001786F000E00017A
:1058280090150001796F0001785100017911D8A411
:1058380019D087C0D9FF88C0DAFFDECF89F0DDCF65
:105848008AF0020E00018727000E882300018AAF24
:1058580016D0030E00018F130001896D8A1FD8B07E
:105868008A2B0DD087C0D9FF88C0DAFFDECF89F038
:10587800DDCF8AF0020E00018727000E8823000181
:105888008B510001D8A463D00001895100018A110D
:10589800D8A45DD000018B2B5AD0010E00018E6F69
:1058A800050E00018E19D8B461D000018E51020D89
:1058B800F50EF324F66EF90EF420F76E0900F55094
:1058C8000001895D0900F55000018A59D8A04ED021
:1058D80000018E2BE5D7010E00018E6F040E00012A
:1058E8008E19D8B443D000018E51020D070EF3244F
:1058F800F66EFA0EF420F76E0900F5500001895D86
:105908000900F55000018A59D8A030D000018E2B2B
:10591800E5D7010E00018E6F060E00018E19D8B46E
:1059280025D000018E51020DE90EF324F66EF90E12
:10593800F420F76E0900F5500001895D0900F55063
:1059480000018A59D8A012D000018E2BE5D700019A
:105958008F51C00B000AD8B4A0D7400AD8B4D9D701
:10596800C00AD8B4B8D7400AD8B497D700018E5126
:10597800800A0001786F00018B51800A0001785D70
:10598800D8B003D08BC08EF00DD000018B51800AA7
:105998000001786F00018E51800A0001785DD8A05F
:1059A8008EC08BF000018C5100018D11D8B414D039
:1059B800030E00018F150001786F000E000190158D
:1059C8000001796F0001785100017911D8B404D031
:1059D80000018C07D8A08D07000190AD21D0800E62
:1059E80000018BBF7F0E0001786F00018C51000110
:1059F8008B5D00018D51800A00017859D8B00BD019
:105A080000018B5100018C5F000E00018BBFFF0E5F
:105A180000018D5B05D0000E00018D6F000E8C6FAC
:105A2800C40E0001786F080E0001796F8FC07AF0FC
:105A380090C07BF00001785100017A17000179517C
:105A480000017B17400E00017A1910E1080E0001D1
:105A58007B19D8A40BD000018C5100018D11D8B44A
:105A680036D000018C07D8A08D0731D0C00E0001B8
:105A7800786F080E0001796F8FC07AF090C07BF0C4
:105A88000001785100017A170001795100017B1754
:105A9800800E00017A191BE1080E00017B19D8A4B9
:105AA80016D000018DBF0ED000018D5105E1030E07
:105AB80000018C5DD8A006D00001FE0E8C27FF0ED9
:105AC8008D2305D0000E00018D6F000E8C6F800EA7
:105AD80000018EBF7F0E0001786F00018C5100011C
