:04000000F9EF00F024
:100008004182FACF0EF0FBCF0FF0E9CF10F0EACF24
:1000180011F0E1CF12F0E2CF13F0D9CF14F0DACF1C
:1000280015F0F3CF16F0F4CF17F0F6CF18F0F7CF9E
:1000380019F0F8CF1AF0F5CF1BF0F2B8F2A2ABD056
:10004800F292620E81EC40F01D6E1DA011D0389026
:1000580038BC389C000E01018C6F000E8B6F38A2E3
:1000680007D0480E81EC40F01C6E1CB038843892E2
:100078001DA68AD01F68000E206E010E206401D0D4
:1000880010D02050500D000EF324D96E030EF4202A
:10009800DA6EDF50D8A403D020C01FF002D0202A87
:1000A800ECD7020E1F606BD0040E036E730E96EC35
:1000B80040F01F50500D000EF324D96E030EF420AB
:1000C800DA6E030E046E000E036E00EC3FF0020FB2
:1000D800DF6E1F50500D000EF324D96E030EF4206E
:1000E800DA6E4F0EDF6040D0388A010E206E1AD0CB
:1000F8001F50500D000E096E030E0A6EF3500926AC
:10010800F4500A2220500924D96E000E0A20DA6E13
:10011800000E2024036E046A030E042200EC3FF054
:10012800DF6E202A2050096E0A6A1F50500D000EFB
:10013800F324D96E030EF420DA6EDF500B6E0C6ACE
:10014800020E0B26000E0C2209500B5C0C50800A84
:100158000D6E0A50800A0D58D8B0CAD7010E036E2A
:100168001B0E96EC40F005D0010E036E1B0E96ECAC
:1001780040F0000E036E730E96EC40F005D0010EB1
:10018800036E1B0E96EC40F01DA805D0800E036E82
:10019800590E96EC40F09EB09DA007D09E903B2A49
:1001A8003B50D8A402D00101942B41EC41F01BC074
:1001B800F5FF1AC0F8FF19C0F7FF18C0F6FF17C0FF
:1001C800F4FF16C0F3FF15C0DAFF14C0D9FF13C03F
:1001D800E2FF12C0E1FF11C0EAFF10C0E9FF0FC043
:0E01E800FBFF0EC0FAFF41921100ACEF3BF09E
:100F000000C0030000A005000060090000E0100020
:100F100000E01F0000E03D0000E0790000E0F1008B
:100F200000E0E10100E0C10300E0810700E0010F03
:100F300000E0011E00443D1B000DB4150001000837
:100F400000400000020010008001000A006400E878
:100F50000310270100100000010010576169746937
:100F60006E6720666F722050414E20526573636138
:100F70006E6E696E672E2E2E2E2E2E0050414E491B
:100F8000443A25303278253032782043683A25308B
:100F9000326400416464726573733A20253032789C
:100FA00025303278003031323334353637383941F4
:100FB00042434445460030313233343536373839D0
:100FC0006162636465660057656C636F6D652C20B4
:100FD0004D617468696575000000B4EC1EF000098D
:100FE000D8B43EEF14F033B41200000E01015C6F70
:100FF00021A404D00001B16BB12B02D00001B16B70
:1010000001015C510001B119FC0BB11901015C6FC8
:1010100021A603D001015C8702D001015C97215019
:10102000030BE806D8A404D00001B16BB12B02D0A9
:101030000001B16B0001B13BB14701015C510001FE
:10104000B119DF0BB11901015C6F21AE03D00101B1
:101050005C8D02D001015C9D21AE0BD029B003D084
:1010600001015C9F02D001015C8F22C05FF123C0AF
:1010700060F12AC05DF12BC05EF128C065F127C088
:1010800064F133942EEF14F00A0E266002D03BEF89
:1010900014F020EE02F02450D9262550DA22DF5039
:1010A0000001CC6F20EE03F02450D9262550DA221F
:1010B000DF500001CD6F20EE04F02450D9262550DA
:1010C000DA22DF500001D06F20EE05F02450D9263F
:1010D0002550DA22DF500001D16F20EE06F02450B7
:1010E000D9262550DA22DF500001D26F20EE07F01A
:1010F0002450D9262550DA22DF500001D36F20EE8C
:1011000008F02450D9262550DA22DF500001D66F8E
:1011100020EE09F02450D9262550DA22DF500001B4
:10112000D76F000E01015C6F21A603D001015C871F
:1011300002D001015C9701015C51030B0009D8A4A6
:1011400007D00001D02903E10001D129D8A474D12E
:101150000001FE510001D61912E10001FF5100010A
:10116000D719D8A40CD00001FC510001D21907E115
:101170000001FD510001D319D8B43BEF14F024C095
:10118000D9FF25C0DAFF010EDF649BD024C0D9FF50
:1011900025C0DAFFDF06000E0001FA6F000E000125
:1011A000D96F18D00001D951010DF3502424D96E04
:1011B000F4502520DA6E0001FA51010D950EF3244A
:1011C000E16E010EF420E26EDFCFE7FF0001FA2BA3
:1011D0000001D92B26500001D95DD8A0E3D721C04A
:1011E0002CF0FCC031F0FDC032F029C030F0140EFC
:1011F000A9EC39F020EE2CF000EE7EF0060EDBCFED
:10120000EBFFE806FCE2950E0001856F010E000180
:10121000866FFAC087F083EC29F0000E0001D96FC9
:10122000090E0001D96501D033D00001D9510E0D4E
:101230000C0EF326000EF422000EF324D96E020EDB
:10124000F420DA6E0201DFAE20D00001D9510E0D7C
:101250000C0EF326000EF422000EF324D96E020EBB
:10126000F420DA6E0201DFB010D00001D9510E0D6A
:101270000C0EF326000EF422000EF324D96E020E9B
:10128000F420DA6E0201DFBA03D00001D92BC8D7EF
:101290000A0E0001D96115D0CCC06AF0CDC06BF048
:1012A000000E00016C6F000E00016D6F000E00015A
:1012B0006E6F000E21B6010E00016F6F010E59EC2A
:1012C00031F0000E0001D96F030E0001D96501D085
:1012D0003CD00001D951080D030EF326000EF42274
:1012E0003C0EF324D96E010EF420DA6EDF50D8B430
:1012F00029D00001D951080D3C0EF324D96E010EFE
:10130000F420DA6E0001D651DE181CE10001D7513D
:10131000DE18D8A417D020EE0AF02450D926255084
:10132000DA220001D951080D020EF326000EF42234
:101330003C0EF324E16E010EF420E26EDE50E6185E
:10134000D8B403D00001D92BBFD7040E0001D96156
:1013500002D03BEF14F0000E0001D96F030E000124
:10136000D96501D013D00001D951080D030EF32621
:10137000000EF4223C0EF324D96E010EF420DA6E36
:10138000DF50D8B403D00001D92BE8D7040E0001F8
:10139000D9614CD00001D951080D3C0EF324D96E0F
:1013A000010EF420DA6ED6C0DEFFD7C0DDFF20EEDE
:1013B0000AF02450D9262550DA220001D951080D0F
:1013C000020EF326000EF4223C0EF324E16E010E11
:1013D000F420E26EDFCFE7FF0001D951080D030EC4
:1013E000F326000EF4223C0EF324D96E010EF420F5
:1013F000DA6E030EDF6E7FEC3DF00001D951080D6F
:10140000040EF326000EF4223C0EF324D96E010ED6
:10141000F420DA6E000160C0DEFF000161C0DEFF73
:10142000000162C0DEFF000163C0DEFF01015C510C
:10143000FC0B01095C6F7FD00001FC510001CC194D
:1014400005E10001FD510001CD19D8A453EF0EF0C4
:101450000001FE510001D01905E10001FF5100011A
:10146000D119D8A453EF0EF020EE01F02450D92664
:101470002550DA22DFA45FD040C095F1020E0101B1
:10148000966FD2C097F1D3C098F1D6C099F1D7C06A
:101490009AF1FCC09BF1FDC09CF1FEC09DF1FFC024
:1014A0009EF120EE0AF02450D9262550DA22DF5092
:1014B00001019F6F000E0101A06F300E0101A16FAD
:1014C0000D0E0001FA6F0001FF510001D719D8B4C9
:1014D0000ED0D2C0A5F0D3C0A6F0D6C0A7F0D7C01A
:1014E000A8F0000E0001A96FAAEC24F022D0000E93
:1014F0002C6E2C8A010E2F6E010E306ED60E2D6EC4
:10150000000E2E6ED2C031F0D3C032F020EE2CF09F
:1015100000EE7EF0060EDBCFEBFFE806FCE2950E58
:101520000001856F010E0001866FFAC087F083EC21
:1015300029F001015C8520EE0BF02450D9262550BE
:10154000DA22DF50D8A46DD320EE0CF02450D92637
:101550002550DA22300EDE18D8A430D347D301014B
:10156000C8B371D07FEC3DF060C0DFF161C0E0F145
:1015700062C0E1F163C0E2F120EE08F02450D92608
:101580002550DA22DF500101CA6F20EE09F0245005
:10159000D9262550DA22DF500101CB6F000E000161
:1015A000D86F070E0001D86501D020D00001D851B6
:1015B0000001B16FB26B0D0E0001B127000EB22316
:1015C0000001B1512424D96E0001B2512520DA6EF8
:1015D0000001D851010DCC0EF324E16E010EF42070
:1015E000E26EDFCFE7FF0001D82BDBD70101C88314
:1015F0000101C891000E0001D86F0001D85100010F
:10160000D8A43BEF14F00001D8510001B16FB26BC8
:10161000150E0001B127000EB2230001B1512424A0
:10162000D96E0001B2512520DA6E0001D851010DAA
:10163000D40EF324E16E010EF420E26EDFCFE7FF5B
:101640000001D82BDAD720EE08F02450D9262550F7
:10165000DA220101CA51DE18D8A40CD020EE09F01C
:101660002450D9262550DA220101CB51DE18D8B4F6
:101670003BEF14F00101CA510101CB11D8A4AAD04B
:10168000000E0001D86F070E0001D86501D034D0DC
:101690000001D8510001B16FB26B0D0E0001B127EE
:1016A000000EB2230001B1512424D96E0001B251C1
:1016B0002520DA6E0001D851010DD70EF324E16E1A
:1016C000010EF420E26EDFCFE7FF0001D851010DDB
:1016D000D70EF324D96E010EF420DA6E0001D85132
:1016E000010D760EF324E16E010EF420E26EDFCFE1
:1016F000E7FF0001D82BC7D720EE08F02450D926E9
:101700002550DA22DF500101D56F20EE09F0245078
:10171000D9262550DA22DF500101D66FD5C13CF021
:10172000D6C13DF0FCC0E7F1FDC0E8F183EC3CF030
:101730000101C96F0101C929D8A405D18D0E01018C
:10174000936F3CAE02D0010193915DEC37F0010143
:10175000C96F0101C929D8B4F6D0000E0001D86FB5
:101760000001D8510001D8A4EED00001D8510001E9
:10177000B16FB26B150E0001B127000EB22300014C
:10178000B1512424D96E0001B2512520DA6E000136
:10179000D851010D0D0EF326000EF422000E0001AB
:1017A000B36F020E0001B46FF3500001B327F45081
:1017B0000001B4230101C9510E0DF3500001B325FE
:1017C000E16EF4500001B421E26EDFCFE7FF0001CB
:1017D000D82BC6D70B0E0001FA6F0001FA51010D8C
:1017E000950EF324D96E010EF420DA6E000EDF6E32
:1017F0000001FA2B0001FA51010D950EF324D96E68
:10180000010EF420DA6E110EDF6E0001FA2B000ECD
:101810000001D86F070E0001D86501D036D0000155
:10182000D8510001B16FB26B0D0E0001B127000E4F
:10183000B2230001B1512424D96E0001B2512520F8
:10184000DA6E0001D851010DD70EF324E16E010EBE
:10185000F420E26EDFCFE7FF0001D851010DD70E73
:10186000F324D96E010EF420DA6E0001FA51010D55
:10187000950EF324E16E010EF420E26EDFCFE7FF58
:101880000001FA2B0001D82BC5D720EE08F0245018
:10189000D9262550DA22DF500101D56F20EE09F05C
:1018A0002450D9262550DA22DF500101D66F0001DD
:1018B000FA51010D950EF324D96E010EF420DA6E63
:1018C000D5C1DFFF0001FA2B0001FA51010D950E81
:1018D000F324D96E010EF420DA6ED6C1DFFF0001C9
:1018E000FA2B000E0001D86F0001D8510001D8A4D6
:1018F00022D00001D8510001B16FB26B150E00016A
:10190000B127000EB2230001B1512424D96E000189
:10191000B2512520DA6E0001FA51010D950EF32423
:10192000E16E010EF420E26EDFCFE7FF0001FA2B3B
:101930000001D82BD9D7CA0E0001AF6F010E0001EC
:10194000B06F3CEC3CF00101C8830101C8813BEF62
:1019500014F0000E0001D46F070E0001D46501D011
:1019600020D00001D4510001B16FB26B0D0E000107
:10197000B127000EB2230001B1512424D96E000119
:10198000B2512520DA6E0001D451010D760EF324F8
:10199000E16E010EF420E26EDFCFE7FF0001D42BF1
:1019A000DBD78D0E0101936F20EE15F02450D92660
:1019B0002550DA22DFAE02D00101939120EE15F01E
:1019C0002450D9262550DA22DF503C6E20EE16F046
:1019D0002450D9262550DA22DF503D6EFCC0E7F1B5
:1019E000FDC0E8F183EC3CF00101C96F0101C92998
:1019F000D8B415D00101C9510E0D0C0EF326000EFE
:101A0000F422000EF324D96E020EF420DA6EDF50B9
:101A10000101936F010193850101938707D08D0E1A
:101A20000101936F3CAE02D0010193915DEC37F060
:101A30000101C96F0101C929D8B440D0000E0001CD
:101A4000D46F0001D4510001D8A435D00001D45185
:101A50000001B16FB26B170E0001B127000EB22367
:101A60000001B1512424D96E0001B2512520DA6E53
:101A70000001D451010D0D0EF326000EF422000ECC
:101A80000001B36F020E0001B46FF3500001B327E1
:101A9000F4500001B4230101C9510E0DF3500001AF
:101AA000B325E16EF4500001B421E26EDFCFE7FF11
:101AB0000001D42BC6D70101C88102D00101C89111
:101AC0000101C8933BEF14F020EE0DF02450D9260D
:101AD0002550DA223E50DE18D8A43BEF14F020EE59
:101AE0000EF02450D9262550DA22DF50AAEC40F01F
:101AF0003BEF14F020EE0DF02450D9262550DA22C9
:101B00003E50DE18D8A43BEF14F0000E0001FA6F2F
:101B100040C095F1020E0101966FFCC097F1FDC027
:101B200098F120EE08F02450D9262550DA22DF5013
:101B30000101996F20EE09F02450D9262550DA22B0
:101B4000DF5001019A6FFCC09BF1FDC09CF1FEC00B
:101B50009DF1FFC09EF139C09FF1392A000E0101AD
:101B6000A06F420E0101A16F000E2C6E2C8A010E97
:101B70002F6E010E306EFCC031F0FDC032F0080E49
:101B800024242D6E000E25202E6E20EE2CF000EE6B
:101B90007EF0060EDBCFEBFFE806FCE2950E0001BF
:101BA000856F010E0001866F0D0E0001876F83ECBB
:101BB00029F03BEF14F0339E3BEF14F020EE0CF0D5
:101BC0002450D9262550DA22DF50100AD8B4C7D4C1
:101BD000010AD8B4BED6510AD8B476D7010AD8B40F
:101BE00089D7030AD8B4E7D73BEF14F020EE0AF008
:101BF0002450D9262550DA220101F651DE18D8A446
:101C00003BEF14F0010189510001D61905E10101F2
:101C10008A510001D719D8A43BEF14F033963BEF5B
:101C200014F02650F50F0101636F0B0E24240101FF
:101C3000616F000E25200101626FD2C05DF1D3C03B
:101C40005EF120EE08F02450D9262550DA22DE2855
:101C5000D8A415D020EE09F02450D9262550DA2238
:101C6000DE28D8A40CD029B003D001015C9F02D09B
:101C700001015C8F22C05FF123C060F10AD0010135
:101C80005C8F080E242401015F6F000E25200101E6
:101C9000606F01015C8D01016351D8B43BEF14F01A
:101CA00033843BEF14F024C0D9FF25C0DAFFDF50A6
:101CB000D8B43BEF14F024C0D9FF25C0DAFFDF060B
:101CC000000E0001FA6F000E0001D96F18D000015C
:101CD000D951010DF3502424D96EF4502520DA6E29
:101CE0000001FA51010D950EF324E16E010EF4206E
:101CF000E26EDFCFE7FF0001FA2B0001D92B26505F
:101D00000001D95DD8A0E3D70001FF510001D1192E
:101D1000D8A42DD00101A051D8A429D0300E0101A2
:101D2000A119D8A424D0000E2C6E2C8A010E2F6E7F
:101D3000010E306ED00E2D6E000E2E6ECCC031F026
:101D4000CDC032F020EE2CF000EE7EF0060EDBCFA0
:101D5000EBFFE806FCE2950E0001856F010E000125
:101D6000866FFAC087F083EC29F03BEF14F0CCC00B
:101D7000A5F0CDC0A6F0D0C0A7F0D1C0A8F0000E4D
:101D800021B6010E0001A96FAAEC24F03BEF14F07C
:101D9000000E0001CB6F0001CB510001B16FB26B9F
:101DA000040E0001B127000EB2230001B15124241A
:101DB000D96E0001B2512520DA6E4D0EDE18D8A47E
:101DC0003BEF14F020EE01F02250D9262350DA2206
:101DD000DF500001C26FC2C0B1F0010E0001B26F4E
:101DE0000001B12B03D00001D890B2370001B12F10
:101DF000FAD70001B2510001BF6F22C0D9FF23C042
:101E0000DAFFDF50D8A404D00001BF5101019213C2
:101E10000001CB510001B16FB26B060E0001B1277A
:101E2000000EB2230001B1512424D96E0001B25139
:101E30002520DA6E0001C251010D6E0EF324E16E11
:101E4000010EF420E26EDFCFE7FF33A03BEF14F08A
:101E50002AC0E7F12BC0E8F122C0D9FF23C0DAFF86
:101E6000DF503C6E20EE01F02250D9262350DA22BA
:101E7000DF503D6E0001CB51010DF3502424D96E8B
:101E8000F4502520DA6EDE28D8A43BEF14F00001D0
:101E9000CB510001B16FB26B010E0001B127000EF2
:101EA000B2230001B1512424D96E0001B251252082
:101EB000DA6EDF500001CA6F040E35603BEF14F09C
:101EC0000001CA39030B0001B16F020E0001B161BC
:101ED0003BEF14F035500F0D000EF324D96E010EB8
:101EE000F420DA6E3EC0DFFF35500F0D0B0EF326E7
:101EF000000EF422000EF324D96E010EF420DA6EE7
:101F000064C1DFFF35500F0D0C0EF326000EF422D6
:101F1000000EF324D96E010EF420DA6E65C1DFFFE6
:101F200035500F0D090EF326000EF422000EF32497
:101F3000D96E010EF420DA6EE7C1DEFFE8C1DDFFE5
:101F400035500F0D0D0EF326000EF422000EF32473
:101F5000D96E010EF420DA6E000EDF6E35500F0DD3
:101F60000D0EF326000EF422000EF324D96E010E9E
:101F7000F420DA6E0101DF8C0001CA31030B00018D
:101F8000B16F35500F0D0D0EF326000EF422000E2A
:101F9000F324D96E010EF420DA6E0101DF50000146
:101FA000B119FC0BB1190101DF6E0001CAA70ED0F7
:101FB00035500F0D0D0EF326000EF422000EF32403
:101FC000D96E010EF420DA6E0101DF860001CA39F4
:101FD000030B0001B16F020E0001B1610ED035504C
:101FE0000F0D0D0EF326000EF422000EF324D96E11
:101FF000010EF420DA6E0101DF8A5FC1D9FF60C1F2
:10200000DAFF35500F0D010EF326000EF422000EFC
:10201000F324E16E010EF420E26EDFCFE7FF010151
:1020200020EE01F05F51D9266051DA2235500F0DB4
:10203000020EF326000EF422000EF324E16E010ED0
:10204000F420E26EDFCFE7FF35500F0D0D0EF326C3
:10205000000EF422000EF324D96E010EF420DA6E85
:102060000101DF8E000E0001D96F0001D95100017E
:10207000D8A439D00001D951CBC0B1F00001B26B66
:102080000001B127000EB223070E0001B127000E98
:10209000B2230001B1512424D96E0001B251252090
:1020A000DA6E0001D951010D0E0EF326000EF42256
:1020B000000E0001B36F010E0001B46FF350000178
:1020C000B327F4500001B42335500F0DF350000135
:1020D000B325E16EF4500001B421E26EDFCFE7FFDB
:1020E0000001D92BC2D7352AC6D3000E0001C16F1B
:1020F000010E376401D0BFD3000E0001D96F070E67
:102100000001D96501D017D00001D951010DF3505C
:102110002224D96EF4502320DA6E0001D951010D2A
:10212000760EF324E16E010EF420E26EDFCFE7FFBE
:102130000001D92BE4D7E4EC38F00001D56F0001A1
:10214000D529D8A41AD03750D8A495D3B70E0101F9
:10215000936FFCC0E7F1FDC0E8F15DEC37F00001E2
:10216000D56F0001D529D8A42AD0010E0001C16F76
:10217000FF0E3D6EFE0E3C6ED4D00001D5510E0D0B
:102180000C0EF326000EF422000EF324D96E020E7C
:10219000F420DA6E0201DFA612D00001D5510E0D37
:1021A000020EF326000EF422000EF324D96E020E66
:1021B000F420DA6EDECF3CF0DDCF3DF0B2D000018E
:1021C000D529D8B4AED00001D5293C6EFFC03DF072
:1021D000FCC0E7F1FDC0E8F1020E3A18D8A443D0E4
:1021E00020EE01F02450D9262550DA22DFAC3BD076
:1021F0003CC0BDF03DC0BEF0000E3C6E010E0001C3
:10220000CE6F070E0001CE6501D024D0CEC03DF0C8
:1022100083EC3CF00001C06F0001C029D8A417D0A6
:10222000000E3C6ECEC03DF0CEC0B1F0010E0001FC
:10223000B26F0001B12B03D00001D890B23700017A
:10224000B12FFAD70001B2510101921303D000015E
:10225000CE2BD7D7080E0001CE19D8A404D0BDC00C
:102260003CF0BEC03DF0BF0E0101936F20EE01F0C7
:102270002450D9262550DA22DFB003D001019391F2
:102280003C8E5DEC37F00001D56F0001D5510E0D8D
:102290000C0EF326000EF422000EF324D96E020E6B
:1022A000F420DA6E0201DF88000E0001D96F000110
:1022B000D9510001D8A435D00001D9510001B16F26
:1022C000B26B020E0001B127000EB2230001B15122
:1022D0002424D96E0001B2512520DA6E0001D951B3
:1022E000010D0D0EF326000EF422000E0001B36F57
:1022F000020E0001B46FF3500001B327F450000147
:10230000B4230001D5510E0DF3500001B325E16E49
:10231000F4500001B421E26EDFCFE7FF0001D92BBA
:10232000C6D7020E0101956F3CC096F13DC097F1F2
:10233000C1C098F1000E0001D96F0001D951000110
:10234000D8A420D00001D951010D360EF324D96E46
:10235000000EF420DA6E0001D9510001B16FB26BAA
:10236000040E0001B127000EB223950E0001B12525
:10237000E16E010E0001B221E26EDFCFE7FF000146
:10238000D92BDBD7050E0001FA6FFC0E00019D6F03
:10239000000E00019E6F0001D5510E0D040EF326B4
:1023A000000EF422000EF32400019F6F020EF420B1
:1023B0000001A06F010E0001A16F000E0001A26FCD
:1023C000B2EC3AF058D220EE03F02450D926255032
:1023D000DA22DF50D8A4C9D020EE01F02450D9264B
:1023E0002550DA22DF500001FE6F20EE02F024506B
:1023F000D9262550DA22DF500001FF6F0001FE517F
:10240000D8A424D0010E3A6E3AC0B1F00001B14711
:10241000010191510001B119F90BB1190101916F3D
:10242000FFC0B1F0070E0001B117010E0001B26F3D
:102430000001B12B03D00001D890B2370001B12FB9
:10244000FAD70001B229010192130ED0000E3A6EA4
:102450003AC0B1F00001B147010191510001B11939
:10246000F90BB1190101916FFE0E0001656F000EAD
:102470000001666FFC0E0001676F000E0001686FBF
:10248000B7EC3DF03382BF0E0101936F000E0001E7
:10249000D96F070E0001D96501D017D00001D951BD
:1024A000010DF3502224D96EF4502320DA6E00017E
:1024B000D951010D760EF324E16E010EF420E26E87
:1024C000DFCFE7FF0001D92BE4D70001FE51D8A4EC
:1024D00003D0000E3D6E02D0FFC03DF0000E3C6EFA
:1024E000FCC0E7F1FDC0E8F15DEC37F00001FB6FE7
:1024F000000E0001D96F0001D9510001D8A4BBD151
:102500000001D9510001B16FB26B040E0001B12777
:10251000000EB2230001B1512424D96E0001B25142
:102520002520DA6E0001D951010D0D0EF326000EA3
:10253000F422000E0001B36F020E0001B46FF350DD
:102540000001B327F4500001B4230001FB510E0D2C
:10255000F3500001B325E16EF4500001B421E26EA6
:10256000DFCFE7FF0001D92BC6D70001FB690001CF
:10257000FC69FD693C683D683C0E0001656F000E1A
:102580000001666FFC0E0001676F000E0001686FAE
:10259000B7EC3DF070D12950D8B417D022C0D9FF84
:1025A00023C0DAFFDF503C6E20EE01F02250D92626
:1025B0002350DA22DF503D6E83EC3CF00001C96FFE
:1025C0000001C929D8B457D122D0000E0001D96F1B
:1025D000070E0001D96501D017D00001D951010DB6
:1025E000F3502224D96EF4502320DA6E0001D95121
:1025F000010D760EF324E16E010EF420E26EDFCFC2
:10260000E7FF0001D92BE4D7E4EC38F0D7D700017D
:10261000C9510E0D0C0EF326000EF422000EF32409
:10262000D96E020EF420DA6E0201DFAA24D1000175
:10263000FB510001C919D8B410D00001C9510E0DC9
:102640000C0EF326000EF422000EF324D96E020EB7
:10265000F420DA6E000EDF6E0ED1000E0001D96F8D
:10266000090E0001D96501D090D00001D9510E0D9D
:102670000C0EF326000EF422000EF324D96E020E87
:10268000F420DA6E0201DFAE6ED00001D9510E0DDA
:102690000C0EF326000EF422000EF324D96E020E67
:1026A000F420DA6E0201DFAA5ED00001FB510001C6
:1026B000D919D8B458D0000E0001FA6F0001FA51B0
:1026C000010D950EF324D96E010EF420DA6E030E7F
:1026D000DF6E0001FA2B000E2C6E2C8A2C50FC0BA6
:1026E00001092C6E010E2F6E010E306E0001D951C2
:1026F0000E0D000EF324D96E020EF420DA6EDECF3A
:1027000031F0DDCF32F00001D9510E0D020EF3266B
:10271000000EF422000EF3242D6E020EF4202E6E15
:1027200020EE2CF000EE7EF0060EDBCFEBFFE8068D
:10273000FCE2950E0001856F010E0001866FFAC064
:1027400087F083EC29F0000E0001C46F000EC36F08
:102750000001C3290F0E0001C459D8B004D00001F4
:10276000C34BC42BF5D70001D9510E0D0C0EF32627
:10277000000EF422000EF324D96E020EF420DA6E5D
:10278000000EDF6E0001D92B6BD70001FB69000141
:10279000FE69FF690001FC69FD69FE0E0001656FBD
:1027A000000E0001666FFC0E0001676F000E000155
:1027B000686FB7EC3DF033925ED02950D8B410D09A
:1027C000000E0001A46F000E0001A56F22C0A6F04C
:1027D00023C0A7F0010E0001A86F05EC1BF04BD041
:1027E00022C0A4F023C0A5F0000E0001A66F000EC9
:1027F0000001A76F000E0001A86F05EC1BF03BD095
:10280000020E376401D037D033A235D020EE01F06C
:102810002450D9262550DA223E50DE18D8A42BD0D9
:102820003A50D8B428D0140EA9EC39F042EC36F066
:1028300022D024C0D9FF25C0DAFFDF50010AD8B466
:1028400054D4030AD8B4BFD5010AD8B4A4D6070A11
:10285000D8B4B3D7030AD8B4D3D70DD02150030BC3
:10286000000AD8B444EF08F0010AD8B4E2D7020A4B
:10287000D8B4C8EF0EF033A4CAEC40F07FEC3DF0C2
:1028800060C0C5F061C0C6F062C0C7F063C0C8F0E8
:10289000000E0001D96F010E0001D96501D062D090
:1028A0000001D951430D0E0EF326000EF422000E46
:1028B000F324D96E040EF420DA6E0401DFA04FD0A9
:1028C0000001D951430D000EF324D96E040EF420FB
:1028D000DA6EDECFB1F0DECFB2F0DECFB3F0DECF16
:1028E000B4F00001B11FB21FB31FB41FB12B000E13
:1028F000B223B323B4230001C5510001B125000167
:10290000B56F0001C6510001B2210001B66F000190
:10291000C7510001B3210001B76F0001C851000188
:10292000B4210001B86F0001B8510AE10001B505FA
:10293000120E0001B6597A0E0001B759D8A00FD077
:102940000001D951430D0E0EF326000EF422000EA5
:10295000F324D96E040EF420DA6E000EDF6E00014F
:10296000D92B99D7000E0001D96F030E0001D9654C
:1029700001D067D00001D951080D030EF326000ED7
:10298000F4223C0EF324D96E010EF420DA6EDF50EF
:10299000D8B454D00001D951080D040EF326000E0E
:1029A000F4223C0EF324D96E010EF420DA6EDECF51
:1029B000B1F0DECFB2F0DECFB3F0DECFB4F0000185
:1029C000B11FB21FB31FB41FB12B000EB223B3232C
:1029D000B4230001C5510001B1250001B56F00010C
:1029E000C6510001B2210001B66F0001C7510001BC
:1029F000B3210001B76F0001C8510001B4210001EB
:102A0000B86F0001B8510BE1210E0001B55DA10EB8
:102A10000001B659070E0001B759D8A00FD0000128
:102A2000D951080D030EF326000EF4223C0EF324B8
:102A3000D96E010EF420DA6E000EDF6E0001D92B84
:102A400094D70101C8A312000101C8A184D00B0EC4
:102A50000001FA6F0001FA51010D950EF324D96EB1
:102A6000010EF420DA6E000EDF6E0001FA2B000179
:102A7000FA51010D950EF324D96E010EF420DA6E91
:102A8000110EDF6E0001FA2B000E0001CF6F070E52
:102A90000001CF6501D019D00001CF51010DCC0E3E
:102AA000F324D96E010EF420DA6E0001FA51010D03
:102AB000950EF324E16E010EF420E26EDFCFE7FF06
:102AC0000001FA2B0001CF2BE2D70001FA51010DD2
:102AD000950EF324D96E010EF420DA6ECAC1DFFF21
:102AE0000001FA2B0001FA51010D950EF324D96E65
:102AF000010EF420DA6ECBC1DFFF0001FA2B000ECD
:102B00000001CF6F0001CF510001D8A419D00001FE
:102B1000CF51010DD40EF324D96E010EF420DA6EDC
:102B20000001FA51010D950EF324E16E010EF4201F
:102B3000E26EDFCFE7FF0001FA2B0001CF2BE2D7D7
:102B4000D50E0001AF6F010E0001B06F3CEC3CF000
:102B50000101C8931200DFC1B1F0E0C1B2F0E1C1E0
:102B6000B3F0E2C1B4F00001B11FB21FB31FB41F34
:102B7000B12B000EB223B323B4230001C5510001D1
:102B8000B1250001B96F0001C6510001B221000159
:102B9000BA6F0001C7510001B3210001BB6F0001F2
:102BA000C8510001B4210001BC6F0001BC510BE110
:102BB000610E0001B95DE30E0001BA59160E000165
:102BC000BB59D8A012000101C8931200700E000179
:102BD000856F000E0001866FEFEF1AF0250E0001E1
:102BE0008C19D8B40BD06CC0D9FF6DC0DAFF8CC083
:102BF000DFFF00016C4B6D2BEFEF1AF0000E0001B0
:102C00008B6F000E8A6F000E00018E6F000E8D6FAD
:102C10000ED000018D8708D000018D8105D0000104
:102C20008E8702D000018D8500016E4B6F2B6EC028
:102C3000F6FF6FC0F7FF0800F550200AD8B4ECD7B4
:102C4000030AD8B4ECD70E0AD8B4E3D71D0AD8B417
:102C5000E9D700018DA702D000018D956EC0F6FF67
:102C60006FC0F7FF0800F5506CEC40F0D8A041D0E1
:102C7000000E00018B6F000E8A6F8AC060F08BC05F
:102C800061F0000E0001636F0A0E626FEDEC3FF021
:102C900060C08AF061C08BF0D00E0001766FFF0E2D
:102CA0000001776F6EC0F6FF6FC0F7FF0800F550A8
:102CB0000001786F796B00017651000178270001DF
:102CC0007751000179230001785100018A27000122
:102CD000795100018B2300016E4B6F2B6EC0F6FF04
:102CE0006FC0F7FF0800F5506CEC40F0D8A01AD088
:102CF000C4D76EC0F6FF6FC0F7FF0800F5502A0A70
:102D0000D8A410D085C0D9FF86C0DAFFDECF8AF004
:102D1000DDCF8BF0020E00018527000E8623000117
:102D20006E4B6F2B6EC0F6FF6FC0F7FF0800F550BB
:102D30002E0AD8A440D000018E8D00016E4B6F2B5F
:102D40006EC0F6FF6FC0F7FF0800F5502A0AD8A43E
:102D500010D085C0D9FF86C0DAFFDF500001896F2F
:102D6000020E00018527000E862300016E4B6F2B9B
:102D7000CBD0000E0001896F13D06EC0F6FF6FC07C
:102D8000F7FF0800F5CF76F0000189510A0DF350E6
:102D900000017625D00F0001896F00016E4B6F2B6B
:102DA0006EC0F6FF6FC0F7FF0800F5506CEC40F006
:102DB000D8A0AAD0E2D7000E0001896FA5D00001EB
:102DC0008D8DC7D000018D8B00018D8FC2D0000189
:102DD00089510001D8B417D089C076F00001776B13
:102DE00076BF7707000183510001765D00018451B1
:102DF00000017759D8B007D0000189510001836FD5
:102E0000846B83BF840700018A510001835D000148
:102E10008B5100018459D8B009D0000183510001C1
:102E20008A5F0001845100018B5B05D0000E000118
:102E30008B6F000E8A6F00018DA70AD025D06CC061
:102E4000D9FF6DC0DAFF200EDF6E00016C4B6D2BD9
:102E500000018A07D8A08B0700018A29F0E1000150
:102E60008B29D8B411D0EBD77BC0D9FF7CC0DAFF57
:102E70006CC0E1FF6DC0E2FFDFCFE7FF00017B4BDD
:102E80007C2B00016C4B6D2B00018307D8A08407BD
:102E900000018329E9E100018429D8A4E5D70001D4
:102EA0008DB70AD09CD36CC0D9FF6DC0DAFF200E5D
:102EB000DF6E00016C4B6D2B00018A07D8A08B07D9
:102EC00000018A29F0E100018B29D8B488D3EBD71F
:102ED00085C0D9FF86C0DAFFDF5000018C6F020E7B
:102EE00000018527000E86238C0E00017B6F000EEB
:102EF00000017C6F000E0001846F010E836F67D7A5
:102F0000C00E00018D1325D06EC0F6FF6FC0F7FF15
:102F100000016E4B6F2B0800F5CF8CF000018C5137
:102F2000000AD8B46BD3580AD8B44CD73B0AD8B4EB
:102F3000CFD7070AD8B40DD00D0AD8B40AD0060AE4
:102F4000D8B43DD71A0AD8B4DBD70D0AD8B43CD7C9
:102F5000CBD7C00E00018D150001766F000E000169
:102F60008E150001776F0001765100017711D8A40A
:102F700019D085C0D9FF86C0DAFFDECF87F0DDCF5C
:102F800088F0020E00018527000E8623000188AF1D
:102F900016D0030E00018D130001876D881FD8B075
:102FA000882B0DD085C0D9FF86C0DAFFDECF87F031
:102FB000DDCF88F0020E00018527000E8623000178
:102FC00089510001D8A463D0000187510001881104
:102FD000D8A45DD00001892B5AD0010E00018C6F5E
:102FE000050E00018C19D8B461D000018C51020D7E
:102FF000490EF324F66E0F0EF420F76E0900F5501B
:103000000001875D0900F55000018859D8A04ED015
:1030100000018C2BE5D7010E00018C6F040E00011E
:103020008C19D8B443D000018C51020D530EF324F7
:10303000F66E0F0EF420F76E0900F5500001875D63
:103040000900F55000018859D8A030D000018C2B20
:10305000E5D7010E00018C6F060E00018C19D8B463
:1030600025D000018C51020D3D0EF324F66E0F0E9B
:10307000F420F76E0900F5500001875D0900F55056
:1030800000018859D8A012D000018C2BE5D700018F
:103090008D51C00B000AD8B4A0D7400AD8B4D9D7F4
:1030A000C00AD8B4B8D7400AD8B497D700018C5119
:1030B000800A0001766F00018951800A0001765D67
:1030C000D8B003D089C08CF00DD000018951800A9E
:1030D0000001766F00018C51800A0001765DD8A056
:1030E0008CC089F000018A5100018B11D8B414D032
:1030F000030E00018D150001766F000E00018E1584
:103100000001776F0001765100017711D8B404D027
:1031100000018A07D8A08B0700018EAD21D0800E58
:10312000000189BF7F0E0001766F00018A51000106
:10313000895D00018B51800A00017659D8B00BD00F
:103140000001895100018A5F000E000189BFFF0E56
:1031500000018B5B05D0000E00018B6F000E8A6FA3
:10316000C40E0001766F080E0001776F8DC078F0F5
:103170008EC079F000017651000178170001775177
:1031800000017917400E0001781910E1080E0001C6
:103190007919D8A40BD000018A5100018B11D8B441
:1031A00036D000018A07D8A08B0731D0C00E0001AD
:1031B000766F080E0001776F8DC078F08EC079F0C1
:1031C000000176510001781700017751000179174D
:1031D000800E000178191BE1080E00017919D8A4AE
:1031E00016D000018BBF0ED000018B5105E1030EFC
:1031F00000018A5DD8A006D00001FE0E8A27FF0ECE
:103200008B2305D0000E00018B6F000E8A6F800E9D
:1032100000018CBF7F0E0001766F00018A51000112
:103220008C5D00018B51800A00017659D8B00BD01B
:1032300000018C5100018A5F000E00018CBFFF0E5F
:1032400000018B5B05D0000E00018B6F000E8A6FB2
:1032500000018DA570D0030E00018D150001766F61
:10326000000E00018E150001776F000176510001FC
:103270007711D8B40AD06CC0D9FF6DC0DAFF2D0E1B
:103280000CD000016C4B6D2B42D000018DA107D0FA
:103290006CC0D9FF6DC0DAFF200EDF6EF2D7C00E12
:1032A0000001766F080E0001776F8DC078F08EC038
:1032B00079F0000176510001781700017751000183
:1032C0007917800E0001781922E1080E00017919A2
:1032D000D8A41DD06CC0D9FF6DC0DAFF300EDF6EF0
:1032E00000016C4B6D2B00018DBB05D0000E000161
:1032F0007E6F780E04D0000E00017E6F580E7D6F39
:103300006CC0D9FF6DC0DAFF7DC0DFFFBAD7000106
:103310008A5100018B11D8B43CD16CC0D9FF6DC06B
:10332000DAFF300EDF6E00016C4B6D2B00018A0757
:10333000D8A08B07ECD700018A5100018B11D8B4BB
:1033400016D000018DB713D06CC0D9FF6DC0DAFF65
:10335000200EDF6E00016C4B6D2B00018A07D8A098
:103360008B0700018A5100018B11D8A4EDD7030E01
:1033700000018D150001766F000E00018E15000111
:10338000776F0001765100017711D8B40AD06CC074
:10339000D9FF6DC0DAFF2D0E0CD000016C4B6D2BE8
:1033A0000AD000018DA107D06CC0D9FF6DC0DAFF33
:1033B000200EDF6EF2D7C00E0001766F080E0001FE
:1033C000776F8DC078F08EC079F0000176510001E2
:1033D00078170001775100017917400E0001781924
:1033E0000CE1080E00017919D8A407D06CC0D9FFF0
:1033F0006DC0DAFF300EDF6EC9D0C00E0001766FEF
:10340000080E0001776F8DC078F08EC079F0000152
:103410007651000178170001775100017917800E6D
:103420000001781904E1080E00017919D8A4B1D07F
:103430006CC0D9FF6DC0DAFF300EDF6E00016C4B3F
:103440006D2B00018DBB05D0000E0001806F780E42
:1034500004D0000E0001806F580E7F6F6CC0D9FF42
:103460006DC0DAFF7FC0DFFF91D000018951020DEE
:10347000490EF324F66E0F0EF420F76E0900F5CF17
:1034800062F00A00F5CF63F087C060F088C061F099
:1034900008EC3DF060C067F061C068F0000E00010C
:1034A0006A6F0A0E696F20EC3EF00001675155D03B
:1034B00087C060F088C061F000018951020D530E91
:1034C000F324F66E0F0EF420F76E0900F5CF62F0CC
:1034D0000A00F5CF63F008EC3DF0000160510F0BDE
:1034E00000017A6F00018DBB05D0B60E0001816F1F
:1034F0000F0E04D0A50E0001816F0F0E0001826F28
:1035000000017A51010D81C076F082C077F0F3504E
:1035100000017627F4500001772376C0F6FF77C0CC
:10352000F7FF0800F5CF8CF02BD087C060F088C083
:1035300061F000018951020D3D0EF324F66E0F0E6D
:10354000F420F76E0900F5CF62F00A00F5CF63F0C2
:1035500008EC3DF000016051070B300F00018C6F4B
:103560000FD000018D51C00B000AD8B47ED7400A9D
:10357000D8B4DBD7C00AD8B49BD7400AD8B475D723
:103580006CC0D9FF6DC0DAFF8CC0DFFF00016C4B4F
:103590006D2B0001890700018929D8A4E2D7000119
:1035A0008DA71DD000018BBF1AD000018B5104E103
:1035B00000018A05D8A013D06CC0D9FF6DC0DAFF16
:1035C000200EDF6E00016C4B6D2B00018A07D8A026
:1035D0008B0700018A5100018B11D8A4EDD76EC072
:1035E000F6FF6FC0F7FF00016E4B6F2B0800F5CFA1
:1035F0008CF000018C51D8A4EEEF15F06CC0D9FF0F
:103600006DC0DAFF000EDF6E1200000E0001AB6F1E
:10361000000E0001FA6F0001A8510001D8B418D0C3
:10362000A6C0D9FFA7C0DAFFDF503C6E000120EE34
:1036300001F0A651D926A751DA22DF503D6E83EC66
:103640003CF00001AD6F0001AD29D8B464D324D0A3
:10365000000E0001AE6F070E0001AE6501D019D05B
:103660000001AE51010DF3500001A425D96EF450B4
:103670000001A521DA6E0001AE51010D760EF32492
:10368000E16E010EF420E26EDFCFE7FF0001AE2B0A
:10369000E2D7E4EC38F0D5D7000E0001AE6F010E92
:1036A0000001AE6501D056D20001AE51430D0E0EA1
:1036B000F326000EF422000EF324D96E040EF4203B
:1036C000DA6E0401DFA043D20001AE51430D0E0EAD
:1036D000F326000EF422000EF324D96E040EF4201B
:1036E000DA6E0401DFB21ED10001AE51430D0E0EA1
:1036F000F326000EF422000EF324D96E040EF420FB
:10370000DA6E0401DFA80ED10001AE51430D060EA2
:10371000F326000EF422000EF324D96E040EF420DA
:10372000DA6E0001AD510E0D020EF326000EF422EA
:10373000000EF324E16E020EF420E26EDE50E61875
:10374000D8A4F0D00001AE51430D070EF326000EB1
:10375000F422000EF324D96E040EF420DA6E000178
:10376000AD510E0D030EF326000EF422000EF324CD
:10377000E16E020EF420E26EDE50E618D8A4D2D03C
:10378000000E0001AC6F2DD00001AC51010D100EE8
:10379000F326000EF422000E0001A96F040E0001B2
:1037A000AA6FF3500001A927F4500001AA230001D9
:1037B000AE51430DF3500001A925D96EF45000011C
:1037C000AA21DA6E0001FA51010D950EF324E16E83
:1037D000010EF420E26EDFCFE7FF0001FA2B0001BB
:1037E000AC2B0001AE51430D0F0EF326000EF42258
:1037F000000EF324D96E040EF420DA6EDE500001C0
:10380000AC5DD8A0C1D70001AE51430D0E0EF3261A
:10381000000EF422000EF324D96E040EF420DA6EAA
:103820000401DFA41ED0FC0E00019D6F000E0001FC
:103830009E6F0001AD510E0D020EF326000EF42214
:10384000000EF32400019F6F020EF4200001A06F10
:10385000010E0001A16F0C0E0001A26FB2EC3AF054
:1038600051D0000E2C6E2C500001AB19FC0BAB1983
:103870002C6E2C8A0001AE51430D0E0EF326000E65
:10388000F422000EF324D96E040EF420DA6E040143
:10389000DFA602D02C8601D02C960001AD510E0D72
:1038A000020EF326000EF422000EF3242D6E020EFB
:1038B000F4202E6E010E2F6E010E306E0001AE51FF
:1038C000430D040EF326000EF422000EF324D96EED
:1038D000040EF420DA6EDECF31F0DDCF32F020EED0
:1038E0002CF000EE7EF0060EDBCFEBFFE806FCE2EC
:1038F000950E0001856F010E0001866FFAC087F0FA
:1039000083EC29F00001AE51430D0E0EF326000E9C
:10391000F422000EF324D96E040EF420DA6E0401B2
:10392000DF9012000001AE51430D0E0EF326000E83
:10393000F422000EF324D96E040EF420DA6E040192
:10394000DFB205D10001AE51430D0E0EF326000E7D
:10395000F422000EF324D96E040EF420DA6E040172
:10396000DFB8F5D00001AD510E0D040EF326000EA8
:10397000F422000EF3240001606F020EF420000117
:10398000616F0001AE51430D060EF326000EF422C6
:10399000000EF3240001626F040EF4200001636F37
:1039A000D7EC3EF00009D8B4D2D0000E0001AC6FC5
:1039B0002DD00001AC51010D100EF326000EF422A3
:1039C000000E0001A96F040E0001AA6FF350000160
:1039D000A927F4500001AA230001AE51430DF35072
:1039E0000001A925D96EF4500001AA21DA6E000168
:1039F000FA51010D950EF324E16E010EF420E26EF2
:103A0000DFCFE7FF0001FA2B0001AC2B0001AE5124
:103A1000430D0F0EF326000EF422000EF324D96E90
:103A2000040EF420DA6EDE500001AC5DD8A0C1D7E0
:103A30000001AE51430D0E0EF326000EF422000ECF
:103A4000F324D96E040EF420DA6E0401DFA41ED034
:103A5000FC0E00019D6F000E00019E6F0001AD5134
:103A60000E0D040EF326000EF422000EF3240001C6
:103A70009F6F020EF4200001A06F010E0001A16FE4
:103A8000000E0001A26FB2EC3AF051D0000E2C6E85
:103A90002C500001AB19FC0BAB192C6E2C8A0001C9
:103AA000AE51430D0E0EF326000EF422000EF32449
:103AB000D96E040EF420DA6E0401DFA602D02C8643
:103AC00001D02C960001AD510E0D040EF326000E10
:103AD000F422000EF3242D6E020EF4202E6E000E42
:103AE0002F6E010E306E0001AE51430D040EF32611
:103AF000000EF422000EF324D96E040EF420DA6EC8
:103B0000DECF31F0DDCF32F020EE2CF000EE7EF093
:103B1000060EDBCFEBFFE806FCE2950E0001856F99
:103B2000010E0001866FFAC087F083EC29F00001D6
:103B3000AE51430D0E0EF326000EF422000EF324B8
:103B4000D96E040EF420DA6E0401DF901200000139
:103B5000AE2BA5D5000E0001AE6F010E0001AE65C3
:103B600001D0D9D00001AE51430D0E0EF326000E48
:103B7000F422000EF324D96E040EF420DA6E040150
:103B8000DFA0C6D00001AE51430D0E0EF326000E8D
:103B9000F422000EF324D96E040EF420DA6E040130
:103BA000DFA2B6D0000E0001AC6F2DD00001AC51E9
:103BB000010D100EF326000EF422000E0001A96F75
:103BC000040E0001AA6FF3500001A927F450000170
:103BD000AA230001AE51430DF3500001A925D96E6F
:103BE000F4500001AA21DA6E0001FA51010D950E80
:103BF000F324E16E010EF420E26EDFCFE7FF000157
:103C0000FA2B0001AC2B0001AE51430D0F0EF32631
:103C1000000EF422000EF324D96E040EF420DA6EA6
:103C2000DE500001AC5DD8A0C1D7000E2C6E2C5028
:103C30000001AB19FC0BAB192C6E0001AE51430D0A
:103C40000E0EF326000EF422000EF324D96E040E9D
:103C5000F420DA6E0401DFA404D02C50FC0B01091F
:103C60002C6E2C8A2C8E0001AE51430D0E0EF326C5
:103C7000000EF422000EF324D96E040EF420DA6E46
:103C80000401DFA602D02C8601D02C96010E306EE6
:103C90000001A8510001D8B407D0010E2F6E000119
:103CA000AD510E0D020E06D0000E2F6E0001AD516B
:103CB0000E0D040EF326000EF422000EF3242D6EDA
:103CC000020EF4202E6E0001AE51430D040EF326B9
:103CD000000EF422000EF324D96E040EF420DA6EE6
:103CE000DECF31F0DDCF32F020EE2CF000EE7EF0B2
:103CF000060EDBCFEBFFE806FCE2950E0001856FB8
:103D0000010E0001866FFAC087F083EC29F01200E3
:103D10000001AE2B22D70001A8510001D8B412D067
:103D2000FC0E00019D6F000E00019E6FA6C09FF06B
:103D3000A7C0A0F0ABC0A1F00C0E0001A26FB2ECC6
:103D40003AF01200FC0E00019D6F000E00019E6F04
:103D5000A4C09FF0A5C0A0F0ABC0A1F0040E00016C
:103D6000A26FB2EC3AF0120081A0F28238A012D019
:103D700001018C5105E1800E01018B5DD8A007D0B7
:103D8000000E01018C6F000E8B6F389003D0010183
:103D90008B4B8C2B3F68000E0001676F010E0001FA
:103DA000676501D012D000016751500D000EF32459
:103DB000D96E030EF420DA6EDF50D8B403D067C09A
:103DC0003FF003D00001672BE9D7020E3F6033D3E9
:103DD000010E0001686F3F50500D010EF326000EDA
:103DE000F422000EF324D96E030EF420DA6E0301E0
:103DF000DFBC03D0000E0001686F000E216E000EC4
:103E0000296E3F50500D020EF326000EF422000ED4
:103E1000F324D96E030EF420DA6EDF50CC0B0001D0
:103E2000666F55D23F50500D060EF326000EF42259
:103E3000000EF324D96E030EF420DA6EDE28D8A427
:103E40000FD03F50500D070EF326000EF422000E47
:103E5000F324D96E030EF420DA6EDE28D8B4218460
:103E6000218E000168510001D8B429D03F50500D77
:103E7000040EF326000EF422000EF324D96E030E76
:103E8000F420DA6EDF502A6E3F50500D050EF326F7
:103E9000000EF422000EF324D96E030EF420DA6E25
:103EA000DF502B6E3F50500D080EF326000EF4220B
:103EB000000EF324226E030EF420236E96D13F50A1
:103EC000500D080EF326000EF422000EF324D96ED6
:103ED000030EF420DA6EDF502A6E3F50500D090EAB
:103EE000F326000EF422000EF324D96E030EF42004
:103EF000DA6EDF502B6E3F50500D0A0EA4D13F50AA
:103F0000500D000EF324D96E030EF420DA6EDF504C
:103F1000EB0F266E3F50500D120ECBD1218E0001BB
:103F200068510001D8B437D03F50500D040EF3262D
:103F3000000EF422000EF324D96E030EF420DA6E84
:103F4000DF502A6E3F50500D050EF326000EF4226E
:103F5000000EF324D96E030EF420DA6EDF502B6EC0
:103F60003F50500D0E0EF326000EF422000EF324E7
:103F7000226E030EF420236E3F50500D000EF324EA
:103F8000D96E030EF420DA6EDF50E70F266E3F5035
:103F9000500D160E8ED13F50500D0E0EF326000E12
:103FA000F422000EF324D96E030EF420DA6EDF50F3
:103FB0002A6E3F50500D0F0EF326000EF422000E15
:103FC000F324D96E030EF420DA6EDF502B6E3F50CF
:103FD000500D100EF326000EF422000EF324226E74
:103FE000030EF420236E3F50500D000EF324D96EC3
:103FF000030EF420DA6EDF50E50F266E3F50500DB1
:10400000180E57D12184218E010E296E3F50500D7C
:10401000040EF326000EF422000EF324D96E030ED4
:10402000F420DA6EDF502A6E3F50500D050EF32655
:10403000000EF422000EF324D96E030EF420DA6E83
:10404000DF502B6E3F50500D060EF326000EF4226B
:10405000000EF324226E030EF420236E3F50500D09
:10406000000EF324D96E030EF420DA6EDF50F50F44
:104070001CD13F50500D060EF326000EF422000E08
:10408000F324D96E030EF420DA6EDE28D8A40FD004
:104090003F50500D070EF326000EF422000EF324BD
:1040A000D96E030EF420DA6EDE28D8B42184218E76
:1040B000010E296E000168510001D8A437D03F508D
:1040C000500D080EF326000EF422000EF324D96ED4
:1040D000030EF420DA6EDF502A6E3F50500D090EA9
:1040E000F326000EF422000EF324D96E030EF42002
:1040F000DA6EDF502B6E3F50500D0A0EF326000E85
:10410000F422000EF324226E030EF420236E3F509F
:10411000500D000EF324D96E030EF420DA6EDF503A
:10412000F10F266E3F50500D0C0EC3D03F50500D76
:10413000040EF326000EF422000EF324D96E030EB3
:10414000F420DA6EDF502A6E3F50500D050EF32634
:10415000000EF422000EF324D96E030EF420DA6E62
:10416000DF502B6E3F50500D080EF326000EF42248
:10417000000EF324226E030EF420236E3F50500DE8
:10418000000EF324D96E030EF420DA6EDF50F30F25
:10419000266E3F50500D0A0E8CD0218E010E296ED6
:1041A000000168510001D8B42FD03F50500D040ECB
:1041B000F326000EF422000EF324D96E030EF42031
:1041C000DA6EDF502A6E3F50500D050EF326000EBA
:1041D000F422000EF324D96E030EF420DA6EDF50C1
:1041E0002B6E3F50500D0D0E60D63F50500D000EFF
:1041F000F324D96E030EF420DA6EDF50ED0F266E35
:104200003F50500D100E55D03F50500D0D0EF3265F
:10421000000EF422000EF324D96E030EF420DA6EA1
:10422000DF502A6E3F50500D0E0EF326000EF42282
:10423000000EF324D96E030EF420DA6EDF502B6EDD
:104240003F50500D0F0EF326000EF422000EF32403
:10425000226E030EF420236E52D63F50500D060EF0
:10426000F326000EF422000EF324D96E030EF42080
:10427000DA6EDE28D8A40FD03F50500D070EF3267B
:10428000000EF422000EF324D96E030EF420DA6E31
:10429000DE28D8B421843F50500D000EF324D96E8F
:1042A000030EF420DA6EDF50F60F266E3F50500DED
:1042B000080EF326000EF422000EF324246E030EE3
:1042C000F420256E19D0CAEC40F0000E1200000157
:1042D0006651080AD8B4C1D7880AD8B493D6080A58
:1042E000D8B4C7D6040AD8B458D7440AD8B49AD593
:1042F000040AD8B413D6E7D73F50500D010EF32669
:10430000000EF422000EF324D96E030EF420DA6EB0
:104310000301DFA613D0CAEC40F0000E1200FC0E21
:1043200021162ED02150FC0B0109216E29D0030E3D
:10433000211226D0CAEC40F0000E12003F50500D62
:10434000010EF326000EF422000EF324D96E030EA4
:10435000F420DA6EDF50070B0001606F616B000123
:104360006151000AD8A4E6D700016051000AD8B410
:10437000DED7010AD8B4D3D7020AD8B4D3D7DAD754
:10438000FF0E0001606FFF0E0001616F3F50500D86
:10439000000EF324D96E030EF420DA6EDF50000114
:1043A000626F636B0001605100016227000161517F
:1043B00000016323000E0001646F030E0001656FAE
:1043C000000162510001642700016351000165236F
:1043D0003F50500DF35000016425D96EF450000198
:1043E0006521DA6EDF50286E3F50500D000EF32429
:1043F000D96E030EF420DA6EDF500001606F3F507B
:10440000500D000E0001616F030E0001626FF3504A
:1044100000016127F4500001622300016051000196
:104420006125D96E0001000E00016221DA6EDF50B5
:10443000276E010E1200000E1200010E0201C36F62
:1044400006EC3AF0898E898C8B84040E0101F419F4
:104450000101F511D8A40ED0C70E00018F6F0F0E09
:104460000001906F000E0001916F010E0001926F2C
:1044700082EC3EF0D6EC36F0000ED3EC34F00101C5
:10448000FF51AAEC40F00009D8B41200000E56EC1F
:1044900040F00101F4510101F511D8B454D055D2C6
:1044A000000ED3EC34F0000E0001936F000E0001FB
:1044B000946F000E956F000E966F000E976F000EB2
:1044C000E2EC37F0B4EC3FF08C0E00016C6F020EA2
:1044D00000016D6F7C0E00016E6F0F0E00016F6F9B
:1044E000FDC070F00001716BFCC072F00001736BD5
:1044F000FFC174F00001756BE6EC15F09C0E000135
:104500006C6F020E00016D6F930E00016E6F0F0E47
:1045100000016F6FFFC070F00001716BFEC072F0A0
:104520000001736BE6EC15F007EC3BF006D01DECD8
:1045300041F00009D8A439EC41F002010CAFF7D7E3
:10454000000E0201C36F0201C305D8A41200A8D750
:10455000000ED3EC34F0FFC1B8F2F00E0201B82720
:10456000000E0201B96F000EBA6F010EBB6F000E94
:10457000BC6F0201B82B06D0D8900201B937BA3708
:10458000BB37BC370201B82FF7D7B9C2DAF0BAC2CD
:10459000DBF0BBC2DCF0BCC2DDF00A0EB1EC32F0E5
:1045A0000201C66F0201C6510201D8B4C0D1000E8B
:1045B0000201C56FB2D1000E0201C26F0201C551E6
:1045C0000201D8B479D0000E0201C26F000E0201C0
:1045D000C46F42D00201C4510F0D0A0EF326000E23
:1045E000F422000EF324D96E010EF420DA6E0201DB
:1045F000C5510F0D0A0EF326000EF422000EF3240F
:10460000E16E010EF420E26EDE50E618D8A422D04E
:104610000201C4510F0D090EF326000EF422000E04
:10462000F324D96E010EF420DA6E0201C5510F0D8C
:10463000090EF326000EF422000EF324E16E010EA3
:10464000F420E26EDE50E618D8A404D0010E020178
:10465000C26F08D00201C42B0201C5510201C45D22
:10466000D8A0B8D70201C205D8A426D00201C551EE
:104670000201B86FB96BFF0E0201BA6FFF0E0201A3
:10468000BB6F0201C6510201BC6FBD6B0201BA5182
:104690000201BC270201BB510201BD230201B85136
:1046A0000201BC1905E10201B9510201BD19D8A4EA
:1046B00032D10201C5692FD1000E0201C16F0B0E6C
:1046C0000001FA6F000E0201C46F40D00201C45114
:1046D0000F0D0A0EF326000EF422000EF324D96EFD
:1046E000010EF420DA6E0201C5510F0D0A0EF326F9
:1046F000000EF422000EF324E16E010EF420E26EAF
:10470000DE50E618D8A420D00201C4510F0D0A0EC5
:10471000F326000EF422000EF324D96E010EF420CD
:10472000DA6E0201C5510F0D0A0EF326000EF422B7
:10473000000EF324E16E010EF420E26EDE50E61866
:10474000D8A402D00201C12B0201C42B0201C65120
:104750000201C45DD8A0BAD7010E0201C16599D08B
:10476000000E0201BE6F000E0201BF6F0B0E0001B2
:10477000FA6F0001FA51010D950EF324D96E010E66
:10478000F420DA6E040EDF6E0001FA2B0201C5512F
:104790000F0D0A0EF326000EF422000EF324D96E3C
:1047A000010EF420DA6E0001FA51010D950EF3248A
:1047B000E16E010EF420E26EDFCFE7FF0001FA2B7D
:1047C0000201C5510F0D090EF326000EF422000E52
:1047D000F324D96E010EF420DA6E0001FA51010DB6
:1047E000950EF324E16E010EF420E26EDFCFE7FFB9
:1047F0000001FA2B000E66EC38F0000E0201C46FC7
:1048000042D00201C4510F0D0A0EF326000EF4220D
:10481000000EF324D96E010EF420DA6E0201C551A8
:104820000F0D0A0EF326000EF422000EF324E16EA3
:10483000010EF420E26EDE50E618D8A422D0020168
:10484000C4510F0D090EF326000EF422000EF324BE
:10485000D96E010EF420DA6E0201C5510F0D090E5A
:10486000F326000EF422000EF324E16E010EF42074
:10487000E26EDE50E618D8A404D00201BF2BC4C2F9
:10488000BEF20201C42B0201C6510201C45DD8A0D0
:10489000B8D7000E0101EB6F0201C55118EC27F0EB
:1048A0000201C06F0201C029D8B4E9D5000E02018F
:1048B000C36F0B0E0001FA6F0001FA51010D950E46
:1048C000F324D96E010EF420DA6E050EDF6E0001BE
:1048D000FA2B0001FA51010D950EF324D96E010E49
:1048E000F420DA6EFDC0DFFF0001FA2B0001FA515F
:1048F000010D950EF324D96E010EF420DA6EFCC082
:10490000DFFF0001FA2B000E66EC38F00201C35104
:104910000201D8B408D00201C52B0201C651020120
:10492000C55DD8A048D6000E0201C36F0ED05B0E45
:1049300000018F6F0F0E0001906F000E0001916F4C
:10494000000E0001926F82EC3EF00201C305D8A474
:104950001200FED50001A851070B0001AD6F000148
:10496000AD510001FF19D8A444D0800E0001A76505
:1049700013D0A5C06AF0A6C06BF0A70E00016C6F43
:10498000000E00016D6F010E00016E6FA9C06FF087
:10499000000E59EC31F01200000E2C6E2C8A000132
:1049A000A9B102D02C9601D02C86A7C03CF0A8C09B
:1049B0003DF0010E2F6E010E306E3C0E2D6E000E7E
:1049C0002E6EFCC031F0FDC032F020EE2CF000EE77
:1049D0007EF0060EDBCFEBFFE806FCE2950E000151
:1049E000856F010E0001866FFAC087F083EC29F015
:1049F0001200ADC0AAF0010E0001AB6F0001AA2B9E
:104A000003D00001D890AB370001AA2FFAD70001DC
:104A1000AB51010192150009D8B480D00001AD510D
:104A2000010D660EF324D96E010EF420DA6E020E2B
:104A3000DF642DD00001AD51010D660EF324D96E57
:104A4000010EF420DA6E000EDF6EADC0AAF0010E8A
:104A50000001AB6F0001AA2B03D00001D890AB3747
:104A60000001AA2FFAD70001AB51FF0A01019217EA
:104A70000001AD51010D6E0EF324D96E010EF4202C
:104A8000DA6E000EDF6E42EC36F0000E1200000E01
:104A90002C6E2C8A0001A9B102D02C9601D02C8654
:104AA000000E3C6EADC03DF0010E2F6E010E306E5B
:104AB0003C0E2D6E000E2E6EFCC031F0FDC032F0AB
:104AC00020EE2CF000EE7EF0060EDBCFEBFFE806CA
:104AD000FCE2950E0001856F010E0001866FFAC0A1
:104AE00087F083EC29F00009D8A40BD00001AD5168
:104AF000010D660EF324D96E010EF420DA6EDF2A62
:104B0000C4D70001AD51010D660EF324D96E010E1C
:104B1000F420DA6E000EDF6E010E1200000E0001AE
:104B2000AE6F070E0001AE6501D0DDD00001AE51C1
:104B3000010D6E0EF324D96E010EF420DA6EDF50F3
:104B40000001AA6FADC0ABF0010E0001AC6F000117
:104B5000AB2B03D00001D890AC370001AB2FFAD7B4
:104B60000001AC510001AA150009D8B4B9D0000168
:104B7000AE51010D660EF324D96E010EF420DA6EEB
:104B8000020EDF6465D00001AE51010D660EF32404
:104B9000D96E010EF420DA6E000EDF6EAEC0AAF000
:104BA000010E0001AB6F0001AA2B03D00001D890C9
:104BB000AB370001AA2FFAD70001AB51FF0A010160
:104BC00092170001AE51010D6E0EF324D96E010E45
:104BD000F420DA6E000EDF6E3A50D8B403D042EC07
:104BE00036F034D0000E0001FA6F0001FA51010DC9
:104BF000950EF324D96E010EF420DA6E070EDF6EE7
:104C00000001FA2B0001FA51010D950EF324D96E23
:104C1000010EF420DA6E3EC0DFFF0001FA2B010125
:104C2000E769E869E70E00019D6F010E00019E6FC4
:104C3000000E00019F6F000E0001A06F010E000129
:104C4000A16F000E0001A26FB2EC3AF0000E12004C
:104C5000000E2C6E2C8A0001A9B102D02C9601D036
:104C60002C86000E3C6EAEC03DF0010E2F6E010E84
:104C7000306E3C0E2D6E000E2E6EFCC031F0FDC06D
:104C800032F020EE2CF000EE7EF0060EDBCFEBFFD4
:104C9000E806FCE2950E0001856F010E0001866FAB
:104CA000FAC087F083EC29F00009D8A40CD00001E9
:104CB000AE51010D660EF324D96E010EF420DA6EAA
:104CC000DF2A000E12000001AE51010D660EF32422
:104CD000D96E010EF420DA6E000EDF6E010E1200A6
:104CE0000001AE2B1ED7020E3A18D8B469D0000EC0
:104CF0002C6E2C8A0001A9B102D02C9601D02C86F2
:104D00003A04D8B42ED0000E0001AE6F070E000199
:104D1000AE6501D01FD001019251D8B418D0AEC0F9
:104D2000AAF0010E0001AB6F000E0001AC6F000194
:104D3000AA2B04D0D8900001AB37AC370001AA2FC2
:104D4000F9D70001AB510001AC11D8A403D0000188
:104D5000AE2BDCD7080E0001AE6103D0AEC03DF033
:104D600002D0000E3D6E000E3C6E010E2F6E010E45
:104D7000306E3C0E2D6E000E2E6EFCC031F0FDC06C
:104D800032F020EE2CF000EE7EF0060EDBCFEBFFD3
:104D9000E806FCE2950E0001856F010E0001866FAA
:104DA000FAC087F083EC29F00009D8A404D00101EF
:104DB000662B000E1200000E0101666F010E12003C
:104DC000000E2C6E2C8A0001A9B102D02C9601D0C5
:104DD0002C86ADC03DF0000E3C6E010E2F6E010E14
:104DE000306E3C0E2D6E000E2E6EFCC031F0FDC0FC
:104DF00032F020EE2CF000EE7EF0060EDBCFEBFF63
:104E0000E806FCE2950E0001856F010E0001866F39
:104E1000FAC087F083EC29F00009D8A404D001017E
:104E2000662B000E1200000E0101666F010E1200CB
:104E30000201B76F030E0201B56F0101EB05D8A4A3
:104E400014D005EC2EF006D01DEC41F00009D8A4DA
:104E500039EC41F00101C8B3F7D70101C8A103D073
:104E60000101C9511200FF0E12000101EB510101B5
:104E7000D8A447D20201B729D8B406D02AD002015B
:104E8000B52F02D0FF0E12003EC0ECF1010E010161
:104E9000ED6FEE6BEF6BF06B0101EC2B06D0D89051
:104EA0000101ED37EE37EF37F0370101EC2FF7D77F
:104EB000EDC1DAF0EEC1DBF0EFC1DCF0F0C1DDF006
:104EC0000A0EB1EC32F00009D8B4D9D7000E0201B5
:104ED000B76F0201B7510F0D090EF326000EF42231
:104EE000000EF324D96E010EF420DA6EDECFE7F166
:104EF000DDCFE8F10201B7510F0D010EF326000ED0
:104F0000F422000EF324D96E010EF420DA6EDF5085
:104F10003C6E0201B7510F0D020EF326000EF42273
:104F2000000EF324D96E010EF420DA6EDF503D6ED0
:104F300083EC3CF00001FB6F0001FB29D8A40AD0F0
:104F400094EC3FF00001FB6F0001FB29D8A402D0D4
:104F5000FF0E12000001FB510E0D0C0EF326000E89
:104F6000F422000EF324D96E020EF420DA6E000E45
:104F7000DF6E0201B7510F0D090EF326000EF42269
:104F8000000EF324D96E010EF420DA6E0001FB51FD
:104F90000E0D000EF324E16E020EF420E26EDECF61
:104FA000E6FFDDCFE5FF0201B7510F0D010EF3263D
:104FB000000EF422000EF324D96E010EF420DA6EF6
:104FC0000001FB510E0D020EF326000EF422000E1E
:104FD000F324E16E020EF420E26EDFCFE7FF020160
:104FE000B7510F0D020EF326000EF422000EF3242B
:104FF000D96E010EF420DA6E0001FB510E0D030E86
:10500000F326000EF422000EF324E16E020EF420CB
:10501000E26EDFCFE7FF0001FB510E0D0C0EF32611
:10502000000EF422000EF324D96E020EF420DA6E84
:105030000201DF86000E0201B66F0201B6510201C5
:10504000D8A441D00201B651010D0E0EF326000E78
:10505000F422000E0101EC6F010E0101ED6FF3501F
:105060000101EC27F4500101ED230201B7510F0DAE
:10507000F3500101EC25D96EF4500101ED21DA6EF7
:105080000201B651010D0D0EF326000EF422000EA2
:105090000101EE6F020E0101EF6FF3500101EE27E7
:1050A000F4500101EF230001FB510E0DF3500101FB
:1050B000EE25E16EF4500101EF21E26EDFCFE7FF54
:1050C0000201B62BBAD70001FB510E0D0C0EF326D0
:1050D000000EF422000EF324D96E020EF420DA6ED4
:1050E0000201DF820001FB510E0D0C0EF326000EB3
:1050F000F422000EF324D96E020EF420DA6E0201BF
:10510000DF8A0001FB510E0D0C0EF326000EF42277
:10511000000EF324D96E020EF420DA6E0201DF8055
:105120000201B7510F0D000EF324D96E010EF420C9
:10513000DA6EDF50AAEC40F00001FB510E0D000EBC
:10514000F324D96E020EF420DA6EDECFFCF0DDCF50
:10515000FDF03C683D683C0E0001656F000E0001EB
:10516000666FFC0E0001676F000E0001686FB7EC00
:105170003DF0000E0001FA6F0001FA51010D950E8D
:10518000F324D96E010EF420DA6E010EDF6E0001F9
:10519000FA2B0001FA51010D950EF324D96E010E80
:1051A000F420DA6E91C1DFFF0001FA2B000E02013C
:1051B000B66F0201B6510201D8A419D00201B6514E
:1051C000010D360EF324D96E000EF420DA6E0001C4
:1051D000FA51010D950EF324E16E010EF420E26EFA
:1051E000DFCFE7FF0001FA2B0201B62BE2D7000167
:1051F000FB510E0D000EF32400019D6F020EF420F2
:1052000000019E6F0001FB510E0D020EF326000EF1
:10521000F422000EF32400019F6F020EF42000011F
:10522000A06F010E0001A16F080E0001A26FB2EC89
:105230003AF07FEC3DF060C0ADF261C0AEF262C00A
:10524000AFF263C0B0F24AD01DEC41F00009D8A41F
:1052500039EC41F07FEC3DF060C0B1F261C0B2F2D8
:1052600062C0B3F263C0B4F2ADC2ECF1AEC2EDF114
:10527000AFC2EEF1B0C2EFF10101EC1FED1FEE1F66
:10528000EF1FEC2B000EED23EE23EF230201B151B3
:105290000101EC250101F06F0201B2510101ED2184
:1052A0000101F16F0201B3510101EE210101F26F21
:1052B0000201B4510101EF210101F36F0101F3512A
:1052C0000BE1210E0101F05DA10E0101F159070E64
:1052D0000101F259D8A002D0FF0E12000001FB51CB
:1052E0000E0D0C0EF326000EF422000EF324D96EE0
:1052F000020EF420DA6E0201DFA8A6D70001FB51EE
:105300001200FF0E1200000E00019C6F000E000143
:105310009B6F00017EA503D0010E0001816F00018B
:105320007EA703D0000E0001826F00017E51030BA7
:10533000E806D8A402D0030E07D000017E51030B6B
:105340000009D8A403D0010E0001996F0101E351B7
:105350000001831914E10101E45100018419D8A46A
:105360000ED00101E32904E10101E429D8B407D0FA
:10537000050E00019A6F0001998D010E04D0070EF1
:1053800000019A6F000E0001986F00018151D8B49E
:1053900002D0020E01D0080E00019A2700018251AE
:1053A000D8B402D0020E01D0080E00019A270001E5
:1053B0007EAB05D000017EB502D00001998B0001C3
:1053C0007E51030B030AD8A40ED0000E0001996F82
:1053D000070E00019A6F000E0001986F010E000188
:1053E000826F00017E9B9CC062F00001636B9AC0DB
:1053F00064F051EC3EF000019C2B9CC062F0000177
:10540000636B00019A51000187250001646F51EC24
:105410003EF000019C2B9CC062F00001636B99C0C0
:1054200064F051EC3EF000019C2B00017E51030B17
:10543000030AD8A416D09CC062F00001636B800EF2
:105440000001646F51EC3EF000019C2B9CC062F0A7
:105450000001636B8EC164F051EC3EF001018E2BB4
:105460009CD000018151D8B40ED000018251D8B433
:105470000AD09CC062F00001636B880E0001646F6B
:1054800051EC3EF02DD000018151D8B40ED0000176
:105490008251D8A40AD09CC062F00001636BC80E90
:1054A0000001646F51EC3EF01BD000018151D8A483
:1054B0000ED000018205D8A40AD09CC062F0000181
:1054C000636B8C0E0001646F51EC3EF009D09CC000
:1054D00062F00001636BCC0E0001646F51EC3EF092
:1054E00000019C2B9CC062F00001636B8EC164F0D4
:1054F00051EC3EF001018E2B00019C2B9CC062F010
:105500000001636B83C064F051EC3EF000019C2B02
:105510009CC062F00001636B84C064F051EC3EF00B
:1055200000019C2B00017EA515D09CC062F00001FB
:10553000636BFF0E0001646F51EC3EF000019C2B89
:105540009CC062F00001636BFF0E0001646F51ECC0
:105550003EF023D000018151D8B422D09CC062F02B
:105560000001636B7FC0D9FF80C0DAFFDF5000010C
:10557000646F51EC3EF000019C2B9CC062F0000176
:10558000636B000120EE01F07F51D9268051DA22B1
:10559000DF500001646F51EC3EF000019C2B21D0E4
:1055A000000E00019B6F070E00019B6501D019D012
:1055B0009CC062F00001636B00019B51010DF35030
:1055C00000017F25D96EF45000018021DA6EDF5092
:1055D0000001646F51EC3EF000019C2B00019B2BFD
:1055E000E2D7000198510001D8A414D09CC062F009
:1055F0000001636BE3C164F051EC3EF000019C2BB1
:105600009CC062F00001636BE4C164F051EC3EF0B9
:1056100000019C2B00018251D8B415D09CC062F0CF
:105620000001636BE5C164F051EC3EF000019C2B7E
:105630009CC062F00001636BE6C164F051EC3EF087
:1056400000019C2B21D0000E00019B6F070E000172
:105650009B6501D019D09CC062F00001636B000112
:105660009B51010DF35001018725D96EF4500101C2
:105670008821DA6EDF500001646F51EC3EF00001CA
:105680009C2B00019B2BE2D7000E00019B6F18D0D2
:105690009CC062F00001636B00019B51010DF3504F
:1056A00000018525D96EF45000018621DA6EDF50A5
:1056B0000001646F51EC3EF000019C2B00019B2B1C
:1056C0000001875100019B5DD8A0E2D7388000011E
:1056D0007EAB08D000017EB505D0050E00019B6FA2
:1056E000388204D0010E00019B6F38929BC062F09B
:1056F000370E3DEC40F07FEC3DF060C090F061C0B3
:1057000091F062C092F063C093F081A0F28238B051
:1057100005D038A457D03894000E12007FEC3DF02D
:1057200060C094F061C095F062C096F063C097F0DD
:1057300090C088F091C089F092C08AF093C08BF03D
:105740000001881F891F8A1F8B1F882B000E892349
:105750008A238B23000194510001882500018C6F5E
:10576000000195510001892100018D6F00019651C2
:1057700000018A2100018E6F0001975100018B21E9
:1057800000018F6F00018F5100018E1108E1210E81
:1057900000018C5D4E0E00018D59D8A0B6D7F9ECF2
:1057A0002FF0E50E0001656F010E0001666FE30E3C
:1057B0000001676F010E0001686FB7EC3DF0389093
:1057C000000E1200010E120001019051D8B40BD04E
:1057D0000101A051D8B407D0338639C0F6F1060EC6
:1057E0000001F66F04D0020E0001F66F339600013F
:1057F000DC510001D8B45BD1000E0001F76F070E39
:105800000001F76501D019D00001F751010DF350E7
:105810000001DA25D96EF4500001DB21DA6E0001B7
:10582000F751010D760EF324E16E010EF420E26EC5
:10583000DFCFE7FF0001F72BE2D7E4EC38F00001FF
:10584000F86F0001F829D8A442D040C095F1020EAB
:105850000101966F01019769010198690101996938
:1058600001019A69FCC09BF1FDC09CF1FEC09DF155
:10587000FFC09EF139C09FF1392A000E2C6E2C8A90
:105880000001DDB102D02C9601D02C86DAC02DF0BB
:10589000DBC02EF0000E2F6E010E306EFCC031F01A
:1058A000FDC032F0339620EE2CF000EE7EF0060EB6
:1058B000DBCFEBFFE806FCE2950E0001856F010EE1
:1058C0000001866FFAC087F083EC29F01200000116
:1058D000F8510E0D0C0EF326000EF422000EF324E8
:1058E000D96E020EF420DA6E0201DFA6AED70101F6
:1058F0009051D8B411D00001F8510E0D020EF326CC
:10590000000EF422000EF324D96E020EF420DA6E9B
:10591000DECF89F1DDCF8AF1040E0101956FF6C06B
:1059200096F10001F8510E0D000EF324D96E020E0F
:10593000F420DA6EDF500101976F0001F8510E0D6F
:10594000010EF326000EF422000EF324D96E020E8F
:10595000F420DA6EDF500101986F0001F8510E0D4E
:10596000020EF326000EF422000EF324D96E020E6E
:10597000F420DA6EDF500101996F0001F8510E0D2D
:10598000030EF326000EF422000EF324D96E020E4D
:10599000F420DA6EDF5001019A6FFCC09BF1FDC06C
:1059A0009CF1FEC09DF1FFC09EF139C09FF1392AE4
:1059B0000001F8510E0D000EF324D96E020EF420F2
:1059C000DA6EDECFA5F0DDCFA6F00001F8510E0DA6
:1059D000020EF326000EF422000EF324D96E020EFE
:1059E000F420DA6EDECFA7F0DDCFA8F0DDC0A9F09D
:1059F000AAEC24F00009D8A402D03396120033A6F2
:105A000012007FEC3DF060C0E6F061C0E7F062C0DC
:105A1000E8F063C0E9F01DEC41F00009D8A439ECCE
:105A200041F033A612007FEC3DF060C0EAF061C0A7
:105A3000EBF062C0ECF063C0EDF0E6C0DEF0E7C072
:105A4000DFF0E8C0E0F0E9C0E1F00001DE1FDF1F99
:105A5000E01FE11FDE2B000EDF23E023E123000126
:105A6000EA510001DE250001E26F0001EB51000167
:105A7000DF210001E36F0001EC510001E021000192
:105A8000E46F0001ED510001E1210001E56F00012B
:105A9000E5510BE1210E0001E25DA10E0001E35989
:105AA000070E0001E459D8A0B6D733961200040EB1
:105AB0000101956FF6C096F1FCC097F1FDC098F119
:105AC000DAC0D9FFDBC0DAFFDF500101996F0001B6
:105AD00020EE01F0DA51D926DB51DA22DF50010144
:105AE0009A6FFCC09BF1FDC09CF1FEC09DF1FFC010
:105AF0009EF139C09FF1392ADAC0D9FFDBC0DAFF45
:105B0000DF500101896F000120EE01F0DA51D92642
:105B1000DB51DA22DF5001018A6FDAC0D9FFDBC026
:105B2000DAFFDF503C6E000120EE01F0DA51D92699
:105B3000DB51DA22DF503D6EFCC0A5F0FDC0A6F0BF
:105B40003CC0A7F03DC0A8F0DDC0A9F0AAEC24F04D
:105B50000009D8A402D03396120033A612007FECBD
:105B60003DF060C0EEF061C0EFF062C0F0F063C0E5
:105B7000F1F01DEC41F00009D8A439EC41F033A656
:105B800012007FEC3DF060C0F2F061C0F3F062C043
:105B9000F4F063C0F5F0EEC0DEF0EFC0DFF0F0C06F
:105BA000E0F0F1C0E1F00001DE1FDF1FE01FE11FA8
:105BB000DE2B000EDF23E023E1230001F251000180
:105BC000DE250001E26F0001F3510001DF21000139
:105BD000E36F0001F4510001E0210001E46F0001D6
:105BE000F5510001E1210001E56F0001E5510BE1F4
:105BF000210E0001E25DA10E0001E359070E000134
:105C0000E459D8A0B6D7339612000101C891020E0C
:105C10003A18D8A470D10101C8B351D07FEC3DF03F
:105C200060C0DFF161C0E0F162C0E1F163C0E2F1A8
:105C3000000E0101CB6F000ECA6F000E0001F96F5C
:105C4000070E0001F96501D017D00001F951010DCF
:105C5000F70EF324D96E010EF420DA6E0001F9512B
:105C6000010DCC0EF324E16E010EF420E26EDFCFC5
:105C7000E7FF0001F92BE4D70101C8830101C891B6
:105C8000000E0001F96F0001F9510001D8A41200C3
:105C90000001F951010D360EF324D96E000EF420E7
:105CA000DA6E0001F951010DD40EF324E16E010EFC
:105CB000F420E26EDFCFE7FF0001F92BE4D701010A
:105CC000CA510101CB11D8B412000001FE510101EB
:105CD000CA1906E10001FF510101CB19D8B4120025
:105CE0000B0E0001FA6F0001FA51010D950EF3241D
:105CF000D96E010EF420DA6E000EDF6E0001FA2B71
:105D00000001FA51010D950EF324D96E010EF42015
:105D1000DA6E110EDF6E0001FA2B000E0001F96F32
:105D2000070E0001F96501D019D00001F951010DEC
:105D3000F70EF324D96E010EF420DA6E0001FA5149
:105D4000010D950EF324E16E010EF420E26EDFCF1B
:105D5000E7FF0001FA2B0001F92BE2D70001FA510D
:105D6000010D950EF324D96E010EF420DA6EFEC0FB
:105D7000DFFF0001FA2B0001FA51010D950EF3240B
:105D8000D96E010EF420DA6EFFC0DFFF0001FA2B9E
:105D9000000E0001F96F0001F9510001D8A419D0DB
:105DA0000001F951010D360EF324D96E000EF420D6
:105DB000DA6E0001FA51010D950EF324E16E010E29
:105DC000F420E26EDFCFE7FF0001FA2B0001F92B90
:105DD000E2D7000E0001F96F070E0001F96501D04E
:105DE00017D00001F951010DCC0EF324D96E010E2C
:105DF000F420DA6E0001F951010D760EF324E16E04
:105E0000010EF420E26EDFCFE7FF0001F92BE4D7AB
:105E1000CAC13CF0CBC13DF083EC3CF00101C96F3D
:105E20000101C929D8B411D00101C9510E0D0C0EC0
:105E3000F326000EF422000EF324D96E020EF42095
:105E4000DA6EDF500101936F07D08C0E0101936F62
:105E50003CBE02D001019381FCC0E7F1FDC0E8F136
:105E60005DEC37F00101C96F000E0001F96F000110
:105E7000F9510001D8A42CD00001F951010DD40E24
:105E8000F324D96E010EF420DA6E0001F951010DF0
:105E90000D0EF326000EF422000E0101E96F020E32
:105EA0000101EA6FF3500101E927F4500101EA23EF
:105EB0000101C9510E0DF3500101E925E16EF450C5
:105EC0000101EA21E26EDFCFE7FF0001F92BCFD716
:105ED000CA0E0001DA6F010E0001DB6F000E000137
:105EE000DC6F000E0001DD6FE4EC2BF00101C893C4
:105EF0000101C88112007FEC3DF060C0DFF161C09C
:105F0000E0F162C0E1F163C0E2F1000E3D6E000E0F
:105F10003C6E0B0E0001FA6F0001FA51010D950E57
:105F2000F324D96E010EF420DA6E000EDF6E00014C
:105F3000FA2B0001FA51010D950EF324D96E010ED2
:105F4000F420DA6E100EDF6E0001FA2B000E000155
:105F5000F96F070E0001F96501D019D00001F95160
:105F6000010DF70EF324D96E010EF420DA6E000154
:105F7000FA51010D950EF324E16E010EF420E26E4C
:105F8000DFCFE7FF0001FA2B0001F92BE2D7000E6B
:105F90000001F96F0001F9510001D8A419D00001E6
:105FA000F951010D360EF324D96E000EF420DA6E8D
:105FB0000001FA51010D950EF324E16E010EF4205B
:105FC000E26EDFCFE7FF0001FA2B0001F92BE2D7E9
:105FD0003C0E0001DA6F000E0001DB6F000E0001C5
:105FE000DC6F000E0001DD6FE4EC2BF00101C883D3
:105FF00012008C90030E0001736F000E746F000E80
:10600000756F000E766F22D09A0E00016B6F020E34
:106010006C6F000E6D6F000E6E6F00016B07000E4F
:106020006C5B6D5B6E5B00016B29F7E100016C2915
:10603000F4E100016D29F1E100016E29D8A4EDD74A
:1060400000017307000E745B755B765B0001735192
:10605000000174110001751100017611D8A4D4D784
:106060008C800A0E0001776F000E786F000E796F3A
:10607000000E7A6F22D09A0E00016F6F020E706FC1
:10608000000E716F000E726F00016F07000E705BE3
:10609000715B725B00016F29F7E100017029F4E187
:1060A00000017129F1E100017229D8A4EDD70001A6
:1060B0007707000E785B795B7A5B0001775100010E
:1060C00078110001791100017A11D8A4D4D7070EF4
:1060D0000001626F550E3DEC40F0540E08EC40F0AC
:1060E00000017D6F7DC06AF0070E00016A17D8A419
:1060F000F4D7000E00017C6F000E7B6FE80E0001EC
:106100007B5D030E00017C59D8B004D000017B4BAD
:106110007C2BF4D7010E0001626F1B0E3DEC40F0AA
:10612000FF0E0001626F070E3DEC40F0FF0E000114
:10613000626F090E3DEC40F0FF0E0001626F030E2E
:106140003DEC40F0FF0E0001626F050E3DEC40F0AB
:10615000000E00017D6F070E00017D6501D018D093
:1061600000017D51010DF35001018725D96EF450D6
:1061700001018821DA6EDF500001626F00017D515C
:10618000020DF3500B0F3DEC40F000017D2BE3D7E7
:10619000020E0001636F020E626F800E0001646FD9
:1061A00051EC3EF0020E0001636F030E626F000EB1
:1061B0000001646F51EC3EF0020E0001636F060EA9
:1061C000626F900E0001646F51EC3EF0020E000110
:1061D000636F070E626F800E0001646F51EC3EF03A
:1061E000020E0001636F080E626F100E0001646FF3
:1061F00051EC3EF0020E0001636F200E626F210E23
:106200000001646F51EC3EF0800E0001626F750E6C
:106210003DEC40F0400E0001626F7D0E3DEC40F021
:10622000600E0001626F7F0E3DEC40F0980E0001A1
:10623000626F310E3DEC40F0950E0001626F5D0E15
:106240003DEC40F0020E0001636F0F0E626FEEEC4A
:106250003DF000017D6F00017D51A00BA00AD8A484
:10626000F1D7E60E0001626F650E3DEC40F0B90E0D
:106270000001626F250E3DEC40F0020E0001636FDD
:10628000000E626F030E0001646F51EC3EF0020ECF
:106290000001636F010E626F020E0001646F51EC2A
:1062A0003EF0000E0001686F01018F51ADEC3EF031
:1062B00012000001726F000E0001746F010E0001E8
:1062C000746501D04CD100017451430D0E0EF326BC
:1062D000000EF422000EF324D96E040EF420DA6EC0
:1062E0000401DFB039D100017451430D0E0EF326C5
:1062F000000EF422000EF324D96E040EF420DA6EA0
:10630000000EDF6E00017451430D0E0EF326000ED9
:10631000F422000EF324D96E040EF420DA6E00018C
:1063200072B103D00401DF9202D00401DF820001C8
:106330007451430D0E0EF326000EF422000EF324CA
:10634000D96E040EF420DA6E00016FB103D004019F
:10635000DF9602D00401DF8600017451430D0E0E5A
:10636000F326000EF422000EF324D96E040EF4205E
:10637000DA6E0401DF8000017451430D0E0EF32626
:10638000000EF422000EF324D96E040EF420DA6E0F
:1063900000016EB103D00401DF9802D00401DF8850
:1063A00000016E510001D8A43BD0000172510001E0
:1063B000D8A464D0000E0001736F070E000173654E
:1063C00001D05CD000017351010DF35000016C2528
:1063D000D96EF45000016D21DA6E00017351010D88
:1063E000060EF326000EF422000E0001706F040E5C
:1063F0000001716FF35000017027F4500001712308
:1064000000017451430DF35000017025E16EF4500A
:1064100000017121E26EDFCFE7FF0001732BCDD7C2
:10642000000172510001D8A429D06CC0D9FF6DC001
:10643000DAFF00017451430D060EF326000EF4221C
:10644000000EF324E16E040EF420E26EDFCFE7FFCE
:10645000000120EE01F06C51D9266D51DA220001C5
:106460007451430D070EF326000EF422000EF324A0
:10647000E16E040EF420E26EDFCFE7FF00017451FD
:10648000430D040EF326000EF422000EF324D96E01
:10649000040EF420DA6E6AC0DEFF6BC0DDFF00017F
:1064A0007451430D0F0EF326000EF422000EF32458
:1064B000D96E040EF420DA6EFAC0DFFF000E000180
:1064C000736F2BD000017351010D950EF324D96E1B
:1064D000010EF420DA6E00017351010D100EF32647
:1064E000000EF422000E0001706F040E0001716FA7
:1064F000F35000017027F450000171230001745122
:10650000430DF35000017025E16EF450000171213C
:10651000E26EDFCFE7FF0001732B0001FA510001AB
:10652000735DD8A0CFD77FEC3DF000017451430DCF
:10653000000EF324D96E040EF420DA6E000160C060
:10654000DEFF000161C0DEFF000162C0DEFF00016E
:1065500063C0DEFF010E12000001742BAFD6000EE7
:1065600012000001F76F010E0001EB6F000EEC6FDF
:10657000000EED6F000EEE6F3EC0F8F0000E000151
:10658000F96F030E0001F96501D00ED00001F95139
:106590000F0D000EF324D96E010EF420DA6EFF0EFB
:1065A000DF6E0001F92BEDD7000E356E3380000E43
:1065B0000001F96FE5D0F9C0DEF0EBC0DFF0ECC010
:1065C000E0F0EDC0E1F0EEC0E2F00001DE2B06D01D
:1065D000D8900001DF37E037E137E2370001DE2FE6
:1065E000F7D70001DA510001DF150001E36F000168
:1065F000DB510001E0150001E46F0001DC510001F6
:10660000E1150001E56F0001DD510001E215000117
:10661000E66F000E0001E3150001E76FF80E0001C0
:10662000E4150001E86FFF0E0001E5150001E96FB8
:10663000070E0001E6150001EA6F0001E7510001B5
:10664000E8110001E9110001EA11D8B497D0000166
:10665000F951AAEC40F0000E0001FA6F0001FA5166
:10666000010D950EF324D96E010EF420DA6E070E9B
:10667000DF6E0001FA2B0001FA51010D950EF32493
:10668000D96E010EF420DA6E3EC0DFFF0001FA2B56
:106690000101E769E869E70E00019D6F010E000145
:1066A0009E6F000E00019F6F000E0001A06F010E93
:1066B0000001A16F000E0001A26FB2EC3AF07FEC76
:1066C0003DF060C0EFF061C0F0F062C0F1F063C077
:1066D000F2F01DEC41F00009D8A439EC41F07FEC58
:1066E0003DF060C0F3F061C0F4F062C0F5F063C04B
:1066F000F6F0EFC0DEF0F0C0DFF0F1C0E0F0F2C085
:10670000E1F00001DE1FDF1FE01FE11FDE2B000EA6
:10671000DF23E023E1230001F3510001DE25000126
:10672000E26F0001F4510001DF210001E36F00017D
:10673000F5510001E0210001E46F0001F651000174
:10674000E1210001E56F0001F751040D010EF32472
:10675000F66E0F0EF420F76E0001E2510900F55CB1
:106760000001E3510900F5580001E4510900F55812
:106770000001E5510900F558D8B0ABD70001F92B5D
:106780001F0E0001F96517D70001F851AAEC40F07F
:1067900033903550120000019069010E0001806FA6
:1067A000000E816F000E826F000E836F000170512A
:1067B0000001D8B402D0FF0E1200000E0001916F4C
:1067C000EBD091C073F080C074F081C075F082C0CE
:1067D00076F083C077F00001732B06D0D8900001CB
:1067E00074377537763777370001732FF7D7000185
