:04000000F9EF00F024
:100008004182FACF0EF0FBCF0FF0E9CF10F0EACF24
:1000180011F0E1CF12F0E2CF13F0D9CF14F0DACF1C
:1000280015F0F3CF16F0F4CF17F0F6CF18F0F7CF9E
:1000380019F0F8CF1AF0F5CF1BF0F2B8F2A2ABD056
:10004800F292620E51EC3FF01D6E1DA011D0399056
:1000580039BC399C000E01016E6F000E6D6F39A21C
:1000680007D0480E51EC3FF01C6E1CB03984399211
:100078001DA68AD01F68000E206E010E206401D0D4
:1000880010D02050500D000EF324D96E030EF4202A
:10009800DA6EDF50D8A403D020C01FF002D0202A87
:1000A800ECD7020E1F606BD0040E036E730E66EC65
:1000B8003FF01F50500D000EF324D96E030EF420AC
:1000C800DA6E030E046E000E036E6EEC3DF0020F46
:1000D800DF6E1F50500D000EF324D96E030EF4206E
:1000E800DA6E4F0EDF6040D0398A010E206E1AD0CA
:1000F8001F50500D000E096E030E0A6EF3500926AC
:10010800F4500A2220500924D96E000E0A20DA6E13
:10011800000E2024036E046A030E04226EEC3DF0E8
:10012800DF6E202A2050096E0A6A1F50500D000EFB
:10013800F324D96E030EF420DA6EDF500B6E0C6ACE
:10014800020E0B26000E0C2209500B5C0C50800A84
:100158000D6E0A50800A0D58D8B0CAD7010E036E2A
:100168001B0E66EC3FF005D0010E036E1B0E66EC0D
:100178003FF0000E036E730E66EC3FF005D0010EE3
:10018800036E1B0E66EC3FF01DA805D0800E036EB3
:10019800590E66EC3FF09EB09DA007D09E903C2A79
:1001A8003C50D8A402D00101782B07EC40F01BC0CA
:1001B800F5FF1AC0F8FF19C0F7FF18C0F6FF17C0FF
:1001C800F4FF16C0F3FF15C0DAFF14C0D9FF13C03F
:1001D800E2FF12C0E1FF11C0EAFF10C0E9FF0FC043
:1001E800FBFF0EC0FAFF41921100AAEF3AF0DBECD8
:1001F80017F00009D8B463EF0DF033B41200000E05
:1002080001013E6F21A404D00001B16BB12B02D0D3
:100218000001B16B01013E510001B119FC0BB1198C
:1002280001013E6F21A603D001013E8702D00101E2
:100238003E972150030BE806D8A404D00001B16B07
:10024800B12B02D00001B16B0001B13BB1470101F4
:100258003E510001B119DF0BB11901013E6F21AE0A
:1002680003D001013E8D02D001013E9D21AE0BD08D
:1002780029B003D001013E9F02D001013E8F22C068
:1002880041F123C042F12AC03FF12BC040F128C000
:1002980047F127C046F1339453EF0DF00A0E26605C
:1002A80002D060EF0DF020EE02F02450D926255040
:1002B800DA22DF500001CC6F20EE03F02450D9265B
:1002C8002550DA22DF500001CD6F20EE04F02450D3
:1002D800D9262550DA22DF500001D06F20EE05F034
:1002E8002450D9262550DA22DF500001D16F20EEA4
:1002F80006F02450D9262550DA22DF500001D26FAB
:1003080020EE07F02450D9262550DA22DF500001CC
:10031800D36F20EE08F02450D9262550DA22DF507A
:100328000001D66F20EE09F02450D9262550DA2294
:10033800DF500001D76F000E01013E6F21A603D0E8
:1003480001013E8702D001013E9701013E51030B96
:100358000009D8A407D00001D02903E10001D12960
:10036800D8A474D10001FB510001D61912E1000193
:10037800FC510001D719D8A40CD00001F951000193
:10038800D21907E10001FA510001D319D8B460EF7E
:100398000DF024C0D9FF25C0DAFF010EDF649BD021
:1003A80024C0D9FF25C0DAFFDF06000E0001F66F72
:1003B800000E0001D96F18D00001D951010DF3507A
:1003C8002424D96EF4502520DA6E0001F651010D6F
:1003D800790EF324E16E010EF420E26EDFCFE7FF21
:1003E8000001F62B0001D92B26500001D95DD8A0B9
:1003F800E3D721C02CF0F9C031F0FAC032F029C09F
:1004080030F0140E62EC38F020EE2CF000EE7EF0A6
:10041800060EDBCFEBFFE806FCE2790E0001856FE4
:10042800010E0001866FF6C087F00BEC26F0000E77
:100438000001D96F090E0001D96501D033D0000140
:10044800D9510E0D0C0EF326000EF4223C0EF324A7
:10045800D96E020EF420DA6E0201DFAE20D0000160
:10046800D9510E0D0C0EF326000EF4223C0EF32487
:10047800D96E020EF420DA6E0201DFB010D000014E
:10048800D9510E0D0C0EF326000EF4223C0EF32467
:10049800D96E020EF420DA6E0201DFBA03D0000131
:1004A800D92BC8D70A0E0001D96115D0CCC06AF083
:1004B800CDC06BF0000E00016C6F000E00016D6F77
:1004C800000E00016E6F000E21B6010E00016F6F65
:1004D800010EC8EC29F0000E0001D96F030E0001CF
:1004E800D96501D03CD00001D951080D030EF3267F
:1004F800000EF422000EF324D96E010EF420DA6EF9
:10050800DF50D8B429D00001D951080D000EF324CA
:10051800D96E010EF420DA6E0001D651DE181CE106
:100528000001D751DE18D8A417D020EE0AF02450C5
:10053800D9262550DA220001D951080D020EF326DA
:10054800000EF422000EF324E16E010EF420E26E98
:10055800DE50E618D8B403D00001D92BBFD7040E5B
:100568000001D96102D060EF0DF0000E0001D96FD3
:10057800030E0001D96501D013D00001D951080D2F
:10058800030EF326000EF422000EF324D96E010E9A
:10059800F420DA6EDF50D8B403D00001D92BE8D7A5
:1005A800040E0001D9614CD00001D951080D000E8C
:1005B800F324D96E010EF420DA6ED6C0DEFFD7C060
:1005C800DDFF20EE0AF02450D9262550DA2200015A
:1005D800D951080D020EF326000EF422000EF32462
:1005E800E16E010EF420E26EDFCFE7FF0001D95182
:1005F800080D030EF326000EF422000EF324D96E24
:10060800010EF420DA6E030EDF6EEFEC3BF0000112
:10061800D951080D040EF326000EF422000EF3241F
:10062800D96E010EF420DA6E000160C0DEFF000111
:1006380061C0DEFF000162C0DEFF000163C0DEFFB3
:1006480001013E51FC0B01093E6F7FD00001F951B9
:100658000001CC1905E10001FA510001CD19D8A417
:100668005BEF07F00001FB510001D01905E1000123
:10067800FC510001D119D8A45BEF07F020EE01F07E
:100688002450D9262550DA22DFA45FD040C079F162
:10069800020E01017A6FD2C07BF1D3C07CF1D6C0C3
:1006A8007DF1D7C07EF1F9C07FF1FAC080F1FBC0BF
:1006B80081F1FCC082F120EE0AF02450D9262550A1
:1006C800DA22DF500101836F000E0101846F300EC2
:1006D8000101856F0D0E0001F66F0001FC5100014C
:1006E800D719D8B40ED0D2C0A5F0D3C0A6F0D6C0C2
:1006F800A7F0D7C0A8F0000E0001A96F94EC23F072
:1007080022D0000E2C6E2C8A010E2F6E010E306E38
:10071800D60E2D6E000E2E6ED2C031F0D3C032F040
:1007280020EE2CF000EE7EF0060EDBCFEBFFE806A5
:10073800FCE2790E0001856F010E0001866FF6C09C
:1007480087F00BEC26F001013E8520EE0BF02450DB
:10075800D9262550DA22DF50D8A467D320EE0CF032
:100768002450D9262550DA22300EDE18D8A42AD3F0
:1007780041D30101CDB371D0EFEC3BF060C0E4F19F
:1007880061C0E5F162C0E6F163C0E7F120EE08F070
:100798002450D9262550DA22DF500101CF6F20EEF0
:1007A80009F02450D9262550DA22DF500101D06FF4
:1007B800000E0001D86F070E0001D86501D020D0C7
:1007C8000001D8510001B16FB26B0D0E0001B127C5
:1007D800000EB2230001B1512424D96E0001B25198
:1007E8002520DA6E0001D851010DD10EF324E16EF7
:1007F800010EF420E26EDFCFE7FF0001D82BDBD734
:100808000101CD830101CD91000E0001D86F0001D7
:10081800D8510001D8A460EF0DF00001D8510001B3
:10082800B16FB26B150E0001B127000EB2230001A3
:10083800B1512424D96E0001B2512520DA6E00018D
:10084800D851010DD90EF324E16E010EF420E26EA9
:10085800DFCFE7FF0001D82BDAD720EE08F02450CD
:10086800D9262550DA220101CF51DE18D8A40CD0A0
:1008780020EE09F02450D9262550DA220101D05162
:10088800DE18D8B460EF0DF00101CF510101D0118D
:10089800D8A4A8D0000E0001D86F070E0001D865B3
:1008A80001D034D00001D8510001B16FB26B0D0EE8
:1008B8000001B127000EB2230001B1512424D96EE2
:1008C8000001B2512520DA6E0001D851010DDC0E6D
:1008D800F324E16E010EF420E26EDFCFE7FF0001A2
:1008E800D851010DDC0EF324D96E010EF420DA6E16
:1008F8000001D851010D580EF324E16E010EF420C9
:10090800E26EDFCFE7FF0001D82BC7D720EE08F053
:100918002450D9262550DA22DF500101DA6F20EE63
:1009280009F02450D9262550DA22DF500101DB6F67
:10093800DAC1FDF0DBC1FEF0F9C0EDF1FAC0EEF16D
:10094800F1EC3AF00101CE6F0101CE29D8A403D110
:100958008D0E3B6E0001FDBF3B903AEC36F0010175
:10096800CE6F0101CE29D8B4F6D0000E0001D86FA1
:100978000001D8510001D8A4EED00001D8510001DF
:10098800B16FB26B150E0001B127000EB223000142
:10099800B1512424D96E0001B2512520DA6E00012C
:1009A800D851010D0D0EF326000EF4223C0E000165
:1009B800B36F020E0001B46FF3500001B327F45077
:1009C8000001B4230101CE510E0DF3500001B325EF
:1009D800E16EF4500001B421E26EDFCFE7FF0001C1
:1009E800D82BC6D70B0E0001F66F0001F651010D8A
:1009F800790EF324D96E010EF420DA6E000EDF6E44
:100A08000001F62B0001F651010D790EF324D96E81
:100A1800010EF420DA6E110EDF6E0001F62B000EC7
:100A28000001D86F070E0001D86501D036D000014B
:100A3800D8510001B16FB26B0D0E0001B127000E45
:100A4800B2230001B1512424D96E0001B2512520EE
:100A5800DA6E0001D851010DDC0EF324E16E010EAF
:100A6800F420E26EDFCFE7FF0001D851010DDC0E64
:100A7800F324D96E010EF420DA6E0001F651010D4F
:100A8800790EF324E16E010EF420E26EDFCFE7FF6A
:100A98000001F62B0001D82BC5D720EE08F0245012
:100AA800D9262550DA22DF500101DA6F20EE09F04D
:100AB8002450D9262550DA22DF500101DB6F0001CE
:100AC800F651010D790EF324D96E010EF420DA6E79
:100AD800DAC1DFFF0001F62B0001F651010D790E96
:100AE800F324D96E010EF420DA6EDBC1DFFF0001BA
:100AF800F62B000E0001D86F0001D8510001D8A4D0
:100B080022D00001D8510001B16FB26B150E00015F
:100B1800B127000EB2230001B1512424D96E00017F
:100B2800B2512520DA6E0001F651010D790EF32439
:100B3800E16E010EF420E26EDFCFE7FF0001F62B35
:100B48000001D82BD9D7CF0E0001AF6F010E0001DD
:100B5800B06F61EC3AF00101CD830101CD8160EF06
:100B68000DF0000E0001D46F070E0001D46501D00E
:100B780020D00001D4510001B16FB26B0D0E0001FD
:100B8800B127000EB2230001B1512424D96E00010F
:100B9800B2512520DA6E0001D451010D580EF3240C
:100BA800E16E010EF420E26EDFCFE7FF0001D42BE7
:100BB800DBD78D0E3B6E20EE15F02450D92625503C
:100BC800DA22DFBE3B9020EE15F02450D9262550BE
:100BD800DA22DF500001FD6F20EE16F02450D926EE
:100BE8002550DA22DF500001FE6FF9C0EDF1FAC09E
:100BF800EEF1F1EC3AF00101CE6F0101CE29D8B443
:100C080012D00101CE510E0D0C0EF326000EF42267
:100C18003C0EF324D96E020EF420DA6EDF503B6EE0
:100C28003B843B8605D08D0E3B6E0001FDBF3B909B
:100C38003AEC36F00101CE6F0101CE29D8B440D08C
:100C4800000E0001D46F0001D4510001D8A435D0A2
:100C58000001D4510001B16FB26B170E0001B1272A
:100C6800000EB2230001B1512424D96E0001B25103
:100C78002520DA6E0001D451010D0D0EF326000E69
:100C8800F4223C0E0001B36F020E0001B46FF35062
:100C98000001B327F4500001B4230101CE510E0D19
:100CA800F3500001B325E16EF4500001B421E26E67
:100CB800DFCFE7FF0001D42BC6D70101CD8102D0D9
:100CC8000101CD910101CD9360EF0DF020EE0DF003
:100CD8002450D9262550DA220001FF51DE18D8A465
:100CE80060EF0DF020EE0EF02450D9262550DA22C0
:100CF800DF507AEC3FF060EF0DF020EE0DF024505D
:100D0800D9262550DA220001FF51DE18D8A460EF59
:100D18000DF0000E0001F66F40C079F1020E0101DE
:100D28007A6FF9C07BF1FAC07CF120EE08F024500C
:100D3800D9262550DA22DF5001017D6F20EE09F017
:100D48002450D9262550DA22DF5001017E6FF9C0E0
:100D58007FF1FAC080F1FBC081F1FCC082F13AC09A
:100D680083F13A2A000E0101846F420E0101856F5A
:100D7800000E2C6E2C8A010E2F6E010E306EF9C0FB
:100D880031F0FAC032F0080E24242D6E000E252012
:100D98002E6E20EE2CF000EE7EF0060EDBCFEBFF81
:100DA800E806FCE2790E0001856F010E0001866FEE
:100DB8000D0E0001876F0BEC26F060EF0DF0339EEF
:100DC80060EF0DF020EE0CF02450D9262550DA22E1
:100DD800DF50100AD8B4CDD4010AD8B4C2D6510A0B
:100DE800D8B474D7010AD8B488D7030AD8B4E7D7D7
:100DF80060EF0DF020EE0AF02450D9262550DA22B3
:100E08000101F051DE18D8A460EF0DF001016B511B
:100E18000001D61905E101016C510001D719D8A4C8
:100E280060EF0DF0339660EF0DF02650F50F0101DD
:100E3800456F0B0E24240101436F000E252001018C
:100E4800446FD2C03FF1D3C040F120EE08F02450E7
:100E5800D9262550DA22DE28D8A415D020EE09F0AC
:100E68002450D9262550DA22DE28D8A40CD029B05F
:100E780003D001013E9F02D001013E8F22C041F103
:100E880023C042F10AD001013E8F080E242401013B
:100E9800416F000E25200101426F01013E8D0101C5
:100EA8004551D8B460EF0DF0338460EF0DF024C0E5
:100EB800D9FF25C0DAFFDF50D8B460EF0DF024C0A9
:100EC800D9FF25C0DAFFDF06000E0001F66F000E1D
:100ED8000001D96F18D00001D951010DF350242415
:100EE800D96EF4502520DA6E0001F651010D790E05
:100EF800F324E16E010EF420E26EDFCFE7FF00017C
:100F0800F62B0001D92B26500001D95DD8A0E3D7D4
:100F18000001FC510001D119D8A42DD00101845140
:100F2800D8A429D0300E01018519D8A424D0000EE8
:100F38002C6E2C8A010E2F6E010E306ED00E2D6E87
:100F4800000E2E6ECCC031F0CDC032F020EE2CF069
:100F580000EE7EF0060EDBCFEBFFE806FCE2790E32
:100F68000001856F010E0001866FF6C087F00BEC5B
:100F780026F060EF0DF0CCC0A5F0CDC0A6F0D0C033
:100F8800A7F0D1C0A8F0000E21B6010E0001A96F8C
:100F980094EC23F060EF0DF0000E0001CB6F000120
:100FA800CB510001B16FB26B040E0001B127000EE6
:100FB800B2230001B1512424D96E0001B251252079
:100FC800DA6E4D0EDE18D8A460EF0DF020EE01F0B9
:100FD8002250D9262350DA22DF500001C26FC2C046
:100FE800B1F0010E0001B26F0001B12B03D0000176
:100FF800D890B2370001B12FFAD70001B2510001E1
:10100800BF6F22C0D9FF23C0DAFFDF50D8A404D0B5
:101018000001BF51010176130001CB510001B16FEE
:10102800B26B060E0001B127000EB2230001B151C8
:101038002424D96E0001B2512520DA6E0001C25174
:10104800010D500EF324E16E010EF420E26EDFCFA5
:10105800E7FF33A060EF0DF02AC0EDF12BC0EEF1F1
:1010680022C0D9FF23C0DAFFDF500001FD6F20EE58
:1010780001F02250D9262350DA22DF500001FE6FFA
:101088000001CB51010DF3502424D96EF4502520D2
:10109800DA6EDE28D8A460EF0DF00001CB51000114
:1010A800B16FB26B010E0001B127000EB22300012F
:1010B800B1512424D96E0001B2512520DA6EDF50D7
:1010C8000001CA6F040E0001F56160EF0DF0000128
:1010D800CA39030B0001B16F020E0001B16160EF64
:1010E8000DF00001F5510F0D000EF324D96E020E1C
:1010F800F420DA6EFFC0DFFF0001F5510F0D0B0E73
:10110800F326000EF422000EF324D96E020EF4200A
:10111800DA6E46C1DFFF0001F5510F0D0C0EF32604
:10112800000EF422000EF324D96E020EF420DA6EBB
:1011380047C1DFFF0001F5510F0D090EF326000E20
:10114800F422000EF324D96E020EF420DA6EEDC1FB
:10115800DEFFEEC1DDFF0001F5510F0D0D0EF32688
:10116800000EF422000EF324D96E020EF420DA6E7B
:10117800000EDF6E0001F5510F0D0D0EF326000E67
:10118800F422000EF324D96E020EF420DA6E020166
:10119800DF8C0001CA31030B0001B16F0001F5516A
:1011A8000F0D0D0EF326000EF422000EF324D96E57
:1011B800020EF420DA6E0201DF500001B119FC0BB7
:1011C800B1190201DF6E0001CAA70FD00001F55165
:1011D8000F0D0D0EF326000EF422000EF324D96E27
:1011E800020EF420DA6E0201DF860001CA39030B11
:1011F8000001B16F020E0001B1610FD00001F5517D
:101208000F0D0D0EF326000EF422000EF324D96EF6
:10121800020EF420DA6E0201DF8A41C1D9FF42C111
:10122800DAFF0001F5510F0D010EF326000EF4222E
:10123800000EF324E16E020EF420E26EDFCFE7FF2A
:10124800010120EE01F04151D9264251DA22000174
:10125800F5510F0D020EF326000EF422000EF324B2
:10126800E16E020EF420E26EDFCFE7FF0001F551D8
:101278000F0D0D0EF326000EF422000EF324D96E86
:10128800020EF420DA6E0201DF8E000E0001D96F23
:101298000001D9510001D8A43AD00001D951CBC0DE
:1012A800B1F00001B26B0001B127000EB223070EA6
:1012B8000001B127000EB2230001B1512424D96ED8
:1012C8000001B2512520DA6E0001D951010D0E0E30
:1012D800F326000EF422000E0001B36F020E000187
:1012E800B46FF3500001B327F4500001B423000198
:1012F800F5510F0DF3500001B325E16EF4500001D4
:10130800B421E26EDFCFE7FF0001D92BC1D700017E
:10131800F52BD2D3000E0001C16F010E366401D047
:10132800CBD3000E0001D96F070E0001D96501D09B
:1013380017D00001D951010DF3502224D96EF45071
:101348002320DA6E0001D951010D580EF324E16E05
:10135800010EF420E26EDFCFE7FF0001D92BE4D7BE
:1013680039EC37F00001D56F0001D529D8A41AD07F
:101378003650D8A4A1D3B70E3B6EF9C0EDF1FAC030
:10138800EEF13AEC36F00001D56F0001D529D8A46A
:101398002BD0010E0001C16FFF0E0001FE6FFE0E83
:1013A800FD6FD7D00001D5510E0D0C0EF326000E9F
:1013B800F4223C0EF324D96E020EF420DA6E0201F8
:1013C800DFA612D00001D5510E0D020EF326000E35
:1013D800F4223C0EF324D96E020EF420DA6EDECF2E
:1013E800FDF0DDCFFEF0B5D00001D529D8B4B1D0DD
:1013F8000001D5290001FD6FFCC0FEF0F9C0EDF138
:10140800FAC0EEF1020E0001F819D8A445D020EE7A
:1014180001F02450D9262550DA22DFAC3DD0FDC09A
:10142800BDF0FEC0BEF0000E0001FD6F010E000110
:10143800CE6F070E0001CE6501D025D0CEC0FEF0DC
:10144800F1EC3AF00001C06F0001C029D8A418D00F
:10145800000E0001FD6FCEC0FEF0CEC0B1F0010E4F
:101468000001B26F0001B12B03D00001D890B23750
:101478000001B12FFAD70001B2510101761303D050
:101488000001CE2BD6D7080E0001CE19D8A404D05F
:10149800BDC0FDF0BEC0FEF0BF0E3B6E20EE01F0F9
:1014A8002450D9262550DA22DFB003D03B90000122
:1014B800FD8F3AEC36F00001D56F0001D5510E0DC5
:1014C8000C0EF326000EF4223C0EF324D96E020E05
:1014D800F420DA6E0201DF88000E0001D96F0001E6
:1014E800D9510001D8A435D00001D9510001B16FFC
:1014F800B26B020E0001B127000EB2230001B151F8
:101508002424D96E0001B2512520DA6E0001D95188
:10151800010D0D0EF326000EF4223C0E0001B36FF0
:10152800020E0001B46FF3500001B327F45000011C
:10153800B4230001D5510E0DF3500001B325E16E1F
:10154800F4500001B421E26EDFCFE7FF0001D92B90
:10155800C6D7020E0101796FFDC07AF1FEC07BF19A
:10156800C1C07CF1000E0001D96F0001D951000102
:10157800D8A420D00001D951010D350EF324D96E1D
:10158800000EF420DA6E0001D9510001B16FB26B80
:10159800040E0001B127000EB223790E0001B12517
:1015A800E16E010E0001B221E26EDFCFE7FF00011C
:1015B800D92BDBD7050E0001F66FF90E00019D6FE0
:1015C800000E00019E6F0001D5510E0D040EF3268A
:1015D800000EF4223C0EF32400019F6F020EF4204B
:1015E8000001A06F010E0001A16F000E0001A26FA3
:1015F80016EC39F061D220EE03F02450D92625509C
:10160800DA22DF50D8A4CDD020EE01F02450D9261C
:101618002550DA22DF500001FB6F20EE02F0245043
:10162800D9262550DA22DF500001FC6F0001FB515A
:10163800D8A425D0010E0001F86FF8C0B1F0000160
:10164800B147010174510001B119F90BB119010138
:10165800746FFCC0B1F0070E0001B117010E000154
:10166800B26F0001B12B03D00001D890B23700014E
:10167800B12FFAD70001B229010176130FD0000E5D
:101688000001F86FF8C0B1F00001B14701017451D1
:101698000001B119F90BB1190101746FFB0E0001BA
:1016A800656F000E0001666FF90E0001676F000E8E
:1016B8000001686F27EC3CF03382BF0E3B6E000ED2
:1016C8000001D96F070E0001D96501D017D00001BC
:1016D800D951010DF3502224D96EF4502320DA6E2B
:1016E8000001D951010D580EF324E16E010EF420CA
:1016F800E26EDFCFE7FF0001D92BE4D70001FB51F1
:10170800D8A405D0000E0001FE6F000E04D0FCC066
:10171800FEF0000E0001FD6FF9C0EDF1FAC0EEF128
:101728003AEC36F00001F76F000E0001D96F0001A6
:10173800D9510001D8A4C0D10001D9510001B16F1D
:10174800B26B040E0001B127000EB2230001B151A3
:101758002424D96E0001B2512520DA6E0001D95136
:10176800010D0D0EF326000EF4223C0E0001B36F9E
:10177800020E0001B46FF3500001B327F4500001CA
:10178800B4230001F7510E0DF3500001B325E16EAB
:10179800F4500001B421E26EDFCFE7FF0001D92B3E
:1017A800C6D70001F7690001F969FA690001FD6906
:1017B800FE69FD0E0001656F000E0001666FF90EEF
:1017C8000001676F000E0001686F27EC3CF074D1D0
:1017D8002950D8B419D022C0D9FF23C0DAFFDF506E
:1017E8000001FD6F20EE01F02250D9262350DA22A5
:1017F800DF500001FE6FF1EC3AF00001C96F000103
:10180800C929D8B459D122D0000E0001D96F070ECA
:101818000001D96501D017D00001D951010DF3504D
:101828002224D96EF4502320DA6E0001D951010D1B
:10183800580EF324E16E010EF420E26EDFCFE7FFCD
:101848000001D92BE4D739EC37F0D7D70001C951BB
:101858000E0D0C0EF326000EF4223C0EF324D96E66
:10186800020EF420DA6E0201DFAA26D10001F75138
:101878000001C919D8B410D00001C9510E0D0C0EC1
:10188800F326000EF4223C0EF324D96E020EF42047
:10189800DA6E000EDF6E10D1000E0001D96F090E4E
:1018A8000001D96501D090D00001D9510E0D0C0E60
:1018B800F326000EF4223C0EF324D96E020EF42017
:1018C800DA6E0201DFAE6ED00001D9510E0D0C0E9A
:1018D800F326000EF4223C0EF324D96E020EF420F7
:1018E800DA6E0201DFAA5ED00001F7510001D919B2
:1018F800D8B458D0000E0001F66F0001F651010D62
:10190800790EF324D96E010EF420DA6E030EDF6E21
:101918000001F62B000E2C6E2C8A2C50FC0B0109B2
:101928002C6E010E2F6E010E306E0001D9510E0D76
:101938003C0EF324D96E020EF420DA6EDECF31F0BD
:10194800DDCF32F00001D9510E0D020EF326000E44
:10195800F4223C0EF3242D6E020EF4202E6E20EE9F
:101968002CF000EE7EF0060EDBCFEBFFE806FCE283
:10197800790E0001856F010E0001866FF6C087F0B1
:101988000BEC26F0000E0001C46F000EC36F0001BF
:10199800C3290F0E0001C459D8B004D00001C34BAD
:1019A800C42BF5D70001D9510E0D0C0EF326000EED
:1019B800F4223C0EF324D96E020EF420DA6E000EE7
:1019C800DF6E0001D92B6BD70001F7690001FB69B5
:1019D800FC690001F969FA69FB0E0001656F000EE8
:1019E8000001666FF90E0001676F000E0001686F55
:1019F80027EC3CF0339260D02950D8B410D0000EB8
:101A08000001A46F000E0001A56F22C0A6F023C03C
:101A1800A7F0010E0001A86F2AEC14F04DD022C0E7
:101A2800A4F023C0A5F0000E0001A66F000E00016F
:101A3800A76F000E0001A86F2AEC14F03DD0020E2B
:101A4800366401D039D033A237D020EE01F02450CB
:101A5800D9262550DA220001FF51DE18D8A42CD04F
:101A68000001F851D8B428D0140E62EC38F013EC09
:101A780034F022D024C0D9FF25C0DAFFDF50010A94
:101A8800D8B448D4030AD8B4B6D5010AD8B4A0D675
:101A9800070AD8B4B1D7030AD8B4D1D70DD021508A
:101AA800030B000AD8B452EF01F0010AD8B4E2D708
:101AB800020AD8B4D0EF07F033A48CEC3FF0EFEC77
:101AC8003BF060C0C5F061C0C6F062C0C7F063C03B
:101AD800C8F0000E0001D96F010E0001D96501D0D0
:101AE80062D00001D951430D0E0EF326000EF422E8
:101AF800000EF324D96E040EF420DA6E0401DFA080
:101B08004FD00001D951430D000EF324D96E040EB5
:101B1800F420DA6EDECFB1F0DECFB2F0DECFB3F074
:101B2800DECFB4F00001B11FB21FB31FB41FB12B39
:101B3800000EB223B323B4230001C5510001B1251F
:101B48000001B56F0001C6510001B2210001B66F56
:101B58000001C7510001B3210001B76F0001C8514E
:101B68000001B4210001B86F0001B8510AE1000179
:101B7800B505120E0001B6597A0E0001B759D8A062
:101B88000FD00001D951430D0E0EF326000EF4229A
:101B9800000EF324D96E040EF420DA6E000EDF6E08
:101BA8000001D92B99D7000E0001D96F030E00014F
:101BB800D96501D067D00001D951080D030EF3266D
:101BC800000EF422000EF324D96E010EF420DA6E12
:101BD800DF50D8B454D00001D951080D040EF326B3
:101BE800000EF422000EF324D96E010EF420DA6EF2
:101BF800DECFB1F0DECFB2F0DECFB3F0DECFB4F09F
:101C08000001B11FB21FB31FB41FB12B000EB223C6
:101C1800B323B4230001C5510001B1250001B56FFC
:101C28000001C6510001B2210001B66F0001C75181
:101C38000001B3210001B76F0001C8510001B421B0
:101C48000001B86F0001B8510BE1210E0001B55D2C
:101C5800A10E0001B659070E0001B759D8A00FD040
:101C68000001D951080D030EF326000EF422000ED0
:101C7800F324D96E010EF420DA6E000EDF6E000137
:101C8800D92B94D70101CDA312000101CDA184D095
:101C98000B0E0001F66F0001F651010D790EF324C9
:101CA800D96E010EF420DA6E000EDF6E0001F62BFD
:101CB8000001F651010D790EF324D96E010EF420BE
:101CC800DA6E110EDF6E0001F62B000E0001CF6FE9
:101CD800070E0001CF6501D019D00001CF51010DC9
:101CE800D10EF324D96E010EF420DA6E0001F651FC
:101CF800010D790EF324E16E010EF420E26EDFCFC0
:101D0800E7FF0001F62B0001CF2BE2D70001F651C7
:101D1800010D790EF324D96E010EF420DA6ECFC1CD
:101D2800DFFF0001F62B0001F651010D790EF324B7
:101D3800D96E010EF420DA6ED0C1DFFF0001F62B58
:101D4800000E0001CF6F0001CF510001D8A419D0B7
:101D58000001CF51010DD90EF324D96E010EF420E4
:101D6800DA6E0001F651010D790EF324E16E010ED1
:101D7800F420E26EDFCFE7FF0001F62B0001CF2B46
:101D8800E2D7DA0E0001AF6F010E0001B06F61EC0F
:101D98003AF00101CD931200E4C1B1F0E5C1B2F00F
:101DA800E6C1B3F0E7C1B4F00001B11FB21FB31F21
:101DB800B41FB12B000EB223B323B4230001C551C5
:101DC8000001B1250001B96F0001C6510001B2211F
:101DD8000001BA6F0001C7510001B3210001BB6FB8
:101DE8000001C8510001B4210001BC6F0001BC51C1
:101DF8000BE1610E0001B95DE30E0001BA59160E40
:101E08000001BB59D8A012000101CD931200700E39
:101E18000001856F000E0001866F14EF14F0250E87
:101E280000018C19D8B40BD06CC0D9FF6DC0DAFF93
:101E38008CC0DFFF00016C4B6D2B14EF14F0000E0B
:101E480000018B6F000E8A6F000E00018E6F000E6E
:101E58008D6F0ED000018D8708D000018D8105D0CF
:101E680000018E8702D000018D8500016E4B6F2B1B
:101E78006EC0F6FF6FC0F7FF0800F550200AD8B40F
:101E8800ECD7030AD8B4ECD70E0AD8B4E3D71D0AA6
:101E9800D8B4E9D700018DA702D000018D956EC096
:101EA800F6FF6FC0F7FF0800F5503CEC3FF0D8A0F4
:101EB80041D0000E00018B6F000E8A6F8AC060F05F
:101EC8008BC061F0000E0001636F0A0E626F79EC3F
:101ED8003EF060C08AF061C08BF0D00E0001766FD2
:101EE800FF0E0001776F6EC0F6FF6FC0F7FF0800A6
:101EF800F5500001786F796B000176510001782761
:101F080000017751000179230001785100018A27E7
:101F18000001795100018B2300016E4B6F2B6EC0BD
:101F2800F6FF6FC0F7FF0800F5503CEC3FF0D8A073
:101F38001AD0C4D76EC0F6FF6FC0F7FF0800F5507F
:101F48002A0AD8A410D085C0D9FF86C0DAFFDECF10
:101F58008AF0DDCF8BF0020E00018527000E862364
:101F680000016E4B6F2B6EC0F6FF6FC0F7FF0800C5
:101F7800F5502E0AD8A440D000018E8D00016E4B7A
:101F88006F2B6EC0F6FF6FC0F7FF0800F5502A0AE6
:101F9800D8A410D085C0D9FF86C0DAFFDF50000171
:101FA800896F020E00018527000E862300016E4B03
:101FB8006F2BCBD0000E0001896F13D06EC0F6FFD7
:101FC8006FC0F7FF0800F5CF76F0000189510A0DC0
:101FD800F35000017625D00F0001896F00016E4B88
:101FE8006F2B6EC0F6FF6FC0F7FF0800F5503CEC92
:101FF8003FF0D8A0AAD0E2D7000E0001896FA5D083
:1020080000018D8DC7D000018D8B00018D8FC2D04E
:10201800000189510001D8B417D089C076F00001B9
:10202800776B76BF7707000183510001765D000169
:10203800845100017759D8B007D0000189510001B7
:10204800836F846B83BF840700018A510001835D1D
:1020580000018B5100018459D8B009D00001835187
:1020680000018A5F0001845100018B5B05D0000EDE
:1020780000018B6F000E8A6F00018DA70AD025D052
:102088006CC0D9FF6DC0DAFF200EDF6E00016C4B0B
:102098006D2B00018A07D8A08B0700018A29F0E17F
:1020A80000018B29D8B411D0EBD77BC0D9FF7CC0F5
:1020B800DAFF6CC0E1FF6DC0E2FFDFCFE7FF000190
:1020C8007B4B7C2B00016C4B6D2B00018307D8A048
:1020D800840700018329E9E100018429D8A4E5D710
:1020E80000018DB70AD09CD36CC0D9FF6DC0DAFF50
:1020F800200EDF6E00016C4B6D2B00018A07D8A003
:102108008B0700018A29F0E100018B29D8B488D314
:10211800EBD785C0D9FF86C0DAFFDF5000018C6F8E
:10212800020E00018527000E86238C0E00017B6FAE
:10213800000E00017C6F000E0001846F010E836F9A
:1021480067D7C00E00018D1325D06EC0F6FF6FC093
:10215800F7FF00016E4B6F2B0800F5CF8CF00001E4
:102168008C51000AD8B46BD3580AD8B44CD73B0A60
:10217800D8B4CFD7070AD8B40DD00D0AD8B40AD02E
:10218800060AD8B43DD71A0AD8B4DBD70D0AD8B492
:102198003CD7CBD7C00E00018D150001766F000E1D
:1021A80000018E150001776F00017651000177114B
:1021B800D8A419D085C0D9FF86C0DAFFDECF87F052
:1021C800DDCF88F0020E00018527000E862300016E
:1021D80088AF16D0030E00018D130001876D881F8C
:1021E800D8B0882B0DD085C0D9FF86C0DAFFDECFE6
:1021F80087F0DDCF88F0020E00018527000E8623C8
:10220800000189510001D8A463D000018751000161
:102218008811D8A45DD00001892B5AD0010E000185
:102228008C6F050E00018C19D8B461D000018C5157
:10223800020D410EF324F66EFD0EF420F76E090030
:10224800F5500001875D0900F55000018859D8A0B4
:102258004ED000018C2BE5D7010E00018C6F040EC7
:1022680000018C19D8B443D000018C51020D4B0EDB
:10227800F324F66EFD0EF420F76E0900F550000108
:10228800875D0900F55000018859D8A030D00001B9
:102298008C2BE5D7010E00018C6F060E00018C19FE
:1022A800D8B425D000018C51020D350EF324F66EFA
:1022B800FD0EF420F76E0900F5500001875D090056
:1022C800F55000018859D8A012D000018C2BE5D711
:1022D80000018D51C00B000AD8B4A0D7400AD8B469
:1022E800D9D7C00AD8B4B8D7400AD8B497D700010C
:1022F8008C51800A0001766F00018951800A000123
:10230800765DD8B003D089C08CF00DD0000189511A
:10231800800A0001766F00018C51800A0001765D09
:10232800D8A08CC089F000018A5100018B11D8B463
:1023380014D0030E00018D150001766F000E000108
:102348008E150001776F0001765100017711D8B41E
:1023580004D000018A07D8A08B0700018EAD21D0D8
:10236800800E000189BF7F0E0001766F00018A513F
:102378000001895D00018B51800A00017659D8B0AF
:102388000BD00001895100018A5F000E000189BF4E
:10239800FF0E00018B5B05D0000E00018B6F000E55
:1023A8008A6FC40E0001766F080E0001776F8DC02A
:1023B80078F08EC079F0000176510001781700019D
:1023C800775100017917400E0001781910E1080EC5
:1023D80000017919D8A40BD000018A5100018B1192
:1023E800D8B436D000018A07D8A08B0731D0C00EE8
:1023F8000001766F080E0001776F8DC078F08EC0EF
:1024080079F0000176510001781700017751000139
:102418007917800E000178191BE1080E000179195F
:10242800D8A416D000018BBF0ED000018B5105E156
:10243800030E00018A5DD8A006D00001FE0E8A278F
:10244800FF0E8B2305D0000E00018B6F000E8A6FE4
:10245800800E00018CBF7F0E0001766F00018A514B
:1024680000018C5D00018B51800A00017659D8B0BB
:102478000BD000018C5100018A5F000E00018CBF57
:10248800FF0E00018B5B05D0000E00018B6F000E64
:102498008A6F00018DA570D0030E00018D15000113
:1024A800766F000E00018E150001776F00017651DE
:1024B80000017711D8B40AD06CC0D9FF6DC0DAFF1B
:1024C8002D0E0CD000016C4B6D2B42D000018DA15C
:1024D80007D06CC0D9FF6DC0DAFF200EDF6EF2D7CF
:1024E800C00E0001766F080E0001776F8DC078F07E
:1024F8008EC079F0000176510001781700017751FC
:1025080000017917800E0001781922E1080E0001F8
:102518007919D8A41DD06CC0D9FF6DC0DAFF300E70
:10252800DF6E00016C4B6D2B00018DBB05D0000EDA
:1025380000017E6F780E04D0000E00017E6F580EE9
:102548007D6F6CC0D9FF6DC0DAFF7DC0DFFFBAD7E1
:1025580000018A5100018B11D8B43CD16CC0D9FF5D
:102568006DC0DAFF300EDF6E00016C4B6D2B000181
:102578008A07D8A08B07ECD700018A5100018B117C
:10258800D8B416D000018DB713D06CC0D9FF6DC078
:10259800DAFF200EDF6E00016C4B6D2B00018A07FD
:1025A800D8A08B0700018A5100018B11D8A4EDD760
:1025B800030E00018D150001766F000E00018E15C7
:1025C8000001776F0001765100017711D8B40AD065
:1025D8006CC0D9FF6DC0DAFF2D0E0CD000016C4B1A
:1025E8006D2B0AD000018DA107D06CC0D9FF6DC03A
:1025F800DAFF200EDF6EF2D7C00E0001766F080EEC
:102608000001776F8DC078F08EC079F000017651A7
:10261800000178170001775100017917400E000179
:1026280078190CE1080E00017919D8A407D06CC0FC
:10263800D9FF6DC0DAFF300EDF6EC9D0C00E0001C1
:10264800766F080E0001776F8DC078F08EC079F034
:1026580000017651000178170001775100017917C0
:10266800800E0001781904E1080E00017919D8A438
:10267800B1D06CC0D9FF6DC0DAFF300EDF6E00013B
:102688006C4B6D2B00018DBB05D0000E0001806FD7
:10269800780E04D0000E0001806F580E7F6F6CC05A
:1026A800D9FF6DC0DAFF7FC0DFFF91D000018951EB
:1026B800020D410EF324F66EFD0EF420F76E0900AC
:1026C800F5CF62F00A00F5CF63F087C060F088C0EC
:1026D80061F078EC3BF060C067F061C068F0000E14
:1026E80000016A6F0A0E696F8EEC3CF000016751B9
:1026F80055D087C060F088C061F000018951020D93
:102708004B0EF324F66EFD0EF420F76E0900F5CF9C
:1027180062F00A00F5CF63F078EC3BF000016051FD
:102728000F0B00017A6F00018DBB05D0560E00011A
:10273800816FFF0E04D0450E0001816FFF0E00016E
:10274800826F00017A51010D81C076F082C077F066
:10275800F35000017627F4500001772376C0F6FF86
:1027680077C0F7FF0800F5CF8CF02BD087C060F05A
:1027780088C061F000018951020D350EF324F66E10
:10278800FD0EF420F76E0900F5CF62F00A00F5CFD0
:1027980063F078EC3BF000016051070B300F00014B
:1027A8008C6F0FD000018D51C00B000AD8B47ED7B2
:1027B800400AD8B4DBD7C00AD8B49BD7400AD8B4EB
:1027C80075D76CC0D9FF6DC0DAFF8CC0DFFF000180
:1027D8006C4B6D2B0001890700018929D8A4E2D729
:1027E80000018DA71DD000018BBF1AD000018B51AD
:1027F80004E100018A05D8A013D06CC0D9FF6DC0D0
:10280800DAFF200EDF6E00016C4B6D2B00018A078A
:10281800D8A08B0700018A5100018B11D8A4EDD7ED
:102828006EC0F6FF6FC0F7FF00016E4B6F2B0800FC
:10283800F5CF8CF000018C51D8A413EF0FF06CC0C9
:10284800D9FF6DC0DAFF000EDF6E1200000E000126
:10285800AB6F000E0001F66F0001A8510001D8B45B
:102868001AD0A6C0D9FFA7C0DAFFDF500001FD6F5C
:10287800000120EE01F0A651D926A751DA22DF5037
:102888000001FE6FF1EC3AF00001AD6F0001AD29D7
:10289800D8B464D324D0000E0001AE6F070E000137
:1028A800AE6501D019D00001AE51010DF350000101
:1028B800A425D96EF4500001A521DA6E0001AE51AD
:1028C800010D580EF324E16E010EF420E26EDFCF05
:1028D800E7FF0001AE2BE2D739EC37F0D5D7000E71
:1028E8000001AE6F010E0001AE6501D056D20001A5
:1028F800AE51430D0E0EF326000EF422000EF32403
:10290800D96E040EF420DA6E0401DFA043D2000170
:10291800AE51430D0E0EF326000EF422000EF324E2
:10292800D96E040EF420DA6E0401DFB21ED1000164
:10293800AE51430D0E0EF326000EF422000EF324C2
:10294800D96E040EF420DA6E0401DFA80ED100015E
:10295800AE51430D060EF326000EF422000EF324AA
:10296800D96E040EF420DA6E0001AD510E0D020E80
:10297800F326000EF4223C0EF324E16E020EF4203E
:10298800E26EDE50E618D8A4F0D00001AE51430D37
:10299800070EF326000EF422000EF324D96E040E5F
:1029A800F420DA6E0001AD510E0D030EF326000E71
:1029B800F4223C0EF324E16E020EF420E26EDE50A7
:1029C800E618D8A4D2D0000E0001AC6F2DD00001BB
:1029D800AC51010D100EF326000EF422000E00017A
:1029E800A96F040E0001AA6FF3500001A927F45043
:1029F8000001AA230001AE51430DF3500001A9259F
:102A0800D96EF4500001AA21DA6E0001F651010DC9
:102A1800790EF324E16E010EF420E26EDFCFE7FFBA
:102A28000001F62B0001AC2B0001AE51430D0F0E37
:102A3800F326000EF422000EF324D96E040EF420BF
:102A4800DA6EDE500001AC5DD8A0C1D70001AE51EE
:102A5800430D0E0EF326000EF422000EF324D96E59
:102A6800040EF420DA6E0401DFA41ED0F90E000172
:102A78009D6F000E00019E6F0001AD510E0D020EFC
:102A8800F326000EF4223C0EF32400019F6F020E81
:102A9800F4200001A06F010E0001A16F0C0E0001CF
:102AA800A26F16EC39F051D0000E2C6E2C5000019C
:102AB800AB19FC0BAB192C6E2C8A0001AE51430DDF
:102AC8000E0EF326000EF422000EF324D96E040E27
:102AD800F420DA6E0401DFA602D02C8601D02C96F1
:102AE8000001AD510E0D020EF326000EF4223C0E2D
:102AF800F3242D6E020EF4202E6E010E2F6E010EA1
:102B0800306E0001AE51430D040EF326000EF42280
:102B1800000EF324D96E040EF420DA6EDECF31F005
:102B2800DDCF32F020EE2CF000EE7EF0060EDBCF8B
:102B3800EBFFE806FCE2790E0001856F010E00014B
:102B4800866FF6C087F00BEC26F00001AE51430DFE
:102B58000E0EF326000EF422000EF324D96E040E96
:102B6800F420DA6E0401DF9012000001AE51430D2B
:102B78000E0EF326000EF422000EF324D96E040E76
:102B8800F420DA6E0401DFB205D10001AE51430D25
:102B98000E0EF326000EF422000EF324D96E040E56
:102BA800F420DA6E0401DFB8F5D00001AD510E0D46
:102BB800040EF326000EF4223C0EF3240001606F8D
:102BC800020EF4200001616F0001AE51430D060EA4
:102BD800F326000EF422000EF3240001626F040EA7
:102BE800F4200001636F45EC3DF00009D8B4D2D061
:102BF800000E0001AC6F2DD00001AC51010D100E7C
:102C0800F326000EF422000E0001A96F040E000145
:102C1800AA6FF3500001A927F4500001AA2300016C
:102C2800AE51430DF3500001A925D96EF4500001AF
:102C3800AA21DA6E0001F651010D790EF324E16E36
:102C4800010EF420E26EDFCFE7FF0001F62B000152
:102C5800AC2B0001AE51430D0F0EF326000EF422EB
:102C6800000EF324D96E040EF420DA6EDE50000153
:102C7800AC5DD8A0C1D70001AE51430D0E0EF326AE
:102C8800000EF422000EF324D96E040EF420DA6E3E
:102C98000401DFA41ED0F90E00019D6F000E000193
:102CA8009E6F0001AD510E0D040EF326000EF422A6
:102CB8003C0EF32400019F6F020EF4200001A06F68
:102CC800010E0001A16F000E0001A26F16EC39F091
:102CD80051D0000E2C6E2C500001AB19FC0BAB1917
:102CE8002C6E2C8A0001AE51430D0E0EF326000EF9
:102CF800F422000EF324D96E040EF420DA6E0401D7
:102D0800DFA602D02C8601D02C960001AD510E0D05
:102D1800040EF326000EF4223C0EF3242D6E020E50
:102D2800F4202E6E000E2F6E010E306E0001AE5193
:102D3800430D040EF326000EF422000EF324D96E80
:102D4800040EF420DA6EDECF31F0DDCF32F020EE63
:102D58002CF000EE7EF0060EDBCFEBFFE806FCE27F
:102D6800790E0001856F010E0001866FF6C087F0AD
:102D78000BEC26F00001AE51430D0E0EF326000EAB
:102D8800F422000EF324D96E040EF420DA6E040146
:102D9800DF9012000001AE2BA5D5000E0001AE6F2A
:102DA800010E0001AE6501D0D9D00001AE51430D2E
:102DB8000E0EF326000EF422000EF324D96E040E34
:102DC800F420DA6E0401DFA0C6D00001AE51430D35
:102DD8000E0EF326000EF422000EF324D96E040E14
:102DE800F420DA6E0401DFA2B6D0000E0001AC6F49
:102DF8002DD00001AC51010D100EF326000EF42267
:102E0800000E0001A96F040E0001AA6FF350000123
:102E1800A927F4500001AA230001AE51430DF35035
:102E28000001A925D96EF4500001AA21DA6E00012B
:102E3800F651010D790EF324E16E010EF420E26ED5
:102E4800DFCFE7FF0001F62B0001AC2B0001AE51EC
:102E5800430D0F0EF326000EF422000EF324D96E54
:102E6800040EF420DA6EDE500001AC5DD8A0C1D7A4
:102E7800000E2C6E2C500001AB19FC0BAB192C6EFC
:102E88000001AE51430D0E0EF326000EF422000E83
:102E9800F324D96E040EF420DA6E0401DFA404D002
:102EA8002C50FC0B01092C6E2C8A2C8E0001AE5183
:102EB800430D0E0EF326000EF422000EF324D96EF5
:102EC800040EF420DA6E0401DFA602D02C8601D0AD
:102ED8002C96010E306E0001A8510001D8B407D01D
:102EE800010E2F6E0001AD510E0D020E06D0000E20
:102EF8002F6E0001AD510E0D040EF326000EF422C4
:102F08003C0EF3242D6E020EF4202E6E0001AE51FD
:102F1800430D040EF326000EF422000EF324D96E9E
:102F2800040EF420DA6EDECF31F0DDCF32F020EE81
:102F38002CF000EE7EF0060EDBCFEBFFE806FCE29D
:102F4800790E0001856F010E0001866FF6C087F0CB
:102F58000BEC26F012000001AE2B22D70001A8517D
:102F68000001D8B412D0F90E00019D6F000E0001C7
:102F78009E6FA6C09FF0A7C0A0F0ABC0A1F00C0E3A
:102F88000001A26F16EC39F01200F90E00019D6FD6
:102F9800000E00019E6FA4C09FF0A5C0A0F0ABC0BA
:102FA800A1F0040E0001A26F16EC39F0120081A006
:102FB800F28239A012D001016E5105E1800E0101A3
:102FC8006D5DD8A007D0000E01016E6F000E6D6F09
:102FD800399003D001016D4B6E2B3F68000E000144
:102FE800676F010E0001676501D012D000016751BB
:102FF800500D000EF324D96E030EF420DA6EDF5064
:10300800D8B403D067C03FF003D00001672BE9D7DD
:10301800020E3F6033D3010E0001686F3F50500D20
:10302800010EF326000EF422000EF324D96E030ECF
:10303800F420DA6E0301DFBC03D0000E0001686FD4
:10304800000E216E000E296E3F50500D020EF32621
:10305800000EF422000EF324D96E030EF420DA6E6B
:10306800DF50CC0B0001666F55D23F50500D060E55
:10307800F326000EF422000EF324D96E030EF4207A
:10308800DA6EDE28D8A40FD03F50500D070EF32675
:10309800000EF422000EF324D96E030EF420DA6E2B
:1030A800DE28D8B42184218E000168510001D8B4EB
:1030B80029D03F50500D040EF326000EF422000EC6
:1030C800F324D96E030EF420DA6EDF502A6E3F50D7
:1030D800500D050EF326000EF422000EF324D96ECF
:1030E800030EF420DA6EDF502B6E3F50500D080EA1
:1030F800F326000EF422000EF324226E030EF420B1
:10310800236E96D13F50500D080EF326000EF42280
:10311800000EF324D96E030EF420DA6EDF502A6E07
:103128003F50500D090EF326000EF422000EF32432
:10313800D96E030EF420DA6EDF502B6E3F50500D1F
:103148000A0EA4D13F50500D000EF324D96E030E81
:10315800F420DA6EDF50EB0F266E3F50500D120E42
:10316800CBD1218E000168510001D8B437D03F502F
:10317800500D040EF326000EF422000EF324D96E2F
:10318800030EF420DA6EDF502A6E3F50500D050E04
:10319800F326000EF422000EF324D96E030EF42059
:1031A800DA6EDF502B6E3F50500D0E0EF326000ED8
:1031B800F422000EF324226E030EF420236E3F50F7
:1031C800500D000EF324D96E030EF420DA6EDF5092
:1031D800E70F266E3F50500D160E8ED13F50500D02
:1031E8000E0EF326000EF422000EF324D96E030E01
:1031F800F420DA6EDF502A6E3F50500D0F0EF32682
:10320800000EF422000EF324D96E030EF420DA6EB9
:10321800DF502B6E3F50500D100EF326000EF42297
:10322800000EF324226E030EF420236E3F50500D3F
:10323800000EF324D96E030EF420DA6EDF50E50F8A
:10324800266E3F50500D180E57D12184218E010E45
:10325800296E3F50500D040EF326000EF422000E86
:10326800F324D96E030EF420DA6EDF502A6E3F5035
:10327800500D050EF326000EF422000EF324D96E2D
:10328800030EF420DA6EDF502B6E3F50500D060E01
:10329800F326000EF422000EF324226E030EF4200F
:1032A800236E3F50500D000EF324D96E030EF42008
:1032B800DA6EDF50F50F1CD13F50500D060EF32685
:1032C800000EF422000EF324D96E030EF420DA6EF9
:1032D800DE28D8A40FD03F50500D070EF326000E5D
:1032E800F422000EF324D96E030EF420DA6EDE28E1
:1032F800D8B42184218E010E296E00016851000185
:10330800D8A437D03F50500D080EF326000EF422F3
:10331800000EF324D96E030EF420DA6EDF502A6E05
:103328003F50500D090EF326000EF422000EF32430
:10333800D96E030EF420DA6EDF502B6E3F50500D1D
:103348000A0EF326000EF422000EF324226E030E5A
:10335800F420236E3F50500D000EF324D96E030E57
:10336800F420DA6EDF50F10F266E3F50500D0C0E30
:10337800C3D03F50500D040EF326000EF422000E69
:10338800F324D96E030EF420DA6EDF502A6E3F5014
:10339800500D050EF326000EF422000EF324D96E0C
:1033A800030EF420DA6EDF502B6E3F50500D080EDE
:1033B800F326000EF422000EF324226E030EF420EE
:1033C800236E3F50500D000EF324D96E030EF420E7
:1033D800DA6EDF50F30F266E3F50500D0A0E8CD078
:1033E800218E010E296E000168510001D8B42FD03A
:1033F8003F50500D040EF326000EF422000EF32465
:10340800D96E030EF420DA6EDF502A6E3F50500D4D
:10341800050EF326000EF422000EF324D96E030ED7
:10342800F420DA6EDF502B6E3F50500D0D0E60D633
:103438003F50500D000EF324D96E030EF420DA6EBF
:10344800DF50ED0F266E3F50500D100E55D03F50F7
:10345800500D0D0EF326000EF422000EF324D96E43
:10346800030EF420DA6EDF502A6E3F50500D0E0E18
:10347800F326000EF422000EF324D96E030EF42076
:10348800DA6EDF502B6E3F50500D0F0EF326000EF4
:10349800F422000EF324226E030EF420236E52D67B
:1034A8003F50500D060EF326000EF422000EF324B2
:1034B800D96E030EF420DA6EDE28D8A40FD03F5060
:1034C800500D070EF326000EF422000EF324D96ED9
:1034D800030EF420DA6EDE28D8B421843F50500D54
:1034E800000EF324D96E030EF420DA6EDF50F60FC7
:1034F800266E3F50500D080EF326000EF422000EE3
:10350800F324246E030EF420256E19D08CEC3FF0C2
:10351800000E120000016651080AD8B4C1D7880A03
:10352800D8B493D6080AD8B4C7D6040AD8B458D79A
:10353800440AD8B49AD5040AD8B413D6E7D73F506A
:10354800500D010EF326000EF422000EF324D96E5E
:10355800030EF420DA6E0301DFA613D08CEC3FF0E3
:10356800000E1200FC0E21162ED02150FC0B010972
:10357800216E29D0030E211226D08CEC3FF0000ECC
:1035880012003F50500D010EF326000EF422000EDB
:10359800F324D96E030EF420DA6EDF50070B000116
:1035A800606F616B00016151000AD8A4E6D7000181
:1035B8006051000AD8B4DED7010AD8B4D3D7020ABA
:1035C800D8B4D3D7DAD7FF0E0001606FFF0E000121
:1035D800616F3F50500D000EF324D96E030EF42096
:1035E800DA6EDF500001626F636B00016051000109
:1035F80062270001615100016323000E0001646F1E
:10360800030E0001656F000162510001642700018B
:103618006351000165233F50500DF35000016425AC
:10362800D96EF45000016521DA6EDF50286E3F50E4
:10363800500D000EF324D96E030EF420DA6EDF501D
:103648000001606F3F50500D000E0001616F030EC6
:103658000001626FF35000016127F45000016223FA
:103668000001605100016125D96E0001000E0001C2
:103678006221DA6EDF50276E010E1200000E120072
:10368800010E0201DF6FBFEC38F0898E898C8B84C4
:10369800A7EC34F0000EABEC30F00101F1517AECFC
:1036A8003FF00009D8B4F9EF00F0000E11EC3FF03C
:1036B80053D0000EABEC30F0000E0001936F000EFB
:1036C8000001946F000E956F000E966F000E976FB5
:1036D800000EB4EC35F040EC3EF0AC0E00016C6F1F
:1036E800010E00016D6F080E00016E6FFF0E0001E4
:1036F8006F6FFAC070F00001716BF9C072F00001D1
:10370800736BF1C174F00001756B0BEC0FF0BC0E1C
:1037180000016C6F010E00016D6F330E00016E6FBA
:10372800FF0E00016F6FFCC070F00001716BFBC0F1
:1037380072F00001736B0BEC0FF0C0EC39F006D09F
:10374800E2EC3FF00009D8A4FEEC3FF0020148AFDC
:10375800F7D7000E0201DF6F0201DF05D8B4A9D741
:10376800000E0201E16F000E0201E26F000E02017D
:10377800DF6F899E899C8B94970E00018F6FFD0ED9
:103788000001906F000E0001916F000E0001926F12
:10379800F0EC3CF054D21FEC32F00201E06FE2ECA6
:1037A8003FF00009D8B479D043C1D9FF44C1DAFF4A
:1037B800DF500201E16F040E0201E119D8A41BD009
:1037C800010120EE01F04351D9264451DA220001CB
:1037D800FA51DE18D8A40CD0010120EE02F04351B2
:1037E800D9264451DA220001F951DE18D8B403D0A1
:1037F800000E0201E16F020E0201E119D8A44BD0BC
:10380800000E0201E36F090E0201E36501D043D007
:103818000201E3510E0D0C0EF326000EF4223C0EAD
:10382800F324D96E020EF420DA6E0201DFAE30D036
:10383800010120EE01F04151D9264251DA2202015C
:10384800E3510E0D030EF326000EF4223C0EF32472
:10385800E16E020EF420E26EDE50E618D8A418D00D
:1038680041C1D9FF42C1DAFF0201E3510E0D020E38
:10387800F326000EF4223C0EF324E16E020EF4202F
:10388800E26EDE50E618D8A403D0E3C237F003D0C6
:103898000201E32BB8D7FEEC3FF0020E0201E1195A
:1038A800D8A41BD00B0E0001F66F0001F651010DD4
:1038B800790EF324D96E010EF420DA6E020EDF6E53
:1038C8000001F62B000E0001DA6F375098EC2DF04E
:1038D800F6EC20F0010E0201DF6F0201E005D8A42A
:1038E800F3D00201E2510201D8A4EED0000E020189
:1038F800DE6F000E376E000E0201E36F090E020143
:10390800E36501D025D00201E3510E0D0C0EF3261C
:10391800000EF4223C0EF324D96E020EF420DA6E67
:103928000201DFAE12D00201E3510E0D0C0EF32698
:10393800000EF4223C0EF324D96E020EF420DA6E47
:103948000201DFAA02D00201DE2B0201E32BD6D747
:10395800010E0201DE659DD0000E0201DC6F000E33
:103968000201DD6F3B0E00018F6FFE0E0001906FAC
:10397800000E0001916F000E0001926FF0EC3CF018
:10398800000E0201E36F090E0201E36501D081D048
:103998000201E3510E0D0C0EF326000EF4223C0E2C
:1039A800F324D96E020EF420DA6E0201DFAE6AD07B
:1039B80040EC3EF0AC0E00016C6F010E00016D6F23
:1039C8001F0E00016E6FFF0E00016F6F0201E351C1
:1039D8000E0D030EF326000EF4223C0EF324D96ECE
:1039E800020EF420DA6EDF500101FA6F0101FA517C
:1039F8000001706F716B0201E3510E0D020EF32688
:103A0800000EF4223C0EF324D96E020EF420DA6E76
:103A1800DF500101FB6F0101FB510001726F736BF5
:103A28000BEC0FF0BC0E00016C6F010E00016D6F06
:103A3800A90E00016E6FFF0E00016F6F0BEC0FF007
:103A4800C0EC39F00201DD2B1FEC32F00201E06F0F
:103A58000201E005D8A406D0E3C237F0010E020146
:103A6800DC6F10D0020E0201E019D8A4EDD70201D4
:103A7800DE510201DD19D8A405D00201E369000E68
:103A88000201DD6F0201DC05D8B403D00201E32B8B
:103A98007AD70B0E0001F66F0001F651010D790E71
:103AA800F324D96E010EF420DA6E020EDF6E0001E7
:103AB800F62B000E0001DA6F375098EC2DF0F6EC7B
:103AC80020F0010E0201DF6F020E0201E019D8A4F6
:103AD80044D00201E22B030E0201E219D8A403D05C
:103AE800000E0201E26F0201E2510201D8A40FD0D8
:103AF800970E00018F6FFD0E0001906F000E000100
:103B0800916F000E0001926FF0EC3CF026D002019C
:103B1800E205D8A40FD0750E00018F6FFD0E0001CD
:103B2800906F000E0001916F000E0001926FF0EC93
:103B38003CF013D0020E0201E219D8A40ED0530EA5
:103B480000018F6FFD0E0001906F000E0001916F54
:103B5800000E0001926FF0EC3CF0030E0201E11937
:103B6800D8B408D00201E005D8A41CD00201E205AF
:103B7800D8A418D00B0E0001F66F0001F651010D04
:103B8800790EF324D96E010EF420DA6E030EDF6E7F
:103B98000001F62B000EBBEC36F029EC1EF0010EEE
:103BA8000201DF6F040E0201E119D8B409D0020145
:103BB800E005D8A43CD0020E0201E219D8A437D0FF
:103BC80040EC3EF0AC0E00016C6F010E00016D6F11
:103BD800080E00016E6FFF0E00016F6FFAC070F0E3
:103BE8000001716BF9C072F00001736BF1C174F0E0
:103BF8000001756B0BEC0FF0BC0E00016C6F010E31
:103C080000016D6F330E00016E6FFF0E00016F6FC4
:103C1800FCC070F00001716BFBC072F00001736BA7
:103C28000BEC0FF0C0EC39F0000E0201E16F050E4D
:103C38000201E119D8A403D0010E0201DF6F0201CD
:103C4800DF510201D8A48CD5A6D5010E0201D26F8E
:103C580002EC40F05B0E00018F6FFE0E0001906FCA
:103C6800000E0001916F010E0001926FF0EC3CF024
:103C780004EC40F022EC3EF074C0CBF275C0CCF2FC
:103C8800FBC020F1FCC021F1EFEC3BF060C0D7F2A3
:103C980061C0D8F262C0D9F263C0DAF2D7C2CDF2FD
:103CA800D8C2CEF2D9C2CFF2DAC2D0F295D2EFECB6
:103CB8003BF060C0D3F261C0D4F262C0D5F263C0F9
:103CC800D6F21FEC32F00201D16F0201D105D8B44F
:103CD80005D0020E0201D119D8A48CD00B0E000118
:103CE800F66F0001F651010D790EF324D96E010E1D
:103CF800F420DA6E010EDF6E0001F62B000EBBEC2D
:103D080036F002EC40F07A0E00018F6FFE0E0001D3
:103D1800906F000E0001916F010E0001926FF0ECA0
:103D28003CF004EC40F0EFEC3BF060C0D7F261C02F
:103D3800D8F262C0D9F263C0DAF257D0E2EC3FF0B1
:103D48000009D8B40DD043C1D9FF44C1DAFF040E2D
:103D5800DE18D8A403D0000E0201D26FFEEC3FF0AB
:103D6800D7C2EDF0D8C2EEF0D9C2EFF0DAC2F0F067
:103D78000001ED1FEE1FEF1FF01FED2B000EEE23CD
:103D8800EF23F0230201D3510001ED250001F16F6B
:103D98000201D4510001EE210001F26F0201D55158
:103DA8000001EF210001F36F0201D6510001F0215B
:103DB8000001F46F0001F4510BE1C10E0001F15D47
:103DC800C60E0001F2592D0E0001F359D8A003D0F8
:103DD800000E0201D26FEFEC3BF060C0D3F261C07D
:103DE800D4F262C0D5F263C0D6F20201D251020108
:103DF800D8A4A4D7CDC2EDF0CEC2EEF0CFC2EFF07A
:103E0800D0C2F0F00001ED1FEE1FEF1FF01FED2BE9
:103E1800000EEE23EF23F0230201D3510001ED251C
:103E28000001F16F0201D4510001EE210001F26F8F
:103E38000201D5510001EF210001F36F0201D651B3
:103E48000001F0210001F46F0001F4510BE1810E33
:103E58000001F15D840E0001F2591E0E0001F359B4
:103E6800D8A01FD038500E0D0C0EF326000EF422E9
:103E78003C0EF324D96E020EF420DA6E0201DFAE96
:103E880002D0382A02D0000E386EA8EC2FF0EFECE2
:103E98003BF060C0CDF261C0CEF262C0CFF263C029
:103EA800D0F2D7C2EDF0D8C2EEF0D9C2EFF0DAC244
:103EB800F0F00001ED1FEE1FEF1FF01FED2B000EBD
:103EC800EE23EF23F0230201D3510001ED25000179
:103ED800F16F0201D4510001EE210001F26F0201DD
:103EE800D5510001EF210001F36F0201D651000105
:103EF800F0210001F46F0001F4510BE1A10E000163
:103F0800F15D250E0001F259260E0001F359D8A0E3
:103F180066D0CBC28AF0CCC28BF020EC2BF0FAEC46
:103F28003EF068C0C8F269C0C9F26AC0CAF2000EA1
:103F38000101706F000E6F6FC8C260F0C9C261F0F6
:103F4800CAC262F071EC33F00001605101016F6F79
:103F5800706B0B0E0001F66F0001F651010D790E22
:103F6800F324D96E010EF420DA6E030EDF6E000121
:103F7800F62B0001F651010D790EF324D96E010ECE
:103F8800F420DA6E6FC1DFFF0001F62B0001F65155
:103F9800010D790EF324D96E010EF420DA6EFBC000
:103FA800DFFF0001F62B0001F651010D790EF32415
:103FB800D96E010EF420DA6EFCC0DFFF0001F62B8B
:103FC8006FC122F1000EBBEC36F0EFEC3BF060C0A5
:103FD800D7F261C0D8F262C0D9F263C0DAF2E2EC7B
:103FE8003FF00009D8B4F8D043C1D9FF44C1DAFF83
:103FF800DE04D8A42DD0FEEC3FF00B0E0001F66FC6
:104008000001F651010D790EF324D96E010EF4204A
:10401800DA6E040EDF6E0001F62B000E0001DA6F77
:10402800000E98EC2DF0000E0201D26F02EC40F069
:104038007A0E00018F6FFE0E0001906F000E0001D6
:10404800916F010E0001926FF0EC3CF004EC40F02F
:10405800000E0201DB6F090E0201DB6501D0BAD048
:104068000201DB510E0D0C0EF326000EF4223C0E5D
:10407800F324D96E020EF420DA6E0201DFAEA7D067
:10408800010120EE02F04351D9264451DA220201FF
:10409800DB510E0D020EF326000EF4223C0EF32423
:1040A800E16E020EF420E26EDE50E618D8A48FD03E
:1040B800010120EE03F04351D9264451DA220201CE
:1040C800DB510E0D030EF326000EF4223C0EF324F2
:1040D800E16E020EF420E26EDE50E618D8A477D026
:1040E80043C1D9FF44C1DAFF030EDE18D8A46FD04C
:1040F800010120EE01F04351D9264451DA22010E84
:104108000201DB250001606F0001616B000E612375
:10411800000E0001636F030E626F79EC3EF0020E31
:1041280000016027000E00016123200E00016025B8
:10413800E16E010E00016121E26EDFCFE7FF0101B0
:1041480020EE02F04351D9264451DA22010E020131
:10415800DB250001606F0001616B000E6123000E1A
:104168000001636F030E626F79EC3EF0200E0001D0
:104178006025E16E010E00016121E26EDFCFE7FFED
:10418800010120EE03F04351D9264451DA22010EF1
:104198000201DB250001606F0001616B000E6123E5
:1041A800000E0001636F030E626F79EC3EF0010EA2
:1041B80000016027000E00016123200E0001602528
:1041C800E16E010E00016121E26EDFCFE7FF02011F
:1041D800DB2B41D7FEEC3FF00201D2510201D8B4EB
:1041E800120065D5010E0201D46F010E0201C96FDC
:1041F800000E0201D56F000E0201CA6F000E020107
:10420800C86F02EC40F0FB0E00018F6FFD0E00013D
:10421800906F000E0001916F010E0001926FF0EC9B
:104228003CF004EC40F0EFEC3BF060C0D0F261C031
:10423800D1F262C0D2F263C0D3F26CD2EFEC3BF0A1
:1042480060C0CBF261C0CCF262C0CDF263C0CEF2E6
:10425800D0C2EDF0D1C2EEF0D2C2EFF0D3C2F0F08E
:104268000001ED1FEE1FEF1FF01FED2B000EEE23D8
:10427800EF23F0230201CB510001ED250001F16F7E
:104288000201CC510001EE210001F26F0201CD5173
:104298000001EF210001F36F0201CE510001F0216E
:1042A8000001F46F0001F4510BE1810E0001F15D92
:1042B800840E0001F2591E0E0001F359D8A041D115
:1042C80040EC3EF00201C9510201D8B4BED0B80E8C
:1042D80000018F6FFE0E0001906F000E0001916FBC
:1042E800010E0001926FF0EC3CF00B0E0001F66F2E
:1042F8000001F651010D790EF324D96E010EF42058
:10430800DA6E020EDF6E0001F62B0001F651010D88
:10431800790EF324D96E010EF420DA6E4D0EDF6E9D
:104328000001F62B0001F651010D790EF324D96E28
:10433800010EF420DA6E690EDF6E0001F62B000123
:10434800F651010D790EF324D96E010EF420DA6EC0
:10435800570EDF6E0001F62B0001F651010D790EA4
:10436800F324D96E010EF420DA6E690EDF6E0001B7
:10437800F62B0001F651010D790EF324D96E010ECA
:10438800F420DA6E200EDF6E0001F62B0001F651E4
:10439800010D790EF324D96E010EF420DA6E520E57
:1043A800DF6E0001F62B0001F651010D790EF324A2
:1043B800D96E010EF420DA6E6F0EDF6E0001F62B57
:1043C8000001F651010D790EF324D96E010EF42087
:1043D800DA6E630EDF6E0001F62B0001F651010D57
:1043E800790EF324D96E010EF420DA6E6B0EDF6EAF
:1043F8000001F62B0001F651010D790EF324D96E58
:10440800010EF420DA6E730EDF6E0001F62B000148
:10441800F651010D790EF324D96E010EF420DA6EEF
:10442800210EDF6E0001F62B000E0001DA6F375007
:1044380098EC2DF00009D8A403D00201CA2B03D0B0
:10444800000E0201CA6F000E70D00201CA510201AB
:10445800D8A457D0780E0201D56511D0AC0E000152
:104468006C6F010E00016D6F990E00016E6FFF0EEB
:1044780000016F6F0BEC0FF08B84899C18D0790EBC
:104488000201D56116D03C0E0201D56512D0AC0EE2
:1044980000016C6F010E00016D6F780E00016E6FE8
:1044A800FF0E00016F6F0BEC0FF08B8415D0899E07
:1044B80015D03D0E0201D56111D0AC0E00016C6F14
:1044C800010E00016D6FC80E00016E6FFF0E000136
:1044D8006F6F0BEC0FF08B94898CE9D7BC0E000141
:1044E8006C6F010E00016D6FB90E00016E6FFF0E4B
:1044F80000016F6FD5C270F00001716B0BEC0FF00B
:1045080011D0DA0E00018F6FFD0E0001906F000EC2
:104518000001916F010E0001926FF0EC3CF08B945A
:10452800899C898EC0EC39F0010E0201C96FEFEC4D
:104538003BF060C0D0F261C0D1F262C0D2F263C079
:10454800D3F2E2EC3FF00009D8B448D043C1D9FF18
:1045580044C1DAFFDF500201C86F0201C805D8A4C0
:104568002ED0FEEC3FF00B0E0001F66F0001F65165
:10457800010D790EF324D96E010EF420DA6E040EC3
:10458800DF6E0001F62B000E0001DA6F375098EC51
:104598002DF0000E0201D46F02EC40F01B0E00015A
:1045A8008F6FFE0E0001906F000E0001916F010EDB
:1045B8000001926FF0EC3CF004EC40F00FD043C1E6
:1045C800D9FF44C1DAFF020EDE18D8A405D046C1CF
:1045D800D5F2FEEC3FF002D0FEEC3FF01FEC32F0DB
:1045E8000201CF6F0201CF05D8B405D0020E020137
:1045F800CF19D8A48FD00B0E0001F66F0001F65129
:10460800010D790EF324D96E010EF420DA6E010E35
:10461800DF6E0001F62B000E0001DA6F375098ECC0
:104628002DF002EC40F01B0E00018F6FFE0E000112
:10463800906F000E0001916F010E0001926FF0EC77
:104648003CF004EC40F0EFEC3BF060C0D0F261C00D
:10465800D1F262C0D2F263C0D3F257D0E2EC3FF09D
:104668000009D8B40DD043C1D9FF44C1DAFF040E04
:10467800DE18D8A403D0000E0201D46FFEEC3FF080
:10468800D0C2EDF0D1C2EEF0D2C2EFF0D3C2F0F05A
:104698000001ED1FEE1FEF1FF01FED2B000EEE23A4
:1046A800EF23F0230201CB510001ED250001F16F4A
:1046B8000201CC510001EE210001F26F0201CD513F
:1046C8000001EF210001F36F0201CE510001F0213A
:1046D8000001F46F0001F4510BE1C10E0001F15D1E
:1046E800C60E0001F2592D0E0001F359D8A003D0CF
:1046F800000E0201D46FEFEC3BF060C0CBF261C05A
:10470800CCF262C0CDF263C0CEF20201D4510201F4
:10471800D8A4A4D70201D4510201D8B412008ED56E
:104728000001A851070B0001AD6F0001AD51000158
:10473800FC19D8A444D0800E0001A76513D0A5C0E9
:104748006AF0A6C06BF0A70E00016C6F000E0001A6
:104758006D6F010E00016E6FA9C06FF0000EC8ECFE
:1047680029F01200000E2C6E2C8A0001A9B102D08B
:104778002C9601D02C86A7C0FDF0A8C0FEF0010E33
:104788002F6E010E306EFD0E2D6E000E2E6EF9C0CE
:1047980031F0FAC032F020EE2CF000EE7EF0060E7A
:1047A800DBCFEBFFE806FCE2790E0001856F010E16
:1047B8000001866FF6C087F00BEC26F01200ADC042
:1047C800AAF0010E0001AB6F0001AA2B03D0000173
:1047D800D890AB370001AA2FFAD70001AB510101DD
:1047E80076150009D8B481D00001AD51010D480EED
:1047F800F324D96E010EF420DA6E020EDF642DD098
:104808000001AD51010D480EF324D96E010EF420BC
:10481800DA6E000EDF6EADC0AAF0010E0001AB6FBC
:104828000001AA2B03D00001D890AB370001AA2FB2
:10483800FAD70001AB51FF0A010176170001AD510B
:10484800010D500EF324D96E010EF420DA6E000E1D
:10485800DF6E13EC34F0000E1200000E2C6E2C8A62
:104868000001A9B102D02C9601D02C86000E0001BF
:10487800FD6FADC0FEF0010E2F6E010E306EFD0E05
:104888002D6E000E2E6EF9C031F0FAC032F020EE17
:104898002CF000EE7EF0060EDBCFEBFFE806FCE224
:1048A800790E0001856F010E0001866FF6C087F052
:1048B8000BEC26F00009D8A40BD00001AD51010D76
:1048C800480EF324D96E010EF420DA6EDF2AC3D71E
:1048D8000001AD51010D480EF324D96E010EF420EC
:1048E800DA6E000EDF6E010E1200000E0001AE6FD0
:1048F800070E0001AE6501D0DFD00001AE51010DF9
:10490800500EF324D96E010EF420DA6EDF50000148
:10491800AA6FADC0ABF0010E0001AC6F0001AB2B6C
:1049280003D00001D890AC370001AB2FFAD70001B3
:10493800AC510001AA150009D8B4BBD00001AE5192
:10494800010D480EF324D96E010EF420DA6E020E22
:10495800DF6466D00001AE51010D480EF324D96E14
:10496800010EF420DA6E000EDF6EAEC0AAF0010E62
:104978000001AB6F0001AA2B03D00001D890AB3720
:104988000001AA2FFAD70001AB51FF0A01017617DF
:104998000001AE51010D500EF324D96E010EF42022
:1049A800DA6E000EDF6E0001F851D8B403D013ECB4
:1049B80034F034D0000E0001F66F0001F651010DFD
:1049C800790EF324D96E010EF420DA6E070EDF6E2D
:1049D8000001F62B0001F651010D790EF324D96E72
:1049E800010EF420DA6EFFC0DFFF0001F62B010193
:1049F800ED69EE69ED0E00019D6F010E00019E6FDD
:104A0800000E00019F6F000E0001A06F010E000153
:104A1800A16F000E0001A26F16EC39F0000E120013
:104A2800000E2C6E2C8A0001A9B102D02C9601D060
:104A38002C86000E0001FD6FAEC0FEF0010E2F6E39
:104A4800010E306EFD0E2D6E000E2E6EF9C031F087
:104A5800FAC032F020EE2CF000EE7EF0060EDBCF2E
:104A6800EBFFE806FCE2790E0001856F010E0001FC
:104A7800866FF6C087F00BEC26F00009D8A40CD09E
:104A88000001AE51010D480EF324D96E010EF42039
:104A9800DA6EDF2A000E12000001AE51010D480E39
:104AA800F324D96E010EF420DA6E000EDF6E010ECB
:104AB80012000001AE2B1CD7020E0001F819D8B461
:104AC8006DD0000E2C6E2C8A0001A9B102D02C9654
:104AD80001D02C860001F805D8B430D0000E0001B2
:104AE800AE6F070E0001AE6501D01FD001017651EF
:104AF800D8B418D0AEC0AAF0010E0001AB6F000EFA
:104B08000001AC6F0001AA2B04D0D8900001AB378C
:104B1800AC370001AA2FF9D70001AB510001AC1145
:104B2800D8A403D00001AE2BDCD7080E0001AE617B
:104B380005D0AEC0FEF0000E000104D0000E00014A
:104B4800FE6F000EFD6F010E2F6E010E306EFD0E12
:104B58002D6E000E2E6EF9C031F0FAC032F020EE44
:104B68002CF000EE7EF0060EDBCFEBFFE806FCE251
:104B7800790E0001856F010E0001866FF6C087F07F
:104B88000BEC26F00009D8A404D00101482B000E34
:104B98001200000E0101486F010E1200000E2C6E6B
:104BA8002C8A0001A9B102D02C9601D02C86ADC068
:104BB800FEF0000E0001FD6F010E2F6E010E306E2B
:104BC800FD0E2D6E000E2E6EF9C031F0FAC032F0D7
:104BD80020EE2CF000EE7EF0060EDBCFEBFFE806B1
:104BE800FCE2790E0001856F010E0001866FF6C0A8
:104BF80087F00BEC26F00009D8A404D00101482B5B
:104C0800000E1200000E0101486F010E1200000E86
:104C180000019C6F000E00019B6F00017EA503D070
:104C2800010E0001816F00017EA703D0000E000174
:104C3800826F00017E51030BE806D8A402D0030E50
:104C480007D000017E51030B0009D8A403D0010E40
:104C58000001996F3D500001831911E13E50000198
:104C68008419D8A40CD03D2803E13E28D8B407D035
:104C7800050E00019A6F0001998D010E04D0070EF0
:104C880000019A6F000E0001986F00018151D8B49D
:104C980002D0020E01D0080E00019A2700018251AD
:104CA800D8B402D0020E01D0080E00019A270001E4
:104CB8007EAB05D000017EB502D00001998B0001C2
:104CC8007E51030B030AD8A40ED0000E0001996F81
:104CD800070E00019A6F000E0001986F010E000187
:104CE800826F00017E9B9CC062F00001636B9AC0DA
:104CF80064F0BFEC3CF000019C2B9CC062F000010A
:104D0800636B00019A51000187250001646FBFECB5
:104D18003CF000019C2B9CC062F00001636B99C0C1
:104D280064F0BFEC3CF000019C2B00017E51030BAA
:104D3800030AD8A416D09CC062F00001636B800EF1
:104D48000001646FBFEC3CF000019C2B9CC062F03A
:104D58000001636B71C164F0BFEC3CF00101712B81
:104D68009CD000018151D8B40ED000018251D8B432
:104D78000AD09CC062F00001636B880E0001646F6A
:104D8800BFEC3CF02DD000018151D8B40ED0000109
:104D98008251D8A40AD09CC062F00001636BC80E8F
:104DA8000001646FBFEC3CF01BD000018151D8A416
:104DB8000ED000018205D8A40AD09CC062F0000180
:104DC800636B8C0E0001646FBFEC3CF009D09CC093
:104DD80062F00001636BCC0E0001646FBFEC3CF025
:104DE80000019C2B9CC062F00001636B71C164F0F0
:104DF800BFEC3CF00101712B00019C2B9CC062F0C0
:104E08000001636B83C064F0BFEC3CF000019C2B95
:104E18009CC062F00001636B84C064F0BFEC3CF09E
:104E280000019C2B00017EA515D09CC062F00001FA
:104E3800636BFF0E0001646FBFEC3CF000019C2B1C
:104E48009CC062F00001636BFF0E0001646FBFEC51
:104E58003CF023D000018151D8B422D09CC062F02C
:104E68000001636B7FC0D9FF80C0DAFFDF5000010B
:104E7800646FBFEC3CF000019C2B9CC062F0000109
:104E8800636B000120EE01F07F51D9268051DA22B0
:104E9800DF500001646FBFEC3CF000019C2B21D077
:104EA800000E00019B6F070E00019B6501D019D011
:104EB8009CC062F00001636B00019B51010DF3502F
:104EC80000017F25D96EF45000018021DA6EDF5091
:104ED8000001646FBFEC3CF000019C2B00019B2B90
:104EE800E2D7000198510001D8A414D09CC062F008
:104EF8000001636B3DC064F0BFEC3CF000019C2BEB
:104F08009CC062F00001636B3EC064F0BFEC3CF0F3
:104F180000019C2B00018251D8B415D09CC062F0CE
:104F28000001636BEBC164F0BFEC3CF000019C2B0B
:104F38009CC062F00001636BECC164F0BFEC3CF014
:104F480000019C2B21D0000E00019B6F070E000171
:104F58009B6501D019D09CC062F00001636B000111
:104F68009B51010DF35001016925D96EF4500101DF
:104F78006A21DA6EDF500001646FBFEC3CF000017B
:104F88009C2B00019B2BE2D7000E00019B6F18D0D1
:104F98009CC062F00001636B00019B51010DF3504E
:104FA80000018525D96EF45000018621DA6EDF50A4
:104FB8000001646FBFEC3CF000019C2B00019B2BAF
:104FC8000001875100019B5DD8A0E2D7398000011C
:104FD8007EAB08D000017EB505D0050E00019B6FA1
:104FE800398204D0010E00019B6F39929BC062F098
:104FF800370EC9EC3EF0EFEC3BF060C090F061C0BA
:1050080091F062C092F063C093F081A0F28239B04F
:1050180005D039A457D03994000E1200EFEC3BF0BC
:1050280060C094F061C095F062C096F063C097F0DC
:1050380090C088F091C089F092C08AF093C08BF03C
:105048000001881F891F8A1F8B1F882B000E892348
:105058008A238B23000194510001882500018C6F5D
:10506800000195510001892100018D6F00019651C1
:1050780000018A2100018E6F0001975100018B21E8
:1050880000018F6F00018F5100018E1108E1210E80
:1050980000018C5D4E0E00018D59D8A0B6D768EC82
:1050A80028F0EB0E0001656F010E0001666F3D0EE2
:1050B8000001676F000E0001686F27EC3CF0399023
:1050C800000E1200010E12008C90030E0001736F87
:1050D800000E746F000E756F000E766F22D09A0E58
:1050E80000016B6F020E6C6F000E6D6F000E6E6F1D
:1050F80000016B07000E6C5B6D5B6E5B00016B293A
:10510800F7E100016C29F4E100016D29F1E10001EA
:105118006E29D8A4EDD700017307000E745B755B88
:10512800765B0001735100017411000175110001D3
:105138007611D8A4D4D78C800A0E0001776F000EA0
:10514800786F000E796F000E7A6F22D09A0E0001E8
:105158006F6F020E706F000E716F000E726F00019C
:105168006F07000E705B715B725B00016F29F7E1DE
:1051780000017029F4E100017129F1E100017229AF
:10518800D8A4EDD700017707000E785B795B7A5BCE
:1051980000017751000178110001791100017A119D
:1051A800D8A4D4D7070E0001626F550EC9EC3EF0A3
:1051B800540E94EC3EF000017D6F7DC06AF0070E3E
:1051C80000016A17D8A4F4D7000E00017C6F000E06
:1051D8007B6FE80E00017B5D030E00017C59D8B09F
:1051E80004D000017B4B7C2BF4D7010E0001626FC9
:1051F8001B0EC9EC3EF0FF0E0001626F070EC9ECF2
:105208003EF0FF0E0001626F090EC9EC3EF0FF0E82
:105218000001626F030EC9EC3EF0FF0E0001626FE1
:10522800050EC9EC3EF0000E00017D6F070E00016F
:105238007D6501D018D000017D51010DF3500101A9
:105248006925D96EF45001016A21DA6EDF50000138
:10525800626F00017D51020DF3500B0FC9EC3EF057
:1052680000017D2BE3D7020E0001636F020E626F0F
:10527800800E0001646FBFEC3CF0020E0001636F0A
:10528800030E626F000E0001646FBFEC3CF0020E6B
:105298000001636F060E626F900E0001646FBFEC31
:1052A8003CF0020E0001636F070E626F800E000172
:1052B800646FBFEC3CF0020E0001636F080E626F72
:1052C800100E0001646FBFEC3CF0020E0001636F2A
:1052D800200E626F210E0001646FBFEC3CF0800E5F
:1052E8000001626F750EC9EC3EF0400E0001626F5E
:1052F8007D0EC9EC3EF0600E0001626F7F0EC9ECB6
:105308003EF0980E0001626F310EC9EC3EF0950E2A
:105318000001626F5D0EC9EC3EF0020E0001636F82
:105328000F0E626F5CEC3CF000017D6F00017D5157
:10533800A00BA00AD8A4F1D7E60E0001626F650E93
:10534800C9EC3EF0B90E0001626F250EC9EC3EF0C3
:10535800020E0001636F000E626F030E0001646F9E
:10536800BFEC3CF0020E0001636F010E626F020E8B
:105378000001646FBFEC3CF0000E0001686F010192
:1053880072511BEC3DF012000001726F000E00011B
:10539800746F010E0001746501D04CD10001745185
:1053A800430D0E0EF326000EF422000EF324D96EE0
:1053B800040EF420DA6E0401DFB039D10001745113
:1053C800430D0E0EF326000EF422000EF324D96EC0
:1053D800040EF420DA6E000EDF6E00017451430DE6
:1053E8000E0EF326000EF422000EF324D96E040EDE
:1053F800F420DA6E000172B103D00401DF9202D00A
:105408000401DF8200017451430D0E0EF326000ED5
:10541800F422000EF324D96E040EF420DA6E000193
:105428006FB103D00401DF9602D00401DF860001CA
:105438007451430D0E0EF326000EF422000EF324D1
:10544800D96E040EF420DA6E0401DF800001745175
:10545800430D0E0EF326000EF422000EF324D96E2F
:10546800040EF420DA6E00016EB103D00401DF9857
:1054780002D00401DF8800016E510001D8A43BD09E
:10548800000172510001D8A464D0000E0001736FAE
:10549800070E0001736501D05CD000017351010D46
:1054A800F35000016C25D96EF45000016D21DA6EBD
:1054B80000017351010D060EF326000EF422000EB2
:1054C8000001706F040E0001716FF3500001702726
:1054D800F4500001712300017451430DF350000191
:1054E8007025E16EF45000017121E26EDFCFE7FF15
:1054F8000001732BCDD7000172510001D8A429D027
:105508006CC0D9FF6DC0DAFF00017451430D060E5F
:10551800F326000EF422000EF324E16E040EF420AC
:10552800E26EDFCFE7FF000120EE01F06C51D926D3
:105538006D51DA2200017451430D070EF326000E57
:10554800F422000EF324E16E040EF420E26EDFCFA5
:10555800E7FF00017451430D040EF326000EF422F8
:10556800000EF324D96E040EF420DA6E6AC0DEFF52
:105578006BC0DDFF00017451430D0F0EF326000EC2
:10558800F422000EF324D96E040EF420DA6EF6C06D
:10559800DFFF000E0001736F2BD000017351010D66
:1055A800790EF324D96E010EF420DA6E00017351DE
:1055B800010D100EF326000EF422000E0001706F8C
:1055C800040E0001716FF35000017027F4500001C0
:1055D800712300017451430DF35000017025E16EF1
:1055E800F45000017121E26EDFCFE7FF0001732B59
:1055F8000001F6510001735DD8A0CFD7EFEC3BF066
:1056080000017451430D000EF324D96E040EF420EA
:10561800DA6E000160C0DEFF000161C0DEFF00013C
:1056280062C0DEFF000163C0DEFF010E1200000150
:10563800742BAFD6000E1200000E0001996F000EF9
:105648000001966F000E0001976F000E0001986F21
:10565800040EC26EBD0EC16E9E9C9D9CC2800A0E39
:1056680000016C6F000E6D6F000E6E6F000E6F6F95
:1056780014EC3AF0C282C2B2FED7000E00017B6F72
:10568800960E00017C6F440E00017D6F8AC068F0A1
:105698008BC069F027EC3FF068C07EF069C07FF0EE
:1056A8006AC080F0CBEC32F07BC092F07CC093F003
:1056B8007DC094F0C3CF90F0C4CF91F090C068F053
:1056C80091C069F027EC3FF068C07BF069C07CF0BE
:1056D8006AC07DF092C07EF093C07FF094C080F0E5
:1056E80070EC31F07BC092F07CC093F07DC094F0F8
:1056F800000E0001726FFA0E0001736FC30E0001F5
:10570800746F92C06FF093C070F094C071F064EC45
:105718002CF06FC07BF070C07CF071C07DF0000E83
:1057280000017E6F200E00017F6F410E0001806F27
:10573800CBEC32F07BC092F07CC093F07DC094F04B
:1057480000019951010D8C0EF324D96E000EF4203E
:10575800DA6E92C060F093C061F094C062F071ECB0
:1057680033F000016051DF6EC290010E00016C6FD2
:10577800000E6D6F000E6E6F000E6F6F14EC3AF036
:105788000001992B030E0001996568D7000E0001EE
:10579800996F030E0001996501D023D0000199513A
:1057A800010D8C0EF324D96E000EF420DA6EDF5052
:1057B800FAEC3EF068C06FF069C070F06AC071F032
:1057C80096C072F097C073F098C074F064EC2CF037
:1057D8006FC096F070C097F071C098F00001992BD7
:1057E800D8D796C07BF097C07CF098C07DF0000EAB
:1057F80000017E6F800E00017F6F400E0001806FF8
:10580800CBEC32F07BC096F07CC097F07DC098F06E
:1058180096C060F097C061F098C062F071EC33F008
:10582800000160510001956F96C072F097C073F047
:1058380098C074F000019551FAEC3EF068C06CF025
:1058480069C06DF06AC06EF0E2EC3EF06CC06FF0BB
:105858006DC070F06EC071F064EC2CF06FC07BF01E
:1058680070C07CF071C07DF0000E00017E6F200ECC
:1058780000017F6F410E0001806F70EC31F07BC03A
:1058880096F07CC097F07DC098F096C060F097C005
:1058980061F098C062F0000E0001636FA00E000175
:1058A800646F400E0001656F9FEC37F00001D8A0CF
:1058B80004D0000195290001956F0001955112004F
:1058C80071C075F00001766B776B000170350001CF
:1058D800753701E376810001755100017A6F74C054
:1058E80075F00001766B776B000173350001753731
:1058F80001E37681000175510001796F00017A5149
:105908000001D8B411D00001795100017A5DD8B0F6
:1059180012D000017A510008000179250001756F45
:10592800180E0001756507D072C06FF073C070F073
:1059380074C071F01200000179510001D8B411D07F
:1059480000017A510001795DD8B012D00001795177
:10595800000800017A250001756F180E00017565B1
:1059680007D06FC06FF070C070F071C071F0120096
:10597800060E0001786F000171AF02D00001788F28
:10598800000174AF02D00001788D0001708FFF0E06
:1059980000016F17FF0E00017017000E000171174C
:1059A8000001738FFF0E00017217FF0E00017317BD
:1059B800000E000174170001795100017A5DD8B01A
:1059C80025D00001D89072377337743700017907F2
:1059D80000017A5100017919D8B411D00001780773
:1059E80078C075F0070E00017517D8B408D0E9D74C
:1059F8000001D890713370336F3300017A2B0001A6
:105A0800795100017A19D8B42BD0F2D700017A5114
:105A18000001795DD8B024D00001D8906F37703775
:105A2800713700017A0700017A5100017919D8B459
:105A380011D00001780778C075F0070E00017517BE
:105A4800D8B408D0E9D70001D890743373337233CF
:105A58000001792B0001795100017A19D8A4F3D7F4
:105A6800000178AF12D0FF0E00016F1BFF0E00017E
:105A7800701BFF0E0001711B010E00016F27000E45
:105A880000017023000E00017123000178AD12D0CF
:105A9800FF0E0001721BFF0E0001731BFF0E0001B9
:105AA800741B010E00017227000E00017323000E03
:105AB80000017423000E0001786F00016F5100018E
:105AC8007227000170510001732300017151000118
:105AD8007423000174AF15D0FF0E0001721BFF0E76
