:020000040000fa
:080000000002040000000000f2
:020000040000fa
:10040000cfce20000e7f22000e01880000000000e9
:1004100000012000200288000c00070060892400f1
:100420000100200011000700000020000000e00093
:10043000020032000000020000000000f24e020044
:10044000000000000040da000000fe004440a90067
:10045000a05e20000000e000030032000000200049
:10046000a00188004440a800000006009101880017
:10047000800078000000eb0015003700e2804000ab
:1004800032a0b4009101ba00e280400032a0b40072
:100490009102ba00e280400032a0b4000002eb00fa
:1004a000472bde00f507b200602ce10004003a00a3
:1004b0000059eb008301e900fdff3e000400370016
:1004c0006128e100010032000082eb000400070017
:1004d0001101ba000200e000e8ff3a000000060047
:1004e0003159ba008301e9000c0032002159ba00e9
:1004f0008301e900080032000400e00003003a0034
:10050000e280400032a0b400f5ff370011d9ba00f4
:100510008301e900faff3a008100e800e180400031
:1005200032a0b400000006000040da000000fe0027
:100530000002780002003700015a78000201e90049
:10054000e00f5100fcff3a00000006000c00fa002a
:10055000889fbe0000047800f4ff2700d4bf9f00ee
:100560008004eb0099bf9f0088bf9f00a8bf9f0039
:10057000240c2000b4bf9f0078815700cfb09700b3
:10058000708057005e0307000fba9700094a780091
:100590000fba9700080052004f04be000080fa0016
:1005a000000006000c00fa00889fbe0000047800de
:1005b000f4ff2700d4bf9f008004eb0099bf9f0089
:1005c00088bf9f00a8bf9f00240c2000b4bf9f00dd
:1005d00078815700cfb09700708057000700070060
:1005e0000fba9700094a78000fba97000800520026
:1005f0004f04be000080fa00000006002f03b00088
:10060000889fbe008a9fbe008c9fbe008e1f780010
:10061000e0af9f00c1af9f00b2b79f008006eb0024
:100620006e023700cfa897008100e800c1af9f009d
:1006300054c2b300844f500006003a000102780013
:100640000006eb0001c3b30000c2b300b7c2b300a1
:10065000070037000000fb00efa897007b0a0700a7
:10066000e10f40005d0232008d06e8005b023700ba
:100670008402780034437800d2c2b300824f530022
:100680000900320005003c00804f53000800320092
:10069000874f53000c003a0007003700814f53008a
:1006a00009003a00060037000c30a000f0ff3700c8
:1006b0000c00a000eeff37000c10a000ecff37008c
:1006c0000c20a000eaff3700620266000100320041
:1006d0000c00a10068026600010032000c20a1009d
:1006e0000602fb000403b100e90f52000c003e00bb
:1006f000050378000002eb006a22b900b603fb0094
:100700000703b10004824300860278009603fb00d1
:100710000703b100e98f5300f7ff360008003700e8
:100720000002eb00a7c2b300874f530004003a0059
:10073000bfb1970043027800b3b79f008502e8007d
:100740000007eb00e6c2b300954f13000a003a0021
:100750000ce0a00064435300d54f130002003200a8
:1007600005037800080037003fb39700460778007c
:10077000b6b79f008502e80005037800080037003f
:100780006a70b9000087430086027800b603fb0058
:100790000703b100e98f5300f9ff3600f6ff370079
:1007a000b6427800c6af9f00c0c6b30080cf5200eb
:1007b000250032000f003c0036c6b30086cf520041
:1007c0006e00320004003c00e0cf5200080232000c
:1007d0006b4353000f00370046c6b30086cf52006c
:1007e000170032006543430086cf520083003a0071
:1007f0001300370036c7b30086cf52001f00320007
:1008000007003c006443530086cf520014003200be
:100810000643e80086cf520078003a001300370004
:1008200056c7b30086cf52007900320063434300bd
:1008300086cf520071003a00a5c79f000d00370017
:10084000a5c79f0074003700f00366000501200073
:10085000010032000500280005067600d0ff3700b1
:10086000a5c79f000c60a0006b003700a5c79f00c4
:100870000c50a0000c70a00067003700a5c79f00b7
:10088000bfb09700c1027800b1b79f00050478009f
:10089000e08f520001003a00c8c820000803780029
:1008a0008002eb00010037008502e800e6c37a0011
:1008b000e0cf5300fcff3a0085047800e00f5700ba
:1008c00003003200890f5700010031008e047800c8
:1008d0000007eb00890f52000100360009075200a3
:1008e0006806660014003a0007003700efa897007a
:1008f00000022000d5090700e10f4000010032008e
:100900008d06e8000e07e900e00f5700f7ff3a00f8
:100910000087eb0008003700080278003400fb0075
:1009200004047800efa89700c8090700e10f400011
:10093000010032008d06e800090278008404e90015
:10094000e00f5200f4ff3a00e00f5600a30132001e
:1009500007003700efa8970000022000bb0907003e
:10096000e10f4000010032008d06e8000e07e900ab
:10097000e00f5700f7ff3a00980137003fb19700aa
:10098000c2027800b2b79f0005007800cf80de0079
:100990000101780082017800f0af9f0081b79f00cd
:1009a00092b79f00a3b79f004800de00c80add0091
:1009b00000807200a0c79f0070036600090032002b
:1009c000e04f500007003200e14f400005003200c8
:1009d000b0c79f006fdb9700c6c79f0029002000ab
:1009e00003003700efdb9700b7c79f001900200016
:1009f00038fc2f000f044400b0ff3700a5c79f004c
:100a000028fc2f000f04440019002000abff370022
:100a1000a5c79f000c0cb3008c027800050cb20037
:100a20002b003a00e00f560005003d003fb0970054
:100a30004005be004004be00b0b79f00170037005d
:100a4000f00266000f003200bfb297004501be0001
:100a5000b5b79f00c2a79f00d3a79f0005037800ea
:100a600096029000cfaade00e5a79f00f5a79f00a1
:100a70004fa49700dfa497006fa59700ffa59700ec
:100a8000060037003fb0970040047800b0b79f00e1
:100a9000cfc4de00090578008a057800e00f540015
:100aa000e08f5c00e00f5d00e08f5d0025003d0001
:100ab0003c00b3006000b8006011b80008045000aa
:100ac000898458000a0559008b8559001d0037009c
:100ad000e00f560005003d00bfb097004105be0085
:100ae0004104be00b1b79f0016003700f002660057
:100af0000e003200bfb297004501be00b5b79f009f
:100b000082af9f0093af9f000003eb00a6af9f0052
:100b10008003eb00b7af9f000fac97009fac97002e
:100b20002fad9700bfad9700060037003fb097008c
:100b300040047800b0b79f00090020000a002000a0
:100b40000b002000e00f570007003a001e002000b5
:100b5000e00f5400e08f5c00e00f5d00e08f5d006f
:100b6000010032000007eb008c007800010cb2009d
:100b7000f1af9f0005042000858f50002c0032004b
:100b800003003c00e08f5000080032003c003700ba
:100b9000050820007fa99700850f51001000320042
:100ba000050c2000850f510035003a0026b32000c7
:100bb00015c0b3003600be003601be000040e100a3
:100bc00001c8e10002d0e10003d8e1002b003900a8
:100bd0008542e800f4cf5200f6ff3a0027003700c4
:100be00015c0b30000012000010020006011b80012
:100bf0000040e10001c8e10002d0e10003d8e100bb
:100c00001e003900460020000000d0008180d20084
:100c10000281d2008381d2000603e900faff3a0084
:100c20008542e800f0cf5200f1ff3a001300370090
:100c300015c0b30080002000010020006011b80042
:100c40000040e10001c8e10002d0e10003d8e1006a
:100c50000a003900370020000000d0008180d20057
:100c60000281d2008381d2008703e900faff3a00b3
:100c70008542e800f5cf5200f1ff3a00a5c79f007a
:100c80002fc097008002fb008e8f520002003d00b3
:100c9000aec79f0003003700850f570001003d00dd
:100ca00005077800e00f520003003200e3026600ff
:100cb000010032000402e9000500240085026600fc
:100cc000050032008e0f5200020034000e02520066
:100cd000010037000002eb002fc197008202fb00e9
:100ce0008001eb00d3af9f00850f5200020034005b
:100cf00085025200d5af9f00640266002c003200ce
:100d0000e202660061026600e08f520006003200d7
:100d1000b0022000e00f5200010032000080e80025
:100d2000efa8970004003700e00f520006003200e1
:100d3000efa8970000022000c4080700e10f400060
:100d4000010032008d06e8005faa9700e00f520014
:100d50008d0032000802be000a03be00dfac97001f
:100d6000efa8970000032000c4b79f00d5b79f00ed
:100d7000e6b79f00f7b79f00b40807004fb297008f
:100d8000dfb297006fb39700ffb39700e10f400009
:100d9000010032008d06e8008904e900f0ff3a0006
:100da000d9af9f000605be000404be0076003700e0
:100db000dfaa9700e08f5200180032006802660038
:100dc00016003a000802be000a03be00dfac97001e
:100dd000efa8970000022000c4b79f00d5b79f007e
:100de000e6b79f00f7b79f00980807004fb297003b
:100df000dfb297006fb39700ffb39700e10f400099
:100e0000010032008d06e8008904e900f0ff3a0095
:100e1000d9af9f000605be000404be00e2026600d2
:100e200061026600e08f520006003200b00220002e
:100e3000e00f5200010032000080e800efa89700a8
:100e400004003700e00f52004f003200efa8970077
:100e5000000220007d080700e10f40004a00320038
:100e60008d06e800480037000e07e9007fab9700c9
:100e700007042000870f53002d00320003003c00c0
:100e8000e00f53000800320037003700040820004c
:100e90007fae9700840f560012003200040c200031
:100ea000840f560030003a004372dd00a0b22000eb
:100eb000000242005403be004402be000800be000f
:100ec0000a01be00660c0700a400200005002000f7
:100ed0006033b800690c070004c3b300044240004b
:100ee00020003700b4c72000bfa29700e08f520057
:100ef00001003200a4c62000c272dd000800be005e
:100f00000a01be008502e900050033008301d1001b
:100f10000281d3008180d3000080d300f9ff370025
:100f20006f00600064407800a0c79f000e0037008b
:100f30006372b9000800be000a01be000406780012
:100f40000c06e900050033008301d1000281d300c3
:100f50008180d3000080d300f9ff37006742600032
:100f60000443b000a4c79f00afc097000100fb007e
:100f7000efa8970035080700e10f40000600320097
:100f80008d06e800040037000c0178000202b20070
:100f9000b2a79f008cbf9f00e00f5700b2ff3a003e
:100fa0000fbe9700680666000c003200dfa99700ac
:100fb000e08f51000900340003067800efa8970085
:100fc0000002200021080700e10f4000010032006c
:100fd0008d06e8000c06e900f8ff3a004faa9700da
:100fe00014407800a0c79f00e04f50008dfd3a00ec
:100ff0000d0078004f0778004f06be004f05be0079
:101000004f04be002f03b100000006000800fa00e4
:10101000889fbe008a9fbe000084fb00d4c6b30038
:10102000844f5000340036004b06200011000900a8
:101030000b84d80081057800720040004300dd0079
:10104000a9a72000008044006022b800060020000c
:1010500007fe23005001be004000be00b30a070097
:101060000002be000203be0084bf9f0095bf9f0028
:10107000a6bf9f00b7bf9f00aa0020001100090073
:101080008a85d80080057800e9854500c35ddd00cc
:101090008b8544003b02be002b03be000fb89700b7
:1010a0009fb897002fb99700bfb997009f0a070014
:1010b0000002be000203be0084bf9f0095bf9f00d8
:1010c000a6bf9f00b7bf9f00110009000a84d80087
:1010d000010478004344dd00888444003902be00e6
:1010e0002903be000fb897009fb897002fb997004b
:1010f000bfb997001d003700ea4f500013003600bb
:10110000aa002000110009000a84d8000105780017
:10111000690440004344dd00a9a72000088444007e
:101120006022b8000600200007fe23003800be0041
:101130002801be007d0a07004355dd008a84440073
:101140003902be002903be00080037004344dd0019
:10115000a4a72000080442006022b8000600200076
:1011600007fe23003800be002801be006f0a0700fa
:101170004f05be004f04be000080fa0000000600cc
:101180000800fa00889fbe008a9fbe00d4c6b30044
:10119000e04f500022003d000040ea000004fb0048
:1011a000844f50000a00340044062000110009005a
:1011b0000404d800a9002000110009008900d8000b
:1011c000e9004000c308dd00aaa720002000370086
:1011d000ea4f50000f003400a40020001100090065
:1011e0000404d800690040004300dd00a4a72000eb
:1011f00000004200430cdd00080242005403be0020
:101200004402be005001be004000be00470a070075
:10121000370037004344dd00a4a720003100370029
:101220000004fb00844f50002300340044062000db
:10123000110009000404d800a900200011000900d1
:101240008900d800e9004000c308dd00aa9c200006
:10125000810045003102be002103be008b09200041
:101260008a8545003b00be002b01be002f0a070007
:101270000002be000203be0084bf9f0095bf9f0016
:10128000a6bf9f00b7bf9f00110009000904d80046
:10129000010478004344dd00080545003a02be0021
:1012a0002a03be000fb897009fb897002fb9970088
:1012b000bfb99700d5ff3700ea4f50000700340050
:1012c000a4002000110009000404d80069004000b7
:1012d0004300dd00a49c2000c5ff37004344dd002f
:1012e000a49c2000080442003800be002801be0073
:1012f0004f05be004f04be000080fa00000006004b
:101300002f06b000889fbe008a9fbe008c9fbe0043
:101310008e1f7800b0af9f00d1979f00a2af9f00b3
:101320006000b8006011b800a0a79f00b1a79f009f
:10133000c2a79f00d3a79f000006eb003707370026
:10134000df9097008100e800d1979f0054c2b3005e
:10135000844f500007003a00010278000003eb00c0
:10136000d0c2b30001c3b30002c2b30033c2b300a2
:10137000070037000000fb00bfa8970033070700f5
:10138000e10f4000250732000c06e8002307370074
:1013900084037800b4427800b8c2b30088cf52000a
:1013a0000f00320005003c0082cf52000a003200dc
:1013b00083cf520010003a000b00370080cf52005c
:1013c0000300320081cf52000b003a0008003700c2
:1013d0000630a000eeff37000600a000ecff37004b
:1013e0000610a000eaff370006b0a000e8ff3700b3
:1013f0000620a000e6ff3700620263000100320011
:101400000600a10068026300010032000620a1006e
:101410000502fb000403b100e90f52000d003e007d
:1014200087027800000020006a00b9003502fb0046
:101430000403b10000004200850378001502fb00a0
:101440000403b100e90f5200f7ff3600c0af9f0060
:101450000a0037000005eb00caaf9f00a4c2b3002a
:1014600084cf520005003a00afad97004b007800e2
:10147000abaf9f00c0af9f008703e800e4c2b3009a
:10148000974f120019003a00860678000de0a00080
:1014900064425200d74f1200030032000703780065
:1014a0000007eb000b003700afa89700410778005a
:1014b000a1af9f008703e8000700780076c6b3005d
:1014c00007c7b300c1c6b3000c0037006a70b9008b
:1014d00000074200860378003602fb000403b100d7
:1014e000e90f5200f9ff3600f3ff37008606780057
:1014f0000dc0a0000007eb00efff3700b0427800fe
:10150000d0979f0086cf52003000320017003c0079
:1015100034c6b30084cf5200900032000e003c006d
:101520007c42520084cf52003b00320006003c0057
:10153000e0cf5200be06320004c2e90084cf520060
:10154000a5003a003000370084c5b30084cf5200b4
:10155000a1003a003700370054c6b30084cf5200d0
:101560001c00320025003c001c00370087cf5200d1
:101570003000320009003c0081cf520019003200d7
:10158000f4c6b30084cf52002700320066425200f6
:1015900084cf520090003a001000370054c7b300c7
:1015a00084cf5200930032006342420084cf520045
:1015b000040032006542520084cf520086003a0097
:1015c00020003700a5579f001c003700a6579f003a
:1015d00013003700a5579f000d003700a5579f0047
:1015e00086003700f082660004012000010032000e
:1015f0000400280084867600c0ff3700a5579f00ae
:101600000da0a0007d003700a5579f000d50a00041
:101610000d80a00079003700a5579f000d50a00055
:101620000d90a00075003700a5579f000d60a00029
:1016300072003700a5579f000d50a0000d70a0004c
:101640006e003700a5579f00afa9970043027800ae
:10165000a3af9f00d4af9f00e00f520002003a00fa
:1016600066cb2000d6af9f005fab97008002eb00f7
:10167000010037008502e80066c27a00e04f5200a0
:10168000fcff3a00e5af9f00e00f57000500320075
:10169000efab9700870f5700020031000e0478006f
:1016a000e8af9f006faa97000004eb00cfac970053
:1016b000848f54000100360004845400e8866600dc
:1016c00014003a0007003700bfa89700000220006e
:1016d0005e060700e10f4000010032000c06e80042
:1016e0000804e900e00f5400f7ff3a000084eb0023
:1016f000080037005faa97003400fb00d4af9f00ba
:10170000bfa8970051060700e10f4000010032001a
:101710000c06e8006faa97000405e900eaaf9f00f5
:10172000e00f5200f3ff3a00e08f56003b06320014
:1017300007003700bfa897000002200043060700fb
:10174000e10f4000010032000c06e8000804e90047
:10175000e00f5400f7ff3a0030063700afad9700b6
:101760004b027800abaf9f0004047800cfc4de00ca
:10177000090578008a0578000800be000a01be004d
:101780004800de00480add0000007200a0579f00fc
:101790007082660009003200e04f500007003200fe
:1017a000e14f400005003200b0579f00c8579f002e
:1017b00025002000e5af9f0003003700b8579f00c9
:1017c00016002000e6af9f0037f92f0087834700ff
:1017d000d7af9f00acff3700a5579f0028f92f0017
:1017e00008844700d8af9f0019002000e9af9f0090
:1017f000a5ff3700a5579f000d0cb3000470200013
:101800000482660041043200040021000482660064
:10181000010032006e002000708266000500320078
:101820002fa897004005be004004be00a0af9f0057
:10183000060037002fa997004200be00a2af9f000c
:10184000e50707000004be000205be006022b800e4
:101850006033b8000800be000a01be003007070070
:10186000e00f500002003d000bf0a2003d00b3006d
:101870000002eb00b48f9f006022b8006033b80014
:101880000800be000a01be0089070700e00f5000f3
:10189000340032000800be000a01be001a09070029
:1018a00062f92f000f0141006e0807003f88970082
:1018b0000000e9006300b900a40020001100090045
:1018c0000400d800b08f9f00e00f500002003d00e0
:1018d0000000e900b08f9f00bf899700d3af9f0041
:1018e0000340ea0026fe07000802be000a03be000d
:1018f0008e0807000002be000203be00a4a79f00de
:10190000b5a79f00c6a79f00d7a79f006022b80079
:101910000600200007ff230001070700e00f50002a
:1019200003003d00dfaa97000502e9000c00370024
:101930006022b80006002000470224002fa0970074
:10194000bfa097004fa19700dfa19700f9060700fd
:10195000e00f5000030035005fab97000602e8007f
:10196000b48f9f00bf8b9700d7af9f000d02780008
:101970000410b20008003a000d0278000420b20002
:101980006202320007007800e40f400002003500d8
:101990008e0f5000ef013500e00f570004003200b9
:1019a0000d0278000420b200010032000e07e900a9
:1019b000f20f57000300360024c1b300a4579f0064
:1019c00001003700ae579f006022b8006033b800b6
:1019d0000800be000a01be0035070700e00f5000f6
:1019e000660032002f519700c2cf9f00afd99700f9
:1019f00002c05100e2fd07000002be000203be006b
:101a00000800be000a01be00cf0607000004be00a9
:101a10000205be00c0070700100807000002be0054
:101a20000203be000800be000a01be00b4080700a1
:101a30006022b8000600200007fe2300bd06070054
:101a4000e00f5000080035006022b80006002000ba
:101a500007fe23000800be000a01be00330607008f
:101a60000004be000205be000800be000a01be0060
:101a7000a9070700e09f9f00f19f9f008002eb00f5
:101a800085a79f000003eb0096a79f00cfcb970090
:101a90008703fb00c78f9f000702e8004322dd0099
:101aa000a1bc2000048040003002be002003be0024
:101ab000e4a79f00f5a79f0086af9f0097af9f0008
:101ac0006f989700ff9897000fa197009fa197002c
:101ad0000400e1000588e1000690e1000798e100bc
:101ae0000c0039000400200005002a009699290006
:101af00097fb23000800be000a01be000b08070088
:101b00000004be000205be00dfa897000102e80045
:101b1000190037004f8997004312dd00a3bc200055
:101b2000048241005403be004402be006f98970037
:101b3000ff9897000fa197009fa197000400e10074
:101b40000588e1000690e1000798e1000b003100f4
:101b50006022b80006002000470224000800be00f2
:101b60000a01be00f10707000004be000205be0026
:101b7000dfa897000102e900b48f9f0004a02000b5
:101b80008482660004202000848f520046003a00c0
:101b9000f40f5700010034004e0120000800be0081
:101ba0000a01be005c070700e0979f00f1979f00c5
:101bb0008001eb00839f9f000002eb00949f9f0039
:101bc0000800be000a01be00d0af9f00e1af9f0039
:101bd000f2af9f0083b79f006f949700ff94970028
:101be0000f9d97009f9d9700090037000e07e900a1
:101bf000a4002000050020006033b8000800be00eb
:101c00000a01be00160907000205be000004be005e
:101c1000e00f5400e08f5c00e00f5d00e08f5d009e
:101c20000b003200a4002000050020006033b80043
:101c30000800be000a01be0010090700e00f5000b6
:101c4000e08f5800e00f5900e08f5900e7ff3200a5
:101c5000e8979f00f9979f008a9f9f009b9f9f0096
:101c60005fac9700efac97007fad97008fb5970002
:101c70002f5097000002fb00840f57000a003d0020
:101c80000e4050003efd07000002be000203be00f1
:101c90000800be000a01be002b0607000004be00bb
:101ca0000205be00ae579f00cfab97006582530080
:101cb0000e025200c4af9f00e00f570003003a002d
:101cc0000480200004826600030032004fa89700c1
:101cd0000000e900c0af9f0063826600030032008d
:101ce000cfa897008100e900c1af9f006482660021
:101cf0002c003200e282660061826600e08f5200b2
:101d000006003200b0022000e00f52000100320055
:101d10000080e800bfa8970004003700e00f5200e1
:101d200017003200bfa8970000022000c704070078
:101d3000e10f4000120032000c06e80010003700ee
:101d4000bfa897000003200094b79f00a5b79f008d
:101d5000b6b79f00c7b79f00bc0407001fb297002b
:101d6000afb297003fb39700cfb39700e10f4000a9
:101d7000010032000c06e8008904e9000300370086
:101d80000802be000a03be00cfac9700e08f5400eb
:101d9000ebff3c00c9af9f000404be000605be0077
:101da0002c0037006882660018003a000802be0066
:101db0000a03be00cfac97000f003700bfa8970002
:101dc0000002200094b79f00a5b79f00b6b79f0000
:101dd000c7b79f009d0407001fb29700afb29700de
:101de0003fb39700cfb39700e10f400001003200ee
:101df0000c06e8008904e900e08f5400efff3c0086
:101e0000c9af9f000404be000605be00e282660062
:101e100061826600e08f520006003200b0022000ae
:101e2000e00f5200010032000080e800bfa89700d8
:101e300004003700e00f520006003200bfa89700f0
:101e40000002200081040700e10f40000100320081
:101e50000c06e8000800be000a01be00ae0607003e
:101e6000a09f9f00b19f9f008001eb00c39f9f0038
:101e70000002eb00d49f9f00af5297008502fb0049
:101e8000e5a79f0005037800c332dd00a4bc200055
:101e9000050242003404be002405be000802be0054
:101ea0000a03be002f989700bf9897004f9997009c
:101eb000df9997006a0807000003b000bfa89700e9
:101ec00062040700e10f4000010032000c06e80048
:101ed0000802be000a03be002f989700bf98970023
:101ee0004f999700df99970064080700d0af9f00d3
:101ef000e1af9f00f2af9f0083b79f00e00f570054
:101f000003003a000480200004826600540032007e
:101f1000bfa89700e00220004c040700e10f40003a
:101f2000330032000c06e800310037004f8897007c
:101f3000e00f50000d003200e00f5400e08f5c0015
:101f4000e00f5d00e08f5d0008003a00d8af9f0011
:101f5000e9af9f00faaf9f008bb79f008042eb0074
:101f6000a5579f000004eb003b0037008502fb00f3
:101f7000c32add00a6bc2000850243003500be0058
:101f80002501be00d0af9f00e1af9f00f2af9f00e0
:101f900083b79f000203be000002be000800be001f
:101fa0000a01be002e0807000403200000024200c0
:101fb000bfa897000400780024040700e10f400048
:101fc000010032000c06e8005faa9700efaa970014
:101fd0007fab97008fb397000800be000a01be00d8
:101fe000260807000205be000004be0007003700f7
:101ff0008d0078000120b200c18f9f005fac970078
:10200000efac97007fad97008fb597002f529700e8
:102010008442e900a5579f00e04f5200c3ff3a00f9
:10202000d8af9f00e9af9f00faaf9f008bb79f002a
:10203000efa297000504570007003700bfa89700dc
:102040000003200001040700e10f400001003200fe
:102050000c06e8000804e900e00f5400f7ff3a001e
:102060000d0278000402b20003003200bfa89700fe
:102070005004200002003700bfa89700500620003f
:10208000f2030700e10f4000010032000c06e800f7
:102090003f8a9700e00f520005003d000402ea006d
:1020a000b48f9f00bfa89700d00220000200370025
:1020b000bfa89700b0022000e4030700e10f400032
:1020c000010032000c06e8003f8c9700a4002000bd
:1020d000110009000404d8000003b000bfa8970055
:1020e000da030700e10f4000010032000c06e800af
:1020f000a4002000110009000404d80000032000ff
:1021000001004000bfa89700d0030700e10f400086
:10211000010032000c06e80068826600bf0332004e
:102120004fab9700e00f5300bc0334000604780067
:10213000bfa8970000022000c4030700e10f400081
:10214000010032000c06e8000804e900f8ff3a003c
:10215000b2033700dfab9700e08f530002003d0071
:102160000782ea00040747000800be000a01be001b
:10217000b8050700d0af9f00e1af9f00f2af9f000e
:1021800083b79f00a1bc20000040eb000802be0006
:102190000a03be00e4a79f00f5a79f0086af9f003b
:1021a00097af9f000c0037003102be003103be0024
:1021b0005fac9700efac97007fad97008fb59700ad
:1021c0000440e10005c8e10006d0e10007d8e100c5
:1021d000030039000040e800f44f5000f2ff3a00dd
:1021e0006fa49700ffa497000fad97009fad9700d5
:1021f0000002fb0004075700f80f570009003c00dd
:102200000e40780081fb07000002be000203be0002
:102210000800be000a01be00440407000004be001e
:102220000205be000e407800d5fb07000002be008c
:102230000203be00e4a79f00f5a79f0086af9f00a2
:1022400097af9f005fa89700efa897007fa997001e
:102250008fb19700d60507000002be000203be0042
:102260000800be000a01be00a50607000002be006d
:102270000203be006fa09700ffa097000fa9970070
:102280009fa9970029060700720507000802be00f3
:102290000a03be00d4af9f00e5af9f00f6af9f00da
:1022a00087b79f000205be000004be00090037008a
:1022b000a4002000050020006033b8000800be0024
:1022c0000a01be00660707000205be000004be004a
:1022d0000e07e900e00f570018003200a4002000ac
:1022e000050020006033b8000800be000a01be00ef
:1022f00062070700e00f5000e08f5800e00f590020
:10230000e08f5900eaff32000c003700f80f570049
:102310000e003c000e4078003cfb07000002be00af
:102320000203be000800be000a01be00ff03070052
:102330000004be000205be00040037005fac970039
:10234000efac97007fad97008fb59700bf8a9700dd
:10235000d5af9f00e98f520012003c006022b80008
:102360006033b8000800be000a01be00d0040700b8
:10237000e00f50002f0032000800be000a01be002e
:1023800034050700e00f5000e08f5800e00f5900bf
:10239000e08f590027003a005fab9700e10f530030
:1023a000240034000400200005002e00b6e02200c6
:1023b000170124002fa09700bfa097004fa19700fe
:1023c000dfa1970056040700e00f500003003d0016
:1023d000dfab970073825300020037005fa89700bd
:1023e00072025000b48f9f006f50970064fb07008b
:1023f0000002be000203be00a4a79f00b5a79f0075
:10240000c6a79f00d7a79f000800be000a01be0014
:102410004d0407000f050700d0af9f00e1af9f00fc
:10242000f2af9f0083b79f006044b8006055b800ca
:10243000110037000800be000a01be0005050700b4
:10244000d0af9f00e1af9f00f2af9f0083b79f0026
:10245000570507000002be000203be000800be00d0
:102460000a01be00260607000004be000205be00e9
:102470000002eb00b48f9f0021bd200010c0b3000c
:102480000802be000a03be00d4b79f00e5b79f0054
:10249000f6b79f0087bf9f00100037003104be00d1
:1024a0003105be00e8a79f00f9a79f008aaf9f00f3
:1024b0009baf9f005faa9700efaa97007fab9700a2
:1024c0008fb397000820e10009a8e1000ab0e100fd
:1024d0000bb8e100030039000040e800f44f500061
:1024e000eeff3a005fb49700efb497007fb5970016
:1024f0008fbd9700a0579f003f8a9700cfaa9700f3
:10250000048252008e0252000002fb00048252003c
:10251000c4af9f000480200004826600e4a79f00ef
:1025200002003a00e00f5700030032004fab970063
:102530000603e900c6af9f00638266000300320015
:10254000cfab97008703e900c7af9f0064826600a6
:102550002c003200e282660061826600e08f520049
:1025600006003200b0022000e00f520001003200ed
:102570000080e800bfa8970004003700e00f520079
:1025800017003200bfa8970000022000af0207002a
:10259000e10f4000120032000c06e8001000370086
:1025a000bfa897000003200094b79f00a5b79f0025
:1025b000b6b79f00c7b79f00a40207001fb29700dd
:1025c000afb297003fb39700cfb39700e10f400041
:1025d000010032000c06e8008904e900030037001e
:1025e0000802be000a03be00cfac9700e08f540083
:1025f000ebff3c00c9af9f000404be000605be000f
:10260000400037006882660018003a000802be00e9
:102610000a03be00cfac97000f003700bfa8970099
:102620000002200094b79f00a5b79f00b6b79f0097
:10263000c7b79f00850207001fb29700afb297008f
:102640003fb39700cfb39700e10f40000100320085
:102650000c06e8008904e900e08f5400efff3c001d
:10266000c9af9f000404be000605be00e2826600fa
:1026700061826600e08f520006003200b002200046
:10268000e00f5200010032000080e800bfa8970070
:1026900018003700e00f52001a003200bfa8970060
:1026a00000022000130037008502fb00c32add0072
:1026b000a0bc2000850240005503be004502be00bc
:1026c0005fa89700efa897007fa997008fb19700a8
:1026d00063060700a4002000050020006033b80056
:1026e000660607000403200000024200bfa897000e
:1026f0000400780055020700e10f4000010032009d
:102700000c06e8002f5297008442e900a5579f006d
:10271000e04f5200e4ff3a000802be000a03be0088
:1027200010003700bfa897000003200094b79f0057
:10273000a5b79f00b6b79f00c7b79f004302070029
:102740001fb29700afb297003fb39700cfb3970087
:10275000e10f4000010032000c06e8008904e900a6
:10276000b98f9f00bf8c9700e08f5400edff3c00b5
:102770000404be000605be00f20f5700030034003b
:1027800024c1b300a4579f0001003700ae579f003b
:10279000af5297000502fb0004075700e0cf52003c
:1027a00003003a006fa19700e00f510006003200cd
:1027b000bfa89700e002200024020700e10f4000bc
:1027c000010032000c06e8002f5097006cfa070059
:1027d0000002be000203be000800be000a01be00e7
:1027e000d20407001b0407000205be000004be005f
:1027f000240037008502fb00c32add00a6bc2000b0
:10280000850243003500be002501be00d0af9f0009
:10281000e1af9f00f2af9f0083b79f000203be00ad
:102820000002be000800be000a01be000c06070040
:10283000a4002000050020006033b8000f06070048
:102840000403200000024200bfa8970004007800a3
:10285000fe010700e10f4000010032000c06e80015
:102860005faa9700efaa97007fab97008fb39700fe
:102870000800be000a01be00000607000205be00f7
:102880000004be002f5297008442e900a5579f0024
:10289000e04f5200d7ff3a00d8af9f00e9af9f004a
:1028a000faaf9f008bb79f0007003700bfa89700c3
:1028b00000032000e5010700e10f400001003200a5
:1028c0000c06e8000e07e900e00f5700f7ff3a009a
:1028d00068826600d1013200cfaa9700e08f5200d3
:1028e000ce01340005047800bfa897000002200044
:1028f000d6010700e10f4000010032000c06e8009d
:102900000804e900f8ff3a00c40137008d0278009e
:10291000050cb2003c003a00e08f560005003d0077
:102920002fa897004005be004004be00a0af9f0046
:102930001000370070826600130032002faa970043
:102940004401be00a4af9f0092979f00a3979f00f1
:1029500084027800150290004fa2de00b4979f0019
:10296000c4979f001f949700af9497003f959700de
:10297000cf959700d8af9f00e9af9f00faaf9f00b7
:102980008bb79f000b003700afac9700490278006f
:10299000a9af9f0004007800cf80de00010178001d
:1029a00082017800d0af9f00e1af9f00f2af9f009f
:1029b00083b79f005faa9700efaa97007fab9700ad
:1029c0008fb39700e00f5200e08f5a00e00f5b00da
:1029d000e08f5b0030003d003d00b3006022b80096
:1029e0006033b8005fac9700efac97007fad970005
:1029f0008fb597000804520089845a000a055b00cd
:102a00008b855b0020003700e08f560005003d00fd
:102a10002faa97004401be004400be00a4af9f004f
:102a20000d003700f0826600100032002fac9700d6
:102a30004803be00a8af9f00d68f9f00e78f9f007e
:102a4000f48f9f0084979f005f889700ef8897001e
:102a50007f8997008f919700d0af9f00e1af9f00d3
:102a6000f2af9f0083b79f000b003700afa897001d
:102a700041027800a1af9f00040478000900200003
:102a80000a0020000b002000d8af9f00e9af9f0094
:102a9000faaf9f008bb79f00e00f57000b003a0082
:102aa0001e0020005fa89700efa897007fa997005d
:102ab0008fb19700e00f5000e08f5800e00f5900f1
:102ac000e08f5900010032000007eb008d04780010
:102ad000090cb20004042000848f54003500320039
:102ae00003003c00e08f5400070032004b00370029
:102af00004082000848f540015003200040c2000cc
:102b0000848f540045003a0021bd200010c0b3005e
:102b1000090178003102be003103be005fac9700ae
:102b2000efac97007fad97008fb597000440e100b0
:102b300005c8e10006d0e10007d8e1003500390002
:102b40000040e800f44f5000f2ff3a003100370037
:102b500010c0b30004012000050020006033b8005d
:102b6000090178005fac9700efac97007fad97004c
:102b70008fb597000440e10005c8e10006d0e100f0
:102b800007d8e10023003900490020000402d000ea
:102b90008582d2000683d2008783d2008904e900af
:102ba000faff3a000040e800f04f5000edff3a0015
:102bb0001800370010c0b30084002000050020007a
:102bc0006033b800090178005fac9700efac970064
:102bd0007fad97008fb597000440e10005c8e10084
:102be00006d0e10007d8e1000a00390039002000d2
:102bf0000402d0008582d2000683d2008783d200ef
:102c00008904e900faff3a000040e800f54f50005f
:102c1000edff3a0082047800a0579f002f559700df
:102c20000a02fb008e0f520002003d00ae579f00cb
:102c300003003700840f570001003d0004077800af
:102c40004fa89700e00f5000040032006382660036
:102c5000020032000000e900c0af9f000400240021
:102c60000482660008003200cfa897008e8f5000c3
:102c7000030034008e805000c1af9f000200370077
:102c80000001eb00c2af9f00448c200084826600ec
:102c90004408b100848f520006003a00cfa9970083
:102ca000e08f5100100032008301e900c3af9f00a4
:102cb0000d003700048c2000848266000404b100fb
:102cc000848f520008003a004faa9700e20f52008a
:102cd000030034000482e900c4af9f000200370003
:102ce0008002eb00c5af9f002f5397000602fb0048
:102cf0000004eb00cfab9700848f53000100340039
:102d000004845300648266002d003200e282660073
:102d100061826600e08f520005003200b0022000a0
:102d2000e00f5200170032000080e8001500370065
:102d3000e00f520003003200bfa8970000022000fd
:102d400011003700048c2000848266000404b10066
:102d5000848f520010003a00bfa8970000032000a3
:102d6000ba000700e10f4000010032000c06e80045
:102d70000d0278000402b20080072000010032003a
:102d800080052000bfa89700b0000700e10f4000b9
:102d9000010032000c06e800e00f54008d00320004
:102da000bfa8970000032000a8000700e10f400023
:102db000010032000c06e8000804e900f6ff3700c5
:102dc000e00f54000a0032006882660008003a00f2
:102dd000bfa89700000220009c000700e10f400000
:102de000010032000c06e8000804e900f8ff3a0090
:102df000e282660061826600e08f520006003200c7
:102e0000b0022000e00f5200010032000080e80014
:102e1000bfa8970004003700e00f52000600320000
:102e2000bfa897000002200088000700e10f4000c3
:102e3000010032000c06e800048c20008482660049
:102e40000408b100848f520003003a00bfa8970025
:102e5000000320000f00370004882000848f5200f8
:102e60005c003a00bfa8970000032000770007002d
:102e7000e10f4000010032000c06e8000d0278006e
:102e80000402b2008007200001003200800520000b
:102e9000bfa897006d000700e10f40004d00320011
:102ea0000c06e8004b0037000e07e9008a8f54003b
:102eb0003000320003003c00e08f54000700320075
:102ec0003c00370004082000848f540014003200b6
:102ed000040c2000848f540036003a004372dd0059
:102ee000abbc20000b0242005403be004402be00f3
:102ef0005fa89700efa897007fa997008fb1970070
:102f000057040700a4002000050020006033b8002b
:102f10005a04070004c3b3000442400024003700f1
:102f200054ca2000cfaa9700e08f5200010032005f
:102f300044c92000c272dd005fa89700efa8970087
:102f40007fa997008fb197008502e9000500330043
:102f50008301d1000281d3008180d3000080d3009f
:102f6000f9ff37006f00600064407800a0579f00b1
:102f7000100037006372b9005fa89700efa89700b0
:102f80007fa997008fb19700840578008b05e90031
:102f9000050033008301d1000281d3008180d3007a
:102fa0000080d300f9ff3700674260000443b0009f
:102fb000a4579f00af5097000100fb00bfa89700e7
:102fc00022000700e10f4000060032000c06e80076
:102fd000040037000a0420000d0178000202b2004c
:102fe000c2af9f00e00f5700afff3a006882660053
:102ff0000a003200e00f540008003400bfa8970018
:103000000002200011000700e10f40000100320023
:103010000c06e8000804e900f8ff3a00df91970089
:1030200013407800a0579f00e04f5000c4f83a00ca
:103030000c0078004f0778004f06be004f05be0019
:103040004f04be002f06b10000000600889fbe009e
:103050000104780038029000e20262008084eb00f4
:103060003b003200040378000620b2009802900072
:1030700002003a00e08f520035003a000490a000b0
:103080003404980080047800f90fb200e08f5200f9
:1030900002003a00a8029000050c7800ea8f540064
:1030a00005003a000408b20003003a0088007800e6
:1030b000d0002000e5ff070018029000d802900021
:1030c000850f52000b0032000402e800140498003f
:1030d00018027800094a7800040ce80015c0b30013
:1030e00044ce2000054a7800ea8f540018003a00c8
:1030f00005003700880078000940780017000700b5
:103100008004780012003700380290000410b200ea
:103110000f00320018019000a800900048009000b5
:103120005200070018029000840f50000400320083
:10313000380290000403b300340498008084eb004c
:103140000002eb001404980028029000040c7800a0
:10315000090078004f04be00000006000200fa00db
:10316000889fbe00a0ff9f000104780038029000f5
:10317000840278000504b200020032000000fb0067
:1031800035003700e202620005003a000403b30094
:1031900034049800150498000080eb002e003700de
:1031a000d8049000e08f540006003a00120020007e
:1031b000e6805700480090002c0007001904980092
:1031c00023003700a8029000e08f520008003a0068
:1031d00075ce200025049800050c780025002000fd
:1031e00055049800150498000430a0003404980099
:1031f00018019000a8009000480090001b000700f4
:10320000280290008082eb0015049800affa970026
:10321000054a7800040ce8002ffa9700ea4f5200a4
:103220000b003a00380290000410b200080032008f
:1032300018019000a8009000480090000b000700c3
:103240000002eb0014049800a8029000050c78001e
:103250002ffa97000400fb004f04be000080fa0024
:103260000000060000c0da00000006000a00fa00b4
:10327000e20f500022003e0054678000e10f520030
:10328000060032008723200046232000242320004c
:1032900005232000e08f530004003a00872220001d
:1032a00046222000242220000522200000002800c1
:1032b0001500600003003a00800b7800070028002a
:1032c000958a7300054020009482620001003a0054
:1032d00014a0a00082027800060037009403780052
:1032e0000710b200fdff3200b103fb00070b7800ae
:1032f0008502e900e08f5200f8ff3a00080037002d
:1033000034002000b4bf9f00c0bf9f00d1bf9f000a
:10331000e2bf9f006a805700d2ff07006fb9970095
:10332000020078000080fa00000006002800fa0081
:10333000889fbe008a9fbe008c9fbe000706780053
:10334000878669000c003b0003047800870478003e
:1033500008f0a10009f0a100840f5000858f5800eb
:10336000860f5900890f5c00030033000cf0a200a7
:1033700001003a000cf0a100fe0007006400e1002b
:103380005f003200780147006408e100610032000c
:103390006c014700748557003200be001201be0068
:1033a0003a04be001a05be001e039000be0a90003b
:1033b0008503530006003d000004fd008104fd006c
:1033c0000205fd008305fd008703ea000503780080
:1033d0000df8a3000400320060041400e0841c0017
:1033e00060051d00e0851d006022b8007d032000ff
:1033f0000d38e1008006eb000b0039004433dd009e
:10340000f300b20083017300390037008482720038
:103410000d027800e10664008b85d1000a85d30097
:103420008984d3000884d3008703e900f7ff3b00b9
:1034300008004000898048000a0149008b8149004a
:1034400004003b0060001000e080180060011900db
:10345000e08119000358a300090032008d82720038
:1034600084827200610260008301d1000281d30076
:103470008180d3000080d3000603e8001b003700e2
:103480000348a30017003a000600e00017003400cc
:103490000603e9000d00a3000000480081804800f9
:1034a00002014900838149000348a3000f003a004c
:1034b0000600e000090034000603e90000004000b7
:1034c00081804800020149008381490001003a00df
:1034d0000003eb000348a300f5ff32006022b800b0
:1034e0000200370084827200618266007500070066
:1034f00003f0a1000cf0a70003f0a000b10037001a
:10350000640147006408e10002003a000df8a300de
:10351000a9003a003200be001201be00a900370027
:103520008f1fd100370307008f87e9000000e000fc
:1035300000000600809feb00320307008f87e90040
:103540000000e000000006002800fa00889fbe008e
:103550008a9fbe008c9fbe0003866b00850007001b
:103560006400e100440032006408e1004a003200d7
:103570006100e100460032006108e10049003200cc
:10358000ec0647006000b8003d02be003d03be00ef
:10359000f48657006011b8003d04be003d05be0032
:1035a0007d0320000b0037000000a0008d06e9001d
:1035b000130032000402420085824a0006034b00d9
:1035c00087834b00000040008180480002014900d1
:1035d000838149000802520089825a000a035b0075
:1035e0008b835b00f0ff3b000802420089824a00a7
:1035f0000a034b008b834b008d06e900edff3a0078
:103600008482720086827200f707b200878272009d
:1036100001003200150020001e0490003e0b9000b7
:1036200006035400e63fb0000368a3000700320021
:103630000000a7000500a0008301d1000281d30093
:103640008180d3000080d3000603e8008301d1000d
:103650000281d3008180d3000080d3000002eb0000
:103660000482d2001700070003f0a1000cf0a700ad
:1036700003f0a00053003700640247006408e10033
:103680004d0032003400be003401be00f6ff3700aa
:103690006108e100480032006011b8006000b80025
:1036a000f1ff370003ff270002002000fbff370077
:1036b000801feb00d30207008f87e9000000e000c5
:1036c00000000600180020005700200008045300e6
:1036d0000d003d000600200097fc2f000740e10090
:1036e0001e00340084827200610260008301d100f8
:1036f0000281d3008180d3000080d3000804e80059
:10370000f8ff3a00470020006104600005047400df
:10371000040464000d00320061004000e0804800b5
:1037200060014900e081490003b8a50007003200ac
:103730000603e8006538e10004003a008301d10087
:103740000281d3008180d3000080d300f87f200065
:103750000830e10003003500080378006000b8007d
:103760006011b8004433dd00f300b2008301730040
:1037700000000600680447000294be000094be00ea
:10378000fc0447008694be008494be0009007800c3
:10379000e502070008007800e302070099007800be
:1037a000814f70000b003b000800be00be02070006
:1037b0004f00b10003003700f3ff2700f2ff2f0096
:1037c0006110b9004f06be004f05be004f04be0099
:1037d0000080fa000000060081037800be000700a8
:1037e0000001be006000b8000478a30013003a0096
:1037f0006220e10015003e000d0039008301d10078
:103800000281d3008180d3008301d1000281d300e3
:103810008180d3008301d1000281d3008180d30055
:103820000538b000c42add00f300b20083817200c5
:1038300007f0a70003f0a00000000600f3ff270038
:10384000f2ff2f006110b900fbff370003ff2700d4
:10385000f7ff37001400fa00889fbe008a9fbe0061
:103860008c9fbe000004be000205be006800470039
:103870000a90be000890be00ab0207000070a700cf
:103880000bf0a1000bf8a30020003a009e09900065
:103890000e099000fe0090006e0090009e029000c5
:1038a0003443200084825200c6ff32000a003c00ec
:1038b000b4fc2f000428e100140034008301d1007f
:1038c0000281d3008180d3000080d3008502e8000c
:1038d000faff3a00bbff3700b40020000428e100e3
:1038e00007003c00000040008180480002014900c0
:1038f000838149008502e900faff3a00b1ff3700f1
:103900000300280002002000010037006011b80009
:103910006000b800abff37001400fa00889fbe00bb
:103920008a9fbe008c9fbe000004be000205be0040
:10393000680047000a90be000890be007a020700a7
:103940000070a7000bf0a1000bf8a30016003a00ce
:103950009e0290003043200080825200b0fe2f0073
:103960000028e1000d003c00b0fc2f000028e10021
:103970000d0034001e0990008e0890007e0090001b
:103980000501b0000201d1008180d3000080d30086
:103990008502e800fbff3a008aff3700010028009b
:1039a0000000200087ff37006000b80085ff370067
:1039b000889fbe00008270000402710004827100c2
:1039c0002400320036432000c50020008383cf004e
:1039d0000a0039000541b1008283cf000700390099
:1039e0000541b1008183cf00040039000541b100d9
:1039f0008083cf00010039000541b10085c3530029
:103a00006022b800120032000a003b00848272007b
:103a1000610260008301d1000281d3008180d30064
:103a20000080d3000603e8008743e800f7ff3a0070
:103a30000700370000004000818048000201490073
:103a4000838149000603e9008743e900f9ff3a0052
:103a50001cff07004f04be00000006006011b80004
:103a6000d3ff37001400fa00889fbe008a9fbe0073
:103a70008c9fbe00040678000004be000205be0054
:103a8000680047000a90be000890be0026020700aa
:103a90006200e1000800be000a01be000400200030
:103aa0000b003a001e029000e43fb1006e0090004f
:103ab000fe0090000e0990009e099000f300b200f5
:103ac00005fe2300858171000bf0a70003f0a00024
:103ad000040e78003bff3700c70ade00f107b20092
:103ae000f50fb20008003200e1cf420002003200c0
:103af0000170a00024000500810f70000100320059
:103b00000408050044000500810f700002003a001f
:103b1000140005008502e9000000400081c0480053
:103b2000fcff3b000170a000240005002800fa0003
:103b3000889fbe008a9fbe008c9fbe0003866b00dc
:103b40000cff07000028a30064003a000128a3002e
:103b500067003a000008a30062003a000108a300d1
:103b600065003a001e009000be08900081064000eb
:103b7000ed3fb100f4805700ee019000111ab8003b
:103b80008e099000311bb8009e099000311cb800ce
:103b9000511db800f485570046000700fe01900053
:103ba0003a0007008b85e8003e0007008e09900070
:103bb00040000700ee019000340007008b85e8000c
:103bc000380007008e099000400007009e09900011
:103bd0001b18b800890440000a854800fe019000c7
:103be000340007008b85e80038000700ee019000e4
:103bf000300007008e0990001b18b80089044000af
:103c00000a8548000a98a30008003a00040242000e
:103c100085824a0006034b0087834b0008044c0052
:103c200089844c000a054d008d06e90084827200eb
:103c3000850273004c3add008502720001003200fb
:103c400015002000443ade001400b2004538de00c2
:103c5000cb45dd000b007000c540de00cb4ddd0024
:103c60008b8070004549de00cb55dd000b017100f3
:103c7000c551de000d03780092fe070003f0a1009d
:103c80000cf0a70003f0a000cefe37001b18b80010
:103c90008502400006834800e0834b0060044c002e
:103ca000070037001b18b800060340008783480050
:103cb000faff37001b18b80087034000088448004b
:103cc000e0844c0060054d00000006001b18b800a1
:103cd0000804400089844800faff37000108a30067
:103ce000b5fe3a005800be005801be00e3ff3700a1
:103cf0000008a300b0fe3a0009047800f9ff37007d
:103d000007f0a20089fd37001400fa00889fbe006a
:103d10008a9fbe008c9fbe000005be000206be004a
:103d2000680047000c90be000a90be007e010700ac
:103d30006400e1001a00320016003e006100e1005c
:103d40001a0032006e049000fe0490000e0b9000ea
:103d50009e0b90006011b8009e0590000b38b100da
:103d6000d501200082817100610164008703d100c8
:103d70000683d3008984d3000884d3008502e90038
:103d8000f8ff3a008f0107000df0a70001f0a00036
:103d90008cfe3700f1ff2700f0ff2f0089fe37006f
:103da00001f8270000002000f7ff37006000b8008e
:103db000f5ff3700889fbe008a9fbe003004be001a
:103dc0002005be000404440085844c0006054d0017
:103dd00087854d000898be000a90be000440e100af
:103de00005c8e10006d0e10007d8e100020031007b
:103df000680040001008e8004f05be004f04be00f8
:103e0000000006001000fa00889fbe008a9fbe00d6
:103e10000605be000404be003002be002003be0042
:103e2000c4b79f00d5b79f00e6b79f00f7b79f00c4
:103e30000802520089825a000a035b008b835b00f0
:103e400084bf9f0095bf9f00a6bf9f00b7bf9f0084
:103e50000498be000698be00110020004fb29700e3
:103e6000dfb297006fb39700ffb397000820e1001f
:103e700009a8e1000ab0e1000bb8e1000100390037
:103e80008000eb00108810004f05be004f04be00fc
:103e90000080fa00000006001400fa00889fbe00af
:103ea0008a9fbe008c9fbe003f0007000605be0033
:103eb0000404be000006eb00ccb79f00bcb79f0017
:103ec000acb79f009cb79f008cb79f000d042000eb
:103ed0004fb39700bfb29700860343002fb29700fd
:103ee000e00f530004003d003d0007000f004000bc
:103ef000b0ff070003003700390007000f00400043
:103f0000c0ff0700cfb2970095bf9f00e08f52001f
:103f1000090035002b0007001400200005002000d8
:103f20006033b800000072008180720002017300eb
:103f3000838173001c0007000c06e8008d0f5600fb
:103f4000e3ff3a001fba9700e00f520005003d0062
:103f50000802be000a03be0000fe2f000f00400052
:103f600094ff07004faa9700e00f520008003a00a4
:103f70000fb497009fb497002fb59700bfb5970077
:103f8000d8b79f00e9b79f00fab79f008bbf9f008b
:103f90000c0007004f06be004f05be004f04be00d8
:103fa0000080fa0000000600010007000000060083
:103fb00090b79f00a1b79f00b2b79f00c3b79f0003
:103fc0000000060001000700000006001fb0970077
:103fd000afb097003fb19700cfb197000000060047
:103fe0004f2bde0087037300a7b79f004f23de002f
:103ff000858242008502730095b79f00ffaa970053
:104000004f2bde00040242000402730084b79f00bd
:104010006faa97004f23de0085824200850273005d
:10402000f5af9f00e9ff07004f18de0004024200d1
:1040300000027200e4af9f00e4ff070000004000b0
:10404000818048000201490083814900d8ff0700b0
:104050000802be000a03be0000fe2f00000006009a
:10406000881f780018002000881f78008aff07004a
:104070008f87e9004f04780000000600801feb00e6
:1040800085ff07008f87e90000000600889fbe00bb
:104090008a9fbe00e00f5000e08f5800e00f5900eb
:1040a000e08f59000c003d006044b8006055b80036
:1040b0000000540081805c0002015d0083815d008e
:1040c000180020001500070008003d001800070038
:1040d0000004eb00050037000004eb000f000700b0
:1040e00002003d001200070018002000dcff07005e
:1040f000e00f5400060032006022b8006033b800c0
:104100000000520081805a0002015b0083815b0045
:104110004f05be004f04be0000000600e00f520035
:10412000e08f5a00e00f5b00e08f5b0000000600ac
:104130006044b8006055b8000402540085825c00f9
:1041400006035d0087835d0000000600889fbe00b7
:104150008a9fbe008c1f7800e00f5000e08f58004f
:10416000e00f5900e08f59000d003d006044b80099
:104170006055b8000000540081805c0002015d00c1
:1041800083815d001c0020000820e10009a8e100f7
:104190000ab0e1000bb8e1000d003d000800370057
:1041a0000006eb00e00f5200e08f5a00e00f5b00ca
:1041b000e08f5b0006003d006044b8006055b80029
:1041c0000402540085825c0006035d0087835d0065
:1041d000aaff0700e00f5600060032006022b80078
:1041e0006033b8000000520081805a0002015b0079
:1041f00083815b004f0678004f05be004f04be0070
:1042000000000600889fbe008a9fbe008c9fbe00f3
:104210000404be000605be00809fbe00829fbe0053
:104220002f000700040678000800be000a01be0047
:104230002b000700840678004f03be004f02be002b
:104240008d4f76007fb0970013003300f0ff2f00f2
:104250008b8f6b0006003b000d0666000c00a7006c
:104260000a00370007f0a600100020000a003700ff
:10427000880f5200898f5a008a0f5b008b8f5b007a
:10428000030039001000200001003e000000200063
:1042900007f0a7000000ea004f06be004f05be0071
:1042a0004f04be0000000600e48240001078a30026
:1042b00007003200640240001178a3003400be0001
:1042c0001401be00040032000330a7000000060005
:1042d0003500be001501be000330a000000006003e
:1042e00005ff270005826100070032000428e10075
:1042f00001003200240005000600070001003a001a
:10430000440005000408050002000700f9ff3a0018
:10431000140005006f826100810270008502710047
:104320008502720000000600800078005002be0086
:104330005003be004439de00f700b200f37f2000d6
:1043400003016100090032000218e10016003a0082
:1043500085017200830173008381730000082000cf
:1043600015003a004000200013003700850172005c
:10437000830173008381730005003a0004a8be0026
:1043800006a8be00100020000b0037000201e90063
:104390000402420085824a0006034b0087834b00db
:1043a0000748a300f9ff32000740a00004a8be00a0
:1043b00006a8be002000200080009800920098000f
:1043c0000000060081002000618055000b003d00c8
:1043d0000b00200061fe2f000100e1001d003400f1
:1043e00082817100610164008904d1000884d300d6
:1043f0000000e800faff3a0071002000610064004c
:1044000003007000020060000900320061044400f3
:10441000e0844c000988a500050032008b05e80007
:104420006808e10002003a008904d1000884d30042
:10443000f20f20000258e10005003d00c75ddd00dd
:10444000f907b200898075000800780000000600b6
:0c4450000bf827008b007800000005002e
:020000040000fa
:100008009402000094020000940200009402000090
:100018009402000094020000940200009402000080
:100028009402000094020000940200009402000070
:100038009402000094020000940200009402000060
:100048009402000094020000940200009402000050
:100058009402000094020000940200009402000040
:100068009402000094020000940200009402000030
:10007800283100009402000094020000940200005d
:100088009402000094020000940200009402000010
:1000980094020000723100009402000094020000f3
:1000a80094020000940200009402000094020000f0
:1000b80094020000940200009402000094020000e0
:1000c80094020000940200009402000094020000d0
:1000d80094020000940200009402000094020000c0
:1000e80094020000940200009402000094020000b0
:1000f80094020000940200009402000094020000a0
:10010800940200009402000094020000940200008f
:10011800940200009402000094020000940200007f
:10012800940200009402000094020000940200006f
:10013800940200009402000094020000940200005f
:10014800940200009402000094020000940200004f
:10015800940200009402000094020000940200003f
:10016800940200009402000094020000940200002f
:10017800940200009402000094020000940200001f
:10018800940200009402000094020000940200000f
:1001980094020000940200009402000094020000ff
:1001a80094020000940200009402000094020000ef
:1001b80094020000940200009402000094020000df
:1001c80094020000940200009402000094020000cf
:1001d80094020000940200009402000094020000bf
:1001e80094020000940200009402000094020000af
:0801f8009402000094020000d3
:020000040000fa
:10020800940200009402000094020000940200008e
:10021800940200009402000094020000940200007e
:10022800940200009402000094020000940200006e
:10023800940200009402000094020000940200005e
:10024800940200009402000094020000940200004e
:10025800940200009402000094020000940200003e
:10026800940200009402000094020000940200002e
:10027800283100009402000094020000940200005b
:10028800940200009402000094020000940200000e
:1002980094020000723100009402000094020000f1
:1002a80094020000940200009402000094020000ee
:1002b80094020000940200009402000094020000de
:1002c80094020000940200009402000094020000ce
:1002d80094020000940200009402000094020000be
:1002e80094020000940200009402000094020000ae
:1002f800940200009402000094020000940200009e
:10030800940200009402000094020000940200008d
:10031800940200009402000094020000940200007d
:10032800940200009402000094020000940200006d
:10033800940200009402000094020000940200005d
:10034800940200009402000094020000940200004d
:10035800940200009402000094020000940200003d
:10036800940200009402000094020000940200002d
:10037800940200009402000094020000940200001d
:10038800940200009402000094020000940200000d
:1003980094020000940200009402000094020000fd
:1003a80094020000940200009402000094020000ed
:1003b80094020000940200009402000094020000dd
:1003c80094020000940200009402000094020000cd
:1003d80094020000940200009402000094020000bd
:1003e80094020000940200009402000094020000ad
:0803f8009402000094020000d1
:020000040000fa
:020000040002f8
:04affc00ff3f000013
:020000040000fa
:020000040002f8
:04aff800fdfa00005e
:020000040000fa
:10445c0020b200002020000020b20000202000002c
:10446c00b2200000b220000020200000202000001c
:10447c00b2200000b20d00000ab2000020b2000011
:10448c0020b2000020b200002020000020b200006a
:10449c0020200000b220000020b2000020200000ec
:1044ac000d0a0000b220000020b200002020000005
:1044bc00b2200000b2200000b220000020b20000a8
:1044cc0020200000b2200000b20d00000ab2000053
:1044dc0020200000b220000020b2000020b200001a
:1044ec0020200000b2200000b2200000b22000000a
:1044fc0020b200000d0a0000b220000020b2000023
:10450c0020200000b2200000b2200000202000007b
:10451c00b2200000b220000020200000b20d0000ec
:10452c000a20000020200000202000002020000095
:10453c00202000002020000020200000202000006f
:10454c0020200000202000000d0a0000b2b2000064
:10455c00b220000020b20000b2b20000b20d000088
:10456c000ab2000020200000b2200000b22000009f
:10457c00202000000d0a0000b220000020b2000034
:10458c0020b20000b2b20000b20d00000ab200006e
:10459c0020200000b2200000b220000020200000eb
:1045ac000d0a0000b2b20000b220000020b20000e0
:1045bc00b2b20000b20d00000a2000002020000062
:1045cc002020000020200000202000000d0a000008
:1045dc00536900006d7000006c65000020500000f5
:1045ec003250000020440000656d00006f20000078
:1045fc00204d0000524600003839000058410000a0
:10460c00204e00006f6400006520000031000000a7
:10461c000d0a000053740000617200007469000000
:10462c006e670000204e00006f64000065200000e3
:10463c00312000006f66000020530000696d0000ff
:10464c00706c000065200000446500006d6f000078
:10465c00206600006f720000204d000069570000ba
:10466c0069280000544d0000292000005032000041
:10467c005020000053740000616300006b200000a8
:10468c002e2e00002e0000000d0a0000496e0000c6
:10469c007075000074200000436f00006e6600000f
:1046ac00696700007572000061740000696f00009a
:1046bc006e3a0000000d00000a20000020200000cf
:1046cc0020200000202000002020000020200000de
:1046dc0042750000747400006f6e00002031000001
:1046ec003a20000052440000360000000d0a000081
:1046fc0020200000202000002020000020200000ae
:10470c00202000002042000075740000746f00002f
:10471c006e200000323a00002052000044370000a6
:10472c00000d00000a4f0000757400007075000049
:10473c0074200000436f00006e6600006967000083
:10474c007572000061740000696f00006e3a000021
:10475c00000d00000a200000202000002020000096
:10476c00202000002020000020200000202000003d
:10477c00202000002020000020200000202000002d
:10478c00525300003233000032200000706f0000e2
:10479c0072740000000d00000a20000020200000b0
:1047ac0020200000202000002020000020200000fd
:1047bc0020200000204c0000454400002031000067
:1047cc003a20000044310000300000000d0a0000c7
:1047dc0020200000202000002020000020200000cd
:1047ec002020000020200000202000004c4500006c
:1047fc0044200000323a0000204400003900000040
:10480c000d0a000020200000202000002052000093
:10481c004620000054720000616e000073630000bb
:10482c006569000076650000723a0000204d0000ba
:10483c00524600003839000058410000000d0000bd
:10484c000a20000020200000446500006d6f00006d
:10485c00204900006e730000747200007563000044
:10486c00746900006f6e00003a0000000d0a000031
:10487c00202000002020000020200000202000002c
:10488c00202000002020000020200000202000001c
:10489c002020000020200000205000006f77000036
:1048ac0065720000206f00006e200000746800002c
:1048bc0065200000626f000061720000642000003f
:1048cc00756e0000746900006c2000004c450000ff
:1048dc0044200000312000006c6900006768000073
:1048ec007473000020750000700000000d0a0000b9
:1048fc0020200000202000002020000020200000ac
:10490c00202000002020000020200000202000009b
:10491c002020000020200000207400006f200000e8
:10492c00696e00006469000063610000746500003a
:10493c00206300006f6e00006e6500006374000061
:10494c00696e000067200000776900007468000041
:10495c002070000065650000722e000020500000e1
:10496c0075730000680000000d0a00002020000094
:10497c00202000002020000020200000202000002b
:10498c00202000002020000020200000202000001b
:10499c00202000002042000075740000746f00009d
:1049ac006e20000031200000746f000020620000b7
:1049bc00726f00006164000063610000737400009a
:1049cc00206d0000657300007361000067650000d6
:1049dc002e2000005075000073680000204200007b
:1049ec0075740000746f00006e0000000d0a00006a
:1049fc0020200000202000002020000020200000ab
:104a0c00202000002020000020200000202000009a
:104a1c002020000020200000203200002074000024
:104a2c006f200000756e0000696300006173000068
:104a3c0074200000656e0000637200007970000045
:104a4c0074650000642000006d6500007373000045
:104a5c0061670000652e0000204c000045440000fa
:104a6c002032000020770000696c00006c00000010
:104a7c000d0a000020200000202000002020000053
:104a8c00202000002020000020200000202000001a
:104a9c0020200000202000002020000020620000c8
:104aac0065200000746f0000676700006c650000f3
:104abc0064200000757000006f6e00002072000012
:104acc006563000065690000766900006e67000090
:104adc00206d0000657300007361000067650000c5
:104aec00732e0000200000000d0a00000d0a0000cb
:104afc00004300006f6e00006e65000063740000e0
:104b0c00696e0000672000005065000065720000af
:104b1c00202000006f6e0000204300006861000040
:104b2c006e6e0000656c0000202500006420000003
:104b3c00000d00000a4300006f6e00006e6500005f
:104b4c0063740000696e000067200000506500006f
:104b5c0065720000206f00006e20000043680000aa
:104b6c00616e00006e6500006c200000000d0000fe
:104b7c000a000000204300006f6e00006e6500000c
:104b8c00637400006564000020500000656500003f
:104b9c0072200000206f00006e20000043680000af
:104bac00616e00006e6500006c2000002564000042
:104bbc00000d00000a4300006f6e00006e650000df
:104bcc0063740000656400002050000065650000ff
:104bdc00722000006f6e000020430000686100002e
:104bec006e6e0000656c0000200000005244000056
:104bfc00363a000020420000726f00006164000031
:104c0c006361000073740000202000005244000017
:104c1c00373a0000205500006e6900006361000007
:104c2c00737400000053000065630000757200008f
:104c3c006564000020000000427200006f610000fb
:104c4c006463000061730000742000005061000078
:104c5c00636b00006574000020770000697400002d
:104c6c00682000005253000053490000200000004f
:104c7c00556e000069630000617300007420000031
:104c8c0050610000636b0000657400002077000029
:104c9c006974000068200000525300005349000062
:104cac002000000020660000726f00006d200000e4
:104cbc00003a0000200000000d0a000053650000bf
:104ccc006c65000063740000696f00006e200000ca
:104cdc006f66000020630000686100006e6e0000cb
:104cec00656c0000200000002069000073200000ab
:104cfc006e6f00007420000073750000707000006f
:104d0c006f7200007465000064200000696e000082
:104d1c002063000075720000726500006e74000064
:104d2c00206300006f6e000066690000677500006c
:104d3c0072610000746900006f6e00002e0d00009f
:104d4c000a0000000d0a0000556e000069630000a7
:104d5c00617300007420000046610000696c000063
:104d6c00656400000d0a000000200000556e000074
:104d7c00696300006173000074200000466100004c
:104d8c00696c000065640000000000002043000016
:104d9c00686100006e6e0000656c00003a00000057
:104dac000d0a00000d0a00004d79000020410000a2
:104dbc006464000072650000737300003a20000008
:104dcc0030780000002000002043000068610000e3
:104ddc006e6e0000656c00003a200000000d0000b3
:104dec000a4300006f6e00006e65000063740000e3
:104dfc00696f00006e2000002020000020200000c1
:104e0c0050650000657200004c6f00006e6700007a
:104e1c0041640000647200006573000073200000a0
:104e2c00202000002020000050650000657200006a
:104e3c00496e0000666f00000d0a000000200000a3
:104e4c002020000020200000202000002020000056
:104e5c002020000020200000002000002000000086
:104e6c002020000020200000000d00000a0000009f
:104e7c000d0a00000d0a0000436f00006e6e00006a
:104e8c0065630000746900006f6e00002020000054
:104e9c00202000002050000065650000724c0000ce
:104eac006f6e0000674100006464000072650000d2
:104ebc007373000020200000202000002050000010
:104ecc0065650000724900006e6600006f0d000001
:104edc000a000000535300005353000053530000ca
:104eec00535300005353000053530000535300001e
:104efc00535300005353000053530000545400000c
:104f0c0054540000545400005454000054540000f5
:104f1c00545400001d20000022250000282b000006
:104f2c002e30000033360000393c00003f410000b9
:104f3c00444700004a4d00004f5200000a0d00008b
:104f4c0010120000151800001b1e0000202300008a
:104f5c00262900002600000084020000090400003d
:104f6c00090600000c080000c10a0000770c0000c4
:104f7c00630e000019100000001200000014000065
:104f8c000016000038180000c81a00000d1c0000a4
:104f9c00001e00007220000038220000382400009f
:104fac000726000000280000002a0000692c0000e1
:104fbc00812e00007e30000096320000f834000094
:104fcc008836000040380000003a0000e83c000041
:104fdc00003e000054580000204d00006573000096
:104fec007361000067650000733a00002025000023
:104ffc006400000052580000204d00006573000052
:10500c007361000067650000733a00002025000002
:10501c006400000000010000020300000405000011
:04502c000607000073
:020000040000fa
:105030000200fa0000c2b3003c0007000042780002
:10504000044f78009e4278000582fb006f026200e8
:105050000402e8007922b900040278000400780014
:105060000080fa00000006000400fa001007980013
:10507000b40480004d22de0061426200044f7800db
:10508000b40480004422de00614262000482fb001e
:1050900004f0a7000402ea000402ea004f22de0046
:1050a000144798009680a90097a0a900ca22a900d9
:1050b0001e0290004822de0004427800044078007e
:1050c000e41407001e0290000442780004407800b7
:1050d000e0140700ca22a8009e42780061c2620064
:1050e0000482fb00610262004d22dd00b6048000f4
:1050f000f5ff2d008502630004827200b40488006d
:105100001e4290000482fb00610262004422dd0026
:10511000b6048000f5fe2f00850263000482720051
:10512000b40488000080fa00000006000600fa00bf
:1051300040479800b40480004d22de0061426200c6
:10514000044f7800b40480004422de006142620013
:105150000482fb0004f0a7000402ea000402ea0053
:105160004f22de00144798009680a90097a0a9005e
:10517000ca22a900ce42900004c4b30004c2720047
:10518000444798004e409000b2140700c114070035
:105190000042780024479800ca22a8009e42780066
:1051a00061c262000482fb00610262004d22dd00e8
:1051b000b6048000f5ff2d008502630004827200b2
:1051c000b40488001e4290000482fb006102620069
:1051d0004422dd00b6048000f5fe2f008502630046
:1051e00004827200b40488002e42900004407800cb
:1051f0000080fa00000006000400fa002047980032
:10520000b40480004d22de0061426200044f780049
:10521000b40480004422de00614262000482fb008c
:1052200004f0a7000402ea000402ea004f22de00b4
:10523000144798009680a90097a0a900ca42a90027
:105240002e40900083140700ca42a8009e427800b6
:1052500061c262000482fb00610262004d22dd0037
:10526000b6048000f5ff2d00850263000482720001
:10527000b40488001e4290000482fb0061026200b8
:105280004422dd00b6048000f5fe2f008502630095
:1052900004827200b40488000080fa000000060056
:1052a0001000fa00604f9800714f980034c0b300ae
:1052b00034479800880037000042eb0044479800cc
:1052c00001003700000000000042eb0004407800bd
:1052d000c5e9b7000042eb00244798007e4a9000e1
:1052e000e04f52001a0032000100370000000000b9
:1052f00080c2b3008dff0700004278005447980039
:105300005e4290000482fb000402d10054479800e2
:10531000de42900014c4b30084cf52000c0036006b
:1053200014c0b300ae429000e4cf520001003e0032
:105330000042eb00ae4290008542e800254798000d
:10534000e04f5200e9ff32000042eb006f003700ef
:105350009680a90097a0a90000c2b3002a01070007
:1053600090ac210040ff07006e489000a2ff0700ac
:105370000042eb00144798000a0037001e429000dc
:105380008482fb00648b2000048242001442780077
:105390000440780098ff07001e4290000442e80095
:1053a000144798009e4290006e4a900084cf5200ad
:1053b000f2ff390000c8b300130107009680a8006f
:1053c00097a0a80000000000449c20001442780030
:1053d0000404a200e04f52000500320035048000b2
:1053e0000400220004826200e00f5200f6ff320047
:1053f0000042eb0004407800c4e9b70000c2b300eb
:105400000101070000c6b300ff000700648b200005
:10541000144278008482fb000402200004826200af
:10542000e00f520029003400748b200014427800f1
:105430000440780086e8b700660247000400780060
:10544000641407000100370000000000549c200095
:1054500014427800e04f52000300320014c0b30041
:10546000044f7800280037006a02470004007800e3
:10547000581407005e039000ee0390003e02900077
:10548000ce0290000403530085835b0054c32000c8
:1054900005002000840f5300858f5b00eaff360073
:1054a00014c0b300ce429000e3cf5200010036009a
:1054b0000042eb00ce4290008542e800454798004c
:1054c000e04f52007fff3a000300370014c0b300e2
:1054d000044f78000c0037003e4290000482fb002d
:1054e0000402ea004f22de0004427800be4290002f
:1054f0008542e90035479800e04f52006eff3a00c0
:105500000042eb00044f78001e427800044078000f
:105510000080fa00000006000400fa00000f780086
:10552000110798000042eb00044078000080fa0068
:10553000000006000200fa00004f780011479800b2
:105540001e427800ff4f5200020036000042eb007e
:105550002100370040c62000c3fe07009e427800ad
:105560000582fb0005772a0065427a008482fb00f1
:1055700004e020000482720004007800bafe0700f4
:105580009e4278000582fb0005792a0065427a0078
:105590008482fb0004002100048272000400780071
:1055a000b1fe070000c2b3009700070060042000ae
:1055b000adfe070000c4b30093000700f0c0210057
:1055c000a9fe070000c2b3008f00070000c6b300a9
:1055d0008d00070014c0b300044078000080fa007a
:1055e000000006000200fa00004f78001e4278001a
:1055f000e74f5200020036000042eb00090037007e
:105600009e4278000582fb0004024200840278007a
:10561000044f2300048272000400780092fe070009
:1056200014c0b300044078000080fa0000000600b7
:105630000600fa0010079800210798001e0290004b
:10564000ae029000144488002544880040012000e8
:1056500061130700ca22a800ca42a80034088000cb
:10566000044278000440780087e8b70000c2eb00ed
:105670000440780088e8b7000042eb00044f78004f
:105680000a0037001e4278008482fb0014042000c8
:1056900004aab900840278000480200084824200b9
:1056a0000042eb00844a78001e4fe8001e4278005a
:1056b000e14f5200f3ff36001e02900064026200c8
:1056c000e00f520013003200744d800042002000b1
:1056d00084007800a08a2000db1007005645800077
:1056e00067458000044020000500200006024200bb
:1056f00087824a005445880065458800744d8000c3
:105700004200200084007800a08a2000fe100700dc
:105710000c0037006022b8005445880065458800b9
:10572000744d80004200200084007800a08a200090
:10573000f5100700140020000500200054458800e3
:10574000654588000042eb00044f78000a003700ee
:105750009e4278000583fb001e4078000082fb001b
:1057600005812a0065427a00e58a2000850243000f
:10577000844a78001e4fe8001e427800e74f52002e
:10578000f3ff36000042eb00044f780009003700b9
:105790009e4278000582fb0084024200047b2a00be
:1057a0000482420014027800040078002efe0700f4
:1057b0001e4fe8001e427800ff4f5200f4ff3600f3
:1057c00000c2b300100007006004200026fe07009e
:1057d00000c4b3000c000700f0c0210022fe070047
:1057e00000c6b300080007008680a9009680a800c4
:1057f00087a0a90097a0a80014c0b30004407800b7
:105800000080fa00000006000200fa00004f780055
:105810001e4078000082fb0005042000850f520026
:105820001b00320005042000850f520006003c00da
:10583000e00f52002200320005022000850f5200c6
:10584000190032002400370005062000850f5200a1
:105850000900320005082000850f52001e003a00a2
:105860006008200000fe070004c8b3000440780070
:1058700089e8b7001800370060062000fafd07002d
:1058800004c6b3000440780089e8b700120037006e
:1058900060042000f4fd070004c4b3000440780055
:1058a00089e8b7000c00370060022000eefd070019
:1058b00004c2b3000440780089e8b700060037004e
:1058c00060002000e8fd07000042eb000440780083
:1058d00089e8b700000000000080fa000000060020
:1058e0000c00fa0020079800310798004207980042
:1058f000234f9800ae4a900084c2b30084cf520078
:10590000020036000042eb00d60037002e02900065
:105910006402620004f0a7000402ea000402e90045
:105920004f22de00044278000482fb006102620024
:105930004622dd002e039000f5fb2f008502630058
:1059400004827200240798002e0290006302620015
:10595000e10f520003003a002e0290000470a000f4
:10596000240798004e42900004407800b6e8b70043
:10597000748820001442780004407800b7e8b7002b
:105980000442e8000440780087e8b70024c0b30070
:1059900014479800ae0290000404200004826200c4
:1059a000e00f5200190032000042eb00044f780073
:1059b0000e0037001e4290000483fb00be029000e0
:1059c0009e4378000782fb00048242001442780064
:1059d000658b200085024300844a78001e429000b7
:1059e0000442e800144798001e4fe8001e4078006b
:1059f0008082fb00144480004322de006f4262007c
:105a00000482fb00848f5200eaff3500ae02900052
:105a10000408200004826200e00f520019003200e6
:105a20000042eb00044f78000e0037001e42900049
:105a30000483fb00254480009e4378000782fb001e
:105a40000482420014427800658b200085024300e6
:105a5000844a78001e4290000442e80014479800ef
:105a60001e4fe8001e4078008082fb001444800036
:105a70004322de006f4262000482fb00848f5200ea
:105a8000eaff35002e02900068026200e00f52002b
