:04000000ECEF01F030
:10000800E1CF22F0E2CF23F0D9CF24F0DACF25F0E8
:10001800F3CF26F0F4CF27F0F0B4F0AAC1D14F50B7
:10002800600A01E0B8D1280E42EC18F01E6ED89094
:100038001E30506E50C0E3F08B9495EC19F0326E80
:100048008B84336A33503D0D0201000EF324D96EC0
:10005800020EF420DA6EDFA004D0332A010E3364D6
:10006800F1D73250020A03E1010E2F6E01D02F6A38
:100078003B0E325C07E2325005E0010E336411D0CA
:100088002F660FD01A0E42EC18F007D08B9495EC1F
:1000980019F08B841A0E42EC18F02A6E2AA27ED12F
:1000A800F5D7306A32C028F0296A71D12806D8A05D
:1000B80029062F5008E08B9430502B0FD96EDA6A3E
:1000C80095EC19F013D08B9433503D0D010E1E6E34
:1000D800020E1F6EF3501E26F4501F2230501E24AD
:1000E800D96E000E1F20DA6E95EC19F0DF6E302AFB
:1000F8008B843250305C01E24AD12F5028E02BC06B
:100108001EF0030E1E161E50020A09E1535020EE7F
:100118002CF0DF6243D1010E0001E66F3FD1010EE2
:10012800336401D0AFD733503D0D010EF324D96E9F
:10013800020EF420DA6E2BC0DFFF33503D0D020EA5
:10014800F324D96E020EF420DA6E2CC0DFFF335090
:100158003D0D3C0EF324D96E020EF420DA6E32C047
:10016800DFFF316833503D0D010EF324D96E020EC6
:10017800F420DA6EDF501E6E1EAC2ED0346A25D005
:10018800DA513424D96EDA6ADF501E6E33503D0DD1
:10019800030E1F6E020E206EF3501F26F45020220D
:1001A80034501F24D96E000E2020DA6EDF501E183E
:1001B8000BE033503D0D02013C0EF324D96E020EC4
:1001C800F420DA6EDF6A5ED7342A0001D931E832CA
:1001D800E8320F0B345CD4E333503D0D010EF324A9
:1001E800D96E020EF420DA6EDF501E6E1EAA34D0CD
:1001F800346A01011E0E3424D96EDA6A010EDA223D
:1002080034502B0FE16EE26ADFCFE7FF342A010E8C
:100218003464EFD7060E1E6F33503D0D020EF324E3
:10022800D96E020EF420DA6EDF501F6FF0940A6A5E
:10023800020E8BEC0FF0346A34502B0FD96EDA6A49
:100248001E0E3424E16EE26A010EE222DFCFE7FFE0
:10025800342A010E3464F0D7346A3450060D010193
:10026800000EF324D96E010EF420DA6EDF5032E06E
:100278003450060D010EF324D96E010EF420DA6E07
:1002880033503D0D0201020EF324E16E020EF420FC
:10029800E26EE750DF621ED098EC16F001C01EF047
:1002A80002C01FF003C020F004C021F03450060D36
:1002B8000101020EF324D96E010EF420DA6E1EC07D
:1002C800DEFF1FC0DEFF20C0DEFF21C0DDFFD90634
:1002D800D90613D031280DE13450060D0101000E66
:1002E800F324D96E010EF420DA6EDF50D8B434C08E
:1002F80031F0342A040E3464B0D7040E34644ED07E
:10030800050E315C39E23150060D000EF324D96E2A
:10031800010EF420DA6E010EDF6E33503D0D020E31
:10032800F324D96E020EF420DA6E3150060D010165
:10033800010EF324E16E010EF420E26EDFCFE7FF39
:1003480098EC16F001C01EF002C01FF003C020F0A8
:1003580004C021F03150060D020EF324D96E010EAF
:10036800F420DA6E1EC0DEFF1FC0DEFF20C0DEFFF5
:1003780021C0DDFFD906D90633503D0D0201000E1C
:10038800F324D96E020EF420DA6EDF8007D02950EC
:10039800281004E08BD6010E0001DD6FF09400F008
:1003A8009EB09DA006D09E90542A546602D00001AB
:1003B800E72B51EC19F027C0F4FF26C0F3FF25C046
:1003C800DAFF24C0D9FF23C0E2FF22C0E1FF1100F9
:1003D800C0EF13F0700E7D6F96D38451250A09E0A3
:1003E8006CC0D9FF6DC0DAFF84C0DFFF6C4B6D2B8A
:1003F8008AD37F6B806B856B866B09D0858705D028
:10040800858103D0868701D085856E4B6F2B6EC0A2
:10041800F6FF6FC0F7FF0800F550200AF1E0030A65
:10042800F1E00E0AEBE01D0AEFE085B785956EC096
:10043800F6FF6FC0F7FF0800F550F6EC18F02EE352
:100448007F6B806B7FC060F080C061F0636B0A0EC9
:10045800626F7FEC18F060C07FF061C080F0D00E52
:10046800726F73696EC0F6FF6FC0F7FF0800F55032
:10047800746F756B725174277351752374517F278C
:10048800755180236E4B6F2B6EC0F6FF6FC0F7FF60
:100498000800F550F6EC18F014E3D4D76EC0F6FF58
:1004A8006FC0F7FF0800F5502A0A0BE17D51D96E9D
:1004B800DA6ADECF7FF0DDCF80F0020E7D276E4B4B
:1004C8006F2B6EC0F6FF6FC0F7FF0800F5502E0ABD
:1004D80030E1868D6E4B6F2B6EC0F6FF6FC0F7FF55
:1004E8000800F5502A0A0AE17D51D96EDA6ADF5010
:1004F8007E6F020E7D276E4B6F2B8FD07E6B0FD0D9
:100508006EC0F6FF6FC0F7FF0800F5CF72F07E519E
:100518000A0DF3507225D00F7E6F6E4B6F2B6EC095
:10052800F6FF6FC0F7FF0800F550F6EC18F075E31A
:10053800E7D77E6B72D0858D8ED0858B858F8BD0DB
:100548007E510FE07EC072F0736B72BF73078251E9
:10055800725D8351735905E27E51826F836B82BF4E
:1005680083077F51825D8051835907E220EE82F034
:10057800DE507F5FDD50805B02D07F6B806B85A78C
:1005880009D01DD06CC0D9FF6DC0DAFF200EDF6E18
:100598006C4B6D2B7F07D8A0800700017F29D8B44A
:1005A80080290DE0EFD78151D96EDA6A6CC0E1FF7E
:1005B8006DC0E2FFDFCFE7FF812B6C4B6D2B82070D
:1005C800D8A0830700018229D8B48329ECE185B734
:1005D80009D099D26CC0D9FF6DC0DAFF200EDF6E4A
:1005E8006C4B6D2B7F07D8A0800700017F29D8B4FA
:1005F800802901E188D2EED77D51D96EDA6ADF50C1
:10060800846F020E7D27840E816F000E836F010EAA
:10061800826F96D7C00E85131ED06EC0F6FF6FC0CE
:10062800F7FF6E4B6F2B0800F5CF84F00001845163
:1006380001E175D2580A81E03B0ADEE0070A0BE0C7
:100648000D0A09E0060A01E176D71A0AE3E00D0A65
:1006580001E174D7D8D785C072F0C00E721719E1BE
:100668007D51D96EDA6ADECF81F0DDCF82F0020EDD
:100678007D278251800AF36E800EF35C000ED8B499
:10068800815D10E2030E8513816D821FD8B0822B25
:1006980009D07D51D96EDA6ADECF81F0DDCF82F0E4
:1006A800020E7D277E6753D08251811150E17E2B47
:1006B8004ED0010E846F8451050A52E08451020D18
:1006C800790EF324F66EFB0EF420F76E0900F5CFD1
:1006D80072F00900F5CF73F07251815D7351825940
:1006E8003FE3842BE8D7010E846F8451040A38E075
:1006F8008451020D830EF324F66EFB0EF420F76E80
:100708000900F5CF72F00900F5CF73F07251815DE1
:100718007351825925E3842BE8D7010E846F8451E5
:10072800060A1EE08451020D6D0EF324F66EFB0ED0
:10073800F420F76E0900F5CF72F00900F5CF73F0D9
:100748007251815D735182590BE3842BE8D785512F
:10075800C00BAFE0400AE1E0C00AC5E0400AA9E0EA
:100768008451800A726F7E51800A725D03E27EC0F6
:1007780084F009D07E51800A726F8451800A725DBC
:10078800D8A084C07EF080517F1108E085C072F047
:10079800030E721703E07F07D8A0800786AD13D039
:1007A800800E7EBF7F0E726F7F517E5D8051800A02
:1007B800725907E27E517F5F000E7EBFFF0E805B9D
:1007C80002D07F6B806BC40E726F080E736F85C08A
:1007D80074F086C075F0725174177351751775519E
:1007E800080A400ED8B4741907E180517F1124E03B
:1007F8007F07D8A0800720D0C00E726F080E736FD5
:1008080085C074F086C075F07251741773517517EE
:100818007551080A800ED8B474190EE18051800A07
:10082800800F030ED8B47F5D05E3FE0E7F27FF0E11
:10083800802302D07F6B806B800E84BF7F0E726F27
:100848007F51845D8051800A725907E284517F5F2D
:10085800000E84BFFF0E805B02D07F6B806B85A586
:1008680050D085C072F0030E721709E06CC0D9FF32
:100878006DC0DAFF2D0EDF6E6C4B6D2B31D085A16C
:1008880006D06CC0D9FF6DC0DAFF200EF4D7C00EB9
:10089800726F080E736F85C074F086C075F0725160
:1008A8007417735175177551080A800ED8B47419E6
:1008B80017E16CC0D9FF6DC0DAFF300EDF6E6C4BEC
:1008C8006D2B85BB03D0786B780E02D0786B580EF1
:1008D800776F6CC0D9FF6DC0DAFF77C0DFFFCCD768
:1008E80080517F1101E1F3D06CC0D9FF6DC0DAFFF0
:1008F800300EDF6E6C4B6D2B7F07D8A08007000190
:10090800EFD780517F11D8A485B70FD06CC0D9FF1D
:100918006DC0DAFF200EDF6E6C4B6D2B7F07D8A001
:100928008007000180517F11F1E185C072F0030E4C
:10093800721709E06CC0D9FF6DC0DAFF2D0EDF6EAB
:100948006C4B6D2B08D085A106D06CC0D9FF6DC04B
:10095800DAFF200EF4D7C00E726F080E736F85C0D1
:1009680074F086C075F0725174177351751775510C
:10097800080A400ED8B4741909E16CC0D9FF6DC0DB
:10098800DAFF300EDF6E6C4B6D2BA1D0C00E726F8C
:10099800080E736F85C074F086C075F072517417B5
:1009A800735175177551080A800ED8B4741901E08F
:1009B8008ED06CC0D9FF6DC0DAFF300EDF6E6C4B85
:1009C8006D2B85BB03D07A6B780E02D07A6B580EEC
:1009D800796F6CC0D9FF6DC0DAFF79C0DFFFD3D75C
:1009E8007E51020D790EF324F66EFB0EF420F76E9D
:1009F8000900F5CF62F00A00F5CF63F081C060F01E
:100A080082C061F073EC16F060C067F061C068F0F6
:100A18006A6B0A0E696F1FEC17F0675145D081C0E9
:100A280060F082C061F07E51020D830EF324F66EF1
:100A3800FB0EF420F76E0900F5CF62F00A00F5CF3F
:100A480063F073EC16F060510F0B766F85BB04D022
:100A5800FF0E7C6F7A0E03D0FF0E7C6F690E7B6FE2
:100A680076517B25726F000E7C21736F72C0F6FF82
:100A780073C0F7FF0800F5CF84F022D081C060F082
:100A880082C061F07E51020D6D0EF324F66EFB0EEE
:100A9800F420F76E0900F5CF62F00A00F5CF63F095
:100AA80073EC16F06051070B300F846F09D0855135
:100AB800C00B96E0400AE2E0C00AB1E0400A90E0CC
:100AC8006CC0D9FF6DC0DAFF84C0DFFF5CD77E073A
:100AD80000017E29ECE185A716D08051800A800F9D
:100AE800010ED8B47F5D0FE36CC0D9FF6DC0DAFF8B
:100AF800200EDF6E6C4B6D2B7F07D8A0800700019E
:100B080080517F11F1E16EC0F6FF6FC0F7FF6E4BA9
:100B18006F2B0800F5CF84F0000184675ED46CC0A9
:100B2800D9FF6DC0DAFF000EDF6E000C0001E1A3F3
:100B38002ED04DEC16F060C0A6F061C0A7F062C0E0
:100B4800A8F063C0A9F0D551A65DA26FD651A759E8
:100B5800A36FD751A859A46FD851A959A56F910E61
:100B6800A25DD00EA359030EA459000EA5590FE398
:100B7800E193010E0001626F590E616FF2C063F0DC
:100B8800F3C064F0666B320E656FCDEC12F00001B5
:100B9800E1B71200C1EC07F00009D8B41200000157
:100BA800BF6BC9A503D0A26BA22B01D0A26BBF510A
:100BB800A219FC0BA219BF6FC9A702D0BF8702D028
:100BC8000001BF97C951030BA26FA205010ED8A45B
:100BD800000EA36FA33BA347BF51A319DF0BA319B3
:100BE800BF6FC9AF02D0BF8D02D00001BF9DC9AF92
:100BF80004D0CBC0C3F0CAC0C2F0CEC0C6F0CDC0CE
:100C0800C5F0CCC0C4F0D0C0C8F0CFC0C7F0BFBBDF
:100C180095D1A8D120EE01F0C451D926C551DA22C8
:100C2800DF50FA1903E0A4EC18F09DD1FC51030A37
:100C3800FAE033EC0DF0AA6FFC0507E1AA0505E020
:100C4800AA51020A02E0F30EAA6FE56BAC0E00018E
:100C5800E525D96EDA6A010EDA22910EDF6EE52BF0
:100C6800AC0EE525D96EDA6A010EDA22AAC0DFFFDA
:100C7800E52BAA5102E0AA051CE1AC0E0001E5250E
:100C8800D96EDA6A010EDA22E0C0DFFFE52BAB6B22
:100C9800AB51FB0FD96EDA6AAC0E0001E525E16EA7
:100CA800E26A010EE222DFCFE7FFE52BAB2BAB5167
:100CB800EFE0A4EC18F0C3C098F0C2C097F0010EA2
:100CC800996F000EBFB7010E9A6F000E1FEC13F05C
:100CD800AA6749D1DE510A0D590EF3240001616F4C
:100CE800010EF420626FDE510A0DF251F324636F96
:100CF800F351F420646F666B0A0E656FCDEC12F049
:100D080032D1020EFC6501D08ED720EE01F0C4511D
:100D1800D926C551DA22DF50FA1985E1E56BAC0E08
:100D28000001E525D96EDA6A010EDA22970EDF6E28
:100D3800E52BAC0EE525D96EDA6A010EDA22E0C0A1
:100D4800DFFFE52BAB6BAB51FB0FD96EDA6AAC0E4C
:100D58000001E525E16EE26A010EE222DFCFE7FF3E
:100D6800E52BAB2BAB51EFE0A4EC18F0C3C098F027
:100D7800C2C097F0010E996F000EBFB7010E9A6FAF
:100D8800000E1FEC13F0EFD0E56BAC0E0001E5256B
:100D9800D96EDA6A010EDA22920EDF6EE52BAB6BA2
:100DA800AB510A0D610EF324D96E010EF420DA6EF0
:100DB800DFAE3BD00001C3C061F0C2C060F0AB51F0
:100DC8000A0D590EF324626F010EF420636FFAECDA
:100DD80017F000092AE0AB510A0D610EF324D96E11
:100DE800010EF420DA6EDF6A0001AB510A0D590ECC
:100DF800F324616F010EF420626FAB510A0DF251BA
:100E0800F324636FF351F420646F666B0A0E656F09
:100E1800CDEC12F0AC0E0001E525D96EDA6A010EB0
:100E2800DA22000EDF6AE52B05D00001AB2B040E99
:100E3800AB65B6D7A4EC18F0AB51050A0AE1AC0EC5
:100E48000001E525D96EDA6A010EDA22F00EDF6EAE
:100E5800E52BC3C098F0C2C097F0010E996F000E41
:100E6800BFB7010E9A6F000E1FEC13F07CD033EC65
:100E78000DF0E1834DEC16F060C0D5F061C0D6F0FE
:100E880062C0D7F063C0D8F0CED620EE01F0C451CE
:100E9800D926C551DA22DF50EAE0010AE8E0C3D6D4
:100EA800E1BBE19BC0D620EE01F0C451D926C55163
:100EB800DA22DF5001E0B7D6AB6BAB510A0D610EF9
:100EC800F324D96E010EF420DA6EDFAE31D00001C2
:100ED800C3C061F0C2C060F0AB510A0D590EF324D3
:100EE800626F010EF420636FFAEC17F0000920E03E
:100EF800AB510A0D610EF324D96E010EF420DA6E9F
:100F0800DF6A0001AB510A0D590EF324616F010E1F
:100F1800F420626FAB510A0DF251F324636FF35161
:100F2800F420646F666B0A0E656FCDEC12F07BD609
:100F38000001AB2B040EAB65C0D775D6C4C0D9FF72
:100F4800C5C0DAFFDF50810A01E164D6030A01E176
:100F58001BD7050A01E1D5D6160A97E0030AA3E0D4
:100F6800050A9EE0E1870001C651D8A4E1B902D084
:100F7800E1AB1200E197A4EF18F0A16B4DEC16F06D
:100F880060C096F061C097F062C098F063C099F0B5
:100F9800A151060D000EF324D96E010EF420DA6E6D
:100FA800DF5048E00001A151060D020EF324D96E6E
:100FB800010EF420DA6EDECF8EF0DECF8FF0DECFBA
:100FC80090F0DECF91F096518E5D97518F599851E0
:100FD8009059995191592EE2A151060D020EF32410
:100FE800D96E010EF420DA6EDECF8EF0DECF8FF0F0
:100FF800DECF90F0DECF91F08E51965D926F8F51DB
:101008009759936F90519859946F91519959956F39
:10101800910E925DD00E9359030E9459000E955976
:1010280009E3A151060D000EF324D96E010EF42038
:10103800DA6EDF6A0001A12B040EA1659FD7E429AF
:1010480001E0000CA16BA1513D0D000EF324D96EF7
:10105800020EF420DA6EDFA009D10001A1513D0D86
:10106800010EF324D96E020EF420DA6EDF50C96F38
:10107800A1513D0D3C0EF324D96E020EF420DA6E18
:10108800DF50CE6F020EA06FC9AD05D0D931E8325E
:10109800E8320F0BA027C9AF18D0A1513D0D010EA2
:1010A8008E6F020E8F6FF3508E27F4508F23A0514E
:1010B8008E27000E8F238EC0CAF08FC0CBF0D93197
:1010C800E832E8320F0BA02702D0CA6BCB6BC9A756
:1010D800B4D0A1513D0D050E8E6F020E8F6FF350E7
:1010E8008E27F4508F23A0518E25D96E000E8F21A4
:1010F800DA6EDF500CE0A1513D0D0201000EF32421
:10110800D96E020EF420DA6E000EDF6E000CC9AF45
:1011180068D09F6B9F510A0D610EF324D96E010EA2
:10112800F420DA6EDFAE11D000019F510A0D590E7E
:10113800F324606F010EF420616FCBC063F0CAC066
:1011480062F0FAEC17F0000905E100019F2B040E8C
:101158009F65E0D7050E9F5D44E29E6BA1513D0D52
:10116800010E8E6F020E8F6FF3508E27F4508F236F
:10117800A0518E27000E8F239E518E25D96E000E0A
:101188008F21DA6E9E519A0FE16EE26ADFCFE7FF98
:101198009E2B030E9E65E2D79F51040DF350350F29
:1011A800D96EDA6ADECF8EF0DECF8FF0DECF90F028
:1011B800DECF91F08E519A5D8F519B5990519C5979
:1011C80091519D5998E39F51040DF350350FD96EF5
:1011D800DA6A9AC0DEFF9BC0DEFF9CC0DEFF9DC0BE
:1011E800DEFF050EA027A1513D0D010E8E6F020EE8
:1011F8008F6FF3508E27F4508F238EC082F08FC0EC
:1012080083F0A0C084F0A1513D0D3C0EF324D96EAB
:10121800020EF420DA6EDF500001906FA051905D4D
:10122800856F010E876FCA0E866FC5EC11F0000935
:1012380001E161D7A051020F01D0A051CE5FA151A9
:101248003D0D010E8E6F020E8F6FF3508E27F450F6
:101258008F23A0518E27000E8F238EC0CCF08FC015
:10126800CDF0E3C0CFF0A1C0E4F0010C0001A12B48
:10127800010EA165E8D6000C6D6F050E6D651CD0DA
:10128800FF0E626F560E616FB5EC18F06F6B6F5101
:101298005C08D96EDA6ADF503EEC17F000016F2B5C
:1012A800070E6F65F4D7FF0E626FCB0E616FB5EC5A
:1012B80018F0FA5115EC15F0050E00016D5D64E2A9
:1012C800FD0E626F0F0E616FB5EC18F06D510A0DCF
:1012D8000101610EF324D96E010EF420DA6EDFAE3F
:1012E800120000016D513EEC17F0FF0E0001626F15
:1012F800BD0E616FB5EC18F06F6B080E6F5D15E2EF
:101308006D510A0D600E6B6F010E6C6FF3506B27F9
:10131800F4506C236F516B5DD96E6C51D8A06C057D
:10132800DA6EDF503EEC17F006D0FF0E626FC80E83
:10133800616FB5EC18F000016F2B070E6F65DDD7F4
:10134800FF0E626FC60E616FB5EC18F06F6B6D51D2
:101358000A0D620E6B6F010E6C6FF3506B27F45021
:101368006C236F516B25D96E000E6C21DA6EDF503D
:101378003EEC17F000016F2B6F51E9E0FF0E626F32
:10138800F30E616FB9EF18F0FD0E626F0D0E616F0D
:10139800B5EC18F06F6B6F510A0D610EF324D96E1E
:1013A800010EF420DA6EDFAE53D000016F513EEC2F
:1013B80017F0FF0E0001626FBD0E616FB5EC18F0FB
:1013C8006E6B080E6E5D15E26F510A0D600E6B6F45
:1013D800010E6C6FF3506B27F4506C236E516B5DEC
:1013E800D96E6C51D8A06C05DA6EDF503EEC17F060
:1013F80006D0FF0E626FC80E616FB5EC18F00001E1
:101408006E2B070E6E65DDD7FF0E626FC60E616F1D
:10141800B5EC18F06E6B6F510A0D620E6B6F010E12
:101428006C6FF3506B27F4506C236E516B25D96E9B
:10143800000E6C21DA6EDF503EEC17F000016E2BC7
:101448006E51E9E0FF0E626FF30E616FB5EC18F0B4
:1014580000016F2B040E6F659ED7040C0101E36B2E
:10146800E46BE66BE56B93EC14F05BEC19F062EC63
:1014780011F089948996000E8DEC0CF0190EE2ECAF
:1014880017F0000905E1190E92EC18F0ECEF01F0E5
:10149800000E5CEC17F000018C6B190EC0EC15F017
:1014A800AC6BFF0E6FEC0EF00101E76FE72907E068
:1014B800010E00018C6F190EC0EC15F00AD00A0E4F
:1014C8000001606F000E616B626B636B646B6CECA8
:1014D80019F0FF0E40EC09F0898447EC19F08AEC0A
:1014E80019F000090DE0FDEC10F00101E52BE5C154
:1014F80089F0E6517CEC19F089769EEC19F0EFD76B
:1015080050EC14F00101E26F7BD00001E56B0101A2
:10151800E76B060E0001606F0101E35158EC18F00B
:10152800150D2D0EBD6FFA0EBE6FF350BD27F4508A
:10153800BE230101E7510001BD27000EBE23BDC037
:10154800F6FFBEC0F7FFAC0EE525D96EDA6A010ECC
:10155800DA220800F5CFDFFFE52B0101E72B140E97
:10156800E765D7D7E32B000E3DEC19F0E5C189F00C
:101578000101E62BE6517CEC19F0B1D70001E56BCF
:101588000101E76B060E0001606F0101E45158ECA0
:1015980018F00B0DAB0EBD6FFA0EBE6FF350BD27E2
:1015A800F450BE230101E7510001BD27000EBE2300
:1015B800BDC0F6FFBEC0F7FFAC0EE525D96EDA6AEE
:1015C800010EDA220800F5CFDFFFE52B0101E72B3A
:1015D8000A0EE765D7D7E42B010E0001A56F000EB0
:1015E80079EC17F0000903E1D7EC18F002D00101FB
:1015F800E62BE5C189F00101E6517CEC19F06FD7C3
:10160800E251010A82E0030AB9E069D71E0E926529
:1016180001D0000C010E8DB5000E936F933B9347DC
:1016280093478D519319BF0B93198D6F8D51030BF0
:10163800936F9305D8B48D8F8DC01EF1DFC01FF155
:10164800DF2B020E956F8DAD19D0966B11D0965188
:101658008E25D96E000E8F21DA6E1E0E000195259B
:10166800E16EE26A010EE222DFCFE7FF952B962BAF
:10167800D931E832E8320F0B965DE9E38DAF17D028
:10168800966B0FD0DA519625D96EDA6A1E0E0001D4
:101698009525E16EE26A010EE222DFCFE7FF952B86
:1016A800962BD931E832E8320F0B965DEBE38DA724
:1016B8005ED0966B9651E80FD96EDA6A1E0E00015D
:1016C8009525E16EE26A010EE222DFCFE7FF952B56
:1016D800962B030E9665EED7E82B000EE923EA2336
:1016E800EB23E86711D0E9C093F0030E93170CE1E0
:1016F800626BE80E616FF8C063F0F9C064F0666B66
:10170800040E656FCDEC12F01E0E00019525D96E02
:10171800DA6A010EDA22DF6A952B95C094F0966B8F
:1017280011D096519025D96E000E9121DA6E1E0EB9
:1017380000019525E16EE26A010EE222DFCFE7FFA4
:10174800952B962B9251965DECE3010E0001836F69
:101758001E0E826F94C084F092C085F0010E876FD0
:10176800CA0E866F79EC12F0020E952716D0966B8A
:1017780011D096519025D96E000E9121DA6E1E0E69
:1017880000019525E16EE26A010EE222DFCFE7FF54
:10179800952B962B9251965DECE3000ED9B3010E72
:1017A800696F955100EF0FF0756F7551D96EDA6A50
:1017B800DECF6FF0DDCF70F07551D96EDA6A020EA8
:1017C800D926DECF71F0DDCF72F0736B746B9E0E8D
:1017D8006D6F370E6C6F6E6B030E7315626F636BF4
:1017E800D8906237633762516025D96E63516121A1
:1017F800DA6EDECF64F0DDCF65F073516427745183
:10180800652371C066F072C067F0050E686FD890E6
:1018180067336633682FFBD771C069F072C06AF00E
:10182800693B6A3BF00E6A1769510F0B6A13F00E99
:1018380069176651691B67516A1B71516927725193
:101848006A236451691B65516A1B69516F276A5184
:1018580070236C5173276D51742373C062F074C088
:1018680063F00B0E646FD89063336233642FFBD739
:10187800030E6217636BD890623763376251602535
:10188800D96E63516121DA6EDECF65F0DDCF66F087
:1018980073516527745166236FC067F070C068F094
:1018A800050E696FD89068336733692FFBD76FC00F
:1018B8006AF070C06BF06A3B6B3BF00E6B176A51B5
:1018C8000F0B6B13F00E6A1767516A1B68516B1B7D
:1018D8006F516A2770516B2365516A1B66516B1BE8
:1018E8006A5171276B5172236E2B1F0E6E6574D768
:1018F8007551D96EDA6A6FC0DEFF70C0DDFF7551B1
:10190800D96EDA6A020ED92671C0DEFF72C0DDFF19
:10191800020C756F20EC16F0E16B786B78510A0DAC
:10192800610EF324D96E010EF420DA6EDF6A00012D
:10193800782B040E7865F2D774EC19F0E56B786BA8
:101948007851040DF350350FD96EDA6ADE6ADE6A13
:10195800DE6ADD6A782B040E7865F2D7755136E0B9
:10196800626BFA0E616FF4C063F0F5C064F0666BE9
:10197800010E656FF1EC15F01F0E0001FA6501D03C
:101988001F0C626BFC0E616FF0C063F0F1C064F075
:10199800666B010E656FF1EC15F0010E0001626FC8
:1019A800590E616FF2C063F0F3C064F0666B320EDB
:1019B800656FF1EC15F0FF0E0001626FD70E616FD5
:1019C800B5EC18F0FA513EEC17F027D0626BFA0E1E
:1019D800616FF4C063F0F5C064F0666B010E656F6B
:1019E800CDEC12F00001626BFC0E616FF0C063F089
:1019F800F1C064F0666B010E656FCDEC12F0010E5C
:101A08000001626F590E616FF2C063F0F3C064F0B9
:101A1800666B320E656FCDEC12F0550E0001776FD4
:101A280076837651870B4009766F75B102D076952B
:101A380002D000017685769176C072F077C073F097
:101A4800D5EC0DF00001FA51E2EC17F00001E06B63
:101A5800E081E087FC39F00BE013F08A1200000106
:101A68006A6B6B696C6B6C510A0D610EF324D96E4D
:101A7800010EF420DA6EDFAE16D00001C3C061F0AB
:101A8800C2C060F06C510A0D590EF324626F010E4A
:101A9800F420636FFAEC17F000090AE06CC06BF0F1
:101AA800010E6A6F09D000016B29D8B46CC06BF0C5
:101AB8006C2B040E6C65D7D76B2901E1F10CFC5136
:101AC80002E06A5112006C6B6C51C225D96E000E8F
:101AD800C321DA6E6B510A0D590E666F010E676FDE
:101AE800F3506627F45067236C516625E16E000EAB
:101AF8006721E26EDFCFE7FF6C2B070E6C65E4D73A
:101B08006B510A0D610EF324D96E010EF420DA6EC2
:101B1800DF8E000120EE02F0C451D926C551DA2229
:101B2800DF50666F010E66176B510A0D610EF324C4
:101B3800D96E010EF420DA6EDF506619FE0B6619B5
:101B4800DF6E6C6B6C51C425666F000EC521676F24
:101B5800030E6625D96E000E6721DA6E6B510A0DE9
:101B6800620E686F010E696FF3506827F45069239D
:101B78006C516825E16E000E6921E26EDFCFE7FF48
:101B88006C2B6C51DFE06B51040DF350350FD96E9F
:101B9800DA6ADE6ADE6ADE6ADD6A6BC0DEF0E19967
:101BA80090D772C0D9F073C0DAF0616B140E606F11
:101BB8000CEC10F08D828B84D6CFDFF0E469746B67
:101BC80074513D0D000EF324D96E020EF420DA6E26
:101BD800DF6A0001742B010E7465F2D772A520D05C
:101BE800626BE80E616FF8C063F0F9C064F0666B71
:101BF800040E656FF1EC15F00001D890040EE9278A
:101C0800000EEA23EB23626BE80E616FF8C063F005
:101C1800F9C064F0666B040E656FCDEC12F016D057
:101C2800E86BE96BEA6BEB6B626BE80E616FF8C00F
:101C380063F0F9C064F0666B040E656FCDEC12F0CA
:101C4800010E0001E86FE96BEA6BEB6B0001746B46
:101C58008B0E7425F66EF76AFB0EF722CA0E00018A
:101C68007425D96EDA6A010EDA220800F5CFDFFF93
:101C7800742B070E7465ECD7746B7451020DED0E5E
:101C8800F324F66EFA0EF420F76E0900F5CF61F032
:101C98000A00F5CF62F0AEEC17F00001742B1F0EAE
:101CA8007465EBD7200E55EC15F00001626B460EFB
:101CB800616FAEEC17F0400E55EC15F01C0E0001EC
:101CC800626F0F0E616FAEEC17F0600E55EC15F0F9
:101CD800F094F08A1200FCC0B1F0030EB26FB76B3B
:101CE800AC0501E1FF0C4DEC16F060C0B3F061C02B
:101CF800B4F062C0B5F063C0B6F0900EB35FD00E1A
:101D0800B45B030EB55B000EB65BFC6BE1896ED06D
:101D18004DEC16F060C0B8F061C0B9F062C0BAF01E
:101D280063C0BBF0B351B85DAD6FB451B959AE6F74
:101D3800B551BA59AF6FB651BB59B06F910EAD5D81
:101D4800D00EAE59030EAF59000EB05949E3B8C0D2
:101D5800B3F0B9C0B4F0BAC0B5F0BBC0B6F0B707BD
:101D68000001B72943E1010EB76FB207B22902E1BA
:101D7800E199FF0CE56BAC0E0001E525D96EDA6A36
:101D8800010EDA22810EDF6EE52BAC0EE525D96E49
:101D9800DA6A010EDA22FAC0DFFFE52BAC0EE52580
:101DA800D96EDA6A010EDA22E0C0DFFFE52BBC6BE0
:101DB800BC51FB0FD96EDA6AAC0E0001E525E16E65
:101DC800E26A010EE222DFCFE7FFE52BBC2BBC5114
:101DD800EFE0986B976B010E996F9A6B1FEC13F0FD
:101DE8008AEC19F00009D8A49EEC19F0E1B990D753
:101DF800B1C0FCF0DE5112007B6F030E776F7FD00D
:101E0800786BE66B766B69510FE0280E12EC18F0D0
:101E1800796FD8907933410E796506D0762B050E07
:101E280000017665F2D7000CF09A200E55EC15F0FB
:101E38001A0E0001626FC90E616FAEEC17F0000157
:101E48007B516CEC18F000017C6B0DD01E0E00016C
:101E58007C25D96EDA6A0101010EDA22DF506CECBA
:101E680018F000017C2B7B517C5DF0E3800E55EC73
:101E780015F0F08A0001DD6702D0F0A4FBD7DD6B16
:101E8800200E55EC15F0600E55EC15F001011EAB57
:101E98000ED01FC153F04DEC16F060C06EF061C05B
:101EA8006FF062C070F063C071F0E65104E0010E9B
:101EB80000017A6F2AD04DEC16F060C072F061C054
:101EC80073F062C074F063C075F06E51725D6A6F32
:101ED8006F5173596B6F705174596C6F715175599B
:101EE8006D6FD50E6A5D300E6B59000E6C59000E81
:101EF8006D59DBE3050E782B0001785D82E37707E7
:101F08000001772901E07CD77A6B7A5112000F6EB5
:101F1800030E1A6E78D01B6A0001E66B196A0A5024
:101F28000EE0280E42EC18F01C6ED8901C32410EC0
:101F38001C6405D0192A050E1964F3D7050CF09A0C
:101F4800200E8BEC15F01A0E036EC90E026E2AECE9
:101F580018F00F50C6EC18F01D6A0BD001011E0EC8
:101F68001D24D96EDA6A010EDA22DF50C6EC18F0A9
:101F78001D2A0F501D5CF2E3800E8BEC15F0F08AE1
:101F88000001DD6702D0F0A4FBD7DD6B200E8BECDF
:101F980015F0600E8BEC15F001011EAB0ED01FC1C1
:101FA80053F098EC16F001C011F002C012F003C013
:101FB80013F004C014F0E65103E0010E106E010C9A
:101FC80098EC16F001C015F002C016F003C017F027
:101FD80004C018F01150155C0B6E125016580C6E98
:101FE800135017580D6E145018580E6ED50E0B5C02
:101FF800300E0C58000E0D58000E0E58DCE3050E7E
:102008001B2A1B5C89E31A061A2885E1106A12004C
:10201800D00E626F070E636F646B656B6051666FFD
:102028006151676F686B696B66516203F3CF6AF041
:10203800F4CF6BF06C6B6D6B6303F3506B27F4504C
:102048006C23000E6D2367516203F3506B27F45025
:102058006C23000E6D2366516403F3506C27F45013
:102068006D2367516303F3506C27F4506D23685157
:102078006203F3506C27F4506D2365516603F350E7
:102088006D2767516403F3506D2768516303F3505C
:102098006D2769516203F3506D276AC06EF06BC0FB
:1020A8006FF06CC070F06DC071F0560E6E27FF0EA9
:1020B8006F23702371237151800A800F08E1000E8D
:1020C800705D05E1000E6F5D02E1C40E6E5DD8A083
:1020D800120008D000F0D90E00016E27FF0E6F2302
:1020E800702371237151800A800F08E1000E705D22
:1020F80005E1000E6F5D02E1010E6E5DD8A01200D1
:10210800E9D7D00E036E070E046E056A066A015001
:10211800076E0250086E096A0A6A07500302F3CF75
:102128000BF0F4CF0CF00D6A0E6A0402F3500C2683
:10213800F4500D22000E0E2208500302F3500C2614
:10214800F4500D22000E0E2207500502F3500D2602
:10215800F4500E2208500402F3500D26F4500E22BB
:1021680009500302F3500D26F4500E2206500702C0
:10217800F3500E2608500502F3500E2609500402AB
:10218800F3500E260A500302F3500E260BC00FF030
:102198000CC010F00DC011F00EC012F0560E0F2634
:1021A800FF0E1022112212221250800A800F08E11D
:1021B800000E115C05E1000E105C02E1C40E0F5C1C
:1021C800D8A0120007D000F0D90E0F26FF0E10225B
:1021D800112212221250800A800F08E1000E115CB1
:1021E80005E1000E105C02E1010E0F5CD8A01200A0
:1021F800EAD7BFA706D0FF0E626FE10E616FB5EC9C
:1022080018F0BF51030B07E0FE0E626F430E616FBB
:10221800B5EC18F006D0FE0E626FCB0E616FB5EC10
:1022280018F0C7513EEC17F00001BFAD2ED0FF0EDD
:10223800626FEA0E616FB5EC18F0BFAF11D020EEF7
:1022480001F0C251D926C351DA22DF503EEC17F013
:10225800C2C0D9FFC3C0DAFFDF503EEC17F015D07B
:10226800666B6651C25D646F000EC359656F070ED9
:102278006425D96E000E6521DA6EDF503EEC17F04A
:102288000001662B070E6665ECD7FF0E0001626F32
:10229800D40E616FB5EC18F0666B0BD06651C4258F
:1022A800D96E000EC521DA6EDF5083EC19F00001FB
:1022B800662BC651665DD8B01200F0D7FD0E886F48
:1022C8008D0E876F896B010E8A6FFFEC16F0FC0E7E
:1022D800626FD10E616FB5EC18F0FF0E626F150ECC
:1022E800616FB5EC18F0FE0E626F5F0E616FB5ECB2
:1022F80018F0FE0E626F950E616FB5EC18F0FE0EC9
:10230800626FFD0E616FB5EC18F0FE0E626F7A0E0B
:10231800616FB5EC18F0FE0E626FB00E616FB5EC30
:1023280018F0FD0E626FAD0E616FB5EC18F0FF0E80
:10233800626F2C0E616FB5EC18F0FC0E626F170E11
:10234800616FB5EC18F0FC0E626F570E616FB5EC5B
:1023580018F0FB0E626FD50E616FB5EC18F0FB0E2E
:10236800626F930E616FB5EC18F0FC0E626F950EFC
:10237800616FB5EC18F0FF0E626FF10E616FB9EF87
:1023880018F08D6B84518D5D02E38B6B08D08D51F5
:102398008225D96E000E8321DA6EDF508B6F8C6B2D
:1023A8008D51EC0FD96EDA6A8BC0DFFF8D2B020ED0
:1023B8008D65E8D784518225766F000E8321776F6B
:1023C80085C078F087C07AF086C079F0EC0E7B6F14
:1023D80022EC12F083C077F082C076F08451852514
:1023E800FE0F786F87C07AF086C079F0EC0E7B6FAD
:1023F80070EC13F08D6B84518225886F000E832159
:10240800896F85518827000E89238D518827000EF2
:102418008923FE0E8825D96EFF0E8921DA6EDF50DA
:102428008A6F8D51EC0FD96EDA6ADF508A1901E094
:10243800000C8D2B010E8D65DED7010C78C07CF069
:10244800D8907C33D8907C337C297F6F806B48D0C0
:10245800816B7B518125D96EDA6A8151EC0FE16E6F
:10246800E26ADFCFE7FF812B020E8165F2D780C0D9
:10247800EFF07AC061F079C060F0EC0ED8EC0BF0A8
:10248800816B78517C6F7D6B8051040D8151F326EF
:10249800000EF422F450800A7E6F7C51F35C7D516B
:1024A800800A7E591CE28151EC0FD96EDA6ADF503E
:1024B8007C6F8051040D76C07DF077C07EF0F350BC
:1024C8007D27F4507E2381517D25D96E000E7E2113
:1024D800DA6E7C51DF1A812B030E8165D2D7802BEF
:1024E8007F51805DD8B01200B3D783C077F082C027
:1024F80076F084518525786F87C07AF086C079F0A8
:10250800EC0E7B6F70EC13F08C6B8C51EC0FD96E6A
:10251800DA6A84518225886F000E8321896F85517C
:102528008827000E89238C518825E16E000E8921A9
:10253800E26EDFCFE7FF8C2B030E8C65E6D78C6B42
:1025480084518C5D02E38A6B08D08C518225D96E48
:10255800000E8321DA6EDF508A6F8B6B8C51EC0F83
:10256800D96EDA6A8AC0DFFF8C2B020E8C65E8D739
:1025780084518225766F000E8321776F8551040F71
:10258800786F87C07AF086C079F0EC0E7B6F22EF07
:1025980012F0000EF0BA010E6A6FF09A8C9A050ECE
:1025A80004EC19F090EC19F000016B6F8C8AA1EC27
:1025B80019F000016BB1F2D78C9A060E04EC19F0F1
:1025C8008C8AA1EC19F08C9A020E04EC19F0000127
:1025D80064C067F067C068F0696B685104EC19F073
:1025E8000001635104EC19F000016B6B1AD061C053
:1025F800D9FF62C0DAFFDF5004EC19F00001614B2B
:10260800622B6507D8A066076B2B6B516325676F34
:102618003F0E671706E18C8A6B516327000E64230F
:10262800BDD766516511E3E18C8A6AB102D0F09A90
:1026380001D0F08A12009D6F9E6B000EF36A9963B9
:10264800F32AF3CF9BF09E519B19FC0B9B199E6FAD
:102658009D51010ED8A4000E9B6F9B3B9B479E513A
:102668009B19DF0B9B199E6F9DB102D09E9502D0DE
:1026780000019E859AB102D09E9702D000019E87E4
:102688009D51010ED8A4000E9B6F9B3B9B479B4717
:102698009E519B19BF0B9B199E6F9E51030B9B6FFD
:1026A8009B0502E19E8F01D09E9F98C0A0F097C025
:1026B8009FF09EC08DF09FC08EF0A0C08FF0010EDD
:1026C8000001916FAC0E906FE5C092F00AEC0BF030
:1026D8009C6FE56B9C51120078C07CF0D8907C33DD
:1026E800D8907C337C297F6F816B7B518125D96E93
:1026F800DA6ADF6A812B030E8165F7D7816B37D0E1
:10270800806B78517C6F7D6B8151040D8051F3266D
:10271800000EF422F450800A7E6F7C51F35C7D51E8
:10272800800A7E591CE28151040D76C07CF077C086
:102738007DF0F3507C27F4507D2380517C25D96EA1
:10274800000E7D21DA6EDF507E6F7B518025D96EB9
:10275800DA6A7E51DF1A802B030E8065D2D77AC0E1
:1027680061F079C060F07B51D8EC0BF0812B7F5180
:10277800815DD8B01200C4D702EE00F07A0EEE6A7E
:10278800E806FDE101EE00F0D20EEE6AE806FDE192
:1027980000EEBFF03C0EEE6AE806FDE100EE35F013
:1027A800200EEE6AE806FDE1C80EF66E320EF76EF0
:1027B800000EF86E01EED2F010EE10F00900F5CF21
:1027C800EEFFE550E150FAE1460EF66E330EF76E75
:1027D800000EF86E0900F5CFFBF00900F5CFFCF00C
:1027E800340EF66E330EF76E000EF86E00EE55F0EE
:1027F80010EE08F00900F5CFEEFFE550E150FAE1E0
:10280800000EF86E000132EF0AF06A6F1F0E6A655B
:1028180001D0000C0C0E626F640E616FAEEC17F005
:102828002D0E00016A25F66EF76AFB0EF7220800E6
:10283800F5CF69F0000E6911616F0E0E626FAEEC94
:1028480017F04D0E00016A25F66EF76AFB0EF722A7
:102858000800F5CF69F0000E6911616F100E626F04
:10286800AEEC17F0200E55EC15F00001626B460E29
:10287800616FAEEC17F0400E55EC15F01C0E000120
:10288800626F0F0E616FAEEC17F0200E55EC15F06D
:10289800600E55EC15F0010C81B00FD0E267000C0A
:1028A800010EE26F4DEC16F060C0D1F061C0D2F0BD
:1028B80062C0D3F063C0D4F0010C81B40FD0E267DA
:1028C800000C010EE26F4DEC16F060C0D1F061C053
:1028D800D2F062C0D3F063C0D4F0020C4DEC16F015
:1028E80060C06DF061C06EF062C06FF063C070F0E0
:1028F800D1516D5D696FD2516E596A6FD3516F595D
:102908006B6FD45170596C6F000E695D400E6A5937
:10291800000E6B59000E6C59D8B0E26B000C7B0EA0
:10292800D36EC090F26A550EA76EAA0EA76E0E015E
:10293800FF91060EE96F130EF66F050ED76F550E51
:10294800A76EAA0EA76EFF810F0148693F0E496F57
:10295800F19E92689368946895689668896A8A6A0D
:102968008C6A8D6A95948C84949C8B9C93809384B8
:1029780092949296958E93869586938A949E939830
:10298800C00EC76E210EC66E949496928B848D826B
:10299800F18696908D80959A8C8AF28EBDEF16F00E
:1029A8004D504E5C04E35150525CD8B0120071B0E7
:1029B800FED74D504E5C13E24E50490FD96EDA6A7D
:1029C800DF50756E4E2A4D504E621200516612004D
:1029D8007184010E026E2C0E016E85EF10F05150BD
:1029E800525CD8B0120001018B0E5224D96EDA6AFB
:1029F800010EDA22DF5008E18B0E5224D96EDA6A12
:102A0800010EDA22200EDF6E8B0E5224D96EDA6A9E
:102A1800010EDA22DF50756E522A515052621200AE
:102A2800D7D76A6F630E6A6511D0640E646F6A51F6
:102A3800C8EC17F0686F696BD20E00016825D96E73
:102A4800010E6921DA6EDF5083EC19F0090E0001DE
:102A58006A6515D00A0E646F640E606F6A5158EC8F
:102A680018F0C8EC17F0686F696BD20E0001682582
:102A7800D96E010E6921DA6EDF5083EC19F00A0E67
:102A88000001606F6A5158EC18F0686F696BD20EDC
:102A980000016825D96E010E6921DA6EDF5083EFD7
:102AA80019F00001676F27D0626B860E616FAEEC7C
:102AB80017F0800E4F6E800C626B660E616FAEEC85
:102AC80017F0600E4F6E600C626B460E616FAEECD5
:102AD80017F0400E4F6E400C626B260E616FAEEC25
:102AE80017F0200E4F6E200C626B060E616FAEEC75
:102AF80017F04F6A12006751F7E0200AEDE0600A0C
:102B0800E3E0200AD9E0E00AD8A41200CDD7086E85
:102B180027D0036A860E026E2AEC18F0800E4F6EDC
:102B2800800C036A660E026E2AEC18F0600E4F6E77
:102B3800600C036A460E026E2AEC18F0400E4F6EC7
:102B4800400C036A260E026E2AEC18F0200E4F6E17
:102B5800200C036A060E026E2AEC18F04F6A120067
:102B68000850F7E0200AEDE0600AE3E0200AD9E027
:102B7800E00AD8A41200CDD78D6F8C6714D0FD0E53
:102B8800886F6D0E876F8DC089F0010E8A6FFFEC1C
:102B980016F0FD0E626FEB0E616FB5EC18F08D51FB
:102BA80015EC15F013D0FD0E886FCC0E876F8DC015
:102BB80089F0010E8A6FFFEC16F0FE0E626F090EA7
:102BC800616FB5EC18F08D5115EC15F0FF0E000192
:102BD800626FF30E616FB9EF18F0000EF0BA010ED4
:102BE8006A6FF09A8C9A030E04EC19F0000164C025
:102BF80067F067C068F0696B685104EC19F0000170
:102C0800635104EC19F00DD090EC19F061C0D9FFB4
:102C180062C0DAFFDF6E0001614B622B6507D8A046
:102C28006607000166516511EFE18C8A6AB102D02E
:102C3800F09A01D0F08A1200010E656FDB6BDC6B35
:102C4800616B020E606FF60E626F94EC17F06517F9
:102C5800616B010E606FF40E626F94EC17F06517EC
:102C6800616B010E606FF00E626F94EC17F06517E0
:102C7800616B320E606FF20E626F94EC17F065179D
:102C8800616B040E606FF80E626F94EC17F06517B5
:102C980012009D900001676B686B646BCECF65F086
:102CA800CFCF66F06529D8B4662905E1642B030EF9
:102CB80000016465F3D79EA004D0672B5428D8B4CC
:102CC800682B54506727E75168279D8065C060F0DE
:102CD80066C061F067C062F068C063F01200656B9F
:102CE800666B635162111BE0010E646F04D0D890CB
:102CF80062376337642B63AFFAD7D8906537663786
:102D08006251605D6351615905E36251605F6351CF
:102D1800615B6581D89063336233642FEED765C0F9
:102D280060F066C061F012009D90086A096A056A41
:102D3800CECF06F0CFCF07F00628D8B4072804E195
:102D4800052A030E0564F4D79EA004D0082A542847
:102D5800D8B4092A545008260001E75109269D8055
:102D680006C001F007C002F008C003F009C004F073
:102D78001200530E9512A49E736AF00E746E280EFC
:102D8800726E716AA38EF28EF28C010E0001616F71
:102D98002C0E606F0CEC10F07C0E496E810E4A6EA2
:102DA8004B6A606B030E28EC19F0616BC80E606FFC
:102DB8000CEF10F0886FE7EC18F0010E00016D6F52
:102DC8008B0E6C6FFF0E6F6F9C0E6E6F88C070F06D
:102DD800716BEEEC01F0010E00016D6F9B0E6C6FD4
:102DE800FF0E6F6F8B0E6E6F87C070F0716BEEEC1D
:102DF80001F01DEF19F0E7EC18F0010E00016D6FFE
:102E08008B0E6C6F88C06FF087C06EF089C070F051
:102E1800716BEEEC01F01DEC19F08A51D8B4120078
:102E28008B6B616BFA0E606F0CEC10F08B2B070E3E
:102E38008B65F7D7070C6A51691117E0010E6B6FA4
:102E480004D0D89069376A376B2B6AAFFAD76951C3
:102E5800675D6A51685904E36951675F6A51685B45
:102E6800D8906A3369336B2FF2D767C067F068C0B0
:102E780068F012000001626F62C061F062390F0BE6
:102E8800626FD20E6225D96EDA6A0101010EDA226A
:102E9800DF5083EC19F0000161510F0B626FD20E05
:102EA8006225D96EDA6A010EDA22DF5083EF19F053
:102EB80000016D6F030E6D6501D0030C6DC0FCF051
:102EC800FCC06CF06C3BF00E6C17E0510F0B6C11F2
:102ED800E06F626BFC0E616FF0C063F0F1C064F0EC
:102EE800666B010E656FCDEF12F0A66FA6510A0D45
:102EF8000101610EF324D96E010EF420DA6EDFAE03
:102F0800000C0001A6510A0D590EF324A16F010E01
:102F1800F420A26F010EA36FA5C0A4F033EF19F03F
:102F2800DBC063F0DCC064F0605163276151642347
:102F3800010E635D800E645901E3000C6251D96E85
:102F4800DA6ADBC0DEFFDCC0DDFF6051DB276151E0
:102F5800DC23010C000EF0BA010E666FF09A8D9218
:102F680062C063F063C064F0656B645104EC19F0EF
:102F78000001615104EC19F08D82000166B102D0A4
:102F8800F09A01D0F08A1200656F676B645114E003
:102F9800010E666F03D0D8906437662B64AFFBD7F9
:102FA800D89067376451655D03E36451655F678155
:102FB800D8906433662FF4D7675112006C6F686B32
:102FC8006C5109EC14F0000910E06CC0FAF0000133
:102FD800626BFA0E616FF4C063F0F5C064F0666B63
:102FE800010E656FCDEC12F0010C000C656B65519C
:102FF8006225D96E000E6321DA6EDF50646F655169
:103008006025D96E000E6121DA6EDF50641901E087
:10301800000C652B070E6565EAD7010C616F000E81
:10302800F0BA010E636FF09A8D92618D615104ECD4
:1030380019F090EC19F00001626F8D8263B102D033
:10304800F09A01D0F08A000162511200000EF0BA25
:10305800010E076EF09A8D9203C004F004C005F0CB
:10306800066A055011EC19F0025011EC19F08D8226
:1030780007B002D0F09A01D0F08A1200026E000E5A
:10308800F0BA010E046EF09A8D92028C025011EC87
:1030980019F095EC19F0036E8D8204B002D0F09A05
:1030A80001D0F08A035012000001616F080E626FB0
:1030B800636BD89061356335636FD8906137605121
:1030C800635D02E36051635F622FF3D763511200BF
:1030D8000001616F000EF0BA010E626FF09A8B94D6
:1030E800615104EC19F08B84000162B102D0F09AAE
:1030F80001D0F08A120060516203F3CF64F0F4CF7C
:1031080065F060516303F350652761516203F35022
:10311800652764C060F065C061F0120000016B6F44
:10312800FE0E626FE50E616FB5EC18F06B5115EC91
:1031380015F0FD0E0001626F3F0E616FB9EF18F0D8
:10314800020E0001E45DD8B01200E4513D0D000EFE
:10315800F324D96E020EF420DA6E000EDF6AE469F9
:10316800120003D0635183EC19F0000161C0F6FF2F
:1031780062C0F7FF614B622B0800F5CF63F063670D
:10318800F1D71200026E000EF0BA010E036EF09A2B
:103198008B94025011EC19F08B8403B002D0F09A92
:1031A80001D0F08A1200FF0E0001626F430E616FBA
:1031B800B5EC18F0FF0E886FAD0E876F896B010EA6
:1031C8008A6FFFEF16F0606B8B0E00016025D96ED9
:1031D800DA6A010EDA22200EDF6E602B1F0E6065A0
:1031E800F3D71F0C626F616B3A0E625D05E22F0E1A
:1031F800626502D0010E616F61C060F0603112003B
:103208000001606F9E96C950C69E60C0C9FFC6BEC9
:10321800FBD79EA6FED79E961200016E9E96C950B9
:10322800C69E01C0C9FFC6BEFBD79EA6FED79E9606
:1032380012007C0E496E320E4A6E4B6A200E4C6E9E
:10324800606F040E28EF19F0616F71B4FED74E6AF3
:10325800526A61C04DF060C051F071801200A2C086
:1032680098F0A1C097F0000E996BA4C09AF01FEFD8
:1032780013F00001A16F986B976B996BA1C09AF03E
:10328800010E1FEF13F0FE0E0001886F260E876FE8
:10329800000E896B8A6BFFEF16F0A4AE1200A49E95
:1032A800D4EC14F0026A050E016E85EF10F09584D7
:1032B800949C240EA86E900E9C6E190EAB6E190C81
:1032C8003031323334353637383941424344454654
:1032D800656F6551D8B41200010AD8A4030A120018
:1032E800380ECD6E9E909D80CD80546AE76B12009B
:1032F80000018A6F89C087F08A51DEEF16F000015D
:10330800606FA8A2FED760C0A9FF12009AEC05F072
:103318000001E1B7010C000C000E04EC19F0C950D3
:103328001200000E11EC19F0C9501200FF112233DF
:1033380044556611E197A4EF18F000F0120001035C
:10FA2C000020B2202020B22020B220B220202020A2
:10FA3C0020B220B20D0AB220B220B220B220202077
:10FA4C00B22020B22020B220200D0AB22020B220F9
:10FA5C0020B220B220B22020B22020B220B20D0A57
:10FA6C00B22020B22020B220B22020B220B220B28C
:10FA7C002020B20D0AB22020B22020B220B22020C9
:10FA8C0020B220B2202020B20D0A202020202020DD
:10FA9C00202020202020202020202020200D0AB2F1
:10FAAC00B2B22020B2B2B2B20D0AB22020B220B251
:10FABC002020200D0AB22020B220B2B2B2B20D0A20
:10FACC00B22020B220B22020200D0AB2B2B22020E7
:10FADC00B2B2B2B20D0A2020202020202020200D0E
:10FAEC000A26008402090409060C08C10A770C6373
:10FAFC000E19100012001400163818C81A0D1C002C
:10FB0C001E72203822382407260028002A692C81EE
:10FB1C002E7E309632F83488364038003AE83C0075
:10FB2C003E535353535353535353535353535353AE
:10FB3C00535353535354545454545454545454547E
:10FB4C00541D202225282B2E303336393C3F41447E
:10FB5C00474A4D4F520A0D101215181B1E20232612
:10FB6C002901000800400000020010008001000A7A
:10FB7C00006400E8031027010010000001001000D1
:10FB8C00010203040506070D0A2020202020202056
:10FB9C002020202020202020202020202020322047
:10FBAC00746F20756E696361737420656E6372790E
:10FBBC0070746564206D6573736167652E204C45A8
:10FBCC004420322077696C6C000D0A202020202004
:10FBDC002020202020202020202020202020202019
:10FBEC00427574746F6E203120746F2062726F6175
:10FBFC006463617374206D6573736167652E205047
:10FC0C0075736820427574746F6E000D0A20202085
:10FC1C0020202020202020202020202020202020D8
:10FC2C002020506F776572206F6E2074686520629B
:10FC3C006F61726420756E74696C204C4544203180
:10FC4C00206C6967687473207570000D0A20202081
:10FC5C002020202020202020202020202020202098
:10FC6C002020746F20696E64696361746520636F12
:10FC7C006E6E656374696E67207769746820706551
:10FC8C0065722E2050757368000D0A2020202020EC
:10FC9C002020202020202020202020202020202058
:10FCAC00626520746F67676C65642075706F6E2079
:10FCBC00726563656976696E67206D6573736167DC
:10FCCC0065732E20000D0A5374617274696E67207F
:10FCDC004E6F64652031206F662053696D706C65C2
:10FCEC002044656D6F20666F72204D6957692854EA
:10FCFC004D292050325020537461636B202E2E2ED0
:10FD0C00000D0A0D0A436F6E6E656374696F6E2089
:10FD1C0020202020506565724C6F6E6741646472C0
:10FD2C00657373202020202050656572496E666FC4
:10FD3C000D0A00206973206E6F7420737570706FDC
:10FD4C007274656420696E2063757272656E7420BE
:10FD5C00636F6E66696775726174696F6E2E0D0ADA
:10FD6C0000436F6E6E656374696E672050656572D3
:10FD7C0020206F6E204368616E6E656C20256420B8
:10FD8C000053696D706C65205032502044656D6F66
:10FD9C0020204D524638395841204E6F6465203131
:10FDAC00000D0A20202020205246205472616E73D0
:10FDBC006365697665723A204D5246383958410070
:10FDCC0020436F6E6E6563746564205065657220A8
:10FDDC00206F6E204368616E6E656C202564000D8B
:10FDEC000A436F6E6E656374696E67205065657249
:10FDFC00206F6E204368616E6E656C20000D0A43A7
:10FE0C006F6E6E65637465642050656572206F6EED
:10FE1C00204368616E6E656C20005242303A20427D
:10FE2C00726F61646361737420205242323A2055C0
:10FE3C006E69636173740042726F616463617374A1
:10FE4C00205061636B65742077697468205253533A
:10FE5C004920000D0A2020202020202020202020B6
:10FE6C00427574746F6E20313A20524230000D0A84
:10FE7C0020202020202020202020202020204C4525
:10FE8C004420313A20524132000D0A2020202020FB
:10FE9C00202020202020427574746F6E20323A206E
:10FEAC00524232000D0A2020202020202020202029
:10FEBC00202020204C454420323A2052413300551A
:10FECC006E6963617374205061636B65742077692C
:10FEDC007468205253534920000D0A53656C6563B6
:10FEEC0074696F6E206F66206368616E6E656C203E
:10FEFC00000D0A4F757470757420436F6E666967D8
:10FF0C0075726174696F6E3A000D0A496E70757482
:10FF1C0020436F6E66696775726174696F6E3A0023
:10FF2C000D0A20202044656D6F20496E7374727524
:10FF3C006374696F6E3A000D0A556E696361737470
:10FF4C00204661696C65640D0A000D0A0D0A4D7935
:10FF5C0020416464726573733A203078003031321A
:10FF6C003334353637383941424344454600303115
:10FF7C003233343536373839616263646566005222
:10FF8C0058204D657373616765733A20253364009F
:10FF9C005458204D657373616765733A202533643B
:10FFAC000020556E6963617374204661696C6564E9
:10FFBC000020202020202020202020202020002075
:10FFCC00204368616E6E656C3A2000204368616E58
:10FFDC006E656C3A0053656375726564200020662B
:0CFFEC00726F6D20000D0A0D0A0000006D
:08FFF800ACF6D8FFFFF9FFF1A0
:00000001FF
