:04000000CCEF00F051
:10000800D9CF0DF0DACF0EF0F3CF0FF0F4CF10F018
:10001800F2B8F2A2A9D0F292620E5BEC36F0126E40
:1000280012A00FD0379037BC379C01014D6B4E6B37
:1000380037A207D0480E5BEC36F0116E11B037844A
:10004800379212A68AD01468156A1550500D03010C
:10005800000EF324D96E030EF420DA6EDF5003E1AC
:1000680015C014F004D0152A010E1564EED7020E3F
:10007800145C6EE2040E026E730E98EC36F01450A7
:10008800500D0301000EF324D96E030EF420DA6E2E
:10009800030E036E000E026A92EC34F0020FDF6E5C
:1000A8001450500D0301000EF324D96E030EF420F2
:1000B800DA6EDF50086E4F0E085C40E2378A010E98
:1000C800156E1AD01450500D000E086E030E096EEE
:1000D800F3500826F450092215500824D96E000E52
:1000E8000920DA6E000E1524026E036A030E03223D
:1000F80092EC34F0DF6E152A1550086E096A145018
:10010800500D0301000EF324D96E030EF420DA6EAD
:10011800DF500A6E0B6A020E0A26000E0B220B50E5
:10012800800A0C6E08500A5C0950800A0C58CAE212
:10013800010E026E1B0E98EC36F005D0010E026E11
:100148001B0E98EC36F0026A730E98EC36F005D068
:10015800010E026E1B0E98EC36F012A805D0800E28
:10016800026E590E98EC36F09EB09DA006D09E9077
:100178003A2A3A6602D00101582BA1EC37F010C098
:10018800F4FF0FC0F3FF0EC0DAFF0DC0D9FF110056
:10019800FAEF30F08BEC14F0000902E14CEF0AF0B2
:1001A8000001E6B512000101206B3BA404D0000158
:1001B8008E6B8E2B01D08E6B0101205100018E19A0
:1001C800FC0B8E190101206F3BA602D0208702D0BC
:1001D800010120973B50030B00018E6F8E05010E25
:1001E800D8A4000E8F6F8F3B8F470101205100016B
:1001F8008F19DF0B8F190101206F3BAE02D0208DC4
:1002080002D00101209D3BAE0AD043B002D0209F0E
:1002180002D00101208F3DC024F13CC023F144C02D
:1002280021F145C022F142C029F141C028F1000165
:10023800E6953EEF0AF00A0E405C02E248EF0AF04B
:1002480020EE02F03E50D9263F50DA22DF50A96F47
:1002580020EE03F03E50D9263F50DA22DF50AA6F35
:1002680020EE04F03E50D9263F50DA22DF50AF6F1F
:1002780020EE05F03E50D9263F50DA22DF50B06F0D
:1002880020EE06F03E50D9263F50DA22DF50AD6FFF
:1002980020EE07F03E50D9263F50DA22DF50AE6FED
:1002A80020EE08F03E50D9263F50DA22DF50B36FD7
:1002B80020EE09F03E50D9263F50DA22DF50B46FC5
:1002C8000101206B3BA602D0208702D001012097B4
:1002D8002051030B06E10001AF29D8B4B02901E091
:1002E80024D10001F751B41902E1F651B31908E11C
:1002F800F551AE1902E1F451AD1902E148EF0AF0E7
:100308003EC0D9FF3FC0DAFF010EDF6472D03EC0A5
:10031800D9FF3FC0DAFFDF06EA6BB66B11D0B651E2
:100328003E24D96E000E3F20DA6E590E0001EA25F0
:10033800E16EE26A010EE222DFCFE7FFEA2BB62B7D
:100348004050B65DECE33BC0EDF0F4C0F2F0F5C010
:10035800F3F043C0F1F0140E59EC33F020EEEDF059
:1003680010EE60F0070EDECFE6FFE82EFCD7010E98
:100378000001686F590E676FEAC069F0FBEC1EF068
:100388000001B66B090EB66501D022D0B6510E0D2C
:100398000C0EF324D96E020EF420DA6EDFAE15D0FF
:1003A8000001B6510E0D0C0EF324D96E020EF42086
:1003B800DA6EDFB00AD0B6510E0D0C0EF324D96EEA
:1003C800020EF420DA6EDFBA03D00001B62BDAD7BA
:1003D8000A0E0001B65D0DE2A9C01FF0AAC020F008
:1003E800000E216A226A3BB6010E236E010E3FEC15
:1003F80028F00001B66B030EB66501D030D0B651B7
:10040800080D030EF324D96E010EF420DA6EDF50C6
:1004180023E00001B651080D000EF324D96E010E39
:10042800F420DA6EDE52B451DD18B3C0E8FFD8B458
:10043800DF1812E1B651080D020EF324D96E010E31
:10044800F420DA6E10EE0AF03E50E1263F50E22228
:10045800E750DF6201D003D00001B62BCCD7040EE1
:100468000001B65D02E248EF0AF0B66B030EB6650E
:1004780001D00DD0B651080D030EF324D96E010E2C
:10048800F420DA6EDF5003E00001B62BEFD7040E3C
:100498000001B65D44E2B651080D000EF324D96E92
:1004A800010EF420DA6EB3C0DEFFB4C0DDFF20EE2B
:1004B8000AF03E50D9263F50DA22B651080D020EF6
:1004C800F324E16E010EF420E26EDFCFE7FFB651B0
:1004D800080D0101030EF324D96E010EF420DA6E23
:1004E800030EDF6EDFEC34F016C08EF017C08FF00D
:1004F80018C090F019C091F00001B651080D040E13
:10050800F324D96E010EF420DA6E8EC0DEFF8FC0A0
:10051800DEFF90C0DEFF91C0DDFFD906D9060101DC
:100528002051FC0B0109206F6BD0F551AA1902E18B
:10053800F451A91901E061D3F751B01902E1F6515C
:10054800AF1901E05AD320EE01F03E50D9263F50B2
:10055800DA22DF508E6F8EA553D0040E0101596F39
:10056800020E5A6FADC05BF1AEC05CF1B3C05DF175
:10057800B4C05EF1F4C05FF1F5C060F1F6C061F19E
:10058800F7C062F120EE0AF03E50D9263F50DA2239
:10059800DF50636F646B300E656F0D0E0001EA6FFC
:1005A800B451F7190DE0ADC082F0AEC083F0B3C00E
:1005B80084F0B4C085F0000E866B61EC1BF01ED091
:1005C800ED6BED8B010EF06FF16FEF6BB30EEE6F0D
:1005D800ADC0F2F0AEC0F3F020EEEDF010EE60F03A
:1005E800070EDECFE6FFE82EFCD7010E0001686F8C
:1005F800590E676FEAC069F0FBEC1EF00101208517
:1006080020EE0BF03E50D9263F50DA22DF5001E0B1
:10061800B7D220EE0CF03E50D9263F50DA22DF50F8
:10062800300A01E07CD291D20101CBB357D0DFEC84
:1006380034F016C0E2F117C0E3F118C0E4F119C0B4
:10064800E5F120EE08F03E50D9263F50DA22DF507F
:10065800CD6F20EE09F03E50D9263F50DA22DF5008
:10066800CE6F0001B56B070EB56501D017D0B55137
:100678003E248E6F000E3F208F6F0D0E8E25D96E93
:10068800000E8F21DA6ECF0E0001B525E16EE26A09
:10069800010EE222DFCFE7FFB52BE5D70101CB83BF
:1006A800CB910001B56BB55102E048EF0AF0B551A6
:1006B8003E248E6F000E3F208F6F150E8E25D96E4B
:1006C800000E8F21DA6ED70E0001B525E16EE26AC1
:1006D800010EE222DFCFE7FFB52BE5D7CD5120EEA3
:1006E8003EF010EE08F0DE50E126DD50E222E7622F
:1006F8000DD0CE5120EE3EF010EE09F0DE50E1268E
:10070800DD50E222E76202D048EF0AF0CE51CD1167
:100718007EE10001B56B070EB56501D025D0B55156
:100728003E248E6F000E3F208F6F0D0E8E25D96EE2
:10073800000E8F21DA6EDA0E0001B525E16EE26A4D
:10074800010EE222DFCFE7FFDA0EB525D96EDA6AAD
:10075800010EDA223A0EB525E16EE26A010EE222B6
:10076800DFCFE7FFB52BD7D720EE08F03E50D926CC
:100778003F50DA22DF500101D86F20EE09F03E50D9
:10078800D9263F50DA22DF50D96FD8C1F8F0D9C145
:10079800F9F0F4C0EBF1F5C0ECF1BDEC33F0010178
:1007A800CC6FCC2901E0B8D08D0E396E0001F8BFAE
:1007B800399052EC30F00101CC6FCC2901E1ACD07A
:1007C8000001B56BB55101E0A7D0B5513E248E6F3D
:1007D800000E3F208F6F150E8E25D96E000E8F21CB
:1007E800DA6E0101CC510E0D0D0E0001906F020E54
:1007F800916FF3509027F4509123B5519025E16EF5
:10080800000E9121E26EDFCFE7FFB52BDBD70B0E91
:100818000001EA6F590EEA25D96EDA6A010EDA226A
:10082800DF6AEA2B590EEA25D96EDA6A010EDA2256
:10083800110EDF6EEA2BB56B070EB56501D026D019
:10084800B5513E248E6F000E3F208F6F0D0E8E2502
:10085800D96E000E8F21DA6EDA0E0001B525E16E31
:10086800E26A010EE222DFCFE7FFDA0EB525D96E84
:10087800DA6A010EDA22590EEA25E16EE26A010E01
:10088800E222DFCFE7FFEA2BB52BD6D720EE08F020
:100898003E50D9263F50DA22DF500101D86F20EEB2
:1008A80009F03E50D9263F50DA22DF50D96F590E51
:1008B8000001EA25D96EDA6A010EDA22D8C1DFFF13
:1008C800EA2B590EEA25D96EDA6A010EDA22D9C165
:1008D800DFFFEA2BB56BB55118E1B5513E248E6F99
:1008E800000E3F208F6F150E8E25D96E000E8F21BA
:1008F800DA6E590E0001EA25E16EE26A010EE22283
:10090800DFCFE7FFEA2BB52BE6D7010E00018D6F8D
:10091800CD0E8C6F1EEC32F00101CB83CB8148EFFA
:100928000AF00001B16B070EB16501D017D0B151C3
:100938003E248E6F000E3F208F6F0D0E8E25D96ED0
:10094800000E8F21DA6E3A0E0001B125E16EE26ADF
:10095800010EE222DFCFE7FFB12BE5D78D0E396E0E
:1009680020EE15F03E50D9263F50DA22DF508E6F28
:100978008EBF399020EE15F03E50D9263F50DA222E
:10098800DF50F86F20EE16F03E50D9263F50DA229D
:10099800DF50F96FF4C0EBF1F5C0ECF1BDEC33F0CA
:1009A8000101CC6FCC290EE0CC510E0D02010C0ECA
:1009B800F324D96E020EF420DA6EDF50396E3984D2
:1009C800398605D08D0E396E0001F8BF399052EC8A
:1009D80030F00101CC6FCC2929E00001B16BB15195
:1009E80022E1B1513E248E6F000E3F208F6F170E0B
:1009F8008E25D96E000E8F21DA6E0101CC510E0DB5
:100A08000D0E0001906F020E916FF3509027F45075
:100A18009123B1519025E16E000E9121E26EDFCF56
:100A2800E7FFB12BDCD70101CB8101D0CB91CB9370
:100A380048EF0AF020EE0DF03E50D9263F50DA225A
:100A4800DF500001FA1902E048EF0AF020EE0EF03C
:100A58003E50D9263F50DA22DF505CEC37F048EFA1
:100A68000AF020EE0DF03E50D9263F50DA22DF5032
:100A78000001FA1902E048EF0AF0EA6B040E0101DE
:100A8800596F020E5A6FF4C05BF1F5C05CF120EEAD
:100A980008F03E50D9263F50DA22DF505D6F20EE35
:100AA80009F03E50D9263F50DA22DF505E6FF4C07D
:100AB8005FF1F5C060F1F6C061F1F7C062F1E9C01D
:100AC80063F10001E92B0101646B420E656F0001BF
:100AD800ED6BED8B010EF06FF16FF4C0F2F0F5C025
:100AE800F3F0080E3E24EE6F000E3F20EF6F20EE6D
:100AF800EDF010EE60F0070EDECFE6FFE82EFCD733
:100B0800010E0001686F590E676F0D0E696FFBECDF
:100B18001EF048EF0AF00001E69F48EF0AF020EEC9
:100B28000CF03E50D9263F50DA22DF50100A01E17E
:100B38007BD5010A01E1F5D6510A01E17BD7010A0B
:100B480090E0030AE8E048EF0AF00101EE5120EED8
:100B58003EF010EE0AF0DE50E126DD50E222E762B8
:100B680048EF0AF0EA510001B41904E10101E95122
:100B78000001B31902E048EF0AF0E69748EF0AF0DF
:100B88004050F50F0101276F0B0E3E24256F000E14
:100B98003F20266FADC021F1AEC022F120EE3EF01D
:100BA80010EE08F0DE50E126DD50E222E76215D0B3
:100BB80020EE3EF010EE09F0DE50E126DD50E22294
:100BC800E7620BD043B002D0209F02D00101208FF2
:100BD8003DC024F13CC023F107D0208F080E3E24ED
:100BE800236F000E3F20246F208D275102E148EF2C
:100BF8000AF00001E68548EF0AF03EC0D9FF3FC081
:100C0800DAFFDF5002E148EF0AF03EC0D9FF3FC0EB
:100C1800DAFFDF06EA6BB66B11D0B6513E24D96E07
:100C2800000E3F20DA6E590E0001EA25E16EE26AF5
:100C3800010EE222DFCFE7FFEA2BB62B4050B65D6C
:100C4800ECE3F75120EEB0F0DF6226D001016467D3
:100C580023D06551300A20E10001ED6BED8B010EC8
:100C6800F06FF16FEF6BAF0EEE6FA9C0F2F0AAC094
:100C7800F3F020EEEDF010EE60F0070EDECFE6FFA9
:100C8800E82EFCD7010E0001686F590E676FEAC0A5
:100C980069F0FBEC1EF0F8D3A9C082F0AAC083F07B
:100CA800AFC084F0B0C085F0000E3BB6010E000165
:100CB800866F61EC1BF0E8D3A86BA8513E248E6FB9
:100CC800000E3F208F6F040E8E25D96E000E8F21E7
:100CD800DA6EDF504D0A01E0D7D320EE01F03C5028
:100CE800D9263D50DA22DF509F6F9FC08EF0010E4B
:100CF8008F6F8E2B02D0D8908F378E2FFCD78F51C5
:100D08009C6F3CC0D9FF3DC0DAFFDF5003E19C5126
:100D1800010157130001A8513E248E6F000E3F2099
:100D28008F6F060E8E25D96E000E8F21DA6E320E69
:100D38009F25E16EE26A010EE222DFCFE7FFE6A11E
:100D4800A3D344C0EBF145C0ECF13CC0D9FF3DC092
:100D5800DAFFDF50F86F20EE01F03C50D9263D5005
:100D6800DA22DF50F96FA8513E24D96E000E3F20D9
:100D7800DA6EFF0EDF6288D3A8513E248E6F000E14
:100D88003F208F6F8E29D96E000E8F21DA6EDF50CB
:100D9800A76F040EE85D01E377D3A739030B8E6FC5
:100DA800020E8E5D01E370D3E8510F0D8C0EF32413
:100DB800D96E020EF420DA6EFAC0DFFFE8510F0D8B
:100DC800970EF324D96E020EF420DA6E28C1DFFFE5
:100DD800E8510F0D980EF324D96E020EF420DA6E46
:100DE80029C1DFFFE8510F0D950EF324D96E020ECD
:100DF800F420DA6EEBC1DEFFECC1DDFFE8510F0D28
:100E0800990EF324D96E020EF420DA6EDF6AE851E7
:100E18000F0D990EF324D96E020EF420DA6EDF8CD2
:100E2800A731030B8E6FE8510F0D990EF324D96E7D
:100E3800020EF420DA6EDF508E19FC0B8E19DF6E6D
:100E4800A7A709D0E8510F0D990EF324D96E020E09
:100E5800F420DA6EDF860001A739030B8E6F020ECD
:100E68008E5D09E2E8510F0D990EF324D96E020E3A
:100E7800F420DA6EDF8A23C1D9FF24C1DAFF00012A
:100E8800E8510F0D8D0EF324E16E020EF420E26E90
:100E9800DFCFE7FF010120EE01F02351D9262451CD
:100EA800DA220001E8510F0D8E0EF324E16E020ED6
:100EB800F420E26EDFCFE7FFE8510F0D990EF3241F
:100EC800D96E020EF420DA6EDF8EB66BB65124E1CD
:100ED800A8513E248E6F000E3F208F6FB6518E278B
:100EE800000E8F23070E8E25D96E000E8F21DA6E25
:100EF800E8510F0D9A0E906F020E916FF3509027E4
:100F0800F4509123B6519025E16E000E9121E26EC6
:100F1800DFCFE7FFB62BDAD7E82BB6D29E6B010EF0
:100F2800356401D0B1D2B66B070EB66501D011D0C9
:100F3800B6513C24D96E000E3D20DA6E3A0E0001FF
:100F4800B625E16EE26A010EE222DFCFE7FFB62B9B
:100F5800EBD7E3EC32F00001B26FB22915E135505E
:100F680001E092D2B70E396EF4C0EBF1F5C0ECF1A6
:100F780052EC30F00001B26FB2291EE1010E9E6FF3
:100F8800F969FE0EF86F9DD0B2510E0D0C0EF324C8
:100F9800D96E020EF420DA6EDFA60ED00001B2512F
:100FA8000E0D020EF324D96E020EF420DA6EDECF97
:100FB800F8F0DDCFF9F085D00001B22901E181D048
:100FC800B229F86FF7C0F9F0F4C0EBF1F5C0ECF115
:100FD800EC51020A38E120EE01F03E50D9263F508C
:100FE800DA22DF508E6F8EAD2ED0F8C09AF0F9C09D
:100FF8009BF0F86B010EAB6F070EAB6501D01BD0F1
:10100800ABC0F9F0BDEC33F000019D6F9D2911E1F3
:10101800F86BABC0F9F0ABC08EF0010E8F6F8E2B62
:1010280002D0D8908F378E2FFCD78F5101015713DC
:1010380002D0AB2BE1D70001AB51080A04E19AC0FA
:10104800F8F09BC0F9F0BF0E396E20EE01F03E506B
:10105800D9263F50DA22DF508E6F8EB102D03990F8
:10106800F88F52EC30F00001B26FB2510E0D0C0E39
:10107800F324D96E020EF420DA6EDF88B66BB6510F
:1010880020E1B6513E248E6F000E3F208F6F020E76
:101098008E25D96E000E8F21DA6EB2510E0D0D0E0F
:1010A800906F020E916FF3509027F4509123B65130
:1010B8009025E16E000E9121E26EDFCFE7FFB62B9F
:1010C800DED7020E0101596FF8C05AF1F9C05BF181
:1010D8009EC05CF10001B66BB6510FE1B651340FFA
:1010E800D96EDA6A5D0E0001B625E16EE26A010E7C
:1010F800E222DFCFE7FFB62BEFD7050EEA6F7C6B56
:10110800F40E7B6FB2510E0D040EF32400017D6FB7
:10111800020EF4207E6F010E7F6F000E806BD8ECFC
:1011280031F0B2D120EE03F03E50D9263F50DA22FA
:10113800DF5001E090D020EE01F03E50D9263F501C
:10114800DA22DF50F66F20EE02F03E50D9263F50EB
:10115800DA22DF50F76FF6671ED0010EEC6FECC095
:101168008EF08E470101545100018E19F90B8E192A
:101178000101546FF7C08EF0070E00018E17010EA3
:101188008F6F8E2B02D0D8908F378E2FFCD78F2958
:10119800010157130CD0EC6BECC08EF08E470101A7
:1011A800545100018E19F90B8E190101546F000179
:1011B800F40E1A6EF60E17EC34F00001E683BF0E3B
:1011C800396EB66B070EB66501D011D0B6513C2406
:1011D800D96E000E3D20DA6E3A0E0001B625E16E9A
:1011E800E26A010EE222DFCFE7FFB62BEBD7F66704
:1011F80003D0F86BF96B03D0F7C0F9F0F86BF4C0C3
:10120800EBF1F5C0ECF152EC30F00001EB6FB66B8E
:10121800B65101E039D1B6513E248E6F000E3F2001
:101228008F6F040E8E25D96E000E8F21DA6EEB516A
:101238000E0D0D0E906F020E916FF3509027F45023
:101248009123B6519025E16E000E9121E26EDFCF19
:10125800E7FFB62BDDD7EB69F469F569F869F96939
:10126800F40E1A6EF80E17EC34F00ED1435011E05C
:101278003CC0D9FF3DC0DAFFDF50F86F20EE01F027
:101288003C50D9263D50DA22DF50F96FBDEC33F0DF
:1012980018D0B66B070EB66501D011D0B6513C24F4
:1012A800D96E000E3D20DA6E3A0E0001B625E16EC9
:1012B800E26A010EE222DFCFE7FFB62BEBD7E3ECC1
:1012C80032F00001A66FA62901E1DED0A6510E0D6D
:1012D8000C0EF324D96E020EF420DA6EDFAAD4D0F5
:1012E800A651EB190BE0A6510E0D0C0EF324D96E86
:1012F800020EF420DA6E000EDF6AC6D0B66B090E55
:10130800B66501D068D0B6510E0D0C0EF324D96E17
:10131800020EF420DA6EDFAE52D00001B6510E0D87
:101328000C0EF324D96E020EF420DA6EDFAA47D031
:10133800B651EB1944E0EA6B590EEA25D96EDA6A20
:10134800010EDA22030EDF6EEA2BED6BED8BED5109
:10135800FC0B0109ED6F010EF06FF16FB6510E0D28
:10136800000EF324D96E020EF420DA6EDECFF2F00E
:10137800DDCFF3F0B6510E0D020EF324EE6F020E20
:10138800F420EF6F20EEEDF010EE60F0070EDECFE8
:10139800E6FFE82EFCD7010E0001686F590E676F53
:1013A800EAC069F0FBEC1EF00001A06BA16BFF0E18
:1013B800A05D0F0EA15903E2A04BA12BF8D70001A5
:1013C800B6510E0D0C0EF324D96E020EF420DA6E0F
:1013D800DF6AB62B94D7EB69F669F769F469F569A2
:1013E800F40E1A6EF60E17EC34F00001E6934CD0AA
:1013F80043500BE0826B816B3DC084F03CC083F0AE
:10140800010E856F28EC17F03FD03DC082F03CC03C
:1014180081F0000E846B836B856B28EC17F034D059
:10142800020E356401D030D0E6A32ED020EE01F0B4
:101438003E50D9263F50DA22DF50FA1925E1EC5107
:1014480023E0140E59EC33F0F7EC2FF01DD03EC01A
:10145800D9FF3FC0DAFFDF50010A01E15FD5030A77
:1014680001E160D6010A01E101D7070AC1E0030AD8
:10147800D7E00AD03B50030B02E11FEF01F0010A4D
:10148800E6E0020A01E118D40001E6A51AEC37F0FB
:10149800DFEC34F016C0A2F017C0A3F018C0A4F017
:1014A80019C0A5F00001B66B010EB66501D03CD09D
:1014B800B651430D0E0EF324D96E040EF420DA6EE5
:1014C800DFA02FD00001B651430D000EF324D96ED2
:1014D800040EF420DA6EDECF8EF0DECF8FF0DECF92
:1014E80090F0DECF91F08E51A25D926F8F51A3598B
:1014F800936F9051A459946F9151A559956F010E0E
:10150800925D120E93597A0E9459000E955909E37B
:10151800B651430D0E0EF324D96E040EF420DA6E84
:10152800DF6A0001B62BC0D7B66B030EB66501D0D3
:101538003CD0B651080D030EF324D96E010EF420E9
:10154800DA6EDF502FE00001B651080D040EF324C7
:10155800D96E010EF420DA6EDECF8EF0DECF8FF07A
:10156800DECF90F0DECF91F08E51A25D926F8F5159
:10157800A359936F9051A459946F9151A559956FA0
:10158800210E925DA10E9359070E9459000E95599C
:1015980009E3B651080D030EF324D96E010EF420A9
:1015A800DA6EDF6A0001B62BC0D70101CBA31200A7
:1015B800CBA15DD00B0E0001EA6F590EEA25D96E5A
:1015C800DA6A010EDA22DF6AEA2B590EEA25D96EA9
:1015D800DA6A010EDA22110EDF6EEA2BAC6B070E07
:1015E800AC6501D012D0CF0E0001AC25D96EDA6AF5
:1015F800010EDA22590EEA25E16EE26A010EE222B4
:10160800DFCFE7FFEA2BAC2BEAD7590E0001EA251A
:10161800D96EDA6A010EDA22CDC1DFFFEA2B590E44
:10162800EA25D96EDA6A010EDA22CEC1DFFFEA2B8B
:10163800AC6BAC5112E1D70E0001AC25D96EDA6A59
:10164800010EDA22590EEA25E16EE26A010EE22263
:10165800DFCFE7FFEA2BAC2BECD7010E00018D6F33
:10166800D80E8C6F1EEC32F00101CB931200E251C0
:101678000001A25D966F0101E3510001A359976F24
:101688000101E4510001A459986F0101E5510001DD
:10169800A559996F610E965DE30E9759160E9859E4
:1016A800000E9959D8A01200DFD7010E0201DA6F97
:1016B8000101556BAAEC30F0898E898C8B848EECF5
:1016C80033F09DEC37F070EC36F00101010E236E1B
:1016D8008C0E226EFF0E256E360E246EDDEC10F099
:1016E8000101010E236E9C0E226EFF0E256E470E21
:1016F800246EDDEC10F0A5EC32F0000E8DEC2CF031
:10170800DFEC34F016C0C8F217C0C9F218C0CAF22C
:1017180019C0CBF2DFEC34F016C0CCF217C0CDF212
:1017280018C0CEF219C0CFF20201C851CC5D010138
:10173800F76F0201C951CD590101F86F0201CA5171
:10174800CE590101F96F0201CB51CF590101FA6F4E
:10175800810EF75D840EF8591E0EF959000EFA59DC
:101768000CE26CEC2EF00201DE6FDE51020AD2E1CF
:101778000001FB5111EC25F0CDD79FEC37F070EC50
:1017880036F0010E236E8C0E226EFE0E256ECE0EE6
:10179800246E0001FBC026F0276ADDEC10F0010181
:1017A800010E236E9C0E226EFF0E256E990E246E7E
:1017B800DDEC10F0A5EC32F0030E176EE80E166E95
:1017C80015EC2DF06CEC2EF00201DE6FDE0539E031
:1017D800DE51020AF7E1D96B010ED16F2ED070EC01
:1017E80036F0010E236E8C0E226EFE0E256ECE0E86
:1017F800246E0201D9C226F0276ADDEC10F001013F
:10180800010E236E9C0E226EFF0E256E990E246E1D
:10181800DDEC10F0A5EC32F06CEC2EF00201DE6F7E
:10182800DE0504E1D9C2FBF0D16B09D0DE51020A12
:10183800F3E1D92BD9511B0A02E10B0ED96FD1055F
:10184800CEE00001FB515CEC37F000090BE1FD0E26
:10185800316EE60E306E326A010E336E04EC35F0EE
:10186800CCEF00F0000E09EC37F0FC0E316EA90E3B
:10187800306E000E326A336A04EC35F0030E176ED0
:10188800E80E166E15EC2DF0DCD26CEC2EF0020191
:10189800DE6FDE0552E1FF0E316E580E306E326A91
:1018A800010E336E04EC35F0000E8DEC2CF0000EBA
:1018B8000001736B746B756B766B776B8FEC31F023
:1018C800FE0E316E210E306E326A010E336E04EC5C
:1018D80035F070EC36F0010E236E8C0E226EFE0E83
:1018E800256E8E0E246E0001F5C026F0276AF4C01E
:1018F80028F0296AFBC02AF02B6ADDEC10F0010EF3
:10190800236E9C0E226EFE0E256EE00E246E0001E4
:10191800F7C026F0276AF6C028F0296ADDEC10F037
:10192800A5EC32F006D07FEC37F00009D8A499EC8A
:1019380037F002010CAFF7D7DA6BDE51020A01E08B
:1019480080D2FD0E316EA80E306E326A010E336EF3
:1019580004EC35F0FC0E316ECA0E306E326A010EA0
:10196800336E04EC35F0000E8DEC2CF0080E0001FF
:10197800FB5D1BE2FBC0F7F1010E0101F86FF96B8B
:10198800F72B03D0D890F837F937F72FFBD700019A
:10199800F8C1B7F0F9C1B8F0000EB8BFFF0EB96FC3
:1019A800BA6F0A0E1CEC29F060D0100EFB5D1DE228
:1019B800FBC0F7F1F80E0101F727F86B010EF96F7C
:1019C800F72B03D0D890F837F937F72FFBD700015A
:1019D800F8C1B7F0F9C1B8F0000EB8BFFF0EB96F83
:1019E800BA6F0A0E1CEC29F040D0180EFB5D1FE2FE
:1019F800FBC0F7F1F00E0101F727F86BF96B010E48
:101A0800FA6FFB6BF72B05D0D890F837F937FA3710
:101A1800FB37F72FF9D7F8C1B7F0F9C1B8F0FAC119
:101A2800B9F0FBC1BAF00A0E1CEC29F01ED0FBC0BD
:101A3800F7F1E80E0101F727F86BF96BFA6B010E65
:101A4800FB6FF72B05D0D890F837F937FA37FB3703
:101A5800F72FF9D7F8C1B7F0F9C1B8F0FAC1B9F062
:101A6800FBC1BAF00A0E1CEC29F00201E26FE25148
:101A780001E1DED1E06BD6D1D46BE05148E0D46B04
:101A8800DF6B2AD0E0510F0D960EF324D96E020EAB
:101A9800F420DA6EDF510F0D960EF324E16E020E7C
:101AA800F420E26EE750DF6216D0E0510F0D950E7C
:101AB800F324D96E020EF420DA6EDF510F0D950E65
:101AC800F324E16E020EF420E26EE750DF6203D0E9
:101AD800010ED46F04D0DF2BE051DF5DD3E3D405D2
:101AE80016E10101F769F8690201E2510101F96F94
:101AF800FA6BF751F927F851FA230201E051010175
:101B0800F919FA1101E08CD10201E06989D170EC70
:101B180036F0010E236E8C0E226EFE0E256EA50E7B
:101B2800246E0201E0510F0D960EF324D96E020EB9
:101B3800F420DA6EDF50266E276AE0510F0D950EFD
:101B4800F324D96E020EF420DA6EDF50286E296A6B
:101B5800DDEC10F00101010E236E9C0E226EFF0ECB
:101B6800256E890E246EDDEC10F0A5EC32F06CECDD
:101B78002EF00201DE6FDE0501E035D1D76B0B0ECA
:101B88000001EA6F0201DF6B28D0E0510F0D960EBD
:101B9800F324D96E020EF420DA6EDF510F0D960E83
:101BA800F324E16E020EF420E26EE750DF6214D0F7
:101BB800E0510F0D960EF324D96E020EF420DA6E62
:101BC800DF510F0D960EF324E16E020EF420E26E43
:101BD800E750DF6201D0D72BDF2BE251DF5DD5E381
:101BE800010ED765BFD0D26BD56B0B0E0001EA6F23
:101BF800590EEA25D96EDA6A010EDA22040EDF6E72
:101C0800EA2B0201E0510F0D960EF324D96E020E55
:101C1800F420DA6E590E0001EA25E16EE26A010E3F
:101C2800E222DFCFE7FFEA2B0201E0510F0D950E0C
:101C3800F324D96E020EF420DA6E590E0001EA255B
:101C4800E16EE26A010EE222DFCFE7FFEA2B000E27
:101C5800D5EC2EF00201DF6B81D0E0510F0D960E0E
:101C6800F324D96E020EF420DA6EDF510F0D960EB2
:101C7800F324E16E020EF420E26EE750DF626DD0CD
:101C8800E0510F0D950EF324D96E020EF420DA6E92
:101C9800DF510F0D950EF324E16E020EF420E26E73
:101CA800E750DF625AD0D52B70EC36F0010E236E68
:101CB8008C0E226EFE0E256EBA0E246E0201DF51C6
:101CC8000F0D8E0EF324D96E020EF420DA6EDF505B
:101CD800266E276ADF510F0D8D0EF324D96E020E82
:101CE800F420DA6EDF50286E296ADDEC10F001016D
:101CF800010E236E9C0E226EFF0E256E890E246E39
:101D0800DDEC10F0A5EC32F0DFC2D2F26CEC2EF074
:101D18000201DE6FDE0505E1D2C2E0F2E205DF6F07
:101D28001CD0DE51020AF2E10101F769F8690201EB
:101D3800E2510101F96FFA6BF751F927F851FA23CB
:101D48000201DF510101F919FA1104E00201D7512A
:101D5800D56303D00201DF69D56BDF2BE251DF5D6C
:101D680001E27BD70001D66B0201E051A0EC20F024
:101D78000201D06FD0290AE1FF0E316EB80E306E25
:101D8800326A010E336E04EC35F0F9D4FD0E316E73
:101D9800C70E306E326A010E336E04EC35F0020164
:101DA800DA6B0B0E0001EA6F590EEA25D96EDA6A72
:101DB800010EDA22050EDF6EEA2B590EEA25D96EDE
:101DC800DA6A010EDA22F5C0DFFFEA2B590EEA259E
:101DD800D96EDA6A010EDA22F4C0DFFFEA2B000EB0
:101DE800D5EC2EF019D0DE51020A01E0C0D601016F
:101DF800F769F8690201E051E2C2F9F10101FA6BF1
:101E0800F95F000EFA5BF751F927F851FA23FA51F6
:101E1800F91102E10201E0690201DA6701D006D096
:101E28000201E02BE251E05D01E226D6DA6B09D02F
:101E3800FE0E316E040E306E000E326A336A04EC08
:101E480035F00201DA0501E120D5DC6BDD6BDA6BD8
:101E5800899E899C8B94FC0E316E450E306E000E67
:101E6800326A336A04EC35F09FD16CEC2EF0020133
:101E7800DB6F7FEC37F0000960E025C1D9FF26C190
:101E8800DAFFDF500201DC6FDC51040A19E10001BE
:101E9800F551010121EE25F010EE01F0DE50E126AA
:101EA800DD50E222E7620AD020EE02F02551D92661
:101EB8002651DA22DF500001F41902E00201DC6B3E
:101EC8000201DC51020A37E1E16B090EE16501D03C
:101ED80032D0E1510E0D0C0EF324D96E020EF4200F
:101EE800DA6EDFAE25D0E1510E0D030EF324D96E64
:101EF800020EF420DA6E010110EE01F02351E12602
:101F08002451E222E750DF6213D00201E1510E0DA5
:101F1800020EF324D96E020EF420DA6E23C1E1FF1B
:101F280024C1E2FFE750DF6203D0E1C236F003D0FC
:101F38000201E12BCAD799EC37F00201DC51020A01
:101F480015E10B0E0001EA6F590EEA25D96EDA6A1F
:101F5800010EDA22020EDF6EEA2BB76B365042EC26
:101F68002BF030EC1DF0010E0201DA6FDB0501E009
:101F78009BD0DD6799D0D86B366AE16B090EE165B5
:101F880001D016D0E1510E0D0C0EF324D96E020EBD
:101F9800F420DA6EDFAE0AD0E1510E0D0C0EF324F8
:101FA800D96E020EF420DA6EDFBAD82BE12BE6D711
:101FB800010ED86564D0D36BD66BFD0E316E2B0E37
:101FC800306E000E326A336A04EC35F00201E16BC0
:101FD800090EE16501D053D0E1510E0D0C0EF3242A
:101FE800D96E020EF420DA6EDFAE45D070EC36F012
:101FF800010E236E8C0E226EFE0E256EBA0E246E16
:102008000201E1510E0D030EF324D96E020EF420E5
:10201800DA6EDF50266E276AE1510E0D020EF324A8
:10202800D96E020EF420DA6EDF50286E296ADDECD4
:1020380010F00101010E236E9C0E226EFF0E256E1C
:10204800890E246EDDEC10F0A5EC32F00201D62BDF
:102058006CEC2EF00201DB6FDB0505E1E1C236F026
:10206800010ED36F08D0DB51020AF2E1D851D663D2
:1020780002D0E169D66BD30502E0E12BA9D70B0E9C
:102088000001EA6F590EEA25D96EDA6A010EDA22E2
:10209800020EDF6EEA2BB76B365042EC2BF030ECB9
:1020A8001DF0010E0201DA6FDB51020A29E1DD2B76
:1020B800DD51030AD8B4DD6BDD670AD0FC0E316E42
:1020C800450E306E000E326A336A04EC35F018D0D3
:1020D800DD050AE1FC0E316E230E306E000E326A09
:1020E800336A04EC35F00CD0DD51020A09E1FC0E2C
:1020F800316E010E306E000E326A336A04EC35F030
:102108000201DC51030A04E0DB0516E1DD0514E1F8
:102118000B0E0001EA6F590EEA25D96EDA6A010E34
:10212800DA22030EDF6EEA2B000ED5EC2EF080ECDF
:1021380019F0010E0201DA6FDC51040A05E0DB0533
:102148002EE1DD51020A2BE170EC36F0010E236E10
:102158008C0E226EFE0E256E8E0E246E0001F5C0CA
:1021680026F0276AF4C028F0296AFBC02AF02B6AF7
:10217800DDEC10F0010E236E9C0E226EFE0E256E15
:10218800E00E246E0001F7C026F0276AF6C028F09A
:10219800296ADDEC10F0A5EC32F00201DC6BDC51B1
:1021A800050A02E1010EDA6F0201DA5101E04DD6AB
:1021B8005CD6260E0001676F97D36E51250A09E099
:1021C80022C0D9FF23C0DAFF6EC0DFFF224A232ACC
:1021D8008BD3696B6A6B6F6B706B09D06F8705D097
:1021E8006F8103D0708701D06F85244A252A24C0C7
:1021F800F6FF25C0F7FF0800F550200AF1E0030AB2
:10220800F1E00E0AEBE01D0AEFE06FB76F9524C00E
:10221800F6FF25C0F7FF0800F5502AEC37F02FE34A
:10222800696B6A6B69C016F06AC017F0196A0A0E02
:10223800186EACEC36F016C069F017C06AF0D00E14
:102248002C6E2D6824C0F6FF25C0F7FF0800F55056
:102258002E6E2F6A2C502E262D502F222E50000124
:1022680069272F506A23244A252A24C0F6FF25C04F
:10227800F7FF0800F5502AEC37F014E3D3D724C051
:10228800F6FF25C0F7FF0800F5502A0A0BE1675151
:10229800D96EDA6ADECF69F0DDCF6AF0020E672701
:1022A800244A252A24C0F6FF25C0F7FF0800F55068
:1022B8002E0A30E1708D244A252A24C0F6FF25C055
:1022C800F7FF0800F5502A0A0AE16751D96EDA6A61
:1022D800DF50686F020E6727244A252A8FD0686B63
:1022E8000FD024C0F6FF25C0F7FF0800F5CF2CF06B
:1022F80068510A0DF3502C24D00F686F244A252A00
:1023080024C0F6FF25C0F7FF0800F5502AEC37F087
:1023180075E3E7D7686B72D06F8D8ED06F8B6F8F38
:102328008BD068510FE068C02CF02D6A2CBE2D06AA
:102338006C512C5C6D512D5805E268516C6F6D6BBA
:102348006CBF6D0769516C5D6A516D5907E220EEEB
:102358006CF0DE50695FDD506A5B02D0696B6A6BB6
:102368006FA709D01DD022C0D9FF23C0DAFF200EE5
:10237800DF6E224A232A6907D8A06A070001692963
:10238800D8B46A290DE0EFD76B51D96EDA6A22C04A
:10239800E1FF23C0E2FFDFCFE7FF6B2B224A232AAE
:1023A8006C07D8A06D0700016C29D8B46D29ECE141
:1023B8006FB709D099D222C0D9FF23C0DAFF200E07
:1023C800DF6E224A232A6907D8A06A070001692913
:1023D800D8B46A2901E188D2EED76751D96EDA6A92
:1023E800DF506E6F020E67276E0E6B6F000E6D6FFB
:1023F800010E6C6F96D7C00E6F131ED024C0F6FF67
:1024080025C0F7FF244A252A0800F5CF6EF0000101
:102418006E5101E175D2580A81E03B0ADEE0070AF5
:102428000BE00D0A09E0060A01E176D71A0AE3E093
:102438000D0A01E174D7D8D76FC02CF0C00E2C1646
:1024480019E16751D96EDA6ADECF6BF0DDCF6CF037
:10245800020E67276C51800AF36E800EF35C000E43
:10246800D8B46B5D10E2030E6F136B6D6C1FD8B0A0
:102478006C2B09D06751D96EDA6ADECF6BF0DDCFED
:102488006CF0020E6727686753D06C516B1150E1EE
:10249800682B4ED0010E6E6F6E51050A52E06E51D8
:1024A800020DEF0EF324F66EFB0EF420F76E090012
:1024B800F5CF2CF00900F5CF2DF02C506B5D2D5089
:1024C8006C593FE36E2BE8D7010E6E6F6E51040A0C
:1024D80038E06E51020DF90EF324F66EFB0EF4206F
:1024E800F76E0900F5CF2CF00900F5CF2DF02C5030
:1024F8006B5D2D506C5925E36E2BE8D7010E6E6F7E
:102508006E51060A1EE06E51020DE30EF324F66EBC
:10251800FB0EF420F76E0900F5CF2CF00900F5CF7B
:102528002DF02C506B5D2D506C590BE36E2BE8D7BA
:102538006F51C00BAFE0400AE1E0C00AC5E0400AB5
:10254800A9E06E51800A2C6E6851800A2C5C03E267
:1025580068C06EF009D06851800A2C6E6E51800AEE
:102568002C5CD8A06EC068F06A51691108E06FC091
:102578002CF0030E2C1603E06907D8A06A0770AD8B
:1025880013D0800E68BF7F0E2C6E6951685D6A514A
:10259800800A2C5807E26851695F000E68BFFF0E79
:1025A8006A5B02D0696B6A6BC40E2C6E080E2D6EC6
:1025B8006FC02EF070C02FF02C502E162D502F16F5
:1025C8002F50080A400ED8B42E1807E16A51691135
:1025D80024E06907D8A06A0720D0C00E2C6E080E28
:1025E8002D6E6FC02EF070C02FF02C502E162D506F
:1025F8002F162F50080A800ED8B42E180EE16A51F3
:10260800800A800F030ED8B4695D05E3FE0E6927C2
:10261800FF0E6A2302D0696B6A6B800E6EBF7F0E55
:102628002C6E69516E5D6A51800A2C5807E26E5112
:10263800695F000E6EBFFF0E6A5B02D0696B6A6B42
:102648006FA550D06FC02CF0030E2C1609E022C0E5
:10265800D9FF23C0DAFF2D0EDF6E224A232A31D09C
:102668006FA106D022C0D9FF23C0DAFF200EF4D70D
:10267800C00E2C6E080E2D6E6FC02EF070C02FF09D
:102688002C502E162D502F162F50080A800ED8B415
:102698002E1817E122C0D9FF23C0DAFF300EDF6EF3
:1026A800224A232A6FBB03D0626B780E02D0626B7A
:1026B800580E616F22C0D9FF23C0DAFF61C0DFFF67
:1026C800CCD76A51691101E1F3D022C0D9FF23C0E8
:1026D800DAFF300EDF6E224A232A6907D8A06A077C
:1026E8000001EFD76A516911D8A46FB70FD022C083
:1026F800D9FF23C0DAFF200EDF6E224A232A69079A
:10270800D8A06A0700016A516911F1E16FC02CF085
:10271800030E2C1609E022C0D9FF23C0DAFF2D0EC4
:10272800DF6E224A232A08D06FA106D022C0D9FF23
:1027380023C0DAFF200EF4D7C00E2C6E080E2D6EC3
:102748006FC02EF070C02FF02C502E162D502F1663
:102758002F50080A400ED8B42E1809E122C0D9FF1C
:1027680023C0DAFF300EDF6E224A232AA1D0C00E22
:102778002C6E080E2D6E6FC02EF070C02FF02C50EE
:102788002E162D502F162F50080A800ED8B42E184A
:1027980001E08ED022C0D9FF23C0DAFF300EDF6EF1
:1027A800224A232A6FBB03D0646B780E02D0646B75
:1027B800580E636F22C0D9FF23C0DAFF63C0DFFF62
:1027C800D3D76851020DEF0EF324F66EFB0EF420FA
:1027D800F76E0900F5CF18F00A00F5CF19F06BC0B5
:1027E80016F06CC017F0BAEC34F016C01DF017C024
:1027F8001EF0206A0A0E1F6E26EC35F01D5045D0DB
:102808006BC016F06CC017F06851020DF90EF32476
:10281800F66EFB0EF420F76E0900F5CF18F00A00EB
:10282800F5CF19F0BAEC34F016500F0B606F6FBB90
:1028380004D0FF0E666F030E03D0FE0E666FF20E15
:10284800656F605165252C6E000E66212D6E2CC0BB
:10285800F6FF2DC0F7FF0800F5CF6EF022D06BC051
:1028680016F06CC017F06851020DE30EF324F66EF3
:10287800FB0EF420F76E0900F5CF18F00A00F5CF2B
:1028880019F0BAEC34F01650070B300F6E6F09D000
:102898006F51C00B96E0400AE2E0C00AB1E0400A7E
:1028A80090E022C0D9FF23C0DAFF6EC0DFFF5CD7FB
:1028B800680700016829ECE16FA716D06A51800A01
:1028C800800F010ED8B4695D0FE322C0D9FF23C081
:1028D800DAFF200EDF6E224A232A6907D8A06A078A
:1028E80000016A516911F1E124C0F6FF25C0F7FF24
:1028F800244A252A0800F5CF6EF000016E675DD4E2
:1029080022C0D9FF23C0DAFF000EDF6E000C81A0C1
:10291800F28237A00CD0800E01014D5D000E4E5999
:1029280004E34D6B4E6B379002D04D4B4E2B4A68EB
:102938001A6A1A50500D0301000EF324D96E030EC3
:10294800F420DA6EDF5003E01AC04AF004D01A2AE5
:10295800010E1A64EED7020E4A5C01E3FCD1010EA7
:102968001B6E4A50500D010EF324D96E030EF4204D
:10297800DA6EDF50166E16AC1B6A3B6A436A4A5021
:10298800500D020EF324D96E030EF420DA6EDF50D8
:10299800CC0B196EE1D14A50500D060EF324D96EB6
:1029A800030EF420DA6EFF0EDF620CD04A50500D91
:1029B800070EF324D96E030EF420DA6EFF0EDF62E1
:1029C80001D03B843B8E1B502EE04A50500D040E24
:1029D800F324D96E030EF420DA6EDF50446E4A50A9
:1029E800500D050EF324D96E030EF420DA6EDF5075
:1029F800456E4A50500D080EF3243C6E030EF42029
:102A08003D6E4A50500D000EF324D96E030EF4208B
:102A1800DA6EDF50ED0F406E4A50500D100EF32461
:102A28003E6E030E36D14A50500D080EF324D96E6F
:102A3800030EF420DA6EDF50446E4A50500D090E32
:102A4800F324D96E030EF420DA6EDF50456E4A5037
:102A5800500D0A0EF3243C6E030EF4203D6E4A50CE
:102A6800500D000EF324D96E030EF420DA6EDF50F9
:102A7800EB0F406E4A50500D120EF3243E6E030EBB
:102A880008D13B8E1B502EE04A50500D040EF32403
:102A9800D96E030EF420DA6EDF50446E4A50500DA2
:102AA800050EF324D96E030EF420DA6EDF50456E5E
:102AB8004A50500D0E0EF3243C6E030EF4203D6E6A
:102AC8004A50500D000EF324D96E030EF420DA6E2E
:102AD800DF50E70F406E4A50500D160EF3243E6E3D
:102AE800030ED7D04A50500D0E0EF324D96E030EA4
:102AF800F420DA6EDF50446E4A50500D0F0EF32466
:102B0800D96E030EF420DA6EDF50456E4A50500D30
:102B1800100EF3243C6E030EF4203D6E4A50500D07
:102B2800000EF324D96E030EF420DA6EDF50E50FA1
:102B3800406E4A50500D180EF3243E6E030EA9D075
:102B48003B843B8E010E436E4A50500D040EF32415
:102B5800D96E030EF420DA6EDF50446E4A50500DE1
:102B6800050EF324D96E030EF420DA6EDF50456E9D
:102B78004A50500D060EF3243C6E030EF4203D6EB1
:102B88004A50500D000EF324D96E030EF420DA6E6D
:102B9800DF50F50F406E4A50500D080EF3243E6E7C
:102BA800030E77D04A50500D060EF324D96E030E4B
:102BB800F420DA6EFF0EDF620CD04A50500D070E7B
:102BC800F324D96E030EF420DA6EFF0EDF6201D013
:102BD8003B843B8E010E436E1B662ED04A50500D2F
:102BE800080EF324D96E030EF420DA6EDF50446E1B
:102BF8004A50500D090EF324D96E030EF420DA6EF4
:102C0800DF50456E4A50500D0A0EF3243C6E030EF9
:102C1800F4203D6E4A50500D000EF324D96E030E79
:102C2800F420DA6EDF50F10F406E4A50500D0C0E52
:102C3800F3243E6E030E2DD04A50500D040EF3249B
:102C4800D96E030EF420DA6EDF50446E4A50500DF0
:102C5800050EF324D96E030EF420DA6EDF50456EAC
:102C68004A50500D080EF3243C6E030EF4203D6EBE
:102C78004A50500D000EF324D96E030EF420DA6E7C
:102C8800DF50F30F406E4A50500D0A0EF3243E6E8B
:102C9800030EF4203F6E72D03B8E010E436E1B5024
:102CA8001BE04A50500D040EF324D96E030EF42095
:102CB800DA6EDF50446E4A50500D050EF324D96E7B
:102CC800030EF420DA6EDF50456E4A50500D0D0E9B
:102CD800F3243C6E030E93D64A50500D0D0EF32488
:102CE800D96E030EF420DA6EDF50446E4A50500D50
:102CF8000E0EF324D96E030EF420DA6EDF50456E03
:102D08004A50500D0F0EF3243C6E030EA6D64A50BF
:102D1800500D060EF324D96E030EF420DA6EFF0E62
:102D2800DF620CD04A50500D070EF324D96E030E03
:102D3800F420DA6EFF0EDF6201D03B844A50500D5A
:102D4800000EF324D96E030EF420DA6EDF50F60F6E
:102D580021D71AEC37F0000C1950080AD8E0880A75
:102D680001E1EED6080A01E11DD7040A95E0440AFC
:102D780001E111D6040A01E184D6EBD74A50500D7F
:102D8800010EF324D96E030EF420DA6EDF50166EAE
:102D980016B6DFD70BD0FC0E3B161DD03B50FC0BF4
:102DA80001093B6E18D0030E3B1215D04A50500D46
:102DB800010EF324D96E030EF420DA6EDF50070BF0
:102DC800166E176A1750C5E11650EDE0010AE3E0E8
:102DD800020AE4E0BED74A50500D000EF324D96E23
:102DE800030EF420DA6EDF50166E4A50500DFF0EB7
:102DF800176E020E186EF3501726F450182216504C
:102E08001724D96E000E1820DA6EDF50426E4A5031
:102E1800500D000EF324D96E030EF420DA6EDF5045
:102E2800166E4A50500D000E176E030E186EF350B2
:102E38001726F450182216501724D96E000E1820A1
:102E4800DA6EDF50416E010C886BEA6B855111E038
:102E580083C0D9FF84C0DAFFDF50F86F20EE01F09D
:102E68008351D9268451DA22DF50F96FBDEC33F053
:102E780016D08B6B8B518125D96E000E8221DA6EAC
:102E88003A0E00018B25E16EE26A010EE222DFCFE5
:102E9800E7FF8B2B070E8B65EDD7E3EC32F00001D3
:102EA8008A6F8A2901E10ED28B6B8B51430D0E0E6E
:102EB800F324D96E040EF420DA6EDFA05ED100018F
:102EC8008B51430D0E0EF324D96E040EF420DA6EE6
:102ED800DFB2C2D08B51430D0E0EF324D96E040E0F
:102EE800F420DA6EDFA8B8D08A510E0D020EF32452
:102EF800D96E020EF420DA6E8B51430D060EF324C0
:102F0800E16E040EF420E26EE750DF62A5D08A512C
:102F18000E0D030EF324D96E020EF420DA6E8B51D7
:102F2800430D070EF324E16E040EF420E26EE75021
:102F3800DF6292D0896B1BD08B51430D100E866FC8
:102F4800040E876FF3508627F4508723895186250E
:102F5800D96E000E8721DA6E590E0001EA25E16E5E
:102F6800E26A010EE222DFCFE7FFEA2B892B8B51C1
:102F7800430D0F0EF324D96E040EF420DA6EDF50E1
:102F88000001895DD9E38B51430D0E0EF324D96EF0
:102F9800040EF420DA6EDFA412D07C6BF40E7B6F83
:102FA8008A510E0D020EF3247D6F020EF4207E6FFF
:102FB800010E7F6F0C0E806FD8EC31F041D000010C
:102FC800ED6BED518819FC0B8819ED6FED8B8B516A
:102FD800430D0E0EF324D96E040EF420DA6EDFA62C
:102FE80002D0ED8702D00001ED978A510E0D020E36
:102FF800F3240001EE6F020EF420EF6F010EF06F64
:10300800010EF16F8B51430D040EF324D96E040E9B
:10301800F420DA6EDECFF2F0DDCFF3F020EEEDF043
:1030280010EE60F0070EDECFE6FFE82EFCD7010EAB
:103038000001686F590E676FEAC069F0FBEC1EF07B
:1030480000018B51430D04010E0EF324D96E040EBA
:10305800F420DA6EDF90120000018B51430D0E0E42
:10306800F324D96E040EF420DA6EDFB286D08B51C9
:10307800430D0E0EF324D96E040EF420DA6EDFB879
:103088007CD08A510E0D040EF324166E020EF42025
:10309800176E8B51430D0401060EF324186E040EAF
:1030A800F420196ED5EC35F0000967E00001896B52
:1030B8001BD08B51430D100E866F040E876FF35093
:1030C8008627F450872389518625D96E000E8721DB
:1030D800DA6E590E0001EA25E16EE26A010EE2227B
:1030E800DFCFE7FFEA2B892B8B51430D0F0EF3241B
:1030F800D96E040EF420DA6EDF500001895DD9E341
:103108008B51430D0E0EF324D96E040EF420DA6EA3
:10311800DFA412D07C6BF40E7B6F8A510E0D040E67
:10312800F3247D6F020EF4207E6F010E7F6F000E78
:10313800806BD8EC31F084D70001ED6BED51881924
:10314800FC0B8819ED6FED8B8B51430D0E0EF3249C
:10315800D96E040EF420DA6EDFA602D0ED8702D015
:103168000001ED978A510E0D040EF3240001EE6F55
:10317800020EF420EF6FF06B43D700018B2B010E8A
:103188008B6593D68B6B8B51430D0E0EF324D96E42
:10319800040EF420DA6EDFA090D000018B51430DAD
:1031A8000E0EF324D96E040EF420DA6EDFA285D059
:1031B800896B1BD08B51430D100E866F040E876FE1
:1031C800F3508627F450872389518625D96E000E3F
:1031D8008721DA6E590E0001EA25E16EE26A010ED6
:1031E800E222DFCFE7FFEA2B892B8B51430D0F0E2D
:1031F800F324D96E040EF420DA6EDF500001895DE5
:10320800D9E3ED6BED518819FC0B8819ED6F8B51E3
:10321800430D0E0EF324D96E040EF420DA6EDFA4EB
:1032280004D0ED51FC0B0109ED6F0001ED8BED8F22
:103238008B51430D0E0EF324D96E040EF420DA6E72
:10324800DFA602D0ED8702D00001ED97010EF16FE5
:1032580085510AE0010EF06F8A510E0D020EF3241B
:103268000001EE6F020E08D0F06B8A510E0D040EAD
:10327800F3240001EE6F020EF4200001EF6F8B5172
:10328800430D040EF324D96E040EF420DA6EDECF5B
:10329800F2F0DDCFF3F020EEEDF010EE60F0070E67
:1032A800DECFE6FFE82EFCD7010E0001686F590E4D
:1032B800676FEAC069F0FBEF1EF000018B2B010E6F
:1032C8008B6561D785510BE07C6BF40E7B6F84C0F6
:1032D8007EF083C07DF088C07FF00C0E0AD07C6B36
:1032E800F40E7B6F82C07EF081C07DF088C07FF0D5
:1032F800040E806FD8EF31F0010E0001D46F9DEC01
:1033080037F0FD0E316E4B0E306E326A010E336EA1
:1033180004EC35F09FEC37F09FEC35F026C0CDF08B
:1033280027C0CEF0F6C0ADF1F7C0AEF1DFEC34F057
:1033380016C0D9F017C0DAF018C0DBF019C0DCF0FD
:10334800D9C0CFF0DAC0D0F0DBC0D1F0DCC0D2F009
:10335800B0D1DFEC34F016C0D5F017C0D6F018C0E5
:10336800D7F019C0D8F06CEC2EF00001D36FD3055C
:1033780003E0D351020A59E10B0EEA6F590E00011E
:10338800EA25D96EDA6A010EDA22010EDF6EEA2B1F
:10339800000ED5EC2EF09DEC37F0FD0E316E6A0E66
:1033A800306E326A010E336E04EC35F09FEC37F064
:1033B800DFEC34F016C0D9F017C0DAF018C0DBF033
:1033C80019C0DCF02FD07FEC37F000090AE0040EBA
:1033D80025C1D9FF26C1DAFFDF6201D0D46B99EC91
:1033E80037F00001D951D55DC66FDA51D659C76F8C
:1033F800DB51D759C86FDC51D859C96FC10EC65DAA
:10340800C60EC7592D0EC859000EC959D8B0D46B6D
:10341800DFEC34F016C0D5F017C0D6F018C0D7F0DE
:1034280019C0D8F00001D467CED7CF51D55DC66F8B
:10343800D051D659C76FD151D759C86FD251D85921
:10344800C96F810EC65D840EC7591E0EC859000E7D
:10345800C9591BE3010151510E0D0C0EF324D96E0D
:10346800020EF420DA6EDFAE02D0512B02D0010139
:10347800516BDAEC29F0DFEC34F016C0CFF017C04E
:10348800D0F018C0D1F019C0D2F00001D951D55DE3
:10349800C66FDA51D659C76FDB51D759C86FDC519F
:1034A800D859C96FA10EC65D250EC759260EC85931
:1034B800000EC9595CE3CDC06EF0CEC06FF031ECA0
:1034C80026F0F7EC36F01EC0CAF01FC0CBF020C0C3
:1034D800CCF001014F6B506BCAC016F0CBC017F08F
:1034E800CCC018F098EC2FF016C0C6F017C0C7F083
:1034F80018C0C8F019C0C9F00001C65101014F6FCA
:10350800506B0B0E0001EA6F590EEA25D96EDA6A84
:10351800010EDA22030EDF6EEA2B590EEA25D96E68
:10352800DA6A010EDA224FC1DFFFEA2B590EEA25CB
:10353800D96EDA6A010EDA22F6C0DFFFEA2B590EDD
:10354800EA25D96EDA6A010EDA22F7C0DFFFEA2B24
:103558004FC1AFF1000ED5EC2EF0DFEC34F016C001
:10356800D9F017C0DAF018C0DBF019C0DCF07FEC36
:1035780037F0000901E19DD0010E25C1D9FF26C110
:10358800DAFFDF6221D099EC37F00B0E0001EA6F09
:10359800590EEA25D96EDA6A010EDA22040EDF6EB8
:1035A800EA2B000EB76B42EC2BF00001D46B9DECBC
:1035B80037F0FD0E316E6A0E306E326A010E336ED0
:1035C80004EC35F09FEC37F00001DD6BDD510E0D9A
:1035D8000C0EF324D96E020EF420DA6EDFAE62D040
:1035E8000001DD510E0D020EF324D96E020EF420F7
:1035F800DA6E010110EE02F02551E1262651E22291
:10360800E750DF624FD00001DD510E0D030EF324A9
:10361800D96E020EF420DA6E010110EE03F0255186
:10362800E1262651E222E750DF623CD0030E25C195
:10363800D9FF26C1DAFFDF6235D020EE01F025512F
:10364800D9262651DA220001DD51030D0101B20EFF
:10365800F324E16E010EF420E26EDFCFE7FF20EEE7
:1036680002F02551D9262651DA220001DD51030D39
:103678000101B00EF324E16E010EF420E26EDFCFFB
:10368800E7FF20EE03F02551D9262651DA22000162
:10369800DD51030DB10EF324E16E010EF420E26E4C
:1036A800DFCFE7FF0001DD2B090EDD658FD799EC31
:1036B80037F00001D4674DD612008551070B8A6F89
:1036C8008A5120EEF7F0DF6238D0800E84650DD085
:1036D80082C01FF083C020F0840E216E010E226E7E
:1036E80086C023F0000E3FEF28F0ED6BED8B86B11E
:1036F80002D0ED9702D00001ED8784C0F8F085C0B4
:10370800F9F0010EF06FF16FEF6BF80EEE6FF4C089
:10371800F2F0F5C0F3F020EEEDF010EE60F0070ED9
:10372800DECFE6FFE82EFCD7010E0001686F590EC8
:10373800676FEAC069F0FBEF1EF08AC087F0010EE0
:10374800886F872B02D0D8908837872FFCD788516D
:103758000101571564E02A0E00018A25D96EDA6A3C
:10376800010EDA22020EDF6421D02A0E8A25D96ED4
:10377800DA6A010EDA22DF6A8AC087F0010E886FE2
:10378800872B02D0D8908837872FFCD7881D010156
:103798005717320E00018A25D96EDA6A0101010E27
:1037A800DA22000EDF6AF7EC2FF0000C0001ED6B57
:1037B800ED8B86B102D0ED9702D00001ED87F86B52
:1037C8008AC0F9F0010EF06FF16FEF6BF80EEE6F33
:1037D800F4C0F2F0F5C0F3F020EEEDF010EE60F07A
:1037E800070EDECFE6FFE82EFCD7010E0001686F5A
:1037F800590E676FEAC069F0FBEC1EF0000904E19E
:103808002A0E00018A259ED02A0E00018A25D96E2B
:10381800DA6A0101010EDA22000EDF6E010C0001E6
:103828008B6B320E00018B25D96EDA6A010EDA2213
:10383800DF50876F8AC088F0010E896F882B02D00D
:10384800D8908937882FFCD78951871501E185D011
:103858002A0E00018B25D96EDA6A010EDA22020ED1
:10386800DF6443D02A0E8B25D96EDA6A010EDA227C
:10387800DF6A8BC087F0010E886F872B02D0D89043
:103888008837872FFCD7881D01015717320E000192
:103898008B25D96EDA6A010EDA22000EDF6EEC5142
:1038A80082E1EA6B590EEA25D96EDA6A010EDA224C
:1038B800070EDF6EEA2B590EEA25D96EDA6A010E79
:1038C800DA22FAC0DFFFEA2B0101EB69EC69010E8D
:1038D80000017C6FEB0E7B6F7E6B7D6B010E7F6F43
:1038E800000E806BD8EC31F0000C0001ED6BED8B15
:1038F80086B102D0ED9702D00001ED87F86B8BC03E
:10390800F9F0010EF06FF16FEF6BF80EEE6FF4C087
:10391800F2F0F5C0F3F020EEEDF010EE60F0070ED7
:10392800DECFE6FFE82EFCD7010E0001686F590EC6
:10393800676FEAC069F0FBEC1EF000090AE12A0E85
:1039480000018B25D96EDA6A0101010EDA22DF2A1D
:10395800000C2A0E00018B255AD78B2B070E8B657E
:1039680060D7EC51020A50E0ED6BED8B86B102D0C6
:10397800ED9702D00001ED87EC0503E1F86BF96BD8
:103988001FD08B6B0101575110E08BC087F0010EDF
:103998000001886F896B872B03D0D89088378937C7
:1039A800872FFBD78951881105E100018B2B070E62
:1039B8008B65E8D7080E8B5DE1E28BC0F9F0F86BF8
:1039C800010EF06FF16FEF6BF80EEE6FF4C0F2F0CE
:1039D800F5C0F3F020EEEDF010EE60F0070EDECF4C
:1039E800E6FFE82EFCD7010E0001686F590E676FDD
:1039F800EAC069F0FBEC1EF0000903E101012A2B83
:103A0800000C01012A6B010CED6BED8B86B102D025
:103A1800ED9702D00001ED878AC0F9F0F86B010E2E
:103A2800F06FF16FEF6BF80EEE6FF4C0F2F0F5C0C7
:103A3800F3F020EEEDF010EE60F0070EDECFE6FFBB
:103A4800E82EFCD7010E0001686F590E676FEAC0B7
:103A580069F0FBEC1EF0D0D7010E0001D66FCB6FDA
:103A6800D76BCC6B9DEC37F0FC0E316EEB0E306EE5
:103A7800326A010E336E04EC35F09FEC37F0DFEC60
:103A880034F016C0D2F017C0D3F018C0D4F019C063
:103A9800D5F0A9D1DFEC34F016C0CEF017C0CFF0C6
:103AA80018C0D0F019C0D1F00001D251CE5DC66F58
:103AB800D351CF59C76FD451D059C86FD551D159A7
:103AC800C96F810EC65D840EC7591E0EC859000EF7
:103AD800C95901E2ECD070EC36F00001CB5101E19C
:103AE80085D0FE0E316E3E0E306E326A010E336E98
:103AF80004EC35F00B0E0001EA6F590EEA25D96E79
:103B0800DA6A010EDA22020EDF6EEA2B590EEA2576
:103B1800D96EDA6A010EDA224D0EDF6EEA2B590EE3
:103B2800EA25D96EDA6A010EDA22690EDF6EEA2B0F
:103B3800590EEA25D96EDA6A010EDA22570EDF6EBF
:103B4800EA2B590EEA25D96EDA6A010EDA22690ED5
:103B5800DF6EEA2B590EEA25D96EDA6A010EDA22EF
:103B6800200EDF6EEA2B590EEA25D96EDA6A010EAD
:103B7800DA22520EDF6EEA2B590EEA25D96EDA6A7E
:103B8800010EDA226F0EDF6EEA2B590EEA25D96E86
:103B9800DA6A010EDA22630EDF6EEA2B590EEA2585
:103BA800D96EDA6A010EDA226B0EDF6EEA2B590E35
:103BB800EA25D96EDA6A010EDA22730EDF6EEA2B75
:103BC800590EEA25D96EDA6A010EDA22210EDF6E65
:103BD800EA2BB76B365042EC2BF0000903E10001E9
:103BE800CC2B02D00001CC6BCB6B57D0CC6744D028
:103BF800780ED7650ED00101010E236E8C0E226E51
:103C0800FF0E256E790E246EDDEC10F08B84899CF6
:103C180023D0790ED75D10E23C0ED7650DD0010197
:103C2800010E236E8C0E226EFF0E256E250E246E5D
:103C3800DDEC10F08B840FD03D0ED75D0EE2010154
:103C4800010E236E8C0E226EFF0E256EC70E246E9B
:103C5800DDEC10F08B94898C899E010E236E9C0EEE
:103C6800226EFF0E256EA90E246E0001D7C026F025
:103C7800276ADDEC10F00CD0FC0E316E880E306E29
:103C8800326A010E336E04EC35F08B94899C898E70
:103C9800A5EC32F0010E0001CB6FDFEC34F016C05A
:103CA800D2F017C0D3F018C0D4F019C0D5F07FEC0B
:103CB80037F0000935E025C1D9FF26C1DAFFDF500A
:103CC800CA6FCA0522E199EC37F00B0E0001EA6FC2
:103CD800590EEA25D96EDA6A010EDA22040EDF6E71
:103CE800EA2BB76B365042EC2BF00001D66B9DECFB
:103CF80037F0FD0E316E0B0E306E326A010E336EE8
:103D080004EC35F09FEC37F00BD0020E25C1D9FF3B
:103D180026C1DAFFDF6202D028C1D7F099EC37F06C
:103D28006CEC2EF00001CD6FCD0503E0CD51020AF9
:103D38005AE10B0EEA6F590E0001EA25D96EDA6ACC
:103D4800010EDA22010EDF6EEA2BB76B365042EC19
:103D58002BF09DEC37F0FD0E316E0B0E306E326A93
:103D6800010E336E04EC35F09FEC37F0DFEC34F0E5
:103D780016C0D2F017C0D3F018C0D4F019C0D5F0CF
:103D88002FD07FEC37F000090AE0040E25C1D9FFD7
:103D980026C1DAFFDF6201D0D66B99EC37F000015B
:103DA800D251CE5DC66FD351CF59C76FD451D059B8
:103DB800C86FD551D159C96FC10EC65DC60EC75956
:103DC8002D0EC859000EC959D8B0D66BDFEC34F0A7
:103DD80016C0CEF017C0CFF018C0D0F019C0D1F07F
:103DE8000001D667CED70001D66754D612007A6B89
:103DF80060A502D0010E636F60B7646B6051030B5E
:103E08006A6F6A0502E1030E04D06051030B02E1F8
:103E1800010E776F20EE65F0DE524750DD1846C080
:103E2800E8FFD8B4DF180AE14628D8B4472806E0E6
:103E3800050E786F778D010E766F03D0070E786FB9
:103E4800766B6351020ED8B4080E78276451020EBF
:103E5800D8B4080E782760BB60B501D0778B605165
:103E6800030B030A07E1776B070E786F766B010E79
:103E7800646F609B000E186A176A78C019F06AECC4
:103E880034F000017A2B7AC017F0186A7851692546
:103E9800196E6AEC34F000017A2B7AC017F0186AB0
:103EA80077C019F06AEC34F000017A2B6051030BEB
:103EB800030A13E17AC017F0186A800E196E6AECCB
:103EC80034F000017A2B7AC017F0186A52C119F041
:103ED8006AEC34F00101522B7AD063510CE0645142
:103EE8000AE07AC017F0186A880E196E6AEC34F086
:103EF80000017A2B20D063510AE0646708D07AC0A9
:103F080017F0186AC80E196E6AEC34F0F1D76367B7
:103F18000AD0640508E17AC017F0186A8C0E196E89
:103F28006AEC34F0E5D77AC017F0186ACC0E196E2F
:103F38006AEC34F0DDD77AC017F0186A52C119F06C
:103F48006AEC34F00101522B00017A2B7AC017F089
:103F5800186A65C019F06AEC34F000017A2B7AC04F
:103F680017F0186A66C019F06AEC34F000017A2B71
:103F780060A511D07AC017F0186AFF0E19686AECAC
:103F880034F000017A2B7AC017F0186AFF0E19680E
:103F98006AEC34F01CD063511DE07AC017F0186A3F
:103FA80061C0D9FF62C0DAFFDF50196E6AEC34F0E5
:103FB80000017A2B7AC017F0186A20EE01F06151DF
:103FC800D9266251DA22DF50196E6AEC34F000010A
:103FD8007A2B14D0796B7AC017F0186A7951612559
:103FE800D96E000E6221DA6EDF50196E6AEC34F079
:103FF80000017A2B792B070E7965EDD7766712D0F9
:104008007AC017F0186A46C019F06AEC34F000015B
:104018007A2B7AC017F0186A47C019F06AEC34F0A6
:1040280000017A2B645113E07AC017F0186A48C06F
:1040380019F06AEC34F000017A2B7AC017F0186A8C
:1040480049C019F06AEC34F000017A2B15D0796B6D
:104058007AC017F0186A795101014B25D96E000E04
:104068004C21DA6EDF50196E6AEC34F000017A2BBD
:10407800792B070E7965ECD7796B10D07AC017F0D9
:10408800186A79516725D96E000E6821DA6EDF50FB
:10409800196E6AEC34F000017A2B792B6951795D3D
:1040A800EDE3378060BB60B504D0050E796F3782C9
:1040B80003D0010E796F379279C017F0370E84EC70
:1040C80036F0DFEC34F016C06EF017C06FF018C091
:1040D80070F019C071F081A0F28237B004D037A413
:1040E800010C3794000CDFEC34F016C072F017C0E6
:1040F80073F018C074F019C075F000016E51725D4C
:104108006A6F6F5173596B6F705174596C6F71513D
:1041180075596D6F210E6A5D4E0E6B59000E6C5904
:10412800000E6D59D8E343EC27F0460E1A6E480E80
:1041380017EC34F03790000C0001E56F030EE36FC5
:10414800D60511E1BDEC23F006D07FEC37F000096D
:10415800D8A499EC37F00101CBB3F7D7CBA1FF0C6A
:10416800CC511200FF0CD667FF0CE52904E020D0E3
:10417800E32F01D0FF0C010ED76FD86BD96BDA6B28
:10418800FA51E82A05D0D890D737D837D937DA374F
:10419800E82EF9D7D7C0B7F0D8C0B8F0D9C0B9F071
:1041A800DAC0BAF00A0E1CEC29F00009E1E0E56B70
:1041B800E5510F0D950EF324D96E020EF420DA6E38
:1041C800DECFEBF1DDCFECF10001E5510F0D8D0EE7
:1041D800F324D96E020EF420DA6EDF50F86FE55141
:1041E8000F0D8E0EF324D96E020EF420DA6EDF5016
:1041F800F96FBDEC33F00001EB6FEB2906E1D2EC6F
:1042080036F00001EB6FEB29ADE0EB510E0D0C0E13
:10421800F324D96E020EF420DA6EDF6A0001E5514C
:104228000F0D950EF324D96E020EF420DA6EEB51C1
:104238000E0D000EF324E16E020EF420E26EDECFC6
:10424800E6FFDDCFE5FFE5510F0D8D0EF324D96EA6
:10425800020EF420DA6EEB510E0D020EF324E16E1D
:10426800020EF420E26EDFCFE7FFE5510F0D8E0E50
:10427800F324D96E020EF420DA6EEB510E0D030E04
:10428800F324E16E020EF420E26EDFCFE7FFEB517C
:104298000E0D0C0EF324D96E020EF420DA6EDF86B2
:1042A800E46BE5510F0D9A0ED76F020ED86FF350DD
:1042B800D727F450D823E451D725D96E000ED8213A
:1042C800DA6EEB510E0D0D0ED96F020EDA6FF35048
:1042D800D927F450DA23E451D925E16E000EDA210A
:1042E800E26EDFCFE7FFE42BE451DBE0EB510E0D8C
:1042F8000C0EF324D96E020EF420DA6EDF82000170
:10430800EB510E0D0C0EF324D96E020EF420DA6E6A
:10431800DF8AEB510E0D0C0EF324D96E020EF42039
:10432800DA6EDF80E5510F0D02018C0EF324D96E91
:10433800020EF420DA6EDF505CEC37F00001EB512E
:104348000E0D000EF324D96E020EF420DA6EDECFC5
:10435800F4F0DDCFF5F0F869F969F40E1A6EF80E8D
:1043680017EC34F00001EA6B590EEA25D96EDA6AC7
:10437800010EDA22010EDF6EEA2B590EEA25D96EFC
:10438800DA6A010EDA2254C1DFFFEA2BE46BE4514A
:10439800340FD96EDA6A590E0001EA25E16EE26A35
:1043A800010EE222DFCFE7FFEA2BE42BE451EFE036
:1043B800EB510E0D000EF3247B6F020EF4207C6F80
:1043C800EB510E0D020EF3247D6F020EF4207E6F6A
:1043D800010E7F6F080E806FD8EC31F0DFEC34F0FF
:1043E80016C0DBF017C0DCF018C0DDF019C0DEF035
:1043F80027D07FEC37F00009D8A499EC37F0DFEC30
:1044080034F016C0DFF017C0E0F018C0E1F019C0B2
:10441800E2F00001DB51DF5DD76FDC51E059D86F66
:10442800DD51E159D96FDE51E259DA6F210ED75DBE
:10443800A10ED859070ED959000EDA5901E392D6C0
:104448000001EB510E0D02010C0EF324D96E020E81
:10445800F420DA6EDFA8CDD70001EB511200020E6E
:10446800CF6FE697B95101E1F8D0D06BD051B7259D
:10447800D96E000EB821DA6E3A0E0001D025E16E31
:10448800E26A010EE222DFCFE7FFD02B070ED065EC
:10449800EDD7E3EC32F00001D16FD1293BE1040EF6
:1044A8000101596F020E5A6F5B695C695D695E694B
:1044B800F4C05FF1F5C060F1F6C061F1F7C062F1D8
:1044C800E9C063F10001E92BED6BED8BBAB102D0C5
:1044D800ED9702D00001ED87B8C0EFF0B7C0EEF05D
:1044E800F06B010EF16FF4C0F2F0F5C0F3F0E6974F
:1044F80020EEEDF010EE60F0070EDECFE6FFE82EBE
:10450800FCD7010E0001686F590E676FEAC069F0A9
:10451800FBEF1EF0D1510E0D0C0EF324D96E020ED6
:10452800F420DA6EDFA6BBD7040E0101596FCFC0A5
:104538005AF10001D1510E0D000EF324D96E020E6E
:10454800F420DA6EDF5001015B6F0001D1510E0DCE
:10455800010EF324D96E020EF420DA6EDF50010149
:104568005C6F0001D1510E0D020EF324D96E020EBC
:10457800F420DA6EDF5001015D6F0001D1510E0D9C
:10458800030EF324D96E020EF420DA6EDF50010117
:104598005E6FF4C05FF1F5C060F1F6C061F1F7C07D
:1045A80062F1E9C063F10001E92BD1510E0D000E53
:1045B800F324D96E020EF420DA6EDECF82F0DDCF5E
:1045C80083F0D1510E0D020EF324D96E020EF420A1
:1045D800DA6EDECF84F0DDCF85F0BAC086F061EC0C
:1045E8001BF0000903E10001E69712000001E6A7AD
:1045F8001200DFEC34F016C0BFF017C0C0F018C0CE
:10460800C1F019C0C2F07FEC37F00009D8A499ECCA
:1046180037F00001E6A71200DFEC34F016C0C3F053
:1046280017C0C4F018C0C5F019C0C6F00001BF51CA
:10463800C35DBB6FC051C459BC6FC151C559BD6F73
:10464800C251C659BE6F210EBB5DA10EBC59070EE3
:10465800BD59000EBE59C7E2D6D7040E0101596FE5
:10466800020E5A6FF4C05BF1F5C05CF1B7C0D9FF18
:10467800B8C0DAFFDF505D6F000120EE01F0B751DE
:10468800D926B851DA22DF5001015E6FF4C05FF11C
:10469800F5C060F1F6C061F1F7C062F1E9C063F1FD
:1046A8000001E92BB7C0D9FFB8C0DAFFDF5001011C
:1046B800E96F000120EE01F0B751D926B851DA228E
:1046C800DF500101EA6FB7C0D9FFB8C0DAFFDF5089
:1046D8000001F86F20EE01F0B751D926B851DA225F
:1046E800DF50F96FF4C082F0F5C083F0F8C084F0B1
:1046F800F9C085F0BAC086F061EC1BF0000901E151
:1047080072D70001E6A71200DFEC34F016C0C7F03C
:1047180017C0C8F018C0C9F019C0CAF07FEC37F04C
:104728000009D8A499EC37F00001E6A71200DFECE5
:1047380034F016C0CBF017C0CCF018C0CDF019C0BB
:10474800CEF00001C751CB5DBB6FC851CC59BC6FCF
:10475800C951CD59BD6FCA51CE59BE6F210EBB5D2F
:10476800A10EBC59070EBD59000EBE5901E33BD737
:10477800D5D70101CB910001EC51020A01E0FBD031
:104788000101CBB338D0DFEC34F016C0E2F117C02A
:10479800E3F118C0E4F119C0E5F1CD6BCE6B00016F
:1047A800D46BEF0E0001D425D96EDA6A010EDA2235
:1047B800CF0ED425E16EE26A010EE222DFCFE7FFD9
:1047C800D42B070ED465EDD70101CB83CB91000123
:1047D800D46BD451340FD96EDA6AD70E0001D425C0
:1047E800E16EE26A010EE222DFCFE7FFD42BD4515B
:1047F800D8A41200EED7CE51CD11D8B4120021EEB4
:10480800CDF00001DE52F751DD18F6C0E8FFD8B44C
:10481800DF18D8B412000B0EEA6F590EEA25D96ECC
:10482800DA6A010EDA22DF6AEA2B590EEA25D96E16
:10483800DA6A010EDA22110EDF6EEA2BD46BEF0E64
:104848000001D425D96EDA6A010EDA22590EEA255A
:10485800E16EE26A010EE222DFCFE7FFEA2BD42BFA
:10486800070ED465ECD7590EEA25D96EDA6A010E1F
:10487800DA22F6C0DFFFEA2B590EEA25D96EDA6A8A
:10488800010EDA22F7C0DFFFEA2BD46BD451340FC4
:10489800D96EDA6A590E0001EA25E16EE26A010E64
:1048A800E222DFCFE7FFEA2BD42BD451EFE0D46B21
:1048B800CF0E0001D425D96EDA6A010EDA223A0E3B
:1048C800D425E16EE26A010EE222DFCFE7FFD42BA6
:1048D800070ED465EDD7CDC1F8F0CEC1F9F0BDEC27
:1048E80033F00101CC6FCC290CE0CC510E0D020144
:1048F8000C0EF324D96E020EF420DA6EDF50396EF6
:1049080005D08C0E396E0001F8AF3980F4C0EBF198
:10491800F5C0ECF152EC30F00101CC6F0001D46B22
:10492800D70E0001D425D96EDA6A0101010EDA2208
:10493800CC510E0D0D0E0001D26F020ED36FF35045
:10494800D227F450D323D451D225E16E000ED321BF
:10495800E26EDFCFE7FFD42BD451E2E0010EB86F4F
:10496800CD0EB76F000EB96BBA6B33EC22F00101B4
:10497800CB93CB811200DFEC34F016C0E2F117C004
:10498800E3F118C0E4F119C0E5F10001F86BF96B27
:104998000B0EEA6F590EEA25D96EDA6A010EDA2291
:1049A800DF6AEA2B590EEA25D96EDA6A010EDA2295
:1049B800100EDF6EEA2BD46BEF0E0001D425D96EF2
:1049C800DA6A010EDA22590EEA25E16EE26A010E70
:1049D800E222DFCFE7FFEA2BD42B070ED465ECD712
:1049E800D46BD451340FD96EDA6A590E0001EA2516
:1049F800E16EE26A010EE222DFCFE7FFEA2BD42B59
:104A0800D451EFE0B86BF80EB76F000EB96BBA6B04
:104A180033EC22F00101CB831200DE6FFC0E316E05
:104A2800670E306E326A010E336E04EC35F0FD0EFF
:104A3800316E890E306E326A010E336E04EC35F039
:104A48000101566B6CEC2EF0386E380401E000D191
:104A5800FF0E316ED50E306E326A010E336E04ECE5
:104A680035F0899E899C8B94D6D0010E186EE60E7F
:104A7800176EFA0E196E030E1A6E1AEC36F0010153
:104A8800E66707D0E76705D0E86703D001015669F4
:104A9800D0D0E62904E1E72902E1E829F7E0562B1E
:104AA800C8D0010E186EED0E176E04EC36F0010139
:104AB800ED51BF0AF4E0EAD70001DE515CEC37F0B3
:104AC800000902E1FE0E9AD00001DC6BDB6B82D09C
:104AD800080EDE5D19E2DEC0D6F0010ED76FD86B86
:104AE800D62B03D0D890D737D837D62FFBD7D7C0F7
:104AF800B7F0D8C0B8F0000EB8BFFF0EB96FBA6FE4
:104B08000A0E1CEC29F05CD0100EDE5D1BE2DEC044
:104B1800D6F0F80ED627D76B010ED86FD62B03D058
:104B2800D890D737D837D62FFBD7D7C0B7F0D8C04B
:104B3800B8F0000EB8BFFF0EB96FBA6F0A0E1CECC2
:104B480029F03ED0180EDE5D1EE2DEC0D6F0F00E73
:104B5800D627D76BD86B010ED96FDA6BD62B05D059
:104B6800D890D737D837D937DA37D62FF9D7D7C02B
:104B7800B7F0D8C0B8F0D9C0B9F0DAC0BAF00A0EA8
:104B88001CEC29F01DD0DEC0D6F0E80ED627D76B76
:104B9800D86BD96B010EDA6FD62B05D0D890D737E2
:104BA800D837D937DA37D62FF9D7D7C0B7F0D8C022
:104BB800B8F0D9C0B9F0DAC0BAF00A0E1CEC29F086
:104BC800DD6FDD6705D0DB2B020EDB6503D005D07A
:104BD800010EDC6FDC5101E17BD7DC5101E072D7BB
:104BE80055D7FE0E316E740E306E326A010E336E7A
:104BF80004EC35F0898E898C8B84F00E0101566F98
:104C080018D0FE0E316E5A0E306E326A010E336EB7
:104C180004EC35F0EFD70101565101E126D7010A1E
:104C280001E13FD7030A01E147D7FC0ADAE0010AAC
:104C3800E8E05651F00A01E00BD76CEC2EF0386E24
:104C48003804D8B412003850020AD8B41200F5D784
:104C58003850020AD8B41200F5D6816B7E6B7F6B90
:104C6800806B040EC26EBD0EC16E9E9C9D9CC28060
:104C78000A0E166E000E176A186A196A8DEC2DF066
:104C8800C282C2B2FED72E6A960E2F6E440E306EC6
:104C98006EC01EF06FC01FF0E5EC36F01EC031F09C
:104CA8001FC032F020C033F038EC2FF02EC07BF05C
:104CB8002FC07CF030C07DF0C3CF78F0C4CF79F03E
:104CC8007BC060F07CC061F07DC062F078C01EF0EF
:104CD80079C01FF0E5EC36F01EC063F01FC064F029
:104CE80020C065F0FEEC2DF060C07BF061C07CF068
:104CF80062C07DF0256AFA0E266EC30E276E7BC051
:104D080022F07CC023F07DC024F094EC2AF022C06D
:104D18002EF023C02FF024C030F0316A200E326EFE
:104D2800410E336E38EC2FF02EC07BF02FC07CF094
:104D380030C07DF000018151740FD96EDA6A7BC0F2
:104D480016F07CC017F07DC018F098EC2FF016C054
:104D580070F017C071F018C072F019C073F000013C
:104D68007051DF6EC290010E166E000E176A186A37
:104D7800196A8DEC2DF00001812B030E816577D720
:104D8800816B7EC022F07FC023F080C024F0815167
:104D9800740FD96EDA6ADF50F7EC36F01EC025F0D2
:104DA8001FC026F020C027F094EC2AF022C07EF025
:104DB80023C07FF024C080F00001812B030E8165A1
:104DC800E0D77EC02EF07FC02FF080C030F0316A6F
:104DD800800E326E400E336E38EC2FF02EC07EF00F
:104DE8002FC07FF030C080F07EC016F07FC017F073
:104DF80080C018F098EC2FF016C070F017C071F052
:104E080018C072F019C073F0000170517A6F7A51AE
:104E1800F7EC36F01EC031F01FC032F020C033F07E
:104E28007EC02EF07FC02FF080C030F0EDEC35F062
:104E38002EC060F02FC061F030C062F00001636BDB
:104E4800200E646F410E656FFEEC2DF060C07EF0A1
:104E580061C07FF062C080F07EC016F07FC017F09E
:104E680080C018F0196AA00E1A6E400E1B6EEBEC8B
:104E780033F002E300017A2B00017A5112008C9082
:104E8800030E286E296A2A6A2B6A18D09A0E206E99
:104E9800020E216E226A236A2006000E215A225A27
:104EA800235A2028D8B42128D8B42228D8B42328B3
:104EB800F3E12806000E295A2A5A2B5A2B5028109B
:104EC80029102A10E3E18C800A0E2C6E2D6A2E6AB6
:104ED8002F6A18D09A0E246E020E256E266A276A4B
:104EE8002406000E255A265A275A2428D8B42528DD
:104EF800D8B42628D8B42728F3E12C06000E2D5A5A
:104F08002E5A2F5A2F502C102D102E10E3E1070E79
:104F1800176E550E84EC36F0540E46EC36F0326EB1
:104F280032C01FF0070E1F16F7E1306A316A304AA7
:104F3800312AE80E305C030E3158F9E3010E176E82
:104F48001B0E84EC36F01768070E84EC36F01768F1
:104F5800090E84EC36F01768030E84EC36F01768F7
:104F6800050E84EC36F0326A325001014B25D96EB9
:104F7800000E4C21DA6EDF50176E3250020DF350DE
:104F88000B0F84EC36F0322A070E3264EDD7020E8E
:104F9800186E176E800E196E6AEC34F0020E186ED9
:104FA800030E176E000E196A6AEC34F0020E186EC2
:104FB800060E176E900E196E6AEC34F0020E186E1B
:104FC800070E176E800E196E6AEC34F0020E186E1A
:104FD800080E176E100E196E6AEC34F0020E186E79
:104FE800200E176E210E196E6AEC34F0800E176EC3
:104FF800750E84EC36F0400E176E7D0E84EC36F09C
:10500800600E176E7F0E84EC36F0980E176E310E18
:1050180084EC36F0950E176E5D0E84EC36F0020EB9
:10502800186E0F0E176E42EC34F0326E32C01FF05D
:10503800A00E1F161F50A00AF2E1E60E176E650EAD
:1050480084EC36F0B90E176E250E84EC36F0020E9D
:10505800186E176A030E196E6AEC34F0020E186E99
:10506800010E176E020E196E6AEC34F01D6A01010A
:10507800535145EF35F0286E2A6A2A50430D040132
:105088000E0EF324D96E040EF420DA6EDFB0CBD006
:105098002A50430D0E0EF324D96E040EF420DA6E56
:1050A800DF6A2A50430D0E0EF324D96E040EF42045
:1050B800DA6E28B002D0DF9201D0DF822A50430D89
:1050C8000E0EF324D96E040EF420DA6E23B002D04B
:1050D800DF9602D00401DF862A50430D0E0EF3241A
:1050E800D96E040EF420DA6EDF802A50430D0E0EBE
:1050F800F324D96E040EF420DA6E22B002D0DF98C1
:1051080002D00401DF8822661ED0286639D0296AB9
:1051180021502924D96EDA6A2A50430D060E246ECE
:10512800040E256EF3502426F450252229502424F9
:10513800E16E000E2520E26EDFCFE7FF292A070E79
:105148002964E6D71DD028661BD02150D96EDA6AAB
:105158002A50430D060EF324E16E040EF420E26E8D
:10516800DFCFE7FF2150D96EDA6AD92A2A50430DDA
:10517800070EF324E16E040EF420E26EDFCFE7FFA2
:105188002A50430D040EF324D96E040EF420DA6E6F
:105198001FC0DEFF20C0DDFF2A50430D0F0EF32491
:1051A800D96E040EF420DA6EEAC0DFFF296A19D03E
:1051B800590E2924D96EDA6A010EDA222A50430DD3
:1051C800100E246E040E256EF3502426F45025226A
:1051D80029502424E16E000E2520E26EDFCFE7FF80
:1051E800292A0001EA51295CE3E3DFEC34F016C018
:1051F80024F017C025F018C026F019C027F02A504F
:10520800430D0401000EF324D96E040EF420DA6E67
:1052180024C0DEFF25C0DEFF26C0DEFF27C0DDFF7D
:10522800D906D906010C2A2A010E2A6426D7000CB1
:105238000001C76F010EC86FC96BCA6BCB6BFAC090
:10524800D4F0D56BD5510F0D8C0EF324D96E020E08
:10525800F420DA6EDF680001D52B030ED565F2D78E
:10526800E86BE681D56B98D0D551C8C0BBF0C9C0F2
:10527800BCF0CAC0BDF0CBC0BEF0E82A05D0D890BB
:10528800BB37BC37BD37BE37E82EF9D7B751BB158A
:10529800BF6FB851BC15C06FB951BD15C16FBA51B8
:1052A800BE15C26FC36BF80EC015C46FC151C56F70
:1052B800070EC215C66FC651C311C411C5116BE0E4
:1052C800D5515CEC37F00001EA6B590EEA25D96E2E
:1052D800DA6A010EDA22070EDF6EEA2B590EEA258A
:1052E800D96EDA6A010EDA22FAC0DFFFEA2B010171
:1052F800EB69EC69010E00017C6FEB0E7B6F7E6B36
:105308007D6B010E7F6F000E806BD8EC31F0DFEC07
:1053180034F016C0CCF017C0CDF018C0CEF019C0CC
:10532800CFF07FEC37F00009D8A499EC37F0DFEC28
:1053380034F016C0D0F017C0D1F018C0D2F019C0A0
:10534800D3F00001CC51D05DBB6FCD51D159BC6FAA
:10535800CE51D259BD6FCF51D359BE6FC751040D2D
:10536800A70EF324F66EFB0EF420F76E0900F5CFB6
:10537800BFF00900F5CFC0F00900F5CFC1F0090072
:10538800F5CFC2F0BB51BF5DBC51C059BD51C15929
:10539800BE51C259C6E2D52B1F0ED56565D7D4516B
:1053A8005CEC37F00001E691E851120070EC36F041
:1053B800010151670BD0010E236E8C0E226EFF0E79
:1053C800256E140E246EDDEC10F00AD0010E236E4B
:1053D8008C0E226EFF0E256E690E246EDDEC10F029
:1053E8000101010E236E9C0E226EFF0E256EE10E4A
:1053F800246E5151030DAE0EF324D96E010EF42024
:10540800DA6EDF50266E276A5151030DAD0EF32474
:10541800D96E010EF420DA6EDF50286E296ADDECB1
:1054280010F001015151030DAF0EF324D96E010E96
:10543800F420DA6EFF0EDF620CD0010E236EA30E8D
:10544800226EFF0E256EF00E246EDDEC10F0A5EF37
:1054580032F0010E236EA10E226EFF0E256EEC0EA9
:10546800246E5151030DAF0EF324D96E010EF420B2
:10547800DA6EDF50266E276ADDEC10F00101010EAE
:10548800236EA40E226EFF0E256EF40E246EDDEC44
:1054980010F001015151030DAF0EF324D96E010E26
:1054A800F420DA6EDF50316E326A31C016F032C045
:1054B80017F0196A090E186EACEC36F016C031F008
:1054C80017C032F031C016F032C017F0196A050E55
:1054D800186E45EC31F016C031F017C032F0200ECE
:1054E8003126000E322231C030F00101010E236E48
:1054F800A50E226EFF0E256EEB0E246E30C026F030
:10550800276ADDEC10F00101010E236EA90E226E50
:10551800FF0E256E010E246EDDEC10F0A5EF32F0C3
:1055280024C028F0296A2A6A2334283601E329800E
:1055380028502D6E27C028F0296A2A6A2634283672
:1055480001E3298028502C6E2D5009E02C502D5C49
:105558000DE22D502C5C286E190E285C07E325C03F
:1055680022F026C023F027C024F012002C5009E0B6
:105578002D502C5C0DE22C502D5C286E190E285CE9
:1055880007E322C022F023C023F024C024F0120035
:10559800060E2B6E24BE2B8E27BE2B8C238E246AE0
:1055A800268E276A2C502D5C18E2D8902536263690
:1055B80027362C062C502D180CE02B062BC028F073
:1055C800070E281606E0F1D7D8902432233222326B
:1055D8002D2A2C502D62F8D71AD02D502C5C17E2AA
:1055E800D8902236233624362D062C502D180CE060
:1055F8002B062BC028F0070E281606E0F1D7D89006
:105608002732263225322C2A2C502D62F8D72BAE81
:1056180007D0221E231E241E222A000E2322242203
:105628002BAC07D0251E261E271E252A000E262253
:1056380027222B6A2250252623502622245027224F
:1056480027AE09D0251E261E271E252A000E262233
:105658002722010E2B6E25C016F026C017F027C092
:1056680018F02DC019F02BC01AF063EC32F016C0F8
:1056780022F017C023F018C024F01200C56FC551DE
:105688000E0D02010C0EF324D96E020EF420DA6E10
:10569800DFAE000C0001E697040E0101596F020EFF
:1056A8005A6F0001C5510E0D000EF324D96E020E7B
:1056B800F420DA6EDF5001015B6F0001C5510E0D59
:1056C800010EF324D96E020EF420DA6EDF500101C8
:1056D8005C6F0001C5510E0D020EF324D96E020E47
:1056E800F420DA6EDF5001015D6F0001C5510E0D27
:1056F800030EF324D96E020EF420DA6EDF50010196
:105708005E6FF4C05FF1F5C060F1F6C061F1F7C0FB
:1057180062F1E9C063F10001E92BC5510E0D000EDD
:10572800F324D96E020EF420DA6EDECF82F0DDCFDC
:1057380083F0C5510E0D020EF324D96E020EF4202B
:10574800DA6EDECF84F0DDCF85F0B7C086F061EC8D
:105758001BF0000903E10001E697000C0001E6A731
:10576800010CDFEC34F016C0BCF017C0BDF018C057
:10577800BEF019C0BFF07FEC37F00009D8A499EC4F
:1057880037F00001E6A7010CDFEC34F016C0C0F0DA
:1057980017C0C1F018C0C2F019C0C3F00001BC5155
:1057A800C05DB86FBD51C159B96FBE51C259BA6F0A
:1057B800BF51C359BB6F210EB85DA10EB959070E71
:1057C800BA59000EBB59C7E2D6D77069010E606F8F
:1057D800000E616F626F636F255001E0FF0C716B03
:1057E80093D0715160C027F061C028F062C029F0E1
:1057F80063C02AF0E82A05D0D890273628362936FB
:105808002A36E82EF9D7205027142B6E2150281459
:105818002C6E225029142D6E23502A142E6E2F6AB6
:10582800F80E2C14306E2D50316E070E2E14326E79
:1058380032502F103010311066E0726B71515CECF1
:1058480037F0DFEC34F016C068F017C069F018C004
:105858006AF019C06BF0010E82EC35F000016F6F31
:105868006F51725DD8A06FC072F0DFEC34F016C0D3
:1058780064F017C065F018C066F019C067F0000141
:105888006851645D276E69516559286E6A51665979
:10589800296E6B5167592A6E2450040DA70EF32404
:1058A800F66EFB0EF420F76E0900F5CF2BF0090019
:1058B800F5CF2CF00900F5CF2DF00900F5CF2EF02B
:1058C80027502B5C28502C5829502D582A502E58D8
:1058D800C2E2050E166E7251BBEC35F06D6F6E6B41
:1058E80001D06E2B6D516E5DFCE37051725D0BE261
:1058F80072C070F071C06CF0265005E02650D96E69
:10590800DA6A70C0DFFF712B1F0E71656AD76C51A0
:1059180012000001646FF669F769F469F569686B4C
:1059280068510E0D0C0EF324D96E020EF420DA6EB7
:10593800DF6A0001682B090E6865F2D7686B320EC2
:1059480000016825D96EDA6A010EDA22DF6A2A0EAA
:105958006825D96EDA6A010EDA22DF6A682B070E2B
:105968006865EDD70101576B0001EC6BE66BE76BDF
:105978000101CB6B546B77EC37F00001EA6B686B75
:105988006851430D0E0EF324D96E040EF420DA6E1E
:10599800DF6A0001682B010E6865F2D7656B6551F7
:1059A800870B4009656F658364B102D0659502D0A5
:1059B80000016585010E0001676FEF0E666F65C017
:1059C80060F066C061F067C062F064EC35F0000119
:1059D800F40E1A6EF60E17EC34F00001FA515CEC76
:1059E80037F00101548135C063F00001633B0101C8
:1059F800545100016319CF0B63190101546F548D81
:105A0800ECC063F0000163470101545100016319C0
:105A1800F90B63190101546FD6CFE9F0F292F288BD
:105A28001200A00E186E0F0E196E1A6A1B6A165015
:105A38001C6E17501D6E1E6A1F6A1C501802F3CF89
:105A480020F0F4CF21F0226A236A1902F3502126AC
:105A5800F4502222000E23221D501802F350212652
:105A6800F4502222000E23221C501A02F350222640
:105A7800F45023221D501902F3502226F4502322F9
:105A88001E501802F3502226F45023221B501C02E9
:105A9800F35023261D501A02F35023261E501902D4
:105AA800F35023261F501802F350232620C024F059
:105AB80021C025F022C026F023C027F0560E242648
:105AC800FF0E2522262227222750800A800F08E170
:105AD800000E265C05E1000E255C02E1C40E245C84
