:04000000F9EF00F024
:100008004182FACF0EF0FBCF0FF0E9CF10F0EACF24
:1000180011F0E1CF12F0E2CF13F0D9CF14F0DACF1C
:1000280015F0F3CF16F0F4CF17F0F6CF18F0F7CF9E
:1000380019F0F8CF1AF0F5CF1BF0F2B8F2A2ABD056
:10004800F292620EEFEC4DF01D6E1DA011D03990AA
:1000580039BC399C000E0101506F000E4F6F39A258
:1000680007D0480EEFEC4DF01C6E1CB03984399265
:100078001DA68AD01F68000E206E010E206401D0D4
:1000880010D02050500D000EF324D96E030EF4202A
:10009800DA6EDF50D8A403D020C01FF002D0202A87
:1000A800ECD7020E1F606BD0040E036E730E04ECC7
:1000B8004EF01F50500D000EF324D96E030EF4209D
:1000C800DA6E030E046E000E036EF6EC4BF0020FB0
:1000D800DF6E1F50500D000EF324D96E030EF4206E
:1000E800DA6E4F0EDF6040D0398A010E206E1AD0CA
:1000F8001F50500D000E096E030E0A6EF3500926AC
:10010800F4500A2220500924D96E000E0A20DA6E13
:10011800000E2024036E046A030E0422F6EC4BF052
:10012800DF6E202A2050096E0A6A1F50500D000EFB
:10013800F324D96E030EF420DA6EDF500B6E0C6ACE
:10014800020E0B26000E0C2209500B5C0C50800A84
:100158000D6E0A50800A0D58D8B0CAD7010E036E2A
:100168001B0E04EC4EF005D0010E036E1B0E04ECC2
:100178004EF0000E036E730E04EC4EF005D0010E27
:10018800036E1B0E04EC4EF01DA805D0800E036E06
:10019800590E04EC4EF09EB09DA007D09E903C2ACC
:1001A8003C50D8A402D001015D2BA5EC4EF01BC039
:1001B800F5FF1AC0F8FF19C0F7FF18C0F6FF17C0FF
:1001C800F4FF16C0F3FF15C0DAFF14C0D9FF13C03F
:1001D800E2FF12C0E1FF11C0EAFF10C0E9FF0FC043
:1001E800FBFF0EC0FAFF4192110034EF49F0C3EC57
:1001F8001FF00009D8B44CEF0DF033B41200000E14
:100208000101206F21A404D00001B16BB12B02D0F1
:100218000001B16B010120510001B119FC0BB119AA
:100228000101206F21A603D00101208702D001011E
:1002380020972150030BE806D8A404D00001B16B25
:10024800B12B02D00001B16B0001B13BB1470101F4
:1002580020510001B119DF0BB1190101206F21AE46
:1002680003D00101208D02D00101209D21AE0BD0C9
:1002780029B003D00101209F02D00101208F22C0A4
:1002880023F123C024F12AC021F12BC022F128C078
:1002980029F127C028F133943CEF0DF00A0E2660AF
:1002A80002D049EF0DF020EE02F02450D926255057
:1002B800DA22DF500001CC6F20EE03F02450D9265B
:1002C8002550DA22DF500001CD6F20EE04F02450D3
:1002D800D9262550DA22DF500001D06F20EE05F034
:1002E8002450D9262550DA22DF500001D16F20EEA4
:1002F80006F02450D9262550DA22DF500001D26FAB
:1003080020EE07F02450D9262550DA22DF500001CC
:10031800D36F20EE08F02450D9262550DA22DF507A
:100328000001D66F20EE09F02450D9262550DA2294
:10033800DF500001D76F000E0101206F21A603D006
:100348000101208702D00101209701012051030BF0
:100358000009D8A407D00001D02903E10001D12960
:10036800D8A474D10001FE510001D61912E1000190
:10037800FF510001D719D8A40CD00001FC5100018D
:10038800D21907E10001FD510001D319D8B449EF92
:100398000DF024C0D9FF25C0DAFF010EDF649BD021
:1003A80024C0D9FF25C0DAFFDF06000E0001FA6F6E
:1003B800000E0001D96F18D00001D951010DF3507A
:1003C8002424D96EF4502520DA6E0001FA51010D6B
:1003D8005E0EF324E16E010EF420E26EDFCFE7FF3C
:1003E8000001FA2B0001D92B26500001D95DD8A0B5
:1003F800E3D721C02CF0FCC031F0FDC032F029C099
:1004080030F0140EEEEC46F020EE2CF000EE7EF00C
:10041800060EDBCFEBFFE806FCE25E0E0001856FFF
:10042800010E0001866FFAC087F0D8EC2DF0000E9F
:100438000001D96F090E0001D96501D033D0000140
:10044800D9510E0D0C0EF326000EF4225A0EF32489
:10045800D96E020EF420DA6E0201DFAE20D0000160
:10046800D9510E0D0C0EF326000EF4225A0EF32469
:10047800D96E020EF420DA6E0201DFB010D000014E
:10048800D9510E0D0C0EF326000EF4225A0EF32449
:10049800D96E020EF420DA6E0201DFBA03D0000131
:1004A800D92BC8D70A0E0001D96115D0CCC06AF083
:1004B800CDC06BF0000E00016C6F000E00016D6F77
:1004C800000E00016E6F000E21B6010E00016F6F65
:1004D800010E3AEC37F0000E0001D96F030E00014F
:1004E800D96501D03CD00001D951080D030EF3267F
:1004F800000EF422000EF324D96E010EF420DA6EF9
:10050800DF50D8B429D00001D951080D000EF324CA
:10051800D96E010EF420DA6E0001D651DE181CE106
:100528000001D751DE18D8A417D020EE0AF02450C5
:10053800D9262550DA220001D951080D020EF326DA
:10054800000EF422000EF324E16E010EF420E26E98
:10055800DE50E618D8B403D00001D92BBFD7040E5B
:100568000001D96102D049EF0DF0000E0001D96FEA
:10057800030E0001D96501D013D00001D951080D2F
:10058800030EF326000EF422000EF324D96E010E9A
:10059800F420DA6EDF50D8B403D00001D92BE8D7A5
:1005A800040E0001D9614CD00001D951080D000E8C
:1005B800F324D96E010EF420DA6ED6C0DEFFD7C060
:1005C800DDFF20EE0AF02450D9262550DA2200015A
:1005D800D951080D020EF326000EF422000EF32462
:1005E800E16E010EF420E26EDFCFE7FF0001D95182
:1005F800080D030EF326000EF422000EF324D96E24
:10060800010EF420DA6E030EDF6E75EC4AF000017D
:10061800D951080D040EF326000EF422000EF3241F
:10062800D96E010EF420DA6E000160C0DEFF000111
:1006380061C0DEFF000162C0DEFF000163C0DEFFB3
:1006480001012051FC0B0109206F7FD00001FC51F2
:100658000001CC1905E10001FD510001CD19D8A414
:1006680061EF07F00001FE510001D01905E100011A
:10067800FF510001D119D8A461EF07F020EE01F075
:100688002450D9262550DA22DFA45FD0F6C15EF1C6
:10069800020E01015F6FD2C060F1D3C061F1D6C014
:1006A80062F1D7C063F1FCC064F1FDC065F1FEC022
:1006B80066F1FFC067F120EE0AF02450D9262550D4
:1006C800DA22DF500101686F000E0101696F300EF8
:1006D80001016A6F0D0E0001FA6F0001FF51000160
:1006E800D719D8B40ED0D2C0A5F0D3C0A6F0D6C0C2
:1006F800A7F0D7C0A8F0000E0001A96FFFEC28F002
:1007080022D0000E2C6E2C8A010E2F6E010E306E38
:10071800D60E2D6E000E2E6ED2C031F0D3C032F040
:1007280020EE2CF000EE7EF0060EDBCFEBFFE806A5
:10073800FCE25E0E0001856F010E0001866FFAC0B3
:1007480087F0D8EC2DF00101208520EE0BF0245025
:10075800D9262550DA22DF50D8A46DD320EE0CF02C
:100768002450D9262550DA22300EDE18D8A430D3EA
:1007780047D30101B2B371D075EC4AF060C0C9F13A
:1007880061C0CAF162C0CBF163C0CCF120EE08F0C1
:100798002450D9262550DA22DF500101B46F20EE0B
:1007A80009F02450D9262550DA22DF500101B56F0F
:1007B800000E0001D86F070E0001D86501D020D0C7
:1007C8000001D8510001B16FB26B0D0E0001B127C5
:1007D800000EB2230001B1512424D96E0001B25198
:1007E8002520DA6E0001D851010DB60EF324E16E12
:1007F800010EF420E26EDFCFE7FF0001D82BDBD734
:100808000101B2830101B291000E0001D86F00010D
:10081800D8510001D8A449EF0DF00001D8510001CA
:10082800B16FB26B150E0001B127000EB2230001A3
:10083800B1512424D96E0001B2512520DA6E00018D
:10084800D851010DBE0EF324E16E010EF420E26EC4
:10085800DFCFE7FF0001D82BDAD720EE08F02450CD
:10086800D9262550DA220101B451DE18D8A40CD0BB
:1008780020EE09F02450D9262550DA220101B5517D
:10088800DE18D8B449EF0DF00101B4510101B511DA
:10089800D8A4AAD0000E0001D86F070E0001D865B1
:1008A80001D034D00001D8510001B16FB26B0D0EE8
:1008B8000001B127000EB2230001B1512424D96EE2
:1008C8000001B2512520DA6E0001D851010DC10E88
:1008D800F324E16E010EF420E26EDFCFE7FF0001A2
:1008E800D851010DC10EF324D96E010EF420DA6E31
:1008F8000001D851010D3A0EF324E16E010EF420E7
:10090800E26EDFCFE7FF0001D82BC7D720EE08F053
:100918002450D9262550DA22DF500101BF6F20EE7E
:1009280009F02450D9262550DA22DF500101C06F82
:10093800BFC13DF0C0C13EF0FCC0D4F1FDC0D5F14F
:1009480079EC49F00101B36F0101B329D8A405D1AD
:100958008D0E01015C6F3DAE02D001015C913EEC51
:1009680044F00101B36F0101B329D8B4F6D0000EE9
:100978000001D86F0001D8510001D8A4EED00001C1
:10098800D8510001B16FB26B150E0001B127000EEE
:10099800B2230001B1512424D96E0001B25125209F
:1009A800DA6E0001D851010D0D0EF326000EF42267
:1009B8005A0E0001B36F020E0001B46FF35000012C
:1009C800B327F4500001B4230101B3510E0DF350C5
:1009D8000001B325E16EF4500001B421E26EDFCFCF
:1009E800E7FF0001D82BC6D70B0E0001FA6F0001F4
:1009F800FA51010D5E0EF324D96E010EF420DA6E61
:100A0800000EDF6E0001FA2B0001FA51010D5E0E97
:100A1800F324D96E010EF420DA6E110EDF6E000198
:100A2800FA2B000E0001D86F070E0001D86501D01F
:100A380036D00001D8510001B16FB26B0D0E000124
:100A4800B127000EB2230001B1512424D96E000150
:100A5800B2512520DA6E0001D851010DC10EF324E0
:100A6800E16E010EF420E26EDFCFE7FF0001D851FE
:100A7800010DC10EF324D96E010EF420DA6E0001C7
:100A8800FA51010D5E0EF324E16E010EF420E26EC0
:100A9800DFCFE7FF0001FA2B0001D82BC5D720EEE6
:100AA80008F02450D9262550DA22DF500101BF6F03
:100AB80020EE09F02450D9262550DA22DF50010112
:100AC800C06F0001FA51010D5E0EF324D96E010EBC
:100AD800F420DA6EBFC1DFFF0001FA2B0001FA51E2
:100AE800010D5E0EF324D96E010EF420DA6EC0C13A
:100AF800DFFF0001FA2B000E0001D86F0001D8516A
:100B08000001D8A422D00001D8510001B16FB26B06
:100B1800150E0001B127000EB2230001B1512424A3
:100B2800D96E0001B2512520DA6E0001FA51010D8B
:100B38005E0EF324E16E010EF420E26EDFCFE7FFD4
:100B48000001FA2B0001D82BD9D7B40E0001AF6FE2
:100B5800010E0001B06FEDEC48F00101B283010114
:100B6800B28149EF0DF0000E0001D46F070E0001AD
:100B7800D46501D020D00001D4510001B16FB26B0F
:100B88000D0E0001B127000EB2230001B15124243B
:100B9800D96E0001B2512520DA6E0001D451010D41
:100BA8003A0EF324E16E010EF420E26EDFCFE7FF88
:100BB8000001D42BDBD78D0E01015C6F20EE15F000
:100BC8002450D9262550DA22DFAE02D001015C91EB
:100BD80020EE15F02450D9262550DA22DF503D6E3C
:100BE80020EE16F02450D9262550DA22DF503E6E2A
:100BF800FCC0D4F1FDC0D5F179EC49F00101B36F27
:100C08000101B329D8B415D00101B3510E0D0C0E52
:100C1800F326000EF4225A0EF324D96E020EF420A5
:100C2800DA6EDF5001015C6F01015C8501015C87B0
:100C380007D08D0E01015C6F3DAE02D001015C91C1
:100C48003EEC44F00101B36F0101B329D8B440D0A0
:100C5800000E0001D46F0001D4510001D8A435D092
:100C68000001D4510001B16FB26B170E0001B1271A
:100C7800000EB2230001B1512424D96E0001B251F3
:100C88002520DA6E0001D451010D0D0EF326000E59
:100C9800F4225A0E0001B36F020E0001B46FF35034
:100CA8000001B327F4500001B4230101B3510E0D24
:100CB800F3500001B325E16EF4500001B421E26E57
:100CC800DFCFE7FF0001D42BC6D70101B28102D0E4
:100CD8000101B2910101B29349EF0DF020EE0DF040
:100CE8002450D9262550DA223F50DE18D8A449EFDF
:100CF8000DF020EE0EF02450D9262550DA22DF50D0
:100D080018EC4EF049EF0DF020EE0DF02450D926E6
:100D18002550DA223F50DE18D8A449EF0DF0000E16
:100D28000001FA6FF6C15EF1020E01015F6FFCC0AF
:100D380060F1FDC061F120EE08F02450D92625505D
:100D4800DA22DF500101626F20EE09F02450D92623
:100D58002550DA22DF500101636FFCC064F1FDC049
:100D680065F1FEC066F1FFC067F13AC068F13A2A42
:100D7800000E0101696F420E01016A6F000E2C6EB0
:100D88002C8A010E2F6E010E306EFCC031F0FDC0B2
:100D980032F0080E24242D6E000E25202E6E20EE33
:100DA8002CF000EE7EF0060EDBCFEBFFE806FCE24F
:100DB8005E0E0001856F010E0001866F0D0E0001A9
:100DC800876FD8EC2DF049EF0DF0339E49EF0DF009
:100DD80020EE0CF02450D9262550DA22DF50100AD4
:100DE800D8B4C7D4010AD8B4BED6510AD8B476D775
:100DF800010AD8B489D7030AD8B4E7D749EF0DF068
:100E080020EE0AF02450D9262550DA220101F551A6
:100E1800DE18D8A449EF0DF001014D510001D61993
:100E280005E101014E510001D719D8A449EF0DF091
:100E3800339649EF0DF02650F50F0101276F0B0E81
:100E480024240101256F000E25200101266FD2C040
:100E580021F1D3C022F120EE08F02450D9262550E4
:100E6800DA22DE28D8A415D020EE09F02450D9269D
:100E78002550DA22DE28D8A40CD029B003D00101ED
:100E8800209F02D00101208F22C023F123C024F12A
:100E98000AD00101208F080E24240101236F000EBF
:100EA80025200101246F0101208D01012751D8B4AB
:100EB80049EF0DF0338449EF0DF024C0D9FF25C068
:100EC800DAFFDF50D8B449EF0DF024C0D9FF25C0B0
:100ED800DAFFDF06000E0001FA6F000E0001D96F7D
:100EE80018D00001D951010DF3502424D96EF450C3
:100EF8002520DA6E0001FA51010D5E0EF324E16E31
:100F0800010EF420E26EDFCFE7FF0001FA2B0001AB
:100F1800D92B26500001D95DD8A0E3D70001FF5195
:100F28000001D119D8A42DD001016951D8A429D024
:100F3800300E01016A19D8A424D0000E2C6E2C8A18
:100F4800010E2F6E010E306ED00E2D6E000E2E6E1D
:100F5800CCC031F0CDC032F020EE2CF000EE7EF0A7
:100F6800060EDBCFEBFFE806FCE25E0E0001856FA4
:100F7800010E0001866FFAC087F0D8EC2DF049EF1A
:100F88000DF0CCC0A5F0CDC0A6F0D0C0A7F0D1C060
:100F9800A8F0000E21B6010E0001A96FFFEC28F0A1
:100FA80049EF0DF0000E0001CB6F0001CB5100019D
:100FB800B16FB26B040E0001B127000EB22300011D
:100FC800B1512424D96E0001B2512520DA6E4D0E9C
:100FD800DE18D8A449EF0DF020EE01F02250D926F2
:100FE8002350DA22DF500001C26FC2C0B1F0010EF7
:100FF8000001B26F0001B12B03D00001D890B237C5
:101008000001B12FFAD70001B2510001BF6F22C011
:10101800D9FF23C0DAFFDF50D8A404D00001BF51A4
:1010280001015A130001CB510001B16FB26B060EDA
:101038000001B127000EB2230001B1512424D96E5A
:101048000001B2512520DA6E0001C251010D320EA5
:10105800F324E16E010EF420E26EDFCFE7FF33A048
:1010680049EF0DF02AC0D4F12BC0D5F122C0D9FF29
:1010780023C0DAFFDF503D6E20EE01F02250D92662
:101088002350DA22DF503E6E0001CB51010DF350A0
:101098002424D96EF4502520DA6EDE28D8A449EF2E
:1010A8000DF00001CB510001B16FB26B010E0001D0
:1010B800B127000EB2230001B1512424D96E0001DA
:1010C800B2512520DA6EDF500001CA6F040E356078
:1010D80049EF0DF00001CA39030B0001B16F020E90
:1010E8000001B16149EF0DF035500F0D000EF324EA
:1010F800D96E020EF420DA6E3FC0DFFF35500F0DB7
:101108000B0EF326000EF422000EF324D96E020E05
:10111800F420DA6E28C1DFFF35500F0D0C0EF326D0
:10112800000EF422000EF324D96E020EF420DA6EBB
:1011380029C1DFFF35500F0D090EF326000EF422EA
:10114800000EF324D96E020EF420DA6ED4C1DEFF4D
:10115800D5C1DDFF35500F0D0D0EF326000EF4221C
:10116800000EF324D96E020EF420DA6E000EDF6E44
:1011780035500F0D0D0EF326000EF422000EF32449
:10118800D96E020EF420DA6E0201DF8C0001CA313A
:10119800030B0001B16F35500F0D0D0EF326000E35
:1011A800F422000EF324D96E020EF420DA6E020146
:1011B800DF500001B119FC0BB1190201DF6E00010B
:1011C800CAA70ED035500F0D0D0EF326000EF422CF
:1011D800000EF324D96E020EF420DA6E0201DF86C7
:1011E8000001CA39030B0001B16F020E0001B161A1
:1011F8000ED035500F0D0D0EF326000EF422000E02
:10120800F324D96E020EF420DA6E0201DF8A23C1BC
:10121800D9FF24C1DAFF35500F0D010EF326000E59
:10122800F422000EF324E16E020EF420E26EDFCF0A
:10123800E7FF010120EE01F02351D9262451DA22DB
:1012480035500F0D020EF326000EF422000EF32483
:10125800E16E020EF420E26EDFCFE7FF35500F0D8E
:101268000D0EF326000EF422000EF324D96E020EA2
:10127800F420DA6E0201DF8E000E0001D96F000142
:10128800D9510001D8A439D00001D951CBC0B1F04F
:101298000001B26B0001B127000EB223070E000156
:1012A800B127000EB2230001B1512424D96E0001E8
:1012B800B2512520DA6E0001D951010D0E0EF32628
:1012C800000EF422000E0001B36F020E0001B46F8D
:1012D800F3500001B327F4500001B42335500F0D2B
:1012E800F3500001B325E16EF4500001B421E26E21
:1012F800DFCFE7FF0001D92BC2D7352AC6D3000EAE
:101308000001C16F010E376401D0BFD3000E000188
:10131800D96F070E0001D96501D017D00001D95146
:10132800010DF3502224D96EF4502320DA6E000107
:10133800D951010D3A0EF324E16E010EF420E26E4C
:10134800DFCFE7FF0001D92BE4D7C5EC45F000015A
:10135800D56F0001D529D8A41AD03750D8A495D371
:10136800B70E01015C6FFCC0D4F1FDC0D5F13EECB5
:1013780044F00001D56F0001D529D8A42AD0010E68
:101388000001C16FFF0E3E6EFE0E3D6ED4D000010F
:10139800D5510E0D0C0EF326000EF4225A0EF3242E
:1013A800D96E020EF420DA6E0201DFA612D0000117
:1013B800D5510E0D020EF326000EF4225A0EF32418
:1013C800D96E020EF420DA6EDECF3DF0DDCF3EF0AE
:1013D800B2D00001D529D8B4AED00001D5293D6ED0
:1013E800FFC03EF0FCC0D4F1FDC0D5F1020E3B18A1
:1013F800D8A443D020EE01F02450D9262550DA2273
:10140800DFAC3BD03DC0BDF03EC0BEF0000E3D6E2F
:10141800010E0001CE6F070E0001CE6501D024D069
:10142800CEC03EF079EC49F00001C06F0001C02940
:10143800D8A417D0000E3D6ECEC03EF0CEC0B1F09D
:10144800010E0001B26F0001B12B03D00001D8904A
:10145800B2370001B12FFAD70001B25101015A1376
:1014680003D00001CE2BD7D7080E0001CE19D8A47F
:1014780004D0BDC03DF0BEC03EF0BF0E01015C6FA0
:1014880020EE01F02450D9262550DA22DFB003D00F
:1014980001015C913D8E3EEC44F00001D56F0001E6
:1014A800D5510E0D0C0EF326000EF4225A0EF3241D
:1014B800D96E020EF420DA6E0201DF88000E0001F8
:1014C800D96F0001D9510001D8A435D00001D951F4
:1014D8000001B16FB26B020E0001B127000EB223FA
:1014E8000001B1512424D96E0001B2512520DA6ED1
:1014F8000001D951010D0D0EF326000EF4225A0EEB
:101508000001B36F020E0001B46FF3500001B3275E
:10151800F4500001B4230001D5510E0DF350000121
:10152800B325E16EF4500001B421E26EDFCFE7FF8E
:101538000001D92BC6D7020E01015E6F3DC05FF1D5
:101548003EC060F1C1C061F1000E0001D96F000119
:10155800D9510001D8A420D00001D951010D360E6F
:10156800F324D96E000EF420DA6E0001D95100017F
:10157800B16FB26B040E0001B127000EB2235E0EEC
:101588000001B125E16E010E0001B221E26EDFCF4C
:10159800E7FF0001D92BDBD7050E0001FA6FFC0E1F
:1015A80000019D6F000E00019E6F0001D5510E0DC8
:1015B800040EF326000EF4225A0EF32400019F6F46
:1015C800020EF4200001A06F010E0001A16F000EB1
:1015D8000001A26FF7EC47F058D220EE03F0245038
:1015E800D9262550DA22DF50D8A4C9D020EE01F040
:1015F8002450D9262550DA22DF500001FE6F20EE54
:1016080002F02450D9262550DA22DF500001FF6F5E
:101618000001FE51D8A424D0010E3B6E3BC0B1F0AE
:101628000001B147010157510001B119F90BB11976
:101638000101576FFFC0B1F0070E0001B117010E8D
:101648000001B26F0001B12B03D00001D890B2376E
:101658000001B12FFAD70001B22901015A130ED0A7
:10166800000E3B6E3BC0B1F00001B147010157517C
:101678000001B119F90BB1190101576FFE0E0001F4
:10168800656F000E0001666FFC0E0001676F000EAB
:101698000001686FADEC4AF03382BF0E01015C6F48
:1016A800000E0001D96F070E0001D96501D017D0CF
:1016B8000001D951010DF3502224D96EF450232092
:1016C800DA6E0001D951010D3A0EF324E16E010ED4
:1016D800F420E26EDFCFE7FF0001D92BE4D7000149
:1016E800FE51D8A403D0000E3E6E02D0FFC03EF0DB
:1016F800000E3D6EFCC0D4F1FDC0D5F13EEC44F0C7
:101708000001FB6F000E0001D96F0001D9510001E3
:10171800D8A4BBD10001D9510001B16FB26B040E3E
:101728000001B127000EB2230001B1512424D96E63
:101738000001B2512520DA6E0001D951010D0D0EBC
:10174800F326000EF4225A0E0001B36F020E0001B8
:10175800B46FF3500001B327F4500001B423000123
:10176800FB510E0DF3500001B325E16EF45000015A
:10177800B421E26EDFCFE7FF0001D92BC6D7000105
:10178800FB690001FC69FD693D683E683D0E00018A
:10179800656F000E0001666FFC0E0001676F000E9A
:1017A8000001686FADEC4AF070D12950D8B417D059
:1017B80022C0D9FF23C0DAFFDF503D6E20EE01F0D2
:1017C8002250D9262350DA22DF503E6E79EC49F0B8
:1017D8000001C96F0001C929D8B457D122D0000E21
:1017E8000001D96F070E0001D96501D017D000019B
:1017F800D951010DF3502224D96EF4502320DA6E0A
:101808000001D951010D3A0EF324E16E010EF420C6
:10181800E26EDFCFE7FF0001D92BE4D7C5EC45F036
:10182800D7D70001C9510E0D0C0EF326000EF42275
:101838005A0EF324D96E020EF420DA6E0201DFAAE2
:1018480024D10001FB510001C919D8B410D00001FE
:10185800C9510E0D0C0EF326000EF4225A0EF32475
:10186800D96E020EF420DA6E000EDF6E0ED1000E75
:101878000001D96F090E0001D96501D090D000018F
:10188800D9510E0D0C0EF326000EF4225A0EF32435
:10189800D96E020EF420DA6E0201DFAE6ED00001BE
:1018A800D9510E0D0C0EF326000EF4225A0EF32415
:1018B800D96E020EF420DA6E0201DFAA5ED00001B2
:1018C800FB510001D919D8B458D0000E0001FA6FA5
:1018D8000001FA51010D5E0EF324D96E010EF420B9
:1018E800DA6E030EDF6E0001FA2B000E2C6E2C8AC6
:1018F8002C50FC0B01092C6E010E2F6E010E306E60
:101908000001D9510E0D5A0EF324D96E020EF4209F
:10191800DA6EDECF31F0DDCF32F00001D9510E0D95
:10192800020EF326000EF4225A0EF3242D6E020E38
:10193800F4202E6E20EE2CF000EE7EF0060EDBCFAB
:10194800EBFFE806FCE25E0E0001856F010E000168
:10195800866FFAC087F0D8EC2DF0000E0001C46F36
:10196800000EC36F0001C3290F0E0001C459D8B07F
:1019780004D00001C34BC42BF5D70001D9510E0D7B
:101988000C0EF326000EF4225A0EF324D96E020E22
:10199800F420DA6E000EDF6E0001D92B6BD7000140
:1019A800FB690001FE69FF690001FC69FD69FE0E23
:1019B8000001656F000E0001666FFC0E0001676F85
:1019C800000E0001686FADEC4AF033925ED02950EA
:1019D800D8B410D0000E0001A46F000E0001A56F4E
:1019E80022C0A6F023C0A7F0010E0001A86F14ECD6
:1019F8001CF04BD022C0A4F023C0A5F0000E0001BB
:101A0800A66F000E0001A76F000E0001A86F14EC6E
:101A18001CF03BD0020E376401D037D033A235D04A
:101A280020EE01F02450D9262550DA223F50DE1846
:101A3800D8A42BD03B50D8B428D0140EEEEC46F0E6
:101A48009DEC42F022D024C0D9FF25C0DAFFDF5038
:101A5800010AD8B454D4030AD8B4BFD5010AD8B4FB
:101A6800A4D6070AD8B4B3D7030AD8B4D3D70DD0AD
:101A78002150030B000AD8B452EF01F0010AD8B480
:101A8800E2D7020AD8B4D6EF07F033A446EC4EF0FA
:101A980075EC4AF060C0C5F061C0C6F062C0C7F01E
:101AA80063C0C8F0000E0001D96F010E0001D965AE
:101AB80001D062D00001D951430D0E0EF326000E5D
:101AC800F422000EF324D96E040EF420DA6E040119
:101AD800DFA04FD00001D951430D000EF324D96E79
:101AE800040EF420DA6EDECFB1F0DECFB2F0DECF36
:101AF800B3F0DECFB4F00001B11FB21FB31FB41FA3
:101B0800B12B000EB223B323B4230001C551000149
:101B1800B1250001B56F0001C6510001B2210001D5
:101B2800B66F0001C7510001B3210001B76F000172
:101B3800C8510001B4210001B86F0001B8510AE191
:101B48000001B505120E0001B6597A0E0001B75909
:101B5800D8A00FD00001D951430D0E0EF326000E68
:101B6800F422000EF324D96E040EF420DA6E000E6F
:101B7800DF6E0001D92B99D7000E0001D96F030E33
:101B88000001D96501D067D00001D951080D030EB5
:101B9800F326000EF422000EF324D96E010EF42071
:101BA800DA6EDF50D8B454D00001D951080D040EB4
:101BB800F326000EF422000EF324D96E010EF42051
:101BC800DA6EDECFB1F0DECFB2F0DECFB3F0DECF2B
:101BD800B4F00001B11FB21FB31FB41FB12B000E28
:101BE800B223B323B4230001C5510001B12500017C
:101BF800B56F0001C6510001B2210001B66F0001A6
:101C0800C7510001B3210001B76F0001C85100019D
:101C1800B4210001B86F0001B8510BE1210E000199
:101C2800B55DA10E0001B659070E0001B759D8A03D
:101C38000FD00001D951080D030EF326000EF4222F
:101C4800000EF324D96E010EF420DA6E000EDF6E5A
:101C58000001D92B94D70101B2A312000101B2A14E
:101C680084D00B0E0001FA6F0001FA51010D5E0ECF
:101C7800F324D96E010EF420DA6E000EDF6E000137
:101C8800FA2B0001FA51010D5E0EF324D96E010EF4
:101C9800F420DA6E110EDF6E0001FA2B000E00013F
:101CA800CF6F070E0001CF6501D019D00001CF51C9
:101CB800010DB60EF324D96E010EF420DA6E000180
:101CC800FA51010D5E0EF324E16E010EF420E26E6E
:101CD800DFCFE7FF0001FA2B0001CF2BE2D700018D
:101CE800FA51010D5E0EF324D96E010EF420DA6E5E
:101CF800B4C1DFFF0001FA2B0001FA51010D5E0E9D
:101D0800F324D96E010EF420DA6EB5C1DFFF0001AD
:101D1800FA2B000E0001CF6F0001CF510001D8A4AB
:101D280019D00001CF51010DBE0EF324D96E010E5A
:101D3800F420DA6E0001FA51010D5E0EF324E16E13
:101D4800010EF420E26EDFCFE7FF0001FA2B00015D
:101D5800CF2BE2D7BF0E0001AF6F010E0001B06FAD
:101D6800EDEC48F00101B2931200C9C1B1F0CAC14B
:101D7800B2F0CBC1B3F0CCC1B4F00001B11FB21FB7
:101D8800B31FB41FB12B000EB223B323B423000139
:101D9800C5510001B1250001B96F0001C65100010C
:101DA800B2210001BA6F0001C7510001B32100013F
:101DB800BB6F0001C8510001B4210001BC6F0001D4
:101DC800BC510BE1610E0001B95DE30E0001BA5987
:101DD800160E0001BB59D8A012000101B2931200DF
:101DE800010E0301B26F000E0101586F4BEC47F072
:101DF800898E898C8B8431EC43F0010158510101A3
:101E0800D8A47DEF14F0A1EC4EF0C8EC4CF0910E84
:101E180000016C6F010E00016D6F660E00016E6FA0
:101E2800FF0E00016F6FF5EC16F0A10E00016C6F4C
:101E3800010E00016D6FC70E00016E6FFF0E0001ED
:101E48006F6FF5EC16F04CEC48F0000E37EC3FF0F5
:101E580075EC4AF060C0A0F361C0A1F362C0A2F3C0
:101E680063C0A3F375EC4AF060C0A4F361C0A5F3A6
:101E780062C0A6F363C0A7F3A0C3EDF1A1C3EEF15E
:101E8800A2C3EFF1A3C3F0F10101ED1FEE1FEF1F95
:101E9800F01FED2B000EEE23EF23F0230301A451D6
:101EA8000101ED250101F16F0301A5510101EE21A9
:101EB8000101F26F0301A6510101EF210101F36F46
:101EC8000301A7510101F0210101F46F0101F4514F
:101ED80019E1810E0101F15D840E0101F2591E0E16
:101EE8000101F359D8B00ED0A9EC40F00301B66F48
:101EF800020E0301B619D8A4B5D70101FF514EEC63
:101F080034F0B0D7A3EC4EF0C8EC4CF0910E0001C1
:101F18006C6F010E00016D6F0F0E00016E6FFF0EEA
:101F280000016F6FFFC170F00001716BF5EC16F0E6
:101F3800A10E00016C6F010E00016D6FA80E00016B
:101F48006E6FFF0E00016F6FF5EC16F04CEC48F069
:101F5800030E00016D6FE80E6C6FA2EC47F0A9EC60
:101F680040F00301B66F0301B605D8B453D0020E92
:101F78000301B619D8A4F3D7000E0301B16F010EFF
:101F88000301A96F40D0C8EC4CF0910E00016C6FB2
:101F9800010E00016D6F0F0E00016E6FFF0E000144
:101FA8006F6FB1C370F00001716BF5EC16F0A10E04
:101FB80000016C6F010E00016D6FA80E00016E6FBD
:101FC800FF0E00016F6FF5EC16F04CEC48F0A9EC31
:101FD80040F00301B66F0301B605D8A406D0B1C31B
:101FE800FFF1000E0301A96F11D0020E0301B6190B
:101FF800D8A4EDD70301B1290301B16F1B0E03016A
:10200800B119D8A403D00B0E0301B16F0301A905C0
:10201800D8B4B9D70101FF5118EC4EF00009D8A483
:1020280010D0430E00018F6FFE0E0001906F000E5E
:102038000001916F010E0001926F78EC4BF0F9EFFF
:1020480000F0000EAFEC4DF0260E00018F6FFD0E74
:102058000001906F000E0001916F000E0001926F59
:1020680078EC4BF0030E00016D6FE80E6C6FA2EC7C
:1020780047F078EF14F0A9EC40F00301B66F0301C4
:10208800B605D8A46FD0770E00018F6FFF0E000140
:10209800906F000E0001916F010E0001926F78ECB5
:1020A8004BF0000E37EC3FF0000E0001936F000E6E
:1020B8000001946F000E956F000E966F000E976FDB
:1020C800000EC3EC44F07E0E00018F6FFE0E00017F
:1020D800906F000E0001916F010E0001926F78EC75
:1020E8004BF0C8EC4CF0910E00016C6F010E000132
:1020F8006D6FCF0E00016E6FFE0E00016F6FFDC099
:1021080070F00001716BFCC072F00001736BFFC1CD
:1021180074F00001756BF5EC16F0A10E00016C6F00
:10212800010E00016D6F210E00016E6FFF0E0001A0
:102138006F6FFFC070F00001716BFEC072F000019C
:10214800736BF5EC16F04CEC48F006D080EC4EF0D2
:102158000009D8A49DEC4EF0020166AFF7D7000E37
:102168000301B26F020E0301B619D8A4BDD3050E40
:1021780000018F6FFE0E0001906F000E0001916F3D
:10218800010E0001926F78EC4BF0470E00018F6F43
:10219800FD0E0001906F000E0001916F010E00010D
:1021A800926F78EC4BF0000E37EC3FF0080E01010F
:1021B800FF6120D0FFC1EDF1010E0101EE6F000EAD
:1021C8000101EF6F0101ED2B04D0D8900101EE372A
:1021D800EF370101ED2FF9D7EEC1DAF0EFC1DBF0EF
:1021E8000001000EDBBFFF0EDC6FDD6F0A0E0AEC8C
:1021F8003BF076D0100E0101FF6123D0FFC1EDF155
:10220800F80E0101ED27000E0101EE6F010E01012C
:10221800EF6F0101ED2B04D0D8900101EE37EF37B5
:102228000101ED2FF9D7EEC1DAF0EFC1DBF00001C3
:10223800000EDBBFFF0EDC6FDD6F0A0E0AEC3BF011
:102248004FD0180E0101FF6126D0FFC1EDF1F00E4D
:102258000101ED27000E0101EE6F000EEF6F010E78
:10226800F06F000EF16F0101ED2B06D0D89001013F
:10227800EE37EF37F037F1370101ED2FF7D7EEC121
:10228800DAF0EFC1DBF0F0C1DCF0F1C1DDF00A0EED
:102298000AEC3BF025D0FFC1EDF1E80E0101ED2776
:1022A800000E0101EE6F000EEF6F000EF06F010ED1
:1022B800F16F0101ED2B06D0D8900101EE37EF3711
:1022C800F037F1370101ED2FF7D7EEC1DAF0EFC1A2
:1022D800DBF0F0C1DCF0F1C1DDF00A0E0AEC3BF0F6
:1022E8000301BA6F0301BA510301D8B4EFD2000E4B
:1022F8000301B86FE1D2000E0301AC6F0301B851BE
:102308000301D8B479D0000E0301AC6F000E0301AD
:10231800B76F42D00301B7510F0D0A0EF326000E16
:10232800F422000EF324D96E020EF420DA6E0301B3
:10233800B8510F0D0A0EF326000EF422000EF324F6
:10234800E16E020EF420E26EDE50E618D8A422D028
:102358000301B7510F0D090EF326000EF422000EEB
:10236800F324D96E020EF420DA6E0301B8510F0D72
:10237800090EF326000EF422000EF324E16E020E7D
:10238800F420E26EDE50E618D8A404D0010E030152
:10239800AC6F08D00301B72B0301B8510301B75D37
:1023A800D8A0B8D70301AC05D8A426D00301B851EA
:1023B8000101ED6FEE6BFF0E0101EF6FFF0E0101E2
:1023C800F06F0301BA510101F16FF26B0101EF5196
:1023D8000101F1270101F0510101F2230101ED5141
:1023E8000101F11905E10101EE510101F219D8A429
:1023F80061D20301B8695ED2C8EC4CF0910E0001BD
:102408006C6F010E00016D6FE60E00016E6FFE0E1F
:1024180000016F6F0301B8510F0D0A0EF326000E6D
:10242800F422000EF324D96E020EF420DA6EDF5087
:102438000101ED6F0101ED510001706F716B030136
:10244800B8510F0D090EF326000EF422000EF324E6
:10245800D96E020EF420DA6EDF500101EE6F010131
:10246800EE510001726F736BF5EC16F0A10E0001CE
:102478006C6F010E00016D6F980E00016E6FFF0EFC
:1024880000016F6FF5EC16F04CEC48F0A9EC40F049
:102498000301B66F0301B605D8A4D5D1000E030118
:1024A800AF6F0B0E0001FA6F000E0301B76F40D03B
:1024B8000301B7510F0D0A0EF326000EF422000E89
:1024C800F324D96E020EF420DA6E0301B8510F0D11
:1024D8000A0EF326000EF422000EF324E16E020E1B
:1024E800F420E26EDE50E618D8A420D00301B751DC
:1024F8000F0D0A0EF326000EF422000EF324D96EF7
:10250800020EF420DA6E0301B8510F0D0A0EF326FD
:10251800000EF422000EF324E16E020EF420E26EA7
:10252800DE50E618D8A402D00301AF2B0301B72B65
:102538000301BA510301B75DD8A0BAD7010E030150
:10254800AF6525D1000E0301AA6F000E0301AD6F20
:102558000B0E0001FA6F0001FA51010D5E0EF32413
:10256800D96E010EF420DA6E040EDF6E0001FA2B2C
:102578000301B8510F0D0A0EF326000EF422000EC7
:10258800F324D96E020EF420DA6E0001FA51010D1F
:102598005E0EF324E16E010EF420E26EDFCFE7FF5A
:1025A8000001FA2B0301B8510F0D090EF326000E96
:1025B800F422000EF324D96E020EF420DA6E000124
:1025C800FA51010D5E0EF324E16E010EF420E26E65
:1025D800DFCFE7FF0001FA2B000E47EC45F0000EB5
:1025E8000301B76FCED00301B7510F0D0A0EF326C2
:1025F800000EF422000EF324D96E020EF420DA6ED7
:102608000301B8510F0D0A0EF326000EF422000E36
:10261800F324E16E020EF420E26EDE50E618D8A430
:10262800AED00301B7510F0D090EF326000EF422A8
:10263800000EF324D96E020EF420DA6E0301B851AD
:102648000F0D090EF326000EF422000EF324E16E9E
:10265800020EF420E26EDE50E618D8A490D00301F2
:10266800AD2BC8EC4CF0910E00016C6F010E00010F
:102678006D6FFB0E00016E6FFE0E00016F6F0301A0
:10268800B7510F0D020EF326000EF422000EF324AC
:10269800D96E020EF420DA6EDF500101ED6F0101F0
:1026A800ED510001706F716B0301B7510F0D010EF1
:1026B800F326000EF422000EF324D96E020EF42045
:1026C800DA6EDF500101EE6F0101EE510001726F09
:1026D800736BF5EC16F0A10E00016C6F010E000192
:1026E8006D6F980E00016E6FFF0E00016F6FF5ECB5
:1026F80016F04CEC48F0B7C3AAF3A9EC40F003017C
:10270800B66F0301B605D8A407D0AAC3B8F303016E
:10271800BA050301B76F33D0020E0301B619D8A466
:10272800ECD70301B7510101ED6FEE6BFF0E01010C
:10273800EF6FFF0E0101F06F0301BA510101F16F54
:10274800F26B0101EF510101F1270101F051010183
:10275800F2230101ED510101F11906E10101EE51E8
:102768000101F219D8B406D00301AF510301AD1924
:10277800D8A405D00301B769000E0301AD6F0301AA
:10278800B72B0301BA510301B75DD8A02CD7000EAF
:102798000101D96F0301B8516DEC2BF00301A86F4B
:1027A8000301A829D8A410D0B80E00018F6FFF0E1E
:1027B8000001906F000E0001916F010E0001926FF1
:1027C80078EC4BF088EF0FF0240E00018F6FFE0EAF
:1027D8000001906F000E0001916F010E0001926FD1
:1027E80078EC4BF0000E0301B26F0B0E0001FA6F8C
:1027F8000001FA51010D5E0EF324D96E010EF4208A
:10280800DA6E050EDF6E0001FA2B0001FA51010D98
:102818005E0EF324D96E010EF420DA6EFDC0DFFFE0
:102828000001FA2B0001FA51010D5E0EF324D96E56
:10283800010EF420DA6EFCC0DFFF0001FA2B000E57
:1028480047EC45F032D0020E0301B619D8A41ED6C3
:10285800FF0E0101ED6FFF0E0101EE6F0301B8518C
:102868000101EF6FF06B0101EF1FF01FEF4BF02B31
:102878000301BA510101F16FF26B0101EF5101013E
:10288800F1270101F0510101F2230101ED5101018C
:10289800F1270101EE510101F2230101F15101017A
:1028A800F211D8A402D00301B8690301B25103019F
:1028B800D8B408D00301B82B0301BA510301B85D9D
:1028C800D8A019D5000E0301B26F0ED0610E000119
:1028D8008F6FFE0E0001906F000E0001916F000EC9
:1028E8000001926F78EC4BF00301B205D8B43FEFCA
:1028F80010F0000E0301B46F000E0301B56F000E57
:102908000301B26F899E899C8B945F0E00018F6FC3
:10291800FC0E0001906F000E0001916F000E000187
:10292800926F78EC4BF057D2A9EC40F00301B36FEB
:1029380080EC4EF00009D8B479D025C1D9FF26C162
:10294800DAFFDF500301B46F040E0301B419D8A4F1
:102958001BD0010120EE01F02551D9262651DA229B
:102968000001FD51DE18D8A40CD0010120EE02F0C0
:102978002551D9262651DA220001FC51DE18D8B497
:1029880003D0000E0301B46F020E0301B419D8A4DA
:102998004BD0000E0301B96F090E0301B96501D0D0
:1029A80043D00301B9510E0D0C0EF326000EF4228C
:1029B8005A0EF324D96E020EF420DA6E0201DFAE4D
:1029C80030D0010120EE01F02351D9262451DA221A
:1029D8000301B9510E0D030EF326000EF4225A0E10
:1029E800F324E16E020EF420E26EDE50E618D8A45D
:1029F80018D023C1D9FF24C1DAFF0301B9510E0D44
:102A0800020EF326000EF4225A0EF324E16E020E93
:102A1800F420E26EDE50E618D8A403D0B9C353F10F
:102A280003D00301B92BB8D79DEC4EF0020E030179
:102A3800B419D8A41CD00B0E0001FA6F0001FA518A
:102A4800010D5E0EF324D96E010EF420DA6E020E2B
:102A5800DF6E0001FA2B000E0001DA6F01015351FD
:102A680024EC3CF02CEC23F0010E0301B26F0301BF
:102A7800B305D8A4F5D00301B5510301D8A4F0D00B
:102A8800000E0301B06F000E0101536F000E030129
:102A9800B96F090E0301B96501D025D00301B951F9
:102AA8000E0D0C0EF326000EF4225A0EF324D96EE6
:102AB800020EF420DA6E0201DFAE12D00301B95122
:102AC8000E0D0C0EF326000EF4225A0EF324D96EC6
:102AD800020EF420DA6E0201DFAA02D00301B02B45
:102AE8000301B92BD6D7010E0301B0659DD0000EA6
:102AF8000301AB6F000E0301AE6F880E00018F6FEC
:102B0800FD0E0001906F000E0001916F000E000194
:102B1800926F78EC4BF0000E0301B96F090E0301B8
:102B2800B96501D081D00301B9510E0D0C0EF32601
:102B3800000EF4225A0EF324D96E020EF420DA6E37
:102B48000201DFAE6AD0C8EC4CF0910E00016C6F48
:102B5800010E00016D6FFB0E00016E6FFE0E00018D
:102B68006F6F0301B9510E0D030EF326000EF42208
:102B78005A0EF324D96E020EF420DA6EDF500101EA
:102B8800ED6F0101ED510001706F716B0301B951D7
:102B98000E0D020EF326000EF4225A0EF324D96EFF
:102BA800020EF420DA6EDF500101EE6F0101EE51E2
:102BB8000001726F736BF5EC16F0A10E00016C6FDB
:102BC800010E00016D6F980E00016E6FFF0E00017F
:102BD8006F6FF5EC16F04CEC48F00301AE2BA9EC46
:102BE80040F00301B36F0301B305D8A406D0B9C3FD
:102BF80053F1010E0301AB6F10D0020E0301B3199C
:102C0800D8A4EDD70301B0510301AE19D8A405D05B
:102C18000301B969000E0301AE6F0301AB05D8B417
:102C280003D00301B92B7AD70B0E0001FA6F00010C
:102C3800FA51010D5E0EF324D96E010EF420DA6EFE
:102C4800020EDF6E0001FA2B000E0001DA6F01019F
:102C5800535124EC3CF02CEC23F0010E0301B26F2D
:102C6800020E0301B319D8A444D00301B52B030EF7
:102C78000301B519D8A403D0000E0301B56F0301F1
:102C8800B5510301D8A40FD05F0E00018F6FFC0E61
:102C98000001906F000E0001916F000E0001926F0D
:102CA80078EC4BF026D00301B505D8A40FD03D0E23
:102CB80000018F6FFC0E0001906F000E0001916FF4
:102CC800000E0001926F78EC4BF013D0020E030156
:102CD800B519D8A40ED01B0E00018F6FFC0E000191
:102CE800906F000E0001916F000E0001926F78EC5A
:102CF8004BF0030E0301B419D8B408D00301B3058F
:102D0800D8A41CD00301B505D8A418D00B0E000117
:102D1800FA6F0001FA51010D5E0EF324D96E010E0F
:102D2800F420DA6E030EDF6E0001FA2B000E47EC7A
:102D380045F032EC26F0010E0301B26F040E0301D8
:102D4800B419D8B409D00301B305D8A43CD0020EF5
:102D58000301B519D8A437D0C8EC4CF0910E000186
:102D68006C6F010E00016D6FCF0E00016E6FFE0ECD
:102D780000016F6FFDC070F00001716BFCC072F054
:102D88000001736BFFC174F00001756BF5EC16F070
:102D9800A10E00016C6F010E00016D6F210E000184
:102DA8006E6FFF0E00016F6FFFC070F00001716B56
:102DB800FEC072F00001736BF5EC16F04CEC48F0B5
:102DC800000E0301B46F050E0301B419D8A403D093
:102DD800010E0301B26F0301B2510301D8A489D5D2
:102DE800A3D5700E0001856F000E0001866FFEEFFF
:102DF8001BF0250E00018C19D8B40BD06CC0D9FF7C
:102E08006DC0DAFF8CC0DFFF00016C4B6D2BFEEF4D
:102E18001BF0000E00018B6F000E8A6F000E000180
:102E28008E6F000E8D6F0ED000018D8708D00001C7
:102E38008D8105D000018E8702D000018D850001AB
:102E48006E4B6F2B6EC0F6FF6FC0F7FF0800F55092
:102E5800200AD8B4ECD7030AD8B4ECD70E0AD8B4F1
:102E6800E3D71D0AD8B4E9D700018DA702D0000125
:102E78008D956EC0F6FF6FC0F7FF0800F550DAECCD
:102E88004DF0D8A041D0000E00018B6F000E8A6F64
:102E98008AC060F08BC061F0000E0001636F0A0EFB
:102EA800626F01EC4DF060C08AF061C08BF0D00E0B
:102EB8000001766FFF0E0001776F6EC0F6FF6FC0DE
:102EC800F7FF0800F5500001786F796B0001765123
:102ED800000178270001775100017923000178511A
:102EE80000018A270001795100018B2300016E4BF4
:102EF8006F2B6EC0F6FF6FC0F7FF0800F550DAECD5
:102F08004DF0D8A01AD0C4D76EC0F6FF6FC0F7FF37
:102F18000800F5502A0AD8A410D085C0D9FF86C069
:102F2800DAFFDECF8AF0DDCF8BF0020E00018527B5
:102F3800000E862300016E4B6F2B6EC0F6FF6FC02C
:102F4800F7FF0800F5502E0AD8A440D000018E8D56
:102F580000016E4B6F2B6EC0F6FF6FC0F7FF0800C5
:102F6800F5502A0AD8A410D085C0D9FF86C0DAFF48
:102F7800DF500001896F020E00018527000E8623AD
:102F880000016E4B6F2BCBD0000E0001896F13D060
:102F98006EC0F6FF6FC0F7FF0800F5CF76F00001AE
:102FA80089510A0DF35000017625D00F0001896F71
:102FB80000016E4B6F2B6EC0F6FF6FC0F7FF080065
:102FC800F550DAEC4DF0D8A0AAD0E2D7000E0001F7
:102FD800896FA5D000018D8DC7D000018D8B0001B0
:102FE8008D8FC2D0000189510001D8B417D089C093
:102FF80076F00001776B76BF7707000183510001F7
:10300800765D0001845100017759D8B007D00001DE
:1030180089510001836F846B83BF840700018A5143
:103028000001835D00018B5100018459D8B009D09B
:103038000001835100018A5F0001845100018B5B0C
:1030480005D0000E00018B6F000E8A6F00018DA75E
:103058000AD025D06CC0D9FF6DC0DAFF200EDF6E14
:1030680000016C4B6D2B00018A07D8A08B0700016B
:103078008A29F0E100018B29D8B411D0EBD77BC0A5
:10308800D9FF7CC0DAFF6CC0E1FF6DC0E2FFDFCF83
:10309800E7FF00017B4B7C2B00016C4B6D2B000183
:1030A8008307D8A0840700018329E9E10001842966
:1030B800D8A4E5D700018DB70AD09CD36CC0D9FF3E
:1030C8006DC0DAFF200EDF6E00016C4B6D2B000126
:1030D8008A07D8A08B0700018A29F0E100018B2913
:1030E800D8B488D3EBD785C0D9FF86C0DAFFDF50C4
:1030F80000018C6F020E00018527000E86238C0EBE
:1031080000017B6F000E00017C6F000E0001846FD0
:10311800010E836F67D7C00E00018D1325D06EC0D6
:10312800F6FF6FC0F7FF00016E4B6F2B0800F5CF5D
:103138008CF000018C51000AD8B46BD3580AD8B46B
:103148004CD73B0AD8B4CFD7070AD8B40DD00D0A4C
:10315800D8B40AD0060AD8B43DD71A0AD8B4DBD7EF
:103168000D0AD8B43CD7CBD7C00E00018D1500018D
:10317800766F000E00018E150001776F0001765101
:1031880000017711D8A419D085C0D9FF86C0DAFF0D
:10319800DECF87F0DDCF88F0020E00018527000E14
:1031A8008623000188AF16D0030E00018D1300019D
:1031B800876D881FD8B0882B0DD085C0D9FF86C0F1
:1031C800DAFFDECF87F0DDCF88F0020E0001852719
:1031D800000E8623000189510001D8A463D00001A4
:1031E800875100018811D8A45DD00001892B5AD0DD
:1031F800010E00018C6F050E00018C19D8B461D046
:1032080000018C51020D090EF324F66EFC0EF42019
:10321800F76E0900F5500001875D0900F5500001BF
:103228008859D8A04ED000018C2BE5D7010E00019B
:103238008C6F040E00018C19D8B443D000018C5156
:10324800020D130EF324F66EFC0EF420F76E09003F
:10325800F5500001875D0900F55000018859D8A094
:1032680030D000018C2BE5D7010E00018C6F060EC3
:1032780000018C19D8B425D000018C51020DFD0E27
:10328800F324F66EFB0EF420F76E0900F5500001EA
:10329800875D0900F55000018859D8A012D00001B7
:1032A8008C2BE5D700018D51C00B000AD8B4A0D7EC
:1032B800400AD8B4D9D7C00AD8B4B8D7400AD8B4C5
:1032C80097D700018C51800A0001766F000189515F
:1032D800800A0001765DD8B003D089C08CF00DD08B
:1032E80000018951800A0001766F00018C51800A23
:1032F8000001765DD8A08CC089F000018A510001D8
:103308008B11D8B414D0030E00018D150001766F0F
:10331800000E00018E150001776F00017651000143
:103328007711D8B404D000018A07D8A08B07000110
:103338008EAD21D0800E000189BF7F0E0001766F0F
:1033480000018A510001895D00018B51800A00014A
:103358007659D8B00BD00001895100018A5F000E60
:10336800000189BFFF0E00018B5B05D0000E000134
:103378008B6F000E8A6FC40E0001766F080E000175
:10338800776F8DC078F08EC079F00001765100011A
:1033980078170001775100017917400E000178195C
:1033A80010E1080E00017919D8A40BD000018A5148
:1033B80000018B11D8B436D000018A07D8A08B073A
:1033C80031D0C00E0001766F080E0001776F8DC0F6
:1033D80078F08EC079F0000176510001781700016D
:1033E800775100017917800E000178191BE1080E4A
:1033F80000017919D8A416D000018BBF0ED00001A6
:103408008B5105E1030E00018A5DD8A006D00001AA
:10341800FE0E8A27FF0E8B2305D0000E00018B6F4E
:10342800000E8A6F800E00018CBF7F0E0001766F40
:1034380000018A5100018C5D00018B51800A000156
:103448007659D8B00BD000018C5100018A5F000E6C
:1034580000018CBFFF0E00018B5B05D0000E000140
:103468008B6F000E8A6F00018DA570D0030E0001CE
:103478008D150001766F000E00018E150001776F23
:103488000001765100017711D8B40AD06CC0D9FF79
:103498006DC0DAFF2D0E0CD000016C4B6D2B42D0A5
:1034A80000018DA107D06CC0D9FF6DC0DAFF200ED6
:1034B800DF6EF2D7C00E0001766F080E0001776F3D
:1034C8008DC078F08EC079F0000176510001781730
:1034D8000001775100017917800E0001781922E167
:1034E800080E00017919D8A41DD06CC0D9FF6DC091
:1034F800DAFF300EDF6E00016C4B6D2B00018DBBC7
:1035080005D0000E00017E6F780E04D0000E000179
:103518007E6F580E7D6F6CC0D9FF6DC0DAFF7DC01D
:10352800DFFFBAD700018A5100018B11D8B43CD112
:103538006CC0D9FF6DC0DAFF300EDF6E00016C4B36
:103548006D2B00018A07D8A08B07ECD700018A51A0
:1035580000018B11D8B416D000018DB713D06CC000
:10356800D9FF6DC0DAFF200EDF6E00016C4B6D2BAA
:1035780000018A07D8A08B0700018A5100018B112E
:10358800D8A4EDD7030E00018D150001766F000E4B
:1035980000018E150001776F000176510001771147
:1035A800D8B40AD06CC0D9FF6DC0DAFF2D0E0CD08C
:1035B80000016C4B6D2B0AD000018DA107D06CC0A7
:1035C800D9FF6DC0DAFF200EDF6EF2D7C00E000102
:1035D800766F080E0001776F8DC078F08EC079F095
:1035E8000001765100017817000177510001791721
:1035F800400E000178190CE1080E00017919D8A4D1
:1036080007D06CC0D9FF6DC0DAFF300EDF6EC9D0AD
:10361800C00E0001766F080E0001776F8DC078F03C
:103628008EC079F0000176510001781700017751BA
:1036380000017917800E0001781904E1080E0001D5
:103648007919D8A4B1D06CC0D9FF6DC0DAFF300E9B
:10365800DF6E00016C4B6D2B00018DBB05D0000E99
:103668000001806F780E04D0000E0001806F580EA4
:103678007F6F6CC0D9FF6DC0DAFF7FC0DFFF91D0CC
:1036880000018951020D090EF324F66EFC0EF42098
:10369800F76E0900F5CF62F00A00F5CF63F087C036
:1036A80060F088C061F0FEEC49F060C067F061C06E
:1036B80068F0000E00016A6F0A0E696F16EC4BF095
:1036C8000001675155D087C060F088C061F00001E3
:1036D8008951020D130EF324F66EFC0EF420F76EDA
:1036E8000900F5CF62F00A00F5CF63F0FEEC49F06F
:1036F800000160510F0B00017A6F00018DBB05D0EE
:10370800440E0001816FFF0E04D0330E0001816F5B
:10371800FF0E0001826F00017A51010D81C076F021
:1037280082C077F0F35000017627F4500001772328
:1037380076C0F6FF77C0F7FF0800F5CF8CF02BD0E6
:1037480087C060F088C061F000018951020DFD0E4C
:10375800F324F66EFB0EF420F76E0900F5CF62F045
:103768000A00F5CF63F0FEEC49F000016051070B49
:10377800300F00018C6F0FD000018D51C00B000A73
:10378800D8B47ED7400AD8B4DBD7C00AD8B49BD700
:10379800400AD8B475D76CC0D9FF6DC0DAFF8CC0A9
:1037A800DFFF00016C4B6D2B00018907000189299F
:1037B800D8A4E2D700018DA71DD000018BBF1AD075
:1037C80000018B5104E100018A05D8A013D06CC018
:1037D800D9FF6DC0DAFF200EDF6E00016C4B6D2B38
:1037E80000018A07D8A08B0700018A5100018B11BC
:1037F800D8A4EDD76EC0F6FF6FC0F7FF00016E4B7F
:103808006F2B0800F5CF8CF000018C51D8A4FDEF88
:1038180016F06CC0D9FF6DC0DAFF000EDF6E120023
:10382800000E0001AB6F000E0001FA6F0001A851F5
:103838000001D8B418D0A6C0D9FFA7C0DAFFDF505E
:103848003D6E000120EE01F0A651D926A751DA22DB
:10385800DF503E6E79EC49F00001AD6F0001AD29F3
:10386800D8B464D324D0000E0001AE6F070E000157
:10387800AE6501D019D00001AE51010DF350000121
:10388800A425D96EF4500001A521DA6E0001AE51CD
:10389800010D3A0EF324E16E010EF420E26EDFCF43
:1038A800E7FF0001AE2BE2D7C5EC45F0D5D7000EF7
:1038B8000001AE6F010E0001AE6501D056D20001C5
:1038C800AE51430D0E0EF326000EF422000EF32423
:1038D800D96E040EF420DA6E0401DFA043D2000191
:1038E800AE51430D0E0EF326000EF422000EF32403
:1038F800D96E040EF420DA6E0401DFB21ED1000185
:10390800AE51430D0E0EF326000EF422000EF324E2
:10391800D96E040EF420DA6E0401DFA80ED100017E
:10392800AE51430D060EF326000EF422000EF324CA
:10393800D96E040EF420DA6E0001AD510E0D020EA0
:10394800F326000EF4225A0EF324E16E020EF42040
:10395800E26EDE50E618D8A4F0D00001AE51430D57
:10396800070EF326000EF422000EF324D96E040E7F
:10397800F420DA6E0001AD510E0D030EF326000E91
:10398800F4225A0EF324E16E020EF420E26EDE50A9
:10399800E618D8A4D2D0000E0001AC6F2DD00001DB
:1039A800AC51010D100EF326000EF422000E00019A
:1039B800A96F040E0001AA6FF3500001A927F45063
:1039C8000001AA230001AE51430DF3500001A925BF
:1039D800D96EF4500001AA21DA6E0001FA51010DE6
:1039E8005E0EF324E16E010EF420E26EDFCFE7FFF6
:1039F8000001FA2B0001AC2B0001AE51430D0F0E54
:103A0800F326000EF422000EF324D96E040EF420DF
:103A1800DA6EDE500001AC5DD8A0C1D70001AE510E
:103A2800430D0E0EF326000EF422000EF324D96E79
:103A3800040EF420DA6E0401DFA41ED0FC0E00018F
:103A48009D6F000E00019E6F0001AD510E0D020E1C
:103A5800F326000EF4225A0EF32400019F6F020E83
:103A6800F4200001A06F010E0001A16F0C0E0001EF
:103A7800A26FF7EC47F051D0000E2C6E2C500001CD
:103A8800AB19FC0BAB192C6E2C8A0001AE51430DFF
:103A98000E0EF326000EF422000EF324D96E040E47
:103AA800F420DA6E0401DFA602D02C8601D02C9611
:103AB8000001AD510E0D020EF326000EF4225A0E2F
:103AC800F3242D6E020EF4202E6E010E2F6E010EC1
:103AD800306E0001AE51430D040EF326000EF422A1
:103AE800000EF324D96E040EF420DA6EDECF31F026
:103AF800DDCF32F020EE2CF000EE7EF0060EDBCFAC
:103B0800EBFFE806FCE25E0E0001856F010E000186
:103B1800866FFAC087F0D8EC2DF00001AE51430D46
:103B28000E0EF326000EF422000EF324D96E040EB6
:103B3800F420DA6E0401DF9012000001AE51430D4B
:103B48000E0EF326000EF422000EF324D96E040E96
:103B5800F420DA6E0401DFB205D10001AE51430D45
:103B68000E0EF326000EF422000EF324D96E040E76
:103B7800F420DA6E0401DFB8F5D00001AD510E0D66
:103B8800040EF326000EF4225A0EF3240001606F8F
:103B9800020EF4200001616F0001AE51430D060EC4
:103BA800F326000EF422000EF3240001626F040EC7
:103BB800F4200001636FCDEC4BF00009D8B4D2D0EB
:103BC800000E0001AC6F2DD00001AC51010D100E9C
:103BD800F326000EF422000E0001A96F040E000166
:103BE800AA6FF3500001A927F4500001AA2300018D
:103BF800AE51430DF3500001A925D96EF4500001D0
:103C0800AA21DA6E0001FA51010D5E0EF324E16E6D
:103C1800010EF420E26EDFCFE7FF0001FA2B00016E
:103C2800AC2B0001AE51430D0F0EF326000EF4220B
:103C3800000EF324D96E040EF420DA6EDE50000173
:103C4800AC5DD8A0C1D70001AE51430D0E0EF326CE
:103C5800000EF422000EF324D96E040EF420DA6E5E
:103C68000401DFA41ED0FC0E00019D6F000E0001B0
:103C78009E6F0001AD510E0D040EF326000EF422C6
:103C88005A0EF32400019F6F020EF4200001A06F6A
:103C9800010E0001A16F000E0001A26FF7EC47F0C2
:103CA80051D0000E2C6E2C500001AB19FC0BAB1937
:103CB8002C6E2C8A0001AE51430D0E0EF326000E19
:103CC800F422000EF324D96E040EF420DA6E0401F7
:103CD800DFA602D02C8601D02C960001AD510E0D26
:103CE800040EF326000EF4225A0EF3242D6E020E53
:103CF800F4202E6E000E2F6E010E306E0001AE51B4
:103D0800430D040EF326000EF422000EF324D96EA0
:103D1800040EF420DA6EDECF31F0DDCF32F020EE83
:103D28002CF000EE7EF0060EDBCFEBFFE806FCE29F
:103D38005E0E0001856F010E0001866FFAC087F0E4
:103D4800D8EC2DF00001AE51430D0E0EF326000EF7
:103D5800F422000EF324D96E040EF420DA6E040166
:103D6800DF9012000001AE2BA5D5000E0001AE6F4A
:103D7800010E0001AE6501D0D9D00001AE51430D4E
:103D88000E0EF326000EF422000EF324D96E040E54
:103D9800F420DA6E0401DFA0C6D00001AE51430D55
:103DA8000E0EF326000EF422000EF324D96E040E34
:103DB800F420DA6E0401DFA2B6D0000E0001AC6F69
:103DC8002DD00001AC51010D100EF326000EF42287
:103DD800000E0001A96F040E0001AA6FF350000144
:103DE800A927F4500001AA230001AE51430DF35056
:103DF8000001A925D96EF4500001AA21DA6E00014C
:103E0800FA51010D5E0EF324E16E010EF420E26E0C
:103E1800DFCFE7FF0001FA2B0001AC2B0001AE5108
:103E2800430D0F0EF326000EF422000EF324D96E74
:103E3800040EF420DA6EDE500001AC5DD8A0C1D7C4
:103E4800000E2C6E2C500001AB19FC0BAB192C6E1C
:103E58000001AE51430D0E0EF326000EF422000EA3
:103E6800F324D96E040EF420DA6E0401DFA404D022
:103E78002C50FC0B01092C6E2C8A2C8E0001AE51A3
:103E8800430D0E0EF326000EF422000EF324D96E15
:103E9800040EF420DA6E0401DFA602D02C8601D0CD
:103EA8002C96010E306E0001A8510001D8B407D03D
:103EB800010E2F6E0001AD510E0D020E06D0000E40
:103EC8002F6E0001AD510E0D040EF326000EF422E4
:103ED8005A0EF3242D6E020EF4202E6E0001AE5100
:103EE800430D040EF326000EF422000EF324D96EBF
:103EF800040EF420DA6EDECF31F0DDCF32F020EEA2
:103F08002CF000EE7EF0060EDBCFEBFFE806FCE2BD
:103F18005E0E0001856F010E0001866FFAC087F002
:103F2800D8EC2DF012000001AE2B22D70001A851C9
:103F38000001D8B412D0FC0E00019D6F000E0001E4
:103F48009E6FA6C09FF0A7C0A0F0ABC0A1F00C0E5A
:103F58000001A26FF7EC47F01200FC0E00019D6F04
:103F6800000E00019E6FA4C09FF0A5C0A0F0ABC0DA
:103F7800A1F0040E0001A26FF7EC47F0120081A037
:103F8800F28239A012D00101505105E1800E0101E1
:103F98004F5DD8A007D0000E0101506F000E4F6F83
:103FA800399003D001014F4B502B4068000E00019F
:103FB800676F010E0001676501D012D000016751DB
:103FC800500D000EF324D96E030EF420DA6EDF5084
:103FD800D8B403D067C040F003D00001672BE9D7FD
:103FE800020E406033D3010E0001686F4050500D3F
:103FF800010EF326000EF422000EF324D96E030EF0
:10400800F420DA6E0301DFBC03D0000E0001686FF4
:10401800000E216E000E296E4050500D020EF32640
:10402800000EF422000EF324D96E030EF420DA6E8B
:10403800DF50CC0B0001666F55D24050500D060E74
:10404800F326000EF422000EF324D96E030EF4209A
:10405800DA6EDE28D8A40FD04050500D070EF32694
:10406800000EF422000EF324D96E030EF420DA6E4B
:10407800DE28D8B42184218E000168510001D8B40B
:1040880029D04050500D040EF326000EF422000EE5
:10409800F324D96E030EF420DA6EDF502A6E4050F6
:1040A800500D050EF326000EF422000EF324D96EEF
:1040B800030EF420DA6EDF502B6E4050500D080EC0
:1040C800F326000EF422000EF324226E030EF420D1
:1040D800236E96D14050500D080EF326000EF422A0
:1040E800000EF324D96E030EF420DA6EDF502A6E28
:1040F8004050500D090EF326000EF422000EF32452
:10410800D96E030EF420DA6EDF502B6E4050500D3E
:104118000A0EA4D14050500D000EF324D96E030EA0
:10412800F420DA6EDF50EB0F266E4050500D120E61
:10413800CBD1218E000168510001D8B437D040504E
:10414800500D040EF326000EF422000EF324D96E4F
:10415800030EF420DA6EDF502A6E4050500D050E23
:10416800F326000EF422000EF324D96E030EF42079
:10417800DA6EDF502B6E4050500D0E0EF326000EF7
:10418800F422000EF324226E030EF420236E405016
:10419800500D000EF324D96E030EF420DA6EDF50B2
:1041A800E70F266E4050500D160E8ED14050500D20
:1041B8000E0EF326000EF422000EF324D96E030E21
:1041C800F420DA6EDF502A6E4050500D0F0EF326A1
:1041D800000EF422000EF324D96E030EF420DA6EDA
:1041E800DF502B6E4050500D100EF326000EF422B7
:1041F800000EF324226E030EF420236E4050500D5F
:10420800000EF324D96E030EF420DA6EDF50E50FAA
:10421800266E4050500D180E57D12184218E010E64
:10422800296E4050500D040EF326000EF422000EA5
:10423800F324D96E030EF420DA6EDF502A6E405054
:10424800500D050EF326000EF422000EF324D96E4D
:10425800030EF420DA6EDF502B6E4050500D060E20
:10426800F326000EF422000EF324226E030EF4202F
:10427800236E4050500D000EF324D96E030EF42027
:10428800DA6EDF50F50F1CD14050500D060EF326A4
:10429800000EF422000EF324D96E030EF420DA6E19
:1042A800DE28D8A40FD04050500D070EF326000E7C
:1042B800F422000EF324D96E030EF420DA6EDE2801
:1042C800D8B42184218E010E296E000168510001A5
:1042D800D8A437D04050500D080EF326000EF42213
:1042E800000EF324D96E030EF420DA6EDF502A6E26
:1042F8004050500D090EF326000EF422000EF32450
:10430800D96E030EF420DA6EDF502B6E4050500D3C
:104318000A0EF326000EF422000EF324226E030E7A
:10432800F420236E4050500D000EF324D96E030E76
:10433800F420DA6EDF50F10F266E4050500D0C0E4F
:10434800C3D04050500D040EF326000EF422000E88
:10435800F324D96E030EF420DA6EDF502A6E405033
:10436800500D050EF326000EF422000EF324D96E2C
:10437800030EF420DA6EDF502B6E4050500D080EFD
:10438800F326000EF422000EF324226E030EF4200E
:10439800236E4050500D000EF324D96E030EF42006
:1043A800DA6EDF50F30F266E4050500D0A0E8CD097
:1043B800218E010E296E000168510001D8B42FD05A
:1043C8004050500D040EF326000EF422000EF32484
:1043D800D96E030EF420DA6EDF502A6E4050500D6D
:1043E800050EF326000EF422000EF324D96E030EF8
:1043F800F420DA6EDF502B6E4050500D0D0E60D653
:104408004050500D000EF324D96E030EF420DA6EDE
:10441800DF50ED0F266E4050500D100E55D0405015
:10442800500D0D0EF326000EF422000EF324D96E63
:10443800030EF420DA6EDF502A6E4050500D0E0E37
:10444800F326000EF422000EF324D96E030EF42096
:10445800DA6EDF502B6E4050500D0F0EF326000E13
:10446800F422000EF324226E030EF420236E52D69B
:104478004050500D060EF326000EF422000EF324D1
:10448800D96E030EF420DA6EDE28D8A40FD040507F
:10449800500D070EF326000EF422000EF324D96EF9
:1044A800030EF420DA6EDE28D8B421844050500D73
:1044B800000EF324D96E030EF420DA6EDF50F60FE7
:1044C800266E4050500D080EF326000EF422000E02
:1044D800F324246E030EF420256E19D046EC4EF01A
:1044E800000E120000016651080AD8B4C1D7880A24
:1044F800D8B493D6080AD8B4C7D6040AD8B458D7BB
:10450800440AD8B49AD5040AD8B413D6E7D7405089
:10451800500D010EF326000EF422000EF324D96E7E
:10452800030EF420DA6E0301DFA613D046EC4EF03A
:10453800000E1200FC0E21162ED02150FC0B010992
:10454800216E29D0030E211226D046EC4EF0000E23
:1045580012004050500D010EF326000EF422000EFA
:10456800F324D96E030EF420DA6EDF50070B000136
:10457800606F616B00016151000AD8A4E6D70001A1
:104588006051000AD8B4DED7010AD8B4D3D7020ADA
:10459800D8B4D3D7DAD7FF0E0001606FFF0E000141
:1045A800616F4050500D000EF324D96E030EF420B5
:1045B800DA6EDF500001626F636B00016051000129
:1045C80062270001615100016323000E0001646F3E
:1045D800030E0001656F00016251000164270001AC
:1045E8006351000165234050500DF35000016425CC
:1045F800D96EF45000016521DA6EDF50286E405004
:10460800500D000EF324D96E030EF420DA6EDF503D
:104618000001606F4050500D000E0001616F030EE5
:104628000001626FF35000016127F450000162231A
:104638000001605100016125D96E0001000E0001E2
:104648006221DA6EDF50276E010E1200000E120092
:10465800010E0101E46F010E0101D86F000E010186
:10466800DA6F000E0101D96F000E0101D76FA1ECBE
:104678004EF0C30E00018F6FFC0E0001906F000E0C
:104688000001916F010E0001926F78EC4BF0A3ECE2
:104698004EF075EC4AF060C0DFF161C0E0F162C035
:1046A800E1F163C0E2F1D4D275EC4AF060C0DBF10D
:1046B80061C0DCF162C0DDF163C0DEF1DFC1EDF0A5
:1046C800E0C1EEF0E1C1EFF0E2C1F0F00001ED1F52
:1046D800EE1FEF1FF01FED2B000EEE23EF23F0234C
:1046E8000101DB510001ED250001F16F0101DC51F1
:1046F8000001EE210001F26F0101DD510001EF21FF
:104708000001F36F0101DE510001F0210001F46F97
:104718000001F4510BE1210E0001F15DA10E000131
:10472800F259070E0001F359D8A044D20101D8511B
:104738000101D8B4B1D00B0E0001FA6F0001FA5193
:10474800010D5E0EF324D96E010EF420DA6E020E0E
:10475800DF6E0001FA2B0001FA51010D5E0EF32401
:10476800D96E010EF420DA6E4D0EDF6E0001FA2BC1
:104778000001FA51010D5E0EF324D96E010EF420EA
:10478800DA6E690EDF6E0001FA2B0001FA51010D95
:104798005E0EF324D96E010EF420DA6E570EDF6E2A
:1047A8000001FA2B0001FA51010D5E0EF324D96EB7
:1047B800010EF420DA6E690EDF6E0001FA2B00019B
:1047C800FA51010D5E0EF324D96E010EF420DA6E53
:1047D800200EDF6E0001FA2B0001FA51010D5E0E6A
:1047E800F324D96E010EF420DA6E520EDF6E00014A
:1047F800FA2B0001FA51010D5E0EF324D96E010E59
:10480800F420DA6E6F0EDF6E0001FA2B0001FA5108
:10481800010D5E0EF324D96E010EF420DA6E630EDC
:10482800DF6E0001FA2B0001FA51010D5E0EF32430
:10483800D96E010EF420DA6E6B0EDF6E0001FA2BD2
:104848000001FA51010D5E0EF324D96E010EF42019
:10485800DA6E730EDF6E0001FA2B0001FA51010DBA
:104868005E0EF324D96E010EF420DA6E210EDF6E8F
:104878000001FA2B000E0001DA6F0101535124ECFC
:104888003CF00009D8A403D00101D92B03D0000EB5
:104898000101D96F000E82D10101D9510101D8A4BB
:1048A80069D1C80E0101DA65B2D0910E00016C6FB2
:1048B800010E00016D6F050E00016E6FFD0E000107
:1048C8006F6FF5EC16F08B84899C899EA9EC40F0FB
:1048D8000101E36F0101E305D8A403D08B84898C1F
:1048E80059D1020E0101E319D8A455D10B0E0001CC
:1048F800FA6F0001FA51010D5E0EF324D96E010E14
:10490800F420DA6E010EDF6E0001FA2B000E0001B2
:10491800DA6F0101535124EC3CF0A1EC4EF0680E23
:1049280000018F6FFD0E0001906F000E0001916F66
:10493800010E0001926F78EC4BF0A3EC4EF075EC91
:104948004AF060C0DFF161C0E0F162C0E1F163C02C
:10495800E2F157D080EC4EF00009D8B40DD025C153
:10496800D9FF26C1DAFF040EDE18D8A403D0000E42
:104978000101E46F9DEC4EF0DFC1EDF0E0C1EEF017
:10498800E1C1EFF0E2C1F0F00001ED1FEE1FEF1FF3
:10499800F01FED2B000EEE23EF23F0230101DB5176
:1049A8000001ED250001F16F0101DC510001EE214C
:1049B8000001F26F0101DD510001EF210001F36FE9
:1049C8000101DE510001F0210001F46F0001F451F2
:1049D8000BE1C10E0001F15DC60E0001F2592D0E6A
:1049E8000001F359D8A003D0000E0101E46F75EC63
:1049F8004AF060C0DBF161C0DCF162C0DDF163C088
:104A0800DEF10101E4510101D8B4C5D0A3D7C90E24
:104A18000101DA61C0D0910E00016C6F010E000136
:104A28006D6FA20E00016E6FFC0E00016F6FF5EC4A
:104A380016F08B94898C899EA9EC40F00101E36FF4
:104A48000101E305D8B405D0020E0101E319D8A489
:104A5800A2D00B0E0001FA6F0001FA51010D5E0E93
:104A6800F324D96E010EF420DA6E010EDF6E000118
:104A7800FA2B000E0001DA6F0101535124EC3CF0CF
:104A8800A1EC4EF0680E00018F6FFD0E0001906FD3
:104A9800000E0001916F010E0001926F78EC4BF04F
:104AA800A3EC4EF075EC4AF060C0DFF161C0E0F1B4
:104AB80062C0E1F163C0E2F157D080EC4EF000092A
:104AC800D8B40DD025C1D9FF26C1DAFF040EDE18EF
:104AD800D8A403D0000E0101E46F9DEC4EF0DFC1B5
:104AE800EDF0E0C1EEF0E1C1EFF0E2C1F0F000015D
:104AF800ED1FEE1FEF1FF01FED2B000EEE23EF232F
:104B0800F0230101DB510001ED250001F16F0101E6
:104B1800DC510001EE210001F26F0101DD510001BD
:104B2800EF210001F36F0101DE510001F0210001C6
:104B3800F46F0001F4510BE1C10E0001F15DC60EE6
:104B48000001F2592D0E0001F359D8A003D0000E30
:104B58000101E46F75EC4AF060C0DBF161C0DCF183
:104B680062C0DDF163C0DEF10101E4510101D8B496
:104B780012D0A3D7E40E00018F6FFC0E0001906FD6
:104B8800000E0001916F010E0001926F78EC4BF05E
:104B98008B94899C898E4CEC48F0010E0101D86FEA
:104BA80075EC4AF060C0DFF161C0E0F162C0E1F18C
:104BB80063C0E2F180EC4EF00009D8B449D025C1B9
:104BC800D9FF26C1DAFFDF500101D76F0101D705F0
:104BD800D8A42FD09DEC4EF00B0E0001FA6F000107
:104BE800FA51010D5E0EF324D96E010EF420DA6E2F
:104BF800040EDF6E0001FA2B000E0001DA6F0101CE
:104C0800535124EC3CF0000E0101E46FA1EC4EF08E
:104C1800680E00018F6FFD0E0001906F000E0001FD
:104C2800916F010E0001926F78EC4BF0A3EC4EF0FF
:104C38000FD025C1D9FF26C1DAFF020EDE18D8A48D
:104C480005D028C1DAF19DEC4EF002D09DEC4EF073
:104C58000101E4510101D8B4120026D5010E010169
:104C6800E16FA1EC4EF0A80E00018F6FFD0E000160
:104C7800906F000E0001916F010E0001926F78ECA9
:104C88004BF0A3EC4EF0AAEC4CF074C0DAF175C00E
:104C9800DBF1FEC03CF2FFC03DF275EC4AF060C0AB
:104CA800E6F161C0E7F162C0E8F163C0E9F1E6C18D
:104CB800DCF1E7C1DDF1E8C1DEF1E9C1DFF195D250
:104CC80075EC4AF060C0E2F161C0E3F162C0E4F162
:104CD80063C0E5F1A9EC40F00101E06F0101E005D6
:104CE800D8B405D0020E0101E019D8A48CD00B0E5F
:104CF8000001FA6F0001FA51010D5E0EF324D96E1E
:104D0800010EF420DA6E010EDF6E0001FA2B000EA0
:104D180047EC45F0A1EC4EF0C70E00018F6FFD0E79
:104D28000001906F000E0001916F010E0001926F5B
:104D380078EC4BF0A3EC4EF075EC4AF060C0E6F16D
:104D480061C0E7F162C0E8F163C0E9F157D080ECD7
:104D58004EF00009D8B40DD025C1D9FF26C1DAFF1D
:104D6800040EDE18D8A403D0000E0101E16F9DECFB
:104D78004EF0E6C1EDF0E7C1EEF0E8C1EFF0E9C1B1
:104D8800F0F00001ED1FEE1FEF1FF01FED2B000EDE
:104D9800EE23EF23F0230101E2510001ED2500018C
:104DA800F16F0101E3510001EE210001F26F0101F1
:104DB800E4510001EF210001F36F0101E551000109
:104DC800F0210001F46F0001F4510BE1C10E000164
:104DD800F15DC60E0001F2592D0E0001F359D8A05D
:104DE80003D0000E0101E16F75EC4AF060C0E2F1FA
:104DF80061C0E3F162C0E4F163C0E5F10101E15192
:104E08000101D8A4A4D7DCC1EDF0DDC1EEF0DEC10C
:104E1800EFF0DFC1F0F00001ED1FEE1FEF1FF01FF4
:104E2800ED2B000EEE23EF23F0230101E2510001E8
:104E3800ED250001F16F0101E3510001EE210001B0
:104E4800F26F0101E4510001EF210001F36F01014C
:104E5800E5510001F0210001F46F0001F4510BE16C
:104E6800810E0001F15D840E0001F2591E0E000151
:104E7800F359D8A01FD038500E0D0C0EF326000E93
:104E8800F4225A0EF324D96E020EF420DA6E0201CF
:104E9800DFAE02D0382A02D0000E386E34EC3EF075
:104EA80075EC4AF060C0DCF161C0DDF162C0DEF192
:104EB80063C0DFF1E6C1EDF0E7C1EEF0E8C1EFF065
:104EC800E9C1F0F00001ED1FEE1FEF1FF01FED2B01
:104ED800000EEE23EF23F0230101E2510001ED253E
:104EE8000001F16F0101E3510001EE210001F26FB1
:104EF8000101E4510001EF210001F36F0101E551C7
:104F08000001F0210001F46F0001F4510BE1A10E42
:104F18000001F15D250E0001F259260E0001F3593A
:104F2800D8A066D0DAC18AF0DBC18BF092EC38F0F9
:104F380082EC4DF068C0D7F169C0D8F16AC0D9F1E8
:104F4800000E0101526F000E516FD7C160F0D8C139
:104F580061F0D9C162F0FBEC41F000016051010140
:104F6800516F526B0B0E0001FA6F0001FA51010DDF
:104F78005E0EF324D96E010EF420DA6E030EDF6E96
:104F88000001FA2B0001FA51010D5E0EF324D96ECF
:104F9800010EF420DA6E51C1DFFF0001FA2B000187
:104FA800FA51010D5E0EF324D96E010EF420DA6E6B
:104FB800FEC0DFFF0001FA2B0001FA51010D5E0E61
:104FC800F324D96E010EF420DA6EFFC0DFFF000172
:104FD800FA2B51C13EF2000E47EC45F075EC4AF051
:104FE80060C0E6F161C0E7F162C0E8F163C0E9F1D1
:104FF80080EC4EF00009D8B4F8D025C1D9FF26C1FD
:10500800DAFFDE04D8A42DD09DEC4EF00B0E000183
:10501800FA6F0001FA51010D5E0EF324D96E010EEC
:10502800F420DA6E040EDF6E0001FA2B000E000188
:10503800DA6F000E24EC3CF0000E0101E16FA1ECE8
:105048004EF0C70E00018F6FFD0E0001906F000E2D
:105058000001916F010E0001926F78EC4BF0A3EC08
:105068004EF0000E0101EA6F090E0101EA6501D058
:10507800BAD00101EA510E0D0C0EF326000EF422EF
:105088005A0EF324D96E020EF420DA6E0201DFAE56
:10509800A7D0010120EE02F02551D9262651DA22A7
:1050A8000101EA510E0D020EF326000EF4225A0EEB
:1050B800F324E16E020EF420E26EDE50E618D8A466
:1050C8008FD0010120EE03F02551D9262651DA228E
:1050D8000101EA510E0D030EF326000EF4225A0EBA
:1050E800F324E16E020EF420E26EDE50E618D8A436
:1050F80077D025C1D9FF26C1DAFF030EDE18D8A460
:105108006FD0010120EE01F02551D9262651DA226F
:10511800010E0101EA250001606F0001616B000EBC
:105128006123000E0001636F030E626F01EC4DF006
:10513800020E00016027000E000161233C0E0001F1
:105148006025E16E020E00016121E26EDFCFE7FF0C
:10515800010120EE02F02551D9262651DA22010E4E
:105168000101EA250001606F0001616B000E6123F7
:10517800000E0001636F030E626F01EC4DF03C0EF0
:1051880000016025E16E020E00016121E26EDFCFB1
:10519800E7FF010120EE03F02551D9262651DA2236
:1051A800010E0101EA250001606F0001616B000E2C
:1051B8006123000E0001636F030E626F01EC4DF076
:1051C800010E00016027000E000161233C0E000162
:1051D8006025E16E020E00016121E26EDFCFE7FF7C
:1051E8000101EA2B41D79DEC4EF00101E15101018B
:1051F800D8B4120065D50001A851070B0001AD6FA6
:105208000001AD510001FF19D8A444D0800E00015F
:10521800A76513D0A5C06AF0A6C06BF0A70E000161
:105228006C6F000E00016D6F010E00016E6FA9C05A
:105238006FF0000E3AEC37F01200000E2C6E2C8A3C
:105248000001A9B102D02C9601D02C86A7C03DF050
:10525800A8C03EF0010E2F6E010E306E3D0E2D6E71
:10526800000E2E6EFCC031F0FDC032F020EE2CF0A6
:1052780000EE7EF0060EDBCFEBFFE806FCE25E0EEA
:105288000001856F010E0001866FFAC087F0D8EC27
:105298002DF01200ADC0AAF0010E0001AB6F0001A5
:1052A800AA2B03D00001D890AB370001AA2FFAD758
:1052B8000001AB5101015A150009D8B480D0000192
:1052C800AD51010D2A0EF324D96E010EF420DA6EC9
:1052D800020EDF642DD00001AD51010D2A0EF3241A
:1052E800D96E010EF420DA6E000EDF6EADC0AAF0A2
:1052F800010E0001AB6F0001AA2B03D00001D8906A
:10530800AB370001AA2FFAD70001AB51FF0A010100
:105318005A170001AD51010D320EF324D96E010E5A
:10532800F420DA6E000EDF6E9DEC42F0000E1200E3
:10533800000E2C6E2C8A0001A9B102D02C9601D047
:105348002C86000E3D6EADC03EF0010E2F6E010E94
:10535800306E3D0E2D6E000E2E6EFCC031F0FDC07D
:1053680032F020EE2CF000EE7EF0060EDBCFEBFFE5
:10537800E806FCE25E0E0001856F010E0001866FF3
:10538800FAC087F0D8EC2DF00009D8A40BD00001A2
:10539800AD51010D2A0EF324D96E010EF420DA6EF8
:1053A800DF2AC4D70001AD51010D2A0EF324D96EAE
:1053B800010EF420DA6E000EDF6E010E1200000EF0
:1053C8000001AE6F070E0001AE6501D0DDD000010F
:1053D800AE51010D320EF324D96E010EF420DA6EAF
:1053E800DF500001AA6FADC0ABF0010E0001AC6F39
:1053F8000001AB2B03D00001D890AC370001AB2FD4
:10540800FAD70001AC510001AA150009D8B4B9D0E7
:105418000001AE51010D2A0EF324D96E010EF420BD
:10542800DA6E020EDF6465D00001AE51010D2A0E5E
:10543800F324D96E010EF420DA6E000EDF6EAEC0D2
:10544800AAF0010E0001AB6F0001AA2B03D00001E6
:10545800D890AB370001AA2FFAD70001AB51FF0A49
:1054680001015A170001AE51010D320EF324D96E15
:10547800010EF420DA6E000EDF6E3B50D8B403D074
:105488009DEC42F034D0000E0001FA6F0001FA5191
:10549800010D5E0EF324D96E010EF420DA6E070EAC
:1054A800DF6E0001FA2B0001FA51010D5E0EF324A4
:1054B800D96E010EF420DA6E3FC0DFFF0001FA2B2F
:1054C8000101D469D569D40E00019D6F010E000158
:1054D8009E6F000E00019F6F000E0001A06F010E6D
:1054E8000001A16F000E0001A26FF7EC47F0000E5B
:1054F8001200000E2C6E2C8A0001A9B102D02C9645
:1055080001D02C86000E3D6EAEC03EF0010E2F6E0F
:10551800010E306E3D0E2D6E000E2E6EFCC031F069
:10552800FDC032F020EE2CF000EE7EF0060EDBCF50
:10553800EBFFE806FCE25E0E0001856F010E00013C
:10554800866FFAC087F0D8EC2DF00009D8A40CD0EB
:105558000001AE51010D2A0EF324D96E010EF4207C
:10556800DA6EDF2A000E12000001AE51010D2A0E7C
:10557800F324D96E010EF420DA6E000EDF6E010EF0
:1055880012000001AE2B1ED7020E3B18D8B469D00A
:10559800000E2C6E2C8A0001A9B102D02C9601D0E5
:1055A8002C863B04D8B42ED0000E0001AE6F070E37
:1055B8000001AE6501D01FD001015A51D8B418D0EE
:1055C800AEC0AAF0010E0001AB6F000E0001AC6F77
:1055D8000001AA2B04D0D8900001AB37AC370001EA
:1055E800AA2FF9D70001AB510001AC11D8A403D000
:1055F8000001AE2BDCD7080E0001AE6103D0AEC0AF
:105608003EF002D0000E3E6E000E3D6E010E2F6E73
:10561800010E306E3D0E2D6E000E2E6EFCC031F068
:10562800FDC032F020EE2CF000EE7EF0060EDBCF4F
:10563800EBFFE806FCE25E0E0001856F010E00013B
:10564800866FFAC087F0D8EC2DF00009D8A404D0F2
:1056580001012A2B000E1200000E01012A6F010E13
:105668001200000E2C6E2C8A0001A9B102D02C96D3
:1056780001D02C86ADC03EF0000E3D6E010E2F6E9F
:10568800010E306E3D0E2D6E000E2E6EFCC031F0F8
:10569800FDC032F020EE2CF000EE7EF0060EDBCFDF
:1056A800EBFFE806FCE25E0E0001856F010E0001CB
:1056B800866FFAC087F0D8EC2DF00009D8A404D082
:1056C80001012A2B000E1200000E01012A6F010EA3
:1056D80012000101EC6F030E0101EA6F0101D90507
:1056E800D8A414D05AEC32F006D080EC4EF0000961
:1056F800D8A49DEC4EF00101B2B3F7D70101B2A1D5
:1057080003D00101B3511200FF0E12000101D9515B
:105718000101D8A447D20101EC29D8B406D02AD077
:105728000101EA2F02D0FF0E12003FC0DAF1010E8C
:105738000101DB6FDC6BDD6BDE6B0101DA2B06D060
:10574800D8900101DB37DC37DD37DE370101DA2F8E
:10575800F7D7DBC1DAF0DCC1DBF0DDC1DCF0DEC19C
:10576800DDF00A0E0AEC3BF00009D8B4D9D7000ED8
:105778000101EC6F0101EC510F0D090EF326000E2B
:10578800F422000EF324D96E020EF420DA6EDECF76
:10579800D4F1DDCFD5F10101EC510F0D010EF32647
:1057A800000EF422000EF324D96E020EF420DA6EF5
:1057B800DF503D6E0101EC510F0D020EF326000E75
:1057C800F422000EF324D96E020EF420DA6EDF50B4
:1057D8003E6E79EC49F00001FB6F0001FB29D8A46B
:1057E8000AD08AEC4CF00001FB6F0001FB29D8A419
:1057F80002D0FF0E12000001FB510E0D0C0EF32615
:10580800000EF4225A0EF324D96E020EF420DA6E3A
:10581800000EDF6E0101EC510F0D090EF326000E8C
:10582800F422000EF324D96E020EF420DA6E000181
:10583800FB510E0D5A0EF324E16E020EF420E26EB7
:10584800DECFE6FFDDCFE5FF0101EC510F0D010EC4
:10585800F326000EF422000EF324D96E020EF42073
:10586800DA6E0001FB510E0D020EF326000EF42233
:105878005A0EF324E16E020EF420E26EDFCFE7FF4A
:105888000101EC510F0D020EF326000EF422000E5A
:10589800F324D96E020EF420DA6E0001FB510E0DCE
:1058A800030EF326000EF4225A0EF324E16E020EC4
:1058B800F420E26EDFCFE7FF0001FB510E0D0C0E66
:1058C800F326000EF4225A0EF324D96E020EF420A9
:1058D800DA6E0201DF86000E0101EB6F0101EB5168
:1058E8000101D8A441D00101EB51010D0E0EF326A0
:1058F800000EF422000E0101DA6F020E0101DB6FC7
:10590800F3500101DA27F4500101DB230101EC51C6
:105918000F0DF3500101DA25D96EF4500101DB2196
:10592800DA6E0101EB51010D0D0EF326000EF42283
:105938005A0E0101DC6F020E0101DD6FF350010107
:10594800DC27F4500101DD230001FB510E0DF3505B
:105958000101DC25E16EF4500101DD21E26EDFCFAB
:10596800E7FF0101EB2BBAD70001FB510E0D0C0E1E
:10597800F326000EF4225A0EF324D96E020EF420F8
:10598800DA6E0201DF820001FB510E0D0C0EF326C8
:10599800000EF4225A0EF324D96E020EF420DA6EA9
:1059A8000201DF8A0001FB510E0D0C0EF326000EDA
:1059B800F4225A0EF324D96E020EF420DA6E020194
:1059C800DF800101EC510F0D000EF324D96E020E99
:1059D800F420DA6EDF5018EC4EF00001FB510E0D8A
:1059E8005A0EF324D96E020EF420DA6EDECFFCF0E4
:1059F800DDCFFDF03D683E683D0E0001656F000E8D
:105A08000001666FFC0E0001676F000E0001686FF1
:105A1800ADEC4AF0000E0001FA6F0001FA51010DD9
:105A28005E0EF324D96E010EF420DA6E010EDF6EDD
:105A38000001FA2B0001FA51010D5E0EF324D96E14
:105A4800010EF420DA6E57C1DFFF0001FA2B000EB9
:105A58000101EB6F0101EB510101D8A419D001013B
:105A6800EB51010D360EF324D96E000EF420DA6ED8
:105A78000001FA51010D5E0EF324E16E010EF420CF
:105A8800E26EDFCFE7FF0001FA2B0101EB2BE2D733
:105A98000001FB510E0D5A0EF32400019D6F020EFA
:105AA800F42000019E6F0001FB510E0D020EF3263B
:105AB800000EF4225A0EF32400019F6F020EF42008
:105AC8000001A06F010E0001A16F080E0001A26F76
:105AD800F7EC47F075EC4AF060C0E2F161C0E3F121
